{
  "abi": [
    {
      "inputs": [
        {
          "internalType": "address",
          "name": "_dai",
          "type": "address"
        },
        {
          "internalType": "contract ISwapRouter",
          "name": "_swapRouter",
          "type": "address"
        },
        {
          "internalType": "contract IMoonSquares",
          "name": "_moonsqr",
          "type": "address"
        }
      ],
      "stateMutability": "nonpayable",
      "type": "constructor"
    },
    {
      "anonymous": false,
      "inputs": [
        {
          "indexed": true,
          "internalType": "address",
          "name": "previousOwner",
          "type": "address"
        },
        {
          "indexed": true,
          "internalType": "address",
          "name": "newOwner",
          "type": "address"
        }
      ],
      "name": "OwnershipTransferred",
      "type": "event"
    },
    {
      "anonymous": false,
      "inputs": [
        {
          "indexed": true,
          "internalType": "address",
          "name": "_placer",
          "type": "address"
        },
        {
          "indexed": false,
          "internalType": "int256",
          "name": "_prediction",
          "type": "int256"
        }
      ],
      "name": "Predicted",
      "type": "event"
    },
    {
      "inputs": [
        {
          "internalType": "uint256",
          "name": "",
          "type": "uint256"
        }
      ],
      "name": "AcceptedTokens",
      "outputs": [
        {
          "internalType": "address",
          "name": "",
          "type": "address"
        }
      ],
      "stateMutability": "view",
      "type": "function"
    },
    {
      "inputs": [
        {
          "internalType": "string",
          "name": "",
          "type": "string"
        }
      ],
      "name": "activeAsset",
      "outputs": [
        {
          "internalType": "bool",
          "name": "",
          "type": "bool"
        }
      ],
      "stateMutability": "view",
      "type": "function"
    },
    {
      "inputs": [
        {
          "internalType": "string",
          "name": "_asset",
          "type": "string"
        },
        {
          "internalType": "address",
          "name": "_aggregator",
          "type": "address"
        }
      ],
      "name": "addAssetAndAgg",
      "outputs": [],
      "stateMutability": "nonpayable",
      "type": "function"
    },
    {
      "inputs": [
        {
          "internalType": "address",
          "name": "_address",
          "type": "address"
        }
      ],
      "name": "addPaymentToken",
      "outputs": [],
      "stateMutability": "nonpayable",
      "type": "function"
    },
    {
      "inputs": [
        {
          "internalType": "bytes",
          "name": "checkData",
          "type": "bytes"
        }
      ],
      "name": "checkUpkeep",
      "outputs": [
        {
          "internalType": "bool",
          "name": "upkeepNeeded",
          "type": "bool"
        },
        {
          "internalType": "bytes",
          "name": "performData",
          "type": "bytes"
        }
      ],
      "stateMutability": "view",
      "type": "function"
    },
    {
      "inputs": [
        {
          "internalType": "uint128",
          "name": "_day",
          "type": "uint128"
        },
        {
          "internalType": "string",
          "name": "_asset",
          "type": "string"
        }
      ],
      "name": "claimWinnings",
      "outputs": [],
      "stateMutability": "nonpayable",
      "type": "function"
    },
    {
      "inputs": [],
      "name": "contractStartTime",
      "outputs": [
        {
          "internalType": "uint256",
          "name": "",
          "type": "uint256"
        }
      ],
      "stateMutability": "view",
      "type": "function"
    },
    {
      "inputs": [
        {
          "internalType": "uint128",
          "name": "",
          "type": "uint128"
        },
        {
          "internalType": "string",
          "name": "",
          "type": "string"
        },
        {
          "internalType": "uint256",
          "name": "",
          "type": "uint256"
        }
      ],
      "name": "dailyAssetWinners",
      "outputs": [
        {
          "internalType": "address",
          "name": "",
          "type": "address"
        }
      ],
      "stateMutability": "view",
      "type": "function"
    },
    {
      "inputs": [
        {
          "internalType": "uint256",
          "name": "",
          "type": "uint256"
        },
        {
          "internalType": "string",
          "name": "",
          "type": "string"
        }
      ],
      "name": "dayAssetNoOfWinners",
      "outputs": [
        {
          "internalType": "uint256",
          "name": "",
          "type": "uint256"
        }
      ],
      "stateMutability": "view",
      "type": "function"
    },
    {
      "inputs": [
        {
          "internalType": "uint256",
          "name": "",
          "type": "uint256"
        },
        {
          "internalType": "string",
          "name": "",
          "type": "string"
        },
        {
          "internalType": "uint256",
          "name": "",
          "type": "uint256"
        }
      ],
      "name": "dayAssetPrediction",
      "outputs": [
        {
          "internalType": "int256",
          "name": "",
          "type": "int256"
        }
      ],
      "stateMutability": "view",
      "type": "function"
    },
    {
      "inputs": [
        {
          "internalType": "uint256",
          "name": "",
          "type": "uint256"
        },
        {
          "internalType": "string",
          "name": "",
          "type": "string"
        },
        {
          "internalType": "uint256",
          "name": "",
          "type": "uint256"
        }
      ],
      "name": "dayAssetPredictors",
      "outputs": [
        {
          "internalType": "address",
          "name": "",
          "type": "address"
        }
      ],
      "stateMutability": "view",
      "type": "function"
    },
    {
      "inputs": [
        {
          "internalType": "uint256",
          "name": "",
          "type": "uint256"
        },
        {
          "internalType": "string",
          "name": "",
          "type": "string"
        }
      ],
      "name": "dayAssetTotalAmount",
      "outputs": [
        {
          "internalType": "uint256",
          "name": "",
          "type": "uint256"
        }
      ],
      "stateMutability": "view",
      "type": "function"
    },
    {
      "inputs": [
        {
          "internalType": "uint128",
          "name": "",
          "type": "uint128"
        },
        {
          "internalType": "string",
          "name": "",
          "type": "string"
        },
        {
          "internalType": "address",
          "name": "",
          "type": "address"
        }
      ],
      "name": "dayAssetUserPrediction",
      "outputs": [
        {
          "internalType": "int256",
          "name": "",
          "type": "int256"
        }
      ],
      "stateMutability": "view",
      "type": "function"
    },
    {
      "inputs": [
        {
          "internalType": "uint256",
          "name": "_aggindex",
          "type": "uint256"
        }
      ],
      "name": "getPrice",
      "outputs": [
        {
          "internalType": "int256",
          "name": "",
          "type": "int256"
        }
      ],
      "stateMutability": "view",
      "type": "function"
    },
    {
      "inputs": [],
      "name": "getTime",
      "outputs": [
        {
          "internalType": "uint256",
          "name": "",
          "type": "uint256"
        }
      ],
      "stateMutability": "view",
      "type": "function"
    },
    {
      "inputs": [
        {
          "internalType": "uint128",
          "name": "_day",
          "type": "uint128"
        },
        {
          "internalType": "string",
          "name": "_asset",
          "type": "string"
        },
        {
          "internalType": "address",
          "name": "checked",
          "type": "address"
        }
      ],
      "name": "isAwinner",
      "outputs": [
        {
          "internalType": "bool",
          "name": "",
          "type": "bool"
        }
      ],
      "stateMutability": "view",
      "type": "function"
    },
    {
      "inputs": [],
      "name": "moonSquare",
      "outputs": [
        {
          "internalType": "contract IMoonSquares",
          "name": "",
          "type": "address"
        }
      ],
      "stateMutability": "view",
      "type": "function"
    },
    {
      "inputs": [],
      "name": "owner",
      "outputs": [
        {
          "internalType": "address",
          "name": "",
          "type": "address"
        }
      ],
      "stateMutability": "view",
      "type": "function"
    },
    {
      "inputs": [
        {
          "internalType": "bytes",
          "name": "performData",
          "type": "bytes"
        }
      ],
      "name": "performUpkeep",
      "outputs": [],
      "stateMutability": "nonpayable",
      "type": "function"
    },
    {
      "inputs": [],
      "name": "poolFee",
      "outputs": [
        {
          "internalType": "uint24",
          "name": "",
          "type": "uint24"
        }
      ],
      "stateMutability": "view",
      "type": "function"
    },
    {
      "inputs": [
        {
          "internalType": "string",
          "name": "_asset",
          "type": "string"
        },
        {
          "internalType": "int256",
          "name": "_prediction",
          "type": "int256"
        },
        {
          "internalType": "address",
          "name": "token",
          "type": "address"
        }
      ],
      "name": "predictClosePrice",
      "outputs": [],
      "stateMutability": "nonpayable",
      "type": "function"
    },
    {
      "inputs": [
        {
          "internalType": "address",
          "name": "",
          "type": "address"
        }
      ],
      "name": "presentCharities",
      "outputs": [
        {
          "internalType": "bytes8",
          "name": "name",
          "type": "bytes8"
        },
        {
          "internalType": "bytes32",
          "name": "link",
          "type": "bytes32"
        }
      ],
      "stateMutability": "view",
      "type": "function"
    },
    {
      "inputs": [],
      "name": "renounceOwnership",
      "outputs": [],
      "stateMutability": "nonpayable",
      "type": "function"
    },
    {
      "inputs": [],
      "name": "swapRouter",
      "outputs": [
        {
          "internalType": "contract ISwapRouter",
          "name": "",
          "type": "address"
        }
      ],
      "stateMutability": "view",
      "type": "function"
    },
    {
      "inputs": [
        {
          "internalType": "address",
          "name": "newOwner",
          "type": "address"
        }
      ],
      "name": "transferOwnership",
      "outputs": [],
      "stateMutability": "nonpayable",
      "type": "function"
    }
  ],
  "bytecode": "60a06040819052600180546001600160a01b0319167388757f2f99175387ab4c6a4b3067c77a695b0349908117909155630261bf8b60e01b825290630261bf8b9060a490602090600481865afa1580156200005e573d6000803e3d6000fd5b505050506040513d601f19601f820116820180604052508101906200008491906200021b565b600280546001600160a01b03929092166001600160a01b0319928316179055600a805490911673ff795577d9ac8bd7d90ee22b6c1703490b6512fd179055348015620000cf57600080fd5b506040516200279b3803806200279b833981016040819052620000f29162000242565b620000fd33620001b2565b60118054600181810183556000929092527f31ecc21a745e3968a04e9570e4425bc18fa8019c68028196b546d1669c200c680180546001600160a01b038087166001600160a01b031992831617909255848216608052600380549285169290911691909117905542600b819055600480546001600160801b0319169092179091556200018d906201518062000296565b6004546001600160801b031660009081526009602052604090205550620002bd915050565b600080546001600160a01b038381166001600160a01b0319831681178455604051919092169283917f8be0079c531659141344cd1fd0a4f28419497f9722a3daafe3b4186f6b6457e09190a35050565b6001600160a01b03811681146200021857600080fd5b50565b6000602082840312156200022e57600080fd5b81516200023b8162000202565b9392505050565b6000806000606084860312156200025857600080fd5b8351620002658162000202565b6020850151909350620002788162000202565b60408501519092506200028b8162000202565b809150509250925092565b60008219821115620002b857634e487b7160e01b600052601160045260246000fd5b500190565b6080516124ad620002ee600039600081816103e801528181610d3501528181610e0a0152610e9401526124ad6000f3fe608060405234801561001057600080fd5b50600436106101735760003560e01c8063715018a6116100de578063be331a6411610097578063e757223011610071578063e75722301461040a578063ec6f4f411461041d578063f2fde38b1461044b578063fd2faa681461045e57600080fd5b8063be331a641461038e578063c2aba3f0146103a1578063c31c9c07146103e357600080fd5b8063715018a6146102f057806380f79702146102f857806381688c641461033457806385afa270146103475780638da5cb5b1461036a578063afa3a6171461037b57600080fd5b80634a128671116101305780634a128671146102525780634a7dc8e014610265578063557ed1ba146102785780635f90f0b71461028057806363168475146102935780636e04ff0d146102cf57600080fd5b8063089fe6aa146101785780630c3d51571461019a578063126df02b146101b15780631cc87d88146101ff5780634585e33b1461021457806347ce529a14610227575b600080fd5b610181610bb881565b60405162ffffff90911681526020015b60405180910390f35b6101a3600b5481565b604051908152602001610191565b6101df6101bf366004611d75565b6010602052600090815260409020805460019091015460c09190911b9082565b604080516001600160c01b03199093168352602083019190915201610191565b61021261020d366004611e51565b610471565b005b610212610222366004611e9f565b61062d565b61023a610235366004611f11565b6106a7565b6040516001600160a01b039091168152602001610191565b61023a610260366004611f68565b6106fb565b610212610273366004611d75565b610725565b6101a36107aa565b61023a61028e366004611f81565b610833565b6101a36102a1366004611fb4565b600d602090815260009283526040909220815180830184018051928152908401929093019190912091525481565b6102e26102dd366004611e9f565b61086a565b604051610191929190612011565b61021261097a565b6101a3610306366004611fb4565b600c602090815260009283526040909220815180830184018051928152908401929093019190912091525481565b61021261034236600461204d565b6109b0565b61035a61035536600461209b565b610a9f565b6040519015158152602001610191565b6000546001600160a01b031661023a565b6101a3610389366004611f81565b610b40565b61021261039c3660046120f9565b610b8d565b6101a36103af36600461209b565b6013602090815260009384526040808520845180860184018051928152908401958401959095209452929052825290205481565b61023a7f000000000000000000000000000000000000000000000000000000000000000081565b6101a3610418366004611f68565b61114b565b61035a61042b366004612147565b805160208183018101805160078252928201919093012091525460ff1681565b610212610459366004611d75565b6111f2565b60035461023a906001600160a01b031681565b6001600160801b038216600090815260086020526040908190209051610498908390612184565b90815260200160405180910390205460136000846001600160801b03166001600160801b03168152602001908152602001600020826040516104da9190612184565b908152604080516020928190038301902033600090815292529020541461050057600080fd5b6001600160801b0382166000908152600d60205260408082209051610526908490612184565b9081526020016040518091039020549050600a60009054906101000a90046001600160a01b03166001600160a01b031663a9059cbb33836064600c6000896001600160801b03168152602001908152602001600020876040516105899190612184565b908152602001604051809103902054605a6105a491906121b6565b6105ae91906121d5565b6105b891906121d5565b6040516001600160e01b031960e085901b1681526001600160a01b03909216600483015260248201526044016020604051808303816000875af1158015610603573d6000803e3d6000fd5b505050506040513d601f19601f8201168201806040525081019061062791906121f7565b50505050565b600061063b82840184611f68565b9050806106915761064a61128d565b61065261130a565b600480546001600160801b031690600061066b83612219565b91906101000a8154816001600160801b0302191690836001600160801b03160217905550505b80600114156106a2576106a2611785565b505050565b601260209081526000848152604090208351808501830180519281529083019285019290922091528054829081106106de57600080fd5b6000918252602090912001546001600160a01b0316925083915050565b6011818154811061070b57600080fd5b6000918252602090912001546001600160a01b0316905081565b6000546001600160a01b031633146107585760405162461bcd60e51b815260040161074f90612240565b60405180910390fd5b601180546001810182556000919091527f31ecc21a745e3968a04e9570e4425bc18fa8019c68028196b546d1669c200c680180546001600160a01b0319166001600160a01b0392909216919091179055565b600080736135b13325bfc4b00278b4abc5e20bbce2d6580e90506000816001600160a01b031663feaf968c6040518163ffffffff1660e01b815260040160a060405180830381865afa158015610804573d6000803e3d6000fd5b505050506040513d601f19601f82011682018060405250810190610828919061228f565b509695505050505050565b600f60209081526000848152604090208351808501830180519281529083019285019290922091528054829081106106de57600080fd5b600060606108766107aa565b6004546001600160801b031660009081526009602052604090205461089e90620151806122df565b14156108cf576040805160006020820152600193508391015b60405160208183030381529060405291509150610973565b6004546009906000906108ed906001906001600160801b03166122f7565b6001600160801b031681526020019081526020016000205461fd2061091291906122df565b61091a6107aa565b111561093957600191506001806040516020016108b791815260200190565b83838080601f0160208091040260200160405190810160405280939291908181526020018383808284376000920191909152509293505050505b9250929050565b6000546001600160a01b031633146109a45760405162461bcd60e51b815260040161074f90612240565b6109ae600061196d565b565b6000546001600160a01b031633146109da5760405162461bcd60e51b815260040161074f90612240565b600580546001810182556000919091528251610a1d917f036b6384b5eca791c62761152d0c79bb0604c104a5fb6f4eb0703f3154bb3db001906020850190611cc0565b5060068054600180820183556000929092527ff652222313e28459528d920b65115c16c04f3efc82aaedc97be59f3f377c0d3f0180546001600160a01b0319166001600160a01b038416179055604051600790610a7b908590612184565b908152604051908190036020019020805491151560ff199092169190911790555050565b6001600160801b0383166000908152600860205260408082209051610ac5908590612184565b90815260200160405180910390205460136000866001600160801b03166001600160801b0316815260200190815260200160002084604051610b079190612184565b90815260408051602092819003830190206001600160a01b0386166000908152925290205414610b3657600080fd5b5060019392505050565b600e6020908152600084815260409020835180850183018051928152908301928501929092209152805482908110610b7757600080fd5b9060005260206000200160009250925050505481565b8060005b600554811015610be957816001600160a01b031660118281548110610bb857610bb861231f565b6000918252602090912001546001600160a01b031614610bd757600080fd5b80610be181612335565b915050610b91565b50600784604051610bfa9190612184565b9081526040519081900360200190205460ff161515600114610c1b57600080fd5b60045460016001600160801b039091161115610c8757600454600990600090610c4f906001906001600160801b03166122f7565b6001600160801b031681526020019081526020016000205461fd20610c7491906122df565b610c7c6107aa565b1115610c8757600080fd5b600a54678ac7230489e80000906001600160a01b03848116911614610ee257600a54604051636eb1769f60e11b815233600482015230602482015282916001600160a01b03169063dd62ed3e90604401602060405180830381865afa158015610cf4573d6000803e3d6000fd5b505050506040513d601f19601f82011682018060405250810190610d189190612350565b1015610d2357600080fd5b610d2f833330846119bd565b610d5a837f000000000000000000000000000000000000000000000000000000000000000083611ac7565b60408051610100810182526001600160a01b038581168252600a54811660208301908152610bb88385019081523060608501908152426080860190815260a0860188815267d02ab486cedc000060c08801818152600060e08a018181529a51631b67c43360e31b81528a518a166004820152975189166024890152955162ffffff166044880152935187166064870152915160848601525160a4850152905160c48401529451831660e4830152917f0000000000000000000000000000000000000000000000000000000000000000169063db3e219890610104016020604051808303816000875af1158015610e54573d6000803e3d6000fd5b505050506040513d601f19601f82011682018060405250810190610e789190612350565b905082811015610eda57600a54610eba906001600160a01b03167f00000000000000000000000000000000000000000000000000000000000000006000611ac7565b600a54610eda906001600160a01b031633610ed58487612369565b611bc7565b505050610fdc565b600a54604051636eb1769f60e11b815233600482015230602482015282916001600160a01b03169063dd62ed3e90604401602060405180830381865afa158015610f30573d6000803e3d6000fd5b505050506040513d601f19601f82011682018060405250810190610f549190612350565b1015610f5f57600080fd5b600a546040516323b872dd60e01b8152336004820152306024820152604481018390526001600160a01b03909116906323b872dd906064016020604051808303816000875af1158015610fb6573d6000803e3d6000fd5b505050506040513d601f19601f82011682018060405250810190610fda91906121f7565b505b6004546001600160801b03166000908152600c6020526040908190209051829190611008908890612184565b9081526020016040518091039020600082825461102591906122df565b90915550506004546001600160801b0316600090815260136020526040908190209051859190611056908890612184565b908152604080519182900360209081018320336000908152908252828120949094556004546001600160801b03168452600e905290912090611099908790612184565b90815260408051918290036020908101832080546001810182556000918252828220018890556004546001600160801b03168152600f90915220906110df908790612184565b908152604051602091819003820181208054600181018255600091825290839020018054336001600160a01b03199091168117909155868252917f10fe2ed8f3daa306f14de54294a550f0f7dec5e7138f0cf277eac43bc95aab6f910160405180910390a25050505050565b600080600683815481106111615761116161231f565b9060005260206000200160009054906101000a90046001600160a01b031690506000816001600160a01b031663feaf968c6040518163ffffffff1660e01b815260040160a060405180830381865afa1580156111c1573d6000803e3d6000fd5b505050506040513d601f19601f820116820180604052508101906111e5919061228f565b5091979650505050505050565b6000546001600160a01b0316331461121c5760405162461bcd60e51b815260040161074f90612240565b6001600160a01b0381166112815760405162461bcd60e51b815260206004820152602660248201527f4f776e61626c653a206e6577206f776e657220697320746865207a65726f206160448201526564647265737360d01b606482015260840161074f565b61128a8161196d565b50565b60005b60065481101561128a576112a38161114b565b6004546001600160801b0316600090815260086020526040902060058054849081106112d1576112d161231f565b906000526020600020016040516112e891906123bb565b908152604051908190036020019020558061130281612335565b915050611290565b6004546001600160801b031660005b60055460ff82161015611781576001600160801b0382166000908152600f602052604090206005805460ff84169081106113555761135561231f565b9060005260206000200160405161136c91906123bb565b908152602001604051809103902080549050600e6000846001600160801b0316815260200190815260200160002060058360ff16815481106113b0576113b061231f565b906000526020600020016040516113c791906123bb565b90815260405190819003602001902054146113e157600080fd5b60005b6001600160801b0383166000908152600e602052604090206005805460ff85169081106114135761141361231f565b9060005260206000200160405161142a91906123bb565b9081526040519081900360200190205460ff8216101561176e576001600160801b03831660009081526008602052604090206005805460ff85169081106114735761147361231f565b9060005260206000200160405161148a91906123bb565b908152602001604051809103902054600e6000856001600160801b0316815260200190815260200160002060058460ff16815481106114cb576114cb61231f565b906000526020600020016040516114e291906123bb565b90815260200160405180910390208260ff16815481106115045761150461231f565b90600052602060002001541461151957600080fd5b6001600160801b03831660009081526012602052604090206005805460ff85169081106115485761154861231f565b9060005260206000200160405161155f91906123bb565b9081526020016040518091039020600f6000856001600160801b0316815260200190815260200160002060058460ff168154811061159f5761159f61231f565b906000526020600020016040516115b691906123bb565b90815260200160405180910390208260ff16815481106115d8576115d861231f565b60009182526020808320909101548354600181810186559484528284200180546001600160a01b0319166001600160a01b039092169190911790556001600160801b0386168252600d9052604090206005805460ff861690811061163e5761163e61231f565b9060005260206000200160405161165591906123bb565b9081526020016040518091039020600082825461167291906122df565b90915550506003546001600160801b0384166000908152600f60205260409020600580546001600160a01b0390931692638ebfa8ae92919060ff87169081106116bd576116bd61231f565b906000526020600020016040516116d491906123bb565b90815260200160405180910390208360ff16815481106116f6576116f661231f565b60009182526020909120015460405160e083901b6001600160e01b03191681526001600160a01b039091166004820152602401600060405180830381600087803b15801561174357600080fd5b505af1158015611757573d6000803e3d6000fd5b50505050808061176690612457565b9150506113e4565b508061177981612457565b915050611319565b5050565b6004546009906000906117a3906001906001600160801b03166122f7565b6001600160801b031681526020019081526020016000205461fd206117c891906122df565b6117d06107aa565b116117da57600080fd5b60005b6005546001600160801b038216101561128a576004546001600160801b039081166000908152600c602052604081206005805492936064939086169081106118275761182761231f565b9060005260206000200160405161183e91906123bb565b908152602001604051809103902054600a61185991906121b6565b61186391906121d5565b600a5460025460405163095ea7b360e01b81526001600160a01b03918216600482015260248101849052929350169063095ea7b3906044016020604051808303816000875af11580156118ba573d6000803e3d6000fd5b505050506040513d601f19601f820116820180604052508101906118de91906121f7565b50600254600a5460035460405163e8eda9df60e01b81526001600160a01b0392831660048201526024810185905290821660448201526000606482015291169063e8eda9df90608401600060405180830381600087803b15801561194157600080fd5b505af1158015611955573d6000803e3d6000fd5b5050505050808061196590612219565b9150506117dd565b600080546001600160a01b038381166001600160a01b0319831681178455604051919092169283917f8be0079c531659141344cd1fd0a4f28419497f9722a3daafe3b4186f6b6457e09190a35050565b604080516001600160a01b0385811660248301528481166044830152606480830185905283518084039091018152608490920183526020820180516001600160e01b03166323b872dd60e01b1790529151600092839290881691611a219190612184565b6000604051808303816000865af19150503d8060008114611a5e576040519150601f19603f3d011682016040523d82523d6000602084013e611a63565b606091505b5091509150818015611a8d575080511580611a8d575080806020019051810190611a8d91906121f7565b611abf5760405162461bcd60e51b815260206004820152600360248201526229aa2360e91b604482015260640161074f565b505050505050565b604080516001600160a01b038481166024830152604480830185905283518084039091018152606490920183526020820180516001600160e01b031663095ea7b360e01b1790529151600092839290871691611b239190612184565b6000604051808303816000865af19150503d8060008114611b60576040519150601f19603f3d011682016040523d82523d6000602084013e611b65565b606091505b5091509150818015611b8f575080511580611b8f575080806020019051810190611b8f91906121f7565b611bc05760405162461bcd60e51b8152602060048201526002602482015261534160f01b604482015260640161074f565b5050505050565b604080516001600160a01b038481166024830152604480830185905283518084039091018152606490920183526020820180516001600160e01b031663a9059cbb60e01b1790529151600092839290871691611c239190612184565b6000604051808303816000865af19150503d8060008114611c60576040519150601f19603f3d011682016040523d82523d6000602084013e611c65565b606091505b5091509150818015611c8f575080511580611c8f575080806020019051810190611c8f91906121f7565b611bc05760405162461bcd60e51b815260206004820152600260248201526114d560f21b604482015260640161074f565b828054611ccc90612380565b90600052602060002090601f016020900481019282611cee5760008555611d34565b82601f10611d0757805160ff1916838001178555611d34565b82800160010185558215611d34579182015b82811115611d34578251825591602001919060010190611d19565b50611d40929150611d44565b5090565b5b80821115611d405760008155600101611d45565b80356001600160a01b0381168114611d7057600080fd5b919050565b600060208284031215611d8757600080fd5b611d9082611d59565b9392505050565b80356001600160801b0381168114611d7057600080fd5b634e487b7160e01b600052604160045260246000fd5b600082601f830112611dd557600080fd5b813567ffffffffffffffff80821115611df057611df0611dae565b604051601f8301601f19908116603f01168101908282118183101715611e1857611e18611dae565b81604052838152866020858801011115611e3157600080fd5b836020870160208301376000602085830101528094505050505092915050565b60008060408385031215611e6457600080fd5b611e6d83611d97565b9150602083013567ffffffffffffffff811115611e8957600080fd5b611e9585828601611dc4565b9150509250929050565b60008060208385031215611eb257600080fd5b823567ffffffffffffffff80821115611eca57600080fd5b818501915085601f830112611ede57600080fd5b813581811115611eed57600080fd5b866020828501011115611eff57600080fd5b60209290920196919550909350505050565b600080600060608486031215611f2657600080fd5b611f2f84611d97565b9250602084013567ffffffffffffffff811115611f4b57600080fd5b611f5786828701611dc4565b925050604084013590509250925092565b600060208284031215611f7a57600080fd5b5035919050565b600080600060608486031215611f9657600080fd5b83359250602084013567ffffffffffffffff811115611f4b57600080fd5b60008060408385031215611fc757600080fd5b82359150602083013567ffffffffffffffff811115611e8957600080fd5b60005b83811015612000578181015183820152602001611fe8565b838111156106275750506000910152565b82151581526040602082015260008251806040840152612038816060850160208701611fe5565b601f01601f1916919091016060019392505050565b6000806040838503121561206057600080fd5b823567ffffffffffffffff81111561207757600080fd5b61208385828601611dc4565b92505061209260208401611d59565b90509250929050565b6000806000606084860312156120b057600080fd5b6120b984611d97565b9250602084013567ffffffffffffffff8111156120d557600080fd5b6120e186828701611dc4565b9250506120f060408501611d59565b90509250925092565b60008060006060848603121561210e57600080fd5b833567ffffffffffffffff81111561212557600080fd5b61213186828701611dc4565b935050602084013591506120f060408501611d59565b60006020828403121561215957600080fd5b813567ffffffffffffffff81111561217057600080fd5b61217c84828501611dc4565b949350505050565b60008251612196818460208701611fe5565b9190910192915050565b634e487b7160e01b600052601160045260246000fd5b60008160001904831182151516156121d0576121d06121a0565b500290565b6000826121f257634e487b7160e01b600052601260045260246000fd5b500490565b60006020828403121561220957600080fd5b81518015158114611d9057600080fd5b60006001600160801b0380831681811415612236576122366121a0565b6001019392505050565b6020808252818101527f4f776e61626c653a2063616c6c6572206973206e6f7420746865206f776e6572604082015260600190565b805169ffffffffffffffffffff81168114611d7057600080fd5b600080600080600060a086880312156122a757600080fd5b6122b086612275565b94506020860151935060408601519250606086015191506122d360808701612275565b90509295509295909350565b600082198211156122f2576122f26121a0565b500190565b60006001600160801b0383811690831681811015612317576123176121a0565b039392505050565b634e487b7160e01b600052603260045260246000fd5b6000600019821415612349576123496121a0565b5060010190565b60006020828403121561236257600080fd5b5051919050565b60008282101561237b5761237b6121a0565b500390565b600181811c9082168061239457607f821691505b602082108114156123b557634e487b7160e01b600052602260045260246000fd5b50919050565b600080835481600182811c9150808316806123d757607f831692505b60208084108214156123f757634e487b7160e01b86526022600452602486fd5b81801561240b576001811461241c57612449565b60ff19861689528489019650612449565b60008a81526020902060005b868110156124415781548b820152908501908301612428565b505084890196505b509498975050505050505050565b600060ff821660ff81141561246e5761246e6121a0565b6001019291505056fea26469706673582212206891cc7bc3ef2c12f42b8c84ff5b071fa0cd20c23774cfd5c353efce237e56c164736f6c634300080b0033",
  "bytecodeSha1": "e6ef70704c504a0bebd29db8b1a400113b43bbfc",
  "compiler": {
    "evm_version": "istanbul",
    "optimizer": {
      "enabled": true,
      "runs": 200
    },
    "version": "0.8.11+commit.d7f03943"
  },
  "contractName": "DailyRocket",
  "language": "Solidity",
  "natspec": {
    "kind": "dev",
    "methods": {
      "checkUpkeep(bytes)": {
        "notice": "checks if the contract requires work to be done.",
        "params": {
          "checkData": "data passed to the contract when checking for upkeep."
        },
        "returns": {
          "performData": "bytes that the keeper should call performUpkeep with, if upkeep is needed.",
          "upkeepNeeded": "boolean to indicate whether the keeper should call performUpkeep or not."
        }
      },
      "owner()": {
        "details": "Returns the address of the current owner."
      },
      "performUpkeep(bytes)": {
        "notice": "Performs work on the contract. Executed by the keepers, via the registry.",
        "params": {
          "performData": "is the data which was passed back from the checkData simulation."
        }
      },
      "renounceOwnership()": {
        "details": "Leaves the contract without owner. It will not be possible to call `onlyOwner` functions anymore. Can only be called by the current owner. NOTE: Renouncing ownership will leave the contract without an owner, thereby removing any functionality that is only available to the owner."
      },
      "transferOwnership(address)": {
        "details": "Transfers ownership of the contract to a new account (`newOwner`). Can only be called by the current owner."
      }
    },
    "version": 1
  },
  "opcodes": "PUSH1 0x80 PUSH1 0x40 MSTORE CALLVALUE DUP1 ISZERO PUSH2 0x10 JUMPI PUSH1 0x0 DUP1 REVERT JUMPDEST POP PUSH1 0x4 CALLDATASIZE LT PUSH2 0x173 JUMPI PUSH1 0x0 CALLDATALOAD PUSH1 0xE0 SHR DUP1 PUSH4 0x715018A6 GT PUSH2 0xDE JUMPI DUP1 PUSH4 0xBE331A64 GT PUSH2 0x97 JUMPI DUP1 PUSH4 0xE7572230 GT PUSH2 0x71 JUMPI DUP1 PUSH4 0xE7572230 EQ PUSH2 0x40A JUMPI DUP1 PUSH4 0xEC6F4F41 EQ PUSH2 0x41D JUMPI DUP1 PUSH4 0xF2FDE38B EQ PUSH2 0x44B JUMPI DUP1 PUSH4 0xFD2FAA68 EQ PUSH2 0x45E JUMPI PUSH1 0x0 DUP1 REVERT JUMPDEST DUP1 PUSH4 0xBE331A64 EQ PUSH2 0x38E JUMPI DUP1 PUSH4 0xC2ABA3F0 EQ PUSH2 0x3A1 JUMPI DUP1 PUSH4 0xC31C9C07 EQ PUSH2 0x3E3 JUMPI PUSH1 0x0 DUP1 REVERT JUMPDEST DUP1 PUSH4 0x715018A6 EQ PUSH2 0x2F0 JUMPI DUP1 PUSH4 0x80F79702 EQ PUSH2 0x2F8 JUMPI DUP1 PUSH4 0x81688C64 EQ PUSH2 0x334 JUMPI DUP1 PUSH4 0x85AFA270 EQ PUSH2 0x347 JUMPI DUP1 PUSH4 0x8DA5CB5B EQ PUSH2 0x36A JUMPI DUP1 PUSH4 0xAFA3A617 EQ PUSH2 0x37B JUMPI PUSH1 0x0 DUP1 REVERT JUMPDEST DUP1 PUSH4 0x4A128671 GT PUSH2 0x130 JUMPI DUP1 PUSH4 0x4A128671 EQ PUSH2 0x252 JUMPI DUP1 PUSH4 0x4A7DC8E0 EQ PUSH2 0x265 JUMPI DUP1 PUSH4 0x557ED1BA EQ PUSH2 0x278 JUMPI DUP1 PUSH4 0x5F90F0B7 EQ PUSH2 0x280 JUMPI DUP1 PUSH4 0x63168475 EQ PUSH2 0x293 JUMPI DUP1 PUSH4 0x6E04FF0D EQ PUSH2 0x2CF JUMPI PUSH1 0x0 DUP1 REVERT JUMPDEST DUP1 PUSH4 0x89FE6AA EQ PUSH2 0x178 JUMPI DUP1 PUSH4 0xC3D5157 EQ PUSH2 0x19A JUMPI DUP1 PUSH4 0x126DF02B EQ PUSH2 0x1B1 JUMPI DUP1 PUSH4 0x1CC87D88 EQ PUSH2 0x1FF JUMPI DUP1 PUSH4 0x4585E33B EQ PUSH2 0x214 JUMPI DUP1 PUSH4 0x47CE529A EQ PUSH2 0x227 JUMPI JUMPDEST PUSH1 0x0 DUP1 REVERT JUMPDEST PUSH2 0x181 PUSH2 0xBB8 DUP2 JUMP JUMPDEST PUSH1 0x40 MLOAD PUSH3 0xFFFFFF SWAP1 SWAP2 AND DUP2 MSTORE PUSH1 0x20 ADD JUMPDEST PUSH1 0x40 MLOAD DUP1 SWAP2 SUB SWAP1 RETURN JUMPDEST PUSH2 0x1A3 PUSH1 0xB SLOAD DUP2 JUMP JUMPDEST PUSH1 0x40 MLOAD SWAP1 DUP2 MSTORE PUSH1 0x20 ADD PUSH2 0x191 JUMP JUMPDEST PUSH2 0x1DF PUSH2 0x1BF CALLDATASIZE PUSH1 0x4 PUSH2 0x1D75 JUMP JUMPDEST PUSH1 0x10 PUSH1 0x20 MSTORE PUSH1 0x0 SWAP1 DUP2 MSTORE PUSH1 0x40 SWAP1 KECCAK256 DUP1 SLOAD PUSH1 0x1 SWAP1 SWAP2 ADD SLOAD PUSH1 0xC0 SWAP2 SWAP1 SWAP2 SHL SWAP1 DUP3 JUMP JUMPDEST PUSH1 0x40 DUP1 MLOAD PUSH1 0x1 PUSH1 0x1 PUSH1 0xC0 SHL SUB NOT SWAP1 SWAP4 AND DUP4 MSTORE PUSH1 0x20 DUP4 ADD SWAP2 SWAP1 SWAP2 MSTORE ADD PUSH2 0x191 JUMP JUMPDEST PUSH2 0x212 PUSH2 0x20D CALLDATASIZE PUSH1 0x4 PUSH2 0x1E51 JUMP JUMPDEST PUSH2 0x471 JUMP JUMPDEST STOP JUMPDEST PUSH2 0x212 PUSH2 0x222 CALLDATASIZE PUSH1 0x4 PUSH2 0x1E9F JUMP JUMPDEST PUSH2 0x62D JUMP JUMPDEST PUSH2 0x23A PUSH2 0x235 CALLDATASIZE PUSH1 0x4 PUSH2 0x1F11 JUMP JUMPDEST PUSH2 0x6A7 JUMP JUMPDEST PUSH1 0x40 MLOAD PUSH1 0x1 PUSH1 0x1 PUSH1 0xA0 SHL SUB SWAP1 SWAP2 AND DUP2 MSTORE PUSH1 0x20 ADD PUSH2 0x191 JUMP JUMPDEST PUSH2 0x23A PUSH2 0x260 CALLDATASIZE PUSH1 0x4 PUSH2 0x1F68 JUMP JUMPDEST PUSH2 0x6FB JUMP JUMPDEST PUSH2 0x212 PUSH2 0x273 CALLDATASIZE PUSH1 0x4 PUSH2 0x1D75 JUMP JUMPDEST PUSH2 0x725 JUMP JUMPDEST PUSH2 0x1A3 PUSH2 0x7AA JUMP JUMPDEST PUSH2 0x23A PUSH2 0x28E CALLDATASIZE PUSH1 0x4 PUSH2 0x1F81 JUMP JUMPDEST PUSH2 0x833 JUMP JUMPDEST PUSH2 0x1A3 PUSH2 0x2A1 CALLDATASIZE PUSH1 0x4 PUSH2 0x1FB4 JUMP JUMPDEST PUSH1 0xD PUSH1 0x20 SWAP1 DUP2 MSTORE PUSH1 0x0 SWAP3 DUP4 MSTORE PUSH1 0x40 SWAP1 SWAP3 KECCAK256 DUP2 MLOAD DUP1 DUP4 ADD DUP5 ADD DUP1 MLOAD SWAP3 DUP2 MSTORE SWAP1 DUP5 ADD SWAP3 SWAP1 SWAP4 ADD SWAP2 SWAP1 SWAP2 KECCAK256 SWAP2 MSTORE SLOAD DUP2 JUMP JUMPDEST PUSH2 0x2E2 PUSH2 0x2DD CALLDATASIZE PUSH1 0x4 PUSH2 0x1E9F JUMP JUMPDEST PUSH2 0x86A JUMP JUMPDEST PUSH1 0x40 MLOAD PUSH2 0x191 SWAP3 SWAP2 SWAP1 PUSH2 0x2011 JUMP JUMPDEST PUSH2 0x212 PUSH2 0x97A JUMP JUMPDEST PUSH2 0x1A3 PUSH2 0x306 CALLDATASIZE PUSH1 0x4 PUSH2 0x1FB4 JUMP JUMPDEST PUSH1 0xC PUSH1 0x20 SWAP1 DUP2 MSTORE PUSH1 0x0 SWAP3 DUP4 MSTORE PUSH1 0x40 SWAP1 SWAP3 KECCAK256 DUP2 MLOAD DUP1 DUP4 ADD DUP5 ADD DUP1 MLOAD SWAP3 DUP2 MSTORE SWAP1 DUP5 ADD SWAP3 SWAP1 SWAP4 ADD SWAP2 SWAP1 SWAP2 KECCAK256 SWAP2 MSTORE SLOAD DUP2 JUMP JUMPDEST PUSH2 0x212 PUSH2 0x342 CALLDATASIZE PUSH1 0x4 PUSH2 0x204D JUMP JUMPDEST PUSH2 0x9B0 JUMP JUMPDEST PUSH2 0x35A PUSH2 0x355 CALLDATASIZE PUSH1 0x4 PUSH2 0x209B JUMP JUMPDEST PUSH2 0xA9F JUMP JUMPDEST PUSH1 0x40 MLOAD SWAP1 ISZERO ISZERO DUP2 MSTORE PUSH1 0x20 ADD PUSH2 0x191 JUMP JUMPDEST PUSH1 0x0 SLOAD PUSH1 0x1 PUSH1 0x1 PUSH1 0xA0 SHL SUB AND PUSH2 0x23A JUMP JUMPDEST PUSH2 0x1A3 PUSH2 0x389 CALLDATASIZE PUSH1 0x4 PUSH2 0x1F81 JUMP JUMPDEST PUSH2 0xB40 JUMP JUMPDEST PUSH2 0x212 PUSH2 0x39C CALLDATASIZE PUSH1 0x4 PUSH2 0x20F9 JUMP JUMPDEST PUSH2 0xB8D JUMP JUMPDEST PUSH2 0x1A3 PUSH2 0x3AF CALLDATASIZE PUSH1 0x4 PUSH2 0x209B JUMP JUMPDEST PUSH1 0x13 PUSH1 0x20 SWAP1 DUP2 MSTORE PUSH1 0x0 SWAP4 DUP5 MSTORE PUSH1 0x40 DUP1 DUP6 KECCAK256 DUP5 MLOAD DUP1 DUP7 ADD DUP5 ADD DUP1 MLOAD SWAP3 DUP2 MSTORE SWAP1 DUP5 ADD SWAP6 DUP5 ADD SWAP6 SWAP1 SWAP6 KECCAK256 SWAP5 MSTORE SWAP3 SWAP1 MSTORE DUP3 MSTORE SWAP1 KECCAK256 SLOAD DUP2 JUMP JUMPDEST PUSH2 0x23A PUSH32 0x0 DUP2 JUMP JUMPDEST PUSH2 0x1A3 PUSH2 0x418 CALLDATASIZE PUSH1 0x4 PUSH2 0x1F68 JUMP JUMPDEST PUSH2 0x114B JUMP JUMPDEST PUSH2 0x35A PUSH2 0x42B CALLDATASIZE PUSH1 0x4 PUSH2 0x2147 JUMP JUMPDEST DUP1 MLOAD PUSH1 0x20 DUP2 DUP4 ADD DUP2 ADD DUP1 MLOAD PUSH1 0x7 DUP3 MSTORE SWAP3 DUP3 ADD SWAP2 SWAP1 SWAP4 ADD KECCAK256 SWAP2 MSTORE SLOAD PUSH1 0xFF AND DUP2 JUMP JUMPDEST PUSH2 0x212 PUSH2 0x459 CALLDATASIZE PUSH1 0x4 PUSH2 0x1D75 JUMP JUMPDEST PUSH2 0x11F2 JUMP JUMPDEST PUSH1 0x3 SLOAD PUSH2 0x23A SWAP1 PUSH1 0x1 PUSH1 0x1 PUSH1 0xA0 SHL SUB AND DUP2 JUMP JUMPDEST PUSH1 0x1 PUSH1 0x1 PUSH1 0x80 SHL SUB DUP3 AND PUSH1 0x0 SWAP1 DUP2 MSTORE PUSH1 0x8 PUSH1 0x20 MSTORE PUSH1 0x40 SWAP1 DUP2 SWAP1 KECCAK256 SWAP1 MLOAD PUSH2 0x498 SWAP1 DUP4 SWAP1 PUSH2 0x2184 JUMP JUMPDEST SWAP1 DUP2 MSTORE PUSH1 0x20 ADD PUSH1 0x40 MLOAD DUP1 SWAP2 SUB SWAP1 KECCAK256 SLOAD PUSH1 0x13 PUSH1 0x0 DUP5 PUSH1 0x1 PUSH1 0x1 PUSH1 0x80 SHL SUB AND PUSH1 0x1 PUSH1 0x1 PUSH1 0x80 SHL SUB AND DUP2 MSTORE PUSH1 0x20 ADD SWAP1 DUP2 MSTORE PUSH1 0x20 ADD PUSH1 0x0 KECCAK256 DUP3 PUSH1 0x40 MLOAD PUSH2 0x4DA SWAP2 SWAP1 PUSH2 0x2184 JUMP JUMPDEST SWAP1 DUP2 MSTORE PUSH1 0x40 DUP1 MLOAD PUSH1 0x20 SWAP3 DUP2 SWAP1 SUB DUP4 ADD SWAP1 KECCAK256 CALLER PUSH1 0x0 SWAP1 DUP2 MSTORE SWAP3 MSTORE SWAP1 KECCAK256 SLOAD EQ PUSH2 0x500 JUMPI PUSH1 0x0 DUP1 REVERT JUMPDEST PUSH1 0x1 PUSH1 0x1 PUSH1 0x80 SHL SUB DUP3 AND PUSH1 0x0 SWAP1 DUP2 MSTORE PUSH1 0xD PUSH1 0x20 MSTORE PUSH1 0x40 DUP1 DUP3 KECCAK256 SWAP1 MLOAD PUSH2 0x526 SWAP1 DUP5 SWAP1 PUSH2 0x2184 JUMP JUMPDEST SWAP1 DUP2 MSTORE PUSH1 0x20 ADD PUSH1 0x40 MLOAD DUP1 SWAP2 SUB SWAP1 KECCAK256 SLOAD SWAP1 POP PUSH1 0xA PUSH1 0x0 SWAP1 SLOAD SWAP1 PUSH2 0x100 EXP SWAP1 DIV PUSH1 0x1 PUSH1 0x1 PUSH1 0xA0 SHL SUB AND PUSH1 0x1 PUSH1 0x1 PUSH1 0xA0 SHL SUB AND PUSH4 0xA9059CBB CALLER DUP4 PUSH1 0x64 PUSH1 0xC PUSH1 0x0 DUP10 PUSH1 0x1 PUSH1 0x1 PUSH1 0x80 SHL SUB AND DUP2 MSTORE PUSH1 0x20 ADD SWAP1 DUP2 MSTORE PUSH1 0x20 ADD PUSH1 0x0 KECCAK256 DUP8 PUSH1 0x40 MLOAD PUSH2 0x589 SWAP2 SWAP1 PUSH2 0x2184 JUMP JUMPDEST SWAP1 DUP2 MSTORE PUSH1 0x20 ADD PUSH1 0x40 MLOAD DUP1 SWAP2 SUB SWAP1 KECCAK256 SLOAD PUSH1 0x5A PUSH2 0x5A4 SWAP2 SWAP1 PUSH2 0x21B6 JUMP JUMPDEST PUSH2 0x5AE SWAP2 SWAP1 PUSH2 0x21D5 JUMP JUMPDEST PUSH2 0x5B8 SWAP2 SWAP1 PUSH2 0x21D5 JUMP JUMPDEST PUSH1 0x40 MLOAD PUSH1 0x1 PUSH1 0x1 PUSH1 0xE0 SHL SUB NOT PUSH1 0xE0 DUP6 SWAP1 SHL AND DUP2 MSTORE PUSH1 0x1 PUSH1 0x1 PUSH1 0xA0 SHL SUB SWAP1 SWAP3 AND PUSH1 0x4 DUP4 ADD MSTORE PUSH1 0x24 DUP3 ADD MSTORE PUSH1 0x44 ADD PUSH1 0x20 PUSH1 0x40 MLOAD DUP1 DUP4 SUB DUP2 PUSH1 0x0 DUP8 GAS CALL ISZERO DUP1 ISZERO PUSH2 0x603 JUMPI RETURNDATASIZE PUSH1 0x0 DUP1 RETURNDATACOPY RETURNDATASIZE PUSH1 0x0 REVERT JUMPDEST POP POP POP POP PUSH1 0x40 MLOAD RETURNDATASIZE PUSH1 0x1F NOT PUSH1 0x1F DUP3 ADD AND DUP3 ADD DUP1 PUSH1 0x40 MSTORE POP DUP2 ADD SWAP1 PUSH2 0x627 SWAP2 SWAP1 PUSH2 0x21F7 JUMP JUMPDEST POP POP POP POP JUMP JUMPDEST PUSH1 0x0 PUSH2 0x63B DUP3 DUP5 ADD DUP5 PUSH2 0x1F68 JUMP JUMPDEST SWAP1 POP DUP1 PUSH2 0x691 JUMPI PUSH2 0x64A PUSH2 0x128D JUMP JUMPDEST PUSH2 0x652 PUSH2 0x130A JUMP JUMPDEST PUSH1 0x4 DUP1 SLOAD PUSH1 0x1 PUSH1 0x1 PUSH1 0x80 SHL SUB AND SWAP1 PUSH1 0x0 PUSH2 0x66B DUP4 PUSH2 0x2219 JUMP JUMPDEST SWAP2 SWAP1 PUSH2 0x100 EXP DUP2 SLOAD DUP2 PUSH1 0x1 PUSH1 0x1 PUSH1 0x80 SHL SUB MUL NOT AND SWAP1 DUP4 PUSH1 0x1 PUSH1 0x1 PUSH1 0x80 SHL SUB AND MUL OR SWAP1 SSTORE POP POP JUMPDEST DUP1 PUSH1 0x1 EQ ISZERO PUSH2 0x6A2 JUMPI PUSH2 0x6A2 PUSH2 0x1785 JUMP JUMPDEST POP POP POP JUMP JUMPDEST PUSH1 0x12 PUSH1 0x20 SWAP1 DUP2 MSTORE PUSH1 0x0 DUP5 DUP2 MSTORE PUSH1 0x40 SWAP1 KECCAK256 DUP4 MLOAD DUP1 DUP6 ADD DUP4 ADD DUP1 MLOAD SWAP3 DUP2 MSTORE SWAP1 DUP4 ADD SWAP3 DUP6 ADD SWAP3 SWAP1 SWAP3 KECCAK256 SWAP2 MSTORE DUP1 SLOAD DUP3 SWAP1 DUP2 LT PUSH2 0x6DE JUMPI PUSH1 0x0 DUP1 REVERT JUMPDEST PUSH1 0x0 SWAP2 DUP3 MSTORE PUSH1 0x20 SWAP1 SWAP2 KECCAK256 ADD SLOAD PUSH1 0x1 PUSH1 0x1 PUSH1 0xA0 SHL SUB AND SWAP3 POP DUP4 SWAP2 POP POP JUMP JUMPDEST PUSH1 0x11 DUP2 DUP2 SLOAD DUP2 LT PUSH2 0x70B JUMPI PUSH1 0x0 DUP1 REVERT JUMPDEST PUSH1 0x0 SWAP2 DUP3 MSTORE PUSH1 0x20 SWAP1 SWAP2 KECCAK256 ADD SLOAD PUSH1 0x1 PUSH1 0x1 PUSH1 0xA0 SHL SUB AND SWAP1 POP DUP2 JUMP JUMPDEST PUSH1 0x0 SLOAD PUSH1 0x1 PUSH1 0x1 PUSH1 0xA0 SHL SUB AND CALLER EQ PUSH2 0x758 JUMPI PUSH1 0x40 MLOAD PUSH3 0x461BCD PUSH1 0xE5 SHL DUP2 MSTORE PUSH1 0x4 ADD PUSH2 0x74F SWAP1 PUSH2 0x2240 JUMP JUMPDEST PUSH1 0x40 MLOAD DUP1 SWAP2 SUB SWAP1 REVERT JUMPDEST PUSH1 0x11 DUP1 SLOAD PUSH1 0x1 DUP2 ADD DUP3 SSTORE PUSH1 0x0 SWAP2 SWAP1 SWAP2 MSTORE PUSH32 0x31ECC21A745E3968A04E9570E4425BC18FA8019C68028196B546D1669C200C68 ADD DUP1 SLOAD PUSH1 0x1 PUSH1 0x1 PUSH1 0xA0 SHL SUB NOT AND PUSH1 0x1 PUSH1 0x1 PUSH1 0xA0 SHL SUB SWAP3 SWAP1 SWAP3 AND SWAP2 SWAP1 SWAP2 OR SWAP1 SSTORE JUMP JUMPDEST PUSH1 0x0 DUP1 PUSH20 0x6135B13325BFC4B00278B4ABC5E20BBCE2D6580E SWAP1 POP PUSH1 0x0 DUP2 PUSH1 0x1 PUSH1 0x1 PUSH1 0xA0 SHL SUB AND PUSH4 0xFEAF968C PUSH1 0x40 MLOAD DUP2 PUSH4 0xFFFFFFFF AND PUSH1 0xE0 SHL DUP2 MSTORE PUSH1 0x4 ADD PUSH1 0xA0 PUSH1 0x40 MLOAD DUP1 DUP4 SUB DUP2 DUP7 GAS STATICCALL ISZERO DUP1 ISZERO PUSH2 0x804 JUMPI RETURNDATASIZE PUSH1 0x0 DUP1 RETURNDATACOPY RETURNDATASIZE PUSH1 0x0 REVERT JUMPDEST POP POP POP POP PUSH1 0x40 MLOAD RETURNDATASIZE PUSH1 0x1F NOT PUSH1 0x1F DUP3 ADD AND DUP3 ADD DUP1 PUSH1 0x40 MSTORE POP DUP2 ADD SWAP1 PUSH2 0x828 SWAP2 SWAP1 PUSH2 0x228F JUMP JUMPDEST POP SWAP7 SWAP6 POP POP POP POP POP POP JUMP JUMPDEST PUSH1 0xF PUSH1 0x20 SWAP1 DUP2 MSTORE PUSH1 0x0 DUP5 DUP2 MSTORE PUSH1 0x40 SWAP1 KECCAK256 DUP4 MLOAD DUP1 DUP6 ADD DUP4 ADD DUP1 MLOAD SWAP3 DUP2 MSTORE SWAP1 DUP4 ADD SWAP3 DUP6 ADD SWAP3 SWAP1 SWAP3 KECCAK256 SWAP2 MSTORE DUP1 SLOAD DUP3 SWAP1 DUP2 LT PUSH2 0x6DE JUMPI PUSH1 0x0 DUP1 REVERT JUMPDEST PUSH1 0x0 PUSH1 0x60 PUSH2 0x876 PUSH2 0x7AA JUMP JUMPDEST PUSH1 0x4 SLOAD PUSH1 0x1 PUSH1 0x1 PUSH1 0x80 SHL SUB AND PUSH1 0x0 SWAP1 DUP2 MSTORE PUSH1 0x9 PUSH1 0x20 MSTORE PUSH1 0x40 SWAP1 KECCAK256 SLOAD PUSH2 0x89E SWAP1 PUSH3 0x15180 PUSH2 0x22DF JUMP JUMPDEST EQ ISZERO PUSH2 0x8CF JUMPI PUSH1 0x40 DUP1 MLOAD PUSH1 0x0 PUSH1 0x20 DUP3 ADD MSTORE PUSH1 0x1 SWAP4 POP DUP4 SWAP2 ADD JUMPDEST PUSH1 0x40 MLOAD PUSH1 0x20 DUP2 DUP4 SUB SUB DUP2 MSTORE SWAP1 PUSH1 0x40 MSTORE SWAP2 POP SWAP2 POP PUSH2 0x973 JUMP JUMPDEST PUSH1 0x4 SLOAD PUSH1 0x9 SWAP1 PUSH1 0x0 SWAP1 PUSH2 0x8ED SWAP1 PUSH1 0x1 SWAP1 PUSH1 0x1 PUSH1 0x1 PUSH1 0x80 SHL SUB AND PUSH2 0x22F7 JUMP JUMPDEST PUSH1 0x1 PUSH1 0x1 PUSH1 0x80 SHL SUB AND DUP2 MSTORE PUSH1 0x20 ADD SWAP1 DUP2 MSTORE PUSH1 0x20 ADD PUSH1 0x0 KECCAK256 SLOAD PUSH2 0xFD20 PUSH2 0x912 SWAP2 SWAP1 PUSH2 0x22DF JUMP JUMPDEST PUSH2 0x91A PUSH2 0x7AA JUMP JUMPDEST GT ISZERO PUSH2 0x939 JUMPI PUSH1 0x1 SWAP2 POP PUSH1 0x1 DUP1 PUSH1 0x40 MLOAD PUSH1 0x20 ADD PUSH2 0x8B7 SWAP2 DUP2 MSTORE PUSH1 0x20 ADD SWAP1 JUMP JUMPDEST DUP4 DUP4 DUP1 DUP1 PUSH1 0x1F ADD PUSH1 0x20 DUP1 SWAP2 DIV MUL PUSH1 0x20 ADD PUSH1 0x40 MLOAD SWAP1 DUP2 ADD PUSH1 0x40 MSTORE DUP1 SWAP4 SWAP3 SWAP2 SWAP1 DUP2 DUP2 MSTORE PUSH1 0x20 ADD DUP4 DUP4 DUP1 DUP3 DUP5 CALLDATACOPY PUSH1 0x0 SWAP3 ADD SWAP2 SWAP1 SWAP2 MSTORE POP SWAP3 SWAP4 POP POP POP POP JUMPDEST SWAP3 POP SWAP3 SWAP1 POP JUMP JUMPDEST PUSH1 0x0 SLOAD PUSH1 0x1 PUSH1 0x1 PUSH1 0xA0 SHL SUB AND CALLER EQ PUSH2 0x9A4 JUMPI PUSH1 0x40 MLOAD PUSH3 0x461BCD PUSH1 0xE5 SHL DUP2 MSTORE PUSH1 0x4 ADD PUSH2 0x74F SWAP1 PUSH2 0x2240 JUMP JUMPDEST PUSH2 0x9AE PUSH1 0x0 PUSH2 0x196D JUMP JUMPDEST JUMP JUMPDEST PUSH1 0x0 SLOAD PUSH1 0x1 PUSH1 0x1 PUSH1 0xA0 SHL SUB AND CALLER EQ PUSH2 0x9DA JUMPI PUSH1 0x40 MLOAD PUSH3 0x461BCD PUSH1 0xE5 SHL DUP2 MSTORE PUSH1 0x4 ADD PUSH2 0x74F SWAP1 PUSH2 0x2240 JUMP JUMPDEST PUSH1 0x5 DUP1 SLOAD PUSH1 0x1 DUP2 ADD DUP3 SSTORE PUSH1 0x0 SWAP2 SWAP1 SWAP2 MSTORE DUP3 MLOAD PUSH2 0xA1D SWAP2 PUSH32 0x36B6384B5ECA791C62761152D0C79BB0604C104A5FB6F4EB0703F3154BB3DB0 ADD SWAP1 PUSH1 0x20 DUP6 ADD SWAP1 PUSH2 0x1CC0 JUMP JUMPDEST POP PUSH1 0x6 DUP1 SLOAD PUSH1 0x1 DUP1 DUP3 ADD DUP4 SSTORE PUSH1 0x0 SWAP3 SWAP1 SWAP3 MSTORE PUSH32 0xF652222313E28459528D920B65115C16C04F3EFC82AAEDC97BE59F3F377C0D3F ADD DUP1 SLOAD PUSH1 0x1 PUSH1 0x1 PUSH1 0xA0 SHL SUB NOT AND PUSH1 0x1 PUSH1 0x1 PUSH1 0xA0 SHL SUB DUP5 AND OR SWAP1 SSTORE PUSH1 0x40 MLOAD PUSH1 0x7 SWAP1 PUSH2 0xA7B SWAP1 DUP6 SWAP1 PUSH2 0x2184 JUMP JUMPDEST SWAP1 DUP2 MSTORE PUSH1 0x40 MLOAD SWAP1 DUP2 SWAP1 SUB PUSH1 0x20 ADD SWAP1 KECCAK256 DUP1 SLOAD SWAP2 ISZERO ISZERO PUSH1 0xFF NOT SWAP1 SWAP3 AND SWAP2 SWAP1 SWAP2 OR SWAP1 SSTORE POP POP JUMP JUMPDEST PUSH1 0x1 PUSH1 0x1 PUSH1 0x80 SHL SUB DUP4 AND PUSH1 0x0 SWAP1 DUP2 MSTORE PUSH1 0x8 PUSH1 0x20 MSTORE PUSH1 0x40 DUP1 DUP3 KECCAK256 SWAP1 MLOAD PUSH2 0xAC5 SWAP1 DUP6 SWAP1 PUSH2 0x2184 JUMP JUMPDEST SWAP1 DUP2 MSTORE PUSH1 0x20 ADD PUSH1 0x40 MLOAD DUP1 SWAP2 SUB SWAP1 KECCAK256 SLOAD PUSH1 0x13 PUSH1 0x0 DUP7 PUSH1 0x1 PUSH1 0x1 PUSH1 0x80 SHL SUB AND PUSH1 0x1 PUSH1 0x1 PUSH1 0x80 SHL SUB AND DUP2 MSTORE PUSH1 0x20 ADD SWAP1 DUP2 MSTORE PUSH1 0x20 ADD PUSH1 0x0 KECCAK256 DUP5 PUSH1 0x40 MLOAD PUSH2 0xB07 SWAP2 SWAP1 PUSH2 0x2184 JUMP JUMPDEST SWAP1 DUP2 MSTORE PUSH1 0x40 DUP1 MLOAD PUSH1 0x20 SWAP3 DUP2 SWAP1 SUB DUP4 ADD SWAP1 KECCAK256 PUSH1 0x1 PUSH1 0x1 PUSH1 0xA0 SHL SUB DUP7 AND PUSH1 0x0 SWAP1 DUP2 MSTORE SWAP3 MSTORE SWAP1 KECCAK256 SLOAD EQ PUSH2 0xB36 JUMPI PUSH1 0x0 DUP1 REVERT JUMPDEST POP PUSH1 0x1 SWAP4 SWAP3 POP POP POP JUMP JUMPDEST PUSH1 0xE PUSH1 0x20 SWAP1 DUP2 MSTORE PUSH1 0x0 DUP5 DUP2 MSTORE PUSH1 0x40 SWAP1 KECCAK256 DUP4 MLOAD DUP1 DUP6 ADD DUP4 ADD DUP1 MLOAD SWAP3 DUP2 MSTORE SWAP1 DUP4 ADD SWAP3 DUP6 ADD SWAP3 SWAP1 SWAP3 KECCAK256 SWAP2 MSTORE DUP1 SLOAD DUP3 SWAP1 DUP2 LT PUSH2 0xB77 JUMPI PUSH1 0x0 DUP1 REVERT JUMPDEST SWAP1 PUSH1 0x0 MSTORE PUSH1 0x20 PUSH1 0x0 KECCAK256 ADD PUSH1 0x0 SWAP3 POP SWAP3 POP POP POP SLOAD DUP2 JUMP JUMPDEST DUP1 PUSH1 0x0 JUMPDEST PUSH1 0x5 SLOAD DUP2 LT ISZERO PUSH2 0xBE9 JUMPI DUP2 PUSH1 0x1 PUSH1 0x1 PUSH1 0xA0 SHL SUB AND PUSH1 0x11 DUP3 DUP2 SLOAD DUP2 LT PUSH2 0xBB8 JUMPI PUSH2 0xBB8 PUSH2 0x231F JUMP JUMPDEST PUSH1 0x0 SWAP2 DUP3 MSTORE PUSH1 0x20 SWAP1 SWAP2 KECCAK256 ADD SLOAD PUSH1 0x1 PUSH1 0x1 PUSH1 0xA0 SHL SUB AND EQ PUSH2 0xBD7 JUMPI PUSH1 0x0 DUP1 REVERT JUMPDEST DUP1 PUSH2 0xBE1 DUP2 PUSH2 0x2335 JUMP JUMPDEST SWAP2 POP POP PUSH2 0xB91 JUMP JUMPDEST POP PUSH1 0x7 DUP5 PUSH1 0x40 MLOAD PUSH2 0xBFA SWAP2 SWAP1 PUSH2 0x2184 JUMP JUMPDEST SWAP1 DUP2 MSTORE PUSH1 0x40 MLOAD SWAP1 DUP2 SWAP1 SUB PUSH1 0x20 ADD SWAP1 KECCAK256 SLOAD PUSH1 0xFF AND ISZERO ISZERO PUSH1 0x1 EQ PUSH2 0xC1B JUMPI PUSH1 0x0 DUP1 REVERT JUMPDEST PUSH1 0x4 SLOAD PUSH1 0x1 PUSH1 0x1 PUSH1 0x1 PUSH1 0x80 SHL SUB SWAP1 SWAP2 AND GT ISZERO PUSH2 0xC87 JUMPI PUSH1 0x4 SLOAD PUSH1 0x9 SWAP1 PUSH1 0x0 SWAP1 PUSH2 0xC4F SWAP1 PUSH1 0x1 SWAP1 PUSH1 0x1 PUSH1 0x1 PUSH1 0x80 SHL SUB AND PUSH2 0x22F7 JUMP JUMPDEST PUSH1 0x1 PUSH1 0x1 PUSH1 0x80 SHL SUB AND DUP2 MSTORE PUSH1 0x20 ADD SWAP1 DUP2 MSTORE PUSH1 0x20 ADD PUSH1 0x0 KECCAK256 SLOAD PUSH2 0xFD20 PUSH2 0xC74 SWAP2 SWAP1 PUSH2 0x22DF JUMP JUMPDEST PUSH2 0xC7C PUSH2 0x7AA JUMP JUMPDEST GT ISZERO PUSH2 0xC87 JUMPI PUSH1 0x0 DUP1 REVERT JUMPDEST PUSH1 0xA SLOAD PUSH8 0x8AC7230489E80000 SWAP1 PUSH1 0x1 PUSH1 0x1 PUSH1 0xA0 SHL SUB DUP5 DUP2 AND SWAP2 AND EQ PUSH2 0xEE2 JUMPI PUSH1 0xA SLOAD PUSH1 0x40 MLOAD PUSH4 0x6EB1769F PUSH1 0xE1 SHL DUP2 MSTORE CALLER PUSH1 0x4 DUP3 ADD MSTORE ADDRESS PUSH1 0x24 DUP3 ADD MSTORE DUP3 SWAP2 PUSH1 0x1 PUSH1 0x1 PUSH1 0xA0 SHL SUB AND SWAP1 PUSH4 0xDD62ED3E SWAP1 PUSH1 0x44 ADD PUSH1 0x20 PUSH1 0x40 MLOAD DUP1 DUP4 SUB DUP2 DUP7 GAS STATICCALL ISZERO DUP1 ISZERO PUSH2 0xCF4 JUMPI RETURNDATASIZE PUSH1 0x0 DUP1 RETURNDATACOPY RETURNDATASIZE PUSH1 0x0 REVERT JUMPDEST POP POP POP POP PUSH1 0x40 MLOAD RETURNDATASIZE PUSH1 0x1F NOT PUSH1 0x1F DUP3 ADD AND DUP3 ADD DUP1 PUSH1 0x40 MSTORE POP DUP2 ADD SWAP1 PUSH2 0xD18 SWAP2 SWAP1 PUSH2 0x2350 JUMP JUMPDEST LT ISZERO PUSH2 0xD23 JUMPI PUSH1 0x0 DUP1 REVERT JUMPDEST PUSH2 0xD2F DUP4 CALLER ADDRESS DUP5 PUSH2 0x19BD JUMP JUMPDEST PUSH2 0xD5A DUP4 PUSH32 0x0 DUP4 PUSH2 0x1AC7 JUMP JUMPDEST PUSH1 0x40 DUP1 MLOAD PUSH2 0x100 DUP2 ADD DUP3 MSTORE PUSH1 0x1 PUSH1 0x1 PUSH1 0xA0 SHL SUB DUP6 DUP2 AND DUP3 MSTORE PUSH1 0xA SLOAD DUP2 AND PUSH1 0x20 DUP4 ADD SWAP1 DUP2 MSTORE PUSH2 0xBB8 DUP4 DUP6 ADD SWAP1 DUP2 MSTORE ADDRESS PUSH1 0x60 DUP6 ADD SWAP1 DUP2 MSTORE TIMESTAMP PUSH1 0x80 DUP7 ADD SWAP1 DUP2 MSTORE PUSH1 0xA0 DUP7 ADD DUP9 DUP2 MSTORE PUSH8 0xD02AB486CEDC0000 PUSH1 0xC0 DUP9 ADD DUP2 DUP2 MSTORE PUSH1 0x0 PUSH1 0xE0 DUP11 ADD DUP2 DUP2 MSTORE SWAP11 MLOAD PUSH4 0x1B67C433 PUSH1 0xE3 SHL DUP2 MSTORE DUP11 MLOAD DUP11 AND PUSH1 0x4 DUP3 ADD MSTORE SWAP8 MLOAD DUP10 AND PUSH1 0x24 DUP10 ADD MSTORE SWAP6 MLOAD PUSH3 0xFFFFFF AND PUSH1 0x44 DUP9 ADD MSTORE SWAP4 MLOAD DUP8 AND PUSH1 0x64 DUP8 ADD MSTORE SWAP2 MLOAD PUSH1 0x84 DUP7 ADD MSTORE MLOAD PUSH1 0xA4 DUP6 ADD MSTORE SWAP1 MLOAD PUSH1 0xC4 DUP5 ADD MSTORE SWAP5 MLOAD DUP4 AND PUSH1 0xE4 DUP4 ADD MSTORE SWAP2 PUSH32 0x0 AND SWAP1 PUSH4 0xDB3E2198 SWAP1 PUSH2 0x104 ADD PUSH1 0x20 PUSH1 0x40 MLOAD DUP1 DUP4 SUB DUP2 PUSH1 0x0 DUP8 GAS CALL ISZERO DUP1 ISZERO PUSH2 0xE54 JUMPI RETURNDATASIZE PUSH1 0x0 DUP1 RETURNDATACOPY RETURNDATASIZE PUSH1 0x0 REVERT JUMPDEST POP POP POP POP PUSH1 0x40 MLOAD RETURNDATASIZE PUSH1 0x1F NOT PUSH1 0x1F DUP3 ADD AND DUP3 ADD DUP1 PUSH1 0x40 MSTORE POP DUP2 ADD SWAP1 PUSH2 0xE78 SWAP2 SWAP1 PUSH2 0x2350 JUMP JUMPDEST SWAP1 POP DUP3 DUP2 LT ISZERO PUSH2 0xEDA JUMPI PUSH1 0xA SLOAD PUSH2 0xEBA SWAP1 PUSH1 0x1 PUSH1 0x1 PUSH1 0xA0 SHL SUB AND PUSH32 0x0 PUSH1 0x0 PUSH2 0x1AC7 JUMP JUMPDEST PUSH1 0xA SLOAD PUSH2 0xEDA SWAP1 PUSH1 0x1 PUSH1 0x1 PUSH1 0xA0 SHL SUB AND CALLER PUSH2 0xED5 DUP5 DUP8 PUSH2 0x2369 JUMP JUMPDEST PUSH2 0x1BC7 JUMP JUMPDEST POP POP POP PUSH2 0xFDC JUMP JUMPDEST PUSH1 0xA SLOAD PUSH1 0x40 MLOAD PUSH4 0x6EB1769F PUSH1 0xE1 SHL DUP2 MSTORE CALLER PUSH1 0x4 DUP3 ADD MSTORE ADDRESS PUSH1 0x24 DUP3 ADD MSTORE DUP3 SWAP2 PUSH1 0x1 PUSH1 0x1 PUSH1 0xA0 SHL SUB AND SWAP1 PUSH4 0xDD62ED3E SWAP1 PUSH1 0x44 ADD PUSH1 0x20 PUSH1 0x40 MLOAD DUP1 DUP4 SUB DUP2 DUP7 GAS STATICCALL ISZERO DUP1 ISZERO PUSH2 0xF30 JUMPI RETURNDATASIZE PUSH1 0x0 DUP1 RETURNDATACOPY RETURNDATASIZE PUSH1 0x0 REVERT JUMPDEST POP POP POP POP PUSH1 0x40 MLOAD RETURNDATASIZE PUSH1 0x1F NOT PUSH1 0x1F DUP3 ADD AND DUP3 ADD DUP1 PUSH1 0x40 MSTORE POP DUP2 ADD SWAP1 PUSH2 0xF54 SWAP2 SWAP1 PUSH2 0x2350 JUMP JUMPDEST LT ISZERO PUSH2 0xF5F JUMPI PUSH1 0x0 DUP1 REVERT JUMPDEST PUSH1 0xA SLOAD PUSH1 0x40 MLOAD PUSH4 0x23B872DD PUSH1 0xE0 SHL DUP2 MSTORE CALLER PUSH1 0x4 DUP3 ADD MSTORE ADDRESS PUSH1 0x24 DUP3 ADD MSTORE PUSH1 0x44 DUP2 ADD DUP4 SWAP1 MSTORE PUSH1 0x1 PUSH1 0x1 PUSH1 0xA0 SHL SUB SWAP1 SWAP2 AND SWAP1 PUSH4 0x23B872DD SWAP1 PUSH1 0x64 ADD PUSH1 0x20 PUSH1 0x40 MLOAD DUP1 DUP4 SUB DUP2 PUSH1 0x0 DUP8 GAS CALL ISZERO DUP1 ISZERO PUSH2 0xFB6 JUMPI RETURNDATASIZE PUSH1 0x0 DUP1 RETURNDATACOPY RETURNDATASIZE PUSH1 0x0 REVERT JUMPDEST POP POP POP POP PUSH1 0x40 MLOAD RETURNDATASIZE PUSH1 0x1F NOT PUSH1 0x1F DUP3 ADD AND DUP3 ADD DUP1 PUSH1 0x40 MSTORE POP DUP2 ADD SWAP1 PUSH2 0xFDA SWAP2 SWAP1 PUSH2 0x21F7 JUMP JUMPDEST POP JUMPDEST PUSH1 0x4 SLOAD PUSH1 0x1 PUSH1 0x1 PUSH1 0x80 SHL SUB AND PUSH1 0x0 SWAP1 DUP2 MSTORE PUSH1 0xC PUSH1 0x20 MSTORE PUSH1 0x40 SWAP1 DUP2 SWAP1 KECCAK256 SWAP1 MLOAD DUP3 SWAP2 SWAP1 PUSH2 0x1008 SWAP1 DUP9 SWAP1 PUSH2 0x2184 JUMP JUMPDEST SWAP1 DUP2 MSTORE PUSH1 0x20 ADD PUSH1 0x40 MLOAD DUP1 SWAP2 SUB SWAP1 KECCAK256 PUSH1 0x0 DUP3 DUP3 SLOAD PUSH2 0x1025 SWAP2 SWAP1 PUSH2 0x22DF JUMP JUMPDEST SWAP1 SWAP2 SSTORE POP POP PUSH1 0x4 SLOAD PUSH1 0x1 PUSH1 0x1 PUSH1 0x80 SHL SUB AND PUSH1 0x0 SWAP1 DUP2 MSTORE PUSH1 0x13 PUSH1 0x20 MSTORE PUSH1 0x40 SWAP1 DUP2 SWAP1 KECCAK256 SWAP1 MLOAD DUP6 SWAP2 SWAP1 PUSH2 0x1056 SWAP1 DUP9 SWAP1 PUSH2 0x2184 JUMP JUMPDEST SWAP1 DUP2 MSTORE PUSH1 0x40 DUP1 MLOAD SWAP2 DUP3 SWAP1 SUB PUSH1 0x20 SWAP1 DUP2 ADD DUP4 KECCAK256 CALLER PUSH1 0x0 SWAP1 DUP2 MSTORE SWAP1 DUP3 MSTORE DUP3 DUP2 KECCAK256 SWAP5 SWAP1 SWAP5 SSTORE PUSH1 0x4 SLOAD PUSH1 0x1 PUSH1 0x1 PUSH1 0x80 SHL SUB AND DUP5 MSTORE PUSH1 0xE SWAP1 MSTORE SWAP1 SWAP2 KECCAK256 SWAP1 PUSH2 0x1099 SWAP1 DUP8 SWAP1 PUSH2 0x2184 JUMP JUMPDEST SWAP1 DUP2 MSTORE PUSH1 0x40 DUP1 MLOAD SWAP2 DUP3 SWAP1 SUB PUSH1 0x20 SWAP1 DUP2 ADD DUP4 KECCAK256 DUP1 SLOAD PUSH1 0x1 DUP2 ADD DUP3 SSTORE PUSH1 0x0 SWAP2 DUP3 MSTORE DUP3 DUP3 KECCAK256 ADD DUP9 SWAP1 SSTORE PUSH1 0x4 SLOAD PUSH1 0x1 PUSH1 0x1 PUSH1 0x80 SHL SUB AND DUP2 MSTORE PUSH1 0xF SWAP1 SWAP2 MSTORE KECCAK256 SWAP1 PUSH2 0x10DF SWAP1 DUP8 SWAP1 PUSH2 0x2184 JUMP JUMPDEST SWAP1 DUP2 MSTORE PUSH1 0x40 MLOAD PUSH1 0x20 SWAP2 DUP2 SWAP1 SUB DUP3 ADD DUP2 KECCAK256 DUP1 SLOAD PUSH1 0x1 DUP2 ADD DUP3 SSTORE PUSH1 0x0 SWAP2 DUP3 MSTORE SWAP1 DUP4 SWAP1 KECCAK256 ADD DUP1 SLOAD CALLER PUSH1 0x1 PUSH1 0x1 PUSH1 0xA0 SHL SUB NOT SWAP1 SWAP2 AND DUP2 OR SWAP1 SWAP2 SSTORE DUP7 DUP3 MSTORE SWAP2 PUSH32 0x10FE2ED8F3DAA306F14DE54294A550F0F7DEC5E7138F0CF277EAC43BC95AAB6F SWAP2 ADD PUSH1 0x40 MLOAD DUP1 SWAP2 SUB SWAP1 LOG2 POP POP POP POP POP JUMP JUMPDEST PUSH1 0x0 DUP1 PUSH1 0x6 DUP4 DUP2 SLOAD DUP2 LT PUSH2 0x1161 JUMPI PUSH2 0x1161 PUSH2 0x231F JUMP JUMPDEST SWAP1 PUSH1 0x0 MSTORE PUSH1 0x20 PUSH1 0x0 KECCAK256 ADD PUSH1 0x0 SWAP1 SLOAD SWAP1 PUSH2 0x100 EXP SWAP1 DIV PUSH1 0x1 PUSH1 0x1 PUSH1 0xA0 SHL SUB AND SWAP1 POP PUSH1 0x0 DUP2 PUSH1 0x1 PUSH1 0x1 PUSH1 0xA0 SHL SUB AND PUSH4 0xFEAF968C PUSH1 0x40 MLOAD DUP2 PUSH4 0xFFFFFFFF AND PUSH1 0xE0 SHL DUP2 MSTORE PUSH1 0x4 ADD PUSH1 0xA0 PUSH1 0x40 MLOAD DUP1 DUP4 SUB DUP2 DUP7 GAS STATICCALL ISZERO DUP1 ISZERO PUSH2 0x11C1 JUMPI RETURNDATASIZE PUSH1 0x0 DUP1 RETURNDATACOPY RETURNDATASIZE PUSH1 0x0 REVERT JUMPDEST POP POP POP POP PUSH1 0x40 MLOAD RETURNDATASIZE PUSH1 0x1F NOT PUSH1 0x1F DUP3 ADD AND DUP3 ADD DUP1 PUSH1 0x40 MSTORE POP DUP2 ADD SWAP1 PUSH2 0x11E5 SWAP2 SWAP1 PUSH2 0x228F JUMP JUMPDEST POP SWAP2 SWAP8 SWAP7 POP POP POP POP POP POP POP JUMP JUMPDEST PUSH1 0x0 SLOAD PUSH1 0x1 PUSH1 0x1 PUSH1 0xA0 SHL SUB AND CALLER EQ PUSH2 0x121C JUMPI PUSH1 0x40 MLOAD PUSH3 0x461BCD PUSH1 0xE5 SHL DUP2 MSTORE PUSH1 0x4 ADD PUSH2 0x74F SWAP1 PUSH2 0x2240 JUMP JUMPDEST PUSH1 0x1 PUSH1 0x1 PUSH1 0xA0 SHL SUB DUP2 AND PUSH2 0x1281 JUMPI PUSH1 0x40 MLOAD PUSH3 0x461BCD PUSH1 0xE5 SHL DUP2 MSTORE PUSH1 0x20 PUSH1 0x4 DUP3 ADD MSTORE PUSH1 0x26 PUSH1 0x24 DUP3 ADD MSTORE PUSH32 0x4F776E61626C653A206E6577206F776E657220697320746865207A65726F2061 PUSH1 0x44 DUP3 ADD MSTORE PUSH6 0x646472657373 PUSH1 0xD0 SHL PUSH1 0x64 DUP3 ADD MSTORE PUSH1 0x84 ADD PUSH2 0x74F JUMP JUMPDEST PUSH2 0x128A DUP2 PUSH2 0x196D JUMP JUMPDEST POP JUMP JUMPDEST PUSH1 0x0 JUMPDEST PUSH1 0x6 SLOAD DUP2 LT ISZERO PUSH2 0x128A JUMPI PUSH2 0x12A3 DUP2 PUSH2 0x114B JUMP JUMPDEST PUSH1 0x4 SLOAD PUSH1 0x1 PUSH1 0x1 PUSH1 0x80 SHL SUB AND PUSH1 0x0 SWAP1 DUP2 MSTORE PUSH1 0x8 PUSH1 0x20 MSTORE PUSH1 0x40 SWAP1 KECCAK256 PUSH1 0x5 DUP1 SLOAD DUP5 SWAP1 DUP2 LT PUSH2 0x12D1 JUMPI PUSH2 0x12D1 PUSH2 0x231F JUMP JUMPDEST SWAP1 PUSH1 0x0 MSTORE PUSH1 0x20 PUSH1 0x0 KECCAK256 ADD PUSH1 0x40 MLOAD PUSH2 0x12E8 SWAP2 SWAP1 PUSH2 0x23BB JUMP JUMPDEST SWAP1 DUP2 MSTORE PUSH1 0x40 MLOAD SWAP1 DUP2 SWAP1 SUB PUSH1 0x20 ADD SWAP1 KECCAK256 SSTORE DUP1 PUSH2 0x1302 DUP2 PUSH2 0x2335 JUMP JUMPDEST SWAP2 POP POP PUSH2 0x1290 JUMP JUMPDEST PUSH1 0x4 SLOAD PUSH1 0x1 PUSH1 0x1 PUSH1 0x80 SHL SUB AND PUSH1 0x0 JUMPDEST PUSH1 0x5 SLOAD PUSH1 0xFF DUP3 AND LT ISZERO PUSH2 0x1781 JUMPI PUSH1 0x1 PUSH1 0x1 PUSH1 0x80 SHL SUB DUP3 AND PUSH1 0x0 SWAP1 DUP2 MSTORE PUSH1 0xF PUSH1 0x20 MSTORE PUSH1 0x40 SWAP1 KECCAK256 PUSH1 0x5 DUP1 SLOAD PUSH1 0xFF DUP5 AND SWAP1 DUP2 LT PUSH2 0x1355 JUMPI PUSH2 0x1355 PUSH2 0x231F JUMP JUMPDEST SWAP1 PUSH1 0x0 MSTORE PUSH1 0x20 PUSH1 0x0 KECCAK256 ADD PUSH1 0x40 MLOAD PUSH2 0x136C SWAP2 SWAP1 PUSH2 0x23BB JUMP JUMPDEST SWAP1 DUP2 MSTORE PUSH1 0x20 ADD PUSH1 0x40 MLOAD DUP1 SWAP2 SUB SWAP1 KECCAK256 DUP1 SLOAD SWAP1 POP PUSH1 0xE PUSH1 0x0 DUP5 PUSH1 0x1 PUSH1 0x1 PUSH1 0x80 SHL SUB AND DUP2 MSTORE PUSH1 0x20 ADD SWAP1 DUP2 MSTORE PUSH1 0x20 ADD PUSH1 0x0 KECCAK256 PUSH1 0x5 DUP4 PUSH1 0xFF AND DUP2 SLOAD DUP2 LT PUSH2 0x13B0 JUMPI PUSH2 0x13B0 PUSH2 0x231F JUMP JUMPDEST SWAP1 PUSH1 0x0 MSTORE PUSH1 0x20 PUSH1 0x0 KECCAK256 ADD PUSH1 0x40 MLOAD PUSH2 0x13C7 SWAP2 SWAP1 PUSH2 0x23BB JUMP JUMPDEST SWAP1 DUP2 MSTORE PUSH1 0x40 MLOAD SWAP1 DUP2 SWAP1 SUB PUSH1 0x20 ADD SWAP1 KECCAK256 SLOAD EQ PUSH2 0x13E1 JUMPI PUSH1 0x0 DUP1 REVERT JUMPDEST PUSH1 0x0 JUMPDEST PUSH1 0x1 PUSH1 0x1 PUSH1 0x80 SHL SUB DUP4 AND PUSH1 0x0 SWAP1 DUP2 MSTORE PUSH1 0xE PUSH1 0x20 MSTORE PUSH1 0x40 SWAP1 KECCAK256 PUSH1 0x5 DUP1 SLOAD PUSH1 0xFF DUP6 AND SWAP1 DUP2 LT PUSH2 0x1413 JUMPI PUSH2 0x1413 PUSH2 0x231F JUMP JUMPDEST SWAP1 PUSH1 0x0 MSTORE PUSH1 0x20 PUSH1 0x0 KECCAK256 ADD PUSH1 0x40 MLOAD PUSH2 0x142A SWAP2 SWAP1 PUSH2 0x23BB JUMP JUMPDEST SWAP1 DUP2 MSTORE PUSH1 0x40 MLOAD SWAP1 DUP2 SWAP1 SUB PUSH1 0x20 ADD SWAP1 KECCAK256 SLOAD PUSH1 0xFF DUP3 AND LT ISZERO PUSH2 0x176E JUMPI PUSH1 0x1 PUSH1 0x1 PUSH1 0x80 SHL SUB DUP4 AND PUSH1 0x0 SWAP1 DUP2 MSTORE PUSH1 0x8 PUSH1 0x20 MSTORE PUSH1 0x40 SWAP1 KECCAK256 PUSH1 0x5 DUP1 SLOAD PUSH1 0xFF DUP6 AND SWAP1 DUP2 LT PUSH2 0x1473 JUMPI PUSH2 0x1473 PUSH2 0x231F JUMP JUMPDEST SWAP1 PUSH1 0x0 MSTORE PUSH1 0x20 PUSH1 0x0 KECCAK256 ADD PUSH1 0x40 MLOAD PUSH2 0x148A SWAP2 SWAP1 PUSH2 0x23BB JUMP JUMPDEST SWAP1 DUP2 MSTORE PUSH1 0x20 ADD PUSH1 0x40 MLOAD DUP1 SWAP2 SUB SWAP1 KECCAK256 SLOAD PUSH1 0xE PUSH1 0x0 DUP6 PUSH1 0x1 PUSH1 0x1 PUSH1 0x80 SHL SUB AND DUP2 MSTORE PUSH1 0x20 ADD SWAP1 DUP2 MSTORE PUSH1 0x20 ADD PUSH1 0x0 KECCAK256 PUSH1 0x5 DUP5 PUSH1 0xFF AND DUP2 SLOAD DUP2 LT PUSH2 0x14CB JUMPI PUSH2 0x14CB PUSH2 0x231F JUMP JUMPDEST SWAP1 PUSH1 0x0 MSTORE PUSH1 0x20 PUSH1 0x0 KECCAK256 ADD PUSH1 0x40 MLOAD PUSH2 0x14E2 SWAP2 SWAP1 PUSH2 0x23BB JUMP JUMPDEST SWAP1 DUP2 MSTORE PUSH1 0x20 ADD PUSH1 0x40 MLOAD DUP1 SWAP2 SUB SWAP1 KECCAK256 DUP3 PUSH1 0xFF AND DUP2 SLOAD DUP2 LT PUSH2 0x1504 JUMPI PUSH2 0x1504 PUSH2 0x231F JUMP JUMPDEST SWAP1 PUSH1 0x0 MSTORE PUSH1 0x20 PUSH1 0x0 KECCAK256 ADD SLOAD EQ PUSH2 0x1519 JUMPI PUSH1 0x0 DUP1 REVERT JUMPDEST PUSH1 0x1 PUSH1 0x1 PUSH1 0x80 SHL SUB DUP4 AND PUSH1 0x0 SWAP1 DUP2 MSTORE PUSH1 0x12 PUSH1 0x20 MSTORE PUSH1 0x40 SWAP1 KECCAK256 PUSH1 0x5 DUP1 SLOAD PUSH1 0xFF DUP6 AND SWAP1 DUP2 LT PUSH2 0x1548 JUMPI PUSH2 0x1548 PUSH2 0x231F JUMP JUMPDEST SWAP1 PUSH1 0x0 MSTORE PUSH1 0x20 PUSH1 0x0 KECCAK256 ADD PUSH1 0x40 MLOAD PUSH2 0x155F SWAP2 SWAP1 PUSH2 0x23BB JUMP JUMPDEST SWAP1 DUP2 MSTORE PUSH1 0x20 ADD PUSH1 0x40 MLOAD DUP1 SWAP2 SUB SWAP1 KECCAK256 PUSH1 0xF PUSH1 0x0 DUP6 PUSH1 0x1 PUSH1 0x1 PUSH1 0x80 SHL SUB AND DUP2 MSTORE PUSH1 0x20 ADD SWAP1 DUP2 MSTORE PUSH1 0x20 ADD PUSH1 0x0 KECCAK256 PUSH1 0x5 DUP5 PUSH1 0xFF AND DUP2 SLOAD DUP2 LT PUSH2 0x159F JUMPI PUSH2 0x159F PUSH2 0x231F JUMP JUMPDEST SWAP1 PUSH1 0x0 MSTORE PUSH1 0x20 PUSH1 0x0 KECCAK256 ADD PUSH1 0x40 MLOAD PUSH2 0x15B6 SWAP2 SWAP1 PUSH2 0x23BB JUMP JUMPDEST SWAP1 DUP2 MSTORE PUSH1 0x20 ADD PUSH1 0x40 MLOAD DUP1 SWAP2 SUB SWAP1 KECCAK256 DUP3 PUSH1 0xFF AND DUP2 SLOAD DUP2 LT PUSH2 0x15D8 JUMPI PUSH2 0x15D8 PUSH2 0x231F JUMP JUMPDEST PUSH1 0x0 SWAP2 DUP3 MSTORE PUSH1 0x20 DUP1 DUP4 KECCAK256 SWAP1 SWAP2 ADD SLOAD DUP4 SLOAD PUSH1 0x1 DUP2 DUP2 ADD DUP7 SSTORE SWAP5 DUP5 MSTORE DUP3 DUP5 KECCAK256 ADD DUP1 SLOAD PUSH1 0x1 PUSH1 0x1 PUSH1 0xA0 SHL SUB NOT AND PUSH1 0x1 PUSH1 0x1 PUSH1 0xA0 SHL SUB SWAP1 SWAP3 AND SWAP2 SWAP1 SWAP2 OR SWAP1 SSTORE PUSH1 0x1 PUSH1 0x1 PUSH1 0x80 SHL SUB DUP7 AND DUP3 MSTORE PUSH1 0xD SWAP1 MSTORE PUSH1 0x40 SWAP1 KECCAK256 PUSH1 0x5 DUP1 SLOAD PUSH1 0xFF DUP7 AND SWAP1 DUP2 LT PUSH2 0x163E JUMPI PUSH2 0x163E PUSH2 0x231F JUMP JUMPDEST SWAP1 PUSH1 0x0 MSTORE PUSH1 0x20 PUSH1 0x0 KECCAK256 ADD PUSH1 0x40 MLOAD PUSH2 0x1655 SWAP2 SWAP1 PUSH2 0x23BB JUMP JUMPDEST SWAP1 DUP2 MSTORE PUSH1 0x20 ADD PUSH1 0x40 MLOAD DUP1 SWAP2 SUB SWAP1 KECCAK256 PUSH1 0x0 DUP3 DUP3 SLOAD PUSH2 0x1672 SWAP2 SWAP1 PUSH2 0x22DF JUMP JUMPDEST SWAP1 SWAP2 SSTORE POP POP PUSH1 0x3 SLOAD PUSH1 0x1 PUSH1 0x1 PUSH1 0x80 SHL SUB DUP5 AND PUSH1 0x0 SWAP1 DUP2 MSTORE PUSH1 0xF PUSH1 0x20 MSTORE PUSH1 0x40 SWAP1 KECCAK256 PUSH1 0x5 DUP1 SLOAD PUSH1 0x1 PUSH1 0x1 PUSH1 0xA0 SHL SUB SWAP1 SWAP4 AND SWAP3 PUSH4 0x8EBFA8AE SWAP3 SWAP2 SWAP1 PUSH1 0xFF DUP8 AND SWAP1 DUP2 LT PUSH2 0x16BD JUMPI PUSH2 0x16BD PUSH2 0x231F JUMP JUMPDEST SWAP1 PUSH1 0x0 MSTORE PUSH1 0x20 PUSH1 0x0 KECCAK256 ADD PUSH1 0x40 MLOAD PUSH2 0x16D4 SWAP2 SWAP1 PUSH2 0x23BB JUMP JUMPDEST SWAP1 DUP2 MSTORE PUSH1 0x20 ADD PUSH1 0x40 MLOAD DUP1 SWAP2 SUB SWAP1 KECCAK256 DUP4 PUSH1 0xFF AND DUP2 SLOAD DUP2 LT PUSH2 0x16F6 JUMPI PUSH2 0x16F6 PUSH2 0x231F JUMP JUMPDEST PUSH1 0x0 SWAP2 DUP3 MSTORE PUSH1 0x20 SWAP1 SWAP2 KECCAK256 ADD SLOAD PUSH1 0x40 MLOAD PUSH1 0xE0 DUP4 SWAP1 SHL PUSH1 0x1 PUSH1 0x1 PUSH1 0xE0 SHL SUB NOT AND DUP2 MSTORE PUSH1 0x1 PUSH1 0x1 PUSH1 0xA0 SHL SUB SWAP1 SWAP2 AND PUSH1 0x4 DUP3 ADD MSTORE PUSH1 0x24 ADD PUSH1 0x0 PUSH1 0x40 MLOAD DUP1 DUP4 SUB DUP2 PUSH1 0x0 DUP8 DUP1 EXTCODESIZE ISZERO DUP1 ISZERO PUSH2 0x1743 JUMPI PUSH1 0x0 DUP1 REVERT JUMPDEST POP GAS CALL ISZERO DUP1 ISZERO PUSH2 0x1757 JUMPI RETURNDATASIZE PUSH1 0x0 DUP1 RETURNDATACOPY RETURNDATASIZE PUSH1 0x0 REVERT JUMPDEST POP POP POP POP DUP1 DUP1 PUSH2 0x1766 SWAP1 PUSH2 0x2457 JUMP JUMPDEST SWAP2 POP POP PUSH2 0x13E4 JUMP JUMPDEST POP DUP1 PUSH2 0x1779 DUP2 PUSH2 0x2457 JUMP JUMPDEST SWAP2 POP POP PUSH2 0x1319 JUMP JUMPDEST POP POP JUMP JUMPDEST PUSH1 0x4 SLOAD PUSH1 0x9 SWAP1 PUSH1 0x0 SWAP1 PUSH2 0x17A3 SWAP1 PUSH1 0x1 SWAP1 PUSH1 0x1 PUSH1 0x1 PUSH1 0x80 SHL SUB AND PUSH2 0x22F7 JUMP JUMPDEST PUSH1 0x1 PUSH1 0x1 PUSH1 0x80 SHL SUB AND DUP2 MSTORE PUSH1 0x20 ADD SWAP1 DUP2 MSTORE PUSH1 0x20 ADD PUSH1 0x0 KECCAK256 SLOAD PUSH2 0xFD20 PUSH2 0x17C8 SWAP2 SWAP1 PUSH2 0x22DF JUMP JUMPDEST PUSH2 0x17D0 PUSH2 0x7AA JUMP JUMPDEST GT PUSH2 0x17DA JUMPI PUSH1 0x0 DUP1 REVERT JUMPDEST PUSH1 0x0 JUMPDEST PUSH1 0x5 SLOAD PUSH1 0x1 PUSH1 0x1 PUSH1 0x80 SHL SUB DUP3 AND LT ISZERO PUSH2 0x128A JUMPI PUSH1 0x4 SLOAD PUSH1 0x1 PUSH1 0x1 PUSH1 0x80 SHL SUB SWAP1 DUP2 AND PUSH1 0x0 SWAP1 DUP2 MSTORE PUSH1 0xC PUSH1 0x20 MSTORE PUSH1 0x40 DUP2 KECCAK256 PUSH1 0x5 DUP1 SLOAD SWAP3 SWAP4 PUSH1 0x64 SWAP4 SWAP1 DUP7 AND SWAP1 DUP2 LT PUSH2 0x1827 JUMPI PUSH2 0x1827 PUSH2 0x231F JUMP JUMPDEST SWAP1 PUSH1 0x0 MSTORE PUSH1 0x20 PUSH1 0x0 KECCAK256 ADD PUSH1 0x40 MLOAD PUSH2 0x183E SWAP2 SWAP1 PUSH2 0x23BB JUMP JUMPDEST SWAP1 DUP2 MSTORE PUSH1 0x20 ADD PUSH1 0x40 MLOAD DUP1 SWAP2 SUB SWAP1 KECCAK256 SLOAD PUSH1 0xA PUSH2 0x1859 SWAP2 SWAP1 PUSH2 0x21B6 JUMP JUMPDEST PUSH2 0x1863 SWAP2 SWAP1 PUSH2 0x21D5 JUMP JUMPDEST PUSH1 0xA SLOAD PUSH1 0x2 SLOAD PUSH1 0x40 MLOAD PUSH4 0x95EA7B3 PUSH1 0xE0 SHL DUP2 MSTORE PUSH1 0x1 PUSH1 0x1 PUSH1 0xA0 SHL SUB SWAP2 DUP3 AND PUSH1 0x4 DUP3 ADD MSTORE PUSH1 0x24 DUP2 ADD DUP5 SWAP1 MSTORE SWAP3 SWAP4 POP AND SWAP1 PUSH4 0x95EA7B3 SWAP1 PUSH1 0x44 ADD PUSH1 0x20 PUSH1 0x40 MLOAD DUP1 DUP4 SUB DUP2 PUSH1 0x0 DUP8 GAS CALL ISZERO DUP1 ISZERO PUSH2 0x18BA JUMPI RETURNDATASIZE PUSH1 0x0 DUP1 RETURNDATACOPY RETURNDATASIZE PUSH1 0x0 REVERT JUMPDEST POP POP POP POP PUSH1 0x40 MLOAD RETURNDATASIZE PUSH1 0x1F NOT PUSH1 0x1F DUP3 ADD AND DUP3 ADD DUP1 PUSH1 0x40 MSTORE POP DUP2 ADD SWAP1 PUSH2 0x18DE SWAP2 SWAP1 PUSH2 0x21F7 JUMP JUMPDEST POP PUSH1 0x2 SLOAD PUSH1 0xA SLOAD PUSH1 0x3 SLOAD PUSH1 0x40 MLOAD PUSH4 0xE8EDA9DF PUSH1 0xE0 SHL DUP2 MSTORE PUSH1 0x1 PUSH1 0x1 PUSH1 0xA0 SHL SUB SWAP3 DUP4 AND PUSH1 0x4 DUP3 ADD MSTORE PUSH1 0x24 DUP2 ADD DUP6 SWAP1 MSTORE SWAP1 DUP3 AND PUSH1 0x44 DUP3 ADD MSTORE PUSH1 0x0 PUSH1 0x64 DUP3 ADD MSTORE SWAP2 AND SWAP1 PUSH4 0xE8EDA9DF SWAP1 PUSH1 0x84 ADD PUSH1 0x0 PUSH1 0x40 MLOAD DUP1 DUP4 SUB DUP2 PUSH1 0x0 DUP8 DUP1 EXTCODESIZE ISZERO DUP1 ISZERO PUSH2 0x1941 JUMPI PUSH1 0x0 DUP1 REVERT JUMPDEST POP GAS CALL ISZERO DUP1 ISZERO PUSH2 0x1955 JUMPI RETURNDATASIZE PUSH1 0x0 DUP1 RETURNDATACOPY RETURNDATASIZE PUSH1 0x0 REVERT JUMPDEST POP POP POP POP POP DUP1 DUP1 PUSH2 0x1965 SWAP1 PUSH2 0x2219 JUMP JUMPDEST SWAP2 POP POP PUSH2 0x17DD JUMP JUMPDEST PUSH1 0x0 DUP1 SLOAD PUSH1 0x1 PUSH1 0x1 PUSH1 0xA0 SHL SUB DUP4 DUP2 AND PUSH1 0x1 PUSH1 0x1 PUSH1 0xA0 SHL SUB NOT DUP4 AND DUP2 OR DUP5 SSTORE PUSH1 0x40 MLOAD SWAP2 SWAP1 SWAP3 AND SWAP3 DUP4 SWAP2 PUSH32 0x8BE0079C531659141344CD1FD0A4F28419497F9722A3DAAFE3B4186F6B6457E0 SWAP2 SWAP1 LOG3 POP POP JUMP JUMPDEST PUSH1 0x40 DUP1 MLOAD PUSH1 0x1 PUSH1 0x1 PUSH1 0xA0 SHL SUB DUP6 DUP2 AND PUSH1 0x24 DUP4 ADD MSTORE DUP5 DUP2 AND PUSH1 0x44 DUP4 ADD MSTORE PUSH1 0x64 DUP1 DUP4 ADD DUP6 SWAP1 MSTORE DUP4 MLOAD DUP1 DUP5 SUB SWAP1 SWAP2 ADD DUP2 MSTORE PUSH1 0x84 SWAP1 SWAP3 ADD DUP4 MSTORE PUSH1 0x20 DUP3 ADD DUP1 MLOAD PUSH1 0x1 PUSH1 0x1 PUSH1 0xE0 SHL SUB AND PUSH4 0x23B872DD PUSH1 0xE0 SHL OR SWAP1 MSTORE SWAP2 MLOAD PUSH1 0x0 SWAP3 DUP4 SWAP3 SWAP1 DUP9 AND SWAP2 PUSH2 0x1A21 SWAP2 SWAP1 PUSH2 0x2184 JUMP JUMPDEST PUSH1 0x0 PUSH1 0x40 MLOAD DUP1 DUP4 SUB DUP2 PUSH1 0x0 DUP7 GAS CALL SWAP2 POP POP RETURNDATASIZE DUP1 PUSH1 0x0 DUP2 EQ PUSH2 0x1A5E JUMPI PUSH1 0x40 MLOAD SWAP2 POP PUSH1 0x1F NOT PUSH1 0x3F RETURNDATASIZE ADD AND DUP3 ADD PUSH1 0x40 MSTORE RETURNDATASIZE DUP3 MSTORE RETURNDATASIZE PUSH1 0x0 PUSH1 0x20 DUP5 ADD RETURNDATACOPY PUSH2 0x1A63 JUMP JUMPDEST PUSH1 0x60 SWAP2 POP JUMPDEST POP SWAP2 POP SWAP2 POP DUP2 DUP1 ISZERO PUSH2 0x1A8D JUMPI POP DUP1 MLOAD ISZERO DUP1 PUSH2 0x1A8D JUMPI POP DUP1 DUP1 PUSH1 0x20 ADD SWAP1 MLOAD DUP2 ADD SWAP1 PUSH2 0x1A8D SWAP2 SWAP1 PUSH2 0x21F7 JUMP JUMPDEST PUSH2 0x1ABF JUMPI PUSH1 0x40 MLOAD PUSH3 0x461BCD PUSH1 0xE5 SHL DUP2 MSTORE PUSH1 0x20 PUSH1 0x4 DUP3 ADD MSTORE PUSH1 0x3 PUSH1 0x24 DUP3 ADD MSTORE PUSH3 0x29AA23 PUSH1 0xE9 SHL PUSH1 0x44 DUP3 ADD MSTORE PUSH1 0x64 ADD PUSH2 0x74F JUMP JUMPDEST POP POP POP POP POP POP JUMP JUMPDEST PUSH1 0x40 DUP1 MLOAD PUSH1 0x1 PUSH1 0x1 PUSH1 0xA0 SHL SUB DUP5 DUP2 AND PUSH1 0x24 DUP4 ADD MSTORE PUSH1 0x44 DUP1 DUP4 ADD DUP6 SWAP1 MSTORE DUP4 MLOAD DUP1 DUP5 SUB SWAP1 SWAP2 ADD DUP2 MSTORE PUSH1 0x64 SWAP1 SWAP3 ADD DUP4 MSTORE PUSH1 0x20 DUP3 ADD DUP1 MLOAD PUSH1 0x1 PUSH1 0x1 PUSH1 0xE0 SHL SUB AND PUSH4 0x95EA7B3 PUSH1 0xE0 SHL OR SWAP1 MSTORE SWAP2 MLOAD PUSH1 0x0 SWAP3 DUP4 SWAP3 SWAP1 DUP8 AND SWAP2 PUSH2 0x1B23 SWAP2 SWAP1 PUSH2 0x2184 JUMP JUMPDEST PUSH1 0x0 PUSH1 0x40 MLOAD DUP1 DUP4 SUB DUP2 PUSH1 0x0 DUP7 GAS CALL SWAP2 POP POP RETURNDATASIZE DUP1 PUSH1 0x0 DUP2 EQ PUSH2 0x1B60 JUMPI PUSH1 0x40 MLOAD SWAP2 POP PUSH1 0x1F NOT PUSH1 0x3F RETURNDATASIZE ADD AND DUP3 ADD PUSH1 0x40 MSTORE RETURNDATASIZE DUP3 MSTORE RETURNDATASIZE PUSH1 0x0 PUSH1 0x20 DUP5 ADD RETURNDATACOPY PUSH2 0x1B65 JUMP JUMPDEST PUSH1 0x60 SWAP2 POP JUMPDEST POP SWAP2 POP SWAP2 POP DUP2 DUP1 ISZERO PUSH2 0x1B8F JUMPI POP DUP1 MLOAD ISZERO DUP1 PUSH2 0x1B8F JUMPI POP DUP1 DUP1 PUSH1 0x20 ADD SWAP1 MLOAD DUP2 ADD SWAP1 PUSH2 0x1B8F SWAP2 SWAP1 PUSH2 0x21F7 JUMP JUMPDEST PUSH2 0x1BC0 JUMPI PUSH1 0x40 MLOAD PUSH3 0x461BCD PUSH1 0xE5 SHL DUP2 MSTORE PUSH1 0x20 PUSH1 0x4 DUP3 ADD MSTORE PUSH1 0x2 PUSH1 0x24 DUP3 ADD MSTORE PUSH2 0x5341 PUSH1 0xF0 SHL PUSH1 0x44 DUP3 ADD MSTORE PUSH1 0x64 ADD PUSH2 0x74F JUMP JUMPDEST POP POP POP POP POP JUMP JUMPDEST PUSH1 0x40 DUP1 MLOAD PUSH1 0x1 PUSH1 0x1 PUSH1 0xA0 SHL SUB DUP5 DUP2 AND PUSH1 0x24 DUP4 ADD MSTORE PUSH1 0x44 DUP1 DUP4 ADD DUP6 SWAP1 MSTORE DUP4 MLOAD DUP1 DUP5 SUB SWAP1 SWAP2 ADD DUP2 MSTORE PUSH1 0x64 SWAP1 SWAP3 ADD DUP4 MSTORE PUSH1 0x20 DUP3 ADD DUP1 MLOAD PUSH1 0x1 PUSH1 0x1 PUSH1 0xE0 SHL SUB AND PUSH4 0xA9059CBB PUSH1 0xE0 SHL OR SWAP1 MSTORE SWAP2 MLOAD PUSH1 0x0 SWAP3 DUP4 SWAP3 SWAP1 DUP8 AND SWAP2 PUSH2 0x1C23 SWAP2 SWAP1 PUSH2 0x2184 JUMP JUMPDEST PUSH1 0x0 PUSH1 0x40 MLOAD DUP1 DUP4 SUB DUP2 PUSH1 0x0 DUP7 GAS CALL SWAP2 POP POP RETURNDATASIZE DUP1 PUSH1 0x0 DUP2 EQ PUSH2 0x1C60 JUMPI PUSH1 0x40 MLOAD SWAP2 POP PUSH1 0x1F NOT PUSH1 0x3F RETURNDATASIZE ADD AND DUP3 ADD PUSH1 0x40 MSTORE RETURNDATASIZE DUP3 MSTORE RETURNDATASIZE PUSH1 0x0 PUSH1 0x20 DUP5 ADD RETURNDATACOPY PUSH2 0x1C65 JUMP JUMPDEST PUSH1 0x60 SWAP2 POP JUMPDEST POP SWAP2 POP SWAP2 POP DUP2 DUP1 ISZERO PUSH2 0x1C8F JUMPI POP DUP1 MLOAD ISZERO DUP1 PUSH2 0x1C8F JUMPI POP DUP1 DUP1 PUSH1 0x20 ADD SWAP1 MLOAD DUP2 ADD SWAP1 PUSH2 0x1C8F SWAP2 SWAP1 PUSH2 0x21F7 JUMP JUMPDEST PUSH2 0x1BC0 JUMPI PUSH1 0x40 MLOAD PUSH3 0x461BCD PUSH1 0xE5 SHL DUP2 MSTORE PUSH1 0x20 PUSH1 0x4 DUP3 ADD MSTORE PUSH1 0x2 PUSH1 0x24 DUP3 ADD MSTORE PUSH2 0x14D5 PUSH1 0xF2 SHL PUSH1 0x44 DUP3 ADD MSTORE PUSH1 0x64 ADD PUSH2 0x74F JUMP JUMPDEST DUP3 DUP1 SLOAD PUSH2 0x1CCC SWAP1 PUSH2 0x2380 JUMP JUMPDEST SWAP1 PUSH1 0x0 MSTORE PUSH1 0x20 PUSH1 0x0 KECCAK256 SWAP1 PUSH1 0x1F ADD PUSH1 0x20 SWAP1 DIV DUP2 ADD SWAP3 DUP3 PUSH2 0x1CEE JUMPI PUSH1 0x0 DUP6 SSTORE PUSH2 0x1D34 JUMP JUMPDEST DUP3 PUSH1 0x1F LT PUSH2 0x1D07 JUMPI DUP1 MLOAD PUSH1 0xFF NOT AND DUP4 DUP1 ADD OR DUP6 SSTORE PUSH2 0x1D34 JUMP JUMPDEST DUP3 DUP1 ADD PUSH1 0x1 ADD DUP6 SSTORE DUP3 ISZERO PUSH2 0x1D34 JUMPI SWAP2 DUP3 ADD JUMPDEST DUP3 DUP2 GT ISZERO PUSH2 0x1D34 JUMPI DUP3 MLOAD DUP3 SSTORE SWAP2 PUSH1 0x20 ADD SWAP2 SWAP1 PUSH1 0x1 ADD SWAP1 PUSH2 0x1D19 JUMP JUMPDEST POP PUSH2 0x1D40 SWAP3 SWAP2 POP PUSH2 0x1D44 JUMP JUMPDEST POP SWAP1 JUMP JUMPDEST JUMPDEST DUP1 DUP3 GT ISZERO PUSH2 0x1D40 JUMPI PUSH1 0x0 DUP2 SSTORE PUSH1 0x1 ADD PUSH2 0x1D45 JUMP JUMPDEST DUP1 CALLDATALOAD PUSH1 0x1 PUSH1 0x1 PUSH1 0xA0 SHL SUB DUP2 AND DUP2 EQ PUSH2 0x1D70 JUMPI PUSH1 0x0 DUP1 REVERT JUMPDEST SWAP2 SWAP1 POP JUMP JUMPDEST PUSH1 0x0 PUSH1 0x20 DUP3 DUP5 SUB SLT ISZERO PUSH2 0x1D87 JUMPI PUSH1 0x0 DUP1 REVERT JUMPDEST PUSH2 0x1D90 DUP3 PUSH2 0x1D59 JUMP JUMPDEST SWAP4 SWAP3 POP POP POP JUMP JUMPDEST DUP1 CALLDATALOAD PUSH1 0x1 PUSH1 0x1 PUSH1 0x80 SHL SUB DUP2 AND DUP2 EQ PUSH2 0x1D70 JUMPI PUSH1 0x0 DUP1 REVERT JUMPDEST PUSH4 0x4E487B71 PUSH1 0xE0 SHL PUSH1 0x0 MSTORE PUSH1 0x41 PUSH1 0x4 MSTORE PUSH1 0x24 PUSH1 0x0 REVERT JUMPDEST PUSH1 0x0 DUP3 PUSH1 0x1F DUP4 ADD SLT PUSH2 0x1DD5 JUMPI PUSH1 0x0 DUP1 REVERT JUMPDEST DUP2 CALLDATALOAD PUSH8 0xFFFFFFFFFFFFFFFF DUP1 DUP3 GT ISZERO PUSH2 0x1DF0 JUMPI PUSH2 0x1DF0 PUSH2 0x1DAE JUMP JUMPDEST PUSH1 0x40 MLOAD PUSH1 0x1F DUP4 ADD PUSH1 0x1F NOT SWAP1 DUP2 AND PUSH1 0x3F ADD AND DUP2 ADD SWAP1 DUP3 DUP3 GT DUP2 DUP4 LT OR ISZERO PUSH2 0x1E18 JUMPI PUSH2 0x1E18 PUSH2 0x1DAE JUMP JUMPDEST DUP2 PUSH1 0x40 MSTORE DUP4 DUP2 MSTORE DUP7 PUSH1 0x20 DUP6 DUP9 ADD ADD GT ISZERO PUSH2 0x1E31 JUMPI PUSH1 0x0 DUP1 REVERT JUMPDEST DUP4 PUSH1 0x20 DUP8 ADD PUSH1 0x20 DUP4 ADD CALLDATACOPY PUSH1 0x0 PUSH1 0x20 DUP6 DUP4 ADD ADD MSTORE DUP1 SWAP5 POP POP POP POP POP SWAP3 SWAP2 POP POP JUMP JUMPDEST PUSH1 0x0 DUP1 PUSH1 0x40 DUP4 DUP6 SUB SLT ISZERO PUSH2 0x1E64 JUMPI PUSH1 0x0 DUP1 REVERT JUMPDEST PUSH2 0x1E6D DUP4 PUSH2 0x1D97 JUMP JUMPDEST SWAP2 POP PUSH1 0x20 DUP4 ADD CALLDATALOAD PUSH8 0xFFFFFFFFFFFFFFFF DUP2 GT ISZERO PUSH2 0x1E89 JUMPI PUSH1 0x0 DUP1 REVERT JUMPDEST PUSH2 0x1E95 DUP6 DUP3 DUP7 ADD PUSH2 0x1DC4 JUMP JUMPDEST SWAP2 POP POP SWAP3 POP SWAP3 SWAP1 POP JUMP JUMPDEST PUSH1 0x0 DUP1 PUSH1 0x20 DUP4 DUP6 SUB SLT ISZERO PUSH2 0x1EB2 JUMPI PUSH1 0x0 DUP1 REVERT JUMPDEST DUP3 CALLDATALOAD PUSH8 0xFFFFFFFFFFFFFFFF DUP1 DUP3 GT ISZERO PUSH2 0x1ECA JUMPI PUSH1 0x0 DUP1 REVERT JUMPDEST DUP2 DUP6 ADD SWAP2 POP DUP6 PUSH1 0x1F DUP4 ADD SLT PUSH2 0x1EDE JUMPI PUSH1 0x0 DUP1 REVERT JUMPDEST DUP2 CALLDATALOAD DUP2 DUP2 GT ISZERO PUSH2 0x1EED JUMPI PUSH1 0x0 DUP1 REVERT JUMPDEST DUP7 PUSH1 0x20 DUP3 DUP6 ADD ADD GT ISZERO PUSH2 0x1EFF JUMPI PUSH1 0x0 DUP1 REVERT JUMPDEST PUSH1 0x20 SWAP3 SWAP1 SWAP3 ADD SWAP7 SWAP2 SWAP6 POP SWAP1 SWAP4 POP POP POP POP JUMP JUMPDEST PUSH1 0x0 DUP1 PUSH1 0x0 PUSH1 0x60 DUP5 DUP7 SUB SLT ISZERO PUSH2 0x1F26 JUMPI PUSH1 0x0 DUP1 REVERT JUMPDEST PUSH2 0x1F2F DUP5 PUSH2 0x1D97 JUMP JUMPDEST SWAP3 POP PUSH1 0x20 DUP5 ADD CALLDATALOAD PUSH8 0xFFFFFFFFFFFFFFFF DUP2 GT ISZERO PUSH2 0x1F4B JUMPI PUSH1 0x0 DUP1 REVERT JUMPDEST PUSH2 0x1F57 DUP7 DUP3 DUP8 ADD PUSH2 0x1DC4 JUMP JUMPDEST SWAP3 POP POP PUSH1 0x40 DUP5 ADD CALLDATALOAD SWAP1 POP SWAP3 POP SWAP3 POP SWAP3 JUMP JUMPDEST PUSH1 0x0 PUSH1 0x20 DUP3 DUP5 SUB SLT ISZERO PUSH2 0x1F7A JUMPI PUSH1 0x0 DUP1 REVERT JUMPDEST POP CALLDATALOAD SWAP2 SWAP1 POP JUMP JUMPDEST PUSH1 0x0 DUP1 PUSH1 0x0 PUSH1 0x60 DUP5 DUP7 SUB SLT ISZERO PUSH2 0x1F96 JUMPI PUSH1 0x0 DUP1 REVERT JUMPDEST DUP4 CALLDATALOAD SWAP3 POP PUSH1 0x20 DUP5 ADD CALLDATALOAD PUSH8 0xFFFFFFFFFFFFFFFF DUP2 GT ISZERO PUSH2 0x1F4B JUMPI PUSH1 0x0 DUP1 REVERT JUMPDEST PUSH1 0x0 DUP1 PUSH1 0x40 DUP4 DUP6 SUB SLT ISZERO PUSH2 0x1FC7 JUMPI PUSH1 0x0 DUP1 REVERT JUMPDEST DUP3 CALLDATALOAD SWAP2 POP PUSH1 0x20 DUP4 ADD CALLDATALOAD PUSH8 0xFFFFFFFFFFFFFFFF DUP2 GT ISZERO PUSH2 0x1E89 JUMPI PUSH1 0x0 DUP1 REVERT JUMPDEST PUSH1 0x0 JUMPDEST DUP4 DUP2 LT ISZERO PUSH2 0x2000 JUMPI DUP2 DUP2 ADD MLOAD DUP4 DUP3 ADD MSTORE PUSH1 0x20 ADD PUSH2 0x1FE8 JUMP JUMPDEST DUP4 DUP2 GT ISZERO PUSH2 0x627 JUMPI POP POP PUSH1 0x0 SWAP2 ADD MSTORE JUMP JUMPDEST DUP3 ISZERO ISZERO DUP2 MSTORE PUSH1 0x40 PUSH1 0x20 DUP3 ADD MSTORE PUSH1 0x0 DUP3 MLOAD DUP1 PUSH1 0x40 DUP5 ADD MSTORE PUSH2 0x2038 DUP2 PUSH1 0x60 DUP6 ADD PUSH1 0x20 DUP8 ADD PUSH2 0x1FE5 JUMP JUMPDEST PUSH1 0x1F ADD PUSH1 0x1F NOT AND SWAP2 SWAP1 SWAP2 ADD PUSH1 0x60 ADD SWAP4 SWAP3 POP POP POP JUMP JUMPDEST PUSH1 0x0 DUP1 PUSH1 0x40 DUP4 DUP6 SUB SLT ISZERO PUSH2 0x2060 JUMPI PUSH1 0x0 DUP1 REVERT JUMPDEST DUP3 CALLDATALOAD PUSH8 0xFFFFFFFFFFFFFFFF DUP2 GT ISZERO PUSH2 0x2077 JUMPI PUSH1 0x0 DUP1 REVERT JUMPDEST PUSH2 0x2083 DUP6 DUP3 DUP7 ADD PUSH2 0x1DC4 JUMP JUMPDEST SWAP3 POP POP PUSH2 0x2092 PUSH1 0x20 DUP5 ADD PUSH2 0x1D59 JUMP JUMPDEST SWAP1 POP SWAP3 POP SWAP3 SWAP1 POP JUMP JUMPDEST PUSH1 0x0 DUP1 PUSH1 0x0 PUSH1 0x60 DUP5 DUP7 SUB SLT ISZERO PUSH2 0x20B0 JUMPI PUSH1 0x0 DUP1 REVERT JUMPDEST PUSH2 0x20B9 DUP5 PUSH2 0x1D97 JUMP JUMPDEST SWAP3 POP PUSH1 0x20 DUP5 ADD CALLDATALOAD PUSH8 0xFFFFFFFFFFFFFFFF DUP2 GT ISZERO PUSH2 0x20D5 JUMPI PUSH1 0x0 DUP1 REVERT JUMPDEST PUSH2 0x20E1 DUP7 DUP3 DUP8 ADD PUSH2 0x1DC4 JUMP JUMPDEST SWAP3 POP POP PUSH2 0x20F0 PUSH1 0x40 DUP6 ADD PUSH2 0x1D59 JUMP JUMPDEST SWAP1 POP SWAP3 POP SWAP3 POP SWAP3 JUMP JUMPDEST PUSH1 0x0 DUP1 PUSH1 0x0 PUSH1 0x60 DUP5 DUP7 SUB SLT ISZERO PUSH2 0x210E JUMPI PUSH1 0x0 DUP1 REVERT JUMPDEST DUP4 CALLDATALOAD PUSH8 0xFFFFFFFFFFFFFFFF DUP2 GT ISZERO PUSH2 0x2125 JUMPI PUSH1 0x0 DUP1 REVERT JUMPDEST PUSH2 0x2131 DUP7 DUP3 DUP8 ADD PUSH2 0x1DC4 JUMP JUMPDEST SWAP4 POP POP PUSH1 0x20 DUP5 ADD CALLDATALOAD SWAP2 POP PUSH2 0x20F0 PUSH1 0x40 DUP6 ADD PUSH2 0x1D59 JUMP JUMPDEST PUSH1 0x0 PUSH1 0x20 DUP3 DUP5 SUB SLT ISZERO PUSH2 0x2159 JUMPI PUSH1 0x0 DUP1 REVERT JUMPDEST DUP2 CALLDATALOAD PUSH8 0xFFFFFFFFFFFFFFFF DUP2 GT ISZERO PUSH2 0x2170 JUMPI PUSH1 0x0 DUP1 REVERT JUMPDEST PUSH2 0x217C DUP5 DUP3 DUP6 ADD PUSH2 0x1DC4 JUMP JUMPDEST SWAP5 SWAP4 POP POP POP POP JUMP JUMPDEST PUSH1 0x0 DUP3 MLOAD PUSH2 0x2196 DUP2 DUP5 PUSH1 0x20 DUP8 ADD PUSH2 0x1FE5 JUMP JUMPDEST SWAP2 SWAP1 SWAP2 ADD SWAP3 SWAP2 POP POP JUMP JUMPDEST PUSH4 0x4E487B71 PUSH1 0xE0 SHL PUSH1 0x0 MSTORE PUSH1 0x11 PUSH1 0x4 MSTORE PUSH1 0x24 PUSH1 0x0 REVERT JUMPDEST PUSH1 0x0 DUP2 PUSH1 0x0 NOT DIV DUP4 GT DUP3 ISZERO ISZERO AND ISZERO PUSH2 0x21D0 JUMPI PUSH2 0x21D0 PUSH2 0x21A0 JUMP JUMPDEST POP MUL SWAP1 JUMP JUMPDEST PUSH1 0x0 DUP3 PUSH2 0x21F2 JUMPI PUSH4 0x4E487B71 PUSH1 0xE0 SHL PUSH1 0x0 MSTORE PUSH1 0x12 PUSH1 0x4 MSTORE PUSH1 0x24 PUSH1 0x0 REVERT JUMPDEST POP DIV SWAP1 JUMP JUMPDEST PUSH1 0x0 PUSH1 0x20 DUP3 DUP5 SUB SLT ISZERO PUSH2 0x2209 JUMPI PUSH1 0x0 DUP1 REVERT JUMPDEST DUP2 MLOAD DUP1 ISZERO ISZERO DUP2 EQ PUSH2 0x1D90 JUMPI PUSH1 0x0 DUP1 REVERT JUMPDEST PUSH1 0x0 PUSH1 0x1 PUSH1 0x1 PUSH1 0x80 SHL SUB DUP1 DUP4 AND DUP2 DUP2 EQ ISZERO PUSH2 0x2236 JUMPI PUSH2 0x2236 PUSH2 0x21A0 JUMP JUMPDEST PUSH1 0x1 ADD SWAP4 SWAP3 POP POP POP JUMP JUMPDEST PUSH1 0x20 DUP1 DUP3 MSTORE DUP2 DUP2 ADD MSTORE PUSH32 0x4F776E61626C653A2063616C6C6572206973206E6F7420746865206F776E6572 PUSH1 0x40 DUP3 ADD MSTORE PUSH1 0x60 ADD SWAP1 JUMP JUMPDEST DUP1 MLOAD PUSH10 0xFFFFFFFFFFFFFFFFFFFF DUP2 AND DUP2 EQ PUSH2 0x1D70 JUMPI PUSH1 0x0 DUP1 REVERT JUMPDEST PUSH1 0x0 DUP1 PUSH1 0x0 DUP1 PUSH1 0x0 PUSH1 0xA0 DUP7 DUP9 SUB SLT ISZERO PUSH2 0x22A7 JUMPI PUSH1 0x0 DUP1 REVERT JUMPDEST PUSH2 0x22B0 DUP7 PUSH2 0x2275 JUMP JUMPDEST SWAP5 POP PUSH1 0x20 DUP7 ADD MLOAD SWAP4 POP PUSH1 0x40 DUP7 ADD MLOAD SWAP3 POP PUSH1 0x60 DUP7 ADD MLOAD SWAP2 POP PUSH2 0x22D3 PUSH1 0x80 DUP8 ADD PUSH2 0x2275 JUMP JUMPDEST SWAP1 POP SWAP3 SWAP6 POP SWAP3 SWAP6 SWAP1 SWAP4 POP JUMP JUMPDEST PUSH1 0x0 DUP3 NOT DUP3 GT ISZERO PUSH2 0x22F2 JUMPI PUSH2 0x22F2 PUSH2 0x21A0 JUMP JUMPDEST POP ADD SWAP1 JUMP JUMPDEST PUSH1 0x0 PUSH1 0x1 PUSH1 0x1 PUSH1 0x80 SHL SUB DUP4 DUP2 AND SWAP1 DUP4 AND DUP2 DUP2 LT ISZERO PUSH2 0x2317 JUMPI PUSH2 0x2317 PUSH2 0x21A0 JUMP JUMPDEST SUB SWAP4 SWAP3 POP POP POP JUMP JUMPDEST PUSH4 0x4E487B71 PUSH1 0xE0 SHL PUSH1 0x0 MSTORE PUSH1 0x32 PUSH1 0x4 MSTORE PUSH1 0x24 PUSH1 0x0 REVERT JUMPDEST PUSH1 0x0 PUSH1 0x0 NOT DUP3 EQ ISZERO PUSH2 0x2349 JUMPI PUSH2 0x2349 PUSH2 0x21A0 JUMP JUMPDEST POP PUSH1 0x1 ADD SWAP1 JUMP JUMPDEST PUSH1 0x0 PUSH1 0x20 DUP3 DUP5 SUB SLT ISZERO PUSH2 0x2362 JUMPI PUSH1 0x0 DUP1 REVERT JUMPDEST POP MLOAD SWAP2 SWAP1 POP JUMP JUMPDEST PUSH1 0x0 DUP3 DUP3 LT ISZERO PUSH2 0x237B JUMPI PUSH2 0x237B PUSH2 0x21A0 JUMP JUMPDEST POP SUB SWAP1 JUMP JUMPDEST PUSH1 0x1 DUP2 DUP2 SHR SWAP1 DUP3 AND DUP1 PUSH2 0x2394 JUMPI PUSH1 0x7F DUP3 AND SWAP2 POP JUMPDEST PUSH1 0x20 DUP3 LT DUP2 EQ ISZERO PUSH2 0x23B5 JUMPI PUSH4 0x4E487B71 PUSH1 0xE0 SHL PUSH1 0x0 MSTORE PUSH1 0x22 PUSH1 0x4 MSTORE PUSH1 0x24 PUSH1 0x0 REVERT JUMPDEST POP SWAP2 SWAP1 POP JUMP JUMPDEST PUSH1 0x0 DUP1 DUP4 SLOAD DUP2 PUSH1 0x1 DUP3 DUP2 SHR SWAP2 POP DUP1 DUP4 AND DUP1 PUSH2 0x23D7 JUMPI PUSH1 0x7F DUP4 AND SWAP3 POP JUMPDEST PUSH1 0x20 DUP1 DUP5 LT DUP3 EQ ISZERO PUSH2 0x23F7 JUMPI PUSH4 0x4E487B71 PUSH1 0xE0 SHL DUP7 MSTORE PUSH1 0x22 PUSH1 0x4 MSTORE PUSH1 0x24 DUP7 REVERT JUMPDEST DUP2 DUP1 ISZERO PUSH2 0x240B JUMPI PUSH1 0x1 DUP2 EQ PUSH2 0x241C JUMPI PUSH2 0x2449 JUMP JUMPDEST PUSH1 0xFF NOT DUP7 AND DUP10 MSTORE DUP5 DUP10 ADD SWAP7 POP PUSH2 0x2449 JUMP JUMPDEST PUSH1 0x0 DUP11 DUP2 MSTORE PUSH1 0x20 SWAP1 KECCAK256 PUSH1 0x0 JUMPDEST DUP7 DUP2 LT ISZERO PUSH2 0x2441 JUMPI DUP2 SLOAD DUP12 DUP3 ADD MSTORE SWAP1 DUP6 ADD SWAP1 DUP4 ADD PUSH2 0x2428 JUMP JUMPDEST POP POP DUP5 DUP10 ADD SWAP7 POP JUMPDEST POP SWAP5 SWAP9 SWAP8 POP POP POP POP POP POP POP POP JUMP JUMPDEST PUSH1 0x0 PUSH1 0xFF DUP3 AND PUSH1 0xFF DUP2 EQ ISZERO PUSH2 0x246E JUMPI PUSH2 0x246E PUSH2 0x21A0 JUMP JUMPDEST PUSH1 0x1 ADD SWAP3 SWAP2 POP POP JUMP INVALID LOG2 PUSH5 0x6970667358 0x22 SLT KECCAK256 PUSH9 0x91CC7BC3EF2C12F42B DUP13 DUP5 SELFDESTRUCT JUMPDEST SMOD 0x1F LOG0 0xCD KECCAK256 0xC2 CALLDATACOPY PUSH21 0xCFD5C353EFCE237E56C164736F6C634300080B0033 ",
  "sha1": "0b9decb893697321e25b32982c4c4ad53f5f18dd",
  "source": "//SPDX-License-Identifier: MIT\npragma solidity ^0.8.0;\n\nimport \"../interfaces/DataTypes.sol\";\nimport \"../interfaces/ILendingPoolAddressesProvider.sol\";\nimport \"../interfaces/ILendingPool.sol\";\nimport \"../interfaces/TransferHelper.sol\";\nimport \"../interfaces/ISwapRouter.sol\";\nimport \"../interfaces/IMoonSquares.sol\";\n\nimport \"@chainlink/contracts/src/v0.8/interfaces/KeeperCompatibleInterface.sol\";\nimport \"@chainlink/contracts/src/v0.8/interfaces/AggregatorV3Interface.sol\";\n//import \"@openzeppelin/contracts/token/ERC20/IERC20.sol\";\nimport \"@openzeppelin/contracts/access/Ownable.sol\";\n\n\n\ncontract DailyRocket is Ownable, KeeperCompatibleInterface {\n\n    //preferably should use the http get to get the actual close price of an asset rather than aggregator\n    //to confirm during testing phase\n\n\n    //IUniswapV2Router01 public sushiRouter = IUniswapV2Router01(0x1b02dA8Cb0d097eB8D57A175b88c7D8b47997506);\n\n    ILendingPoolAddressesProvider provider = ILendingPoolAddressesProvider(\n        address(0x88757f2f99175387aB4C6a4b3067c77A695b0349)\n    ); // mainnet address, for other addresses: https://docs.aave.com/developers/deployed-contracts/deployed-contract-instances \n    ILendingPool lendingPool = ILendingPool(provider.getLendingPool());\n    \n    IMoonSquares public moonSquare;\n    ISwapRouter public immutable swapRouter;\n    uint24 public constant poolFee = 3000;\n\n    uint128 dayCount;//Kepps track of the days\n\n    string[] predictableAssets;//all assets that a user can predict\n    address[] assetPriceAggregators;\n\n    mapping(string => bool) public activeAsset;\n\n    mapping(uint256 => mapping(string => int256)) dayAssetClosePrice; //Closing Price per asset \n\n    mapping(uint256 => uint256) dayCloseTime; //Closing Time per asset\n    \n    address Dai = 0xFf795577d9AC8bD7D90Ee22b6C1703490b6512FD;\n\n    uint256 public contractStartTime; //The contract should start at 0000.00 hours\n\n    mapping(uint256 => mapping(string => uint256)) public dayAssetTotalAmount;\n\n    mapping(uint256 => mapping(string => uint256)) public dayAssetNoOfWinners;\n    \n    mapping(uint256 => mapping(string => int256[])) public dayAssetPrediction;\n\n    mapping(uint256 => mapping(string => address[])) public dayAssetPredictors;\n\n    event Predicted(address indexed _placer, int256 _prediction);\n    \n    struct Charity {\n        bytes8 name;\n        bytes32 link; //sends people to the charity's official site\n    }\n    \n    mapping (address => Charity) public presentCharities;\n\n    address[] public AcceptedTokens;\n\n    mapping(uint128 => mapping(string => address[])) public dailyAssetWinners;\n\n    //user and their prediction\n    mapping(uint128 => mapping(string => mapping(address => int256))) public dayAssetUserPrediction;\n\n    constructor(\n        address _dai,\n        ISwapRouter _swapRouter, //0xE592427A0AEce92De3Edee1F18E0157C05861564\n        IMoonSquares _moonsqr\n        )\n    {\n        AcceptedTokens.push(_dai);\n        swapRouter = _swapRouter;\n        moonSquare = _moonsqr;\n        contractStartTime = block.timestamp;\n        dayCount = 1;\n        dayCloseTime[dayCount] = contractStartTime + 86400 seconds;//adds a day to the start time. to change to an input later.\n    }//instantiate the token addresses upon deployment\n\n\n    function setNewClosingPrice() internal {\n        for (uint256 i = 0; i < assetPriceAggregators.length; i++){\n            dayAssetClosePrice[dayCount][predictableAssets[i]] = getPrice(i);\n        }\n    }\n\n    function addPaymentToken(address _address) public onlyOwner {\n        AcceptedTokens.push(_address);\n    }\n    \n    function addAssetAndAgg(string memory _asset, address _aggregator) public onlyOwner {\n        predictableAssets.push(_asset);\n        assetPriceAggregators.push(_aggregator);\n        activeAsset[_asset] = true;\n    }\n\n    function predictClosePrice(\n        string memory _asset, \n        int _prediction,\n        address token\n    ) public allowedToken(token)\n    {   \n        require(activeAsset[_asset] == true);\n        if (dayCount > 1) {\n            require(getTime() <= dayCloseTime[dayCount -1] + 64800 seconds);//After this time, one cannot\n        }\n        uint256 amount = 10000000000000000000;//the amount we set for the daily close\n        if (token != Dai) {\n            require(IERC20(Dai).allowance(msg.sender, address(this)) >= uint(amount));\n            //IERC20(token).transferFrom(msg.sender, address(this), uint(amount));\n            TransferHelper.safeTransferFrom(token, msg.sender, address(this), amount);\n\n            // Approve the router to spend the specifed `amountInMaximum` of DAI.\n            TransferHelper.safeApprove(token, address(swapRouter), amount);\n            uint amountInMaximum = 15000000000000000000;\n            ISwapRouter.ExactOutputSingleParams memory params =\n                ISwapRouter.ExactOutputSingleParams({\n                    tokenIn: token,\n                    tokenOut: Dai,\n                    fee: poolFee,\n                    recipient: address(this),\n                    deadline: block.timestamp,\n                    amountOut: amount,\n                    amountInMaximum: amountInMaximum,\n                    sqrtPriceLimitX96: 0\n                });\n\n            // Executes the swap returning the amountIn needed to spend to receive the desired amountOut.\n            uint amountIn = swapRouter.exactOutputSingle(params);\n\n            // For exact output swaps, the amountInMaximum may not have all been spent.\n            // If the actual amount spent (amountIn) is less than the specified maximum amount, we must refund the msg.sender and approve the swapRouter to spend 0.\n            if (amountIn < amountInMaximum) {\n                TransferHelper.safeApprove(Dai, address(swapRouter), 0);\n                TransferHelper.safeTransfer(Dai, msg.sender, amountInMaximum - amountIn);\n            }\n        } else {\n    \n        require(IERC20(Dai).allowance(msg.sender, address(this)) >= uint(amount));\n        IERC20(Dai).transferFrom(msg.sender, address(this), uint(amount));\n        \n        }\n        dayAssetTotalAmount[dayCount][_asset] += amount;\n        //Updates The prediction mapping\n        dayAssetUserPrediction[dayCount][_asset][msg.sender] = _prediction;\n        //adds to the list of predictions\n        dayAssetPrediction[dayCount][_asset].push(_prediction);\n        //add the sender to the predictors array\n        dayAssetPredictors[dayCount][_asset].push(msg.sender);\n\n        emit Predicted(msg.sender, _prediction);\n    }\n\n    function setNumberOfWinners() private {\n        uint128 day = dayCount;\n        for (uint8 i = 0; i < predictableAssets.length; i++) {\n            require(\n                dayAssetPrediction[day][predictableAssets[i]].length\n                ==\n                dayAssetPredictors[day][predictableAssets[i]].length\n            );\n            for (uint8 p = 0; p < dayAssetPrediction[day][predictableAssets[i]].length; p++) {\n                require(dayAssetPrediction[day][predictableAssets[i]][p] == dayAssetClosePrice[day][predictableAssets[i]]);\n                dailyAssetWinners[day][predictableAssets[i]].push(dayAssetPredictors[day][predictableAssets[i]][p]);\n                dayAssetNoOfWinners[day][predictableAssets[i]] +=1;\n\n                moonSquare.addToWinners(dayAssetPredictors[day][predictableAssets[i]][p]);\n            }\n        }\n    }\n\n\n    function getTime() public view returns(uint){\n        AggregatorV3Interface priceFeed = AggregatorV3Interface(0x6135b13325bfC4B00278B4abC5e20bbce2D6580e);\n        (,,,uint answer,) = priceFeed.latestRoundData();\n         return uint(answer);\n    }\n\n    function getPrice(uint256 _aggindex) public view returns(int){\n        AggregatorV3Interface priceFeed = AggregatorV3Interface(assetPriceAggregators[_aggindex]);\n        (,int answer,,,) = priceFeed.latestRoundData();\n         return int(answer);\n    }\n\n    modifier allowedToken(address _token) {\n        for(uint i =0; i < predictableAssets.length; i++) {\n            require(AcceptedTokens[i] == _token);\n        }\n        _;\n    }\n\n    function claimWinnings(uint128 _day, string memory _asset) public {\n        //logic to see if the person had a winning prediction\n        require(dayAssetUserPrediction[_day][_asset][msg.sender] == dayAssetClosePrice[_day][_asset]);\n        uint256 winners = dayAssetNoOfWinners[_day][_asset];\n        IERC20(Dai).transfer(\n            msg.sender, \n            ((dayAssetTotalAmount[_day][_asset]) * 90/100)/winners\n        );\n        \n    }\n\n    function isAwinner(\n        uint128 _day,\n        string memory _asset,\n        address checked\n    ) public view returns(bool){\n        require(dayAssetUserPrediction[_day][_asset][checked] == dayAssetClosePrice[_day][_asset]);\n        return true;\n    }\n    \n    function checkUpkeep(bytes calldata checkData) external view override returns (bool upkeepNeeded, bytes memory performData) {\n        if (dayCloseTime[dayCount] + 86400 seconds == getTime()){\n            upkeepNeeded = true;\n            return (true, abi.encodePacked(uint256(0)));\n        }\n        if (getTime() > dayCloseTime[dayCount -1] + 64800 seconds) {\n            upkeepNeeded = true;\n            return (true, abi.encodePacked(uint(1)));\n        }\n        performData = checkData;\n        \n    }\n    \n    function performUpkeep(bytes calldata performData) external override {\n         uint256 decodedValue = abi.decode(performData, (uint256));\n        if (decodedValue == 0) {\n            setNewClosingPrice();\n            setNumberOfWinners();\n            dayCount++;\n        }\n        if (decodedValue == 1) {\n            sendToIba();\n        }\n    }\n    \n    //sends non winnings to an interest bearibg account \n    function sendToIba() private {\n        require(getTime() > dayCloseTime[dayCount -1] + 64800 seconds);\n        for (uint128 i = 0; i < predictableAssets.length; i++) {\n            uint amount = ((dayAssetTotalAmount[dayCount][predictableAssets[i]]) * 10/100);\n            //IERC20(Dai).approve(IBA, amount);\n            IERC20(Dai).approve(address(lendingPool), amount);\n            lendingPool.deposit(\n                Dai,\n                uint(amount),\n                address(moonSquare),\n                0\n            );\n        }\n    }\n\n\n    \n}",
  "sourcePath": "contracts/DailyRocket.sol",
  "type": "contract"
}