{
  "abi": [
    {
      "inputs": [
        {
          "internalType": "address",
          "name": "_dai",
          "type": "address"
        },
        {
          "internalType": "contract ISwapRouter",
          "name": "_swapRouter",
          "type": "address"
        },
        {
          "internalType": "contract IMoonSquares",
          "name": "_moonsqr",
          "type": "address"
        }
      ],
      "stateMutability": "nonpayable",
      "type": "constructor"
    },
    {
      "anonymous": false,
      "inputs": [
        {
          "indexed": true,
          "internalType": "address",
          "name": "previousOwner",
          "type": "address"
        },
        {
          "indexed": true,
          "internalType": "address",
          "name": "newOwner",
          "type": "address"
        }
      ],
      "name": "OwnershipTransferred",
      "type": "event"
    },
    {
      "anonymous": false,
      "inputs": [
        {
          "indexed": true,
          "internalType": "address",
          "name": "_placer",
          "type": "address"
        },
        {
          "indexed": false,
          "internalType": "int256",
          "name": "_prediction",
          "type": "int256"
        }
      ],
      "name": "Predicted",
      "type": "event"
    },
    {
      "inputs": [
        {
          "internalType": "uint256",
          "name": "",
          "type": "uint256"
        }
      ],
      "name": "AcceptedTokens",
      "outputs": [
        {
          "internalType": "address",
          "name": "",
          "type": "address"
        }
      ],
      "stateMutability": "view",
      "type": "function"
    },
    {
      "inputs": [
        {
          "internalType": "string",
          "name": "",
          "type": "string"
        }
      ],
      "name": "activeAsset",
      "outputs": [
        {
          "internalType": "bool",
          "name": "",
          "type": "bool"
        }
      ],
      "stateMutability": "view",
      "type": "function"
    },
    {
      "inputs": [
        {
          "internalType": "string",
          "name": "_asset",
          "type": "string"
        },
        {
          "internalType": "address",
          "name": "_aggregator",
          "type": "address"
        }
      ],
      "name": "addAssetAndAgg",
      "outputs": [],
      "stateMutability": "nonpayable",
      "type": "function"
    },
    {
      "inputs": [
        {
          "internalType": "address",
          "name": "_address",
          "type": "address"
        }
      ],
      "name": "addPaymentToken",
      "outputs": [],
      "stateMutability": "nonpayable",
      "type": "function"
    },
    {
      "inputs": [
        {
          "internalType": "bytes",
          "name": "checkData",
          "type": "bytes"
        }
      ],
      "name": "checkUpkeep",
      "outputs": [
        {
          "internalType": "bool",
          "name": "upkeepNeeded",
          "type": "bool"
        },
        {
          "internalType": "bytes",
          "name": "performData",
          "type": "bytes"
        }
      ],
      "stateMutability": "view",
      "type": "function"
    },
    {
      "inputs": [
        {
          "internalType": "uint128",
          "name": "_day",
          "type": "uint128"
        },
        {
          "internalType": "string",
          "name": "_asset",
          "type": "string"
        }
      ],
      "name": "claimWinnings",
      "outputs": [],
      "stateMutability": "nonpayable",
      "type": "function"
    },
    {
      "inputs": [],
      "name": "contractStartTime",
      "outputs": [
        {
          "internalType": "uint256",
          "name": "",
          "type": "uint256"
        }
      ],
      "stateMutability": "view",
      "type": "function"
    },
    {
      "inputs": [
        {
          "internalType": "uint128",
          "name": "",
          "type": "uint128"
        },
        {
          "internalType": "string",
          "name": "",
          "type": "string"
        },
        {
          "internalType": "uint256",
          "name": "",
          "type": "uint256"
        }
      ],
      "name": "dailyAssetWinners",
      "outputs": [
        {
          "internalType": "address",
          "name": "",
          "type": "address"
        }
      ],
      "stateMutability": "view",
      "type": "function"
    },
    {
      "inputs": [
        {
          "internalType": "uint256",
          "name": "",
          "type": "uint256"
        },
        {
          "internalType": "string",
          "name": "",
          "type": "string"
        }
      ],
      "name": "dayAssetNoOfWinners",
      "outputs": [
        {
          "internalType": "uint256",
          "name": "",
          "type": "uint256"
        }
      ],
      "stateMutability": "view",
      "type": "function"
    },
    {
      "inputs": [
        {
          "internalType": "uint256",
          "name": "",
          "type": "uint256"
        },
        {
          "internalType": "string",
          "name": "",
          "type": "string"
        },
        {
          "internalType": "uint256",
          "name": "",
          "type": "uint256"
        }
      ],
      "name": "dayAssetPrediction",
      "outputs": [
        {
          "internalType": "int256",
          "name": "",
          "type": "int256"
        }
      ],
      "stateMutability": "view",
      "type": "function"
    },
    {
      "inputs": [
        {
          "internalType": "uint256",
          "name": "",
          "type": "uint256"
        },
        {
          "internalType": "string",
          "name": "",
          "type": "string"
        },
        {
          "internalType": "uint256",
          "name": "",
          "type": "uint256"
        }
      ],
      "name": "dayAssetPredictors",
      "outputs": [
        {
          "internalType": "address",
          "name": "",
          "type": "address"
        }
      ],
      "stateMutability": "view",
      "type": "function"
    },
    {
      "inputs": [
        {
          "internalType": "uint256",
          "name": "",
          "type": "uint256"
        },
        {
          "internalType": "string",
          "name": "",
          "type": "string"
        }
      ],
      "name": "dayAssetTotalAmount",
      "outputs": [
        {
          "internalType": "uint256",
          "name": "",
          "type": "uint256"
        }
      ],
      "stateMutability": "view",
      "type": "function"
    },
    {
      "inputs": [
        {
          "internalType": "uint128",
          "name": "",
          "type": "uint128"
        },
        {
          "internalType": "string",
          "name": "",
          "type": "string"
        },
        {
          "internalType": "address",
          "name": "",
          "type": "address"
        }
      ],
      "name": "dayAssetUserPrediction",
      "outputs": [
        {
          "internalType": "int256",
          "name": "prediction",
          "type": "int256"
        },
        {
          "internalType": "uint256",
          "name": "time",
          "type": "uint256"
        },
        {
          "internalType": "bool",
          "name": "isWinner",
          "type": "bool"
        }
      ],
      "stateMutability": "view",
      "type": "function"
    },
    {
      "inputs": [],
      "name": "dayCount",
      "outputs": [
        {
          "internalType": "uint128",
          "name": "",
          "type": "uint128"
        }
      ],
      "stateMutability": "view",
      "type": "function"
    },
    {
      "inputs": [
        {
          "internalType": "uint256",
          "name": "_aggindex",
          "type": "uint256"
        }
      ],
      "name": "getPrice",
      "outputs": [
        {
          "internalType": "int256",
          "name": "",
          "type": "int256"
        }
      ],
      "stateMutability": "view",
      "type": "function"
    },
    {
      "inputs": [],
      "name": "getTime",
      "outputs": [
        {
          "internalType": "uint256",
          "name": "",
          "type": "uint256"
        }
      ],
      "stateMutability": "view",
      "type": "function"
    },
    {
      "inputs": [
        {
          "internalType": "uint128",
          "name": "_day",
          "type": "uint128"
        },
        {
          "internalType": "string",
          "name": "_asset",
          "type": "string"
        },
        {
          "internalType": "address",
          "name": "checked",
          "type": "address"
        }
      ],
      "name": "isAwinner",
      "outputs": [
        {
          "internalType": "bool",
          "name": "",
          "type": "bool"
        }
      ],
      "stateMutability": "view",
      "type": "function"
    },
    {
      "inputs": [],
      "name": "moonSquare",
      "outputs": [
        {
          "internalType": "contract IMoonSquares",
          "name": "",
          "type": "address"
        }
      ],
      "stateMutability": "view",
      "type": "function"
    },
    {
      "inputs": [],
      "name": "owner",
      "outputs": [
        {
          "internalType": "address",
          "name": "",
          "type": "address"
        }
      ],
      "stateMutability": "view",
      "type": "function"
    },
    {
      "inputs": [
        {
          "internalType": "bytes",
          "name": "performData",
          "type": "bytes"
        }
      ],
      "name": "performUpkeep",
      "outputs": [],
      "stateMutability": "nonpayable",
      "type": "function"
    },
    {
      "inputs": [],
      "name": "poolFee",
      "outputs": [
        {
          "internalType": "uint24",
          "name": "",
          "type": "uint24"
        }
      ],
      "stateMutability": "view",
      "type": "function"
    },
    {
      "inputs": [
        {
          "internalType": "string",
          "name": "_asset",
          "type": "string"
        },
        {
          "internalType": "int256",
          "name": "_prediction",
          "type": "int256"
        },
        {
          "internalType": "address",
          "name": "token",
          "type": "address"
        }
      ],
      "name": "predictClosePrice",
      "outputs": [],
      "stateMutability": "nonpayable",
      "type": "function"
    },
    {
      "inputs": [
        {
          "internalType": "address",
          "name": "",
          "type": "address"
        }
      ],
      "name": "presentCharities",
      "outputs": [
        {
          "internalType": "bytes8",
          "name": "name",
          "type": "bytes8"
        },
        {
          "internalType": "bytes32",
          "name": "link",
          "type": "bytes32"
        }
      ],
      "stateMutability": "view",
      "type": "function"
    },
    {
      "inputs": [],
      "name": "renounceOwnership",
      "outputs": [],
      "stateMutability": "nonpayable",
      "type": "function"
    },
    {
      "inputs": [],
      "name": "swapRouter",
      "outputs": [
        {
          "internalType": "contract ISwapRouter",
          "name": "",
          "type": "address"
        }
      ],
      "stateMutability": "view",
      "type": "function"
    },
    {
      "inputs": [
        {
          "internalType": "address",
          "name": "newOwner",
          "type": "address"
        }
      ],
      "name": "transferOwnership",
      "outputs": [],
      "stateMutability": "nonpayable",
      "type": "function"
    }
  ],
  "bytecode": "60a06040819052600180546001600160a01b0319167388757f2f99175387ab4c6a4b3067c77a695b0349908117909155630261bf8b60e01b825290630261bf8b9060a490602090600481865afa1580156200005e573d6000803e3d6000fd5b505050506040513d601f19601f820116820180604052508101906200008491906200021b565b600280546001600160a01b03929092166001600160a01b0319928316179055600a805490911673ff795577d9ac8bd7d90ee22b6c1703490b6512fd179055348015620000cf57600080fd5b50604051620028e5380380620028e5833981016040819052620000f29162000242565b620000fd33620001b2565b60118054600181810183556000929092527f31ecc21a745e3968a04e9570e4425bc18fa8019c68028196b546d1669c200c680180546001600160a01b038087166001600160a01b031992831617909255848216608052600380549285169290911691909117905542600b819055600480546001600160801b0319169092179091556200018d906201518062000296565b6004546001600160801b031660009081526009602052604090205550620002bd915050565b600080546001600160a01b038381166001600160a01b0319831681178455604051919092169283917f8be0079c531659141344cd1fd0a4f28419497f9722a3daafe3b4186f6b6457e09190a35050565b6001600160a01b03811681146200021857600080fd5b50565b6000602082840312156200022e57600080fd5b81516200023b8162000202565b9392505050565b6000806000606084860312156200025857600080fd5b8351620002658162000202565b6020850151909350620002788162000202565b60408501519092506200028b8162000202565b809150509250925092565b60008219821115620002b857634e487b7160e01b600052601160045260246000fd5b500190565b6080516125f7620002ee6000396000818161045d01528181610e3c01528181610f110152610f9b01526125f76000f3fe608060405234801561001057600080fd5b506004361061018e5760003560e01c8063715018a6116100de578063be331a6411610097578063e757223011610071578063e75722301461047f578063ec6f4f4114610492578063f2fde38b146104c0578063fd2faa68146104d357600080fd5b8063be331a64146103d4578063c2aba3f0146103e7578063c31c9c071461045857600080fd5b8063715018a61461033657806380f797021461033e57806381688c641461037a57806385afa2701461038d5780638da5cb5b146103b0578063afa3a617146103c157600080fd5b806347ce529a1161014b578063557ed1ba11610125578063557ed1ba146102be5780635f90f0b7146102c657806363168475146102d95780636e04ff0d1461031557600080fd5b806347ce529a1461026d5780634a128671146102985780634a7dc8e0146102ab57600080fd5b8063089fe6aa146101935780630c3d5157146101b5578063126df02b146101cc5780631cc87d881461021a578063266e2a561461022f5780634585e33b1461025a575b600080fd5b61019c610bb881565b60405162ffffff90911681526020015b60405180910390f35b6101be600b5481565b6040519081526020016101ac565b6101fa6101da366004611ebf565b6010602052600090815260409020805460019091015460c09190911b9082565b604080516001600160c01b031990931683526020830191909152016101ac565b61022d610228366004611f9b565b6104e6565b005b600454610242906001600160801b031681565b6040516001600160801b0390911681526020016101ac565b61022d610268366004611fe9565b6106f1565b61028061027b36600461205b565b61076b565b6040516001600160a01b0390911681526020016101ac565b6102806102a63660046120b2565b6107bf565b61022d6102b9366004611ebf565b6107e9565b6101be61086e565b6102806102d43660046120cb565b6108f7565b6101be6102e73660046120fe565b600d602090815260009283526040909220815180830184018051928152908401929093019190912091525481565b610328610323366004611fe9565b61092e565b6040516101ac92919061215b565b61022d610a3e565b6101be61034c3660046120fe565b600c602090815260009283526040909220815180830184018051928152908401929093019190912091525481565b61022d610388366004612197565b610a74565b6103a061039b3660046121e5565b610b63565b60405190151581526020016101ac565b6000546001600160a01b0316610280565b6101be6103cf3660046120cb565b610c47565b61022d6103e2366004612243565b610c94565b61043b6103f53660046121e5565b6013602090815260009384526040808520845180860184018051928152908401958401959095209452929052825290208054600182015460029092015490919060ff1683565b6040805193845260208401929092521515908201526060016101ac565b6102807f000000000000000000000000000000000000000000000000000000000000000081565b6101be61048d3660046120b2565b611295565b6103a06104a0366004612291565b805160208183018101805160078252928201919093012091525460ff1681565b61022d6104ce366004611ebf565b61133c565b600354610280906001600160a01b031681565b6001600160801b03821660009081526008602052604090819020905161050d9083906122ce565b90815260200160405180910390205460136000846001600160801b03166001600160801b031681526020019081526020016000208260405161054f91906122ce565b908152604080516020928190038301902033600090815292529020541461057557600080fd5b6001600160801b0382166000908152600d6020526040808220905161059b9084906122ce565b9081526020016040518091039020549050600160136000856001600160801b03166001600160801b03168152602001908152602001600020836040516105e191906122ce565b9081526040805160209281900383018120336000818152918552838220600201805460ff191696151596909617909555600a546001600160801b0389168252600c909452919091206001600160a01b039092169263a9059cbb929091859160649161064d9089906122ce565b908152602001604051809103902054605a6106689190612300565b610672919061231f565b61067c919061231f565b6040516001600160e01b031960e085901b1681526001600160a01b03909216600483015260248201526044016020604051808303816000875af11580156106c7573d6000803e3d6000fd5b505050506040513d601f19601f820116820180604052508101906106eb9190612341565b50505050565b60006106ff828401846120b2565b9050806107555761070e6113d7565b610716611454565b600480546001600160801b031690600061072f83612363565b91906101000a8154816001600160801b0302191690836001600160801b03160217905550505b8060011415610766576107666118cf565b505050565b601260209081526000848152604090208351808501830180519281529083019285019290922091528054829081106107a257600080fd5b6000918252602090912001546001600160a01b0316925083915050565b601181815481106107cf57600080fd5b6000918252602090912001546001600160a01b0316905081565b6000546001600160a01b0316331461081c5760405162461bcd60e51b81526004016108139061238a565b60405180910390fd5b601180546001810182556000919091527f31ecc21a745e3968a04e9570e4425bc18fa8019c68028196b546d1669c200c680180546001600160a01b0319166001600160a01b0392909216919091179055565b600080736135b13325bfc4b00278b4abc5e20bbce2d6580e90506000816001600160a01b031663feaf968c6040518163ffffffff1660e01b815260040160a060405180830381865afa1580156108c8573d6000803e3d6000fd5b505050506040513d601f19601f820116820180604052508101906108ec91906123d9565b509695505050505050565b600f60209081526000848152604090208351808501830180519281529083019285019290922091528054829081106107a257600080fd5b6000606061093a61086e565b6004546001600160801b03166000908152600960205260409020546109629062015180612429565b1415610993576040805160006020820152600193508391015b60405160208183030381529060405291509150610a37565b6004546009906000906109b1906001906001600160801b0316612441565b6001600160801b031681526020019081526020016000205461fd206109d69190612429565b6109de61086e565b11156109fd576001915060018060405160200161097b91815260200190565b83838080601f0160208091040260200160405190810160405280939291908181526020018383808284376000920191909152509293505050505b9250929050565b6000546001600160a01b03163314610a685760405162461bcd60e51b81526004016108139061238a565b610a726000611ab7565b565b6000546001600160a01b03163314610a9e5760405162461bcd60e51b81526004016108139061238a565b600580546001810182556000919091528251610ae1917f036b6384b5eca791c62761152d0c79bb0604c104a5fb6f4eb0703f3154bb3db001906020850190611e0a565b5060068054600180820183556000929092527ff652222313e28459528d920b65115c16c04f3efc82aaedc97be59f3f377c0d3f0180546001600160a01b0319166001600160a01b038416179055604051600790610b3f9085906122ce565b908152604051908190036020019020805491151560ff199092169190911790555050565b6001600160801b0383166000908152600860205260408082209051610b899085906122ce565b90815260200160405180910390205460001415610ba557600080fd5b6001600160801b038416600090815260086020526040908190209051610bcc9085906122ce565b90815260200160405180910390205460136000866001600160801b03166001600160801b0316815260200190815260200160002084604051610c0e91906122ce565b90815260408051602092819003830190206001600160a01b0386166000908152925290205414610c3d57600080fd5b5060019392505050565b600e6020908152600084815260409020835180850183018051928152908301928501929092209152805482908110610c7e57600080fd5b9060005260206000200160009250925050505481565b8060005b600554811015610cf057816001600160a01b031660118281548110610cbf57610cbf612469565b6000918252602090912001546001600160a01b031614610cde57600080fd5b80610ce88161247f565b915050610c98565b50600784604051610d0191906122ce565b9081526040519081900360200190205460ff161515600114610d2257600080fd5b60045460016001600160801b039091161115610d8e57600454600990600090610d56906001906001600160801b0316612441565b6001600160801b031681526020019081526020016000205461fd20610d7b9190612429565b610d8361086e565b1115610d8e57600080fd5b600a54678ac7230489e80000906001600160a01b03848116911614610fe957600a54604051636eb1769f60e11b815233600482015230602482015282916001600160a01b03169063dd62ed3e90604401602060405180830381865afa158015610dfb573d6000803e3d6000fd5b505050506040513d601f19601f82011682018060405250810190610e1f919061249a565b1015610e2a57600080fd5b610e3683333084611b07565b610e61837f000000000000000000000000000000000000000000000000000000000000000083611c11565b60408051610100810182526001600160a01b038581168252600a54811660208301908152610bb88385019081523060608501908152426080860190815260a0860188815267d02ab486cedc000060c08801818152600060e08a018181529a51631b67c43360e31b81528a518a166004820152975189166024890152955162ffffff166044880152935187166064870152915160848601525160a4850152905160c48401529451831660e4830152917f0000000000000000000000000000000000000000000000000000000000000000169063db3e219890610104016020604051808303816000875af1158015610f5b573d6000803e3d6000fd5b505050506040513d601f19601f82011682018060405250810190610f7f919061249a565b905082811015610fe157600a54610fc1906001600160a01b03167f00000000000000000000000000000000000000000000000000000000000000006000611c11565b600a54610fe1906001600160a01b031633610fdc84876124b3565b611d11565b5050506110e3565b600a54604051636eb1769f60e11b815233600482015230602482015282916001600160a01b03169063dd62ed3e90604401602060405180830381865afa158015611037573d6000803e3d6000fd5b505050506040513d601f19601f8201168201806040525081019061105b919061249a565b101561106657600080fd5b600a546040516323b872dd60e01b8152336004820152306024820152604481018390526001600160a01b03909116906323b872dd906064016020604051808303816000875af11580156110bd573d6000803e3d6000fd5b505050506040513d601f19601f820116820180604052508101906110e19190612341565b505b6004546001600160801b03166000908152600c602052604090819020905182919061110f9088906122ce565b9081526020016040518091039020600082825461112c9190612429565b92505081905550604051806060016040528085815260200161114c61086e565b8152600060209182018190526004546001600160801b031681526013909152604090819020905161117e9088906122ce565b908152604080516020928190038301812033600090815290845282812085518155858501516001820155948301516002909501805460ff1916951515959095179094556004546001600160801b03168452600e909252909120906111e39087906122ce565b90815260408051918290036020908101832080546001810182556000918252828220018890556004546001600160801b03168152600f90915220906112299087906122ce565b908152604051602091819003820181208054600181018255600091825290839020018054336001600160a01b03199091168117909155868252917f10fe2ed8f3daa306f14de54294a550f0f7dec5e7138f0cf277eac43bc95aab6f910160405180910390a25050505050565b600080600683815481106112ab576112ab612469565b9060005260206000200160009054906101000a90046001600160a01b031690506000816001600160a01b031663feaf968c6040518163ffffffff1660e01b815260040160a060405180830381865afa15801561130b573d6000803e3d6000fd5b505050506040513d601f19601f8201168201806040525081019061132f91906123d9565b5091979650505050505050565b6000546001600160a01b031633146113665760405162461bcd60e51b81526004016108139061238a565b6001600160a01b0381166113cb5760405162461bcd60e51b815260206004820152602660248201527f4f776e61626c653a206e6577206f776e657220697320746865207a65726f206160448201526564647265737360d01b6064820152608401610813565b6113d481611ab7565b50565b60005b6006548110156113d4576113ed81611295565b6004546001600160801b03166000908152600860205260409020600580548490811061141b5761141b612469565b906000526020600020016040516114329190612505565b908152604051908190036020019020558061144c8161247f565b9150506113da565b6004546001600160801b031660005b60055460ff821610156118cb576001600160801b0382166000908152600f602052604090206005805460ff841690811061149f5761149f612469565b906000526020600020016040516114b69190612505565b908152602001604051809103902080549050600e6000846001600160801b0316815260200190815260200160002060058360ff16815481106114fa576114fa612469565b906000526020600020016040516115119190612505565b908152604051908190036020019020541461152b57600080fd5b60005b6001600160801b0383166000908152600e602052604090206005805460ff851690811061155d5761155d612469565b906000526020600020016040516115749190612505565b9081526040519081900360200190205460ff821610156118b8576001600160801b03831660009081526008602052604090206005805460ff85169081106115bd576115bd612469565b906000526020600020016040516115d49190612505565b908152602001604051809103902054600e6000856001600160801b0316815260200190815260200160002060058460ff168154811061161557611615612469565b9060005260206000200160405161162c9190612505565b90815260200160405180910390208260ff168154811061164e5761164e612469565b90600052602060002001541461166357600080fd5b6001600160801b03831660009081526012602052604090206005805460ff851690811061169257611692612469565b906000526020600020016040516116a99190612505565b9081526020016040518091039020600f6000856001600160801b0316815260200190815260200160002060058460ff16815481106116e9576116e9612469565b906000526020600020016040516117009190612505565b90815260200160405180910390208260ff168154811061172257611722612469565b60009182526020808320909101548354600181810186559484528284200180546001600160a01b0319166001600160a01b039092169190911790556001600160801b0386168252600d9052604090206005805460ff861690811061178857611788612469565b9060005260206000200160405161179f9190612505565b908152602001604051809103902060008282546117bc9190612429565b90915550506003546001600160801b0384166000908152600f60205260409020600580546001600160a01b0390931692638ebfa8ae92919060ff871690811061180757611807612469565b9060005260206000200160405161181e9190612505565b90815260200160405180910390208360ff168154811061184057611840612469565b60009182526020909120015460405160e083901b6001600160e01b03191681526001600160a01b039091166004820152602401600060405180830381600087803b15801561188d57600080fd5b505af11580156118a1573d6000803e3d6000fd5b5050505080806118b0906125a1565b91505061152e565b50806118c3816125a1565b915050611463565b5050565b6004546009906000906118ed906001906001600160801b0316612441565b6001600160801b031681526020019081526020016000205461fd206119129190612429565b61191a61086e565b1161192457600080fd5b60005b6005546001600160801b03821610156113d4576004546001600160801b039081166000908152600c6020526040812060058054929360649390861690811061197157611971612469565b906000526020600020016040516119889190612505565b908152602001604051809103902054600a6119a39190612300565b6119ad919061231f565b600a5460025460405163095ea7b360e01b81526001600160a01b03918216600482015260248101849052929350169063095ea7b3906044016020604051808303816000875af1158015611a04573d6000803e3d6000fd5b505050506040513d601f19601f82011682018060405250810190611a289190612341565b50600254600a5460035460405163e8eda9df60e01b81526001600160a01b0392831660048201526024810185905290821660448201526000606482015291169063e8eda9df90608401600060405180830381600087803b158015611a8b57600080fd5b505af1158015611a9f573d6000803e3d6000fd5b50505050508080611aaf90612363565b915050611927565b600080546001600160a01b038381166001600160a01b0319831681178455604051919092169283917f8be0079c531659141344cd1fd0a4f28419497f9722a3daafe3b4186f6b6457e09190a35050565b604080516001600160a01b0385811660248301528481166044830152606480830185905283518084039091018152608490920183526020820180516001600160e01b03166323b872dd60e01b1790529151600092839290881691611b6b91906122ce565b6000604051808303816000865af19150503d8060008114611ba8576040519150601f19603f3d011682016040523d82523d6000602084013e611bad565b606091505b5091509150818015611bd7575080511580611bd7575080806020019051810190611bd79190612341565b611c095760405162461bcd60e51b815260206004820152600360248201526229aa2360e91b6044820152606401610813565b505050505050565b604080516001600160a01b038481166024830152604480830185905283518084039091018152606490920183526020820180516001600160e01b031663095ea7b360e01b1790529151600092839290871691611c6d91906122ce565b6000604051808303816000865af19150503d8060008114611caa576040519150601f19603f3d011682016040523d82523d6000602084013e611caf565b606091505b5091509150818015611cd9575080511580611cd9575080806020019051810190611cd99190612341565b611d0a5760405162461bcd60e51b8152602060048201526002602482015261534160f01b6044820152606401610813565b5050505050565b604080516001600160a01b038481166024830152604480830185905283518084039091018152606490920183526020820180516001600160e01b031663a9059cbb60e01b1790529151600092839290871691611d6d91906122ce565b6000604051808303816000865af19150503d8060008114611daa576040519150601f19603f3d011682016040523d82523d6000602084013e611daf565b606091505b5091509150818015611dd9575080511580611dd9575080806020019051810190611dd99190612341565b611d0a5760405162461bcd60e51b815260206004820152600260248201526114d560f21b6044820152606401610813565b828054611e16906124ca565b90600052602060002090601f016020900481019282611e385760008555611e7e565b82601f10611e5157805160ff1916838001178555611e7e565b82800160010185558215611e7e579182015b82811115611e7e578251825591602001919060010190611e63565b50611e8a929150611e8e565b5090565b5b80821115611e8a5760008155600101611e8f565b80356001600160a01b0381168114611eba57600080fd5b919050565b600060208284031215611ed157600080fd5b611eda82611ea3565b9392505050565b80356001600160801b0381168114611eba57600080fd5b634e487b7160e01b600052604160045260246000fd5b600082601f830112611f1f57600080fd5b813567ffffffffffffffff80821115611f3a57611f3a611ef8565b604051601f8301601f19908116603f01168101908282118183101715611f6257611f62611ef8565b81604052838152866020858801011115611f7b57600080fd5b836020870160208301376000602085830101528094505050505092915050565b60008060408385031215611fae57600080fd5b611fb783611ee1565b9150602083013567ffffffffffffffff811115611fd357600080fd5b611fdf85828601611f0e565b9150509250929050565b60008060208385031215611ffc57600080fd5b823567ffffffffffffffff8082111561201457600080fd5b818501915085601f83011261202857600080fd5b81358181111561203757600080fd5b86602082850101111561204957600080fd5b60209290920196919550909350505050565b60008060006060848603121561207057600080fd5b61207984611ee1565b9250602084013567ffffffffffffffff81111561209557600080fd5b6120a186828701611f0e565b925050604084013590509250925092565b6000602082840312156120c457600080fd5b5035919050565b6000806000606084860312156120e057600080fd5b83359250602084013567ffffffffffffffff81111561209557600080fd5b6000806040838503121561211157600080fd5b82359150602083013567ffffffffffffffff811115611fd357600080fd5b60005b8381101561214a578181015183820152602001612132565b838111156106eb5750506000910152565b8215158152604060208201526000825180604084015261218281606085016020870161212f565b601f01601f1916919091016060019392505050565b600080604083850312156121aa57600080fd5b823567ffffffffffffffff8111156121c157600080fd5b6121cd85828601611f0e565b9250506121dc60208401611ea3565b90509250929050565b6000806000606084860312156121fa57600080fd5b61220384611ee1565b9250602084013567ffffffffffffffff81111561221f57600080fd5b61222b86828701611f0e565b92505061223a60408501611ea3565b90509250925092565b60008060006060848603121561225857600080fd5b833567ffffffffffffffff81111561226f57600080fd5b61227b86828701611f0e565b9350506020840135915061223a60408501611ea3565b6000602082840312156122a357600080fd5b813567ffffffffffffffff8111156122ba57600080fd5b6122c684828501611f0e565b949350505050565b600082516122e081846020870161212f565b9190910192915050565b634e487b7160e01b600052601160045260246000fd5b600081600019048311821515161561231a5761231a6122ea565b500290565b60008261233c57634e487b7160e01b600052601260045260246000fd5b500490565b60006020828403121561235357600080fd5b81518015158114611eda57600080fd5b60006001600160801b0380831681811415612380576123806122ea565b6001019392505050565b6020808252818101527f4f776e61626c653a2063616c6c6572206973206e6f7420746865206f776e6572604082015260600190565b805169ffffffffffffffffffff81168114611eba57600080fd5b600080600080600060a086880312156123f157600080fd5b6123fa866123bf565b945060208601519350604086015192506060860151915061241d608087016123bf565b90509295509295909350565b6000821982111561243c5761243c6122ea565b500190565b60006001600160801b0383811690831681811015612461576124616122ea565b039392505050565b634e487b7160e01b600052603260045260246000fd5b6000600019821415612493576124936122ea565b5060010190565b6000602082840312156124ac57600080fd5b5051919050565b6000828210156124c5576124c56122ea565b500390565b600181811c908216806124de57607f821691505b602082108114156124ff57634e487b7160e01b600052602260045260246000fd5b50919050565b600080835481600182811c91508083168061252157607f831692505b602080841082141561254157634e487b7160e01b86526022600452602486fd5b818015612555576001811461256657612593565b60ff19861689528489019650612593565b60008a81526020902060005b8681101561258b5781548b820152908501908301612572565b505084890196505b509498975050505050505050565b600060ff821660ff8114156125b8576125b86122ea565b6001019291505056fea264697066735822122070284fb69669c3094ec3b3fbf4f58ed07d68ee6e3a8b8e826323bce94d11edc464736f6c634300080b0033",
  "bytecodeSha1": "8fbd8480f6ca3394429b358f0b229bd5d6f42c1c",
  "compiler": {
    "evm_version": "istanbul",
    "optimizer": {
      "enabled": true,
      "runs": 200
    },
    "version": "0.8.11+commit.d7f03943"
  },
  "contractName": "DailyRocket",
  "language": "Solidity",
  "natspec": {
    "kind": "dev",
    "methods": {
      "checkUpkeep(bytes)": {
        "notice": "checks if the contract requires work to be done.",
        "params": {
          "checkData": "data passed to the contract when checking for upkeep."
        },
        "returns": {
          "performData": "bytes that the keeper should call performUpkeep with, if upkeep is needed.",
          "upkeepNeeded": "boolean to indicate whether the keeper should call performUpkeep or not."
        }
      },
      "owner()": {
        "details": "Returns the address of the current owner."
      },
      "performUpkeep(bytes)": {
        "notice": "Performs work on the contract. Executed by the keepers, via the registry.",
        "params": {
          "performData": "is the data which was passed back from the checkData simulation."
        }
      },
      "renounceOwnership()": {
        "details": "Leaves the contract without owner. It will not be possible to call `onlyOwner` functions anymore. Can only be called by the current owner. NOTE: Renouncing ownership will leave the contract without an owner, thereby removing any functionality that is only available to the owner."
      },
      "transferOwnership(address)": {
        "details": "Transfers ownership of the contract to a new account (`newOwner`). Can only be called by the current owner."
      }
    },
    "version": 1
  },
  "opcodes": "PUSH1 0x80 PUSH1 0x40 MSTORE CALLVALUE DUP1 ISZERO PUSH2 0x10 JUMPI PUSH1 0x0 DUP1 REVERT JUMPDEST POP PUSH1 0x4 CALLDATASIZE LT PUSH2 0x18E JUMPI PUSH1 0x0 CALLDATALOAD PUSH1 0xE0 SHR DUP1 PUSH4 0x715018A6 GT PUSH2 0xDE JUMPI DUP1 PUSH4 0xBE331A64 GT PUSH2 0x97 JUMPI DUP1 PUSH4 0xE7572230 GT PUSH2 0x71 JUMPI DUP1 PUSH4 0xE7572230 EQ PUSH2 0x47F JUMPI DUP1 PUSH4 0xEC6F4F41 EQ PUSH2 0x492 JUMPI DUP1 PUSH4 0xF2FDE38B EQ PUSH2 0x4C0 JUMPI DUP1 PUSH4 0xFD2FAA68 EQ PUSH2 0x4D3 JUMPI PUSH1 0x0 DUP1 REVERT JUMPDEST DUP1 PUSH4 0xBE331A64 EQ PUSH2 0x3D4 JUMPI DUP1 PUSH4 0xC2ABA3F0 EQ PUSH2 0x3E7 JUMPI DUP1 PUSH4 0xC31C9C07 EQ PUSH2 0x458 JUMPI PUSH1 0x0 DUP1 REVERT JUMPDEST DUP1 PUSH4 0x715018A6 EQ PUSH2 0x336 JUMPI DUP1 PUSH4 0x80F79702 EQ PUSH2 0x33E JUMPI DUP1 PUSH4 0x81688C64 EQ PUSH2 0x37A JUMPI DUP1 PUSH4 0x85AFA270 EQ PUSH2 0x38D JUMPI DUP1 PUSH4 0x8DA5CB5B EQ PUSH2 0x3B0 JUMPI DUP1 PUSH4 0xAFA3A617 EQ PUSH2 0x3C1 JUMPI PUSH1 0x0 DUP1 REVERT JUMPDEST DUP1 PUSH4 0x47CE529A GT PUSH2 0x14B JUMPI DUP1 PUSH4 0x557ED1BA GT PUSH2 0x125 JUMPI DUP1 PUSH4 0x557ED1BA EQ PUSH2 0x2BE JUMPI DUP1 PUSH4 0x5F90F0B7 EQ PUSH2 0x2C6 JUMPI DUP1 PUSH4 0x63168475 EQ PUSH2 0x2D9 JUMPI DUP1 PUSH4 0x6E04FF0D EQ PUSH2 0x315 JUMPI PUSH1 0x0 DUP1 REVERT JUMPDEST DUP1 PUSH4 0x47CE529A EQ PUSH2 0x26D JUMPI DUP1 PUSH4 0x4A128671 EQ PUSH2 0x298 JUMPI DUP1 PUSH4 0x4A7DC8E0 EQ PUSH2 0x2AB JUMPI PUSH1 0x0 DUP1 REVERT JUMPDEST DUP1 PUSH4 0x89FE6AA EQ PUSH2 0x193 JUMPI DUP1 PUSH4 0xC3D5157 EQ PUSH2 0x1B5 JUMPI DUP1 PUSH4 0x126DF02B EQ PUSH2 0x1CC JUMPI DUP1 PUSH4 0x1CC87D88 EQ PUSH2 0x21A JUMPI DUP1 PUSH4 0x266E2A56 EQ PUSH2 0x22F JUMPI DUP1 PUSH4 0x4585E33B EQ PUSH2 0x25A JUMPI JUMPDEST PUSH1 0x0 DUP1 REVERT JUMPDEST PUSH2 0x19C PUSH2 0xBB8 DUP2 JUMP JUMPDEST PUSH1 0x40 MLOAD PUSH3 0xFFFFFF SWAP1 SWAP2 AND DUP2 MSTORE PUSH1 0x20 ADD JUMPDEST PUSH1 0x40 MLOAD DUP1 SWAP2 SUB SWAP1 RETURN JUMPDEST PUSH2 0x1BE PUSH1 0xB SLOAD DUP2 JUMP JUMPDEST PUSH1 0x40 MLOAD SWAP1 DUP2 MSTORE PUSH1 0x20 ADD PUSH2 0x1AC JUMP JUMPDEST PUSH2 0x1FA PUSH2 0x1DA CALLDATASIZE PUSH1 0x4 PUSH2 0x1EBF JUMP JUMPDEST PUSH1 0x10 PUSH1 0x20 MSTORE PUSH1 0x0 SWAP1 DUP2 MSTORE PUSH1 0x40 SWAP1 KECCAK256 DUP1 SLOAD PUSH1 0x1 SWAP1 SWAP2 ADD SLOAD PUSH1 0xC0 SWAP2 SWAP1 SWAP2 SHL SWAP1 DUP3 JUMP JUMPDEST PUSH1 0x40 DUP1 MLOAD PUSH1 0x1 PUSH1 0x1 PUSH1 0xC0 SHL SUB NOT SWAP1 SWAP4 AND DUP4 MSTORE PUSH1 0x20 DUP4 ADD SWAP2 SWAP1 SWAP2 MSTORE ADD PUSH2 0x1AC JUMP JUMPDEST PUSH2 0x22D PUSH2 0x228 CALLDATASIZE PUSH1 0x4 PUSH2 0x1F9B JUMP JUMPDEST PUSH2 0x4E6 JUMP JUMPDEST STOP JUMPDEST PUSH1 0x4 SLOAD PUSH2 0x242 SWAP1 PUSH1 0x1 PUSH1 0x1 PUSH1 0x80 SHL SUB AND DUP2 JUMP JUMPDEST PUSH1 0x40 MLOAD PUSH1 0x1 PUSH1 0x1 PUSH1 0x80 SHL SUB SWAP1 SWAP2 AND DUP2 MSTORE PUSH1 0x20 ADD PUSH2 0x1AC JUMP JUMPDEST PUSH2 0x22D PUSH2 0x268 CALLDATASIZE PUSH1 0x4 PUSH2 0x1FE9 JUMP JUMPDEST PUSH2 0x6F1 JUMP JUMPDEST PUSH2 0x280 PUSH2 0x27B CALLDATASIZE PUSH1 0x4 PUSH2 0x205B JUMP JUMPDEST PUSH2 0x76B JUMP JUMPDEST PUSH1 0x40 MLOAD PUSH1 0x1 PUSH1 0x1 PUSH1 0xA0 SHL SUB SWAP1 SWAP2 AND DUP2 MSTORE PUSH1 0x20 ADD PUSH2 0x1AC JUMP JUMPDEST PUSH2 0x280 PUSH2 0x2A6 CALLDATASIZE PUSH1 0x4 PUSH2 0x20B2 JUMP JUMPDEST PUSH2 0x7BF JUMP JUMPDEST PUSH2 0x22D PUSH2 0x2B9 CALLDATASIZE PUSH1 0x4 PUSH2 0x1EBF JUMP JUMPDEST PUSH2 0x7E9 JUMP JUMPDEST PUSH2 0x1BE PUSH2 0x86E JUMP JUMPDEST PUSH2 0x280 PUSH2 0x2D4 CALLDATASIZE PUSH1 0x4 PUSH2 0x20CB JUMP JUMPDEST PUSH2 0x8F7 JUMP JUMPDEST PUSH2 0x1BE PUSH2 0x2E7 CALLDATASIZE PUSH1 0x4 PUSH2 0x20FE JUMP JUMPDEST PUSH1 0xD PUSH1 0x20 SWAP1 DUP2 MSTORE PUSH1 0x0 SWAP3 DUP4 MSTORE PUSH1 0x40 SWAP1 SWAP3 KECCAK256 DUP2 MLOAD DUP1 DUP4 ADD DUP5 ADD DUP1 MLOAD SWAP3 DUP2 MSTORE SWAP1 DUP5 ADD SWAP3 SWAP1 SWAP4 ADD SWAP2 SWAP1 SWAP2 KECCAK256 SWAP2 MSTORE SLOAD DUP2 JUMP JUMPDEST PUSH2 0x328 PUSH2 0x323 CALLDATASIZE PUSH1 0x4 PUSH2 0x1FE9 JUMP JUMPDEST PUSH2 0x92E JUMP JUMPDEST PUSH1 0x40 MLOAD PUSH2 0x1AC SWAP3 SWAP2 SWAP1 PUSH2 0x215B JUMP JUMPDEST PUSH2 0x22D PUSH2 0xA3E JUMP JUMPDEST PUSH2 0x1BE PUSH2 0x34C CALLDATASIZE PUSH1 0x4 PUSH2 0x20FE JUMP JUMPDEST PUSH1 0xC PUSH1 0x20 SWAP1 DUP2 MSTORE PUSH1 0x0 SWAP3 DUP4 MSTORE PUSH1 0x40 SWAP1 SWAP3 KECCAK256 DUP2 MLOAD DUP1 DUP4 ADD DUP5 ADD DUP1 MLOAD SWAP3 DUP2 MSTORE SWAP1 DUP5 ADD SWAP3 SWAP1 SWAP4 ADD SWAP2 SWAP1 SWAP2 KECCAK256 SWAP2 MSTORE SLOAD DUP2 JUMP JUMPDEST PUSH2 0x22D PUSH2 0x388 CALLDATASIZE PUSH1 0x4 PUSH2 0x2197 JUMP JUMPDEST PUSH2 0xA74 JUMP JUMPDEST PUSH2 0x3A0 PUSH2 0x39B CALLDATASIZE PUSH1 0x4 PUSH2 0x21E5 JUMP JUMPDEST PUSH2 0xB63 JUMP JUMPDEST PUSH1 0x40 MLOAD SWAP1 ISZERO ISZERO DUP2 MSTORE PUSH1 0x20 ADD PUSH2 0x1AC JUMP JUMPDEST PUSH1 0x0 SLOAD PUSH1 0x1 PUSH1 0x1 PUSH1 0xA0 SHL SUB AND PUSH2 0x280 JUMP JUMPDEST PUSH2 0x1BE PUSH2 0x3CF CALLDATASIZE PUSH1 0x4 PUSH2 0x20CB JUMP JUMPDEST PUSH2 0xC47 JUMP JUMPDEST PUSH2 0x22D PUSH2 0x3E2 CALLDATASIZE PUSH1 0x4 PUSH2 0x2243 JUMP JUMPDEST PUSH2 0xC94 JUMP JUMPDEST PUSH2 0x43B PUSH2 0x3F5 CALLDATASIZE PUSH1 0x4 PUSH2 0x21E5 JUMP JUMPDEST PUSH1 0x13 PUSH1 0x20 SWAP1 DUP2 MSTORE PUSH1 0x0 SWAP4 DUP5 MSTORE PUSH1 0x40 DUP1 DUP6 KECCAK256 DUP5 MLOAD DUP1 DUP7 ADD DUP5 ADD DUP1 MLOAD SWAP3 DUP2 MSTORE SWAP1 DUP5 ADD SWAP6 DUP5 ADD SWAP6 SWAP1 SWAP6 KECCAK256 SWAP5 MSTORE SWAP3 SWAP1 MSTORE DUP3 MSTORE SWAP1 KECCAK256 DUP1 SLOAD PUSH1 0x1 DUP3 ADD SLOAD PUSH1 0x2 SWAP1 SWAP3 ADD SLOAD SWAP1 SWAP2 SWAP1 PUSH1 0xFF AND DUP4 JUMP JUMPDEST PUSH1 0x40 DUP1 MLOAD SWAP4 DUP5 MSTORE PUSH1 0x20 DUP5 ADD SWAP3 SWAP1 SWAP3 MSTORE ISZERO ISZERO SWAP1 DUP3 ADD MSTORE PUSH1 0x60 ADD PUSH2 0x1AC JUMP JUMPDEST PUSH2 0x280 PUSH32 0x0 DUP2 JUMP JUMPDEST PUSH2 0x1BE PUSH2 0x48D CALLDATASIZE PUSH1 0x4 PUSH2 0x20B2 JUMP JUMPDEST PUSH2 0x1295 JUMP JUMPDEST PUSH2 0x3A0 PUSH2 0x4A0 CALLDATASIZE PUSH1 0x4 PUSH2 0x2291 JUMP JUMPDEST DUP1 MLOAD PUSH1 0x20 DUP2 DUP4 ADD DUP2 ADD DUP1 MLOAD PUSH1 0x7 DUP3 MSTORE SWAP3 DUP3 ADD SWAP2 SWAP1 SWAP4 ADD KECCAK256 SWAP2 MSTORE SLOAD PUSH1 0xFF AND DUP2 JUMP JUMPDEST PUSH2 0x22D PUSH2 0x4CE CALLDATASIZE PUSH1 0x4 PUSH2 0x1EBF JUMP JUMPDEST PUSH2 0x133C JUMP JUMPDEST PUSH1 0x3 SLOAD PUSH2 0x280 SWAP1 PUSH1 0x1 PUSH1 0x1 PUSH1 0xA0 SHL SUB AND DUP2 JUMP JUMPDEST PUSH1 0x1 PUSH1 0x1 PUSH1 0x80 SHL SUB DUP3 AND PUSH1 0x0 SWAP1 DUP2 MSTORE PUSH1 0x8 PUSH1 0x20 MSTORE PUSH1 0x40 SWAP1 DUP2 SWAP1 KECCAK256 SWAP1 MLOAD PUSH2 0x50D SWAP1 DUP4 SWAP1 PUSH2 0x22CE JUMP JUMPDEST SWAP1 DUP2 MSTORE PUSH1 0x20 ADD PUSH1 0x40 MLOAD DUP1 SWAP2 SUB SWAP1 KECCAK256 SLOAD PUSH1 0x13 PUSH1 0x0 DUP5 PUSH1 0x1 PUSH1 0x1 PUSH1 0x80 SHL SUB AND PUSH1 0x1 PUSH1 0x1 PUSH1 0x80 SHL SUB AND DUP2 MSTORE PUSH1 0x20 ADD SWAP1 DUP2 MSTORE PUSH1 0x20 ADD PUSH1 0x0 KECCAK256 DUP3 PUSH1 0x40 MLOAD PUSH2 0x54F SWAP2 SWAP1 PUSH2 0x22CE JUMP JUMPDEST SWAP1 DUP2 MSTORE PUSH1 0x40 DUP1 MLOAD PUSH1 0x20 SWAP3 DUP2 SWAP1 SUB DUP4 ADD SWAP1 KECCAK256 CALLER PUSH1 0x0 SWAP1 DUP2 MSTORE SWAP3 MSTORE SWAP1 KECCAK256 SLOAD EQ PUSH2 0x575 JUMPI PUSH1 0x0 DUP1 REVERT JUMPDEST PUSH1 0x1 PUSH1 0x1 PUSH1 0x80 SHL SUB DUP3 AND PUSH1 0x0 SWAP1 DUP2 MSTORE PUSH1 0xD PUSH1 0x20 MSTORE PUSH1 0x40 DUP1 DUP3 KECCAK256 SWAP1 MLOAD PUSH2 0x59B SWAP1 DUP5 SWAP1 PUSH2 0x22CE JUMP JUMPDEST SWAP1 DUP2 MSTORE PUSH1 0x20 ADD PUSH1 0x40 MLOAD DUP1 SWAP2 SUB SWAP1 KECCAK256 SLOAD SWAP1 POP PUSH1 0x1 PUSH1 0x13 PUSH1 0x0 DUP6 PUSH1 0x1 PUSH1 0x1 PUSH1 0x80 SHL SUB AND PUSH1 0x1 PUSH1 0x1 PUSH1 0x80 SHL SUB AND DUP2 MSTORE PUSH1 0x20 ADD SWAP1 DUP2 MSTORE PUSH1 0x20 ADD PUSH1 0x0 KECCAK256 DUP4 PUSH1 0x40 MLOAD PUSH2 0x5E1 SWAP2 SWAP1 PUSH2 0x22CE JUMP JUMPDEST SWAP1 DUP2 MSTORE PUSH1 0x40 DUP1 MLOAD PUSH1 0x20 SWAP3 DUP2 SWAP1 SUB DUP4 ADD DUP2 KECCAK256 CALLER PUSH1 0x0 DUP2 DUP2 MSTORE SWAP2 DUP6 MSTORE DUP4 DUP3 KECCAK256 PUSH1 0x2 ADD DUP1 SLOAD PUSH1 0xFF NOT AND SWAP7 ISZERO ISZERO SWAP7 SWAP1 SWAP7 OR SWAP1 SWAP6 SSTORE PUSH1 0xA SLOAD PUSH1 0x1 PUSH1 0x1 PUSH1 0x80 SHL SUB DUP10 AND DUP3 MSTORE PUSH1 0xC SWAP1 SWAP5 MSTORE SWAP2 SWAP1 SWAP2 KECCAK256 PUSH1 0x1 PUSH1 0x1 PUSH1 0xA0 SHL SUB SWAP1 SWAP3 AND SWAP3 PUSH4 0xA9059CBB SWAP3 SWAP1 SWAP2 DUP6 SWAP2 PUSH1 0x64 SWAP2 PUSH2 0x64D SWAP1 DUP10 SWAP1 PUSH2 0x22CE JUMP JUMPDEST SWAP1 DUP2 MSTORE PUSH1 0x20 ADD PUSH1 0x40 MLOAD DUP1 SWAP2 SUB SWAP1 KECCAK256 SLOAD PUSH1 0x5A PUSH2 0x668 SWAP2 SWAP1 PUSH2 0x2300 JUMP JUMPDEST PUSH2 0x672 SWAP2 SWAP1 PUSH2 0x231F JUMP JUMPDEST PUSH2 0x67C SWAP2 SWAP1 PUSH2 0x231F JUMP JUMPDEST PUSH1 0x40 MLOAD PUSH1 0x1 PUSH1 0x1 PUSH1 0xE0 SHL SUB NOT PUSH1 0xE0 DUP6 SWAP1 SHL AND DUP2 MSTORE PUSH1 0x1 PUSH1 0x1 PUSH1 0xA0 SHL SUB SWAP1 SWAP3 AND PUSH1 0x4 DUP4 ADD MSTORE PUSH1 0x24 DUP3 ADD MSTORE PUSH1 0x44 ADD PUSH1 0x20 PUSH1 0x40 MLOAD DUP1 DUP4 SUB DUP2 PUSH1 0x0 DUP8 GAS CALL ISZERO DUP1 ISZERO PUSH2 0x6C7 JUMPI RETURNDATASIZE PUSH1 0x0 DUP1 RETURNDATACOPY RETURNDATASIZE PUSH1 0x0 REVERT JUMPDEST POP POP POP POP PUSH1 0x40 MLOAD RETURNDATASIZE PUSH1 0x1F NOT PUSH1 0x1F DUP3 ADD AND DUP3 ADD DUP1 PUSH1 0x40 MSTORE POP DUP2 ADD SWAP1 PUSH2 0x6EB SWAP2 SWAP1 PUSH2 0x2341 JUMP JUMPDEST POP POP POP POP JUMP JUMPDEST PUSH1 0x0 PUSH2 0x6FF DUP3 DUP5 ADD DUP5 PUSH2 0x20B2 JUMP JUMPDEST SWAP1 POP DUP1 PUSH2 0x755 JUMPI PUSH2 0x70E PUSH2 0x13D7 JUMP JUMPDEST PUSH2 0x716 PUSH2 0x1454 JUMP JUMPDEST PUSH1 0x4 DUP1 SLOAD PUSH1 0x1 PUSH1 0x1 PUSH1 0x80 SHL SUB AND SWAP1 PUSH1 0x0 PUSH2 0x72F DUP4 PUSH2 0x2363 JUMP JUMPDEST SWAP2 SWAP1 PUSH2 0x100 EXP DUP2 SLOAD DUP2 PUSH1 0x1 PUSH1 0x1 PUSH1 0x80 SHL SUB MUL NOT AND SWAP1 DUP4 PUSH1 0x1 PUSH1 0x1 PUSH1 0x80 SHL SUB AND MUL OR SWAP1 SSTORE POP POP JUMPDEST DUP1 PUSH1 0x1 EQ ISZERO PUSH2 0x766 JUMPI PUSH2 0x766 PUSH2 0x18CF JUMP JUMPDEST POP POP POP JUMP JUMPDEST PUSH1 0x12 PUSH1 0x20 SWAP1 DUP2 MSTORE PUSH1 0x0 DUP5 DUP2 MSTORE PUSH1 0x40 SWAP1 KECCAK256 DUP4 MLOAD DUP1 DUP6 ADD DUP4 ADD DUP1 MLOAD SWAP3 DUP2 MSTORE SWAP1 DUP4 ADD SWAP3 DUP6 ADD SWAP3 SWAP1 SWAP3 KECCAK256 SWAP2 MSTORE DUP1 SLOAD DUP3 SWAP1 DUP2 LT PUSH2 0x7A2 JUMPI PUSH1 0x0 DUP1 REVERT JUMPDEST PUSH1 0x0 SWAP2 DUP3 MSTORE PUSH1 0x20 SWAP1 SWAP2 KECCAK256 ADD SLOAD PUSH1 0x1 PUSH1 0x1 PUSH1 0xA0 SHL SUB AND SWAP3 POP DUP4 SWAP2 POP POP JUMP JUMPDEST PUSH1 0x11 DUP2 DUP2 SLOAD DUP2 LT PUSH2 0x7CF JUMPI PUSH1 0x0 DUP1 REVERT JUMPDEST PUSH1 0x0 SWAP2 DUP3 MSTORE PUSH1 0x20 SWAP1 SWAP2 KECCAK256 ADD SLOAD PUSH1 0x1 PUSH1 0x1 PUSH1 0xA0 SHL SUB AND SWAP1 POP DUP2 JUMP JUMPDEST PUSH1 0x0 SLOAD PUSH1 0x1 PUSH1 0x1 PUSH1 0xA0 SHL SUB AND CALLER EQ PUSH2 0x81C JUMPI PUSH1 0x40 MLOAD PUSH3 0x461BCD PUSH1 0xE5 SHL DUP2 MSTORE PUSH1 0x4 ADD PUSH2 0x813 SWAP1 PUSH2 0x238A JUMP JUMPDEST PUSH1 0x40 MLOAD DUP1 SWAP2 SUB SWAP1 REVERT JUMPDEST PUSH1 0x11 DUP1 SLOAD PUSH1 0x1 DUP2 ADD DUP3 SSTORE PUSH1 0x0 SWAP2 SWAP1 SWAP2 MSTORE PUSH32 0x31ECC21A745E3968A04E9570E4425BC18FA8019C68028196B546D1669C200C68 ADD DUP1 SLOAD PUSH1 0x1 PUSH1 0x1 PUSH1 0xA0 SHL SUB NOT AND PUSH1 0x1 PUSH1 0x1 PUSH1 0xA0 SHL SUB SWAP3 SWAP1 SWAP3 AND SWAP2 SWAP1 SWAP2 OR SWAP1 SSTORE JUMP JUMPDEST PUSH1 0x0 DUP1 PUSH20 0x6135B13325BFC4B00278B4ABC5E20BBCE2D6580E SWAP1 POP PUSH1 0x0 DUP2 PUSH1 0x1 PUSH1 0x1 PUSH1 0xA0 SHL SUB AND PUSH4 0xFEAF968C PUSH1 0x40 MLOAD DUP2 PUSH4 0xFFFFFFFF AND PUSH1 0xE0 SHL DUP2 MSTORE PUSH1 0x4 ADD PUSH1 0xA0 PUSH1 0x40 MLOAD DUP1 DUP4 SUB DUP2 DUP7 GAS STATICCALL ISZERO DUP1 ISZERO PUSH2 0x8C8 JUMPI RETURNDATASIZE PUSH1 0x0 DUP1 RETURNDATACOPY RETURNDATASIZE PUSH1 0x0 REVERT JUMPDEST POP POP POP POP PUSH1 0x40 MLOAD RETURNDATASIZE PUSH1 0x1F NOT PUSH1 0x1F DUP3 ADD AND DUP3 ADD DUP1 PUSH1 0x40 MSTORE POP DUP2 ADD SWAP1 PUSH2 0x8EC SWAP2 SWAP1 PUSH2 0x23D9 JUMP JUMPDEST POP SWAP7 SWAP6 POP POP POP POP POP POP JUMP JUMPDEST PUSH1 0xF PUSH1 0x20 SWAP1 DUP2 MSTORE PUSH1 0x0 DUP5 DUP2 MSTORE PUSH1 0x40 SWAP1 KECCAK256 DUP4 MLOAD DUP1 DUP6 ADD DUP4 ADD DUP1 MLOAD SWAP3 DUP2 MSTORE SWAP1 DUP4 ADD SWAP3 DUP6 ADD SWAP3 SWAP1 SWAP3 KECCAK256 SWAP2 MSTORE DUP1 SLOAD DUP3 SWAP1 DUP2 LT PUSH2 0x7A2 JUMPI PUSH1 0x0 DUP1 REVERT JUMPDEST PUSH1 0x0 PUSH1 0x60 PUSH2 0x93A PUSH2 0x86E JUMP JUMPDEST PUSH1 0x4 SLOAD PUSH1 0x1 PUSH1 0x1 PUSH1 0x80 SHL SUB AND PUSH1 0x0 SWAP1 DUP2 MSTORE PUSH1 0x9 PUSH1 0x20 MSTORE PUSH1 0x40 SWAP1 KECCAK256 SLOAD PUSH2 0x962 SWAP1 PUSH3 0x15180 PUSH2 0x2429 JUMP JUMPDEST EQ ISZERO PUSH2 0x993 JUMPI PUSH1 0x40 DUP1 MLOAD PUSH1 0x0 PUSH1 0x20 DUP3 ADD MSTORE PUSH1 0x1 SWAP4 POP DUP4 SWAP2 ADD JUMPDEST PUSH1 0x40 MLOAD PUSH1 0x20 DUP2 DUP4 SUB SUB DUP2 MSTORE SWAP1 PUSH1 0x40 MSTORE SWAP2 POP SWAP2 POP PUSH2 0xA37 JUMP JUMPDEST PUSH1 0x4 SLOAD PUSH1 0x9 SWAP1 PUSH1 0x0 SWAP1 PUSH2 0x9B1 SWAP1 PUSH1 0x1 SWAP1 PUSH1 0x1 PUSH1 0x1 PUSH1 0x80 SHL SUB AND PUSH2 0x2441 JUMP JUMPDEST PUSH1 0x1 PUSH1 0x1 PUSH1 0x80 SHL SUB AND DUP2 MSTORE PUSH1 0x20 ADD SWAP1 DUP2 MSTORE PUSH1 0x20 ADD PUSH1 0x0 KECCAK256 SLOAD PUSH2 0xFD20 PUSH2 0x9D6 SWAP2 SWAP1 PUSH2 0x2429 JUMP JUMPDEST PUSH2 0x9DE PUSH2 0x86E JUMP JUMPDEST GT ISZERO PUSH2 0x9FD JUMPI PUSH1 0x1 SWAP2 POP PUSH1 0x1 DUP1 PUSH1 0x40 MLOAD PUSH1 0x20 ADD PUSH2 0x97B SWAP2 DUP2 MSTORE PUSH1 0x20 ADD SWAP1 JUMP JUMPDEST DUP4 DUP4 DUP1 DUP1 PUSH1 0x1F ADD PUSH1 0x20 DUP1 SWAP2 DIV MUL PUSH1 0x20 ADD PUSH1 0x40 MLOAD SWAP1 DUP2 ADD PUSH1 0x40 MSTORE DUP1 SWAP4 SWAP3 SWAP2 SWAP1 DUP2 DUP2 MSTORE PUSH1 0x20 ADD DUP4 DUP4 DUP1 DUP3 DUP5 CALLDATACOPY PUSH1 0x0 SWAP3 ADD SWAP2 SWAP1 SWAP2 MSTORE POP SWAP3 SWAP4 POP POP POP POP JUMPDEST SWAP3 POP SWAP3 SWAP1 POP JUMP JUMPDEST PUSH1 0x0 SLOAD PUSH1 0x1 PUSH1 0x1 PUSH1 0xA0 SHL SUB AND CALLER EQ PUSH2 0xA68 JUMPI PUSH1 0x40 MLOAD PUSH3 0x461BCD PUSH1 0xE5 SHL DUP2 MSTORE PUSH1 0x4 ADD PUSH2 0x813 SWAP1 PUSH2 0x238A JUMP JUMPDEST PUSH2 0xA72 PUSH1 0x0 PUSH2 0x1AB7 JUMP JUMPDEST JUMP JUMPDEST PUSH1 0x0 SLOAD PUSH1 0x1 PUSH1 0x1 PUSH1 0xA0 SHL SUB AND CALLER EQ PUSH2 0xA9E JUMPI PUSH1 0x40 MLOAD PUSH3 0x461BCD PUSH1 0xE5 SHL DUP2 MSTORE PUSH1 0x4 ADD PUSH2 0x813 SWAP1 PUSH2 0x238A JUMP JUMPDEST PUSH1 0x5 DUP1 SLOAD PUSH1 0x1 DUP2 ADD DUP3 SSTORE PUSH1 0x0 SWAP2 SWAP1 SWAP2 MSTORE DUP3 MLOAD PUSH2 0xAE1 SWAP2 PUSH32 0x36B6384B5ECA791C62761152D0C79BB0604C104A5FB6F4EB0703F3154BB3DB0 ADD SWAP1 PUSH1 0x20 DUP6 ADD SWAP1 PUSH2 0x1E0A JUMP JUMPDEST POP PUSH1 0x6 DUP1 SLOAD PUSH1 0x1 DUP1 DUP3 ADD DUP4 SSTORE PUSH1 0x0 SWAP3 SWAP1 SWAP3 MSTORE PUSH32 0xF652222313E28459528D920B65115C16C04F3EFC82AAEDC97BE59F3F377C0D3F ADD DUP1 SLOAD PUSH1 0x1 PUSH1 0x1 PUSH1 0xA0 SHL SUB NOT AND PUSH1 0x1 PUSH1 0x1 PUSH1 0xA0 SHL SUB DUP5 AND OR SWAP1 SSTORE PUSH1 0x40 MLOAD PUSH1 0x7 SWAP1 PUSH2 0xB3F SWAP1 DUP6 SWAP1 PUSH2 0x22CE JUMP JUMPDEST SWAP1 DUP2 MSTORE PUSH1 0x40 MLOAD SWAP1 DUP2 SWAP1 SUB PUSH1 0x20 ADD SWAP1 KECCAK256 DUP1 SLOAD SWAP2 ISZERO ISZERO PUSH1 0xFF NOT SWAP1 SWAP3 AND SWAP2 SWAP1 SWAP2 OR SWAP1 SSTORE POP POP JUMP JUMPDEST PUSH1 0x1 PUSH1 0x1 PUSH1 0x80 SHL SUB DUP4 AND PUSH1 0x0 SWAP1 DUP2 MSTORE PUSH1 0x8 PUSH1 0x20 MSTORE PUSH1 0x40 DUP1 DUP3 KECCAK256 SWAP1 MLOAD PUSH2 0xB89 SWAP1 DUP6 SWAP1 PUSH2 0x22CE JUMP JUMPDEST SWAP1 DUP2 MSTORE PUSH1 0x20 ADD PUSH1 0x40 MLOAD DUP1 SWAP2 SUB SWAP1 KECCAK256 SLOAD PUSH1 0x0 EQ ISZERO PUSH2 0xBA5 JUMPI PUSH1 0x0 DUP1 REVERT JUMPDEST PUSH1 0x1 PUSH1 0x1 PUSH1 0x80 SHL SUB DUP5 AND PUSH1 0x0 SWAP1 DUP2 MSTORE PUSH1 0x8 PUSH1 0x20 MSTORE PUSH1 0x40 SWAP1 DUP2 SWAP1 KECCAK256 SWAP1 MLOAD PUSH2 0xBCC SWAP1 DUP6 SWAP1 PUSH2 0x22CE JUMP JUMPDEST SWAP1 DUP2 MSTORE PUSH1 0x20 ADD PUSH1 0x40 MLOAD DUP1 SWAP2 SUB SWAP1 KECCAK256 SLOAD PUSH1 0x13 PUSH1 0x0 DUP7 PUSH1 0x1 PUSH1 0x1 PUSH1 0x80 SHL SUB AND PUSH1 0x1 PUSH1 0x1 PUSH1 0x80 SHL SUB AND DUP2 MSTORE PUSH1 0x20 ADD SWAP1 DUP2 MSTORE PUSH1 0x20 ADD PUSH1 0x0 KECCAK256 DUP5 PUSH1 0x40 MLOAD PUSH2 0xC0E SWAP2 SWAP1 PUSH2 0x22CE JUMP JUMPDEST SWAP1 DUP2 MSTORE PUSH1 0x40 DUP1 MLOAD PUSH1 0x20 SWAP3 DUP2 SWAP1 SUB DUP4 ADD SWAP1 KECCAK256 PUSH1 0x1 PUSH1 0x1 PUSH1 0xA0 SHL SUB DUP7 AND PUSH1 0x0 SWAP1 DUP2 MSTORE SWAP3 MSTORE SWAP1 KECCAK256 SLOAD EQ PUSH2 0xC3D JUMPI PUSH1 0x0 DUP1 REVERT JUMPDEST POP PUSH1 0x1 SWAP4 SWAP3 POP POP POP JUMP JUMPDEST PUSH1 0xE PUSH1 0x20 SWAP1 DUP2 MSTORE PUSH1 0x0 DUP5 DUP2 MSTORE PUSH1 0x40 SWAP1 KECCAK256 DUP4 MLOAD DUP1 DUP6 ADD DUP4 ADD DUP1 MLOAD SWAP3 DUP2 MSTORE SWAP1 DUP4 ADD SWAP3 DUP6 ADD SWAP3 SWAP1 SWAP3 KECCAK256 SWAP2 MSTORE DUP1 SLOAD DUP3 SWAP1 DUP2 LT PUSH2 0xC7E JUMPI PUSH1 0x0 DUP1 REVERT JUMPDEST SWAP1 PUSH1 0x0 MSTORE PUSH1 0x20 PUSH1 0x0 KECCAK256 ADD PUSH1 0x0 SWAP3 POP SWAP3 POP POP POP SLOAD DUP2 JUMP JUMPDEST DUP1 PUSH1 0x0 JUMPDEST PUSH1 0x5 SLOAD DUP2 LT ISZERO PUSH2 0xCF0 JUMPI DUP2 PUSH1 0x1 PUSH1 0x1 PUSH1 0xA0 SHL SUB AND PUSH1 0x11 DUP3 DUP2 SLOAD DUP2 LT PUSH2 0xCBF JUMPI PUSH2 0xCBF PUSH2 0x2469 JUMP JUMPDEST PUSH1 0x0 SWAP2 DUP3 MSTORE PUSH1 0x20 SWAP1 SWAP2 KECCAK256 ADD SLOAD PUSH1 0x1 PUSH1 0x1 PUSH1 0xA0 SHL SUB AND EQ PUSH2 0xCDE JUMPI PUSH1 0x0 DUP1 REVERT JUMPDEST DUP1 PUSH2 0xCE8 DUP2 PUSH2 0x247F JUMP JUMPDEST SWAP2 POP POP PUSH2 0xC98 JUMP JUMPDEST POP PUSH1 0x7 DUP5 PUSH1 0x40 MLOAD PUSH2 0xD01 SWAP2 SWAP1 PUSH2 0x22CE JUMP JUMPDEST SWAP1 DUP2 MSTORE PUSH1 0x40 MLOAD SWAP1 DUP2 SWAP1 SUB PUSH1 0x20 ADD SWAP1 KECCAK256 SLOAD PUSH1 0xFF AND ISZERO ISZERO PUSH1 0x1 EQ PUSH2 0xD22 JUMPI PUSH1 0x0 DUP1 REVERT JUMPDEST PUSH1 0x4 SLOAD PUSH1 0x1 PUSH1 0x1 PUSH1 0x1 PUSH1 0x80 SHL SUB SWAP1 SWAP2 AND GT ISZERO PUSH2 0xD8E JUMPI PUSH1 0x4 SLOAD PUSH1 0x9 SWAP1 PUSH1 0x0 SWAP1 PUSH2 0xD56 SWAP1 PUSH1 0x1 SWAP1 PUSH1 0x1 PUSH1 0x1 PUSH1 0x80 SHL SUB AND PUSH2 0x2441 JUMP JUMPDEST PUSH1 0x1 PUSH1 0x1 PUSH1 0x80 SHL SUB AND DUP2 MSTORE PUSH1 0x20 ADD SWAP1 DUP2 MSTORE PUSH1 0x20 ADD PUSH1 0x0 KECCAK256 SLOAD PUSH2 0xFD20 PUSH2 0xD7B SWAP2 SWAP1 PUSH2 0x2429 JUMP JUMPDEST PUSH2 0xD83 PUSH2 0x86E JUMP JUMPDEST GT ISZERO PUSH2 0xD8E JUMPI PUSH1 0x0 DUP1 REVERT JUMPDEST PUSH1 0xA SLOAD PUSH8 0x8AC7230489E80000 SWAP1 PUSH1 0x1 PUSH1 0x1 PUSH1 0xA0 SHL SUB DUP5 DUP2 AND SWAP2 AND EQ PUSH2 0xFE9 JUMPI PUSH1 0xA SLOAD PUSH1 0x40 MLOAD PUSH4 0x6EB1769F PUSH1 0xE1 SHL DUP2 MSTORE CALLER PUSH1 0x4 DUP3 ADD MSTORE ADDRESS PUSH1 0x24 DUP3 ADD MSTORE DUP3 SWAP2 PUSH1 0x1 PUSH1 0x1 PUSH1 0xA0 SHL SUB AND SWAP1 PUSH4 0xDD62ED3E SWAP1 PUSH1 0x44 ADD PUSH1 0x20 PUSH1 0x40 MLOAD DUP1 DUP4 SUB DUP2 DUP7 GAS STATICCALL ISZERO DUP1 ISZERO PUSH2 0xDFB JUMPI RETURNDATASIZE PUSH1 0x0 DUP1 RETURNDATACOPY RETURNDATASIZE PUSH1 0x0 REVERT JUMPDEST POP POP POP POP PUSH1 0x40 MLOAD RETURNDATASIZE PUSH1 0x1F NOT PUSH1 0x1F DUP3 ADD AND DUP3 ADD DUP1 PUSH1 0x40 MSTORE POP DUP2 ADD SWAP1 PUSH2 0xE1F SWAP2 SWAP1 PUSH2 0x249A JUMP JUMPDEST LT ISZERO PUSH2 0xE2A JUMPI PUSH1 0x0 DUP1 REVERT JUMPDEST PUSH2 0xE36 DUP4 CALLER ADDRESS DUP5 PUSH2 0x1B07 JUMP JUMPDEST PUSH2 0xE61 DUP4 PUSH32 0x0 DUP4 PUSH2 0x1C11 JUMP JUMPDEST PUSH1 0x40 DUP1 MLOAD PUSH2 0x100 DUP2 ADD DUP3 MSTORE PUSH1 0x1 PUSH1 0x1 PUSH1 0xA0 SHL SUB DUP6 DUP2 AND DUP3 MSTORE PUSH1 0xA SLOAD DUP2 AND PUSH1 0x20 DUP4 ADD SWAP1 DUP2 MSTORE PUSH2 0xBB8 DUP4 DUP6 ADD SWAP1 DUP2 MSTORE ADDRESS PUSH1 0x60 DUP6 ADD SWAP1 DUP2 MSTORE TIMESTAMP PUSH1 0x80 DUP7 ADD SWAP1 DUP2 MSTORE PUSH1 0xA0 DUP7 ADD DUP9 DUP2 MSTORE PUSH8 0xD02AB486CEDC0000 PUSH1 0xC0 DUP9 ADD DUP2 DUP2 MSTORE PUSH1 0x0 PUSH1 0xE0 DUP11 ADD DUP2 DUP2 MSTORE SWAP11 MLOAD PUSH4 0x1B67C433 PUSH1 0xE3 SHL DUP2 MSTORE DUP11 MLOAD DUP11 AND PUSH1 0x4 DUP3 ADD MSTORE SWAP8 MLOAD DUP10 AND PUSH1 0x24 DUP10 ADD MSTORE SWAP6 MLOAD PUSH3 0xFFFFFF AND PUSH1 0x44 DUP9 ADD MSTORE SWAP4 MLOAD DUP8 AND PUSH1 0x64 DUP8 ADD MSTORE SWAP2 MLOAD PUSH1 0x84 DUP7 ADD MSTORE MLOAD PUSH1 0xA4 DUP6 ADD MSTORE SWAP1 MLOAD PUSH1 0xC4 DUP5 ADD MSTORE SWAP5 MLOAD DUP4 AND PUSH1 0xE4 DUP4 ADD MSTORE SWAP2 PUSH32 0x0 AND SWAP1 PUSH4 0xDB3E2198 SWAP1 PUSH2 0x104 ADD PUSH1 0x20 PUSH1 0x40 MLOAD DUP1 DUP4 SUB DUP2 PUSH1 0x0 DUP8 GAS CALL ISZERO DUP1 ISZERO PUSH2 0xF5B JUMPI RETURNDATASIZE PUSH1 0x0 DUP1 RETURNDATACOPY RETURNDATASIZE PUSH1 0x0 REVERT JUMPDEST POP POP POP POP PUSH1 0x40 MLOAD RETURNDATASIZE PUSH1 0x1F NOT PUSH1 0x1F DUP3 ADD AND DUP3 ADD DUP1 PUSH1 0x40 MSTORE POP DUP2 ADD SWAP1 PUSH2 0xF7F SWAP2 SWAP1 PUSH2 0x249A JUMP JUMPDEST SWAP1 POP DUP3 DUP2 LT ISZERO PUSH2 0xFE1 JUMPI PUSH1 0xA SLOAD PUSH2 0xFC1 SWAP1 PUSH1 0x1 PUSH1 0x1 PUSH1 0xA0 SHL SUB AND PUSH32 0x0 PUSH1 0x0 PUSH2 0x1C11 JUMP JUMPDEST PUSH1 0xA SLOAD PUSH2 0xFE1 SWAP1 PUSH1 0x1 PUSH1 0x1 PUSH1 0xA0 SHL SUB AND CALLER PUSH2 0xFDC DUP5 DUP8 PUSH2 0x24B3 JUMP JUMPDEST PUSH2 0x1D11 JUMP JUMPDEST POP POP POP PUSH2 0x10E3 JUMP JUMPDEST PUSH1 0xA SLOAD PUSH1 0x40 MLOAD PUSH4 0x6EB1769F PUSH1 0xE1 SHL DUP2 MSTORE CALLER PUSH1 0x4 DUP3 ADD MSTORE ADDRESS PUSH1 0x24 DUP3 ADD MSTORE DUP3 SWAP2 PUSH1 0x1 PUSH1 0x1 PUSH1 0xA0 SHL SUB AND SWAP1 PUSH4 0xDD62ED3E SWAP1 PUSH1 0x44 ADD PUSH1 0x20 PUSH1 0x40 MLOAD DUP1 DUP4 SUB DUP2 DUP7 GAS STATICCALL ISZERO DUP1 ISZERO PUSH2 0x1037 JUMPI RETURNDATASIZE PUSH1 0x0 DUP1 RETURNDATACOPY RETURNDATASIZE PUSH1 0x0 REVERT JUMPDEST POP POP POP POP PUSH1 0x40 MLOAD RETURNDATASIZE PUSH1 0x1F NOT PUSH1 0x1F DUP3 ADD AND DUP3 ADD DUP1 PUSH1 0x40 MSTORE POP DUP2 ADD SWAP1 PUSH2 0x105B SWAP2 SWAP1 PUSH2 0x249A JUMP JUMPDEST LT ISZERO PUSH2 0x1066 JUMPI PUSH1 0x0 DUP1 REVERT JUMPDEST PUSH1 0xA SLOAD PUSH1 0x40 MLOAD PUSH4 0x23B872DD PUSH1 0xE0 SHL DUP2 MSTORE CALLER PUSH1 0x4 DUP3 ADD MSTORE ADDRESS PUSH1 0x24 DUP3 ADD MSTORE PUSH1 0x44 DUP2 ADD DUP4 SWAP1 MSTORE PUSH1 0x1 PUSH1 0x1 PUSH1 0xA0 SHL SUB SWAP1 SWAP2 AND SWAP1 PUSH4 0x23B872DD SWAP1 PUSH1 0x64 ADD PUSH1 0x20 PUSH1 0x40 MLOAD DUP1 DUP4 SUB DUP2 PUSH1 0x0 DUP8 GAS CALL ISZERO DUP1 ISZERO PUSH2 0x10BD JUMPI RETURNDATASIZE PUSH1 0x0 DUP1 RETURNDATACOPY RETURNDATASIZE PUSH1 0x0 REVERT JUMPDEST POP POP POP POP PUSH1 0x40 MLOAD RETURNDATASIZE PUSH1 0x1F NOT PUSH1 0x1F DUP3 ADD AND DUP3 ADD DUP1 PUSH1 0x40 MSTORE POP DUP2 ADD SWAP1 PUSH2 0x10E1 SWAP2 SWAP1 PUSH2 0x2341 JUMP JUMPDEST POP JUMPDEST PUSH1 0x4 SLOAD PUSH1 0x1 PUSH1 0x1 PUSH1 0x80 SHL SUB AND PUSH1 0x0 SWAP1 DUP2 MSTORE PUSH1 0xC PUSH1 0x20 MSTORE PUSH1 0x40 SWAP1 DUP2 SWAP1 KECCAK256 SWAP1 MLOAD DUP3 SWAP2 SWAP1 PUSH2 0x110F SWAP1 DUP9 SWAP1 PUSH2 0x22CE JUMP JUMPDEST SWAP1 DUP2 MSTORE PUSH1 0x20 ADD PUSH1 0x40 MLOAD DUP1 SWAP2 SUB SWAP1 KECCAK256 PUSH1 0x0 DUP3 DUP3 SLOAD PUSH2 0x112C SWAP2 SWAP1 PUSH2 0x2429 JUMP JUMPDEST SWAP3 POP POP DUP2 SWAP1 SSTORE POP PUSH1 0x40 MLOAD DUP1 PUSH1 0x60 ADD PUSH1 0x40 MSTORE DUP1 DUP6 DUP2 MSTORE PUSH1 0x20 ADD PUSH2 0x114C PUSH2 0x86E JUMP JUMPDEST DUP2 MSTORE PUSH1 0x0 PUSH1 0x20 SWAP2 DUP3 ADD DUP2 SWAP1 MSTORE PUSH1 0x4 SLOAD PUSH1 0x1 PUSH1 0x1 PUSH1 0x80 SHL SUB AND DUP2 MSTORE PUSH1 0x13 SWAP1 SWAP2 MSTORE PUSH1 0x40 SWAP1 DUP2 SWAP1 KECCAK256 SWAP1 MLOAD PUSH2 0x117E SWAP1 DUP9 SWAP1 PUSH2 0x22CE JUMP JUMPDEST SWAP1 DUP2 MSTORE PUSH1 0x40 DUP1 MLOAD PUSH1 0x20 SWAP3 DUP2 SWAP1 SUB DUP4 ADD DUP2 KECCAK256 CALLER PUSH1 0x0 SWAP1 DUP2 MSTORE SWAP1 DUP5 MSTORE DUP3 DUP2 KECCAK256 DUP6 MLOAD DUP2 SSTORE DUP6 DUP6 ADD MLOAD PUSH1 0x1 DUP3 ADD SSTORE SWAP5 DUP4 ADD MLOAD PUSH1 0x2 SWAP1 SWAP6 ADD DUP1 SLOAD PUSH1 0xFF NOT AND SWAP6 ISZERO ISZERO SWAP6 SWAP1 SWAP6 OR SWAP1 SWAP5 SSTORE PUSH1 0x4 SLOAD PUSH1 0x1 PUSH1 0x1 PUSH1 0x80 SHL SUB AND DUP5 MSTORE PUSH1 0xE SWAP1 SWAP3 MSTORE SWAP1 SWAP2 KECCAK256 SWAP1 PUSH2 0x11E3 SWAP1 DUP8 SWAP1 PUSH2 0x22CE JUMP JUMPDEST SWAP1 DUP2 MSTORE PUSH1 0x40 DUP1 MLOAD SWAP2 DUP3 SWAP1 SUB PUSH1 0x20 SWAP1 DUP2 ADD DUP4 KECCAK256 DUP1 SLOAD PUSH1 0x1 DUP2 ADD DUP3 SSTORE PUSH1 0x0 SWAP2 DUP3 MSTORE DUP3 DUP3 KECCAK256 ADD DUP9 SWAP1 SSTORE PUSH1 0x4 SLOAD PUSH1 0x1 PUSH1 0x1 PUSH1 0x80 SHL SUB AND DUP2 MSTORE PUSH1 0xF SWAP1 SWAP2 MSTORE KECCAK256 SWAP1 PUSH2 0x1229 SWAP1 DUP8 SWAP1 PUSH2 0x22CE JUMP JUMPDEST SWAP1 DUP2 MSTORE PUSH1 0x40 MLOAD PUSH1 0x20 SWAP2 DUP2 SWAP1 SUB DUP3 ADD DUP2 KECCAK256 DUP1 SLOAD PUSH1 0x1 DUP2 ADD DUP3 SSTORE PUSH1 0x0 SWAP2 DUP3 MSTORE SWAP1 DUP4 SWAP1 KECCAK256 ADD DUP1 SLOAD CALLER PUSH1 0x1 PUSH1 0x1 PUSH1 0xA0 SHL SUB NOT SWAP1 SWAP2 AND DUP2 OR SWAP1 SWAP2 SSTORE DUP7 DUP3 MSTORE SWAP2 PUSH32 0x10FE2ED8F3DAA306F14DE54294A550F0F7DEC5E7138F0CF277EAC43BC95AAB6F SWAP2 ADD PUSH1 0x40 MLOAD DUP1 SWAP2 SUB SWAP1 LOG2 POP POP POP POP POP JUMP JUMPDEST PUSH1 0x0 DUP1 PUSH1 0x6 DUP4 DUP2 SLOAD DUP2 LT PUSH2 0x12AB JUMPI PUSH2 0x12AB PUSH2 0x2469 JUMP JUMPDEST SWAP1 PUSH1 0x0 MSTORE PUSH1 0x20 PUSH1 0x0 KECCAK256 ADD PUSH1 0x0 SWAP1 SLOAD SWAP1 PUSH2 0x100 EXP SWAP1 DIV PUSH1 0x1 PUSH1 0x1 PUSH1 0xA0 SHL SUB AND SWAP1 POP PUSH1 0x0 DUP2 PUSH1 0x1 PUSH1 0x1 PUSH1 0xA0 SHL SUB AND PUSH4 0xFEAF968C PUSH1 0x40 MLOAD DUP2 PUSH4 0xFFFFFFFF AND PUSH1 0xE0 SHL DUP2 MSTORE PUSH1 0x4 ADD PUSH1 0xA0 PUSH1 0x40 MLOAD DUP1 DUP4 SUB DUP2 DUP7 GAS STATICCALL ISZERO DUP1 ISZERO PUSH2 0x130B JUMPI RETURNDATASIZE PUSH1 0x0 DUP1 RETURNDATACOPY RETURNDATASIZE PUSH1 0x0 REVERT JUMPDEST POP POP POP POP PUSH1 0x40 MLOAD RETURNDATASIZE PUSH1 0x1F NOT PUSH1 0x1F DUP3 ADD AND DUP3 ADD DUP1 PUSH1 0x40 MSTORE POP DUP2 ADD SWAP1 PUSH2 0x132F SWAP2 SWAP1 PUSH2 0x23D9 JUMP JUMPDEST POP SWAP2 SWAP8 SWAP7 POP POP POP POP POP POP POP JUMP JUMPDEST PUSH1 0x0 SLOAD PUSH1 0x1 PUSH1 0x1 PUSH1 0xA0 SHL SUB AND CALLER EQ PUSH2 0x1366 JUMPI PUSH1 0x40 MLOAD PUSH3 0x461BCD PUSH1 0xE5 SHL DUP2 MSTORE PUSH1 0x4 ADD PUSH2 0x813 SWAP1 PUSH2 0x238A JUMP JUMPDEST PUSH1 0x1 PUSH1 0x1 PUSH1 0xA0 SHL SUB DUP2 AND PUSH2 0x13CB JUMPI PUSH1 0x40 MLOAD PUSH3 0x461BCD PUSH1 0xE5 SHL DUP2 MSTORE PUSH1 0x20 PUSH1 0x4 DUP3 ADD MSTORE PUSH1 0x26 PUSH1 0x24 DUP3 ADD MSTORE PUSH32 0x4F776E61626C653A206E6577206F776E657220697320746865207A65726F2061 PUSH1 0x44 DUP3 ADD MSTORE PUSH6 0x646472657373 PUSH1 0xD0 SHL PUSH1 0x64 DUP3 ADD MSTORE PUSH1 0x84 ADD PUSH2 0x813 JUMP JUMPDEST PUSH2 0x13D4 DUP2 PUSH2 0x1AB7 JUMP JUMPDEST POP JUMP JUMPDEST PUSH1 0x0 JUMPDEST PUSH1 0x6 SLOAD DUP2 LT ISZERO PUSH2 0x13D4 JUMPI PUSH2 0x13ED DUP2 PUSH2 0x1295 JUMP JUMPDEST PUSH1 0x4 SLOAD PUSH1 0x1 PUSH1 0x1 PUSH1 0x80 SHL SUB AND PUSH1 0x0 SWAP1 DUP2 MSTORE PUSH1 0x8 PUSH1 0x20 MSTORE PUSH1 0x40 SWAP1 KECCAK256 PUSH1 0x5 DUP1 SLOAD DUP5 SWAP1 DUP2 LT PUSH2 0x141B JUMPI PUSH2 0x141B PUSH2 0x2469 JUMP JUMPDEST SWAP1 PUSH1 0x0 MSTORE PUSH1 0x20 PUSH1 0x0 KECCAK256 ADD PUSH1 0x40 MLOAD PUSH2 0x1432 SWAP2 SWAP1 PUSH2 0x2505 JUMP JUMPDEST SWAP1 DUP2 MSTORE PUSH1 0x40 MLOAD SWAP1 DUP2 SWAP1 SUB PUSH1 0x20 ADD SWAP1 KECCAK256 SSTORE DUP1 PUSH2 0x144C DUP2 PUSH2 0x247F JUMP JUMPDEST SWAP2 POP POP PUSH2 0x13DA JUMP JUMPDEST PUSH1 0x4 SLOAD PUSH1 0x1 PUSH1 0x1 PUSH1 0x80 SHL SUB AND PUSH1 0x0 JUMPDEST PUSH1 0x5 SLOAD PUSH1 0xFF DUP3 AND LT ISZERO PUSH2 0x18CB JUMPI PUSH1 0x1 PUSH1 0x1 PUSH1 0x80 SHL SUB DUP3 AND PUSH1 0x0 SWAP1 DUP2 MSTORE PUSH1 0xF PUSH1 0x20 MSTORE PUSH1 0x40 SWAP1 KECCAK256 PUSH1 0x5 DUP1 SLOAD PUSH1 0xFF DUP5 AND SWAP1 DUP2 LT PUSH2 0x149F JUMPI PUSH2 0x149F PUSH2 0x2469 JUMP JUMPDEST SWAP1 PUSH1 0x0 MSTORE PUSH1 0x20 PUSH1 0x0 KECCAK256 ADD PUSH1 0x40 MLOAD PUSH2 0x14B6 SWAP2 SWAP1 PUSH2 0x2505 JUMP JUMPDEST SWAP1 DUP2 MSTORE PUSH1 0x20 ADD PUSH1 0x40 MLOAD DUP1 SWAP2 SUB SWAP1 KECCAK256 DUP1 SLOAD SWAP1 POP PUSH1 0xE PUSH1 0x0 DUP5 PUSH1 0x1 PUSH1 0x1 PUSH1 0x80 SHL SUB AND DUP2 MSTORE PUSH1 0x20 ADD SWAP1 DUP2 MSTORE PUSH1 0x20 ADD PUSH1 0x0 KECCAK256 PUSH1 0x5 DUP4 PUSH1 0xFF AND DUP2 SLOAD DUP2 LT PUSH2 0x14FA JUMPI PUSH2 0x14FA PUSH2 0x2469 JUMP JUMPDEST SWAP1 PUSH1 0x0 MSTORE PUSH1 0x20 PUSH1 0x0 KECCAK256 ADD PUSH1 0x40 MLOAD PUSH2 0x1511 SWAP2 SWAP1 PUSH2 0x2505 JUMP JUMPDEST SWAP1 DUP2 MSTORE PUSH1 0x40 MLOAD SWAP1 DUP2 SWAP1 SUB PUSH1 0x20 ADD SWAP1 KECCAK256 SLOAD EQ PUSH2 0x152B JUMPI PUSH1 0x0 DUP1 REVERT JUMPDEST PUSH1 0x0 JUMPDEST PUSH1 0x1 PUSH1 0x1 PUSH1 0x80 SHL SUB DUP4 AND PUSH1 0x0 SWAP1 DUP2 MSTORE PUSH1 0xE PUSH1 0x20 MSTORE PUSH1 0x40 SWAP1 KECCAK256 PUSH1 0x5 DUP1 SLOAD PUSH1 0xFF DUP6 AND SWAP1 DUP2 LT PUSH2 0x155D JUMPI PUSH2 0x155D PUSH2 0x2469 JUMP JUMPDEST SWAP1 PUSH1 0x0 MSTORE PUSH1 0x20 PUSH1 0x0 KECCAK256 ADD PUSH1 0x40 MLOAD PUSH2 0x1574 SWAP2 SWAP1 PUSH2 0x2505 JUMP JUMPDEST SWAP1 DUP2 MSTORE PUSH1 0x40 MLOAD SWAP1 DUP2 SWAP1 SUB PUSH1 0x20 ADD SWAP1 KECCAK256 SLOAD PUSH1 0xFF DUP3 AND LT ISZERO PUSH2 0x18B8 JUMPI PUSH1 0x1 PUSH1 0x1 PUSH1 0x80 SHL SUB DUP4 AND PUSH1 0x0 SWAP1 DUP2 MSTORE PUSH1 0x8 PUSH1 0x20 MSTORE PUSH1 0x40 SWAP1 KECCAK256 PUSH1 0x5 DUP1 SLOAD PUSH1 0xFF DUP6 AND SWAP1 DUP2 LT PUSH2 0x15BD JUMPI PUSH2 0x15BD PUSH2 0x2469 JUMP JUMPDEST SWAP1 PUSH1 0x0 MSTORE PUSH1 0x20 PUSH1 0x0 KECCAK256 ADD PUSH1 0x40 MLOAD PUSH2 0x15D4 SWAP2 SWAP1 PUSH2 0x2505 JUMP JUMPDEST SWAP1 DUP2 MSTORE PUSH1 0x20 ADD PUSH1 0x40 MLOAD DUP1 SWAP2 SUB SWAP1 KECCAK256 SLOAD PUSH1 0xE PUSH1 0x0 DUP6 PUSH1 0x1 PUSH1 0x1 PUSH1 0x80 SHL SUB AND DUP2 MSTORE PUSH1 0x20 ADD SWAP1 DUP2 MSTORE PUSH1 0x20 ADD PUSH1 0x0 KECCAK256 PUSH1 0x5 DUP5 PUSH1 0xFF AND DUP2 SLOAD DUP2 LT PUSH2 0x1615 JUMPI PUSH2 0x1615 PUSH2 0x2469 JUMP JUMPDEST SWAP1 PUSH1 0x0 MSTORE PUSH1 0x20 PUSH1 0x0 KECCAK256 ADD PUSH1 0x40 MLOAD PUSH2 0x162C SWAP2 SWAP1 PUSH2 0x2505 JUMP JUMPDEST SWAP1 DUP2 MSTORE PUSH1 0x20 ADD PUSH1 0x40 MLOAD DUP1 SWAP2 SUB SWAP1 KECCAK256 DUP3 PUSH1 0xFF AND DUP2 SLOAD DUP2 LT PUSH2 0x164E JUMPI PUSH2 0x164E PUSH2 0x2469 JUMP JUMPDEST SWAP1 PUSH1 0x0 MSTORE PUSH1 0x20 PUSH1 0x0 KECCAK256 ADD SLOAD EQ PUSH2 0x1663 JUMPI PUSH1 0x0 DUP1 REVERT JUMPDEST PUSH1 0x1 PUSH1 0x1 PUSH1 0x80 SHL SUB DUP4 AND PUSH1 0x0 SWAP1 DUP2 MSTORE PUSH1 0x12 PUSH1 0x20 MSTORE PUSH1 0x40 SWAP1 KECCAK256 PUSH1 0x5 DUP1 SLOAD PUSH1 0xFF DUP6 AND SWAP1 DUP2 LT PUSH2 0x1692 JUMPI PUSH2 0x1692 PUSH2 0x2469 JUMP JUMPDEST SWAP1 PUSH1 0x0 MSTORE PUSH1 0x20 PUSH1 0x0 KECCAK256 ADD PUSH1 0x40 MLOAD PUSH2 0x16A9 SWAP2 SWAP1 PUSH2 0x2505 JUMP JUMPDEST SWAP1 DUP2 MSTORE PUSH1 0x20 ADD PUSH1 0x40 MLOAD DUP1 SWAP2 SUB SWAP1 KECCAK256 PUSH1 0xF PUSH1 0x0 DUP6 PUSH1 0x1 PUSH1 0x1 PUSH1 0x80 SHL SUB AND DUP2 MSTORE PUSH1 0x20 ADD SWAP1 DUP2 MSTORE PUSH1 0x20 ADD PUSH1 0x0 KECCAK256 PUSH1 0x5 DUP5 PUSH1 0xFF AND DUP2 SLOAD DUP2 LT PUSH2 0x16E9 JUMPI PUSH2 0x16E9 PUSH2 0x2469 JUMP JUMPDEST SWAP1 PUSH1 0x0 MSTORE PUSH1 0x20 PUSH1 0x0 KECCAK256 ADD PUSH1 0x40 MLOAD PUSH2 0x1700 SWAP2 SWAP1 PUSH2 0x2505 JUMP JUMPDEST SWAP1 DUP2 MSTORE PUSH1 0x20 ADD PUSH1 0x40 MLOAD DUP1 SWAP2 SUB SWAP1 KECCAK256 DUP3 PUSH1 0xFF AND DUP2 SLOAD DUP2 LT PUSH2 0x1722 JUMPI PUSH2 0x1722 PUSH2 0x2469 JUMP JUMPDEST PUSH1 0x0 SWAP2 DUP3 MSTORE PUSH1 0x20 DUP1 DUP4 KECCAK256 SWAP1 SWAP2 ADD SLOAD DUP4 SLOAD PUSH1 0x1 DUP2 DUP2 ADD DUP7 SSTORE SWAP5 DUP5 MSTORE DUP3 DUP5 KECCAK256 ADD DUP1 SLOAD PUSH1 0x1 PUSH1 0x1 PUSH1 0xA0 SHL SUB NOT AND PUSH1 0x1 PUSH1 0x1 PUSH1 0xA0 SHL SUB SWAP1 SWAP3 AND SWAP2 SWAP1 SWAP2 OR SWAP1 SSTORE PUSH1 0x1 PUSH1 0x1 PUSH1 0x80 SHL SUB DUP7 AND DUP3 MSTORE PUSH1 0xD SWAP1 MSTORE PUSH1 0x40 SWAP1 KECCAK256 PUSH1 0x5 DUP1 SLOAD PUSH1 0xFF DUP7 AND SWAP1 DUP2 LT PUSH2 0x1788 JUMPI PUSH2 0x1788 PUSH2 0x2469 JUMP JUMPDEST SWAP1 PUSH1 0x0 MSTORE PUSH1 0x20 PUSH1 0x0 KECCAK256 ADD PUSH1 0x40 MLOAD PUSH2 0x179F SWAP2 SWAP1 PUSH2 0x2505 JUMP JUMPDEST SWAP1 DUP2 MSTORE PUSH1 0x20 ADD PUSH1 0x40 MLOAD DUP1 SWAP2 SUB SWAP1 KECCAK256 PUSH1 0x0 DUP3 DUP3 SLOAD PUSH2 0x17BC SWAP2 SWAP1 PUSH2 0x2429 JUMP JUMPDEST SWAP1 SWAP2 SSTORE POP POP PUSH1 0x3 SLOAD PUSH1 0x1 PUSH1 0x1 PUSH1 0x80 SHL SUB DUP5 AND PUSH1 0x0 SWAP1 DUP2 MSTORE PUSH1 0xF PUSH1 0x20 MSTORE PUSH1 0x40 SWAP1 KECCAK256 PUSH1 0x5 DUP1 SLOAD PUSH1 0x1 PUSH1 0x1 PUSH1 0xA0 SHL SUB SWAP1 SWAP4 AND SWAP3 PUSH4 0x8EBFA8AE SWAP3 SWAP2 SWAP1 PUSH1 0xFF DUP8 AND SWAP1 DUP2 LT PUSH2 0x1807 JUMPI PUSH2 0x1807 PUSH2 0x2469 JUMP JUMPDEST SWAP1 PUSH1 0x0 MSTORE PUSH1 0x20 PUSH1 0x0 KECCAK256 ADD PUSH1 0x40 MLOAD PUSH2 0x181E SWAP2 SWAP1 PUSH2 0x2505 JUMP JUMPDEST SWAP1 DUP2 MSTORE PUSH1 0x20 ADD PUSH1 0x40 MLOAD DUP1 SWAP2 SUB SWAP1 KECCAK256 DUP4 PUSH1 0xFF AND DUP2 SLOAD DUP2 LT PUSH2 0x1840 JUMPI PUSH2 0x1840 PUSH2 0x2469 JUMP JUMPDEST PUSH1 0x0 SWAP2 DUP3 MSTORE PUSH1 0x20 SWAP1 SWAP2 KECCAK256 ADD SLOAD PUSH1 0x40 MLOAD PUSH1 0xE0 DUP4 SWAP1 SHL PUSH1 0x1 PUSH1 0x1 PUSH1 0xE0 SHL SUB NOT AND DUP2 MSTORE PUSH1 0x1 PUSH1 0x1 PUSH1 0xA0 SHL SUB SWAP1 SWAP2 AND PUSH1 0x4 DUP3 ADD MSTORE PUSH1 0x24 ADD PUSH1 0x0 PUSH1 0x40 MLOAD DUP1 DUP4 SUB DUP2 PUSH1 0x0 DUP8 DUP1 EXTCODESIZE ISZERO DUP1 ISZERO PUSH2 0x188D JUMPI PUSH1 0x0 DUP1 REVERT JUMPDEST POP GAS CALL ISZERO DUP1 ISZERO PUSH2 0x18A1 JUMPI RETURNDATASIZE PUSH1 0x0 DUP1 RETURNDATACOPY RETURNDATASIZE PUSH1 0x0 REVERT JUMPDEST POP POP POP POP DUP1 DUP1 PUSH2 0x18B0 SWAP1 PUSH2 0x25A1 JUMP JUMPDEST SWAP2 POP POP PUSH2 0x152E JUMP JUMPDEST POP DUP1 PUSH2 0x18C3 DUP2 PUSH2 0x25A1 JUMP JUMPDEST SWAP2 POP POP PUSH2 0x1463 JUMP JUMPDEST POP POP JUMP JUMPDEST PUSH1 0x4 SLOAD PUSH1 0x9 SWAP1 PUSH1 0x0 SWAP1 PUSH2 0x18ED SWAP1 PUSH1 0x1 SWAP1 PUSH1 0x1 PUSH1 0x1 PUSH1 0x80 SHL SUB AND PUSH2 0x2441 JUMP JUMPDEST PUSH1 0x1 PUSH1 0x1 PUSH1 0x80 SHL SUB AND DUP2 MSTORE PUSH1 0x20 ADD SWAP1 DUP2 MSTORE PUSH1 0x20 ADD PUSH1 0x0 KECCAK256 SLOAD PUSH2 0xFD20 PUSH2 0x1912 SWAP2 SWAP1 PUSH2 0x2429 JUMP JUMPDEST PUSH2 0x191A PUSH2 0x86E JUMP JUMPDEST GT PUSH2 0x1924 JUMPI PUSH1 0x0 DUP1 REVERT JUMPDEST PUSH1 0x0 JUMPDEST PUSH1 0x5 SLOAD PUSH1 0x1 PUSH1 0x1 PUSH1 0x80 SHL SUB DUP3 AND LT ISZERO PUSH2 0x13D4 JUMPI PUSH1 0x4 SLOAD PUSH1 0x1 PUSH1 0x1 PUSH1 0x80 SHL SUB SWAP1 DUP2 AND PUSH1 0x0 SWAP1 DUP2 MSTORE PUSH1 0xC PUSH1 0x20 MSTORE PUSH1 0x40 DUP2 KECCAK256 PUSH1 0x5 DUP1 SLOAD SWAP3 SWAP4 PUSH1 0x64 SWAP4 SWAP1 DUP7 AND SWAP1 DUP2 LT PUSH2 0x1971 JUMPI PUSH2 0x1971 PUSH2 0x2469 JUMP JUMPDEST SWAP1 PUSH1 0x0 MSTORE PUSH1 0x20 PUSH1 0x0 KECCAK256 ADD PUSH1 0x40 MLOAD PUSH2 0x1988 SWAP2 SWAP1 PUSH2 0x2505 JUMP JUMPDEST SWAP1 DUP2 MSTORE PUSH1 0x20 ADD PUSH1 0x40 MLOAD DUP1 SWAP2 SUB SWAP1 KECCAK256 SLOAD PUSH1 0xA PUSH2 0x19A3 SWAP2 SWAP1 PUSH2 0x2300 JUMP JUMPDEST PUSH2 0x19AD SWAP2 SWAP1 PUSH2 0x231F JUMP JUMPDEST PUSH1 0xA SLOAD PUSH1 0x2 SLOAD PUSH1 0x40 MLOAD PUSH4 0x95EA7B3 PUSH1 0xE0 SHL DUP2 MSTORE PUSH1 0x1 PUSH1 0x1 PUSH1 0xA0 SHL SUB SWAP2 DUP3 AND PUSH1 0x4 DUP3 ADD MSTORE PUSH1 0x24 DUP2 ADD DUP5 SWAP1 MSTORE SWAP3 SWAP4 POP AND SWAP1 PUSH4 0x95EA7B3 SWAP1 PUSH1 0x44 ADD PUSH1 0x20 PUSH1 0x40 MLOAD DUP1 DUP4 SUB DUP2 PUSH1 0x0 DUP8 GAS CALL ISZERO DUP1 ISZERO PUSH2 0x1A04 JUMPI RETURNDATASIZE PUSH1 0x0 DUP1 RETURNDATACOPY RETURNDATASIZE PUSH1 0x0 REVERT JUMPDEST POP POP POP POP PUSH1 0x40 MLOAD RETURNDATASIZE PUSH1 0x1F NOT PUSH1 0x1F DUP3 ADD AND DUP3 ADD DUP1 PUSH1 0x40 MSTORE POP DUP2 ADD SWAP1 PUSH2 0x1A28 SWAP2 SWAP1 PUSH2 0x2341 JUMP JUMPDEST POP PUSH1 0x2 SLOAD PUSH1 0xA SLOAD PUSH1 0x3 SLOAD PUSH1 0x40 MLOAD PUSH4 0xE8EDA9DF PUSH1 0xE0 SHL DUP2 MSTORE PUSH1 0x1 PUSH1 0x1 PUSH1 0xA0 SHL SUB SWAP3 DUP4 AND PUSH1 0x4 DUP3 ADD MSTORE PUSH1 0x24 DUP2 ADD DUP6 SWAP1 MSTORE SWAP1 DUP3 AND PUSH1 0x44 DUP3 ADD MSTORE PUSH1 0x0 PUSH1 0x64 DUP3 ADD MSTORE SWAP2 AND SWAP1 PUSH4 0xE8EDA9DF SWAP1 PUSH1 0x84 ADD PUSH1 0x0 PUSH1 0x40 MLOAD DUP1 DUP4 SUB DUP2 PUSH1 0x0 DUP8 DUP1 EXTCODESIZE ISZERO DUP1 ISZERO PUSH2 0x1A8B JUMPI PUSH1 0x0 DUP1 REVERT JUMPDEST POP GAS CALL ISZERO DUP1 ISZERO PUSH2 0x1A9F JUMPI RETURNDATASIZE PUSH1 0x0 DUP1 RETURNDATACOPY RETURNDATASIZE PUSH1 0x0 REVERT JUMPDEST POP POP POP POP POP DUP1 DUP1 PUSH2 0x1AAF SWAP1 PUSH2 0x2363 JUMP JUMPDEST SWAP2 POP POP PUSH2 0x1927 JUMP JUMPDEST PUSH1 0x0 DUP1 SLOAD PUSH1 0x1 PUSH1 0x1 PUSH1 0xA0 SHL SUB DUP4 DUP2 AND PUSH1 0x1 PUSH1 0x1 PUSH1 0xA0 SHL SUB NOT DUP4 AND DUP2 OR DUP5 SSTORE PUSH1 0x40 MLOAD SWAP2 SWAP1 SWAP3 AND SWAP3 DUP4 SWAP2 PUSH32 0x8BE0079C531659141344CD1FD0A4F28419497F9722A3DAAFE3B4186F6B6457E0 SWAP2 SWAP1 LOG3 POP POP JUMP JUMPDEST PUSH1 0x40 DUP1 MLOAD PUSH1 0x1 PUSH1 0x1 PUSH1 0xA0 SHL SUB DUP6 DUP2 AND PUSH1 0x24 DUP4 ADD MSTORE DUP5 DUP2 AND PUSH1 0x44 DUP4 ADD MSTORE PUSH1 0x64 DUP1 DUP4 ADD DUP6 SWAP1 MSTORE DUP4 MLOAD DUP1 DUP5 SUB SWAP1 SWAP2 ADD DUP2 MSTORE PUSH1 0x84 SWAP1 SWAP3 ADD DUP4 MSTORE PUSH1 0x20 DUP3 ADD DUP1 MLOAD PUSH1 0x1 PUSH1 0x1 PUSH1 0xE0 SHL SUB AND PUSH4 0x23B872DD PUSH1 0xE0 SHL OR SWAP1 MSTORE SWAP2 MLOAD PUSH1 0x0 SWAP3 DUP4 SWAP3 SWAP1 DUP9 AND SWAP2 PUSH2 0x1B6B SWAP2 SWAP1 PUSH2 0x22CE JUMP JUMPDEST PUSH1 0x0 PUSH1 0x40 MLOAD DUP1 DUP4 SUB DUP2 PUSH1 0x0 DUP7 GAS CALL SWAP2 POP POP RETURNDATASIZE DUP1 PUSH1 0x0 DUP2 EQ PUSH2 0x1BA8 JUMPI PUSH1 0x40 MLOAD SWAP2 POP PUSH1 0x1F NOT PUSH1 0x3F RETURNDATASIZE ADD AND DUP3 ADD PUSH1 0x40 MSTORE RETURNDATASIZE DUP3 MSTORE RETURNDATASIZE PUSH1 0x0 PUSH1 0x20 DUP5 ADD RETURNDATACOPY PUSH2 0x1BAD JUMP JUMPDEST PUSH1 0x60 SWAP2 POP JUMPDEST POP SWAP2 POP SWAP2 POP DUP2 DUP1 ISZERO PUSH2 0x1BD7 JUMPI POP DUP1 MLOAD ISZERO DUP1 PUSH2 0x1BD7 JUMPI POP DUP1 DUP1 PUSH1 0x20 ADD SWAP1 MLOAD DUP2 ADD SWAP1 PUSH2 0x1BD7 SWAP2 SWAP1 PUSH2 0x2341 JUMP JUMPDEST PUSH2 0x1C09 JUMPI PUSH1 0x40 MLOAD PUSH3 0x461BCD PUSH1 0xE5 SHL DUP2 MSTORE PUSH1 0x20 PUSH1 0x4 DUP3 ADD MSTORE PUSH1 0x3 PUSH1 0x24 DUP3 ADD MSTORE PUSH3 0x29AA23 PUSH1 0xE9 SHL PUSH1 0x44 DUP3 ADD MSTORE PUSH1 0x64 ADD PUSH2 0x813 JUMP JUMPDEST POP POP POP POP POP POP JUMP JUMPDEST PUSH1 0x40 DUP1 MLOAD PUSH1 0x1 PUSH1 0x1 PUSH1 0xA0 SHL SUB DUP5 DUP2 AND PUSH1 0x24 DUP4 ADD MSTORE PUSH1 0x44 DUP1 DUP4 ADD DUP6 SWAP1 MSTORE DUP4 MLOAD DUP1 DUP5 SUB SWAP1 SWAP2 ADD DUP2 MSTORE PUSH1 0x64 SWAP1 SWAP3 ADD DUP4 MSTORE PUSH1 0x20 DUP3 ADD DUP1 MLOAD PUSH1 0x1 PUSH1 0x1 PUSH1 0xE0 SHL SUB AND PUSH4 0x95EA7B3 PUSH1 0xE0 SHL OR SWAP1 MSTORE SWAP2 MLOAD PUSH1 0x0 SWAP3 DUP4 SWAP3 SWAP1 DUP8 AND SWAP2 PUSH2 0x1C6D SWAP2 SWAP1 PUSH2 0x22CE JUMP JUMPDEST PUSH1 0x0 PUSH1 0x40 MLOAD DUP1 DUP4 SUB DUP2 PUSH1 0x0 DUP7 GAS CALL SWAP2 POP POP RETURNDATASIZE DUP1 PUSH1 0x0 DUP2 EQ PUSH2 0x1CAA JUMPI PUSH1 0x40 MLOAD SWAP2 POP PUSH1 0x1F NOT PUSH1 0x3F RETURNDATASIZE ADD AND DUP3 ADD PUSH1 0x40 MSTORE RETURNDATASIZE DUP3 MSTORE RETURNDATASIZE PUSH1 0x0 PUSH1 0x20 DUP5 ADD RETURNDATACOPY PUSH2 0x1CAF JUMP JUMPDEST PUSH1 0x60 SWAP2 POP JUMPDEST POP SWAP2 POP SWAP2 POP DUP2 DUP1 ISZERO PUSH2 0x1CD9 JUMPI POP DUP1 MLOAD ISZERO DUP1 PUSH2 0x1CD9 JUMPI POP DUP1 DUP1 PUSH1 0x20 ADD SWAP1 MLOAD DUP2 ADD SWAP1 PUSH2 0x1CD9 SWAP2 SWAP1 PUSH2 0x2341 JUMP JUMPDEST PUSH2 0x1D0A JUMPI PUSH1 0x40 MLOAD PUSH3 0x461BCD PUSH1 0xE5 SHL DUP2 MSTORE PUSH1 0x20 PUSH1 0x4 DUP3 ADD MSTORE PUSH1 0x2 PUSH1 0x24 DUP3 ADD MSTORE PUSH2 0x5341 PUSH1 0xF0 SHL PUSH1 0x44 DUP3 ADD MSTORE PUSH1 0x64 ADD PUSH2 0x813 JUMP JUMPDEST POP POP POP POP POP JUMP JUMPDEST PUSH1 0x40 DUP1 MLOAD PUSH1 0x1 PUSH1 0x1 PUSH1 0xA0 SHL SUB DUP5 DUP2 AND PUSH1 0x24 DUP4 ADD MSTORE PUSH1 0x44 DUP1 DUP4 ADD DUP6 SWAP1 MSTORE DUP4 MLOAD DUP1 DUP5 SUB SWAP1 SWAP2 ADD DUP2 MSTORE PUSH1 0x64 SWAP1 SWAP3 ADD DUP4 MSTORE PUSH1 0x20 DUP3 ADD DUP1 MLOAD PUSH1 0x1 PUSH1 0x1 PUSH1 0xE0 SHL SUB AND PUSH4 0xA9059CBB PUSH1 0xE0 SHL OR SWAP1 MSTORE SWAP2 MLOAD PUSH1 0x0 SWAP3 DUP4 SWAP3 SWAP1 DUP8 AND SWAP2 PUSH2 0x1D6D SWAP2 SWAP1 PUSH2 0x22CE JUMP JUMPDEST PUSH1 0x0 PUSH1 0x40 MLOAD DUP1 DUP4 SUB DUP2 PUSH1 0x0 DUP7 GAS CALL SWAP2 POP POP RETURNDATASIZE DUP1 PUSH1 0x0 DUP2 EQ PUSH2 0x1DAA JUMPI PUSH1 0x40 MLOAD SWAP2 POP PUSH1 0x1F NOT PUSH1 0x3F RETURNDATASIZE ADD AND DUP3 ADD PUSH1 0x40 MSTORE RETURNDATASIZE DUP3 MSTORE RETURNDATASIZE PUSH1 0x0 PUSH1 0x20 DUP5 ADD RETURNDATACOPY PUSH2 0x1DAF JUMP JUMPDEST PUSH1 0x60 SWAP2 POP JUMPDEST POP SWAP2 POP SWAP2 POP DUP2 DUP1 ISZERO PUSH2 0x1DD9 JUMPI POP DUP1 MLOAD ISZERO DUP1 PUSH2 0x1DD9 JUMPI POP DUP1 DUP1 PUSH1 0x20 ADD SWAP1 MLOAD DUP2 ADD SWAP1 PUSH2 0x1DD9 SWAP2 SWAP1 PUSH2 0x2341 JUMP JUMPDEST PUSH2 0x1D0A JUMPI PUSH1 0x40 MLOAD PUSH3 0x461BCD PUSH1 0xE5 SHL DUP2 MSTORE PUSH1 0x20 PUSH1 0x4 DUP3 ADD MSTORE PUSH1 0x2 PUSH1 0x24 DUP3 ADD MSTORE PUSH2 0x14D5 PUSH1 0xF2 SHL PUSH1 0x44 DUP3 ADD MSTORE PUSH1 0x64 ADD PUSH2 0x813 JUMP JUMPDEST DUP3 DUP1 SLOAD PUSH2 0x1E16 SWAP1 PUSH2 0x24CA JUMP JUMPDEST SWAP1 PUSH1 0x0 MSTORE PUSH1 0x20 PUSH1 0x0 KECCAK256 SWAP1 PUSH1 0x1F ADD PUSH1 0x20 SWAP1 DIV DUP2 ADD SWAP3 DUP3 PUSH2 0x1E38 JUMPI PUSH1 0x0 DUP6 SSTORE PUSH2 0x1E7E JUMP JUMPDEST DUP3 PUSH1 0x1F LT PUSH2 0x1E51 JUMPI DUP1 MLOAD PUSH1 0xFF NOT AND DUP4 DUP1 ADD OR DUP6 SSTORE PUSH2 0x1E7E JUMP JUMPDEST DUP3 DUP1 ADD PUSH1 0x1 ADD DUP6 SSTORE DUP3 ISZERO PUSH2 0x1E7E JUMPI SWAP2 DUP3 ADD JUMPDEST DUP3 DUP2 GT ISZERO PUSH2 0x1E7E JUMPI DUP3 MLOAD DUP3 SSTORE SWAP2 PUSH1 0x20 ADD SWAP2 SWAP1 PUSH1 0x1 ADD SWAP1 PUSH2 0x1E63 JUMP JUMPDEST POP PUSH2 0x1E8A SWAP3 SWAP2 POP PUSH2 0x1E8E JUMP JUMPDEST POP SWAP1 JUMP JUMPDEST JUMPDEST DUP1 DUP3 GT ISZERO PUSH2 0x1E8A JUMPI PUSH1 0x0 DUP2 SSTORE PUSH1 0x1 ADD PUSH2 0x1E8F JUMP JUMPDEST DUP1 CALLDATALOAD PUSH1 0x1 PUSH1 0x1 PUSH1 0xA0 SHL SUB DUP2 AND DUP2 EQ PUSH2 0x1EBA JUMPI PUSH1 0x0 DUP1 REVERT JUMPDEST SWAP2 SWAP1 POP JUMP JUMPDEST PUSH1 0x0 PUSH1 0x20 DUP3 DUP5 SUB SLT ISZERO PUSH2 0x1ED1 JUMPI PUSH1 0x0 DUP1 REVERT JUMPDEST PUSH2 0x1EDA DUP3 PUSH2 0x1EA3 JUMP JUMPDEST SWAP4 SWAP3 POP POP POP JUMP JUMPDEST DUP1 CALLDATALOAD PUSH1 0x1 PUSH1 0x1 PUSH1 0x80 SHL SUB DUP2 AND DUP2 EQ PUSH2 0x1EBA JUMPI PUSH1 0x0 DUP1 REVERT JUMPDEST PUSH4 0x4E487B71 PUSH1 0xE0 SHL PUSH1 0x0 MSTORE PUSH1 0x41 PUSH1 0x4 MSTORE PUSH1 0x24 PUSH1 0x0 REVERT JUMPDEST PUSH1 0x0 DUP3 PUSH1 0x1F DUP4 ADD SLT PUSH2 0x1F1F JUMPI PUSH1 0x0 DUP1 REVERT JUMPDEST DUP2 CALLDATALOAD PUSH8 0xFFFFFFFFFFFFFFFF DUP1 DUP3 GT ISZERO PUSH2 0x1F3A JUMPI PUSH2 0x1F3A PUSH2 0x1EF8 JUMP JUMPDEST PUSH1 0x40 MLOAD PUSH1 0x1F DUP4 ADD PUSH1 0x1F NOT SWAP1 DUP2 AND PUSH1 0x3F ADD AND DUP2 ADD SWAP1 DUP3 DUP3 GT DUP2 DUP4 LT OR ISZERO PUSH2 0x1F62 JUMPI PUSH2 0x1F62 PUSH2 0x1EF8 JUMP JUMPDEST DUP2 PUSH1 0x40 MSTORE DUP4 DUP2 MSTORE DUP7 PUSH1 0x20 DUP6 DUP9 ADD ADD GT ISZERO PUSH2 0x1F7B JUMPI PUSH1 0x0 DUP1 REVERT JUMPDEST DUP4 PUSH1 0x20 DUP8 ADD PUSH1 0x20 DUP4 ADD CALLDATACOPY PUSH1 0x0 PUSH1 0x20 DUP6 DUP4 ADD ADD MSTORE DUP1 SWAP5 POP POP POP POP POP SWAP3 SWAP2 POP POP JUMP JUMPDEST PUSH1 0x0 DUP1 PUSH1 0x40 DUP4 DUP6 SUB SLT ISZERO PUSH2 0x1FAE JUMPI PUSH1 0x0 DUP1 REVERT JUMPDEST PUSH2 0x1FB7 DUP4 PUSH2 0x1EE1 JUMP JUMPDEST SWAP2 POP PUSH1 0x20 DUP4 ADD CALLDATALOAD PUSH8 0xFFFFFFFFFFFFFFFF DUP2 GT ISZERO PUSH2 0x1FD3 JUMPI PUSH1 0x0 DUP1 REVERT JUMPDEST PUSH2 0x1FDF DUP6 DUP3 DUP7 ADD PUSH2 0x1F0E JUMP JUMPDEST SWAP2 POP POP SWAP3 POP SWAP3 SWAP1 POP JUMP JUMPDEST PUSH1 0x0 DUP1 PUSH1 0x20 DUP4 DUP6 SUB SLT ISZERO PUSH2 0x1FFC JUMPI PUSH1 0x0 DUP1 REVERT JUMPDEST DUP3 CALLDATALOAD PUSH8 0xFFFFFFFFFFFFFFFF DUP1 DUP3 GT ISZERO PUSH2 0x2014 JUMPI PUSH1 0x0 DUP1 REVERT JUMPDEST DUP2 DUP6 ADD SWAP2 POP DUP6 PUSH1 0x1F DUP4 ADD SLT PUSH2 0x2028 JUMPI PUSH1 0x0 DUP1 REVERT JUMPDEST DUP2 CALLDATALOAD DUP2 DUP2 GT ISZERO PUSH2 0x2037 JUMPI PUSH1 0x0 DUP1 REVERT JUMPDEST DUP7 PUSH1 0x20 DUP3 DUP6 ADD ADD GT ISZERO PUSH2 0x2049 JUMPI PUSH1 0x0 DUP1 REVERT JUMPDEST PUSH1 0x20 SWAP3 SWAP1 SWAP3 ADD SWAP7 SWAP2 SWAP6 POP SWAP1 SWAP4 POP POP POP POP JUMP JUMPDEST PUSH1 0x0 DUP1 PUSH1 0x0 PUSH1 0x60 DUP5 DUP7 SUB SLT ISZERO PUSH2 0x2070 JUMPI PUSH1 0x0 DUP1 REVERT JUMPDEST PUSH2 0x2079 DUP5 PUSH2 0x1EE1 JUMP JUMPDEST SWAP3 POP PUSH1 0x20 DUP5 ADD CALLDATALOAD PUSH8 0xFFFFFFFFFFFFFFFF DUP2 GT ISZERO PUSH2 0x2095 JUMPI PUSH1 0x0 DUP1 REVERT JUMPDEST PUSH2 0x20A1 DUP7 DUP3 DUP8 ADD PUSH2 0x1F0E JUMP JUMPDEST SWAP3 POP POP PUSH1 0x40 DUP5 ADD CALLDATALOAD SWAP1 POP SWAP3 POP SWAP3 POP SWAP3 JUMP JUMPDEST PUSH1 0x0 PUSH1 0x20 DUP3 DUP5 SUB SLT ISZERO PUSH2 0x20C4 JUMPI PUSH1 0x0 DUP1 REVERT JUMPDEST POP CALLDATALOAD SWAP2 SWAP1 POP JUMP JUMPDEST PUSH1 0x0 DUP1 PUSH1 0x0 PUSH1 0x60 DUP5 DUP7 SUB SLT ISZERO PUSH2 0x20E0 JUMPI PUSH1 0x0 DUP1 REVERT JUMPDEST DUP4 CALLDATALOAD SWAP3 POP PUSH1 0x20 DUP5 ADD CALLDATALOAD PUSH8 0xFFFFFFFFFFFFFFFF DUP2 GT ISZERO PUSH2 0x2095 JUMPI PUSH1 0x0 DUP1 REVERT JUMPDEST PUSH1 0x0 DUP1 PUSH1 0x40 DUP4 DUP6 SUB SLT ISZERO PUSH2 0x2111 JUMPI PUSH1 0x0 DUP1 REVERT JUMPDEST DUP3 CALLDATALOAD SWAP2 POP PUSH1 0x20 DUP4 ADD CALLDATALOAD PUSH8 0xFFFFFFFFFFFFFFFF DUP2 GT ISZERO PUSH2 0x1FD3 JUMPI PUSH1 0x0 DUP1 REVERT JUMPDEST PUSH1 0x0 JUMPDEST DUP4 DUP2 LT ISZERO PUSH2 0x214A JUMPI DUP2 DUP2 ADD MLOAD DUP4 DUP3 ADD MSTORE PUSH1 0x20 ADD PUSH2 0x2132 JUMP JUMPDEST DUP4 DUP2 GT ISZERO PUSH2 0x6EB JUMPI POP POP PUSH1 0x0 SWAP2 ADD MSTORE JUMP JUMPDEST DUP3 ISZERO ISZERO DUP2 MSTORE PUSH1 0x40 PUSH1 0x20 DUP3 ADD MSTORE PUSH1 0x0 DUP3 MLOAD DUP1 PUSH1 0x40 DUP5 ADD MSTORE PUSH2 0x2182 DUP2 PUSH1 0x60 DUP6 ADD PUSH1 0x20 DUP8 ADD PUSH2 0x212F JUMP JUMPDEST PUSH1 0x1F ADD PUSH1 0x1F NOT AND SWAP2 SWAP1 SWAP2 ADD PUSH1 0x60 ADD SWAP4 SWAP3 POP POP POP JUMP JUMPDEST PUSH1 0x0 DUP1 PUSH1 0x40 DUP4 DUP6 SUB SLT ISZERO PUSH2 0x21AA JUMPI PUSH1 0x0 DUP1 REVERT JUMPDEST DUP3 CALLDATALOAD PUSH8 0xFFFFFFFFFFFFFFFF DUP2 GT ISZERO PUSH2 0x21C1 JUMPI PUSH1 0x0 DUP1 REVERT JUMPDEST PUSH2 0x21CD DUP6 DUP3 DUP7 ADD PUSH2 0x1F0E JUMP JUMPDEST SWAP3 POP POP PUSH2 0x21DC PUSH1 0x20 DUP5 ADD PUSH2 0x1EA3 JUMP JUMPDEST SWAP1 POP SWAP3 POP SWAP3 SWAP1 POP JUMP JUMPDEST PUSH1 0x0 DUP1 PUSH1 0x0 PUSH1 0x60 DUP5 DUP7 SUB SLT ISZERO PUSH2 0x21FA JUMPI PUSH1 0x0 DUP1 REVERT JUMPDEST PUSH2 0x2203 DUP5 PUSH2 0x1EE1 JUMP JUMPDEST SWAP3 POP PUSH1 0x20 DUP5 ADD CALLDATALOAD PUSH8 0xFFFFFFFFFFFFFFFF DUP2 GT ISZERO PUSH2 0x221F JUMPI PUSH1 0x0 DUP1 REVERT JUMPDEST PUSH2 0x222B DUP7 DUP3 DUP8 ADD PUSH2 0x1F0E JUMP JUMPDEST SWAP3 POP POP PUSH2 0x223A PUSH1 0x40 DUP6 ADD PUSH2 0x1EA3 JUMP JUMPDEST SWAP1 POP SWAP3 POP SWAP3 POP SWAP3 JUMP JUMPDEST PUSH1 0x0 DUP1 PUSH1 0x0 PUSH1 0x60 DUP5 DUP7 SUB SLT ISZERO PUSH2 0x2258 JUMPI PUSH1 0x0 DUP1 REVERT JUMPDEST DUP4 CALLDATALOAD PUSH8 0xFFFFFFFFFFFFFFFF DUP2 GT ISZERO PUSH2 0x226F JUMPI PUSH1 0x0 DUP1 REVERT JUMPDEST PUSH2 0x227B DUP7 DUP3 DUP8 ADD PUSH2 0x1F0E JUMP JUMPDEST SWAP4 POP POP PUSH1 0x20 DUP5 ADD CALLDATALOAD SWAP2 POP PUSH2 0x223A PUSH1 0x40 DUP6 ADD PUSH2 0x1EA3 JUMP JUMPDEST PUSH1 0x0 PUSH1 0x20 DUP3 DUP5 SUB SLT ISZERO PUSH2 0x22A3 JUMPI PUSH1 0x0 DUP1 REVERT JUMPDEST DUP2 CALLDATALOAD PUSH8 0xFFFFFFFFFFFFFFFF DUP2 GT ISZERO PUSH2 0x22BA JUMPI PUSH1 0x0 DUP1 REVERT JUMPDEST PUSH2 0x22C6 DUP5 DUP3 DUP6 ADD PUSH2 0x1F0E JUMP JUMPDEST SWAP5 SWAP4 POP POP POP POP JUMP JUMPDEST PUSH1 0x0 DUP3 MLOAD PUSH2 0x22E0 DUP2 DUP5 PUSH1 0x20 DUP8 ADD PUSH2 0x212F JUMP JUMPDEST SWAP2 SWAP1 SWAP2 ADD SWAP3 SWAP2 POP POP JUMP JUMPDEST PUSH4 0x4E487B71 PUSH1 0xE0 SHL PUSH1 0x0 MSTORE PUSH1 0x11 PUSH1 0x4 MSTORE PUSH1 0x24 PUSH1 0x0 REVERT JUMPDEST PUSH1 0x0 DUP2 PUSH1 0x0 NOT DIV DUP4 GT DUP3 ISZERO ISZERO AND ISZERO PUSH2 0x231A JUMPI PUSH2 0x231A PUSH2 0x22EA JUMP JUMPDEST POP MUL SWAP1 JUMP JUMPDEST PUSH1 0x0 DUP3 PUSH2 0x233C JUMPI PUSH4 0x4E487B71 PUSH1 0xE0 SHL PUSH1 0x0 MSTORE PUSH1 0x12 PUSH1 0x4 MSTORE PUSH1 0x24 PUSH1 0x0 REVERT JUMPDEST POP DIV SWAP1 JUMP JUMPDEST PUSH1 0x0 PUSH1 0x20 DUP3 DUP5 SUB SLT ISZERO PUSH2 0x2353 JUMPI PUSH1 0x0 DUP1 REVERT JUMPDEST DUP2 MLOAD DUP1 ISZERO ISZERO DUP2 EQ PUSH2 0x1EDA JUMPI PUSH1 0x0 DUP1 REVERT JUMPDEST PUSH1 0x0 PUSH1 0x1 PUSH1 0x1 PUSH1 0x80 SHL SUB DUP1 DUP4 AND DUP2 DUP2 EQ ISZERO PUSH2 0x2380 JUMPI PUSH2 0x2380 PUSH2 0x22EA JUMP JUMPDEST PUSH1 0x1 ADD SWAP4 SWAP3 POP POP POP JUMP JUMPDEST PUSH1 0x20 DUP1 DUP3 MSTORE DUP2 DUP2 ADD MSTORE PUSH32 0x4F776E61626C653A2063616C6C6572206973206E6F7420746865206F776E6572 PUSH1 0x40 DUP3 ADD MSTORE PUSH1 0x60 ADD SWAP1 JUMP JUMPDEST DUP1 MLOAD PUSH10 0xFFFFFFFFFFFFFFFFFFFF DUP2 AND DUP2 EQ PUSH2 0x1EBA JUMPI PUSH1 0x0 DUP1 REVERT JUMPDEST PUSH1 0x0 DUP1 PUSH1 0x0 DUP1 PUSH1 0x0 PUSH1 0xA0 DUP7 DUP9 SUB SLT ISZERO PUSH2 0x23F1 JUMPI PUSH1 0x0 DUP1 REVERT JUMPDEST PUSH2 0x23FA DUP7 PUSH2 0x23BF JUMP JUMPDEST SWAP5 POP PUSH1 0x20 DUP7 ADD MLOAD SWAP4 POP PUSH1 0x40 DUP7 ADD MLOAD SWAP3 POP PUSH1 0x60 DUP7 ADD MLOAD SWAP2 POP PUSH2 0x241D PUSH1 0x80 DUP8 ADD PUSH2 0x23BF JUMP JUMPDEST SWAP1 POP SWAP3 SWAP6 POP SWAP3 SWAP6 SWAP1 SWAP4 POP JUMP JUMPDEST PUSH1 0x0 DUP3 NOT DUP3 GT ISZERO PUSH2 0x243C JUMPI PUSH2 0x243C PUSH2 0x22EA JUMP JUMPDEST POP ADD SWAP1 JUMP JUMPDEST PUSH1 0x0 PUSH1 0x1 PUSH1 0x1 PUSH1 0x80 SHL SUB DUP4 DUP2 AND SWAP1 DUP4 AND DUP2 DUP2 LT ISZERO PUSH2 0x2461 JUMPI PUSH2 0x2461 PUSH2 0x22EA JUMP JUMPDEST SUB SWAP4 SWAP3 POP POP POP JUMP JUMPDEST PUSH4 0x4E487B71 PUSH1 0xE0 SHL PUSH1 0x0 MSTORE PUSH1 0x32 PUSH1 0x4 MSTORE PUSH1 0x24 PUSH1 0x0 REVERT JUMPDEST PUSH1 0x0 PUSH1 0x0 NOT DUP3 EQ ISZERO PUSH2 0x2493 JUMPI PUSH2 0x2493 PUSH2 0x22EA JUMP JUMPDEST POP PUSH1 0x1 ADD SWAP1 JUMP JUMPDEST PUSH1 0x0 PUSH1 0x20 DUP3 DUP5 SUB SLT ISZERO PUSH2 0x24AC JUMPI PUSH1 0x0 DUP1 REVERT JUMPDEST POP MLOAD SWAP2 SWAP1 POP JUMP JUMPDEST PUSH1 0x0 DUP3 DUP3 LT ISZERO PUSH2 0x24C5 JUMPI PUSH2 0x24C5 PUSH2 0x22EA JUMP JUMPDEST POP SUB SWAP1 JUMP JUMPDEST PUSH1 0x1 DUP2 DUP2 SHR SWAP1 DUP3 AND DUP1 PUSH2 0x24DE JUMPI PUSH1 0x7F DUP3 AND SWAP2 POP JUMPDEST PUSH1 0x20 DUP3 LT DUP2 EQ ISZERO PUSH2 0x24FF JUMPI PUSH4 0x4E487B71 PUSH1 0xE0 SHL PUSH1 0x0 MSTORE PUSH1 0x22 PUSH1 0x4 MSTORE PUSH1 0x24 PUSH1 0x0 REVERT JUMPDEST POP SWAP2 SWAP1 POP JUMP JUMPDEST PUSH1 0x0 DUP1 DUP4 SLOAD DUP2 PUSH1 0x1 DUP3 DUP2 SHR SWAP2 POP DUP1 DUP4 AND DUP1 PUSH2 0x2521 JUMPI PUSH1 0x7F DUP4 AND SWAP3 POP JUMPDEST PUSH1 0x20 DUP1 DUP5 LT DUP3 EQ ISZERO PUSH2 0x2541 JUMPI PUSH4 0x4E487B71 PUSH1 0xE0 SHL DUP7 MSTORE PUSH1 0x22 PUSH1 0x4 MSTORE PUSH1 0x24 DUP7 REVERT JUMPDEST DUP2 DUP1 ISZERO PUSH2 0x2555 JUMPI PUSH1 0x1 DUP2 EQ PUSH2 0x2566 JUMPI PUSH2 0x2593 JUMP JUMPDEST PUSH1 0xFF NOT DUP7 AND DUP10 MSTORE DUP5 DUP10 ADD SWAP7 POP PUSH2 0x2593 JUMP JUMPDEST PUSH1 0x0 DUP11 DUP2 MSTORE PUSH1 0x20 SWAP1 KECCAK256 PUSH1 0x0 JUMPDEST DUP7 DUP2 LT ISZERO PUSH2 0x258B JUMPI DUP2 SLOAD DUP12 DUP3 ADD MSTORE SWAP1 DUP6 ADD SWAP1 DUP4 ADD PUSH2 0x2572 JUMP JUMPDEST POP POP DUP5 DUP10 ADD SWAP7 POP JUMPDEST POP SWAP5 SWAP9 SWAP8 POP POP POP POP POP POP POP POP JUMP JUMPDEST PUSH1 0x0 PUSH1 0xFF DUP3 AND PUSH1 0xFF DUP2 EQ ISZERO PUSH2 0x25B8 JUMPI PUSH2 0x25B8 PUSH2 0x22EA JUMP JUMPDEST PUSH1 0x1 ADD SWAP3 SWAP2 POP POP JUMP INVALID LOG2 PUSH5 0x6970667358 0x22 SLT KECCAK256 PUSH17 0x284FB69669C3094EC3B3FBF4F58ED07D68 0xEE PUSH15 0x3A8B8E826323BCE94D11EDC464736F PUSH13 0x634300080B0033000000000000 ",
  "sha1": "8ab16292c5d9594c12a47ac629e017a112c022c1",
  "source": "//SPDX-License-Identifier: MIT\npragma solidity ^0.8.0;\n\nimport \"../interfaces/DataTypes.sol\";\nimport \"../interfaces/ILendingPoolAddressesProvider.sol\";\nimport \"../interfaces/ILendingPool.sol\";\nimport \"../interfaces/TransferHelper.sol\";\nimport \"../interfaces/ISwapRouter.sol\";\nimport \"../interfaces/IMoonSquares.sol\";\n\nimport \"@chainlink/contracts/src/v0.8/interfaces/KeeperCompatibleInterface.sol\";\nimport \"@chainlink/contracts/src/v0.8/interfaces/AggregatorV3Interface.sol\";\n//import \"@openzeppelin/contracts/token/ERC20/IERC20.sol\";\nimport \"@openzeppelin/contracts/access/Ownable.sol\";\n\n\n\ncontract DailyRocket is Ownable, KeeperCompatibleInterface {\n\n    //preferably should use the http get to get the actual close price of an asset rather than aggregator\n    //to confirm during testing phase\n\n\n    //IUniswapV2Router01 public sushiRouter = IUniswapV2Router01(0x1b02dA8Cb0d097eB8D57A175b88c7D8b47997506);\n\n    ILendingPoolAddressesProvider provider = ILendingPoolAddressesProvider(\n        address(0x88757f2f99175387aB4C6a4b3067c77A695b0349)\n    );  \n    ILendingPool lendingPool = ILendingPool(provider.getLendingPool());\n    \n    IMoonSquares public moonSquare;\n    ISwapRouter public immutable swapRouter;\n    uint24 public constant poolFee = 3000;\n\n    uint128 public dayCount;//Kepps track of the days\n\n    string[] predictableAssets;//all assets that a user can predict\n    address[] assetPriceAggregators;\n\n    mapping(string => bool) public activeAsset;\n\n    mapping(uint256 => mapping(string => int256)) dayAssetClosePrice; //Closing Price per asset \n\n    mapping(uint256 => uint256) dayCloseTime; //Closing Time per asset\n    \n    address Dai = 0xFf795577d9AC8bD7D90Ee22b6C1703490b6512FD;\n\n    uint256 public contractStartTime; //The contract should start at 0000.00 hours\n\n    mapping(uint256 => mapping(string => uint256)) public dayAssetTotalAmount;\n\n    mapping(uint256 => mapping(string => uint256)) public dayAssetNoOfWinners;\n    \n    mapping(uint256 => mapping(string => int256[])) public dayAssetPrediction;\n\n    mapping(uint256 => mapping(string => address[])) public dayAssetPredictors;\n\n    event Predicted(address indexed _placer, int256 _prediction);\n    \n    struct Charity {\n        bytes8 name;\n        bytes32 link; //sends people to the charity's official site\n    }\n    struct Prediction {\n        int256 prediction;\n        uint256 time;\n        bool isWinner;\n    }\n    \n    mapping (address => Charity) public presentCharities;\n\n    address[] public AcceptedTokens;\n\n    mapping(uint128 => mapping(string => address[])) public dailyAssetWinners;\n\n    //user and their prediction\n    mapping(uint128 => mapping(string => mapping(address => Prediction))) public dayAssetUserPrediction;\n\n    constructor(\n        address _dai,\n        ISwapRouter _swapRouter, //0xE592427A0AEce92De3Edee1F18E0157C05861564\n        IMoonSquares _moonsqr\n        )\n    {\n        AcceptedTokens.push(_dai);\n        swapRouter = _swapRouter;\n        moonSquare = _moonsqr;\n        contractStartTime = block.timestamp;\n        dayCount = 1;\n        dayCloseTime[dayCount] = contractStartTime + 86400 seconds;//adds a day to the start time. to change to an input later.\n    }//instantiate the token addresses upon deployment\n\n\n    function setNewClosingPrice() internal {\n        for (uint256 i = 0; i < assetPriceAggregators.length; i++){\n            dayAssetClosePrice[dayCount][predictableAssets[i]] = getPrice(i);\n        }\n    }\n\n    function addPaymentToken(address _address) public onlyOwner {\n        AcceptedTokens.push(_address);\n    }\n    \n    function addAssetAndAgg(string memory _asset, address _aggregator) public onlyOwner {\n        predictableAssets.push(_asset);\n        assetPriceAggregators.push(_aggregator);\n        activeAsset[_asset] = true;\n    }\n\n    function predictClosePrice(\n        string memory _asset, \n        int _prediction,\n        address token\n    ) public allowedToken(token)\n    {   \n        require(activeAsset[_asset] == true);\n        if (dayCount > 1) {\n            require(getTime() <= dayCloseTime[dayCount -1] + 64800 seconds);//After this time, one cannot\n        }\n        uint256 amount = 10000000000000000000;//the amount we set for the daily close\n        if (token != Dai) {\n            require(IERC20(Dai).allowance(msg.sender, address(this)) >= uint(amount));\n            //IERC20(token).transferFrom(msg.sender, address(this), uint(amount));\n            TransferHelper.safeTransferFrom(token, msg.sender, address(this), amount);\n\n            // Approve the router to spend the specifed `amountInMaximum` of DAI.\n            TransferHelper.safeApprove(token, address(swapRouter), amount);\n            uint amountInMaximum = 15000000000000000000;\n            ISwapRouter.ExactOutputSingleParams memory params =\n                ISwapRouter.ExactOutputSingleParams({\n                    tokenIn: token,\n                    tokenOut: Dai,\n                    fee: poolFee,\n                    recipient: address(this),\n                    deadline: block.timestamp,\n                    amountOut: amount,\n                    amountInMaximum: amountInMaximum,\n                    sqrtPriceLimitX96: 0\n                });\n\n            // Executes the swap returning the amountIn needed to spend to receive the desired amountOut.\n            uint amountIn = swapRouter.exactOutputSingle(params);\n\n            // For exact output swaps, the amountInMaximum may not have all been spent.\n            // If the actual amount spent (amountIn) is less than the specified maximum amount, we must refund the msg.sender and approve the swapRouter to spend 0.\n            if (amountIn < amountInMaximum) {\n                TransferHelper.safeApprove(Dai, address(swapRouter), 0);\n                TransferHelper.safeTransfer(Dai, msg.sender, amountInMaximum - amountIn);\n            }\n        } else {\n    \n        require(IERC20(Dai).allowance(msg.sender, address(this)) >= uint(amount));\n        IERC20(Dai).transferFrom(msg.sender, address(this), uint(amount));\n        \n        }\n        dayAssetTotalAmount[dayCount][_asset] += amount;\n        //Updates The prediction mapping\n        dayAssetUserPrediction[dayCount][_asset][msg.sender] = Prediction(\n            _prediction,\n            getTime(),\n            false\n        );\n        //adds to the list of predictions\n        dayAssetPrediction[dayCount][_asset].push(_prediction);\n        //add the sender to the predictors array\n        dayAssetPredictors[dayCount][_asset].push(msg.sender);\n\n        emit Predicted(msg.sender, _prediction);\n    }\n\n    function setNumberOfWinners() private {\n        uint128 day = dayCount;\n        for (uint8 i = 0; i < predictableAssets.length; i++) {\n            require(\n                dayAssetPrediction[day][predictableAssets[i]].length\n                ==\n                dayAssetPredictors[day][predictableAssets[i]].length\n            );\n            for (uint8 p = 0; p < dayAssetPrediction[day][predictableAssets[i]].length; p++) {\n                require(dayAssetPrediction[day][predictableAssets[i]][p] == dayAssetClosePrice[day][predictableAssets[i]]);\n                dailyAssetWinners[day][predictableAssets[i]].push(dayAssetPredictors[day][predictableAssets[i]][p]);\n                dayAssetNoOfWinners[day][predictableAssets[i]] +=1;\n\n                moonSquare.addToWinners(dayAssetPredictors[day][predictableAssets[i]][p]);\n            }\n        }\n    }\n\n\n    function getTime() public view returns(uint){\n        AggregatorV3Interface priceFeed = AggregatorV3Interface(0x6135b13325bfC4B00278B4abC5e20bbce2D6580e);\n        (,,,uint answer,) = priceFeed.latestRoundData();\n         return uint(answer);\n    }\n\n    function getPrice(uint256 _aggindex) public view returns(int){\n        AggregatorV3Interface priceFeed = AggregatorV3Interface(assetPriceAggregators[_aggindex]);\n        (,int answer,,,) = priceFeed.latestRoundData();\n         return int(answer);\n    }\n\n    modifier allowedToken(address _token) {\n        for(uint i =0; i < predictableAssets.length; i++) {\n            require(AcceptedTokens[i] == _token);\n        }\n        _;\n    }\n\n    function claimWinnings(uint128 _day, string memory _asset) public {\n        //logic to see if the person had a winning prediction\n        require(dayAssetUserPrediction[_day][_asset][msg.sender].prediction == dayAssetClosePrice[_day][_asset]);\n        uint256 winners = dayAssetNoOfWinners[_day][_asset];\n        dayAssetUserPrediction[_day][_asset][msg.sender].isWinner = true;\n        IERC20(Dai).transfer(\n            msg.sender, \n            ((dayAssetTotalAmount[_day][_asset]) * 90/100)/winners\n        );\n        \n    }\n\n    function isAwinner(\n        uint128 _day,\n        string memory _asset,\n        address checked\n    ) public view returns(bool){\n        require(dayAssetClosePrice[_day][_asset] != 0);\n        require(dayAssetUserPrediction[_day][_asset][checked].prediction == dayAssetClosePrice[_day][_asset]);\n        return true;\n    }\n    \n    function checkUpkeep(bytes calldata checkData) external view override returns (bool upkeepNeeded, bytes memory performData) {\n        if (dayCloseTime[dayCount] + 86400 seconds == getTime()){\n            upkeepNeeded = true;\n            return (true, abi.encodePacked(uint256(0)));\n        }\n        if (getTime() > dayCloseTime[dayCount -1] + 64800 seconds) {\n            upkeepNeeded = true;\n            return (true, abi.encodePacked(uint(1)));\n        }\n        performData = checkData;\n        \n    }\n    \n    function performUpkeep(bytes calldata performData) external override {\n         uint256 decodedValue = abi.decode(performData, (uint256));\n        if (decodedValue == 0) {\n            setNewClosingPrice();\n            setNumberOfWinners();\n            dayCount++;\n        }\n        if (decodedValue == 1) {\n            sendToIba();\n        }\n    }\n    \n    //sends non winnings to an interest bearibg account \n    function sendToIba() private {\n        require(getTime() > dayCloseTime[dayCount -1] + 64800 seconds);\n        for (uint128 i = 0; i < predictableAssets.length; i++) {\n            uint amount = ((dayAssetTotalAmount[dayCount][predictableAssets[i]]) * 10/100);\n            //IERC20(Dai).approve(IBA, amount);\n            IERC20(Dai).approve(address(lendingPool), amount);\n            lendingPool.deposit(\n                Dai,\n                uint(amount),\n                address(moonSquare),\n                0\n            );\n        }\n    }\n\n\n    \n}",
  "sourcePath": "contracts/DailyRocket.sol",
  "type": "contract"
}