{
  "abi": [
    {
      "inputs": [
        {
          "internalType": "contract IMoonSquares",
          "name": "_moonsqr",
          "type": "address"
        }
      ],
      "stateMutability": "nonpayable",
      "type": "constructor"
    },
    {
      "anonymous": false,
      "inputs": [
        {
          "indexed": true,
          "internalType": "address",
          "name": "previousOwner",
          "type": "address"
        },
        {
          "indexed": true,
          "internalType": "address",
          "name": "newOwner",
          "type": "address"
        }
      ],
      "name": "OwnershipTransferred",
      "type": "event"
    },
    {
      "anonymous": false,
      "inputs": [
        {
          "indexed": true,
          "internalType": "address",
          "name": "_placer",
          "type": "address"
        },
        {
          "indexed": false,
          "internalType": "int256",
          "name": "_prediction",
          "type": "int256"
        }
      ],
      "name": "Predicted",
      "type": "event"
    },
    {
      "inputs": [
        {
          "internalType": "string",
          "name": "",
          "type": "string"
        }
      ],
      "name": "activeAsset",
      "outputs": [
        {
          "internalType": "bool",
          "name": "",
          "type": "bool"
        }
      ],
      "stateMutability": "view",
      "type": "function"
    },
    {
      "inputs": [
        {
          "internalType": "string",
          "name": "_asset",
          "type": "string"
        },
        {
          "internalType": "address",
          "name": "_aggregator",
          "type": "address"
        }
      ],
      "name": "addAssetAndAgg",
      "outputs": [],
      "stateMutability": "nonpayable",
      "type": "function"
    },
    {
      "inputs": [
        {
          "internalType": "bytes",
          "name": "checkData",
          "type": "bytes"
        }
      ],
      "name": "checkUpkeep",
      "outputs": [
        {
          "internalType": "bool",
          "name": "upkeepNeeded",
          "type": "bool"
        },
        {
          "internalType": "bytes",
          "name": "performData",
          "type": "bytes"
        }
      ],
      "stateMutability": "view",
      "type": "function"
    },
    {
      "inputs": [
        {
          "internalType": "uint128",
          "name": "_day",
          "type": "uint128"
        },
        {
          "internalType": "string",
          "name": "_asset",
          "type": "string"
        }
      ],
      "name": "claimWinnings",
      "outputs": [],
      "stateMutability": "nonpayable",
      "type": "function"
    },
    {
      "inputs": [],
      "name": "contractStartTime",
      "outputs": [
        {
          "internalType": "uint256",
          "name": "",
          "type": "uint256"
        }
      ],
      "stateMutability": "view",
      "type": "function"
    },
    {
      "inputs": [
        {
          "internalType": "uint128",
          "name": "",
          "type": "uint128"
        },
        {
          "internalType": "string",
          "name": "",
          "type": "string"
        },
        {
          "internalType": "uint256",
          "name": "",
          "type": "uint256"
        }
      ],
      "name": "dailyAssetWinners",
      "outputs": [
        {
          "internalType": "address",
          "name": "",
          "type": "address"
        }
      ],
      "stateMutability": "view",
      "type": "function"
    },
    {
      "inputs": [
        {
          "internalType": "uint256",
          "name": "",
          "type": "uint256"
        },
        {
          "internalType": "string",
          "name": "",
          "type": "string"
        }
      ],
      "name": "dayAssetInfo",
      "outputs": [
        {
          "internalType": "int256",
          "name": "closePrice",
          "type": "int256"
        },
        {
          "internalType": "uint256",
          "name": "noOfPlayers",
          "type": "uint256"
        },
        {
          "internalType": "uint256",
          "name": "noOfWinners",
          "type": "uint256"
        },
        {
          "internalType": "uint256",
          "name": "totalAmount",
          "type": "uint256"
        }
      ],
      "stateMutability": "view",
      "type": "function"
    },
    {
      "inputs": [
        {
          "internalType": "uint256",
          "name": "",
          "type": "uint256"
        },
        {
          "internalType": "string",
          "name": "",
          "type": "string"
        },
        {
          "internalType": "uint256",
          "name": "",
          "type": "uint256"
        }
      ],
      "name": "dayAssetPrediction",
      "outputs": [
        {
          "internalType": "int256",
          "name": "",
          "type": "int256"
        }
      ],
      "stateMutability": "view",
      "type": "function"
    },
    {
      "inputs": [
        {
          "internalType": "uint256",
          "name": "",
          "type": "uint256"
        },
        {
          "internalType": "string",
          "name": "",
          "type": "string"
        },
        {
          "internalType": "uint256",
          "name": "",
          "type": "uint256"
        }
      ],
      "name": "dayAssetPredictors",
      "outputs": [
        {
          "internalType": "address",
          "name": "",
          "type": "address"
        }
      ],
      "stateMutability": "view",
      "type": "function"
    },
    {
      "inputs": [
        {
          "internalType": "uint128",
          "name": "",
          "type": "uint128"
        },
        {
          "internalType": "string",
          "name": "",
          "type": "string"
        },
        {
          "internalType": "address",
          "name": "",
          "type": "address"
        }
      ],
      "name": "dayAssetUserPrediction",
      "outputs": [
        {
          "internalType": "int256",
          "name": "prediction",
          "type": "int256"
        },
        {
          "internalType": "uint256",
          "name": "time",
          "type": "uint256"
        },
        {
          "internalType": "bool",
          "name": "isWinner",
          "type": "bool"
        }
      ],
      "stateMutability": "view",
      "type": "function"
    },
    {
      "inputs": [],
      "name": "dayCount",
      "outputs": [
        {
          "internalType": "uint128",
          "name": "",
          "type": "uint128"
        }
      ],
      "stateMutability": "view",
      "type": "function"
    },
    {
      "inputs": [
        {
          "internalType": "uint256",
          "name": "_aggindex",
          "type": "uint256"
        }
      ],
      "name": "getPrice",
      "outputs": [
        {
          "internalType": "int256",
          "name": "",
          "type": "int256"
        }
      ],
      "stateMutability": "view",
      "type": "function"
    },
    {
      "inputs": [],
      "name": "getTime",
      "outputs": [
        {
          "internalType": "uint256",
          "name": "",
          "type": "uint256"
        }
      ],
      "stateMutability": "view",
      "type": "function"
    },
    {
      "inputs": [
        {
          "internalType": "uint128",
          "name": "_day",
          "type": "uint128"
        },
        {
          "internalType": "string",
          "name": "_asset",
          "type": "string"
        },
        {
          "internalType": "address",
          "name": "checked",
          "type": "address"
        }
      ],
      "name": "isAwinner",
      "outputs": [
        {
          "internalType": "bool",
          "name": "",
          "type": "bool"
        }
      ],
      "stateMutability": "view",
      "type": "function"
    },
    {
      "inputs": [],
      "name": "moonSquare",
      "outputs": [
        {
          "internalType": "contract IMoonSquares",
          "name": "",
          "type": "address"
        }
      ],
      "stateMutability": "view",
      "type": "function"
    },
    {
      "inputs": [],
      "name": "owner",
      "outputs": [
        {
          "internalType": "address",
          "name": "",
          "type": "address"
        }
      ],
      "stateMutability": "view",
      "type": "function"
    },
    {
      "inputs": [
        {
          "internalType": "bytes",
          "name": "performData",
          "type": "bytes"
        }
      ],
      "name": "performUpkeep",
      "outputs": [],
      "stateMutability": "nonpayable",
      "type": "function"
    },
    {
      "inputs": [
        {
          "internalType": "string",
          "name": "_asset",
          "type": "string"
        },
        {
          "internalType": "int256",
          "name": "_prediction",
          "type": "int256"
        }
      ],
      "name": "predictClosePrice",
      "outputs": [],
      "stateMutability": "nonpayable",
      "type": "function"
    },
    {
      "inputs": [
        {
          "internalType": "uint256",
          "name": "",
          "type": "uint256"
        }
      ],
      "name": "predictableAssets",
      "outputs": [
        {
          "internalType": "string",
          "name": "",
          "type": "string"
        }
      ],
      "stateMutability": "view",
      "type": "function"
    },
    {
      "inputs": [
        {
          "internalType": "address",
          "name": "",
          "type": "address"
        }
      ],
      "name": "presentCharities",
      "outputs": [
        {
          "internalType": "bytes8",
          "name": "name",
          "type": "bytes8"
        },
        {
          "internalType": "bytes32",
          "name": "link",
          "type": "bytes32"
        }
      ],
      "stateMutability": "view",
      "type": "function"
    },
    {
      "inputs": [],
      "name": "renounceOwnership",
      "outputs": [],
      "stateMutability": "nonpayable",
      "type": "function"
    },
    {
      "inputs": [
        {
          "internalType": "address",
          "name": "newOwner",
          "type": "address"
        }
      ],
      "name": "transferOwnership",
      "outputs": [],
      "stateMutability": "nonpayable",
      "type": "function"
    }
  ],
  "bytecode": "60806040819052600180546001600160a01b0319167388757f2f99175387ab4c6a4b3067c77a695b0349908117909155630261bf8b60e01b825290630261bf8b90608490602090600481865afa1580156200005e573d6000803e3d6000fd5b505050506040513d601f19601f82011682018060405250810190620000849190620001cb565b600280546001600160a01b03929092166001600160a01b0319928316179055600a805490911673ff795577d9ac8bd7d90ee22b6c1703490b6512fd179055348015620000cf57600080fd5b50604051620021cb380380620021cb833981016040819052620000f291620001cb565b620000fd3362000162565b600380546001600160a01b0319166001600160a01b03831617905542600b819055600480546001600160801b0319166001179055620001409062015180620001f2565b6004546001600160801b03166000908152600960205260409020555062000219565b600080546001600160a01b038381166001600160a01b0319831681178455604051919092169283917f8be0079c531659141344cd1fd0a4f28419497f9722a3daafe3b4186f6b6457e09190a35050565b6001600160a01b0381168114620001c857600080fd5b50565b600060208284031215620001de57600080fd5b8151620001eb81620001b2565b9392505050565b600082198211156200021457634e487b7160e01b600052601160045260246000fd5b500190565b611fa280620002296000396000f3fe608060405234801561001057600080fd5b50600436106101425760003560e01c806381688c64116100b8578063c2aba3f01161007c578063c2aba3f01461035e578063e4d5d7d6146103cf578063e7572230146103e2578063ec6f4f41146103f5578063f2fde38b14610423578063fd2faa681461043657600080fd5b806381688c641461029357806381924dfa146102a657806385afa270146103175780638da5cb5b1461033a578063afa3a6171461034b57600080fd5b80634585e33b1161010a5780634585e33b1461021157806347ce529a14610224578063557ed1ba1461024f5780635f90f0b7146102575780636e04ff0d1461026a578063715018a61461028b57600080fd5b80630c3d515714610147578063126df02b14610163578063151bf852146101b15780631cc87d88146101d1578063266e2a56146101e6575b600080fd5b610150600b5481565b6040519081526020015b60405180910390f35b610191610171366004611873565b600e602052600090815260409020805460019091015460c09190911b9082565b604080516001600160c01b0319909316835260208301919091520161015a565b6101c46101bf36600461188e565b610449565b60405161015a91906118ff565b6101e46101df3660046119cc565b6104f5565b005b6004546101f9906001600160801b031681565b6040516001600160801b03909116815260200161015a565b6101e461021f366004611a1a565b6106fb565b610237610232366004611a8c565b610775565b6040516001600160a01b03909116815260200161015a565b6101506107c9565b610237610265366004611ae3565b610852565b61027d610278366004611a1a565b610889565b60405161015a929190611b16565b6101e4610999565b6101e46102a1366004611b39565b6109d8565b6102f76102b4366004611b87565b6008602090815260009283526040909220815180830184018051928152908401929093019190912091528054600182015460028301546003909301549192909184565b60408051948552602085019390935291830152606082015260800161015a565b61032a610325366004611bb8565b610ac7565b604051901515815260200161015a565b6000546001600160a01b0316610237565b610150610359366004611ae3565b610ba1565b6103b261036c366004611bb8565b6010602090815260009384526040808520845180860184018051928152908401958401959095209452929052825290208054600182015460029092015490919060ff1683565b60408051938452602084019290925215159082015260600161015a565b6101e46103dd366004611c16565b610bee565b6101506103f036600461188e565b610f43565b61032a610403366004611c5b565b805160208183018101805160078252928201919093012091525460ff1681565b6101e4610431366004611873565b610fea565b600354610237906001600160a01b031681565b6005818154811061045957600080fd5b90600052602060002001600091509050805461047490611c90565b80601f01602080910402602001604051908101604052809291908181526020018280546104a090611c90565b80156104ed5780601f106104c2576101008083540402835291602001916104ed565b820191906000526020600020905b8154815290600101906020018083116104d057829003601f168201915b505050505081565b6001600160801b03821660009081526008602052604090819020905161051c908390611ccb565b908152604080519182900360209081018320546001600160801b038616600090815260109092529190209091610553908490611ccb565b908152604080516020928190038301902033600090815292529020541461057957600080fd5b6001600160801b038216600090815260086020526040808220905161059f908490611ccb565b9081526020016040518091039020600201549050600160106000856001600160801b03166001600160801b03168152602001908152602001600020836040516105e89190611ccb565b9081526040805160209281900383018120336000818152918552838220600201805460ff191696151596909617909555600a546001600160801b03891682526008909452919091206001600160a01b039092169263a9059cbb9290918591606491610654908990611ccb565b908152602001604051809103902060030154605a6106729190611cfd565b61067c9190611d1c565b6106869190611d1c565b6040516001600160e01b031960e085901b1681526001600160a01b03909216600483015260248201526044016020604051808303816000875af11580156106d1573d6000803e3d6000fd5b505050506040513d601f19601f820116820180604052508101906106f59190611d3e565b50505050565b60006107098284018461188e565b90508061075f57610718611085565b610720611102565b600480546001600160801b031690600061073983611d60565b91906101000a8154816001600160801b0302191690836001600160801b03160217905550505b806001141561077057610770611583565b505050565b600f60209081526000848152604090208351808501830180519281529083019285019290922091528054829081106107ac57600080fd5b6000918252602090912001546001600160a01b0316925083915050565b600080736135b13325bfc4b00278b4abc5e20bbce2d6580e90506000816001600160a01b031663feaf968c6040518163ffffffff1660e01b815260040160a060405180830381865afa158015610823573d6000803e3d6000fd5b505050506040513d601f19601f820116820180604052508101906108479190611da1565b509695505050505050565b600d60209081526000848152604090208351808501830180519281529083019285019290922091528054829081106107ac57600080fd5b600060606108956107c9565b6004546001600160801b03166000908152600960205260409020546108bd9062015180611df1565b14156108ee576040805160006020820152600193508391015b60405160208183030381529060405291509150610992565b60045460099060009061090c906001906001600160801b0316611e09565b6001600160801b031681526020019081526020016000205461fd206109319190611df1565b6109396107c9565b111561095857600191506001806040516020016108d691815260200190565b83838080601f0160208091040260200160405190810160405280939291908181526020018383808284376000920191909152509293505050505b9250929050565b6000546001600160a01b031633146109cc5760405162461bcd60e51b81526004016109c390611e31565b60405180910390fd5b6109d6600061176e565b565b6000546001600160a01b03163314610a025760405162461bcd60e51b81526004016109c390611e31565b600580546001810182556000919091528251610a45917f036b6384b5eca791c62761152d0c79bb0604c104a5fb6f4eb0703f3154bb3db0019060208501906117be565b5060068054600180820183556000929092527ff652222313e28459528d920b65115c16c04f3efc82aaedc97be59f3f377c0d3f0180546001600160a01b0319166001600160a01b038416179055604051600790610aa3908590611ccb565b908152604051908190036020019020805491151560ff199092169190911790555050565b6001600160801b0383166000908152600860205260408082209051610aed908590611ccb565b90815260405190819003602001902054610b0957506000610b9a565b6001600160801b038416600090815260086020526040908190209051610b30908590611ccb565b908152604080519182900360209081018320546001600160801b038816600090815260109092529190209091610b67908690611ccb565b90815260408051602092819003830190206001600160a01b0386166000908152925290205414610b9657600080fd5b5060015b9392505050565b600c6020908152600084815260409020835180850183018051928152908301928501929092209152805482908110610bd857600080fd5b9060005260206000200160009250925050505481565b600782604051610bfe9190611ccb565b9081526040519081900360200190205460ff161515600114610c1f57600080fd5b60045460016001600160801b039091161115610c8b57600454600990600090610c53906001906001600160801b0316611e09565b6001600160801b031681526020019081526020016000205461fd20610c789190611df1565b610c806107c9565b1115610c8b57600080fd5b600a54604051636eb1769f60e11b8152336004820152306024820152678ac7230489e800009182916001600160a01b039091169063dd62ed3e90604401602060405180830381865afa158015610ce5573d6000803e3d6000fd5b505050506040513d601f19601f82011682018060405250810190610d099190611e66565b1015610d1457600080fd5b600a546040516323b872dd60e01b8152336004820152306024820152604481018390526001600160a01b03909116906323b872dd906064016020604051808303816000875af1158015610d6b573d6000803e3d6000fd5b505050506040513d601f19601f82011682018060405250810190610d8f9190611d3e565b506004546001600160801b0316600090815260086020526040908190209051829190610dbc908690611ccb565b90815260200160405180910390206003016000828254610ddc9190611df1565b925050819055506040518060600160405280838152602001610dfc6107c9565b8152600060209182018190526004546001600160801b0316815260109091526040908190209051610e2e908690611ccb565b908152604080516020928190038301812033600090815290845282812085518155858501516001820155948301516002909501805460ff1916951515959095179094556004546001600160801b03168452600c90925290912090610e93908590611ccb565b90815260408051918290036020908101832080546001810182556000918252828220018690556004546001600160801b03168152600d9091522090610ed9908590611ccb565b908152604051602091819003820181208054600181018255600091825290839020018054336001600160a01b03199091168117909155848252917f10fe2ed8f3daa306f14de54294a550f0f7dec5e7138f0cf277eac43bc95aab6f910160405180910390a2505050565b60008060068381548110610f5957610f59611e7f565b9060005260206000200160009054906101000a90046001600160a01b031690506000816001600160a01b031663feaf968c6040518163ffffffff1660e01b815260040160a060405180830381865afa158015610fb9573d6000803e3d6000fd5b505050506040513d601f19601f82011682018060405250810190610fdd9190611da1565b5091979650505050505050565b6000546001600160a01b031633146110145760405162461bcd60e51b81526004016109c390611e31565b6001600160a01b0381166110795760405162461bcd60e51b815260206004820152602660248201527f4f776e61626c653a206e6577206f776e657220697320746865207a65726f206160448201526564647265737360d01b60648201526084016109c3565b6110828161176e565b50565b60005b6006548110156110825761109b81610f43565b6004546001600160801b0316600090815260086020526040902060058054849081106110c9576110c9611e7f565b906000526020600020016040516110e09190611e95565b90815260405190819003602001902055806110fa81611f31565b915050611088565b6004546001600160801b031660005b60055460ff8216101561157f576001600160801b0382166000908152600d602052604090206005805460ff841690811061114d5761114d611e7f565b906000526020600020016040516111649190611e95565b908152602001604051809103902080549050600c6000846001600160801b0316815260200190815260200160002060058360ff16815481106111a8576111a8611e7f565b906000526020600020016040516111bf9190611e95565b90815260405190819003602001902054146111d957600080fd5b60005b6001600160801b0383166000908152600c602052604090206005805460ff851690811061120b5761120b611e7f565b906000526020600020016040516112229190611e95565b9081526040519081900360200190205460ff8216101561156c576001600160801b03831660009081526008602052604090206005805460ff851690811061126b5761126b611e7f565b906000526020600020016040516112829190611e95565b908152602001604051809103902060000154600c6000856001600160801b0316815260200190815260200160002060058460ff16815481106112c6576112c6611e7f565b906000526020600020016040516112dd9190611e95565b90815260200160405180910390208260ff16815481106112ff576112ff611e7f565b90600052602060002001541461131457600080fd5b6001600160801b0383166000908152600f602052604090206005805460ff851690811061134357611343611e7f565b9060005260206000200160405161135a9190611e95565b9081526020016040518091039020600d6000856001600160801b0316815260200190815260200160002060058460ff168154811061139a5761139a611e7f565b906000526020600020016040516113b19190611e95565b90815260200160405180910390208260ff16815481106113d3576113d3611e7f565b60009182526020808320909101548354600181810186559484528284200180546001600160a01b0319166001600160a01b039092169190911790556001600160801b038616825260089052604090206005805460ff861690811061143957611439611e7f565b906000526020600020016040516114509190611e95565b908152602001604051809103902060020160008282546114709190611df1565b90915550506003546001600160801b0384166000908152600d60205260409020600580546001600160a01b0390931692638ebfa8ae92919060ff87169081106114bb576114bb611e7f565b906000526020600020016040516114d29190611e95565b90815260200160405180910390208360ff16815481106114f4576114f4611e7f565b60009182526020909120015460405160e083901b6001600160e01b03191681526001600160a01b039091166004820152602401600060405180830381600087803b15801561154157600080fd5b505af1158015611555573d6000803e3d6000fd5b50505050808061156490611f4c565b9150506111dc565b508061157781611f4c565b915050611111565b5050565b6004546009906000906115a1906001906001600160801b0316611e09565b6001600160801b031681526020019081526020016000205461fd206115c69190611df1565b6115ce6107c9565b116115d857600080fd5b60005b6005546001600160801b0382161015611082576004546001600160801b03908116600090815260086020526040812060058054929360649390861690811061162557611625611e7f565b9060005260206000200160405161163c9190611e95565b908152602001604051809103902060030154600a61165a9190611cfd565b6116649190611d1c565b600a5460025460405163095ea7b360e01b81526001600160a01b03918216600482015260248101849052929350169063095ea7b3906044016020604051808303816000875af11580156116bb573d6000803e3d6000fd5b505050506040513d601f19601f820116820180604052508101906116df9190611d3e565b50600254600a5460035460405163e8eda9df60e01b81526001600160a01b0392831660048201526024810185905290821660448201526000606482015291169063e8eda9df90608401600060405180830381600087803b15801561174257600080fd5b505af1158015611756573d6000803e3d6000fd5b5050505050808061176690611d60565b9150506115db565b600080546001600160a01b038381166001600160a01b0319831681178455604051919092169283917f8be0079c531659141344cd1fd0a4f28419497f9722a3daafe3b4186f6b6457e09190a35050565b8280546117ca90611c90565b90600052602060002090601f0160209004810192826117ec5760008555611832565b82601f1061180557805160ff1916838001178555611832565b82800160010185558215611832579182015b82811115611832578251825591602001919060010190611817565b5061183e929150611842565b5090565b5b8082111561183e5760008155600101611843565b80356001600160a01b038116811461186e57600080fd5b919050565b60006020828403121561188557600080fd5b610b9a82611857565b6000602082840312156118a057600080fd5b5035919050565b60005b838110156118c25781810151838201526020016118aa565b838111156106f55750506000910152565b600081518084526118eb8160208601602086016118a7565b601f01601f19169290920160200192915050565b602081526000610b9a60208301846118d3565b80356001600160801b038116811461186e57600080fd5b634e487b7160e01b600052604160045260246000fd5b600082601f83011261195057600080fd5b813567ffffffffffffffff8082111561196b5761196b611929565b604051601f8301601f19908116603f0116810190828211818310171561199357611993611929565b816040528381528660208588010111156119ac57600080fd5b836020870160208301376000602085830101528094505050505092915050565b600080604083850312156119df57600080fd5b6119e883611912565b9150602083013567ffffffffffffffff811115611a0457600080fd5b611a108582860161193f565b9150509250929050565b60008060208385031215611a2d57600080fd5b823567ffffffffffffffff80821115611a4557600080fd5b818501915085601f830112611a5957600080fd5b813581811115611a6857600080fd5b866020828501011115611a7a57600080fd5b60209290920196919550909350505050565b600080600060608486031215611aa157600080fd5b611aaa84611912565b9250602084013567ffffffffffffffff811115611ac657600080fd5b611ad28682870161193f565b925050604084013590509250925092565b600080600060608486031215611af857600080fd5b83359250602084013567ffffffffffffffff811115611ac657600080fd5b8215158152604060208201526000611b3160408301846118d3565b949350505050565b60008060408385031215611b4c57600080fd5b823567ffffffffffffffff811115611b6357600080fd5b611b6f8582860161193f565b925050611b7e60208401611857565b90509250929050565b60008060408385031215611b9a57600080fd5b82359150602083013567ffffffffffffffff811115611a0457600080fd5b600080600060608486031215611bcd57600080fd5b611bd684611912565b9250602084013567ffffffffffffffff811115611bf257600080fd5b611bfe8682870161193f565b925050611c0d60408501611857565b90509250925092565b60008060408385031215611c2957600080fd5b823567ffffffffffffffff811115611c4057600080fd5b611c4c8582860161193f565b95602094909401359450505050565b600060208284031215611c6d57600080fd5b813567ffffffffffffffff811115611c8457600080fd5b611b318482850161193f565b600181811c90821680611ca457607f821691505b60208210811415611cc557634e487b7160e01b600052602260045260246000fd5b50919050565b60008251611cdd8184602087016118a7565b9190910192915050565b634e487b7160e01b600052601160045260246000fd5b6000816000190483118215151615611d1757611d17611ce7565b500290565b600082611d3957634e487b7160e01b600052601260045260246000fd5b500490565b600060208284031215611d5057600080fd5b81518015158114610b9a57600080fd5b60006001600160801b0380831681811415611d7d57611d7d611ce7565b6001019392505050565b805169ffffffffffffffffffff8116811461186e57600080fd5b600080600080600060a08688031215611db957600080fd5b611dc286611d87565b9450602086015193506040860151925060608601519150611de560808701611d87565b90509295509295909350565b60008219821115611e0457611e04611ce7565b500190565b60006001600160801b0383811690831681811015611e2957611e29611ce7565b039392505050565b6020808252818101527f4f776e61626c653a2063616c6c6572206973206e6f7420746865206f776e6572604082015260600190565b600060208284031215611e7857600080fd5b5051919050565b634e487b7160e01b600052603260045260246000fd5b600080835481600182811c915080831680611eb157607f831692505b6020808410821415611ed157634e487b7160e01b86526022600452602486fd5b818015611ee55760018114611ef657611f23565b60ff19861689528489019650611f23565b60008a81526020902060005b86811015611f1b5781548b820152908501908301611f02565b505084890196505b509498975050505050505050565b6000600019821415611f4557611f45611ce7565b5060010190565b600060ff821660ff811415611f6357611f63611ce7565b6001019291505056fea2646970667358221220522c2ea185ec9ed172daebb475bc353215dcf5afca6aadd5a9da88e74874ccc264736f6c634300080b0033",
  "bytecodeSha1": "a1768fe42fa7471af762c4069e93ea353e351feb",
  "compiler": {
    "evm_version": "istanbul",
    "optimizer": {
      "enabled": true,
      "runs": 200
    },
    "version": "0.8.11+commit.d7f03943"
  },
  "contractName": "DailyRocket",
  "language": "Solidity",
  "natspec": {
    "kind": "dev",
    "methods": {
      "checkUpkeep(bytes)": {
        "notice": "checks if the contract requires work to be done.",
        "params": {
          "checkData": "data passed to the contract when checking for upkeep."
        },
        "returns": {
          "performData": "bytes that the keeper should call performUpkeep with, if upkeep is needed.",
          "upkeepNeeded": "boolean to indicate whether the keeper should call performUpkeep or not."
        }
      },
      "owner()": {
        "details": "Returns the address of the current owner."
      },
      "performUpkeep(bytes)": {
        "notice": "Performs work on the contract. Executed by the keepers, via the registry.",
        "params": {
          "performData": "is the data which was passed back from the checkData simulation."
        }
      },
      "renounceOwnership()": {
        "details": "Leaves the contract without owner. It will not be possible to call `onlyOwner` functions anymore. Can only be called by the current owner. NOTE: Renouncing ownership will leave the contract without an owner, thereby removing any functionality that is only available to the owner."
      },
      "transferOwnership(address)": {
        "details": "Transfers ownership of the contract to a new account (`newOwner`). Can only be called by the current owner."
      }
    },
    "version": 1
  },
  "opcodes": "PUSH1 0x80 PUSH1 0x40 MSTORE CALLVALUE DUP1 ISZERO PUSH2 0x10 JUMPI PUSH1 0x0 DUP1 REVERT JUMPDEST POP PUSH1 0x4 CALLDATASIZE LT PUSH2 0x142 JUMPI PUSH1 0x0 CALLDATALOAD PUSH1 0xE0 SHR DUP1 PUSH4 0x81688C64 GT PUSH2 0xB8 JUMPI DUP1 PUSH4 0xC2ABA3F0 GT PUSH2 0x7C JUMPI DUP1 PUSH4 0xC2ABA3F0 EQ PUSH2 0x35E JUMPI DUP1 PUSH4 0xE4D5D7D6 EQ PUSH2 0x3CF JUMPI DUP1 PUSH4 0xE7572230 EQ PUSH2 0x3E2 JUMPI DUP1 PUSH4 0xEC6F4F41 EQ PUSH2 0x3F5 JUMPI DUP1 PUSH4 0xF2FDE38B EQ PUSH2 0x423 JUMPI DUP1 PUSH4 0xFD2FAA68 EQ PUSH2 0x436 JUMPI PUSH1 0x0 DUP1 REVERT JUMPDEST DUP1 PUSH4 0x81688C64 EQ PUSH2 0x293 JUMPI DUP1 PUSH4 0x81924DFA EQ PUSH2 0x2A6 JUMPI DUP1 PUSH4 0x85AFA270 EQ PUSH2 0x317 JUMPI DUP1 PUSH4 0x8DA5CB5B EQ PUSH2 0x33A JUMPI DUP1 PUSH4 0xAFA3A617 EQ PUSH2 0x34B JUMPI PUSH1 0x0 DUP1 REVERT JUMPDEST DUP1 PUSH4 0x4585E33B GT PUSH2 0x10A JUMPI DUP1 PUSH4 0x4585E33B EQ PUSH2 0x211 JUMPI DUP1 PUSH4 0x47CE529A EQ PUSH2 0x224 JUMPI DUP1 PUSH4 0x557ED1BA EQ PUSH2 0x24F JUMPI DUP1 PUSH4 0x5F90F0B7 EQ PUSH2 0x257 JUMPI DUP1 PUSH4 0x6E04FF0D EQ PUSH2 0x26A JUMPI DUP1 PUSH4 0x715018A6 EQ PUSH2 0x28B JUMPI PUSH1 0x0 DUP1 REVERT JUMPDEST DUP1 PUSH4 0xC3D5157 EQ PUSH2 0x147 JUMPI DUP1 PUSH4 0x126DF02B EQ PUSH2 0x163 JUMPI DUP1 PUSH4 0x151BF852 EQ PUSH2 0x1B1 JUMPI DUP1 PUSH4 0x1CC87D88 EQ PUSH2 0x1D1 JUMPI DUP1 PUSH4 0x266E2A56 EQ PUSH2 0x1E6 JUMPI JUMPDEST PUSH1 0x0 DUP1 REVERT JUMPDEST PUSH2 0x150 PUSH1 0xB SLOAD DUP2 JUMP JUMPDEST PUSH1 0x40 MLOAD SWAP1 DUP2 MSTORE PUSH1 0x20 ADD JUMPDEST PUSH1 0x40 MLOAD DUP1 SWAP2 SUB SWAP1 RETURN JUMPDEST PUSH2 0x191 PUSH2 0x171 CALLDATASIZE PUSH1 0x4 PUSH2 0x1873 JUMP JUMPDEST PUSH1 0xE PUSH1 0x20 MSTORE PUSH1 0x0 SWAP1 DUP2 MSTORE PUSH1 0x40 SWAP1 KECCAK256 DUP1 SLOAD PUSH1 0x1 SWAP1 SWAP2 ADD SLOAD PUSH1 0xC0 SWAP2 SWAP1 SWAP2 SHL SWAP1 DUP3 JUMP JUMPDEST PUSH1 0x40 DUP1 MLOAD PUSH1 0x1 PUSH1 0x1 PUSH1 0xC0 SHL SUB NOT SWAP1 SWAP4 AND DUP4 MSTORE PUSH1 0x20 DUP4 ADD SWAP2 SWAP1 SWAP2 MSTORE ADD PUSH2 0x15A JUMP JUMPDEST PUSH2 0x1C4 PUSH2 0x1BF CALLDATASIZE PUSH1 0x4 PUSH2 0x188E JUMP JUMPDEST PUSH2 0x449 JUMP JUMPDEST PUSH1 0x40 MLOAD PUSH2 0x15A SWAP2 SWAP1 PUSH2 0x18FF JUMP JUMPDEST PUSH2 0x1E4 PUSH2 0x1DF CALLDATASIZE PUSH1 0x4 PUSH2 0x19CC JUMP JUMPDEST PUSH2 0x4F5 JUMP JUMPDEST STOP JUMPDEST PUSH1 0x4 SLOAD PUSH2 0x1F9 SWAP1 PUSH1 0x1 PUSH1 0x1 PUSH1 0x80 SHL SUB AND DUP2 JUMP JUMPDEST PUSH1 0x40 MLOAD PUSH1 0x1 PUSH1 0x1 PUSH1 0x80 SHL SUB SWAP1 SWAP2 AND DUP2 MSTORE PUSH1 0x20 ADD PUSH2 0x15A JUMP JUMPDEST PUSH2 0x1E4 PUSH2 0x21F CALLDATASIZE PUSH1 0x4 PUSH2 0x1A1A JUMP JUMPDEST PUSH2 0x6FB JUMP JUMPDEST PUSH2 0x237 PUSH2 0x232 CALLDATASIZE PUSH1 0x4 PUSH2 0x1A8C JUMP JUMPDEST PUSH2 0x775 JUMP JUMPDEST PUSH1 0x40 MLOAD PUSH1 0x1 PUSH1 0x1 PUSH1 0xA0 SHL SUB SWAP1 SWAP2 AND DUP2 MSTORE PUSH1 0x20 ADD PUSH2 0x15A JUMP JUMPDEST PUSH2 0x150 PUSH2 0x7C9 JUMP JUMPDEST PUSH2 0x237 PUSH2 0x265 CALLDATASIZE PUSH1 0x4 PUSH2 0x1AE3 JUMP JUMPDEST PUSH2 0x852 JUMP JUMPDEST PUSH2 0x27D PUSH2 0x278 CALLDATASIZE PUSH1 0x4 PUSH2 0x1A1A JUMP JUMPDEST PUSH2 0x889 JUMP JUMPDEST PUSH1 0x40 MLOAD PUSH2 0x15A SWAP3 SWAP2 SWAP1 PUSH2 0x1B16 JUMP JUMPDEST PUSH2 0x1E4 PUSH2 0x999 JUMP JUMPDEST PUSH2 0x1E4 PUSH2 0x2A1 CALLDATASIZE PUSH1 0x4 PUSH2 0x1B39 JUMP JUMPDEST PUSH2 0x9D8 JUMP JUMPDEST PUSH2 0x2F7 PUSH2 0x2B4 CALLDATASIZE PUSH1 0x4 PUSH2 0x1B87 JUMP JUMPDEST PUSH1 0x8 PUSH1 0x20 SWAP1 DUP2 MSTORE PUSH1 0x0 SWAP3 DUP4 MSTORE PUSH1 0x40 SWAP1 SWAP3 KECCAK256 DUP2 MLOAD DUP1 DUP4 ADD DUP5 ADD DUP1 MLOAD SWAP3 DUP2 MSTORE SWAP1 DUP5 ADD SWAP3 SWAP1 SWAP4 ADD SWAP2 SWAP1 SWAP2 KECCAK256 SWAP2 MSTORE DUP1 SLOAD PUSH1 0x1 DUP3 ADD SLOAD PUSH1 0x2 DUP4 ADD SLOAD PUSH1 0x3 SWAP1 SWAP4 ADD SLOAD SWAP2 SWAP3 SWAP1 SWAP2 DUP5 JUMP JUMPDEST PUSH1 0x40 DUP1 MLOAD SWAP5 DUP6 MSTORE PUSH1 0x20 DUP6 ADD SWAP4 SWAP1 SWAP4 MSTORE SWAP2 DUP4 ADD MSTORE PUSH1 0x60 DUP3 ADD MSTORE PUSH1 0x80 ADD PUSH2 0x15A JUMP JUMPDEST PUSH2 0x32A PUSH2 0x325 CALLDATASIZE PUSH1 0x4 PUSH2 0x1BB8 JUMP JUMPDEST PUSH2 0xAC7 JUMP JUMPDEST PUSH1 0x40 MLOAD SWAP1 ISZERO ISZERO DUP2 MSTORE PUSH1 0x20 ADD PUSH2 0x15A JUMP JUMPDEST PUSH1 0x0 SLOAD PUSH1 0x1 PUSH1 0x1 PUSH1 0xA0 SHL SUB AND PUSH2 0x237 JUMP JUMPDEST PUSH2 0x150 PUSH2 0x359 CALLDATASIZE PUSH1 0x4 PUSH2 0x1AE3 JUMP JUMPDEST PUSH2 0xBA1 JUMP JUMPDEST PUSH2 0x3B2 PUSH2 0x36C CALLDATASIZE PUSH1 0x4 PUSH2 0x1BB8 JUMP JUMPDEST PUSH1 0x10 PUSH1 0x20 SWAP1 DUP2 MSTORE PUSH1 0x0 SWAP4 DUP5 MSTORE PUSH1 0x40 DUP1 DUP6 KECCAK256 DUP5 MLOAD DUP1 DUP7 ADD DUP5 ADD DUP1 MLOAD SWAP3 DUP2 MSTORE SWAP1 DUP5 ADD SWAP6 DUP5 ADD SWAP6 SWAP1 SWAP6 KECCAK256 SWAP5 MSTORE SWAP3 SWAP1 MSTORE DUP3 MSTORE SWAP1 KECCAK256 DUP1 SLOAD PUSH1 0x1 DUP3 ADD SLOAD PUSH1 0x2 SWAP1 SWAP3 ADD SLOAD SWAP1 SWAP2 SWAP1 PUSH1 0xFF AND DUP4 JUMP JUMPDEST PUSH1 0x40 DUP1 MLOAD SWAP4 DUP5 MSTORE PUSH1 0x20 DUP5 ADD SWAP3 SWAP1 SWAP3 MSTORE ISZERO ISZERO SWAP1 DUP3 ADD MSTORE PUSH1 0x60 ADD PUSH2 0x15A JUMP JUMPDEST PUSH2 0x1E4 PUSH2 0x3DD CALLDATASIZE PUSH1 0x4 PUSH2 0x1C16 JUMP JUMPDEST PUSH2 0xBEE JUMP JUMPDEST PUSH2 0x150 PUSH2 0x3F0 CALLDATASIZE PUSH1 0x4 PUSH2 0x188E JUMP JUMPDEST PUSH2 0xF43 JUMP JUMPDEST PUSH2 0x32A PUSH2 0x403 CALLDATASIZE PUSH1 0x4 PUSH2 0x1C5B JUMP JUMPDEST DUP1 MLOAD PUSH1 0x20 DUP2 DUP4 ADD DUP2 ADD DUP1 MLOAD PUSH1 0x7 DUP3 MSTORE SWAP3 DUP3 ADD SWAP2 SWAP1 SWAP4 ADD KECCAK256 SWAP2 MSTORE SLOAD PUSH1 0xFF AND DUP2 JUMP JUMPDEST PUSH2 0x1E4 PUSH2 0x431 CALLDATASIZE PUSH1 0x4 PUSH2 0x1873 JUMP JUMPDEST PUSH2 0xFEA JUMP JUMPDEST PUSH1 0x3 SLOAD PUSH2 0x237 SWAP1 PUSH1 0x1 PUSH1 0x1 PUSH1 0xA0 SHL SUB AND DUP2 JUMP JUMPDEST PUSH1 0x5 DUP2 DUP2 SLOAD DUP2 LT PUSH2 0x459 JUMPI PUSH1 0x0 DUP1 REVERT JUMPDEST SWAP1 PUSH1 0x0 MSTORE PUSH1 0x20 PUSH1 0x0 KECCAK256 ADD PUSH1 0x0 SWAP2 POP SWAP1 POP DUP1 SLOAD PUSH2 0x474 SWAP1 PUSH2 0x1C90 JUMP JUMPDEST DUP1 PUSH1 0x1F ADD PUSH1 0x20 DUP1 SWAP2 DIV MUL PUSH1 0x20 ADD PUSH1 0x40 MLOAD SWAP1 DUP2 ADD PUSH1 0x40 MSTORE DUP1 SWAP3 SWAP2 SWAP1 DUP2 DUP2 MSTORE PUSH1 0x20 ADD DUP3 DUP1 SLOAD PUSH2 0x4A0 SWAP1 PUSH2 0x1C90 JUMP JUMPDEST DUP1 ISZERO PUSH2 0x4ED JUMPI DUP1 PUSH1 0x1F LT PUSH2 0x4C2 JUMPI PUSH2 0x100 DUP1 DUP4 SLOAD DIV MUL DUP4 MSTORE SWAP2 PUSH1 0x20 ADD SWAP2 PUSH2 0x4ED JUMP JUMPDEST DUP3 ADD SWAP2 SWAP1 PUSH1 0x0 MSTORE PUSH1 0x20 PUSH1 0x0 KECCAK256 SWAP1 JUMPDEST DUP2 SLOAD DUP2 MSTORE SWAP1 PUSH1 0x1 ADD SWAP1 PUSH1 0x20 ADD DUP1 DUP4 GT PUSH2 0x4D0 JUMPI DUP3 SWAP1 SUB PUSH1 0x1F AND DUP3 ADD SWAP2 JUMPDEST POP POP POP POP POP DUP2 JUMP JUMPDEST PUSH1 0x1 PUSH1 0x1 PUSH1 0x80 SHL SUB DUP3 AND PUSH1 0x0 SWAP1 DUP2 MSTORE PUSH1 0x8 PUSH1 0x20 MSTORE PUSH1 0x40 SWAP1 DUP2 SWAP1 KECCAK256 SWAP1 MLOAD PUSH2 0x51C SWAP1 DUP4 SWAP1 PUSH2 0x1CCB JUMP JUMPDEST SWAP1 DUP2 MSTORE PUSH1 0x40 DUP1 MLOAD SWAP2 DUP3 SWAP1 SUB PUSH1 0x20 SWAP1 DUP2 ADD DUP4 KECCAK256 SLOAD PUSH1 0x1 PUSH1 0x1 PUSH1 0x80 SHL SUB DUP7 AND PUSH1 0x0 SWAP1 DUP2 MSTORE PUSH1 0x10 SWAP1 SWAP3 MSTORE SWAP2 SWAP1 KECCAK256 SWAP1 SWAP2 PUSH2 0x553 SWAP1 DUP5 SWAP1 PUSH2 0x1CCB JUMP JUMPDEST SWAP1 DUP2 MSTORE PUSH1 0x40 DUP1 MLOAD PUSH1 0x20 SWAP3 DUP2 SWAP1 SUB DUP4 ADD SWAP1 KECCAK256 CALLER PUSH1 0x0 SWAP1 DUP2 MSTORE SWAP3 MSTORE SWAP1 KECCAK256 SLOAD EQ PUSH2 0x579 JUMPI PUSH1 0x0 DUP1 REVERT JUMPDEST PUSH1 0x1 PUSH1 0x1 PUSH1 0x80 SHL SUB DUP3 AND PUSH1 0x0 SWAP1 DUP2 MSTORE PUSH1 0x8 PUSH1 0x20 MSTORE PUSH1 0x40 DUP1 DUP3 KECCAK256 SWAP1 MLOAD PUSH2 0x59F SWAP1 DUP5 SWAP1 PUSH2 0x1CCB JUMP JUMPDEST SWAP1 DUP2 MSTORE PUSH1 0x20 ADD PUSH1 0x40 MLOAD DUP1 SWAP2 SUB SWAP1 KECCAK256 PUSH1 0x2 ADD SLOAD SWAP1 POP PUSH1 0x1 PUSH1 0x10 PUSH1 0x0 DUP6 PUSH1 0x1 PUSH1 0x1 PUSH1 0x80 SHL SUB AND PUSH1 0x1 PUSH1 0x1 PUSH1 0x80 SHL SUB AND DUP2 MSTORE PUSH1 0x20 ADD SWAP1 DUP2 MSTORE PUSH1 0x20 ADD PUSH1 0x0 KECCAK256 DUP4 PUSH1 0x40 MLOAD PUSH2 0x5E8 SWAP2 SWAP1 PUSH2 0x1CCB JUMP JUMPDEST SWAP1 DUP2 MSTORE PUSH1 0x40 DUP1 MLOAD PUSH1 0x20 SWAP3 DUP2 SWAP1 SUB DUP4 ADD DUP2 KECCAK256 CALLER PUSH1 0x0 DUP2 DUP2 MSTORE SWAP2 DUP6 MSTORE DUP4 DUP3 KECCAK256 PUSH1 0x2 ADD DUP1 SLOAD PUSH1 0xFF NOT AND SWAP7 ISZERO ISZERO SWAP7 SWAP1 SWAP7 OR SWAP1 SWAP6 SSTORE PUSH1 0xA SLOAD PUSH1 0x1 PUSH1 0x1 PUSH1 0x80 SHL SUB DUP10 AND DUP3 MSTORE PUSH1 0x8 SWAP1 SWAP5 MSTORE SWAP2 SWAP1 SWAP2 KECCAK256 PUSH1 0x1 PUSH1 0x1 PUSH1 0xA0 SHL SUB SWAP1 SWAP3 AND SWAP3 PUSH4 0xA9059CBB SWAP3 SWAP1 SWAP2 DUP6 SWAP2 PUSH1 0x64 SWAP2 PUSH2 0x654 SWAP1 DUP10 SWAP1 PUSH2 0x1CCB JUMP JUMPDEST SWAP1 DUP2 MSTORE PUSH1 0x20 ADD PUSH1 0x40 MLOAD DUP1 SWAP2 SUB SWAP1 KECCAK256 PUSH1 0x3 ADD SLOAD PUSH1 0x5A PUSH2 0x672 SWAP2 SWAP1 PUSH2 0x1CFD JUMP JUMPDEST PUSH2 0x67C SWAP2 SWAP1 PUSH2 0x1D1C JUMP JUMPDEST PUSH2 0x686 SWAP2 SWAP1 PUSH2 0x1D1C JUMP JUMPDEST PUSH1 0x40 MLOAD PUSH1 0x1 PUSH1 0x1 PUSH1 0xE0 SHL SUB NOT PUSH1 0xE0 DUP6 SWAP1 SHL AND DUP2 MSTORE PUSH1 0x1 PUSH1 0x1 PUSH1 0xA0 SHL SUB SWAP1 SWAP3 AND PUSH1 0x4 DUP4 ADD MSTORE PUSH1 0x24 DUP3 ADD MSTORE PUSH1 0x44 ADD PUSH1 0x20 PUSH1 0x40 MLOAD DUP1 DUP4 SUB DUP2 PUSH1 0x0 DUP8 GAS CALL ISZERO DUP1 ISZERO PUSH2 0x6D1 JUMPI RETURNDATASIZE PUSH1 0x0 DUP1 RETURNDATACOPY RETURNDATASIZE PUSH1 0x0 REVERT JUMPDEST POP POP POP POP PUSH1 0x40 MLOAD RETURNDATASIZE PUSH1 0x1F NOT PUSH1 0x1F DUP3 ADD AND DUP3 ADD DUP1 PUSH1 0x40 MSTORE POP DUP2 ADD SWAP1 PUSH2 0x6F5 SWAP2 SWAP1 PUSH2 0x1D3E JUMP JUMPDEST POP POP POP POP JUMP JUMPDEST PUSH1 0x0 PUSH2 0x709 DUP3 DUP5 ADD DUP5 PUSH2 0x188E JUMP JUMPDEST SWAP1 POP DUP1 PUSH2 0x75F JUMPI PUSH2 0x718 PUSH2 0x1085 JUMP JUMPDEST PUSH2 0x720 PUSH2 0x1102 JUMP JUMPDEST PUSH1 0x4 DUP1 SLOAD PUSH1 0x1 PUSH1 0x1 PUSH1 0x80 SHL SUB AND SWAP1 PUSH1 0x0 PUSH2 0x739 DUP4 PUSH2 0x1D60 JUMP JUMPDEST SWAP2 SWAP1 PUSH2 0x100 EXP DUP2 SLOAD DUP2 PUSH1 0x1 PUSH1 0x1 PUSH1 0x80 SHL SUB MUL NOT AND SWAP1 DUP4 PUSH1 0x1 PUSH1 0x1 PUSH1 0x80 SHL SUB AND MUL OR SWAP1 SSTORE POP POP JUMPDEST DUP1 PUSH1 0x1 EQ ISZERO PUSH2 0x770 JUMPI PUSH2 0x770 PUSH2 0x1583 JUMP JUMPDEST POP POP POP JUMP JUMPDEST PUSH1 0xF PUSH1 0x20 SWAP1 DUP2 MSTORE PUSH1 0x0 DUP5 DUP2 MSTORE PUSH1 0x40 SWAP1 KECCAK256 DUP4 MLOAD DUP1 DUP6 ADD DUP4 ADD DUP1 MLOAD SWAP3 DUP2 MSTORE SWAP1 DUP4 ADD SWAP3 DUP6 ADD SWAP3 SWAP1 SWAP3 KECCAK256 SWAP2 MSTORE DUP1 SLOAD DUP3 SWAP1 DUP2 LT PUSH2 0x7AC JUMPI PUSH1 0x0 DUP1 REVERT JUMPDEST PUSH1 0x0 SWAP2 DUP3 MSTORE PUSH1 0x20 SWAP1 SWAP2 KECCAK256 ADD SLOAD PUSH1 0x1 PUSH1 0x1 PUSH1 0xA0 SHL SUB AND SWAP3 POP DUP4 SWAP2 POP POP JUMP JUMPDEST PUSH1 0x0 DUP1 PUSH20 0x6135B13325BFC4B00278B4ABC5E20BBCE2D6580E SWAP1 POP PUSH1 0x0 DUP2 PUSH1 0x1 PUSH1 0x1 PUSH1 0xA0 SHL SUB AND PUSH4 0xFEAF968C PUSH1 0x40 MLOAD DUP2 PUSH4 0xFFFFFFFF AND PUSH1 0xE0 SHL DUP2 MSTORE PUSH1 0x4 ADD PUSH1 0xA0 PUSH1 0x40 MLOAD DUP1 DUP4 SUB DUP2 DUP7 GAS STATICCALL ISZERO DUP1 ISZERO PUSH2 0x823 JUMPI RETURNDATASIZE PUSH1 0x0 DUP1 RETURNDATACOPY RETURNDATASIZE PUSH1 0x0 REVERT JUMPDEST POP POP POP POP PUSH1 0x40 MLOAD RETURNDATASIZE PUSH1 0x1F NOT PUSH1 0x1F DUP3 ADD AND DUP3 ADD DUP1 PUSH1 0x40 MSTORE POP DUP2 ADD SWAP1 PUSH2 0x847 SWAP2 SWAP1 PUSH2 0x1DA1 JUMP JUMPDEST POP SWAP7 SWAP6 POP POP POP POP POP POP JUMP JUMPDEST PUSH1 0xD PUSH1 0x20 SWAP1 DUP2 MSTORE PUSH1 0x0 DUP5 DUP2 MSTORE PUSH1 0x40 SWAP1 KECCAK256 DUP4 MLOAD DUP1 DUP6 ADD DUP4 ADD DUP1 MLOAD SWAP3 DUP2 MSTORE SWAP1 DUP4 ADD SWAP3 DUP6 ADD SWAP3 SWAP1 SWAP3 KECCAK256 SWAP2 MSTORE DUP1 SLOAD DUP3 SWAP1 DUP2 LT PUSH2 0x7AC JUMPI PUSH1 0x0 DUP1 REVERT JUMPDEST PUSH1 0x0 PUSH1 0x60 PUSH2 0x895 PUSH2 0x7C9 JUMP JUMPDEST PUSH1 0x4 SLOAD PUSH1 0x1 PUSH1 0x1 PUSH1 0x80 SHL SUB AND PUSH1 0x0 SWAP1 DUP2 MSTORE PUSH1 0x9 PUSH1 0x20 MSTORE PUSH1 0x40 SWAP1 KECCAK256 SLOAD PUSH2 0x8BD SWAP1 PUSH3 0x15180 PUSH2 0x1DF1 JUMP JUMPDEST EQ ISZERO PUSH2 0x8EE JUMPI PUSH1 0x40 DUP1 MLOAD PUSH1 0x0 PUSH1 0x20 DUP3 ADD MSTORE PUSH1 0x1 SWAP4 POP DUP4 SWAP2 ADD JUMPDEST PUSH1 0x40 MLOAD PUSH1 0x20 DUP2 DUP4 SUB SUB DUP2 MSTORE SWAP1 PUSH1 0x40 MSTORE SWAP2 POP SWAP2 POP PUSH2 0x992 JUMP JUMPDEST PUSH1 0x4 SLOAD PUSH1 0x9 SWAP1 PUSH1 0x0 SWAP1 PUSH2 0x90C SWAP1 PUSH1 0x1 SWAP1 PUSH1 0x1 PUSH1 0x1 PUSH1 0x80 SHL SUB AND PUSH2 0x1E09 JUMP JUMPDEST PUSH1 0x1 PUSH1 0x1 PUSH1 0x80 SHL SUB AND DUP2 MSTORE PUSH1 0x20 ADD SWAP1 DUP2 MSTORE PUSH1 0x20 ADD PUSH1 0x0 KECCAK256 SLOAD PUSH2 0xFD20 PUSH2 0x931 SWAP2 SWAP1 PUSH2 0x1DF1 JUMP JUMPDEST PUSH2 0x939 PUSH2 0x7C9 JUMP JUMPDEST GT ISZERO PUSH2 0x958 JUMPI PUSH1 0x1 SWAP2 POP PUSH1 0x1 DUP1 PUSH1 0x40 MLOAD PUSH1 0x20 ADD PUSH2 0x8D6 SWAP2 DUP2 MSTORE PUSH1 0x20 ADD SWAP1 JUMP JUMPDEST DUP4 DUP4 DUP1 DUP1 PUSH1 0x1F ADD PUSH1 0x20 DUP1 SWAP2 DIV MUL PUSH1 0x20 ADD PUSH1 0x40 MLOAD SWAP1 DUP2 ADD PUSH1 0x40 MSTORE DUP1 SWAP4 SWAP3 SWAP2 SWAP1 DUP2 DUP2 MSTORE PUSH1 0x20 ADD DUP4 DUP4 DUP1 DUP3 DUP5 CALLDATACOPY PUSH1 0x0 SWAP3 ADD SWAP2 SWAP1 SWAP2 MSTORE POP SWAP3 SWAP4 POP POP POP POP JUMPDEST SWAP3 POP SWAP3 SWAP1 POP JUMP JUMPDEST PUSH1 0x0 SLOAD PUSH1 0x1 PUSH1 0x1 PUSH1 0xA0 SHL SUB AND CALLER EQ PUSH2 0x9CC JUMPI PUSH1 0x40 MLOAD PUSH3 0x461BCD PUSH1 0xE5 SHL DUP2 MSTORE PUSH1 0x4 ADD PUSH2 0x9C3 SWAP1 PUSH2 0x1E31 JUMP JUMPDEST PUSH1 0x40 MLOAD DUP1 SWAP2 SUB SWAP1 REVERT JUMPDEST PUSH2 0x9D6 PUSH1 0x0 PUSH2 0x176E JUMP JUMPDEST JUMP JUMPDEST PUSH1 0x0 SLOAD PUSH1 0x1 PUSH1 0x1 PUSH1 0xA0 SHL SUB AND CALLER EQ PUSH2 0xA02 JUMPI PUSH1 0x40 MLOAD PUSH3 0x461BCD PUSH1 0xE5 SHL DUP2 MSTORE PUSH1 0x4 ADD PUSH2 0x9C3 SWAP1 PUSH2 0x1E31 JUMP JUMPDEST PUSH1 0x5 DUP1 SLOAD PUSH1 0x1 DUP2 ADD DUP3 SSTORE PUSH1 0x0 SWAP2 SWAP1 SWAP2 MSTORE DUP3 MLOAD PUSH2 0xA45 SWAP2 PUSH32 0x36B6384B5ECA791C62761152D0C79BB0604C104A5FB6F4EB0703F3154BB3DB0 ADD SWAP1 PUSH1 0x20 DUP6 ADD SWAP1 PUSH2 0x17BE JUMP JUMPDEST POP PUSH1 0x6 DUP1 SLOAD PUSH1 0x1 DUP1 DUP3 ADD DUP4 SSTORE PUSH1 0x0 SWAP3 SWAP1 SWAP3 MSTORE PUSH32 0xF652222313E28459528D920B65115C16C04F3EFC82AAEDC97BE59F3F377C0D3F ADD DUP1 SLOAD PUSH1 0x1 PUSH1 0x1 PUSH1 0xA0 SHL SUB NOT AND PUSH1 0x1 PUSH1 0x1 PUSH1 0xA0 SHL SUB DUP5 AND OR SWAP1 SSTORE PUSH1 0x40 MLOAD PUSH1 0x7 SWAP1 PUSH2 0xAA3 SWAP1 DUP6 SWAP1 PUSH2 0x1CCB JUMP JUMPDEST SWAP1 DUP2 MSTORE PUSH1 0x40 MLOAD SWAP1 DUP2 SWAP1 SUB PUSH1 0x20 ADD SWAP1 KECCAK256 DUP1 SLOAD SWAP2 ISZERO ISZERO PUSH1 0xFF NOT SWAP1 SWAP3 AND SWAP2 SWAP1 SWAP2 OR SWAP1 SSTORE POP POP JUMP JUMPDEST PUSH1 0x1 PUSH1 0x1 PUSH1 0x80 SHL SUB DUP4 AND PUSH1 0x0 SWAP1 DUP2 MSTORE PUSH1 0x8 PUSH1 0x20 MSTORE PUSH1 0x40 DUP1 DUP3 KECCAK256 SWAP1 MLOAD PUSH2 0xAED SWAP1 DUP6 SWAP1 PUSH2 0x1CCB JUMP JUMPDEST SWAP1 DUP2 MSTORE PUSH1 0x40 MLOAD SWAP1 DUP2 SWAP1 SUB PUSH1 0x20 ADD SWAP1 KECCAK256 SLOAD PUSH2 0xB09 JUMPI POP PUSH1 0x0 PUSH2 0xB9A JUMP JUMPDEST PUSH1 0x1 PUSH1 0x1 PUSH1 0x80 SHL SUB DUP5 AND PUSH1 0x0 SWAP1 DUP2 MSTORE PUSH1 0x8 PUSH1 0x20 MSTORE PUSH1 0x40 SWAP1 DUP2 SWAP1 KECCAK256 SWAP1 MLOAD PUSH2 0xB30 SWAP1 DUP6 SWAP1 PUSH2 0x1CCB JUMP JUMPDEST SWAP1 DUP2 MSTORE PUSH1 0x40 DUP1 MLOAD SWAP2 DUP3 SWAP1 SUB PUSH1 0x20 SWAP1 DUP2 ADD DUP4 KECCAK256 SLOAD PUSH1 0x1 PUSH1 0x1 PUSH1 0x80 SHL SUB DUP9 AND PUSH1 0x0 SWAP1 DUP2 MSTORE PUSH1 0x10 SWAP1 SWAP3 MSTORE SWAP2 SWAP1 KECCAK256 SWAP1 SWAP2 PUSH2 0xB67 SWAP1 DUP7 SWAP1 PUSH2 0x1CCB JUMP JUMPDEST SWAP1 DUP2 MSTORE PUSH1 0x40 DUP1 MLOAD PUSH1 0x20 SWAP3 DUP2 SWAP1 SUB DUP4 ADD SWAP1 KECCAK256 PUSH1 0x1 PUSH1 0x1 PUSH1 0xA0 SHL SUB DUP7 AND PUSH1 0x0 SWAP1 DUP2 MSTORE SWAP3 MSTORE SWAP1 KECCAK256 SLOAD EQ PUSH2 0xB96 JUMPI PUSH1 0x0 DUP1 REVERT JUMPDEST POP PUSH1 0x1 JUMPDEST SWAP4 SWAP3 POP POP POP JUMP JUMPDEST PUSH1 0xC PUSH1 0x20 SWAP1 DUP2 MSTORE PUSH1 0x0 DUP5 DUP2 MSTORE PUSH1 0x40 SWAP1 KECCAK256 DUP4 MLOAD DUP1 DUP6 ADD DUP4 ADD DUP1 MLOAD SWAP3 DUP2 MSTORE SWAP1 DUP4 ADD SWAP3 DUP6 ADD SWAP3 SWAP1 SWAP3 KECCAK256 SWAP2 MSTORE DUP1 SLOAD DUP3 SWAP1 DUP2 LT PUSH2 0xBD8 JUMPI PUSH1 0x0 DUP1 REVERT JUMPDEST SWAP1 PUSH1 0x0 MSTORE PUSH1 0x20 PUSH1 0x0 KECCAK256 ADD PUSH1 0x0 SWAP3 POP SWAP3 POP POP POP SLOAD DUP2 JUMP JUMPDEST PUSH1 0x7 DUP3 PUSH1 0x40 MLOAD PUSH2 0xBFE SWAP2 SWAP1 PUSH2 0x1CCB JUMP JUMPDEST SWAP1 DUP2 MSTORE PUSH1 0x40 MLOAD SWAP1 DUP2 SWAP1 SUB PUSH1 0x20 ADD SWAP1 KECCAK256 SLOAD PUSH1 0xFF AND ISZERO ISZERO PUSH1 0x1 EQ PUSH2 0xC1F JUMPI PUSH1 0x0 DUP1 REVERT JUMPDEST PUSH1 0x4 SLOAD PUSH1 0x1 PUSH1 0x1 PUSH1 0x1 PUSH1 0x80 SHL SUB SWAP1 SWAP2 AND GT ISZERO PUSH2 0xC8B JUMPI PUSH1 0x4 SLOAD PUSH1 0x9 SWAP1 PUSH1 0x0 SWAP1 PUSH2 0xC53 SWAP1 PUSH1 0x1 SWAP1 PUSH1 0x1 PUSH1 0x1 PUSH1 0x80 SHL SUB AND PUSH2 0x1E09 JUMP JUMPDEST PUSH1 0x1 PUSH1 0x1 PUSH1 0x80 SHL SUB AND DUP2 MSTORE PUSH1 0x20 ADD SWAP1 DUP2 MSTORE PUSH1 0x20 ADD PUSH1 0x0 KECCAK256 SLOAD PUSH2 0xFD20 PUSH2 0xC78 SWAP2 SWAP1 PUSH2 0x1DF1 JUMP JUMPDEST PUSH2 0xC80 PUSH2 0x7C9 JUMP JUMPDEST GT ISZERO PUSH2 0xC8B JUMPI PUSH1 0x0 DUP1 REVERT JUMPDEST PUSH1 0xA SLOAD PUSH1 0x40 MLOAD PUSH4 0x6EB1769F PUSH1 0xE1 SHL DUP2 MSTORE CALLER PUSH1 0x4 DUP3 ADD MSTORE ADDRESS PUSH1 0x24 DUP3 ADD MSTORE PUSH8 0x8AC7230489E80000 SWAP2 DUP3 SWAP2 PUSH1 0x1 PUSH1 0x1 PUSH1 0xA0 SHL SUB SWAP1 SWAP2 AND SWAP1 PUSH4 0xDD62ED3E SWAP1 PUSH1 0x44 ADD PUSH1 0x20 PUSH1 0x40 MLOAD DUP1 DUP4 SUB DUP2 DUP7 GAS STATICCALL ISZERO DUP1 ISZERO PUSH2 0xCE5 JUMPI RETURNDATASIZE PUSH1 0x0 DUP1 RETURNDATACOPY RETURNDATASIZE PUSH1 0x0 REVERT JUMPDEST POP POP POP POP PUSH1 0x40 MLOAD RETURNDATASIZE PUSH1 0x1F NOT PUSH1 0x1F DUP3 ADD AND DUP3 ADD DUP1 PUSH1 0x40 MSTORE POP DUP2 ADD SWAP1 PUSH2 0xD09 SWAP2 SWAP1 PUSH2 0x1E66 JUMP JUMPDEST LT ISZERO PUSH2 0xD14 JUMPI PUSH1 0x0 DUP1 REVERT JUMPDEST PUSH1 0xA SLOAD PUSH1 0x40 MLOAD PUSH4 0x23B872DD PUSH1 0xE0 SHL DUP2 MSTORE CALLER PUSH1 0x4 DUP3 ADD MSTORE ADDRESS PUSH1 0x24 DUP3 ADD MSTORE PUSH1 0x44 DUP2 ADD DUP4 SWAP1 MSTORE PUSH1 0x1 PUSH1 0x1 PUSH1 0xA0 SHL SUB SWAP1 SWAP2 AND SWAP1 PUSH4 0x23B872DD SWAP1 PUSH1 0x64 ADD PUSH1 0x20 PUSH1 0x40 MLOAD DUP1 DUP4 SUB DUP2 PUSH1 0x0 DUP8 GAS CALL ISZERO DUP1 ISZERO PUSH2 0xD6B JUMPI RETURNDATASIZE PUSH1 0x0 DUP1 RETURNDATACOPY RETURNDATASIZE PUSH1 0x0 REVERT JUMPDEST POP POP POP POP PUSH1 0x40 MLOAD RETURNDATASIZE PUSH1 0x1F NOT PUSH1 0x1F DUP3 ADD AND DUP3 ADD DUP1 PUSH1 0x40 MSTORE POP DUP2 ADD SWAP1 PUSH2 0xD8F SWAP2 SWAP1 PUSH2 0x1D3E JUMP JUMPDEST POP PUSH1 0x4 SLOAD PUSH1 0x1 PUSH1 0x1 PUSH1 0x80 SHL SUB AND PUSH1 0x0 SWAP1 DUP2 MSTORE PUSH1 0x8 PUSH1 0x20 MSTORE PUSH1 0x40 SWAP1 DUP2 SWAP1 KECCAK256 SWAP1 MLOAD DUP3 SWAP2 SWAP1 PUSH2 0xDBC SWAP1 DUP7 SWAP1 PUSH2 0x1CCB JUMP JUMPDEST SWAP1 DUP2 MSTORE PUSH1 0x20 ADD PUSH1 0x40 MLOAD DUP1 SWAP2 SUB SWAP1 KECCAK256 PUSH1 0x3 ADD PUSH1 0x0 DUP3 DUP3 SLOAD PUSH2 0xDDC SWAP2 SWAP1 PUSH2 0x1DF1 JUMP JUMPDEST SWAP3 POP POP DUP2 SWAP1 SSTORE POP PUSH1 0x40 MLOAD DUP1 PUSH1 0x60 ADD PUSH1 0x40 MSTORE DUP1 DUP4 DUP2 MSTORE PUSH1 0x20 ADD PUSH2 0xDFC PUSH2 0x7C9 JUMP JUMPDEST DUP2 MSTORE PUSH1 0x0 PUSH1 0x20 SWAP2 DUP3 ADD DUP2 SWAP1 MSTORE PUSH1 0x4 SLOAD PUSH1 0x1 PUSH1 0x1 PUSH1 0x80 SHL SUB AND DUP2 MSTORE PUSH1 0x10 SWAP1 SWAP2 MSTORE PUSH1 0x40 SWAP1 DUP2 SWAP1 KECCAK256 SWAP1 MLOAD PUSH2 0xE2E SWAP1 DUP7 SWAP1 PUSH2 0x1CCB JUMP JUMPDEST SWAP1 DUP2 MSTORE PUSH1 0x40 DUP1 MLOAD PUSH1 0x20 SWAP3 DUP2 SWAP1 SUB DUP4 ADD DUP2 KECCAK256 CALLER PUSH1 0x0 SWAP1 DUP2 MSTORE SWAP1 DUP5 MSTORE DUP3 DUP2 KECCAK256 DUP6 MLOAD DUP2 SSTORE DUP6 DUP6 ADD MLOAD PUSH1 0x1 DUP3 ADD SSTORE SWAP5 DUP4 ADD MLOAD PUSH1 0x2 SWAP1 SWAP6 ADD DUP1 SLOAD PUSH1 0xFF NOT AND SWAP6 ISZERO ISZERO SWAP6 SWAP1 SWAP6 OR SWAP1 SWAP5 SSTORE PUSH1 0x4 SLOAD PUSH1 0x1 PUSH1 0x1 PUSH1 0x80 SHL SUB AND DUP5 MSTORE PUSH1 0xC SWAP1 SWAP3 MSTORE SWAP1 SWAP2 KECCAK256 SWAP1 PUSH2 0xE93 SWAP1 DUP6 SWAP1 PUSH2 0x1CCB JUMP JUMPDEST SWAP1 DUP2 MSTORE PUSH1 0x40 DUP1 MLOAD SWAP2 DUP3 SWAP1 SUB PUSH1 0x20 SWAP1 DUP2 ADD DUP4 KECCAK256 DUP1 SLOAD PUSH1 0x1 DUP2 ADD DUP3 SSTORE PUSH1 0x0 SWAP2 DUP3 MSTORE DUP3 DUP3 KECCAK256 ADD DUP7 SWAP1 SSTORE PUSH1 0x4 SLOAD PUSH1 0x1 PUSH1 0x1 PUSH1 0x80 SHL SUB AND DUP2 MSTORE PUSH1 0xD SWAP1 SWAP2 MSTORE KECCAK256 SWAP1 PUSH2 0xED9 SWAP1 DUP6 SWAP1 PUSH2 0x1CCB JUMP JUMPDEST SWAP1 DUP2 MSTORE PUSH1 0x40 MLOAD PUSH1 0x20 SWAP2 DUP2 SWAP1 SUB DUP3 ADD DUP2 KECCAK256 DUP1 SLOAD PUSH1 0x1 DUP2 ADD DUP3 SSTORE PUSH1 0x0 SWAP2 DUP3 MSTORE SWAP1 DUP4 SWAP1 KECCAK256 ADD DUP1 SLOAD CALLER PUSH1 0x1 PUSH1 0x1 PUSH1 0xA0 SHL SUB NOT SWAP1 SWAP2 AND DUP2 OR SWAP1 SWAP2 SSTORE DUP5 DUP3 MSTORE SWAP2 PUSH32 0x10FE2ED8F3DAA306F14DE54294A550F0F7DEC5E7138F0CF277EAC43BC95AAB6F SWAP2 ADD PUSH1 0x40 MLOAD DUP1 SWAP2 SUB SWAP1 LOG2 POP POP POP JUMP JUMPDEST PUSH1 0x0 DUP1 PUSH1 0x6 DUP4 DUP2 SLOAD DUP2 LT PUSH2 0xF59 JUMPI PUSH2 0xF59 PUSH2 0x1E7F JUMP JUMPDEST SWAP1 PUSH1 0x0 MSTORE PUSH1 0x20 PUSH1 0x0 KECCAK256 ADD PUSH1 0x0 SWAP1 SLOAD SWAP1 PUSH2 0x100 EXP SWAP1 DIV PUSH1 0x1 PUSH1 0x1 PUSH1 0xA0 SHL SUB AND SWAP1 POP PUSH1 0x0 DUP2 PUSH1 0x1 PUSH1 0x1 PUSH1 0xA0 SHL SUB AND PUSH4 0xFEAF968C PUSH1 0x40 MLOAD DUP2 PUSH4 0xFFFFFFFF AND PUSH1 0xE0 SHL DUP2 MSTORE PUSH1 0x4 ADD PUSH1 0xA0 PUSH1 0x40 MLOAD DUP1 DUP4 SUB DUP2 DUP7 GAS STATICCALL ISZERO DUP1 ISZERO PUSH2 0xFB9 JUMPI RETURNDATASIZE PUSH1 0x0 DUP1 RETURNDATACOPY RETURNDATASIZE PUSH1 0x0 REVERT JUMPDEST POP POP POP POP PUSH1 0x40 MLOAD RETURNDATASIZE PUSH1 0x1F NOT PUSH1 0x1F DUP3 ADD AND DUP3 ADD DUP1 PUSH1 0x40 MSTORE POP DUP2 ADD SWAP1 PUSH2 0xFDD SWAP2 SWAP1 PUSH2 0x1DA1 JUMP JUMPDEST POP SWAP2 SWAP8 SWAP7 POP POP POP POP POP POP POP JUMP JUMPDEST PUSH1 0x0 SLOAD PUSH1 0x1 PUSH1 0x1 PUSH1 0xA0 SHL SUB AND CALLER EQ PUSH2 0x1014 JUMPI PUSH1 0x40 MLOAD PUSH3 0x461BCD PUSH1 0xE5 SHL DUP2 MSTORE PUSH1 0x4 ADD PUSH2 0x9C3 SWAP1 PUSH2 0x1E31 JUMP JUMPDEST PUSH1 0x1 PUSH1 0x1 PUSH1 0xA0 SHL SUB DUP2 AND PUSH2 0x1079 JUMPI PUSH1 0x40 MLOAD PUSH3 0x461BCD PUSH1 0xE5 SHL DUP2 MSTORE PUSH1 0x20 PUSH1 0x4 DUP3 ADD MSTORE PUSH1 0x26 PUSH1 0x24 DUP3 ADD MSTORE PUSH32 0x4F776E61626C653A206E6577206F776E657220697320746865207A65726F2061 PUSH1 0x44 DUP3 ADD MSTORE PUSH6 0x646472657373 PUSH1 0xD0 SHL PUSH1 0x64 DUP3 ADD MSTORE PUSH1 0x84 ADD PUSH2 0x9C3 JUMP JUMPDEST PUSH2 0x1082 DUP2 PUSH2 0x176E JUMP JUMPDEST POP JUMP JUMPDEST PUSH1 0x0 JUMPDEST PUSH1 0x6 SLOAD DUP2 LT ISZERO PUSH2 0x1082 JUMPI PUSH2 0x109B DUP2 PUSH2 0xF43 JUMP JUMPDEST PUSH1 0x4 SLOAD PUSH1 0x1 PUSH1 0x1 PUSH1 0x80 SHL SUB AND PUSH1 0x0 SWAP1 DUP2 MSTORE PUSH1 0x8 PUSH1 0x20 MSTORE PUSH1 0x40 SWAP1 KECCAK256 PUSH1 0x5 DUP1 SLOAD DUP5 SWAP1 DUP2 LT PUSH2 0x10C9 JUMPI PUSH2 0x10C9 PUSH2 0x1E7F JUMP JUMPDEST SWAP1 PUSH1 0x0 MSTORE PUSH1 0x20 PUSH1 0x0 KECCAK256 ADD PUSH1 0x40 MLOAD PUSH2 0x10E0 SWAP2 SWAP1 PUSH2 0x1E95 JUMP JUMPDEST SWAP1 DUP2 MSTORE PUSH1 0x40 MLOAD SWAP1 DUP2 SWAP1 SUB PUSH1 0x20 ADD SWAP1 KECCAK256 SSTORE DUP1 PUSH2 0x10FA DUP2 PUSH2 0x1F31 JUMP JUMPDEST SWAP2 POP POP PUSH2 0x1088 JUMP JUMPDEST PUSH1 0x4 SLOAD PUSH1 0x1 PUSH1 0x1 PUSH1 0x80 SHL SUB AND PUSH1 0x0 JUMPDEST PUSH1 0x5 SLOAD PUSH1 0xFF DUP3 AND LT ISZERO PUSH2 0x157F JUMPI PUSH1 0x1 PUSH1 0x1 PUSH1 0x80 SHL SUB DUP3 AND PUSH1 0x0 SWAP1 DUP2 MSTORE PUSH1 0xD PUSH1 0x20 MSTORE PUSH1 0x40 SWAP1 KECCAK256 PUSH1 0x5 DUP1 SLOAD PUSH1 0xFF DUP5 AND SWAP1 DUP2 LT PUSH2 0x114D JUMPI PUSH2 0x114D PUSH2 0x1E7F JUMP JUMPDEST SWAP1 PUSH1 0x0 MSTORE PUSH1 0x20 PUSH1 0x0 KECCAK256 ADD PUSH1 0x40 MLOAD PUSH2 0x1164 SWAP2 SWAP1 PUSH2 0x1E95 JUMP JUMPDEST SWAP1 DUP2 MSTORE PUSH1 0x20 ADD PUSH1 0x40 MLOAD DUP1 SWAP2 SUB SWAP1 KECCAK256 DUP1 SLOAD SWAP1 POP PUSH1 0xC PUSH1 0x0 DUP5 PUSH1 0x1 PUSH1 0x1 PUSH1 0x80 SHL SUB AND DUP2 MSTORE PUSH1 0x20 ADD SWAP1 DUP2 MSTORE PUSH1 0x20 ADD PUSH1 0x0 KECCAK256 PUSH1 0x5 DUP4 PUSH1 0xFF AND DUP2 SLOAD DUP2 LT PUSH2 0x11A8 JUMPI PUSH2 0x11A8 PUSH2 0x1E7F JUMP JUMPDEST SWAP1 PUSH1 0x0 MSTORE PUSH1 0x20 PUSH1 0x0 KECCAK256 ADD PUSH1 0x40 MLOAD PUSH2 0x11BF SWAP2 SWAP1 PUSH2 0x1E95 JUMP JUMPDEST SWAP1 DUP2 MSTORE PUSH1 0x40 MLOAD SWAP1 DUP2 SWAP1 SUB PUSH1 0x20 ADD SWAP1 KECCAK256 SLOAD EQ PUSH2 0x11D9 JUMPI PUSH1 0x0 DUP1 REVERT JUMPDEST PUSH1 0x0 JUMPDEST PUSH1 0x1 PUSH1 0x1 PUSH1 0x80 SHL SUB DUP4 AND PUSH1 0x0 SWAP1 DUP2 MSTORE PUSH1 0xC PUSH1 0x20 MSTORE PUSH1 0x40 SWAP1 KECCAK256 PUSH1 0x5 DUP1 SLOAD PUSH1 0xFF DUP6 AND SWAP1 DUP2 LT PUSH2 0x120B JUMPI PUSH2 0x120B PUSH2 0x1E7F JUMP JUMPDEST SWAP1 PUSH1 0x0 MSTORE PUSH1 0x20 PUSH1 0x0 KECCAK256 ADD PUSH1 0x40 MLOAD PUSH2 0x1222 SWAP2 SWAP1 PUSH2 0x1E95 JUMP JUMPDEST SWAP1 DUP2 MSTORE PUSH1 0x40 MLOAD SWAP1 DUP2 SWAP1 SUB PUSH1 0x20 ADD SWAP1 KECCAK256 SLOAD PUSH1 0xFF DUP3 AND LT ISZERO PUSH2 0x156C JUMPI PUSH1 0x1 PUSH1 0x1 PUSH1 0x80 SHL SUB DUP4 AND PUSH1 0x0 SWAP1 DUP2 MSTORE PUSH1 0x8 PUSH1 0x20 MSTORE PUSH1 0x40 SWAP1 KECCAK256 PUSH1 0x5 DUP1 SLOAD PUSH1 0xFF DUP6 AND SWAP1 DUP2 LT PUSH2 0x126B JUMPI PUSH2 0x126B PUSH2 0x1E7F JUMP JUMPDEST SWAP1 PUSH1 0x0 MSTORE PUSH1 0x20 PUSH1 0x0 KECCAK256 ADD PUSH1 0x40 MLOAD PUSH2 0x1282 SWAP2 SWAP1 PUSH2 0x1E95 JUMP JUMPDEST SWAP1 DUP2 MSTORE PUSH1 0x20 ADD PUSH1 0x40 MLOAD DUP1 SWAP2 SUB SWAP1 KECCAK256 PUSH1 0x0 ADD SLOAD PUSH1 0xC PUSH1 0x0 DUP6 PUSH1 0x1 PUSH1 0x1 PUSH1 0x80 SHL SUB AND DUP2 MSTORE PUSH1 0x20 ADD SWAP1 DUP2 MSTORE PUSH1 0x20 ADD PUSH1 0x0 KECCAK256 PUSH1 0x5 DUP5 PUSH1 0xFF AND DUP2 SLOAD DUP2 LT PUSH2 0x12C6 JUMPI PUSH2 0x12C6 PUSH2 0x1E7F JUMP JUMPDEST SWAP1 PUSH1 0x0 MSTORE PUSH1 0x20 PUSH1 0x0 KECCAK256 ADD PUSH1 0x40 MLOAD PUSH2 0x12DD SWAP2 SWAP1 PUSH2 0x1E95 JUMP JUMPDEST SWAP1 DUP2 MSTORE PUSH1 0x20 ADD PUSH1 0x40 MLOAD DUP1 SWAP2 SUB SWAP1 KECCAK256 DUP3 PUSH1 0xFF AND DUP2 SLOAD DUP2 LT PUSH2 0x12FF JUMPI PUSH2 0x12FF PUSH2 0x1E7F JUMP JUMPDEST SWAP1 PUSH1 0x0 MSTORE PUSH1 0x20 PUSH1 0x0 KECCAK256 ADD SLOAD EQ PUSH2 0x1314 JUMPI PUSH1 0x0 DUP1 REVERT JUMPDEST PUSH1 0x1 PUSH1 0x1 PUSH1 0x80 SHL SUB DUP4 AND PUSH1 0x0 SWAP1 DUP2 MSTORE PUSH1 0xF PUSH1 0x20 MSTORE PUSH1 0x40 SWAP1 KECCAK256 PUSH1 0x5 DUP1 SLOAD PUSH1 0xFF DUP6 AND SWAP1 DUP2 LT PUSH2 0x1343 JUMPI PUSH2 0x1343 PUSH2 0x1E7F JUMP JUMPDEST SWAP1 PUSH1 0x0 MSTORE PUSH1 0x20 PUSH1 0x0 KECCAK256 ADD PUSH1 0x40 MLOAD PUSH2 0x135A SWAP2 SWAP1 PUSH2 0x1E95 JUMP JUMPDEST SWAP1 DUP2 MSTORE PUSH1 0x20 ADD PUSH1 0x40 MLOAD DUP1 SWAP2 SUB SWAP1 KECCAK256 PUSH1 0xD PUSH1 0x0 DUP6 PUSH1 0x1 PUSH1 0x1 PUSH1 0x80 SHL SUB AND DUP2 MSTORE PUSH1 0x20 ADD SWAP1 DUP2 MSTORE PUSH1 0x20 ADD PUSH1 0x0 KECCAK256 PUSH1 0x5 DUP5 PUSH1 0xFF AND DUP2 SLOAD DUP2 LT PUSH2 0x139A JUMPI PUSH2 0x139A PUSH2 0x1E7F JUMP JUMPDEST SWAP1 PUSH1 0x0 MSTORE PUSH1 0x20 PUSH1 0x0 KECCAK256 ADD PUSH1 0x40 MLOAD PUSH2 0x13B1 SWAP2 SWAP1 PUSH2 0x1E95 JUMP JUMPDEST SWAP1 DUP2 MSTORE PUSH1 0x20 ADD PUSH1 0x40 MLOAD DUP1 SWAP2 SUB SWAP1 KECCAK256 DUP3 PUSH1 0xFF AND DUP2 SLOAD DUP2 LT PUSH2 0x13D3 JUMPI PUSH2 0x13D3 PUSH2 0x1E7F JUMP JUMPDEST PUSH1 0x0 SWAP2 DUP3 MSTORE PUSH1 0x20 DUP1 DUP4 KECCAK256 SWAP1 SWAP2 ADD SLOAD DUP4 SLOAD PUSH1 0x1 DUP2 DUP2 ADD DUP7 SSTORE SWAP5 DUP5 MSTORE DUP3 DUP5 KECCAK256 ADD DUP1 SLOAD PUSH1 0x1 PUSH1 0x1 PUSH1 0xA0 SHL SUB NOT AND PUSH1 0x1 PUSH1 0x1 PUSH1 0xA0 SHL SUB SWAP1 SWAP3 AND SWAP2 SWAP1 SWAP2 OR SWAP1 SSTORE PUSH1 0x1 PUSH1 0x1 PUSH1 0x80 SHL SUB DUP7 AND DUP3 MSTORE PUSH1 0x8 SWAP1 MSTORE PUSH1 0x40 SWAP1 KECCAK256 PUSH1 0x5 DUP1 SLOAD PUSH1 0xFF DUP7 AND SWAP1 DUP2 LT PUSH2 0x1439 JUMPI PUSH2 0x1439 PUSH2 0x1E7F JUMP JUMPDEST SWAP1 PUSH1 0x0 MSTORE PUSH1 0x20 PUSH1 0x0 KECCAK256 ADD PUSH1 0x40 MLOAD PUSH2 0x1450 SWAP2 SWAP1 PUSH2 0x1E95 JUMP JUMPDEST SWAP1 DUP2 MSTORE PUSH1 0x20 ADD PUSH1 0x40 MLOAD DUP1 SWAP2 SUB SWAP1 KECCAK256 PUSH1 0x2 ADD PUSH1 0x0 DUP3 DUP3 SLOAD PUSH2 0x1470 SWAP2 SWAP1 PUSH2 0x1DF1 JUMP JUMPDEST SWAP1 SWAP2 SSTORE POP POP PUSH1 0x3 SLOAD PUSH1 0x1 PUSH1 0x1 PUSH1 0x80 SHL SUB DUP5 AND PUSH1 0x0 SWAP1 DUP2 MSTORE PUSH1 0xD PUSH1 0x20 MSTORE PUSH1 0x40 SWAP1 KECCAK256 PUSH1 0x5 DUP1 SLOAD PUSH1 0x1 PUSH1 0x1 PUSH1 0xA0 SHL SUB SWAP1 SWAP4 AND SWAP3 PUSH4 0x8EBFA8AE SWAP3 SWAP2 SWAP1 PUSH1 0xFF DUP8 AND SWAP1 DUP2 LT PUSH2 0x14BB JUMPI PUSH2 0x14BB PUSH2 0x1E7F JUMP JUMPDEST SWAP1 PUSH1 0x0 MSTORE PUSH1 0x20 PUSH1 0x0 KECCAK256 ADD PUSH1 0x40 MLOAD PUSH2 0x14D2 SWAP2 SWAP1 PUSH2 0x1E95 JUMP JUMPDEST SWAP1 DUP2 MSTORE PUSH1 0x20 ADD PUSH1 0x40 MLOAD DUP1 SWAP2 SUB SWAP1 KECCAK256 DUP4 PUSH1 0xFF AND DUP2 SLOAD DUP2 LT PUSH2 0x14F4 JUMPI PUSH2 0x14F4 PUSH2 0x1E7F JUMP JUMPDEST PUSH1 0x0 SWAP2 DUP3 MSTORE PUSH1 0x20 SWAP1 SWAP2 KECCAK256 ADD SLOAD PUSH1 0x40 MLOAD PUSH1 0xE0 DUP4 SWAP1 SHL PUSH1 0x1 PUSH1 0x1 PUSH1 0xE0 SHL SUB NOT AND DUP2 MSTORE PUSH1 0x1 PUSH1 0x1 PUSH1 0xA0 SHL SUB SWAP1 SWAP2 AND PUSH1 0x4 DUP3 ADD MSTORE PUSH1 0x24 ADD PUSH1 0x0 PUSH1 0x40 MLOAD DUP1 DUP4 SUB DUP2 PUSH1 0x0 DUP8 DUP1 EXTCODESIZE ISZERO DUP1 ISZERO PUSH2 0x1541 JUMPI PUSH1 0x0 DUP1 REVERT JUMPDEST POP GAS CALL ISZERO DUP1 ISZERO PUSH2 0x1555 JUMPI RETURNDATASIZE PUSH1 0x0 DUP1 RETURNDATACOPY RETURNDATASIZE PUSH1 0x0 REVERT JUMPDEST POP POP POP POP DUP1 DUP1 PUSH2 0x1564 SWAP1 PUSH2 0x1F4C JUMP JUMPDEST SWAP2 POP POP PUSH2 0x11DC JUMP JUMPDEST POP DUP1 PUSH2 0x1577 DUP2 PUSH2 0x1F4C JUMP JUMPDEST SWAP2 POP POP PUSH2 0x1111 JUMP JUMPDEST POP POP JUMP JUMPDEST PUSH1 0x4 SLOAD PUSH1 0x9 SWAP1 PUSH1 0x0 SWAP1 PUSH2 0x15A1 SWAP1 PUSH1 0x1 SWAP1 PUSH1 0x1 PUSH1 0x1 PUSH1 0x80 SHL SUB AND PUSH2 0x1E09 JUMP JUMPDEST PUSH1 0x1 PUSH1 0x1 PUSH1 0x80 SHL SUB AND DUP2 MSTORE PUSH1 0x20 ADD SWAP1 DUP2 MSTORE PUSH1 0x20 ADD PUSH1 0x0 KECCAK256 SLOAD PUSH2 0xFD20 PUSH2 0x15C6 SWAP2 SWAP1 PUSH2 0x1DF1 JUMP JUMPDEST PUSH2 0x15CE PUSH2 0x7C9 JUMP JUMPDEST GT PUSH2 0x15D8 JUMPI PUSH1 0x0 DUP1 REVERT JUMPDEST PUSH1 0x0 JUMPDEST PUSH1 0x5 SLOAD PUSH1 0x1 PUSH1 0x1 PUSH1 0x80 SHL SUB DUP3 AND LT ISZERO PUSH2 0x1082 JUMPI PUSH1 0x4 SLOAD PUSH1 0x1 PUSH1 0x1 PUSH1 0x80 SHL SUB SWAP1 DUP2 AND PUSH1 0x0 SWAP1 DUP2 MSTORE PUSH1 0x8 PUSH1 0x20 MSTORE PUSH1 0x40 DUP2 KECCAK256 PUSH1 0x5 DUP1 SLOAD SWAP3 SWAP4 PUSH1 0x64 SWAP4 SWAP1 DUP7 AND SWAP1 DUP2 LT PUSH2 0x1625 JUMPI PUSH2 0x1625 PUSH2 0x1E7F JUMP JUMPDEST SWAP1 PUSH1 0x0 MSTORE PUSH1 0x20 PUSH1 0x0 KECCAK256 ADD PUSH1 0x40 MLOAD PUSH2 0x163C SWAP2 SWAP1 PUSH2 0x1E95 JUMP JUMPDEST SWAP1 DUP2 MSTORE PUSH1 0x20 ADD PUSH1 0x40 MLOAD DUP1 SWAP2 SUB SWAP1 KECCAK256 PUSH1 0x3 ADD SLOAD PUSH1 0xA PUSH2 0x165A SWAP2 SWAP1 PUSH2 0x1CFD JUMP JUMPDEST PUSH2 0x1664 SWAP2 SWAP1 PUSH2 0x1D1C JUMP JUMPDEST PUSH1 0xA SLOAD PUSH1 0x2 SLOAD PUSH1 0x40 MLOAD PUSH4 0x95EA7B3 PUSH1 0xE0 SHL DUP2 MSTORE PUSH1 0x1 PUSH1 0x1 PUSH1 0xA0 SHL SUB SWAP2 DUP3 AND PUSH1 0x4 DUP3 ADD MSTORE PUSH1 0x24 DUP2 ADD DUP5 SWAP1 MSTORE SWAP3 SWAP4 POP AND SWAP1 PUSH4 0x95EA7B3 SWAP1 PUSH1 0x44 ADD PUSH1 0x20 PUSH1 0x40 MLOAD DUP1 DUP4 SUB DUP2 PUSH1 0x0 DUP8 GAS CALL ISZERO DUP1 ISZERO PUSH2 0x16BB JUMPI RETURNDATASIZE PUSH1 0x0 DUP1 RETURNDATACOPY RETURNDATASIZE PUSH1 0x0 REVERT JUMPDEST POP POP POP POP PUSH1 0x40 MLOAD RETURNDATASIZE PUSH1 0x1F NOT PUSH1 0x1F DUP3 ADD AND DUP3 ADD DUP1 PUSH1 0x40 MSTORE POP DUP2 ADD SWAP1 PUSH2 0x16DF SWAP2 SWAP1 PUSH2 0x1D3E JUMP JUMPDEST POP PUSH1 0x2 SLOAD PUSH1 0xA SLOAD PUSH1 0x3 SLOAD PUSH1 0x40 MLOAD PUSH4 0xE8EDA9DF PUSH1 0xE0 SHL DUP2 MSTORE PUSH1 0x1 PUSH1 0x1 PUSH1 0xA0 SHL SUB SWAP3 DUP4 AND PUSH1 0x4 DUP3 ADD MSTORE PUSH1 0x24 DUP2 ADD DUP6 SWAP1 MSTORE SWAP1 DUP3 AND PUSH1 0x44 DUP3 ADD MSTORE PUSH1 0x0 PUSH1 0x64 DUP3 ADD MSTORE SWAP2 AND SWAP1 PUSH4 0xE8EDA9DF SWAP1 PUSH1 0x84 ADD PUSH1 0x0 PUSH1 0x40 MLOAD DUP1 DUP4 SUB DUP2 PUSH1 0x0 DUP8 DUP1 EXTCODESIZE ISZERO DUP1 ISZERO PUSH2 0x1742 JUMPI PUSH1 0x0 DUP1 REVERT JUMPDEST POP GAS CALL ISZERO DUP1 ISZERO PUSH2 0x1756 JUMPI RETURNDATASIZE PUSH1 0x0 DUP1 RETURNDATACOPY RETURNDATASIZE PUSH1 0x0 REVERT JUMPDEST POP POP POP POP POP DUP1 DUP1 PUSH2 0x1766 SWAP1 PUSH2 0x1D60 JUMP JUMPDEST SWAP2 POP POP PUSH2 0x15DB JUMP JUMPDEST PUSH1 0x0 DUP1 SLOAD PUSH1 0x1 PUSH1 0x1 PUSH1 0xA0 SHL SUB DUP4 DUP2 AND PUSH1 0x1 PUSH1 0x1 PUSH1 0xA0 SHL SUB NOT DUP4 AND DUP2 OR DUP5 SSTORE PUSH1 0x40 MLOAD SWAP2 SWAP1 SWAP3 AND SWAP3 DUP4 SWAP2 PUSH32 0x8BE0079C531659141344CD1FD0A4F28419497F9722A3DAAFE3B4186F6B6457E0 SWAP2 SWAP1 LOG3 POP POP JUMP JUMPDEST DUP3 DUP1 SLOAD PUSH2 0x17CA SWAP1 PUSH2 0x1C90 JUMP JUMPDEST SWAP1 PUSH1 0x0 MSTORE PUSH1 0x20 PUSH1 0x0 KECCAK256 SWAP1 PUSH1 0x1F ADD PUSH1 0x20 SWAP1 DIV DUP2 ADD SWAP3 DUP3 PUSH2 0x17EC JUMPI PUSH1 0x0 DUP6 SSTORE PUSH2 0x1832 JUMP JUMPDEST DUP3 PUSH1 0x1F LT PUSH2 0x1805 JUMPI DUP1 MLOAD PUSH1 0xFF NOT AND DUP4 DUP1 ADD OR DUP6 SSTORE PUSH2 0x1832 JUMP JUMPDEST DUP3 DUP1 ADD PUSH1 0x1 ADD DUP6 SSTORE DUP3 ISZERO PUSH2 0x1832 JUMPI SWAP2 DUP3 ADD JUMPDEST DUP3 DUP2 GT ISZERO PUSH2 0x1832 JUMPI DUP3 MLOAD DUP3 SSTORE SWAP2 PUSH1 0x20 ADD SWAP2 SWAP1 PUSH1 0x1 ADD SWAP1 PUSH2 0x1817 JUMP JUMPDEST POP PUSH2 0x183E SWAP3 SWAP2 POP PUSH2 0x1842 JUMP JUMPDEST POP SWAP1 JUMP JUMPDEST JUMPDEST DUP1 DUP3 GT ISZERO PUSH2 0x183E JUMPI PUSH1 0x0 DUP2 SSTORE PUSH1 0x1 ADD PUSH2 0x1843 JUMP JUMPDEST DUP1 CALLDATALOAD PUSH1 0x1 PUSH1 0x1 PUSH1 0xA0 SHL SUB DUP2 AND DUP2 EQ PUSH2 0x186E JUMPI PUSH1 0x0 DUP1 REVERT JUMPDEST SWAP2 SWAP1 POP JUMP JUMPDEST PUSH1 0x0 PUSH1 0x20 DUP3 DUP5 SUB SLT ISZERO PUSH2 0x1885 JUMPI PUSH1 0x0 DUP1 REVERT JUMPDEST PUSH2 0xB9A DUP3 PUSH2 0x1857 JUMP JUMPDEST PUSH1 0x0 PUSH1 0x20 DUP3 DUP5 SUB SLT ISZERO PUSH2 0x18A0 JUMPI PUSH1 0x0 DUP1 REVERT JUMPDEST POP CALLDATALOAD SWAP2 SWAP1 POP JUMP JUMPDEST PUSH1 0x0 JUMPDEST DUP4 DUP2 LT ISZERO PUSH2 0x18C2 JUMPI DUP2 DUP2 ADD MLOAD DUP4 DUP3 ADD MSTORE PUSH1 0x20 ADD PUSH2 0x18AA JUMP JUMPDEST DUP4 DUP2 GT ISZERO PUSH2 0x6F5 JUMPI POP POP PUSH1 0x0 SWAP2 ADD MSTORE JUMP JUMPDEST PUSH1 0x0 DUP2 MLOAD DUP1 DUP5 MSTORE PUSH2 0x18EB DUP2 PUSH1 0x20 DUP7 ADD PUSH1 0x20 DUP7 ADD PUSH2 0x18A7 JUMP JUMPDEST PUSH1 0x1F ADD PUSH1 0x1F NOT AND SWAP3 SWAP1 SWAP3 ADD PUSH1 0x20 ADD SWAP3 SWAP2 POP POP JUMP JUMPDEST PUSH1 0x20 DUP2 MSTORE PUSH1 0x0 PUSH2 0xB9A PUSH1 0x20 DUP4 ADD DUP5 PUSH2 0x18D3 JUMP JUMPDEST DUP1 CALLDATALOAD PUSH1 0x1 PUSH1 0x1 PUSH1 0x80 SHL SUB DUP2 AND DUP2 EQ PUSH2 0x186E JUMPI PUSH1 0x0 DUP1 REVERT JUMPDEST PUSH4 0x4E487B71 PUSH1 0xE0 SHL PUSH1 0x0 MSTORE PUSH1 0x41 PUSH1 0x4 MSTORE PUSH1 0x24 PUSH1 0x0 REVERT JUMPDEST PUSH1 0x0 DUP3 PUSH1 0x1F DUP4 ADD SLT PUSH2 0x1950 JUMPI PUSH1 0x0 DUP1 REVERT JUMPDEST DUP2 CALLDATALOAD PUSH8 0xFFFFFFFFFFFFFFFF DUP1 DUP3 GT ISZERO PUSH2 0x196B JUMPI PUSH2 0x196B PUSH2 0x1929 JUMP JUMPDEST PUSH1 0x40 MLOAD PUSH1 0x1F DUP4 ADD PUSH1 0x1F NOT SWAP1 DUP2 AND PUSH1 0x3F ADD AND DUP2 ADD SWAP1 DUP3 DUP3 GT DUP2 DUP4 LT OR ISZERO PUSH2 0x1993 JUMPI PUSH2 0x1993 PUSH2 0x1929 JUMP JUMPDEST DUP2 PUSH1 0x40 MSTORE DUP4 DUP2 MSTORE DUP7 PUSH1 0x20 DUP6 DUP9 ADD ADD GT ISZERO PUSH2 0x19AC JUMPI PUSH1 0x0 DUP1 REVERT JUMPDEST DUP4 PUSH1 0x20 DUP8 ADD PUSH1 0x20 DUP4 ADD CALLDATACOPY PUSH1 0x0 PUSH1 0x20 DUP6 DUP4 ADD ADD MSTORE DUP1 SWAP5 POP POP POP POP POP SWAP3 SWAP2 POP POP JUMP JUMPDEST PUSH1 0x0 DUP1 PUSH1 0x40 DUP4 DUP6 SUB SLT ISZERO PUSH2 0x19DF JUMPI PUSH1 0x0 DUP1 REVERT JUMPDEST PUSH2 0x19E8 DUP4 PUSH2 0x1912 JUMP JUMPDEST SWAP2 POP PUSH1 0x20 DUP4 ADD CALLDATALOAD PUSH8 0xFFFFFFFFFFFFFFFF DUP2 GT ISZERO PUSH2 0x1A04 JUMPI PUSH1 0x0 DUP1 REVERT JUMPDEST PUSH2 0x1A10 DUP6 DUP3 DUP7 ADD PUSH2 0x193F JUMP JUMPDEST SWAP2 POP POP SWAP3 POP SWAP3 SWAP1 POP JUMP JUMPDEST PUSH1 0x0 DUP1 PUSH1 0x20 DUP4 DUP6 SUB SLT ISZERO PUSH2 0x1A2D JUMPI PUSH1 0x0 DUP1 REVERT JUMPDEST DUP3 CALLDATALOAD PUSH8 0xFFFFFFFFFFFFFFFF DUP1 DUP3 GT ISZERO PUSH2 0x1A45 JUMPI PUSH1 0x0 DUP1 REVERT JUMPDEST DUP2 DUP6 ADD SWAP2 POP DUP6 PUSH1 0x1F DUP4 ADD SLT PUSH2 0x1A59 JUMPI PUSH1 0x0 DUP1 REVERT JUMPDEST DUP2 CALLDATALOAD DUP2 DUP2 GT ISZERO PUSH2 0x1A68 JUMPI PUSH1 0x0 DUP1 REVERT JUMPDEST DUP7 PUSH1 0x20 DUP3 DUP6 ADD ADD GT ISZERO PUSH2 0x1A7A JUMPI PUSH1 0x0 DUP1 REVERT JUMPDEST PUSH1 0x20 SWAP3 SWAP1 SWAP3 ADD SWAP7 SWAP2 SWAP6 POP SWAP1 SWAP4 POP POP POP POP JUMP JUMPDEST PUSH1 0x0 DUP1 PUSH1 0x0 PUSH1 0x60 DUP5 DUP7 SUB SLT ISZERO PUSH2 0x1AA1 JUMPI PUSH1 0x0 DUP1 REVERT JUMPDEST PUSH2 0x1AAA DUP5 PUSH2 0x1912 JUMP JUMPDEST SWAP3 POP PUSH1 0x20 DUP5 ADD CALLDATALOAD PUSH8 0xFFFFFFFFFFFFFFFF DUP2 GT ISZERO PUSH2 0x1AC6 JUMPI PUSH1 0x0 DUP1 REVERT JUMPDEST PUSH2 0x1AD2 DUP7 DUP3 DUP8 ADD PUSH2 0x193F JUMP JUMPDEST SWAP3 POP POP PUSH1 0x40 DUP5 ADD CALLDATALOAD SWAP1 POP SWAP3 POP SWAP3 POP SWAP3 JUMP JUMPDEST PUSH1 0x0 DUP1 PUSH1 0x0 PUSH1 0x60 DUP5 DUP7 SUB SLT ISZERO PUSH2 0x1AF8 JUMPI PUSH1 0x0 DUP1 REVERT JUMPDEST DUP4 CALLDATALOAD SWAP3 POP PUSH1 0x20 DUP5 ADD CALLDATALOAD PUSH8 0xFFFFFFFFFFFFFFFF DUP2 GT ISZERO PUSH2 0x1AC6 JUMPI PUSH1 0x0 DUP1 REVERT JUMPDEST DUP3 ISZERO ISZERO DUP2 MSTORE PUSH1 0x40 PUSH1 0x20 DUP3 ADD MSTORE PUSH1 0x0 PUSH2 0x1B31 PUSH1 0x40 DUP4 ADD DUP5 PUSH2 0x18D3 JUMP JUMPDEST SWAP5 SWAP4 POP POP POP POP JUMP JUMPDEST PUSH1 0x0 DUP1 PUSH1 0x40 DUP4 DUP6 SUB SLT ISZERO PUSH2 0x1B4C JUMPI PUSH1 0x0 DUP1 REVERT JUMPDEST DUP3 CALLDATALOAD PUSH8 0xFFFFFFFFFFFFFFFF DUP2 GT ISZERO PUSH2 0x1B63 JUMPI PUSH1 0x0 DUP1 REVERT JUMPDEST PUSH2 0x1B6F DUP6 DUP3 DUP7 ADD PUSH2 0x193F JUMP JUMPDEST SWAP3 POP POP PUSH2 0x1B7E PUSH1 0x20 DUP5 ADD PUSH2 0x1857 JUMP JUMPDEST SWAP1 POP SWAP3 POP SWAP3 SWAP1 POP JUMP JUMPDEST PUSH1 0x0 DUP1 PUSH1 0x40 DUP4 DUP6 SUB SLT ISZERO PUSH2 0x1B9A JUMPI PUSH1 0x0 DUP1 REVERT JUMPDEST DUP3 CALLDATALOAD SWAP2 POP PUSH1 0x20 DUP4 ADD CALLDATALOAD PUSH8 0xFFFFFFFFFFFFFFFF DUP2 GT ISZERO PUSH2 0x1A04 JUMPI PUSH1 0x0 DUP1 REVERT JUMPDEST PUSH1 0x0 DUP1 PUSH1 0x0 PUSH1 0x60 DUP5 DUP7 SUB SLT ISZERO PUSH2 0x1BCD JUMPI PUSH1 0x0 DUP1 REVERT JUMPDEST PUSH2 0x1BD6 DUP5 PUSH2 0x1912 JUMP JUMPDEST SWAP3 POP PUSH1 0x20 DUP5 ADD CALLDATALOAD PUSH8 0xFFFFFFFFFFFFFFFF DUP2 GT ISZERO PUSH2 0x1BF2 JUMPI PUSH1 0x0 DUP1 REVERT JUMPDEST PUSH2 0x1BFE DUP7 DUP3 DUP8 ADD PUSH2 0x193F JUMP JUMPDEST SWAP3 POP POP PUSH2 0x1C0D PUSH1 0x40 DUP6 ADD PUSH2 0x1857 JUMP JUMPDEST SWAP1 POP SWAP3 POP SWAP3 POP SWAP3 JUMP JUMPDEST PUSH1 0x0 DUP1 PUSH1 0x40 DUP4 DUP6 SUB SLT ISZERO PUSH2 0x1C29 JUMPI PUSH1 0x0 DUP1 REVERT JUMPDEST DUP3 CALLDATALOAD PUSH8 0xFFFFFFFFFFFFFFFF DUP2 GT ISZERO PUSH2 0x1C40 JUMPI PUSH1 0x0 DUP1 REVERT JUMPDEST PUSH2 0x1C4C DUP6 DUP3 DUP7 ADD PUSH2 0x193F JUMP JUMPDEST SWAP6 PUSH1 0x20 SWAP5 SWAP1 SWAP5 ADD CALLDATALOAD SWAP5 POP POP POP POP JUMP JUMPDEST PUSH1 0x0 PUSH1 0x20 DUP3 DUP5 SUB SLT ISZERO PUSH2 0x1C6D JUMPI PUSH1 0x0 DUP1 REVERT JUMPDEST DUP2 CALLDATALOAD PUSH8 0xFFFFFFFFFFFFFFFF DUP2 GT ISZERO PUSH2 0x1C84 JUMPI PUSH1 0x0 DUP1 REVERT JUMPDEST PUSH2 0x1B31 DUP5 DUP3 DUP6 ADD PUSH2 0x193F JUMP JUMPDEST PUSH1 0x1 DUP2 DUP2 SHR SWAP1 DUP3 AND DUP1 PUSH2 0x1CA4 JUMPI PUSH1 0x7F DUP3 AND SWAP2 POP JUMPDEST PUSH1 0x20 DUP3 LT DUP2 EQ ISZERO PUSH2 0x1CC5 JUMPI PUSH4 0x4E487B71 PUSH1 0xE0 SHL PUSH1 0x0 MSTORE PUSH1 0x22 PUSH1 0x4 MSTORE PUSH1 0x24 PUSH1 0x0 REVERT JUMPDEST POP SWAP2 SWAP1 POP JUMP JUMPDEST PUSH1 0x0 DUP3 MLOAD PUSH2 0x1CDD DUP2 DUP5 PUSH1 0x20 DUP8 ADD PUSH2 0x18A7 JUMP JUMPDEST SWAP2 SWAP1 SWAP2 ADD SWAP3 SWAP2 POP POP JUMP JUMPDEST PUSH4 0x4E487B71 PUSH1 0xE0 SHL PUSH1 0x0 MSTORE PUSH1 0x11 PUSH1 0x4 MSTORE PUSH1 0x24 PUSH1 0x0 REVERT JUMPDEST PUSH1 0x0 DUP2 PUSH1 0x0 NOT DIV DUP4 GT DUP3 ISZERO ISZERO AND ISZERO PUSH2 0x1D17 JUMPI PUSH2 0x1D17 PUSH2 0x1CE7 JUMP JUMPDEST POP MUL SWAP1 JUMP JUMPDEST PUSH1 0x0 DUP3 PUSH2 0x1D39 JUMPI PUSH4 0x4E487B71 PUSH1 0xE0 SHL PUSH1 0x0 MSTORE PUSH1 0x12 PUSH1 0x4 MSTORE PUSH1 0x24 PUSH1 0x0 REVERT JUMPDEST POP DIV SWAP1 JUMP JUMPDEST PUSH1 0x0 PUSH1 0x20 DUP3 DUP5 SUB SLT ISZERO PUSH2 0x1D50 JUMPI PUSH1 0x0 DUP1 REVERT JUMPDEST DUP2 MLOAD DUP1 ISZERO ISZERO DUP2 EQ PUSH2 0xB9A JUMPI PUSH1 0x0 DUP1 REVERT JUMPDEST PUSH1 0x0 PUSH1 0x1 PUSH1 0x1 PUSH1 0x80 SHL SUB DUP1 DUP4 AND DUP2 DUP2 EQ ISZERO PUSH2 0x1D7D JUMPI PUSH2 0x1D7D PUSH2 0x1CE7 JUMP JUMPDEST PUSH1 0x1 ADD SWAP4 SWAP3 POP POP POP JUMP JUMPDEST DUP1 MLOAD PUSH10 0xFFFFFFFFFFFFFFFFFFFF DUP2 AND DUP2 EQ PUSH2 0x186E JUMPI PUSH1 0x0 DUP1 REVERT JUMPDEST PUSH1 0x0 DUP1 PUSH1 0x0 DUP1 PUSH1 0x0 PUSH1 0xA0 DUP7 DUP9 SUB SLT ISZERO PUSH2 0x1DB9 JUMPI PUSH1 0x0 DUP1 REVERT JUMPDEST PUSH2 0x1DC2 DUP7 PUSH2 0x1D87 JUMP JUMPDEST SWAP5 POP PUSH1 0x20 DUP7 ADD MLOAD SWAP4 POP PUSH1 0x40 DUP7 ADD MLOAD SWAP3 POP PUSH1 0x60 DUP7 ADD MLOAD SWAP2 POP PUSH2 0x1DE5 PUSH1 0x80 DUP8 ADD PUSH2 0x1D87 JUMP JUMPDEST SWAP1 POP SWAP3 SWAP6 POP SWAP3 SWAP6 SWAP1 SWAP4 POP JUMP JUMPDEST PUSH1 0x0 DUP3 NOT DUP3 GT ISZERO PUSH2 0x1E04 JUMPI PUSH2 0x1E04 PUSH2 0x1CE7 JUMP JUMPDEST POP ADD SWAP1 JUMP JUMPDEST PUSH1 0x0 PUSH1 0x1 PUSH1 0x1 PUSH1 0x80 SHL SUB DUP4 DUP2 AND SWAP1 DUP4 AND DUP2 DUP2 LT ISZERO PUSH2 0x1E29 JUMPI PUSH2 0x1E29 PUSH2 0x1CE7 JUMP JUMPDEST SUB SWAP4 SWAP3 POP POP POP JUMP JUMPDEST PUSH1 0x20 DUP1 DUP3 MSTORE DUP2 DUP2 ADD MSTORE PUSH32 0x4F776E61626C653A2063616C6C6572206973206E6F7420746865206F776E6572 PUSH1 0x40 DUP3 ADD MSTORE PUSH1 0x60 ADD SWAP1 JUMP JUMPDEST PUSH1 0x0 PUSH1 0x20 DUP3 DUP5 SUB SLT ISZERO PUSH2 0x1E78 JUMPI PUSH1 0x0 DUP1 REVERT JUMPDEST POP MLOAD SWAP2 SWAP1 POP JUMP JUMPDEST PUSH4 0x4E487B71 PUSH1 0xE0 SHL PUSH1 0x0 MSTORE PUSH1 0x32 PUSH1 0x4 MSTORE PUSH1 0x24 PUSH1 0x0 REVERT JUMPDEST PUSH1 0x0 DUP1 DUP4 SLOAD DUP2 PUSH1 0x1 DUP3 DUP2 SHR SWAP2 POP DUP1 DUP4 AND DUP1 PUSH2 0x1EB1 JUMPI PUSH1 0x7F DUP4 AND SWAP3 POP JUMPDEST PUSH1 0x20 DUP1 DUP5 LT DUP3 EQ ISZERO PUSH2 0x1ED1 JUMPI PUSH4 0x4E487B71 PUSH1 0xE0 SHL DUP7 MSTORE PUSH1 0x22 PUSH1 0x4 MSTORE PUSH1 0x24 DUP7 REVERT JUMPDEST DUP2 DUP1 ISZERO PUSH2 0x1EE5 JUMPI PUSH1 0x1 DUP2 EQ PUSH2 0x1EF6 JUMPI PUSH2 0x1F23 JUMP JUMPDEST PUSH1 0xFF NOT DUP7 AND DUP10 MSTORE DUP5 DUP10 ADD SWAP7 POP PUSH2 0x1F23 JUMP JUMPDEST PUSH1 0x0 DUP11 DUP2 MSTORE PUSH1 0x20 SWAP1 KECCAK256 PUSH1 0x0 JUMPDEST DUP7 DUP2 LT ISZERO PUSH2 0x1F1B JUMPI DUP2 SLOAD DUP12 DUP3 ADD MSTORE SWAP1 DUP6 ADD SWAP1 DUP4 ADD PUSH2 0x1F02 JUMP JUMPDEST POP POP DUP5 DUP10 ADD SWAP7 POP JUMPDEST POP SWAP5 SWAP9 SWAP8 POP POP POP POP POP POP POP POP JUMP JUMPDEST PUSH1 0x0 PUSH1 0x0 NOT DUP3 EQ ISZERO PUSH2 0x1F45 JUMPI PUSH2 0x1F45 PUSH2 0x1CE7 JUMP JUMPDEST POP PUSH1 0x1 ADD SWAP1 JUMP JUMPDEST PUSH1 0x0 PUSH1 0xFF DUP3 AND PUSH1 0xFF DUP2 EQ ISZERO PUSH2 0x1F63 JUMPI PUSH2 0x1F63 PUSH2 0x1CE7 JUMP JUMPDEST PUSH1 0x1 ADD SWAP3 SWAP2 POP POP JUMP INVALID LOG2 PUSH5 0x6970667358 0x22 SLT KECCAK256 MSTORE 0x2C 0x2E LOG1 DUP6 0xEC SWAP15 0xD1 PUSH19 0xDAEBB475BC353215DCF5AFCA6AADD5A9DA88E7 BASEFEE PUSH21 0xCCC264736F6C634300080B00330000000000000000 ",
  "sha1": "37f76c0d078a9951af3cdabff62fd3cd22019691",
  "source": "//SPDX-License-Identifier: MIT\npragma solidity ^0.8.0;\n\nimport \"../interfaces/DataTypes.sol\";\nimport \"../interfaces/ILendingPoolAddressesProvider.sol\";\nimport \"../interfaces/ILendingPool.sol\";\nimport \"../interfaces/TransferHelper.sol\";\nimport \"../interfaces/IMoonSquares.sol\";\n\nimport \"@chainlink/contracts/src/v0.8/interfaces/KeeperCompatibleInterface.sol\";\nimport \"@chainlink/contracts/src/v0.8/interfaces/AggregatorV3Interface.sol\";\n//import \"@openzeppelin/contracts/token/ERC20/IERC20.sol\";\nimport \"@openzeppelin/contracts/access/Ownable.sol\";\n\n\n\ncontract DailyRocket is Ownable, KeeperCompatibleInterface {\n\n    ILendingPoolAddressesProvider provider = ILendingPoolAddressesProvider(\n        address(0x88757f2f99175387aB4C6a4b3067c77A695b0349)\n    );  \n    ILendingPool lendingPool = ILendingPool(provider.getLendingPool());\n    \n    IMoonSquares public moonSquare;\n\n    uint128 public dayCount;//Kepps track of the days\n\n    string[] public predictableAssets;//all assets that a user can predict\n    address[] assetPriceAggregators;\n\n    mapping(string => bool) public activeAsset;\n\n    struct DayInfo {\n        int256 closePrice;\n        uint256 noOfPlayers;\n        uint256 noOfWinners;\n        uint256 totalAmount;\n    }\n\n    mapping(uint => mapping(string => DayInfo)) public dayAssetInfo;\n\n    //mapping(uint256 => mapping(string => int256)) public dayAssetClosePrice; //Closing Price per asset \n\n    mapping(uint256 => uint256) dayCloseTime; //Closing Time for every asset\n    \n    address Dai = 0xFf795577d9AC8bD7D90Ee22b6C1703490b6512FD;\n\n    uint256 public contractStartTime; //The contract should start at 0000.00 hours\n\n    //mapping(uint256 => mapping(string => uint256)) public dayAssetTotalAmount;\n\n    //mapping(uint256 => mapping(string => uint256)) public dayAssetNoOfWinners;\n    \n    mapping(uint256 => mapping(string => int256[])) public dayAssetPrediction;\n\n    mapping(uint256 => mapping(string => address[])) public dayAssetPredictors;\n\n    event Predicted(address indexed _placer, int256 _prediction);\n    \n    struct Charity {\n        bytes8 name;\n        bytes32 link; //sends people to the charity's official site\n    }\n    struct Prediction {\n        int256 prediction;\n        uint256 time;\n        bool isWinner;\n    }\n    \n    mapping (address => Charity) public presentCharities;\n\n    mapping(uint128 => mapping(string => address[])) public dailyAssetWinners;\n\n    //user and their prediction\n    mapping(uint128 => mapping(string => mapping(address => Prediction))) public dayAssetUserPrediction;\n\n    constructor(\n        //address _dai,\n        IMoonSquares _moonsqr\n        )\n    {\n        //AcceptedTokens.push(_dai);\n        moonSquare = _moonsqr;\n        contractStartTime = block.timestamp;\n        dayCount = 1;\n        dayCloseTime[dayCount] = contractStartTime + 86400 seconds;//adds a day to the start time. to change to an input later.\n    }//instantiate the token addresses upon deployment\n\n\n    function setNewClosingPrice() internal {\n        for (uint256 i = 0; i < assetPriceAggregators.length; i++){\n            dayAssetInfo[dayCount][predictableAssets[i]].closePrice = getPrice(i);\n        }\n    }\n    \n    function addAssetAndAgg(string memory _asset, address _aggregator) public onlyOwner {\n        predictableAssets.push(_asset);\n        assetPriceAggregators.push(_aggregator);\n        activeAsset[_asset] = true;\n    }\n\n    function predictClosePrice(\n        string memory _asset, \n        int _prediction\n    ) public\n    {   \n        require(activeAsset[_asset] == true);\n        if (dayCount > 1) {\n            require(getTime() <= dayCloseTime[dayCount -1] + 64800 seconds);//After this time, one cannot\n        }\n        uint256 amount = 10000000000000000000;//the amount we set for the daily close\n    \n        require(IERC20(Dai).allowance(msg.sender, address(this)) >= uint(amount));\n        IERC20(Dai).transferFrom(msg.sender, address(this), uint(amount));\n        \n        dayAssetInfo[dayCount][_asset].totalAmount += amount;\n        //Updates The prediction mapping\n        dayAssetUserPrediction[dayCount][_asset][msg.sender] = Prediction(\n            _prediction,\n            getTime(),\n            false\n        );\n        //adds to the list of predictions\n        dayAssetPrediction[dayCount][_asset].push(_prediction);\n        //add the sender to the predictors array\n        dayAssetPredictors[dayCount][_asset].push(msg.sender);\n\n        emit Predicted(msg.sender, _prediction);\n    }\n\n    function setNumberOfWinners() private {\n        uint128 day = dayCount;\n        for (uint8 i = 0; i < predictableAssets.length; i++) {\n            require(\n                dayAssetPrediction[day][predictableAssets[i]].length\n                ==\n                dayAssetPredictors[day][predictableAssets[i]].length\n            );\n            for (uint8 p = 0; p < dayAssetPrediction[day][predictableAssets[i]].length; p++) {\n                require(\n                    dayAssetPrediction[day][predictableAssets[i]][p]\n                    ==\n                    dayAssetInfo[day][predictableAssets[i]].closePrice\n                );\n                dailyAssetWinners[day][predictableAssets[i]].push(dayAssetPredictors[day][predictableAssets[i]][p]);\n                dayAssetInfo[day][predictableAssets[i]].noOfWinners +=1;\n\n                moonSquare.addToWinners(dayAssetPredictors[day][predictableAssets[i]][p]);\n            }\n        }\n    }\n\n\n    function getTime() public view returns(uint){\n        AggregatorV3Interface priceFeed = AggregatorV3Interface(0x6135b13325bfC4B00278B4abC5e20bbce2D6580e);\n        (,,,uint answer,) = priceFeed.latestRoundData();\n         return uint(answer);\n    }\n\n    function getPrice(uint256 _aggindex) public view returns(int){\n        AggregatorV3Interface priceFeed = AggregatorV3Interface(assetPriceAggregators[_aggindex]);\n        (,int answer,,,) = priceFeed.latestRoundData();\n         return int(answer);\n    }\n\n    function claimWinnings(uint128 _day, string memory _asset) public {\n        //logic to see if the person had a winning prediction\n        require(dayAssetUserPrediction[_day][_asset][msg.sender].prediction == dayAssetInfo[_day][_asset].closePrice);\n        uint256 winners = dayAssetInfo[_day][_asset].noOfWinners;\n        dayAssetUserPrediction[_day][_asset][msg.sender].isWinner = true;\n        IERC20(Dai).transfer(\n            msg.sender, \n            ((dayAssetInfo[_day][_asset].totalAmount) * 90/100)/winners\n        );\n        \n    }\n\n    function isAwinner(\n        uint128 _day,\n        string memory _asset,\n        address checked\n    ) public view returns(bool){\n        if(dayAssetInfo[_day][_asset].closePrice == 0) {\n            return false;\n        }else {\n            require(\n                dayAssetUserPrediction[_day][_asset][checked].prediction\n                ==\n                dayAssetInfo[_day][_asset].closePrice\n            );\n            return true;\n        }\n    }\n    \n    function checkUpkeep(bytes calldata checkData) external view override returns (bool upkeepNeeded, bytes memory performData) {\n        if (dayCloseTime[dayCount] + 86400 seconds == getTime()){\n            upkeepNeeded = true;\n            return (true, abi.encodePacked(uint256(0)));\n        }\n        if (getTime() > dayCloseTime[dayCount -1] + 64800 seconds) {\n            upkeepNeeded = true;\n            return (true, abi.encodePacked(uint(1)));\n        }\n        performData = checkData;\n        \n    }\n    \n    function performUpkeep(bytes calldata performData) external override {\n         uint256 decodedValue = abi.decode(performData, (uint256));\n        if (decodedValue == 0) {\n            setNewClosingPrice();\n            setNumberOfWinners();\n            dayCount++;\n        }\n        if (decodedValue == 1) {\n            sendToIba();\n        }\n    }\n    \n    //sends non winnings to an interest bearibg account \n    function sendToIba() private {\n        require(getTime() > dayCloseTime[dayCount -1] + 64800 seconds);\n        for (uint128 i = 0; i < predictableAssets.length; i++) {\n            uint amount = ((dayAssetInfo[dayCount][predictableAssets[i]].totalAmount) * 10/100);\n            IERC20(Dai).approve(address(lendingPool), amount);\n            lendingPool.deposit(\n                Dai,\n                uint(amount),\n                address(moonSquare),\n                0\n            );\n        }\n    }\n\n\n    \n}",
  "sourcePath": "contracts/DailyRocket.sol",
  "type": "contract"
}