{
  "abi": [
    {
      "inputs": [
        {
          "internalType": "contract ISuperfluid",
          "name": "host",
          "type": "address"
        },
        {
          "internalType": "contract IConstantFlowAgreementV1",
          "name": "cfa",
          "type": "address"
        },
        {
          "internalType": "contract ISuperToken",
          "name": "acceptedToken",
          "type": "address"
        },
        {
          "internalType": "contract ISwapRouter",
          "name": "_swapRouter",
          "type": "address"
        }
      ],
      "stateMutability": "nonpayable",
      "type": "constructor"
    },
    {
      "anonymous": false,
      "inputs": [
        {
          "indexed": true,
          "internalType": "address",
          "name": "previousOwner",
          "type": "address"
        },
        {
          "indexed": true,
          "internalType": "address",
          "name": "newOwner",
          "type": "address"
        }
      ],
      "name": "OwnershipTransferred",
      "type": "event"
    },
    {
      "anonymous": false,
      "inputs": [
        {
          "indexed": true,
          "internalType": "address",
          "name": "_placer",
          "type": "address"
        },
        {
          "indexed": false,
          "internalType": "uint256",
          "name": "_start",
          "type": "uint256"
        },
        {
          "indexed": false,
          "internalType": "uint256",
          "name": "_end",
          "type": "uint256"
        }
      ],
      "name": "Predicted",
      "type": "event"
    },
    {
      "inputs": [],
      "name": "PAYMENT_INDEX",
      "outputs": [
        {
          "internalType": "uint32",
          "name": "",
          "type": "uint32"
        }
      ],
      "stateMutability": "view",
      "type": "function"
    },
    {
      "inputs": [],
      "name": "_acceptedToken",
      "outputs": [
        {
          "internalType": "contract ISuperToken",
          "name": "",
          "type": "address"
        }
      ],
      "stateMutability": "view",
      "type": "function"
    },
    {
      "inputs": [
        {
          "internalType": "string",
          "name": "_asset",
          "type": "string"
        },
        {
          "internalType": "address",
          "name": "_aggregator",
          "type": "address"
        }
      ],
      "name": "addAssetsAndAggregators",
      "outputs": [],
      "stateMutability": "nonpayable",
      "type": "function"
    },
    {
      "inputs": [
        {
          "internalType": "bytes8",
          "name": "_charityName",
          "type": "bytes8"
        },
        {
          "internalType": "address",
          "name": "_charityAddress",
          "type": "address"
        },
        {
          "internalType": "bytes32",
          "name": "_link",
          "type": "bytes32"
        }
      ],
      "name": "addCharity",
      "outputs": [],
      "stateMutability": "nonpayable",
      "type": "function"
    },
    {
      "inputs": [
        {
          "internalType": "address",
          "name": "_conAddress",
          "type": "address"
        }
      ],
      "name": "addContract",
      "outputs": [],
      "stateMutability": "nonpayable",
      "type": "function"
    },
    {
      "inputs": [
        {
          "internalType": "contract IRedirect",
          "name": "addr",
          "type": "address"
        }
      ],
      "name": "addFlowDistributor",
      "outputs": [],
      "stateMutability": "nonpayable",
      "type": "function"
    },
    {
      "inputs": [
        {
          "internalType": "contract IGovernanceToken",
          "name": "_gtAdress",
          "type": "address"
        }
      ],
      "name": "addGovernanceToken",
      "outputs": [],
      "stateMutability": "nonpayable",
      "type": "function"
    },
    {
      "inputs": [
        {
          "internalType": "address",
          "name": "_winner",
          "type": "address"
        }
      ],
      "name": "addToWinners",
      "outputs": [],
      "stateMutability": "nonpayable",
      "type": "function"
    },
    {
      "inputs": [
        {
          "internalType": "address",
          "name": "_add",
          "type": "address"
        }
      ],
      "name": "addpaymentToken",
      "outputs": [],
      "stateMutability": "nonpayable",
      "type": "function"
    },
    {
      "inputs": [
        {
          "internalType": "contract ISuperToken",
          "name": "",
          "type": "address"
        },
        {
          "internalType": "address",
          "name": "",
          "type": "address"
        },
        {
          "internalType": "bytes32",
          "name": "",
          "type": "bytes32"
        },
        {
          "internalType": "bytes",
          "name": "",
          "type": "bytes"
        },
        {
          "internalType": "bytes",
          "name": "",
          "type": "bytes"
        },
        {
          "internalType": "bytes",
          "name": "",
          "type": "bytes"
        }
      ],
      "name": "afterAgreementCreated",
      "outputs": [
        {
          "internalType": "bytes",
          "name": "",
          "type": "bytes"
        }
      ],
      "stateMutability": "nonpayable",
      "type": "function"
    },
    {
      "inputs": [
        {
          "internalType": "contract ISuperToken",
          "name": "",
          "type": "address"
        },
        {
          "internalType": "address",
          "name": "",
          "type": "address"
        },
        {
          "internalType": "bytes32",
          "name": "",
          "type": "bytes32"
        },
        {
          "internalType": "bytes",
          "name": "",
          "type": "bytes"
        },
        {
          "internalType": "bytes",
          "name": "",
          "type": "bytes"
        },
        {
          "internalType": "bytes",
          "name": "",
          "type": "bytes"
        }
      ],
      "name": "afterAgreementTerminated",
      "outputs": [
        {
          "internalType": "bytes",
          "name": "",
          "type": "bytes"
        }
      ],
      "stateMutability": "nonpayable",
      "type": "function"
    },
    {
      "inputs": [
        {
          "internalType": "contract ISuperToken",
          "name": "",
          "type": "address"
        },
        {
          "internalType": "address",
          "name": "",
          "type": "address"
        },
        {
          "internalType": "bytes32",
          "name": "",
          "type": "bytes32"
        },
        {
          "internalType": "bytes",
          "name": "",
          "type": "bytes"
        },
        {
          "internalType": "bytes",
          "name": "",
          "type": "bytes"
        },
        {
          "internalType": "bytes",
          "name": "",
          "type": "bytes"
        }
      ],
      "name": "afterAgreementUpdated",
      "outputs": [
        {
          "internalType": "bytes",
          "name": "",
          "type": "bytes"
        }
      ],
      "stateMutability": "nonpayable",
      "type": "function"
    },
    {
      "inputs": [
        {
          "internalType": "uint256",
          "name": "",
          "type": "uint256"
        }
      ],
      "name": "allowedAssets",
      "outputs": [
        {
          "internalType": "string",
          "name": "",
          "type": "string"
        }
      ],
      "stateMutability": "view",
      "type": "function"
    },
    {
      "inputs": [
        {
          "internalType": "uint256",
          "name": "",
          "type": "uint256"
        }
      ],
      "name": "allowedPayments",
      "outputs": [
        {
          "internalType": "address",
          "name": "",
          "type": "address"
        }
      ],
      "stateMutability": "view",
      "type": "function"
    },
    {
      "inputs": [
        {
          "internalType": "string",
          "name": "",
          "type": "string"
        }
      ],
      "name": "assetToAggregator",
      "outputs": [
        {
          "internalType": "address",
          "name": "",
          "type": "address"
        }
      ],
      "stateMutability": "view",
      "type": "function"
    },
    {
      "inputs": [
        {
          "internalType": "contract ISuperToken",
          "name": "",
          "type": "address"
        },
        {
          "internalType": "address",
          "name": "",
          "type": "address"
        },
        {
          "internalType": "bytes32",
          "name": "",
          "type": "bytes32"
        },
        {
          "internalType": "bytes",
          "name": "",
          "type": "bytes"
        },
        {
          "internalType": "bytes",
          "name": "",
          "type": "bytes"
        }
      ],
      "name": "beforeAgreementCreated",
      "outputs": [
        {
          "internalType": "bytes",
          "name": "",
          "type": "bytes"
        }
      ],
      "stateMutability": "view",
      "type": "function"
    },
    {
      "inputs": [
        {
          "internalType": "contract ISuperToken",
          "name": "",
          "type": "address"
        },
        {
          "internalType": "address",
          "name": "",
          "type": "address"
        },
        {
          "internalType": "bytes32",
          "name": "",
          "type": "bytes32"
        },
        {
          "internalType": "bytes",
          "name": "",
          "type": "bytes"
        },
        {
          "internalType": "bytes",
          "name": "",
          "type": "bytes"
        }
      ],
      "name": "beforeAgreementTerminated",
      "outputs": [
        {
          "internalType": "bytes",
          "name": "",
          "type": "bytes"
        }
      ],
      "stateMutability": "view",
      "type": "function"
    },
    {
      "inputs": [
        {
          "internalType": "contract ISuperToken",
          "name": "",
          "type": "address"
        },
        {
          "internalType": "address",
          "name": "",
          "type": "address"
        },
        {
          "internalType": "bytes32",
          "name": "",
          "type": "bytes32"
        },
        {
          "internalType": "bytes",
          "name": "",
          "type": "bytes"
        },
        {
          "internalType": "bytes",
          "name": "",
          "type": "bytes"
        }
      ],
      "name": "beforeAgreementUpdated",
      "outputs": [
        {
          "internalType": "bytes",
          "name": "",
          "type": "bytes"
        }
      ],
      "stateMutability": "view",
      "type": "function"
    },
    {
      "inputs": [
        {
          "internalType": "bytes",
          "name": "checkData",
          "type": "bytes"
        }
      ],
      "name": "checkUpkeep",
      "outputs": [
        {
          "internalType": "bool",
          "name": "upkeepNeeded",
          "type": "bool"
        },
        {
          "internalType": "bytes",
          "name": "performData",
          "type": "bytes"
        }
      ],
      "stateMutability": "view",
      "type": "function"
    },
    {
      "inputs": [
        {
          "internalType": "uint256",
          "name": "",
          "type": "uint256"
        }
      ],
      "name": "contracts",
      "outputs": [
        {
          "internalType": "address",
          "name": "",
          "type": "address"
        }
      ],
      "stateMutability": "view",
      "type": "function"
    },
    {
      "inputs": [
        {
          "internalType": "string",
          "name": "market",
          "type": "string"
        }
      ],
      "name": "getPrice",
      "outputs": [
        {
          "internalType": "int256",
          "name": "",
          "type": "int256"
        }
      ],
      "stateMutability": "view",
      "type": "function"
    },
    {
      "inputs": [],
      "name": "getTime",
      "outputs": [
        {
          "internalType": "uint256",
          "name": "",
          "type": "uint256"
        }
      ],
      "stateMutability": "view",
      "type": "function"
    },
    {
      "inputs": [
        {
          "internalType": "uint256",
          "name": "_round",
          "type": "uint256"
        },
        {
          "internalType": "string",
          "name": "market",
          "type": "string"
        },
        {
          "internalType": "address",
          "name": "checkeAddress",
          "type": "address"
        }
      ],
      "name": "isAwiner",
      "outputs": [
        {
          "internalType": "bool",
          "name": "",
          "type": "bool"
        }
      ],
      "stateMutability": "view",
      "type": "function"
    },
    {
      "inputs": [],
      "name": "lendingPool",
      "outputs": [
        {
          "internalType": "contract ILendingPool",
          "name": "",
          "type": "address"
        }
      ],
      "stateMutability": "view",
      "type": "function"
    },
    {
      "inputs": [],
      "name": "owner",
      "outputs": [
        {
          "internalType": "address",
          "name": "",
          "type": "address"
        }
      ],
      "stateMutability": "view",
      "type": "function"
    },
    {
      "inputs": [
        {
          "internalType": "bytes",
          "name": "performData",
          "type": "bytes"
        }
      ],
      "name": "performUpkeep",
      "outputs": [],
      "stateMutability": "nonpayable",
      "type": "function"
    },
    {
      "inputs": [],
      "name": "poolFee",
      "outputs": [
        {
          "internalType": "uint24",
          "name": "",
          "type": "uint24"
        }
      ],
      "stateMutability": "view",
      "type": "function"
    },
    {
      "inputs": [
        {
          "internalType": "uint256",
          "name": "_start",
          "type": "uint256"
        },
        {
          "internalType": "address",
          "name": "coin",
          "type": "address"
        },
        {
          "internalType": "string",
          "name": "market",
          "type": "string"
        }
      ],
      "name": "predictAsset",
      "outputs": [],
      "stateMutability": "nonpayable",
      "type": "function"
    },
    {
      "inputs": [
        {
          "internalType": "address",
          "name": "",
          "type": "address"
        }
      ],
      "name": "presentCharities",
      "outputs": [
        {
          "internalType": "bytes8",
          "name": "name",
          "type": "bytes8"
        },
        {
          "internalType": "bytes32",
          "name": "link",
          "type": "bytes32"
        }
      ],
      "stateMutability": "view",
      "type": "function"
    },
    {
      "inputs": [],
      "name": "provider",
      "outputs": [
        {
          "internalType": "contract ILendingPoolAddressesProvider",
          "name": "",
          "type": "address"
        }
      ],
      "stateMutability": "view",
      "type": "function"
    },
    {
      "inputs": [],
      "name": "renounceOwnership",
      "outputs": [],
      "stateMutability": "nonpayable",
      "type": "function"
    },
    {
      "inputs": [
        {
          "internalType": "uint128",
          "name": "",
          "type": "uint128"
        },
        {
          "internalType": "bytes8",
          "name": "",
          "type": "bytes8"
        }
      ],
      "name": "roundCharityVotes",
      "outputs": [
        {
          "internalType": "uint128",
          "name": "",
          "type": "uint128"
        }
      ],
      "stateMutability": "view",
      "type": "function"
    },
    {
      "inputs": [
        {
          "internalType": "uint256",
          "name": "",
          "type": "uint256"
        },
        {
          "internalType": "string",
          "name": "",
          "type": "string"
        },
        {
          "internalType": "address",
          "name": "",
          "type": "address"
        }
      ],
      "name": "roundCoinAddressBetsPlaced",
      "outputs": [
        {
          "internalType": "uint256",
          "name": "squareStartTime",
          "type": "uint256"
        },
        {
          "internalType": "uint256",
          "name": "squareEndTime",
          "type": "uint256"
        }
      ],
      "stateMutability": "view",
      "type": "function"
    },
    {
      "inputs": [
        {
          "internalType": "uint256",
          "name": "",
          "type": "uint256"
        },
        {
          "internalType": "string",
          "name": "",
          "type": "string"
        }
      ],
      "name": "roundCoinMoonPrice",
      "outputs": [
        {
          "internalType": "int256",
          "name": "",
          "type": "int256"
        }
      ],
      "stateMutability": "view",
      "type": "function"
    },
    {
      "inputs": [
        {
          "internalType": "uint256",
          "name": "",
          "type": "uint256"
        },
        {
          "internalType": "string",
          "name": "",
          "type": "string"
        }
      ],
      "name": "roundCoinStartPrice",
      "outputs": [
        {
          "internalType": "int256",
          "name": "",
          "type": "int256"
        }
      ],
      "stateMutability": "view",
      "type": "function"
    },
    {
      "inputs": [
        {
          "internalType": "uint256",
          "name": "",
          "type": "uint256"
        },
        {
          "internalType": "string",
          "name": "",
          "type": "string"
        }
      ],
      "name": "roundCoinStartTime",
      "outputs": [
        {
          "internalType": "uint256",
          "name": "",
          "type": "uint256"
        }
      ],
      "stateMutability": "view",
      "type": "function"
    },
    {
      "inputs": [
        {
          "internalType": "uint256",
          "name": "",
          "type": "uint256"
        },
        {
          "internalType": "string",
          "name": "",
          "type": "string"
        }
      ],
      "name": "roundCoinTotalStaked",
      "outputs": [
        {
          "internalType": "uint256",
          "name": "",
          "type": "uint256"
        }
      ],
      "stateMutability": "view",
      "type": "function"
    },
    {
      "inputs": [
        {
          "internalType": "uint256",
          "name": "",
          "type": "uint256"
        },
        {
          "internalType": "string",
          "name": "",
          "type": "string"
        }
      ],
      "name": "roundCoinWinningIsWinner",
      "outputs": [
        {
          "internalType": "bool",
          "name": "",
          "type": "bool"
        }
      ],
      "stateMutability": "view",
      "type": "function"
    },
    {
      "inputs": [
        {
          "internalType": "uint256",
          "name": "",
          "type": "uint256"
        },
        {
          "internalType": "string",
          "name": "",
          "type": "string"
        }
      ],
      "name": "roundCoinWinningTime",
      "outputs": [
        {
          "internalType": "uint256",
          "name": "",
          "type": "uint256"
        }
      ],
      "stateMutability": "view",
      "type": "function"
    },
    {
      "inputs": [
        {
          "internalType": "uint256",
          "name": "",
          "type": "uint256"
        },
        {
          "internalType": "string",
          "name": "",
          "type": "string"
        }
      ],
      "name": "roundCoinWinnings",
      "outputs": [
        {
          "internalType": "uint256",
          "name": "",
          "type": "uint256"
        }
      ],
      "stateMutability": "view",
      "type": "function"
    },
    {
      "inputs": [
        {
          "internalType": "int256",
          "name": "price",
          "type": "int256"
        },
        {
          "internalType": "string",
          "name": "market",
          "type": "string"
        }
      ],
      "name": "setMoonPrice",
      "outputs": [],
      "stateMutability": "nonpayable",
      "type": "function"
    },
    {
      "inputs": [],
      "name": "swapRouter",
      "outputs": [
        {
          "internalType": "contract ISwapRouter",
          "name": "",
          "type": "address"
        }
      ],
      "stateMutability": "view",
      "type": "function"
    },
    {
      "inputs": [],
      "name": "totalStaked",
      "outputs": [
        {
          "internalType": "uint256",
          "name": "",
          "type": "uint256"
        }
      ],
      "stateMutability": "view",
      "type": "function"
    },
    {
      "inputs": [
        {
          "internalType": "address",
          "name": "newOwner",
          "type": "address"
        }
      ],
      "name": "transferOwnership",
      "outputs": [],
      "stateMutability": "nonpayable",
      "type": "function"
    },
    {
      "inputs": [
        {
          "internalType": "bytes8",
          "name": "charity",
          "type": "bytes8"
        }
      ],
      "name": "voteForCharity",
      "outputs": [],
      "stateMutability": "nonpayable",
      "type": "function"
    },
    {
      "inputs": [
        {
          "internalType": "uint128",
          "name": "",
          "type": "uint128"
        },
        {
          "internalType": "uint256",
          "name": "",
          "type": "uint256"
        }
      ],
      "name": "winers",
      "outputs": [
        {
          "internalType": "address",
          "name": "",
          "type": "address"
        }
      ],
      "stateMutability": "view",
      "type": "function"
    }
  ],
  "bytecode": "60a06040819052600d80546001600160a01b0319167388757f2f99175387ab4c6a4b3067c77a695b0349908117909155630261bf8b60e01b825290630261bf8b9060a490602090600481865afa1580156200005e573d6000803e3d6000fd5b505050506040513d601f19601f820116820180604052508101906200008491906200024b565b600e80546001600160a01b03929092166001600160a01b03199283161790556011805490911673ff795577d9ac8bd7d90ee22b6c1703490b6512fd179055348015620000cf57600080fd5b50604051620039af380380620039af833981016040819052620000f29162000272565b620000fd33620001e2565b6001600160a01b0384166200011157600080fd5b6001600160a01b0383166200012557600080fd5b6001600160a01b0382166200013957600080fd5b600180546001600160a01b03199081166001600160a01b03878116918217909355600280548316878516179055600380549092168584161790915590821660805242600b556040516315a722b960e31b815264150000000160048201819052919063ad3915c890602401600060405180830381600087803b158015620001be57600080fd5b505af1158015620001d3573d6000803e3d6000fd5b505050505050505050620002da565b600080546001600160a01b038381166001600160a01b0319831681178455604051919092169283917f8be0079c531659141344cd1fd0a4f28419497f9722a3daafe3b4186f6b6457e09190a35050565b6001600160a01b03811681146200024857600080fd5b50565b6000602082840312156200025e57600080fd5b81516200026b8162000232565b9392505050565b600080600080608085870312156200028957600080fd5b8451620002968162000232565b6020860151909450620002a98162000232565b6040860151909350620002bc8162000232565b6060860151909250620002cf8162000232565b939692955090935050565b6080516136a46200030b6000396000818161079c015281816114ce015281816115a3015261162d01526136a46000f3fe608060405234801561001057600080fd5b506004361061028a5760003560e01c80635f539d691161015c5780638ebfa8ae116100ce578063d391b70b11610087578063d391b70b146107be578063d86ed3e5146107d1578063d9bdb0ce146107e4578063f2fde38b146107f7578063f7dcf9ca1461080a578063fce7147b1461084657600080fd5b80638ebfa8ae1461070f578063a59a997314610722578063af3e28f714610735578063af64e1f914610748578063b3d10eb414610784578063c31c9c071461079757600080fd5b8063817b1cd211610120578063817b1cd214610680578063884d1f40146106895780638988c79e1461069c5780638afe702f146106d85780638b02ccf3146106eb5780638da5cb5b146106fe57600080fd5b80635f539d69146106145780635f9e7d77146106275780636e04ff0d1461063a578063715018a61461065b5780637181b8bf1461066357600080fd5b806330d9c915116102005780634d41c533116101b95780634d41c533146105395780634e5b3c7c14610575578063524f38891461058857806353c11f991461059b578063557ed1ba146105ae5780635a32b632146105b657600080fd5b806330d9c9151461047d578063322e0f2214610490578063426d4de9146104c45780634585e33b14610500578063474da79a146105135780634c70f3311461052657600080fd5b8063126df02b11610252578063126df02b1461035b57806316f949a1146103a95780631a8ff1f8146103f857806320e43db81461040b578063230dbd291461045757806325d8efe41461046a57600080fd5b806307b785bd1461028f578063085d4883146102a4578063089fe6aa146102d45780630ccd3ef9146102f1578063107ed26c14610311575b600080fd5b6102a261029d366004612ceb565b610859565b005b600d546102b7906001600160a01b031681565b6040516001600160a01b0390911681526020015b60405180910390f35b6102dd610bb881565b60405162ffffff90911681526020016102cb565b6103046102ff366004612d2a565b61095b565b6040516102cb9190612d9f565b61034d61031f366004612e7c565b6017602090815260009283526040909220815180830184018051928152908401929093019190912091525481565b6040519081526020016102cb565b610389610369366004612ec2565b601c602052600090815260409020805460019091015460c09190911b9082565b604080516001600160c01b031990931683526020830191909152016102cb565b6103e86103b7366004612e7c565b6027602090815260009283526040909220815180830184018051928152908401929093019190912091525460ff1681565b60405190151581526020016102cb565b6102a2610406366004612ec2565b610a07565b61043f610419366004612ef6565b601f6020908152600092835260408084209091529082529020546001600160801b031681565b6040516001600160801b0390911681526020016102cb565b610304610465366004612f6a565b610a85565b6102b7610478366004612d2a565b610ae7565b61030461048b366004613034565b610b11565b6102b761049e3660046130d2565b80516020818301810180516008825292820191909301209152546001600160a01b031681565b61034d6104d2366004612e7c565b6016602090815260009283526040909220815180830184018051928152908401929093019190912091525481565b6102a261050e36600461310e565b610b74565b6102b7610521366004612d2a565b610c8b565b6102a261053436600461314f565b610c9b565b61034d610547366004612e7c565b6013602090815260009283526040909220815180830184018051928152908401929093019190912091525481565b6003546102b7906001600160a01b031681565b61034d6105963660046130d2565b610dab565b6103046105a9366004612f6a565b610e53565b61034d610eb8565b6105ff6105c43660046131a0565b602660209081526000938452604080852084518086018401805192815290840195840195909520945292905282529020805460019091015482565b604080519283526020830191909152016102cb565b6102a2610622366004612ec2565b610f41565b610304610635366004613034565b610fbd565b61064d61064836600461310e565b611024565b6040516102cb9291906131fa565b6102a2611236565b61066b600081565b60405163ffffffff90911681526020016102cb565b61034d601b5481565b610304610697366004613034565b61126c565b61034d6106aa366004612e7c565b6019602090815260009283526040909220815180830184018051928152908401929093019190912091525481565b6102a26106e6366004613215565b6112cf565b6102a26106f9366004613230565b6113c1565b6000546001600160a01b03166102b7565b6102a261071d366004612ec2565b611a9d565b600e546102b7906001600160a01b031681565b6102a2610743366004612e7c565b611b43565b61034d610756366004612e7c565b601a602090815260009283526040909220815180830184018051928152908401929093019190912091525481565b6103e86107923660046131a0565b611c70565b6102b77f000000000000000000000000000000000000000000000000000000000000000081565b6102a26107cc366004612ec2565b611d76565b6103046107df366004612f6a565b611dc2565b6102a26107f2366004612ec2565b611e24565b6102a2610805366004612ec2565b611ea0565b61034d610818366004612e7c565b6018602090815260009283526040909220815180830184018051928152908401929093019190912091525481565b6102b7610854366004613288565b611f3b565b6000546001600160a01b0316331461088c5760405162461bcd60e51b8152600401610883906132b2565b60405180910390fd5b6001600160a01b03919091166000818152601c60205260408120805467ffffffffffffffff191660c09590951c9485178155600190810193909355601d80548085019091557f6d4407e7be21f808e6509aa9fa9143369579dd7d760fe20a2c09680fc146134f600482040180546001600160401b0360039093166008026101000a92830219169190950217909355601e805492830181559092527f50bb669a95c7b50b7e8a6f09454034b2b14cf2b85c730dca9a539ca82cb6e3500180546001600160a01b0319169091179055565b6005818154811061096b57600080fd5b906000526020600020016000915090508054610986906132e7565b80601f01602080910402602001604051908101604052809291908181526020018280546109b2906132e7565b80156109ff5780601f106109d4576101008083540402835291602001916109ff565b820191906000526020600020905b8154815290600101906020018083116109e257829003601f168201915b505050505081565b60005b600754811015610a6257336001600160a01b031660078281548110610a3157610a31613322565b6000918252602090912001546001600160a01b031614610a5057600080fd5b80610a5a8161334e565b915050610a0a565b50601080546001600160a01b0319166001600160a01b0392909216919091179055565b60405162461bcd60e51b815260206004820152602e60248201527f556e737570706f727465642063616c6c6261636b202d2041667465722041677260448201526d19595b595b9d08155c19185d195960921b6064820152606090608401610883565b60048181548110610af757600080fd5b6000918252602090912001546001600160a01b0316905081565b60405162461bcd60e51b815260206004820152602f60248201527f556e737570706f727465642063616c6c6261636b202d204265666f726520416760448201526e1c99595b595b9d0810dc99585d1959608a1b6064820152606090608401610883565b6000610b8282840184612d2a565b6005549091508111610c3c57610c3c60058281548110610ba457610ba4613322565b906000526020600020018054610bb9906132e7565b80601f0160208091040260200160405190810160405280929190818152602001828054610be5906132e7565b8015610c325780601f10610c0757610100808354040283529160200191610c32565b820191906000526020600020905b815481529060010190602001808311610c1557829003601f168201915b5050505050611f73565b806103e81415610c865762278d00600b6000828254610c5b9190613369565b9091555050601254610c75906001600160a01b0316611fdc565b50610c7e6121c9565b610c866122ec565b505050565b60078181548110610af757600080fd5b6000546001600160a01b03163314610cc55760405162461bcd60e51b8152600401610883906132b2565b600554606411610cd457600080fd5b80600883604051610ce59190613381565b9081526040516020918190038201902080546001600160a01b0319166001600160a01b039390931692909217909155600580546001810182556000919091528351610d57927f036b6384b5eca791c62761152d0c79bb0604c104a5fb6f4eb0703f3154bb3db090920191850190612c20565b50600680546001810182556000919091527ff652222313e28459528d920b65115c16c04f3efc82aaedc97be59f3f377c0d3f0180546001600160a01b0319166001600160a01b039290921691909117905550565b600080600883604051610dbe9190613381565b908152602001604051809103902060009054906101000a90046001600160a01b031690506000816001600160a01b031663feaf968c6040518163ffffffff1660e01b815260040160a060405180830381865afa158015610e22573d6000803e3d6000fd5b505050506040513d601f19601f82011682018060405250810190610e4691906133b7565b5091979650505050505050565b60405162461bcd60e51b815260206004820152603160248201527f556e737570706f727465642063616c6c6261636b202d2041667465722041677260448201527019595b595b9d0815195c9b5a5b985d1959607a1b6064820152606090608401610883565b600080736135b13325bfc4b00278b4abc5e20bbce2d6580e90506000816001600160a01b031663feaf968c6040518163ffffffff1660e01b815260040160a060405180830381865afa158015610f12573d6000803e3d6000fd5b505050506040513d601f19601f82011682018060405250810190610f3691906133b7565b509695505050505050565b6000546001600160a01b03163314610f6b5760405162461bcd60e51b8152600401610883906132b2565b600780546001810182556000919091527fa66cc928b5edb82af9bd49922954155ab7b0942694bea4ce44661d9a8736c6880180546001600160a01b0319166001600160a01b0392909216919091179055565b60405162461bcd60e51b815260206004820152603360248201527f556e737570706f727465642063616c6c6261636b202d20204265666f7265204160448201527219dc99595b595b9d0815195c9b5a5b985d1959606a1b6064820152606090608401610883565b6000606060005b6005548110156111b3576017600060096005848154811061104e5761104e613322565b906000526020600020016040516110659190613407565b90815260200160405180910390205481526020019081526020016000206005828154811061109557611095613322565b906000526020600020016040516110ac9190613407565b908152602001604051809103902054611169600583815481106110d1576110d1613322565b9060005260206000200180546110e6906132e7565b80601f0160208091040260200160405190810160405280929190818152602001828054611112906132e7565b801561115f5780601f106111345761010080835404028352916020019161115f565b820191906000526020600020905b81548152906001019060200180831161114257829003601f168201915b5050505050610dab565b14156111a1576001925060018160405160200161118891815260200190565b604051602081830303815290604052925092505061122f565b806111ab8161334e565b91505061102b565b50600b546111c49062278d00613369565b42106111f557604080516103e86020820152600193508391016040516020818303038152906040529150915061122f565b83838080601f0160208091040260200160405190810160405280939291908181526020018383808284376000920191909152509293505050505b9250929050565b6000546001600160a01b031633146112605760405162461bcd60e51b8152600401610883906132b2565b61126a60006123d9565b565b60405162461bcd60e51b815260206004820152602f60248201527f556e737570706f727465642063616c6c6261636b202d204265666f726520416760448201526e1c99595b595b9d081d5c19185d1959608a1b6064820152606090608401610883565b60005b600a546001600160801b031660009081526021602052604090205481101561135457600a546001600160801b0316600090815260216020526040902080543391908390811061132357611323613322565b6000918252602090912001546001600160a01b03161461134257600080fd5b8061134c8161334e565b9150506112d2565b50600a546001600160801b039081166000908152601f602090815260408083206001600160c01b0319861684529091528120805460019391929161139a918591166134a3565b92506101000a8154816001600160801b0302191690836001600160801b0316021790555050565b8160005b60045481101561141d57816001600160a01b0316600482815481106113ec576113ec613322565b6000918252602090912001546001600160a01b03161461140b57600080fd5b806114158161334e565b9150506113c5565b50601154678ac7230489e8000090610708906001600160a01b0386811691161461167b57604051636eb1769f60e11b815233600482015230602482015282906001600160a01b0387169063dd62ed3e90604401602060405180830381865afa15801561148d573d6000803e3d6000fd5b505050506040513d601f19601f820116820180604052508101906114b191906134ce565b10156114bc57600080fd5b6114c885333085612429565b6114f3857f000000000000000000000000000000000000000000000000000000000000000084612533565b60408051610100810182526001600160a01b038781168252601154811660208301908152610bb88385019081523060608501908152426080860190815260a0860189815267d02ab486cedc000060c08801818152600060e08a018181529a51631b67c43360e31b81528a518a166004820152975189166024890152955162ffffff166044880152935187166064870152915160848601525160a4850152905160c48401529451831660e4830152917f0000000000000000000000000000000000000000000000000000000000000000169063db3e219890610104016020604051808303816000875af11580156115ed573d6000803e3d6000fd5b505050506040513d601f19601f8201168201806040525081019061161191906134ce565b90508281101561167357601154611653906001600160a01b03167f00000000000000000000000000000000000000000000000000000000000000006000612533565b601154611673906001600160a01b03163361166e84876134e7565b61262c565b505050611775565b601154604051636eb1769f60e11b815233600482015230602482015283916001600160a01b03169063dd62ed3e90604401602060405180830381865afa1580156116c9573d6000803e3d6000fd5b505050506040513d601f19601f820116820180604052508101906116ed91906134ce565b10156116f857600080fd5b6011546040516323b872dd60e01b8152336004820152306024820152604481018490526001600160a01b03909116906323b872dd906064016020604051808303816000875af115801561174f573d6000803e3d6000fd5b505050506040513d601f19601f8201168201806040525081019061177391906134fe565b505b856026600060098760405161178a9190613381565b9081526020016040518091039020548152602001908152602001600020856040516117b59190613381565b908152604080516020928190038301902033600090815292529020556117db8187613369565b602660006009876040516117ef9190613381565b90815260200160405180910390205481526020019081526020016000208560405161181a9190613381565b908152604080516020928190038301812033600090815293529082206001019290925560229160099061184e908890613381565b9081526020016040518091039020548152602001908152602001600020846040516118799190613381565b90815260405190819003602090810182208054600181018255600091825291812090910180546001600160a01b031916331790556023916009906118be908890613381565b9081526020016040518091039020548152602001908152602001600020846040516118e99190613381565b908152604051908190036020908101822080546001810182556000918252918120909101889055602491600990611921908890613381565b90815260200160405180910390205481526020019081526020016000208460405161194c9190613381565b9081526040519081900360200190206119658288613369565b81546001810183556000928352602083200155604051839160199160099061198e908990613381565b9081526020016040518091039020548152602001908152602001600020856040516119b99190613381565b908152602001604051809103902060008282546119d69190613369565b92505081905550661ff973cafa8000601660006009876040516119f99190613381565b908152602001604051809103902054815260200190815260200160002085604051611a249190613381565b90815260200160405180910390206000828254611a419190613369565b90915550611a50905082612725565b337f8fc5fcafab42750870defc62f202c0d262793eca86ba9b802b7f22b102dd44b887611a7d8482613369565b6040805192835260208301919091520160405180910390a2505050505050565b60005b600754811015611af857336001600160a01b031660078281548110611ac757611ac7613322565b6000918252602090912001546001600160a01b031614611ae657600080fd5b80611af08161334e565b915050611aa0565b50600a546001600160801b031660009081526021602090815260408220805460018101825590835291200180546001600160a01b0319166001600160a01b0392909216919091179055565b6000546001600160a01b03163314611b6d5760405162461bcd60e51b8152600401610883906132b2565b8160176000600984604051611b829190613381565b908152602001604051809103902054815260200190815260200160002082604051611bad9190613381565b90815260405190819003602001902055611bc5610eb8565b60186000600984604051611bd99190613381565b908152602001604051809103902054815260200190815260200160002082604051611c049190613381565b90815260405190819003602001902055611c1d81610dab565b60136000600984604051611c319190613381565b908152602001604051809103902054815260200190815260200160002082604051611c5c9190613381565b908152604051908190036020019020555050565b6000838152601a60205260408082209051611c8c908590613381565b9081526020016040518091039020546026600086815260200190815260200160002084604051611cbc9190613381565b90815260408051602092819003830190206001600160a01b038616600090815292529020541115611cec57600080fd5b6000848152601a6020526040908190209051611d09908590613381565b9081526020016040518091039020546026600086815260200190815260200160002084604051611d399190613381565b90815260408051602092819003830190206001600160a01b038616600090815292529020600101541015611d6c57600080fd5b5060019392505050565b6000546001600160a01b03163314611da05760405162461bcd60e51b8152600401610883906132b2565b600f80546001600160a01b0319166001600160a01b0392909216919091179055565b60405162461bcd60e51b815260206004820152602e60248201527f556e737570706f727465642063616c6c6261636b202d2041667465722041677260448201526d19595b595b9d0810dc99585d195960921b6064820152606090608401610883565b6000546001600160a01b03163314611e4e5760405162461bcd60e51b8152600401610883906132b2565b600480546001810182556000919091527f8a35acfbc15ff81a39ae7d344fd709f28e8600b4aa8c65c6b64bfe7fe36bd19b0180546001600160a01b0319166001600160a01b0392909216919091179055565b6000546001600160a01b03163314611eca5760405162461bcd60e51b8152600401610883906132b2565b6001600160a01b038116611f2f5760405162461bcd60e51b815260206004820152602660248201527f4f776e61626c653a206e6577206f776e657220697320746865207a65726f206160448201526564647265737360d01b6064820152608401610883565b611f38816123d9565b50565b60216020528160005260406000208181548110611f5757600080fd5b6000918252602090912001546001600160a01b03169150829050565b611f7b610eb8565b601a6000600984604051611f8f9190613381565b908152602001604051809103902054815260200190815260200160002082604051611fba9190613381565b90815260405190819003602001902055611fd3816127e7565b611f3881612ae6565b6040516370a0823160e01b815230600482015260009081906001600160a01b038416906370a0823190602401602060405180830381865afa158015612025573d6000803e3d6000fd5b505050506040513d601f19601f8201168201806040525081019061204991906134ce565b90506000600c54601b5461205d91906134e7565b61206790836134e7565b600e54601154604051631a4ca37b60e21b81526001600160a01b0391821660048201526024810184905230604482015292935016906369328dec906064016020604051808303816000875af11580156120c4573d6000803e3d6000fd5b505050506040513d601f19601f820116820180604052508101906120e891906134ce565b5060115460035460405163095ea7b360e01b81526001600160a01b0391821660048201526024810184905291169063095ea7b3906044016020604051808303816000875af115801561213e573d6000803e3d6000fd5b505050506040513d601f19601f8201168201806040525081019061216291906134fe565b506003546040516345977d0360e01b8152600481018390526001600160a01b03909116906345977d0390602401600060405180830381600087803b1580156121a957600080fd5b505af11580156121bd573d6000803e3d6000fd5b50929695505050505050565b600a546001600160801b0316600090815260156020526040902054600154600254600354600f546001600160a01b03938416936339255d5b9381169263317e182f60e11b92908216911661222062278d0088613520565b60408051600081526020810190915261223f9392919060448101613571565b60408051601f198184030181529181526020820180516001600160e01b03166001600160e01b03199485161790525160e085901b909216825261228592916004016135b1565b6000604051808303816000875af11580156122a4573d6000803e3d6000fd5b505050506040513d6000823e601f3d908101601f191682016040526122cc91908101906135f8565b50600a80546001919060009061139a9084906001600160801b03166134a3565b600a546001600160801b031661230157600080fd5b6003546010546040516370a0823160e01b81526001600160a01b03918216600482015260009291909116906370a0823190602401602060405180830381865afa158015612352573d6000803e3d6000fd5b505050506040513d601f19601f8201168201806040525081019061237691906134ce565b6010546040516391c05b0b60e01b8152600481018390529192506001600160a01b0316906391c05b0b906024015b600060405180830381600087803b1580156123be57600080fd5b505af11580156123d2573d6000803e3d6000fd5b5050505050565b600080546001600160a01b038381166001600160a01b0319831681178455604051919092169283917f8be0079c531659141344cd1fd0a4f28419497f9722a3daafe3b4186f6b6457e09190a35050565b604080516001600160a01b0385811660248301528481166044830152606480830185905283518084039091018152608490920183526020820180516001600160e01b03166323b872dd60e01b179052915160009283929088169161248d9190613381565b6000604051808303816000865af19150503d80600081146124ca576040519150601f19603f3d011682016040523d82523d6000602084013e6124cf565b606091505b50915091508180156124f95750805115806124f95750808060200190518101906124f991906134fe565b61252b5760405162461bcd60e51b815260206004820152600360248201526229aa2360e91b6044820152606401610883565b505050505050565b604080516001600160a01b038481166024830152604480830185905283518084039091018152606490920183526020820180516001600160e01b031663095ea7b360e01b179052915160009283929087169161258f9190613381565b6000604051808303816000865af19150503d80600081146125cc576040519150601f19603f3d011682016040523d82523d6000602084013e6125d1565b606091505b50915091508180156125fb5750805115806125fb5750808060200190518101906125fb91906134fe565b6123d25760405162461bcd60e51b8152602060048201526002602482015261534160f01b6044820152606401610883565b604080516001600160a01b038481166024830152604480830185905283518084039091018152606490920183526020820180516001600160e01b031663a9059cbb60e01b17905291516000928392908716916126889190613381565b6000604051808303816000865af19150503d80600081146126c5576040519150601f19603f3d011682016040523d82523d6000602084013e6126ca565b606091505b50915091508180156126f45750805115806126f45750808060200190518101906126f491906134fe565b6123d25760405162461bcd60e51b815260206004820152600260248201526114d560f21b6044820152606401610883565b601154600e5460405163095ea7b360e01b81526001600160a01b0391821660048201526024810184905291169063095ea7b3906044016020604051808303816000875af115801561277a573d6000803e3d6000fd5b505050506040513d601f19601f8201168201806040525081019061279e91906134fe565b50600e5460115460405163e8eda9df60e01b81526001600160a01b039182166004820152602481018490523060448201526000606482015291169063e8eda9df906084016123a4565b602360006009836040516127fb9190613381565b9081526020016040518091039020548152602001908152602001600020816040516128269190613381565b9081526020016040518091039020805490506024600060098460405161284c9190613381565b9081526020016040518091039020548152602001908152602001600020826040516128779190613381565b908152604051908190036020019020541461289157600080fd5b60005b602360006009846040516128a89190613381565b9081526020016040518091039020548152602001908152602001600020826040516128d39190613381565b90815260405190819003602001902054811015612ae257601a60006009846040516128fe9190613381565b9081526020016040518091039020548152602001908152602001600020826040516129299190613381565b9081526020016040518091039020546023600060098560405161294c9190613381565b9081526020016040518091039020548152602001908152602001600020836040516129779190613381565b9081526020016040518091039020828154811061299657612996613322565b906000526020600020015410158015612a645750601a60006009846040516129be9190613381565b9081526020016040518091039020548152602001908152602001600020826040516129e99190613381565b90815260200160405180910390205460246000600985604051612a0c9190613381565b908152602001604051809103902054815260200190815260200160002083604051612a379190613381565b90815260200160405180910390208281548110612a5657612a56613322565b906000526020600020015411155b612a6d57600080fd5b60256000600984604051612a819190613381565b908152602001604051809103902054815260200190815260200160002082604051612aac9190613381565b90815260405160209181900382019020805460018101825560009182529190200181905580612ada8161334e565b915050612894565b5050565b60256000600983604051612afa9190613381565b908152602001604051809103902054815260200190815260200160002081604051612b259190613381565b90815260405190819003602001902054612b3e57600080fd5b600e546011546040516001600160a01b03928316926369328dec921690601690600090600990612b6f908890613381565b908152602001604051809103902054815260200190815260200160002084604051612b9a9190613381565b908152604051908190036020018120546001600160e01b031960e085901b1682526001600160a01b0392909216600482015260248101919091523060448201526064016020604051808303816000875af1158015612bfc573d6000803e3d6000fd5b505050506040513d601f19601f82011682018060405250810190612ae291906134ce565b828054612c2c906132e7565b90600052602060002090601f016020900481019282612c4e5760008555612c94565b82601f10612c6757805160ff1916838001178555612c94565b82800160010185558215612c94579182015b82811115612c94578251825591602001919060010190612c79565b50612ca0929150612ca4565b5090565b5b80821115612ca05760008155600101612ca5565b80356001600160c01b031981168114612cd157600080fd5b919050565b6001600160a01b0381168114611f3857600080fd5b600080600060608486031215612d0057600080fd5b612d0984612cb9565b92506020840135612d1981612cd6565b929592945050506040919091013590565b600060208284031215612d3c57600080fd5b5035919050565b60005b83811015612d5e578181015183820152602001612d46565b83811115612d6d576000848401525b50505050565b60008151808452612d8b816020860160208601612d43565b601f01601f19169290920160200192915050565b602081526000612db26020830184612d73565b9392505050565b634e487b7160e01b600052604160045260246000fd5b604051601f8201601f191681016001600160401b0381118282101715612df757612df7612db9565b604052919050565b60006001600160401b03821115612e1857612e18612db9565b50601f01601f191660200190565b600082601f830112612e3757600080fd5b8135612e4a612e4582612dff565b612dcf565b818152846020838601011115612e5f57600080fd5b816020850160208301376000918101602001919091529392505050565b60008060408385031215612e8f57600080fd5b8235915060208301356001600160401b03811115612eac57600080fd5b612eb885828601612e26565b9150509250929050565b600060208284031215612ed457600080fd5b8135612db281612cd6565b80356001600160801b0381168114612cd157600080fd5b60008060408385031215612f0957600080fd5b612f1283612edf565b9150612f2060208401612cb9565b90509250929050565b60008083601f840112612f3b57600080fd5b5081356001600160401b03811115612f5257600080fd5b60208301915083602082850101111561122f57600080fd5b600080600080600080600080600060c08a8c031215612f8857600080fd5b8935612f9381612cd6565b985060208a0135612fa381612cd6565b975060408a0135965060608a01356001600160401b0380821115612fc657600080fd5b612fd28d838e01612f29565b909850965060808c0135915080821115612feb57600080fd5b612ff78d838e01612f29565b909650945060a08c013591508082111561301057600080fd5b5061301d8c828d01612f29565b915080935050809150509295985092959850929598565b600080600080600080600060a0888a03121561304f57600080fd5b873561305a81612cd6565b9650602088013561306a81612cd6565b95506040880135945060608801356001600160401b038082111561308d57600080fd5b6130998b838c01612f29565b909650945060808a01359150808211156130b257600080fd5b506130bf8a828b01612f29565b989b979a50959850939692959293505050565b6000602082840312156130e457600080fd5b81356001600160401b038111156130fa57600080fd5b61310684828501612e26565b949350505050565b6000806020838503121561312157600080fd5b82356001600160401b0381111561313757600080fd5b61314385828601612f29565b90969095509350505050565b6000806040838503121561316257600080fd5b82356001600160401b0381111561317857600080fd5b61318485828601612e26565b925050602083013561319581612cd6565b809150509250929050565b6000806000606084860312156131b557600080fd5b8335925060208401356001600160401b038111156131d257600080fd5b6131de86828701612e26565b92505060408401356131ef81612cd6565b809150509250925092565b82151581526040602082015260006131066040830184612d73565b60006020828403121561322757600080fd5b612db282612cb9565b60008060006060848603121561324557600080fd5b83359250602084013561325781612cd6565b915060408401356001600160401b0381111561327257600080fd5b61327e86828701612e26565b9150509250925092565b6000806040838503121561329b57600080fd5b6132a483612edf565b946020939093013593505050565b6020808252818101527f4f776e61626c653a2063616c6c6572206973206e6f7420746865206f776e6572604082015260600190565b600181811c908216806132fb57607f821691505b6020821081141561331c57634e487b7160e01b600052602260045260246000fd5b50919050565b634e487b7160e01b600052603260045260246000fd5b634e487b7160e01b600052601160045260246000fd5b600060001982141561336257613362613338565b5060010190565b6000821982111561337c5761337c613338565b500190565b60008251613393818460208701612d43565b9190910192915050565b805169ffffffffffffffffffff81168114612cd157600080fd5b600080600080600060a086880312156133cf57600080fd5b6133d88661339d565b94506020860151935060408601519250606086015191506133fb6080870161339d565b90509295509295909350565b600080835481600182811c91508083168061342357607f831692505b602080841082141561344357634e487b7160e01b86526022600452602486fd5b818015613457576001811461346857613495565b60ff19861689528489019650613495565b60008a81526020902060005b8681101561348d5781548b820152908501908301613474565b505084890196505b509498975050505050505050565b60006001600160801b038083168185168083038211156134c5576134c5613338565b01949350505050565b6000602082840312156134e057600080fd5b5051919050565b6000828210156134f9576134f9613338565b500390565b60006020828403121561351057600080fd5b81518015158114612db257600080fd5b600081600b0b83600b0b8061354557634e487b7160e01b600052601260045260246000fd5b6b7fffffffffffffffffffffff1982146000198214161561356857613568613338565b90059392505050565b6001600160a01b03858116825284166020820152600b83900b60408201526080606082018190526000906135a790830184612d73565b9695505050505050565b6001600160a01b03831681526060602082018190526000906135d590830184612d73565b8281036040938401526002815261060f60f31b6020820152919091019392505050565b60006020828403121561360a57600080fd5b81516001600160401b0381111561362057600080fd5b8201601f8101841361363157600080fd5b805161363f612e4582612dff565b81815285602083850101111561365457600080fd5b613665826020830160208601612d43565b9594505050505056fea26469706673582212206f0faeb0f1a557a2b312013f01046285749a4a07cfab9084c99c8c882a7e759e64736f6c634300080b0033",
  "bytecodeSha1": "d7f6e8629af72debb27a938a675cb19d90af2256",
  "compiler": {
    "evm_version": "istanbul",
    "optimizer": {
      "enabled": true,
      "runs": 200
    },
    "version": "0.8.11+commit.d7f03943"
  },
  "contractName": "MoonSquares",
  "language": "Solidity",
  "natspec": {
    "kind": "dev",
    "methods": {
      "checkUpkeep(bytes)": {
        "notice": "checks if the contract requires work to be done.",
        "params": {
          "checkData": "data passed to the contract when checking for upkeep."
        },
        "returns": {
          "performData": "bytes that the keeper should call performUpkeep with, if upkeep is needed.",
          "upkeepNeeded": "boolean to indicate whether the keeper should call performUpkeep or not."
        }
      },
      "owner()": {
        "details": "Returns the address of the current owner."
      },
      "performUpkeep(bytes)": {
        "notice": "Performs work on the contract. Executed by the keepers, via the registry.",
        "params": {
          "performData": "is the data which was passed back from the checkData simulation."
        }
      },
      "renounceOwnership()": {
        "details": "Leaves the contract without owner. It will not be possible to call `onlyOwner` functions anymore. Can only be called by the current owner. NOTE: Renouncing ownership will leave the contract without an owner, thereby removing any functionality that is only available to the owner."
      },
      "transferOwnership(address)": {
        "details": "Transfers ownership of the contract to a new account (`newOwner`). Can only be called by the current owner."
      }
    },
    "version": 1
  },
  "opcodes": "PUSH1 0x80 PUSH1 0x40 MSTORE CALLVALUE DUP1 ISZERO PUSH2 0x10 JUMPI PUSH1 0x0 DUP1 REVERT JUMPDEST POP PUSH1 0x4 CALLDATASIZE LT PUSH2 0x28A JUMPI PUSH1 0x0 CALLDATALOAD PUSH1 0xE0 SHR DUP1 PUSH4 0x5F539D69 GT PUSH2 0x15C JUMPI DUP1 PUSH4 0x8EBFA8AE GT PUSH2 0xCE JUMPI DUP1 PUSH4 0xD391B70B GT PUSH2 0x87 JUMPI DUP1 PUSH4 0xD391B70B EQ PUSH2 0x7BE JUMPI DUP1 PUSH4 0xD86ED3E5 EQ PUSH2 0x7D1 JUMPI DUP1 PUSH4 0xD9BDB0CE EQ PUSH2 0x7E4 JUMPI DUP1 PUSH4 0xF2FDE38B EQ PUSH2 0x7F7 JUMPI DUP1 PUSH4 0xF7DCF9CA EQ PUSH2 0x80A JUMPI DUP1 PUSH4 0xFCE7147B EQ PUSH2 0x846 JUMPI PUSH1 0x0 DUP1 REVERT JUMPDEST DUP1 PUSH4 0x8EBFA8AE EQ PUSH2 0x70F JUMPI DUP1 PUSH4 0xA59A9973 EQ PUSH2 0x722 JUMPI DUP1 PUSH4 0xAF3E28F7 EQ PUSH2 0x735 JUMPI DUP1 PUSH4 0xAF64E1F9 EQ PUSH2 0x748 JUMPI DUP1 PUSH4 0xB3D10EB4 EQ PUSH2 0x784 JUMPI DUP1 PUSH4 0xC31C9C07 EQ PUSH2 0x797 JUMPI PUSH1 0x0 DUP1 REVERT JUMPDEST DUP1 PUSH4 0x817B1CD2 GT PUSH2 0x120 JUMPI DUP1 PUSH4 0x817B1CD2 EQ PUSH2 0x680 JUMPI DUP1 PUSH4 0x884D1F40 EQ PUSH2 0x689 JUMPI DUP1 PUSH4 0x8988C79E EQ PUSH2 0x69C JUMPI DUP1 PUSH4 0x8AFE702F EQ PUSH2 0x6D8 JUMPI DUP1 PUSH4 0x8B02CCF3 EQ PUSH2 0x6EB JUMPI DUP1 PUSH4 0x8DA5CB5B EQ PUSH2 0x6FE JUMPI PUSH1 0x0 DUP1 REVERT JUMPDEST DUP1 PUSH4 0x5F539D69 EQ PUSH2 0x614 JUMPI DUP1 PUSH4 0x5F9E7D77 EQ PUSH2 0x627 JUMPI DUP1 PUSH4 0x6E04FF0D EQ PUSH2 0x63A JUMPI DUP1 PUSH4 0x715018A6 EQ PUSH2 0x65B JUMPI DUP1 PUSH4 0x7181B8BF EQ PUSH2 0x663 JUMPI PUSH1 0x0 DUP1 REVERT JUMPDEST DUP1 PUSH4 0x30D9C915 GT PUSH2 0x200 JUMPI DUP1 PUSH4 0x4D41C533 GT PUSH2 0x1B9 JUMPI DUP1 PUSH4 0x4D41C533 EQ PUSH2 0x539 JUMPI DUP1 PUSH4 0x4E5B3C7C EQ PUSH2 0x575 JUMPI DUP1 PUSH4 0x524F3889 EQ PUSH2 0x588 JUMPI DUP1 PUSH4 0x53C11F99 EQ PUSH2 0x59B JUMPI DUP1 PUSH4 0x557ED1BA EQ PUSH2 0x5AE JUMPI DUP1 PUSH4 0x5A32B632 EQ PUSH2 0x5B6 JUMPI PUSH1 0x0 DUP1 REVERT JUMPDEST DUP1 PUSH4 0x30D9C915 EQ PUSH2 0x47D JUMPI DUP1 PUSH4 0x322E0F22 EQ PUSH2 0x490 JUMPI DUP1 PUSH4 0x426D4DE9 EQ PUSH2 0x4C4 JUMPI DUP1 PUSH4 0x4585E33B EQ PUSH2 0x500 JUMPI DUP1 PUSH4 0x474DA79A EQ PUSH2 0x513 JUMPI DUP1 PUSH4 0x4C70F331 EQ PUSH2 0x526 JUMPI PUSH1 0x0 DUP1 REVERT JUMPDEST DUP1 PUSH4 0x126DF02B GT PUSH2 0x252 JUMPI DUP1 PUSH4 0x126DF02B EQ PUSH2 0x35B JUMPI DUP1 PUSH4 0x16F949A1 EQ PUSH2 0x3A9 JUMPI DUP1 PUSH4 0x1A8FF1F8 EQ PUSH2 0x3F8 JUMPI DUP1 PUSH4 0x20E43DB8 EQ PUSH2 0x40B JUMPI DUP1 PUSH4 0x230DBD29 EQ PUSH2 0x457 JUMPI DUP1 PUSH4 0x25D8EFE4 EQ PUSH2 0x46A JUMPI PUSH1 0x0 DUP1 REVERT JUMPDEST DUP1 PUSH4 0x7B785BD EQ PUSH2 0x28F JUMPI DUP1 PUSH4 0x85D4883 EQ PUSH2 0x2A4 JUMPI DUP1 PUSH4 0x89FE6AA EQ PUSH2 0x2D4 JUMPI DUP1 PUSH4 0xCCD3EF9 EQ PUSH2 0x2F1 JUMPI DUP1 PUSH4 0x107ED26C EQ PUSH2 0x311 JUMPI JUMPDEST PUSH1 0x0 DUP1 REVERT JUMPDEST PUSH2 0x2A2 PUSH2 0x29D CALLDATASIZE PUSH1 0x4 PUSH2 0x2CEB JUMP JUMPDEST PUSH2 0x859 JUMP JUMPDEST STOP JUMPDEST PUSH1 0xD SLOAD PUSH2 0x2B7 SWAP1 PUSH1 0x1 PUSH1 0x1 PUSH1 0xA0 SHL SUB AND DUP2 JUMP JUMPDEST PUSH1 0x40 MLOAD PUSH1 0x1 PUSH1 0x1 PUSH1 0xA0 SHL SUB SWAP1 SWAP2 AND DUP2 MSTORE PUSH1 0x20 ADD JUMPDEST PUSH1 0x40 MLOAD DUP1 SWAP2 SUB SWAP1 RETURN JUMPDEST PUSH2 0x2DD PUSH2 0xBB8 DUP2 JUMP JUMPDEST PUSH1 0x40 MLOAD PUSH3 0xFFFFFF SWAP1 SWAP2 AND DUP2 MSTORE PUSH1 0x20 ADD PUSH2 0x2CB JUMP JUMPDEST PUSH2 0x304 PUSH2 0x2FF CALLDATASIZE PUSH1 0x4 PUSH2 0x2D2A JUMP JUMPDEST PUSH2 0x95B JUMP JUMPDEST PUSH1 0x40 MLOAD PUSH2 0x2CB SWAP2 SWAP1 PUSH2 0x2D9F JUMP JUMPDEST PUSH2 0x34D PUSH2 0x31F CALLDATASIZE PUSH1 0x4 PUSH2 0x2E7C JUMP JUMPDEST PUSH1 0x17 PUSH1 0x20 SWAP1 DUP2 MSTORE PUSH1 0x0 SWAP3 DUP4 MSTORE PUSH1 0x40 SWAP1 SWAP3 KECCAK256 DUP2 MLOAD DUP1 DUP4 ADD DUP5 ADD DUP1 MLOAD SWAP3 DUP2 MSTORE SWAP1 DUP5 ADD SWAP3 SWAP1 SWAP4 ADD SWAP2 SWAP1 SWAP2 KECCAK256 SWAP2 MSTORE SLOAD DUP2 JUMP JUMPDEST PUSH1 0x40 MLOAD SWAP1 DUP2 MSTORE PUSH1 0x20 ADD PUSH2 0x2CB JUMP JUMPDEST PUSH2 0x389 PUSH2 0x369 CALLDATASIZE PUSH1 0x4 PUSH2 0x2EC2 JUMP JUMPDEST PUSH1 0x1C PUSH1 0x20 MSTORE PUSH1 0x0 SWAP1 DUP2 MSTORE PUSH1 0x40 SWAP1 KECCAK256 DUP1 SLOAD PUSH1 0x1 SWAP1 SWAP2 ADD SLOAD PUSH1 0xC0 SWAP2 SWAP1 SWAP2 SHL SWAP1 DUP3 JUMP JUMPDEST PUSH1 0x40 DUP1 MLOAD PUSH1 0x1 PUSH1 0x1 PUSH1 0xC0 SHL SUB NOT SWAP1 SWAP4 AND DUP4 MSTORE PUSH1 0x20 DUP4 ADD SWAP2 SWAP1 SWAP2 MSTORE ADD PUSH2 0x2CB JUMP JUMPDEST PUSH2 0x3E8 PUSH2 0x3B7 CALLDATASIZE PUSH1 0x4 PUSH2 0x2E7C JUMP JUMPDEST PUSH1 0x27 PUSH1 0x20 SWAP1 DUP2 MSTORE PUSH1 0x0 SWAP3 DUP4 MSTORE PUSH1 0x40 SWAP1 SWAP3 KECCAK256 DUP2 MLOAD DUP1 DUP4 ADD DUP5 ADD DUP1 MLOAD SWAP3 DUP2 MSTORE SWAP1 DUP5 ADD SWAP3 SWAP1 SWAP4 ADD SWAP2 SWAP1 SWAP2 KECCAK256 SWAP2 MSTORE SLOAD PUSH1 0xFF AND DUP2 JUMP JUMPDEST PUSH1 0x40 MLOAD SWAP1 ISZERO ISZERO DUP2 MSTORE PUSH1 0x20 ADD PUSH2 0x2CB JUMP JUMPDEST PUSH2 0x2A2 PUSH2 0x406 CALLDATASIZE PUSH1 0x4 PUSH2 0x2EC2 JUMP JUMPDEST PUSH2 0xA07 JUMP JUMPDEST PUSH2 0x43F PUSH2 0x419 CALLDATASIZE PUSH1 0x4 PUSH2 0x2EF6 JUMP JUMPDEST PUSH1 0x1F PUSH1 0x20 SWAP1 DUP2 MSTORE PUSH1 0x0 SWAP3 DUP4 MSTORE PUSH1 0x40 DUP1 DUP5 KECCAK256 SWAP1 SWAP2 MSTORE SWAP1 DUP3 MSTORE SWAP1 KECCAK256 SLOAD PUSH1 0x1 PUSH1 0x1 PUSH1 0x80 SHL SUB AND DUP2 JUMP JUMPDEST PUSH1 0x40 MLOAD PUSH1 0x1 PUSH1 0x1 PUSH1 0x80 SHL SUB SWAP1 SWAP2 AND DUP2 MSTORE PUSH1 0x20 ADD PUSH2 0x2CB JUMP JUMPDEST PUSH2 0x304 PUSH2 0x465 CALLDATASIZE PUSH1 0x4 PUSH2 0x2F6A JUMP JUMPDEST PUSH2 0xA85 JUMP JUMPDEST PUSH2 0x2B7 PUSH2 0x478 CALLDATASIZE PUSH1 0x4 PUSH2 0x2D2A JUMP JUMPDEST PUSH2 0xAE7 JUMP JUMPDEST PUSH2 0x304 PUSH2 0x48B CALLDATASIZE PUSH1 0x4 PUSH2 0x3034 JUMP JUMPDEST PUSH2 0xB11 JUMP JUMPDEST PUSH2 0x2B7 PUSH2 0x49E CALLDATASIZE PUSH1 0x4 PUSH2 0x30D2 JUMP JUMPDEST DUP1 MLOAD PUSH1 0x20 DUP2 DUP4 ADD DUP2 ADD DUP1 MLOAD PUSH1 0x8 DUP3 MSTORE SWAP3 DUP3 ADD SWAP2 SWAP1 SWAP4 ADD KECCAK256 SWAP2 MSTORE SLOAD PUSH1 0x1 PUSH1 0x1 PUSH1 0xA0 SHL SUB AND DUP2 JUMP JUMPDEST PUSH2 0x34D PUSH2 0x4D2 CALLDATASIZE PUSH1 0x4 PUSH2 0x2E7C JUMP JUMPDEST PUSH1 0x16 PUSH1 0x20 SWAP1 DUP2 MSTORE PUSH1 0x0 SWAP3 DUP4 MSTORE PUSH1 0x40 SWAP1 SWAP3 KECCAK256 DUP2 MLOAD DUP1 DUP4 ADD DUP5 ADD DUP1 MLOAD SWAP3 DUP2 MSTORE SWAP1 DUP5 ADD SWAP3 SWAP1 SWAP4 ADD SWAP2 SWAP1 SWAP2 KECCAK256 SWAP2 MSTORE SLOAD DUP2 JUMP JUMPDEST PUSH2 0x2A2 PUSH2 0x50E CALLDATASIZE PUSH1 0x4 PUSH2 0x310E JUMP JUMPDEST PUSH2 0xB74 JUMP JUMPDEST PUSH2 0x2B7 PUSH2 0x521 CALLDATASIZE PUSH1 0x4 PUSH2 0x2D2A JUMP JUMPDEST PUSH2 0xC8B JUMP JUMPDEST PUSH2 0x2A2 PUSH2 0x534 CALLDATASIZE PUSH1 0x4 PUSH2 0x314F JUMP JUMPDEST PUSH2 0xC9B JUMP JUMPDEST PUSH2 0x34D PUSH2 0x547 CALLDATASIZE PUSH1 0x4 PUSH2 0x2E7C JUMP JUMPDEST PUSH1 0x13 PUSH1 0x20 SWAP1 DUP2 MSTORE PUSH1 0x0 SWAP3 DUP4 MSTORE PUSH1 0x40 SWAP1 SWAP3 KECCAK256 DUP2 MLOAD DUP1 DUP4 ADD DUP5 ADD DUP1 MLOAD SWAP3 DUP2 MSTORE SWAP1 DUP5 ADD SWAP3 SWAP1 SWAP4 ADD SWAP2 SWAP1 SWAP2 KECCAK256 SWAP2 MSTORE SLOAD DUP2 JUMP JUMPDEST PUSH1 0x3 SLOAD PUSH2 0x2B7 SWAP1 PUSH1 0x1 PUSH1 0x1 PUSH1 0xA0 SHL SUB AND DUP2 JUMP JUMPDEST PUSH2 0x34D PUSH2 0x596 CALLDATASIZE PUSH1 0x4 PUSH2 0x30D2 JUMP JUMPDEST PUSH2 0xDAB JUMP JUMPDEST PUSH2 0x304 PUSH2 0x5A9 CALLDATASIZE PUSH1 0x4 PUSH2 0x2F6A JUMP JUMPDEST PUSH2 0xE53 JUMP JUMPDEST PUSH2 0x34D PUSH2 0xEB8 JUMP JUMPDEST PUSH2 0x5FF PUSH2 0x5C4 CALLDATASIZE PUSH1 0x4 PUSH2 0x31A0 JUMP JUMPDEST PUSH1 0x26 PUSH1 0x20 SWAP1 DUP2 MSTORE PUSH1 0x0 SWAP4 DUP5 MSTORE PUSH1 0x40 DUP1 DUP6 KECCAK256 DUP5 MLOAD DUP1 DUP7 ADD DUP5 ADD DUP1 MLOAD SWAP3 DUP2 MSTORE SWAP1 DUP5 ADD SWAP6 DUP5 ADD SWAP6 SWAP1 SWAP6 KECCAK256 SWAP5 MSTORE SWAP3 SWAP1 MSTORE DUP3 MSTORE SWAP1 KECCAK256 DUP1 SLOAD PUSH1 0x1 SWAP1 SWAP2 ADD SLOAD DUP3 JUMP JUMPDEST PUSH1 0x40 DUP1 MLOAD SWAP3 DUP4 MSTORE PUSH1 0x20 DUP4 ADD SWAP2 SWAP1 SWAP2 MSTORE ADD PUSH2 0x2CB JUMP JUMPDEST PUSH2 0x2A2 PUSH2 0x622 CALLDATASIZE PUSH1 0x4 PUSH2 0x2EC2 JUMP JUMPDEST PUSH2 0xF41 JUMP JUMPDEST PUSH2 0x304 PUSH2 0x635 CALLDATASIZE PUSH1 0x4 PUSH2 0x3034 JUMP JUMPDEST PUSH2 0xFBD JUMP JUMPDEST PUSH2 0x64D PUSH2 0x648 CALLDATASIZE PUSH1 0x4 PUSH2 0x310E JUMP JUMPDEST PUSH2 0x1024 JUMP JUMPDEST PUSH1 0x40 MLOAD PUSH2 0x2CB SWAP3 SWAP2 SWAP1 PUSH2 0x31FA JUMP JUMPDEST PUSH2 0x2A2 PUSH2 0x1236 JUMP JUMPDEST PUSH2 0x66B PUSH1 0x0 DUP2 JUMP JUMPDEST PUSH1 0x40 MLOAD PUSH4 0xFFFFFFFF SWAP1 SWAP2 AND DUP2 MSTORE PUSH1 0x20 ADD PUSH2 0x2CB JUMP JUMPDEST PUSH2 0x34D PUSH1 0x1B SLOAD DUP2 JUMP JUMPDEST PUSH2 0x304 PUSH2 0x697 CALLDATASIZE PUSH1 0x4 PUSH2 0x3034 JUMP JUMPDEST PUSH2 0x126C JUMP JUMPDEST PUSH2 0x34D PUSH2 0x6AA CALLDATASIZE PUSH1 0x4 PUSH2 0x2E7C JUMP JUMPDEST PUSH1 0x19 PUSH1 0x20 SWAP1 DUP2 MSTORE PUSH1 0x0 SWAP3 DUP4 MSTORE PUSH1 0x40 SWAP1 SWAP3 KECCAK256 DUP2 MLOAD DUP1 DUP4 ADD DUP5 ADD DUP1 MLOAD SWAP3 DUP2 MSTORE SWAP1 DUP5 ADD SWAP3 SWAP1 SWAP4 ADD SWAP2 SWAP1 SWAP2 KECCAK256 SWAP2 MSTORE SLOAD DUP2 JUMP JUMPDEST PUSH2 0x2A2 PUSH2 0x6E6 CALLDATASIZE PUSH1 0x4 PUSH2 0x3215 JUMP JUMPDEST PUSH2 0x12CF JUMP JUMPDEST PUSH2 0x2A2 PUSH2 0x6F9 CALLDATASIZE PUSH1 0x4 PUSH2 0x3230 JUMP JUMPDEST PUSH2 0x13C1 JUMP JUMPDEST PUSH1 0x0 SLOAD PUSH1 0x1 PUSH1 0x1 PUSH1 0xA0 SHL SUB AND PUSH2 0x2B7 JUMP JUMPDEST PUSH2 0x2A2 PUSH2 0x71D CALLDATASIZE PUSH1 0x4 PUSH2 0x2EC2 JUMP JUMPDEST PUSH2 0x1A9D JUMP JUMPDEST PUSH1 0xE SLOAD PUSH2 0x2B7 SWAP1 PUSH1 0x1 PUSH1 0x1 PUSH1 0xA0 SHL SUB AND DUP2 JUMP JUMPDEST PUSH2 0x2A2 PUSH2 0x743 CALLDATASIZE PUSH1 0x4 PUSH2 0x2E7C JUMP JUMPDEST PUSH2 0x1B43 JUMP JUMPDEST PUSH2 0x34D PUSH2 0x756 CALLDATASIZE PUSH1 0x4 PUSH2 0x2E7C JUMP JUMPDEST PUSH1 0x1A PUSH1 0x20 SWAP1 DUP2 MSTORE PUSH1 0x0 SWAP3 DUP4 MSTORE PUSH1 0x40 SWAP1 SWAP3 KECCAK256 DUP2 MLOAD DUP1 DUP4 ADD DUP5 ADD DUP1 MLOAD SWAP3 DUP2 MSTORE SWAP1 DUP5 ADD SWAP3 SWAP1 SWAP4 ADD SWAP2 SWAP1 SWAP2 KECCAK256 SWAP2 MSTORE SLOAD DUP2 JUMP JUMPDEST PUSH2 0x3E8 PUSH2 0x792 CALLDATASIZE PUSH1 0x4 PUSH2 0x31A0 JUMP JUMPDEST PUSH2 0x1C70 JUMP JUMPDEST PUSH2 0x2B7 PUSH32 0x0 DUP2 JUMP JUMPDEST PUSH2 0x2A2 PUSH2 0x7CC CALLDATASIZE PUSH1 0x4 PUSH2 0x2EC2 JUMP JUMPDEST PUSH2 0x1D76 JUMP JUMPDEST PUSH2 0x304 PUSH2 0x7DF CALLDATASIZE PUSH1 0x4 PUSH2 0x2F6A JUMP JUMPDEST PUSH2 0x1DC2 JUMP JUMPDEST PUSH2 0x2A2 PUSH2 0x7F2 CALLDATASIZE PUSH1 0x4 PUSH2 0x2EC2 JUMP JUMPDEST PUSH2 0x1E24 JUMP JUMPDEST PUSH2 0x2A2 PUSH2 0x805 CALLDATASIZE PUSH1 0x4 PUSH2 0x2EC2 JUMP JUMPDEST PUSH2 0x1EA0 JUMP JUMPDEST PUSH2 0x34D PUSH2 0x818 CALLDATASIZE PUSH1 0x4 PUSH2 0x2E7C JUMP JUMPDEST PUSH1 0x18 PUSH1 0x20 SWAP1 DUP2 MSTORE PUSH1 0x0 SWAP3 DUP4 MSTORE PUSH1 0x40 SWAP1 SWAP3 KECCAK256 DUP2 MLOAD DUP1 DUP4 ADD DUP5 ADD DUP1 MLOAD SWAP3 DUP2 MSTORE SWAP1 DUP5 ADD SWAP3 SWAP1 SWAP4 ADD SWAP2 SWAP1 SWAP2 KECCAK256 SWAP2 MSTORE SLOAD DUP2 JUMP JUMPDEST PUSH2 0x2B7 PUSH2 0x854 CALLDATASIZE PUSH1 0x4 PUSH2 0x3288 JUMP JUMPDEST PUSH2 0x1F3B JUMP JUMPDEST PUSH1 0x0 SLOAD PUSH1 0x1 PUSH1 0x1 PUSH1 0xA0 SHL SUB AND CALLER EQ PUSH2 0x88C JUMPI PUSH1 0x40 MLOAD PUSH3 0x461BCD PUSH1 0xE5 SHL DUP2 MSTORE PUSH1 0x4 ADD PUSH2 0x883 SWAP1 PUSH2 0x32B2 JUMP JUMPDEST PUSH1 0x40 MLOAD DUP1 SWAP2 SUB SWAP1 REVERT JUMPDEST PUSH1 0x1 PUSH1 0x1 PUSH1 0xA0 SHL SUB SWAP2 SWAP1 SWAP2 AND PUSH1 0x0 DUP2 DUP2 MSTORE PUSH1 0x1C PUSH1 0x20 MSTORE PUSH1 0x40 DUP2 KECCAK256 DUP1 SLOAD PUSH8 0xFFFFFFFFFFFFFFFF NOT AND PUSH1 0xC0 SWAP6 SWAP1 SWAP6 SHR SWAP5 DUP6 OR DUP2 SSTORE PUSH1 0x1 SWAP1 DUP2 ADD SWAP4 SWAP1 SWAP4 SSTORE PUSH1 0x1D DUP1 SLOAD DUP1 DUP6 ADD SWAP1 SWAP2 SSTORE PUSH32 0x6D4407E7BE21F808E6509AA9FA9143369579DD7D760FE20A2C09680FC146134F PUSH1 0x4 DUP3 DIV ADD DUP1 SLOAD PUSH1 0x1 PUSH1 0x1 PUSH1 0x40 SHL SUB PUSH1 0x3 SWAP1 SWAP4 AND PUSH1 0x8 MUL PUSH2 0x100 EXP SWAP3 DUP4 MUL NOT AND SWAP2 SWAP1 SWAP6 MUL OR SWAP1 SWAP4 SSTORE PUSH1 0x1E DUP1 SLOAD SWAP3 DUP4 ADD DUP2 SSTORE SWAP1 SWAP3 MSTORE PUSH32 0x50BB669A95C7B50B7E8A6F09454034B2B14CF2B85C730DCA9A539CA82CB6E350 ADD DUP1 SLOAD PUSH1 0x1 PUSH1 0x1 PUSH1 0xA0 SHL SUB NOT AND SWAP1 SWAP2 OR SWAP1 SSTORE JUMP JUMPDEST PUSH1 0x5 DUP2 DUP2 SLOAD DUP2 LT PUSH2 0x96B JUMPI PUSH1 0x0 DUP1 REVERT JUMPDEST SWAP1 PUSH1 0x0 MSTORE PUSH1 0x20 PUSH1 0x0 KECCAK256 ADD PUSH1 0x0 SWAP2 POP SWAP1 POP DUP1 SLOAD PUSH2 0x986 SWAP1 PUSH2 0x32E7 JUMP JUMPDEST DUP1 PUSH1 0x1F ADD PUSH1 0x20 DUP1 SWAP2 DIV MUL PUSH1 0x20 ADD PUSH1 0x40 MLOAD SWAP1 DUP2 ADD PUSH1 0x40 MSTORE DUP1 SWAP3 SWAP2 SWAP1 DUP2 DUP2 MSTORE PUSH1 0x20 ADD DUP3 DUP1 SLOAD PUSH2 0x9B2 SWAP1 PUSH2 0x32E7 JUMP JUMPDEST DUP1 ISZERO PUSH2 0x9FF JUMPI DUP1 PUSH1 0x1F LT PUSH2 0x9D4 JUMPI PUSH2 0x100 DUP1 DUP4 SLOAD DIV MUL DUP4 MSTORE SWAP2 PUSH1 0x20 ADD SWAP2 PUSH2 0x9FF JUMP JUMPDEST DUP3 ADD SWAP2 SWAP1 PUSH1 0x0 MSTORE PUSH1 0x20 PUSH1 0x0 KECCAK256 SWAP1 JUMPDEST DUP2 SLOAD DUP2 MSTORE SWAP1 PUSH1 0x1 ADD SWAP1 PUSH1 0x20 ADD DUP1 DUP4 GT PUSH2 0x9E2 JUMPI DUP3 SWAP1 SUB PUSH1 0x1F AND DUP3 ADD SWAP2 JUMPDEST POP POP POP POP POP DUP2 JUMP JUMPDEST PUSH1 0x0 JUMPDEST PUSH1 0x7 SLOAD DUP2 LT ISZERO PUSH2 0xA62 JUMPI CALLER PUSH1 0x1 PUSH1 0x1 PUSH1 0xA0 SHL SUB AND PUSH1 0x7 DUP3 DUP2 SLOAD DUP2 LT PUSH2 0xA31 JUMPI PUSH2 0xA31 PUSH2 0x3322 JUMP JUMPDEST PUSH1 0x0 SWAP2 DUP3 MSTORE PUSH1 0x20 SWAP1 SWAP2 KECCAK256 ADD SLOAD PUSH1 0x1 PUSH1 0x1 PUSH1 0xA0 SHL SUB AND EQ PUSH2 0xA50 JUMPI PUSH1 0x0 DUP1 REVERT JUMPDEST DUP1 PUSH2 0xA5A DUP2 PUSH2 0x334E JUMP JUMPDEST SWAP2 POP POP PUSH2 0xA0A JUMP JUMPDEST POP PUSH1 0x10 DUP1 SLOAD PUSH1 0x1 PUSH1 0x1 PUSH1 0xA0 SHL SUB NOT AND PUSH1 0x1 PUSH1 0x1 PUSH1 0xA0 SHL SUB SWAP3 SWAP1 SWAP3 AND SWAP2 SWAP1 SWAP2 OR SWAP1 SSTORE JUMP JUMPDEST PUSH1 0x40 MLOAD PUSH3 0x461BCD PUSH1 0xE5 SHL DUP2 MSTORE PUSH1 0x20 PUSH1 0x4 DUP3 ADD MSTORE PUSH1 0x2E PUSH1 0x24 DUP3 ADD MSTORE PUSH32 0x556E737570706F727465642063616C6C6261636B202D20416674657220416772 PUSH1 0x44 DUP3 ADD MSTORE PUSH14 0x19595B595B9D08155C19185D1959 PUSH1 0x92 SHL PUSH1 0x64 DUP3 ADD MSTORE PUSH1 0x60 SWAP1 PUSH1 0x84 ADD PUSH2 0x883 JUMP JUMPDEST PUSH1 0x4 DUP2 DUP2 SLOAD DUP2 LT PUSH2 0xAF7 JUMPI PUSH1 0x0 DUP1 REVERT JUMPDEST PUSH1 0x0 SWAP2 DUP3 MSTORE PUSH1 0x20 SWAP1 SWAP2 KECCAK256 ADD SLOAD PUSH1 0x1 PUSH1 0x1 PUSH1 0xA0 SHL SUB AND SWAP1 POP DUP2 JUMP JUMPDEST PUSH1 0x40 MLOAD PUSH3 0x461BCD PUSH1 0xE5 SHL DUP2 MSTORE PUSH1 0x20 PUSH1 0x4 DUP3 ADD MSTORE PUSH1 0x2F PUSH1 0x24 DUP3 ADD MSTORE PUSH32 0x556E737570706F727465642063616C6C6261636B202D204265666F7265204167 PUSH1 0x44 DUP3 ADD MSTORE PUSH15 0x1C99595B595B9D0810DC99585D1959 PUSH1 0x8A SHL PUSH1 0x64 DUP3 ADD MSTORE PUSH1 0x60 SWAP1 PUSH1 0x84 ADD PUSH2 0x883 JUMP JUMPDEST PUSH1 0x0 PUSH2 0xB82 DUP3 DUP5 ADD DUP5 PUSH2 0x2D2A JUMP JUMPDEST PUSH1 0x5 SLOAD SWAP1 SWAP2 POP DUP2 GT PUSH2 0xC3C JUMPI PUSH2 0xC3C PUSH1 0x5 DUP3 DUP2 SLOAD DUP2 LT PUSH2 0xBA4 JUMPI PUSH2 0xBA4 PUSH2 0x3322 JUMP JUMPDEST SWAP1 PUSH1 0x0 MSTORE PUSH1 0x20 PUSH1 0x0 KECCAK256 ADD DUP1 SLOAD PUSH2 0xBB9 SWAP1 PUSH2 0x32E7 JUMP JUMPDEST DUP1 PUSH1 0x1F ADD PUSH1 0x20 DUP1 SWAP2 DIV MUL PUSH1 0x20 ADD PUSH1 0x40 MLOAD SWAP1 DUP2 ADD PUSH1 0x40 MSTORE DUP1 SWAP3 SWAP2 SWAP1 DUP2 DUP2 MSTORE PUSH1 0x20 ADD DUP3 DUP1 SLOAD PUSH2 0xBE5 SWAP1 PUSH2 0x32E7 JUMP JUMPDEST DUP1 ISZERO PUSH2 0xC32 JUMPI DUP1 PUSH1 0x1F LT PUSH2 0xC07 JUMPI PUSH2 0x100 DUP1 DUP4 SLOAD DIV MUL DUP4 MSTORE SWAP2 PUSH1 0x20 ADD SWAP2 PUSH2 0xC32 JUMP JUMPDEST DUP3 ADD SWAP2 SWAP1 PUSH1 0x0 MSTORE PUSH1 0x20 PUSH1 0x0 KECCAK256 SWAP1 JUMPDEST DUP2 SLOAD DUP2 MSTORE SWAP1 PUSH1 0x1 ADD SWAP1 PUSH1 0x20 ADD DUP1 DUP4 GT PUSH2 0xC15 JUMPI DUP3 SWAP1 SUB PUSH1 0x1F AND DUP3 ADD SWAP2 JUMPDEST POP POP POP POP POP PUSH2 0x1F73 JUMP JUMPDEST DUP1 PUSH2 0x3E8 EQ ISZERO PUSH2 0xC86 JUMPI PUSH3 0x278D00 PUSH1 0xB PUSH1 0x0 DUP3 DUP3 SLOAD PUSH2 0xC5B SWAP2 SWAP1 PUSH2 0x3369 JUMP JUMPDEST SWAP1 SWAP2 SSTORE POP POP PUSH1 0x12 SLOAD PUSH2 0xC75 SWAP1 PUSH1 0x1 PUSH1 0x1 PUSH1 0xA0 SHL SUB AND PUSH2 0x1FDC JUMP JUMPDEST POP PUSH2 0xC7E PUSH2 0x21C9 JUMP JUMPDEST PUSH2 0xC86 PUSH2 0x22EC JUMP JUMPDEST POP POP POP JUMP JUMPDEST PUSH1 0x7 DUP2 DUP2 SLOAD DUP2 LT PUSH2 0xAF7 JUMPI PUSH1 0x0 DUP1 REVERT JUMPDEST PUSH1 0x0 SLOAD PUSH1 0x1 PUSH1 0x1 PUSH1 0xA0 SHL SUB AND CALLER EQ PUSH2 0xCC5 JUMPI PUSH1 0x40 MLOAD PUSH3 0x461BCD PUSH1 0xE5 SHL DUP2 MSTORE PUSH1 0x4 ADD PUSH2 0x883 SWAP1 PUSH2 0x32B2 JUMP JUMPDEST PUSH1 0x5 SLOAD PUSH1 0x64 GT PUSH2 0xCD4 JUMPI PUSH1 0x0 DUP1 REVERT JUMPDEST DUP1 PUSH1 0x8 DUP4 PUSH1 0x40 MLOAD PUSH2 0xCE5 SWAP2 SWAP1 PUSH2 0x3381 JUMP JUMPDEST SWAP1 DUP2 MSTORE PUSH1 0x40 MLOAD PUSH1 0x20 SWAP2 DUP2 SWAP1 SUB DUP3 ADD SWAP1 KECCAK256 DUP1 SLOAD PUSH1 0x1 PUSH1 0x1 PUSH1 0xA0 SHL SUB NOT AND PUSH1 0x1 PUSH1 0x1 PUSH1 0xA0 SHL SUB SWAP4 SWAP1 SWAP4 AND SWAP3 SWAP1 SWAP3 OR SWAP1 SWAP2 SSTORE PUSH1 0x5 DUP1 SLOAD PUSH1 0x1 DUP2 ADD DUP3 SSTORE PUSH1 0x0 SWAP2 SWAP1 SWAP2 MSTORE DUP4 MLOAD PUSH2 0xD57 SWAP3 PUSH32 0x36B6384B5ECA791C62761152D0C79BB0604C104A5FB6F4EB0703F3154BB3DB0 SWAP1 SWAP3 ADD SWAP2 DUP6 ADD SWAP1 PUSH2 0x2C20 JUMP JUMPDEST POP PUSH1 0x6 DUP1 SLOAD PUSH1 0x1 DUP2 ADD DUP3 SSTORE PUSH1 0x0 SWAP2 SWAP1 SWAP2 MSTORE PUSH32 0xF652222313E28459528D920B65115C16C04F3EFC82AAEDC97BE59F3F377C0D3F ADD DUP1 SLOAD PUSH1 0x1 PUSH1 0x1 PUSH1 0xA0 SHL SUB NOT AND PUSH1 0x1 PUSH1 0x1 PUSH1 0xA0 SHL SUB SWAP3 SWAP1 SWAP3 AND SWAP2 SWAP1 SWAP2 OR SWAP1 SSTORE POP JUMP JUMPDEST PUSH1 0x0 DUP1 PUSH1 0x8 DUP4 PUSH1 0x40 MLOAD PUSH2 0xDBE SWAP2 SWAP1 PUSH2 0x3381 JUMP JUMPDEST SWAP1 DUP2 MSTORE PUSH1 0x20 ADD PUSH1 0x40 MLOAD DUP1 SWAP2 SUB SWAP1 KECCAK256 PUSH1 0x0 SWAP1 SLOAD SWAP1 PUSH2 0x100 EXP SWAP1 DIV PUSH1 0x1 PUSH1 0x1 PUSH1 0xA0 SHL SUB AND SWAP1 POP PUSH1 0x0 DUP2 PUSH1 0x1 PUSH1 0x1 PUSH1 0xA0 SHL SUB AND PUSH4 0xFEAF968C PUSH1 0x40 MLOAD DUP2 PUSH4 0xFFFFFFFF AND PUSH1 0xE0 SHL DUP2 MSTORE PUSH1 0x4 ADD PUSH1 0xA0 PUSH1 0x40 MLOAD DUP1 DUP4 SUB DUP2 DUP7 GAS STATICCALL ISZERO DUP1 ISZERO PUSH2 0xE22 JUMPI RETURNDATASIZE PUSH1 0x0 DUP1 RETURNDATACOPY RETURNDATASIZE PUSH1 0x0 REVERT JUMPDEST POP POP POP POP PUSH1 0x40 MLOAD RETURNDATASIZE PUSH1 0x1F NOT PUSH1 0x1F DUP3 ADD AND DUP3 ADD DUP1 PUSH1 0x40 MSTORE POP DUP2 ADD SWAP1 PUSH2 0xE46 SWAP2 SWAP1 PUSH2 0x33B7 JUMP JUMPDEST POP SWAP2 SWAP8 SWAP7 POP POP POP POP POP POP POP JUMP JUMPDEST PUSH1 0x40 MLOAD PUSH3 0x461BCD PUSH1 0xE5 SHL DUP2 MSTORE PUSH1 0x20 PUSH1 0x4 DUP3 ADD MSTORE PUSH1 0x31 PUSH1 0x24 DUP3 ADD MSTORE PUSH32 0x556E737570706F727465642063616C6C6261636B202D20416674657220416772 PUSH1 0x44 DUP3 ADD MSTORE PUSH17 0x19595B595B9D0815195C9B5A5B985D1959 PUSH1 0x7A SHL PUSH1 0x64 DUP3 ADD MSTORE PUSH1 0x60 SWAP1 PUSH1 0x84 ADD PUSH2 0x883 JUMP JUMPDEST PUSH1 0x0 DUP1 PUSH20 0x6135B13325BFC4B00278B4ABC5E20BBCE2D6580E SWAP1 POP PUSH1 0x0 DUP2 PUSH1 0x1 PUSH1 0x1 PUSH1 0xA0 SHL SUB AND PUSH4 0xFEAF968C PUSH1 0x40 MLOAD DUP2 PUSH4 0xFFFFFFFF AND PUSH1 0xE0 SHL DUP2 MSTORE PUSH1 0x4 ADD PUSH1 0xA0 PUSH1 0x40 MLOAD DUP1 DUP4 SUB DUP2 DUP7 GAS STATICCALL ISZERO DUP1 ISZERO PUSH2 0xF12 JUMPI RETURNDATASIZE PUSH1 0x0 DUP1 RETURNDATACOPY RETURNDATASIZE PUSH1 0x0 REVERT JUMPDEST POP POP POP POP PUSH1 0x40 MLOAD RETURNDATASIZE PUSH1 0x1F NOT PUSH1 0x1F DUP3 ADD AND DUP3 ADD DUP1 PUSH1 0x40 MSTORE POP DUP2 ADD SWAP1 PUSH2 0xF36 SWAP2 SWAP1 PUSH2 0x33B7 JUMP JUMPDEST POP SWAP7 SWAP6 POP POP POP POP POP POP JUMP JUMPDEST PUSH1 0x0 SLOAD PUSH1 0x1 PUSH1 0x1 PUSH1 0xA0 SHL SUB AND CALLER EQ PUSH2 0xF6B JUMPI PUSH1 0x40 MLOAD PUSH3 0x461BCD PUSH1 0xE5 SHL DUP2 MSTORE PUSH1 0x4 ADD PUSH2 0x883 SWAP1 PUSH2 0x32B2 JUMP JUMPDEST PUSH1 0x7 DUP1 SLOAD PUSH1 0x1 DUP2 ADD DUP3 SSTORE PUSH1 0x0 SWAP2 SWAP1 SWAP2 MSTORE PUSH32 0xA66CC928B5EDB82AF9BD49922954155AB7B0942694BEA4CE44661D9A8736C688 ADD DUP1 SLOAD PUSH1 0x1 PUSH1 0x1 PUSH1 0xA0 SHL SUB NOT AND PUSH1 0x1 PUSH1 0x1 PUSH1 0xA0 SHL SUB SWAP3 SWAP1 SWAP3 AND SWAP2 SWAP1 SWAP2 OR SWAP1 SSTORE JUMP JUMPDEST PUSH1 0x40 MLOAD PUSH3 0x461BCD PUSH1 0xE5 SHL DUP2 MSTORE PUSH1 0x20 PUSH1 0x4 DUP3 ADD MSTORE PUSH1 0x33 PUSH1 0x24 DUP3 ADD MSTORE PUSH32 0x556E737570706F727465642063616C6C6261636B202D20204265666F72652041 PUSH1 0x44 DUP3 ADD MSTORE PUSH19 0x19DC99595B595B9D0815195C9B5A5B985D1959 PUSH1 0x6A SHL PUSH1 0x64 DUP3 ADD MSTORE PUSH1 0x60 SWAP1 PUSH1 0x84 ADD PUSH2 0x883 JUMP JUMPDEST PUSH1 0x0 PUSH1 0x60 PUSH1 0x0 JUMPDEST PUSH1 0x5 SLOAD DUP2 LT ISZERO PUSH2 0x11B3 JUMPI PUSH1 0x17 PUSH1 0x0 PUSH1 0x9 PUSH1 0x5 DUP5 DUP2 SLOAD DUP2 LT PUSH2 0x104E JUMPI PUSH2 0x104E PUSH2 0x3322 JUMP JUMPDEST SWAP1 PUSH1 0x0 MSTORE PUSH1 0x20 PUSH1 0x0 KECCAK256 ADD PUSH1 0x40 MLOAD PUSH2 0x1065 SWAP2 SWAP1 PUSH2 0x3407 JUMP JUMPDEST SWAP1 DUP2 MSTORE PUSH1 0x20 ADD PUSH1 0x40 MLOAD DUP1 SWAP2 SUB SWAP1 KECCAK256 SLOAD DUP2 MSTORE PUSH1 0x20 ADD SWAP1 DUP2 MSTORE PUSH1 0x20 ADD PUSH1 0x0 KECCAK256 PUSH1 0x5 DUP3 DUP2 SLOAD DUP2 LT PUSH2 0x1095 JUMPI PUSH2 0x1095 PUSH2 0x3322 JUMP JUMPDEST SWAP1 PUSH1 0x0 MSTORE PUSH1 0x20 PUSH1 0x0 KECCAK256 ADD PUSH1 0x40 MLOAD PUSH2 0x10AC SWAP2 SWAP1 PUSH2 0x3407 JUMP JUMPDEST SWAP1 DUP2 MSTORE PUSH1 0x20 ADD PUSH1 0x40 MLOAD DUP1 SWAP2 SUB SWAP1 KECCAK256 SLOAD PUSH2 0x1169 PUSH1 0x5 DUP4 DUP2 SLOAD DUP2 LT PUSH2 0x10D1 JUMPI PUSH2 0x10D1 PUSH2 0x3322 JUMP JUMPDEST SWAP1 PUSH1 0x0 MSTORE PUSH1 0x20 PUSH1 0x0 KECCAK256 ADD DUP1 SLOAD PUSH2 0x10E6 SWAP1 PUSH2 0x32E7 JUMP JUMPDEST DUP1 PUSH1 0x1F ADD PUSH1 0x20 DUP1 SWAP2 DIV MUL PUSH1 0x20 ADD PUSH1 0x40 MLOAD SWAP1 DUP2 ADD PUSH1 0x40 MSTORE DUP1 SWAP3 SWAP2 SWAP1 DUP2 DUP2 MSTORE PUSH1 0x20 ADD DUP3 DUP1 SLOAD PUSH2 0x1112 SWAP1 PUSH2 0x32E7 JUMP JUMPDEST DUP1 ISZERO PUSH2 0x115F JUMPI DUP1 PUSH1 0x1F LT PUSH2 0x1134 JUMPI PUSH2 0x100 DUP1 DUP4 SLOAD DIV MUL DUP4 MSTORE SWAP2 PUSH1 0x20 ADD SWAP2 PUSH2 0x115F JUMP JUMPDEST DUP3 ADD SWAP2 SWAP1 PUSH1 0x0 MSTORE PUSH1 0x20 PUSH1 0x0 KECCAK256 SWAP1 JUMPDEST DUP2 SLOAD DUP2 MSTORE SWAP1 PUSH1 0x1 ADD SWAP1 PUSH1 0x20 ADD DUP1 DUP4 GT PUSH2 0x1142 JUMPI DUP3 SWAP1 SUB PUSH1 0x1F AND DUP3 ADD SWAP2 JUMPDEST POP POP POP POP POP PUSH2 0xDAB JUMP JUMPDEST EQ ISZERO PUSH2 0x11A1 JUMPI PUSH1 0x1 SWAP3 POP PUSH1 0x1 DUP2 PUSH1 0x40 MLOAD PUSH1 0x20 ADD PUSH2 0x1188 SWAP2 DUP2 MSTORE PUSH1 0x20 ADD SWAP1 JUMP JUMPDEST PUSH1 0x40 MLOAD PUSH1 0x20 DUP2 DUP4 SUB SUB DUP2 MSTORE SWAP1 PUSH1 0x40 MSTORE SWAP3 POP SWAP3 POP POP PUSH2 0x122F JUMP JUMPDEST DUP1 PUSH2 0x11AB DUP2 PUSH2 0x334E JUMP JUMPDEST SWAP2 POP POP PUSH2 0x102B JUMP JUMPDEST POP PUSH1 0xB SLOAD PUSH2 0x11C4 SWAP1 PUSH3 0x278D00 PUSH2 0x3369 JUMP JUMPDEST TIMESTAMP LT PUSH2 0x11F5 JUMPI PUSH1 0x40 DUP1 MLOAD PUSH2 0x3E8 PUSH1 0x20 DUP3 ADD MSTORE PUSH1 0x1 SWAP4 POP DUP4 SWAP2 ADD PUSH1 0x40 MLOAD PUSH1 0x20 DUP2 DUP4 SUB SUB DUP2 MSTORE SWAP1 PUSH1 0x40 MSTORE SWAP2 POP SWAP2 POP PUSH2 0x122F JUMP JUMPDEST DUP4 DUP4 DUP1 DUP1 PUSH1 0x1F ADD PUSH1 0x20 DUP1 SWAP2 DIV MUL PUSH1 0x20 ADD PUSH1 0x40 MLOAD SWAP1 DUP2 ADD PUSH1 0x40 MSTORE DUP1 SWAP4 SWAP3 SWAP2 SWAP1 DUP2 DUP2 MSTORE PUSH1 0x20 ADD DUP4 DUP4 DUP1 DUP3 DUP5 CALLDATACOPY PUSH1 0x0 SWAP3 ADD SWAP2 SWAP1 SWAP2 MSTORE POP SWAP3 SWAP4 POP POP POP POP JUMPDEST SWAP3 POP SWAP3 SWAP1 POP JUMP JUMPDEST PUSH1 0x0 SLOAD PUSH1 0x1 PUSH1 0x1 PUSH1 0xA0 SHL SUB AND CALLER EQ PUSH2 0x1260 JUMPI PUSH1 0x40 MLOAD PUSH3 0x461BCD PUSH1 0xE5 SHL DUP2 MSTORE PUSH1 0x4 ADD PUSH2 0x883 SWAP1 PUSH2 0x32B2 JUMP JUMPDEST PUSH2 0x126A PUSH1 0x0 PUSH2 0x23D9 JUMP JUMPDEST JUMP JUMPDEST PUSH1 0x40 MLOAD PUSH3 0x461BCD PUSH1 0xE5 SHL DUP2 MSTORE PUSH1 0x20 PUSH1 0x4 DUP3 ADD MSTORE PUSH1 0x2F PUSH1 0x24 DUP3 ADD MSTORE PUSH32 0x556E737570706F727465642063616C6C6261636B202D204265666F7265204167 PUSH1 0x44 DUP3 ADD MSTORE PUSH15 0x1C99595B595B9D081D5C19185D1959 PUSH1 0x8A SHL PUSH1 0x64 DUP3 ADD MSTORE PUSH1 0x60 SWAP1 PUSH1 0x84 ADD PUSH2 0x883 JUMP JUMPDEST PUSH1 0x0 JUMPDEST PUSH1 0xA SLOAD PUSH1 0x1 PUSH1 0x1 PUSH1 0x80 SHL SUB AND PUSH1 0x0 SWAP1 DUP2 MSTORE PUSH1 0x21 PUSH1 0x20 MSTORE PUSH1 0x40 SWAP1 KECCAK256 SLOAD DUP2 LT ISZERO PUSH2 0x1354 JUMPI PUSH1 0xA SLOAD PUSH1 0x1 PUSH1 0x1 PUSH1 0x80 SHL SUB AND PUSH1 0x0 SWAP1 DUP2 MSTORE PUSH1 0x21 PUSH1 0x20 MSTORE PUSH1 0x40 SWAP1 KECCAK256 DUP1 SLOAD CALLER SWAP2 SWAP1 DUP4 SWAP1 DUP2 LT PUSH2 0x1323 JUMPI PUSH2 0x1323 PUSH2 0x3322 JUMP JUMPDEST PUSH1 0x0 SWAP2 DUP3 MSTORE PUSH1 0x20 SWAP1 SWAP2 KECCAK256 ADD SLOAD PUSH1 0x1 PUSH1 0x1 PUSH1 0xA0 SHL SUB AND EQ PUSH2 0x1342 JUMPI PUSH1 0x0 DUP1 REVERT JUMPDEST DUP1 PUSH2 0x134C DUP2 PUSH2 0x334E JUMP JUMPDEST SWAP2 POP POP PUSH2 0x12D2 JUMP JUMPDEST POP PUSH1 0xA SLOAD PUSH1 0x1 PUSH1 0x1 PUSH1 0x80 SHL SUB SWAP1 DUP2 AND PUSH1 0x0 SWAP1 DUP2 MSTORE PUSH1 0x1F PUSH1 0x20 SWAP1 DUP2 MSTORE PUSH1 0x40 DUP1 DUP4 KECCAK256 PUSH1 0x1 PUSH1 0x1 PUSH1 0xC0 SHL SUB NOT DUP7 AND DUP5 MSTORE SWAP1 SWAP2 MSTORE DUP2 KECCAK256 DUP1 SLOAD PUSH1 0x1 SWAP4 SWAP2 SWAP3 SWAP2 PUSH2 0x139A SWAP2 DUP6 SWAP2 AND PUSH2 0x34A3 JUMP JUMPDEST SWAP3 POP PUSH2 0x100 EXP DUP2 SLOAD DUP2 PUSH1 0x1 PUSH1 0x1 PUSH1 0x80 SHL SUB MUL NOT AND SWAP1 DUP4 PUSH1 0x1 PUSH1 0x1 PUSH1 0x80 SHL SUB AND MUL OR SWAP1 SSTORE POP POP JUMP JUMPDEST DUP2 PUSH1 0x0 JUMPDEST PUSH1 0x4 SLOAD DUP2 LT ISZERO PUSH2 0x141D JUMPI DUP2 PUSH1 0x1 PUSH1 0x1 PUSH1 0xA0 SHL SUB AND PUSH1 0x4 DUP3 DUP2 SLOAD DUP2 LT PUSH2 0x13EC JUMPI PUSH2 0x13EC PUSH2 0x3322 JUMP JUMPDEST PUSH1 0x0 SWAP2 DUP3 MSTORE PUSH1 0x20 SWAP1 SWAP2 KECCAK256 ADD SLOAD PUSH1 0x1 PUSH1 0x1 PUSH1 0xA0 SHL SUB AND EQ PUSH2 0x140B JUMPI PUSH1 0x0 DUP1 REVERT JUMPDEST DUP1 PUSH2 0x1415 DUP2 PUSH2 0x334E JUMP JUMPDEST SWAP2 POP POP PUSH2 0x13C5 JUMP JUMPDEST POP PUSH1 0x11 SLOAD PUSH8 0x8AC7230489E80000 SWAP1 PUSH2 0x708 SWAP1 PUSH1 0x1 PUSH1 0x1 PUSH1 0xA0 SHL SUB DUP7 DUP2 AND SWAP2 AND EQ PUSH2 0x167B JUMPI PUSH1 0x40 MLOAD PUSH4 0x6EB1769F PUSH1 0xE1 SHL DUP2 MSTORE CALLER PUSH1 0x4 DUP3 ADD MSTORE ADDRESS PUSH1 0x24 DUP3 ADD MSTORE DUP3 SWAP1 PUSH1 0x1 PUSH1 0x1 PUSH1 0xA0 SHL SUB DUP8 AND SWAP1 PUSH4 0xDD62ED3E SWAP1 PUSH1 0x44 ADD PUSH1 0x20 PUSH1 0x40 MLOAD DUP1 DUP4 SUB DUP2 DUP7 GAS STATICCALL ISZERO DUP1 ISZERO PUSH2 0x148D JUMPI RETURNDATASIZE PUSH1 0x0 DUP1 RETURNDATACOPY RETURNDATASIZE PUSH1 0x0 REVERT JUMPDEST POP POP POP POP PUSH1 0x40 MLOAD RETURNDATASIZE PUSH1 0x1F NOT PUSH1 0x1F DUP3 ADD AND DUP3 ADD DUP1 PUSH1 0x40 MSTORE POP DUP2 ADD SWAP1 PUSH2 0x14B1 SWAP2 SWAP1 PUSH2 0x34CE JUMP JUMPDEST LT ISZERO PUSH2 0x14BC JUMPI PUSH1 0x0 DUP1 REVERT JUMPDEST PUSH2 0x14C8 DUP6 CALLER ADDRESS DUP6 PUSH2 0x2429 JUMP JUMPDEST PUSH2 0x14F3 DUP6 PUSH32 0x0 DUP5 PUSH2 0x2533 JUMP JUMPDEST PUSH1 0x40 DUP1 MLOAD PUSH2 0x100 DUP2 ADD DUP3 MSTORE PUSH1 0x1 PUSH1 0x1 PUSH1 0xA0 SHL SUB DUP8 DUP2 AND DUP3 MSTORE PUSH1 0x11 SLOAD DUP2 AND PUSH1 0x20 DUP4 ADD SWAP1 DUP2 MSTORE PUSH2 0xBB8 DUP4 DUP6 ADD SWAP1 DUP2 MSTORE ADDRESS PUSH1 0x60 DUP6 ADD SWAP1 DUP2 MSTORE TIMESTAMP PUSH1 0x80 DUP7 ADD SWAP1 DUP2 MSTORE PUSH1 0xA0 DUP7 ADD DUP10 DUP2 MSTORE PUSH8 0xD02AB486CEDC0000 PUSH1 0xC0 DUP9 ADD DUP2 DUP2 MSTORE PUSH1 0x0 PUSH1 0xE0 DUP11 ADD DUP2 DUP2 MSTORE SWAP11 MLOAD PUSH4 0x1B67C433 PUSH1 0xE3 SHL DUP2 MSTORE DUP11 MLOAD DUP11 AND PUSH1 0x4 DUP3 ADD MSTORE SWAP8 MLOAD DUP10 AND PUSH1 0x24 DUP10 ADD MSTORE SWAP6 MLOAD PUSH3 0xFFFFFF AND PUSH1 0x44 DUP9 ADD MSTORE SWAP4 MLOAD DUP8 AND PUSH1 0x64 DUP8 ADD MSTORE SWAP2 MLOAD PUSH1 0x84 DUP7 ADD MSTORE MLOAD PUSH1 0xA4 DUP6 ADD MSTORE SWAP1 MLOAD PUSH1 0xC4 DUP5 ADD MSTORE SWAP5 MLOAD DUP4 AND PUSH1 0xE4 DUP4 ADD MSTORE SWAP2 PUSH32 0x0 AND SWAP1 PUSH4 0xDB3E2198 SWAP1 PUSH2 0x104 ADD PUSH1 0x20 PUSH1 0x40 MLOAD DUP1 DUP4 SUB DUP2 PUSH1 0x0 DUP8 GAS CALL ISZERO DUP1 ISZERO PUSH2 0x15ED JUMPI RETURNDATASIZE PUSH1 0x0 DUP1 RETURNDATACOPY RETURNDATASIZE PUSH1 0x0 REVERT JUMPDEST POP POP POP POP PUSH1 0x40 MLOAD RETURNDATASIZE PUSH1 0x1F NOT PUSH1 0x1F DUP3 ADD AND DUP3 ADD DUP1 PUSH1 0x40 MSTORE POP DUP2 ADD SWAP1 PUSH2 0x1611 SWAP2 SWAP1 PUSH2 0x34CE JUMP JUMPDEST SWAP1 POP DUP3 DUP2 LT ISZERO PUSH2 0x1673 JUMPI PUSH1 0x11 SLOAD PUSH2 0x1653 SWAP1 PUSH1 0x1 PUSH1 0x1 PUSH1 0xA0 SHL SUB AND PUSH32 0x0 PUSH1 0x0 PUSH2 0x2533 JUMP JUMPDEST PUSH1 0x11 SLOAD PUSH2 0x1673 SWAP1 PUSH1 0x1 PUSH1 0x1 PUSH1 0xA0 SHL SUB AND CALLER PUSH2 0x166E DUP5 DUP8 PUSH2 0x34E7 JUMP JUMPDEST PUSH2 0x262C JUMP JUMPDEST POP POP POP PUSH2 0x1775 JUMP JUMPDEST PUSH1 0x11 SLOAD PUSH1 0x40 MLOAD PUSH4 0x6EB1769F PUSH1 0xE1 SHL DUP2 MSTORE CALLER PUSH1 0x4 DUP3 ADD MSTORE ADDRESS PUSH1 0x24 DUP3 ADD MSTORE DUP4 SWAP2 PUSH1 0x1 PUSH1 0x1 PUSH1 0xA0 SHL SUB AND SWAP1 PUSH4 0xDD62ED3E SWAP1 PUSH1 0x44 ADD PUSH1 0x20 PUSH1 0x40 MLOAD DUP1 DUP4 SUB DUP2 DUP7 GAS STATICCALL ISZERO DUP1 ISZERO PUSH2 0x16C9 JUMPI RETURNDATASIZE PUSH1 0x0 DUP1 RETURNDATACOPY RETURNDATASIZE PUSH1 0x0 REVERT JUMPDEST POP POP POP POP PUSH1 0x40 MLOAD RETURNDATASIZE PUSH1 0x1F NOT PUSH1 0x1F DUP3 ADD AND DUP3 ADD DUP1 PUSH1 0x40 MSTORE POP DUP2 ADD SWAP1 PUSH2 0x16ED SWAP2 SWAP1 PUSH2 0x34CE JUMP JUMPDEST LT ISZERO PUSH2 0x16F8 JUMPI PUSH1 0x0 DUP1 REVERT JUMPDEST PUSH1 0x11 SLOAD PUSH1 0x40 MLOAD PUSH4 0x23B872DD PUSH1 0xE0 SHL DUP2 MSTORE CALLER PUSH1 0x4 DUP3 ADD MSTORE ADDRESS PUSH1 0x24 DUP3 ADD MSTORE PUSH1 0x44 DUP2 ADD DUP5 SWAP1 MSTORE PUSH1 0x1 PUSH1 0x1 PUSH1 0xA0 SHL SUB SWAP1 SWAP2 AND SWAP1 PUSH4 0x23B872DD SWAP1 PUSH1 0x64 ADD PUSH1 0x20 PUSH1 0x40 MLOAD DUP1 DUP4 SUB DUP2 PUSH1 0x0 DUP8 GAS CALL ISZERO DUP1 ISZERO PUSH2 0x174F JUMPI RETURNDATASIZE PUSH1 0x0 DUP1 RETURNDATACOPY RETURNDATASIZE PUSH1 0x0 REVERT JUMPDEST POP POP POP POP PUSH1 0x40 MLOAD RETURNDATASIZE PUSH1 0x1F NOT PUSH1 0x1F DUP3 ADD AND DUP3 ADD DUP1 PUSH1 0x40 MSTORE POP DUP2 ADD SWAP1 PUSH2 0x1773 SWAP2 SWAP1 PUSH2 0x34FE JUMP JUMPDEST POP JUMPDEST DUP6 PUSH1 0x26 PUSH1 0x0 PUSH1 0x9 DUP8 PUSH1 0x40 MLOAD PUSH2 0x178A SWAP2 SWAP1 PUSH2 0x3381 JUMP JUMPDEST SWAP1 DUP2 MSTORE PUSH1 0x20 ADD PUSH1 0x40 MLOAD DUP1 SWAP2 SUB SWAP1 KECCAK256 SLOAD DUP2 MSTORE PUSH1 0x20 ADD SWAP1 DUP2 MSTORE PUSH1 0x20 ADD PUSH1 0x0 KECCAK256 DUP6 PUSH1 0x40 MLOAD PUSH2 0x17B5 SWAP2 SWAP1 PUSH2 0x3381 JUMP JUMPDEST SWAP1 DUP2 MSTORE PUSH1 0x40 DUP1 MLOAD PUSH1 0x20 SWAP3 DUP2 SWAP1 SUB DUP4 ADD SWAP1 KECCAK256 CALLER PUSH1 0x0 SWAP1 DUP2 MSTORE SWAP3 MSTORE SWAP1 KECCAK256 SSTORE PUSH2 0x17DB DUP2 DUP8 PUSH2 0x3369 JUMP JUMPDEST PUSH1 0x26 PUSH1 0x0 PUSH1 0x9 DUP8 PUSH1 0x40 MLOAD PUSH2 0x17EF SWAP2 SWAP1 PUSH2 0x3381 JUMP JUMPDEST SWAP1 DUP2 MSTORE PUSH1 0x20 ADD PUSH1 0x40 MLOAD DUP1 SWAP2 SUB SWAP1 KECCAK256 SLOAD DUP2 MSTORE PUSH1 0x20 ADD SWAP1 DUP2 MSTORE PUSH1 0x20 ADD PUSH1 0x0 KECCAK256 DUP6 PUSH1 0x40 MLOAD PUSH2 0x181A SWAP2 SWAP1 PUSH2 0x3381 JUMP JUMPDEST SWAP1 DUP2 MSTORE PUSH1 0x40 DUP1 MLOAD PUSH1 0x20 SWAP3 DUP2 SWAP1 SUB DUP4 ADD DUP2 KECCAK256 CALLER PUSH1 0x0 SWAP1 DUP2 MSTORE SWAP4 MSTORE SWAP1 DUP3 KECCAK256 PUSH1 0x1 ADD SWAP3 SWAP1 SWAP3 SSTORE PUSH1 0x22 SWAP2 PUSH1 0x9 SWAP1 PUSH2 0x184E SWAP1 DUP9 SWAP1 PUSH2 0x3381 JUMP JUMPDEST SWAP1 DUP2 MSTORE PUSH1 0x20 ADD PUSH1 0x40 MLOAD DUP1 SWAP2 SUB SWAP1 KECCAK256 SLOAD DUP2 MSTORE PUSH1 0x20 ADD SWAP1 DUP2 MSTORE PUSH1 0x20 ADD PUSH1 0x0 KECCAK256 DUP5 PUSH1 0x40 MLOAD PUSH2 0x1879 SWAP2 SWAP1 PUSH2 0x3381 JUMP JUMPDEST SWAP1 DUP2 MSTORE PUSH1 0x40 MLOAD SWAP1 DUP2 SWAP1 SUB PUSH1 0x20 SWAP1 DUP2 ADD DUP3 KECCAK256 DUP1 SLOAD PUSH1 0x1 DUP2 ADD DUP3 SSTORE PUSH1 0x0 SWAP2 DUP3 MSTORE SWAP2 DUP2 KECCAK256 SWAP1 SWAP2 ADD DUP1 SLOAD PUSH1 0x1 PUSH1 0x1 PUSH1 0xA0 SHL SUB NOT AND CALLER OR SWAP1 SSTORE PUSH1 0x23 SWAP2 PUSH1 0x9 SWAP1 PUSH2 0x18BE SWAP1 DUP9 SWAP1 PUSH2 0x3381 JUMP JUMPDEST SWAP1 DUP2 MSTORE PUSH1 0x20 ADD PUSH1 0x40 MLOAD DUP1 SWAP2 SUB SWAP1 KECCAK256 SLOAD DUP2 MSTORE PUSH1 0x20 ADD SWAP1 DUP2 MSTORE PUSH1 0x20 ADD PUSH1 0x0 KECCAK256 DUP5 PUSH1 0x40 MLOAD PUSH2 0x18E9 SWAP2 SWAP1 PUSH2 0x3381 JUMP JUMPDEST SWAP1 DUP2 MSTORE PUSH1 0x40 MLOAD SWAP1 DUP2 SWAP1 SUB PUSH1 0x20 SWAP1 DUP2 ADD DUP3 KECCAK256 DUP1 SLOAD PUSH1 0x1 DUP2 ADD DUP3 SSTORE PUSH1 0x0 SWAP2 DUP3 MSTORE SWAP2 DUP2 KECCAK256 SWAP1 SWAP2 ADD DUP9 SWAP1 SSTORE PUSH1 0x24 SWAP2 PUSH1 0x9 SWAP1 PUSH2 0x1921 SWAP1 DUP9 SWAP1 PUSH2 0x3381 JUMP JUMPDEST SWAP1 DUP2 MSTORE PUSH1 0x20 ADD PUSH1 0x40 MLOAD DUP1 SWAP2 SUB SWAP1 KECCAK256 SLOAD DUP2 MSTORE PUSH1 0x20 ADD SWAP1 DUP2 MSTORE PUSH1 0x20 ADD PUSH1 0x0 KECCAK256 DUP5 PUSH1 0x40 MLOAD PUSH2 0x194C SWAP2 SWAP1 PUSH2 0x3381 JUMP JUMPDEST SWAP1 DUP2 MSTORE PUSH1 0x40 MLOAD SWAP1 DUP2 SWAP1 SUB PUSH1 0x20 ADD SWAP1 KECCAK256 PUSH2 0x1965 DUP3 DUP9 PUSH2 0x3369 JUMP JUMPDEST DUP2 SLOAD PUSH1 0x1 DUP2 ADD DUP4 SSTORE PUSH1 0x0 SWAP3 DUP4 MSTORE PUSH1 0x20 DUP4 KECCAK256 ADD SSTORE PUSH1 0x40 MLOAD DUP4 SWAP2 PUSH1 0x19 SWAP2 PUSH1 0x9 SWAP1 PUSH2 0x198E SWAP1 DUP10 SWAP1 PUSH2 0x3381 JUMP JUMPDEST SWAP1 DUP2 MSTORE PUSH1 0x20 ADD PUSH1 0x40 MLOAD DUP1 SWAP2 SUB SWAP1 KECCAK256 SLOAD DUP2 MSTORE PUSH1 0x20 ADD SWAP1 DUP2 MSTORE PUSH1 0x20 ADD PUSH1 0x0 KECCAK256 DUP6 PUSH1 0x40 MLOAD PUSH2 0x19B9 SWAP2 SWAP1 PUSH2 0x3381 JUMP JUMPDEST SWAP1 DUP2 MSTORE PUSH1 0x20 ADD PUSH1 0x40 MLOAD DUP1 SWAP2 SUB SWAP1 KECCAK256 PUSH1 0x0 DUP3 DUP3 SLOAD PUSH2 0x19D6 SWAP2 SWAP1 PUSH2 0x3369 JUMP JUMPDEST SWAP3 POP POP DUP2 SWAP1 SSTORE POP PUSH7 0x1FF973CAFA8000 PUSH1 0x16 PUSH1 0x0 PUSH1 0x9 DUP8 PUSH1 0x40 MLOAD PUSH2 0x19F9 SWAP2 SWAP1 PUSH2 0x3381 JUMP JUMPDEST SWAP1 DUP2 MSTORE PUSH1 0x20 ADD PUSH1 0x40 MLOAD DUP1 SWAP2 SUB SWAP1 KECCAK256 SLOAD DUP2 MSTORE PUSH1 0x20 ADD SWAP1 DUP2 MSTORE PUSH1 0x20 ADD PUSH1 0x0 KECCAK256 DUP6 PUSH1 0x40 MLOAD PUSH2 0x1A24 SWAP2 SWAP1 PUSH2 0x3381 JUMP JUMPDEST SWAP1 DUP2 MSTORE PUSH1 0x20 ADD PUSH1 0x40 MLOAD DUP1 SWAP2 SUB SWAP1 KECCAK256 PUSH1 0x0 DUP3 DUP3 SLOAD PUSH2 0x1A41 SWAP2 SWAP1 PUSH2 0x3369 JUMP JUMPDEST SWAP1 SWAP2 SSTORE POP PUSH2 0x1A50 SWAP1 POP DUP3 PUSH2 0x2725 JUMP JUMPDEST CALLER PUSH32 0x8FC5FCAFAB42750870DEFC62F202C0D262793ECA86BA9B802B7F22B102DD44B8 DUP8 PUSH2 0x1A7D DUP5 DUP3 PUSH2 0x3369 JUMP JUMPDEST PUSH1 0x40 DUP1 MLOAD SWAP3 DUP4 MSTORE PUSH1 0x20 DUP4 ADD SWAP2 SWAP1 SWAP2 MSTORE ADD PUSH1 0x40 MLOAD DUP1 SWAP2 SUB SWAP1 LOG2 POP POP POP POP POP POP JUMP JUMPDEST PUSH1 0x0 JUMPDEST PUSH1 0x7 SLOAD DUP2 LT ISZERO PUSH2 0x1AF8 JUMPI CALLER PUSH1 0x1 PUSH1 0x1 PUSH1 0xA0 SHL SUB AND PUSH1 0x7 DUP3 DUP2 SLOAD DUP2 LT PUSH2 0x1AC7 JUMPI PUSH2 0x1AC7 PUSH2 0x3322 JUMP JUMPDEST PUSH1 0x0 SWAP2 DUP3 MSTORE PUSH1 0x20 SWAP1 SWAP2 KECCAK256 ADD SLOAD PUSH1 0x1 PUSH1 0x1 PUSH1 0xA0 SHL SUB AND EQ PUSH2 0x1AE6 JUMPI PUSH1 0x0 DUP1 REVERT JUMPDEST DUP1 PUSH2 0x1AF0 DUP2 PUSH2 0x334E JUMP JUMPDEST SWAP2 POP POP PUSH2 0x1AA0 JUMP JUMPDEST POP PUSH1 0xA SLOAD PUSH1 0x1 PUSH1 0x1 PUSH1 0x80 SHL SUB AND PUSH1 0x0 SWAP1 DUP2 MSTORE PUSH1 0x21 PUSH1 0x20 SWAP1 DUP2 MSTORE PUSH1 0x40 DUP3 KECCAK256 DUP1 SLOAD PUSH1 0x1 DUP2 ADD DUP3 SSTORE SWAP1 DUP4 MSTORE SWAP2 KECCAK256 ADD DUP1 SLOAD PUSH1 0x1 PUSH1 0x1 PUSH1 0xA0 SHL SUB NOT AND PUSH1 0x1 PUSH1 0x1 PUSH1 0xA0 SHL SUB SWAP3 SWAP1 SWAP3 AND SWAP2 SWAP1 SWAP2 OR SWAP1 SSTORE JUMP JUMPDEST PUSH1 0x0 SLOAD PUSH1 0x1 PUSH1 0x1 PUSH1 0xA0 SHL SUB AND CALLER EQ PUSH2 0x1B6D JUMPI PUSH1 0x40 MLOAD PUSH3 0x461BCD PUSH1 0xE5 SHL DUP2 MSTORE PUSH1 0x4 ADD PUSH2 0x883 SWAP1 PUSH2 0x32B2 JUMP JUMPDEST DUP2 PUSH1 0x17 PUSH1 0x0 PUSH1 0x9 DUP5 PUSH1 0x40 MLOAD PUSH2 0x1B82 SWAP2 SWAP1 PUSH2 0x3381 JUMP JUMPDEST SWAP1 DUP2 MSTORE PUSH1 0x20 ADD PUSH1 0x40 MLOAD DUP1 SWAP2 SUB SWAP1 KECCAK256 SLOAD DUP2 MSTORE PUSH1 0x20 ADD SWAP1 DUP2 MSTORE PUSH1 0x20 ADD PUSH1 0x0 KECCAK256 DUP3 PUSH1 0x40 MLOAD PUSH2 0x1BAD SWAP2 SWAP1 PUSH2 0x3381 JUMP JUMPDEST SWAP1 DUP2 MSTORE PUSH1 0x40 MLOAD SWAP1 DUP2 SWAP1 SUB PUSH1 0x20 ADD SWAP1 KECCAK256 SSTORE PUSH2 0x1BC5 PUSH2 0xEB8 JUMP JUMPDEST PUSH1 0x18 PUSH1 0x0 PUSH1 0x9 DUP5 PUSH1 0x40 MLOAD PUSH2 0x1BD9 SWAP2 SWAP1 PUSH2 0x3381 JUMP JUMPDEST SWAP1 DUP2 MSTORE PUSH1 0x20 ADD PUSH1 0x40 MLOAD DUP1 SWAP2 SUB SWAP1 KECCAK256 SLOAD DUP2 MSTORE PUSH1 0x20 ADD SWAP1 DUP2 MSTORE PUSH1 0x20 ADD PUSH1 0x0 KECCAK256 DUP3 PUSH1 0x40 MLOAD PUSH2 0x1C04 SWAP2 SWAP1 PUSH2 0x3381 JUMP JUMPDEST SWAP1 DUP2 MSTORE PUSH1 0x40 MLOAD SWAP1 DUP2 SWAP1 SUB PUSH1 0x20 ADD SWAP1 KECCAK256 SSTORE PUSH2 0x1C1D DUP2 PUSH2 0xDAB JUMP JUMPDEST PUSH1 0x13 PUSH1 0x0 PUSH1 0x9 DUP5 PUSH1 0x40 MLOAD PUSH2 0x1C31 SWAP2 SWAP1 PUSH2 0x3381 JUMP JUMPDEST SWAP1 DUP2 MSTORE PUSH1 0x20 ADD PUSH1 0x40 MLOAD DUP1 SWAP2 SUB SWAP1 KECCAK256 SLOAD DUP2 MSTORE PUSH1 0x20 ADD SWAP1 DUP2 MSTORE PUSH1 0x20 ADD PUSH1 0x0 KECCAK256 DUP3 PUSH1 0x40 MLOAD PUSH2 0x1C5C SWAP2 SWAP1 PUSH2 0x3381 JUMP JUMPDEST SWAP1 DUP2 MSTORE PUSH1 0x40 MLOAD SWAP1 DUP2 SWAP1 SUB PUSH1 0x20 ADD SWAP1 KECCAK256 SSTORE POP POP JUMP JUMPDEST PUSH1 0x0 DUP4 DUP2 MSTORE PUSH1 0x1A PUSH1 0x20 MSTORE PUSH1 0x40 DUP1 DUP3 KECCAK256 SWAP1 MLOAD PUSH2 0x1C8C SWAP1 DUP6 SWAP1 PUSH2 0x3381 JUMP JUMPDEST SWAP1 DUP2 MSTORE PUSH1 0x20 ADD PUSH1 0x40 MLOAD DUP1 SWAP2 SUB SWAP1 KECCAK256 SLOAD PUSH1 0x26 PUSH1 0x0 DUP7 DUP2 MSTORE PUSH1 0x20 ADD SWAP1 DUP2 MSTORE PUSH1 0x20 ADD PUSH1 0x0 KECCAK256 DUP5 PUSH1 0x40 MLOAD PUSH2 0x1CBC SWAP2 SWAP1 PUSH2 0x3381 JUMP JUMPDEST SWAP1 DUP2 MSTORE PUSH1 0x40 DUP1 MLOAD PUSH1 0x20 SWAP3 DUP2 SWAP1 SUB DUP4 ADD SWAP1 KECCAK256 PUSH1 0x1 PUSH1 0x1 PUSH1 0xA0 SHL SUB DUP7 AND PUSH1 0x0 SWAP1 DUP2 MSTORE SWAP3 MSTORE SWAP1 KECCAK256 SLOAD GT ISZERO PUSH2 0x1CEC JUMPI PUSH1 0x0 DUP1 REVERT JUMPDEST PUSH1 0x0 DUP5 DUP2 MSTORE PUSH1 0x1A PUSH1 0x20 MSTORE PUSH1 0x40 SWAP1 DUP2 SWAP1 KECCAK256 SWAP1 MLOAD PUSH2 0x1D09 SWAP1 DUP6 SWAP1 PUSH2 0x3381 JUMP JUMPDEST SWAP1 DUP2 MSTORE PUSH1 0x20 ADD PUSH1 0x40 MLOAD DUP1 SWAP2 SUB SWAP1 KECCAK256 SLOAD PUSH1 0x26 PUSH1 0x0 DUP7 DUP2 MSTORE PUSH1 0x20 ADD SWAP1 DUP2 MSTORE PUSH1 0x20 ADD PUSH1 0x0 KECCAK256 DUP5 PUSH1 0x40 MLOAD PUSH2 0x1D39 SWAP2 SWAP1 PUSH2 0x3381 JUMP JUMPDEST SWAP1 DUP2 MSTORE PUSH1 0x40 DUP1 MLOAD PUSH1 0x20 SWAP3 DUP2 SWAP1 SUB DUP4 ADD SWAP1 KECCAK256 PUSH1 0x1 PUSH1 0x1 PUSH1 0xA0 SHL SUB DUP7 AND PUSH1 0x0 SWAP1 DUP2 MSTORE SWAP3 MSTORE SWAP1 KECCAK256 PUSH1 0x1 ADD SLOAD LT ISZERO PUSH2 0x1D6C JUMPI PUSH1 0x0 DUP1 REVERT JUMPDEST POP PUSH1 0x1 SWAP4 SWAP3 POP POP POP JUMP JUMPDEST PUSH1 0x0 SLOAD PUSH1 0x1 PUSH1 0x1 PUSH1 0xA0 SHL SUB AND CALLER EQ PUSH2 0x1DA0 JUMPI PUSH1 0x40 MLOAD PUSH3 0x461BCD PUSH1 0xE5 SHL DUP2 MSTORE PUSH1 0x4 ADD PUSH2 0x883 SWAP1 PUSH2 0x32B2 JUMP JUMPDEST PUSH1 0xF DUP1 SLOAD PUSH1 0x1 PUSH1 0x1 PUSH1 0xA0 SHL SUB NOT AND PUSH1 0x1 PUSH1 0x1 PUSH1 0xA0 SHL SUB SWAP3 SWAP1 SWAP3 AND SWAP2 SWAP1 SWAP2 OR SWAP1 SSTORE JUMP JUMPDEST PUSH1 0x40 MLOAD PUSH3 0x461BCD PUSH1 0xE5 SHL DUP2 MSTORE PUSH1 0x20 PUSH1 0x4 DUP3 ADD MSTORE PUSH1 0x2E PUSH1 0x24 DUP3 ADD MSTORE PUSH32 0x556E737570706F727465642063616C6C6261636B202D20416674657220416772 PUSH1 0x44 DUP3 ADD MSTORE PUSH14 0x19595B595B9D0810DC99585D1959 PUSH1 0x92 SHL PUSH1 0x64 DUP3 ADD MSTORE PUSH1 0x60 SWAP1 PUSH1 0x84 ADD PUSH2 0x883 JUMP JUMPDEST PUSH1 0x0 SLOAD PUSH1 0x1 PUSH1 0x1 PUSH1 0xA0 SHL SUB AND CALLER EQ PUSH2 0x1E4E JUMPI PUSH1 0x40 MLOAD PUSH3 0x461BCD PUSH1 0xE5 SHL DUP2 MSTORE PUSH1 0x4 ADD PUSH2 0x883 SWAP1 PUSH2 0x32B2 JUMP JUMPDEST PUSH1 0x4 DUP1 SLOAD PUSH1 0x1 DUP2 ADD DUP3 SSTORE PUSH1 0x0 SWAP2 SWAP1 SWAP2 MSTORE PUSH32 0x8A35ACFBC15FF81A39AE7D344FD709F28E8600B4AA8C65C6B64BFE7FE36BD19B ADD DUP1 SLOAD PUSH1 0x1 PUSH1 0x1 PUSH1 0xA0 SHL SUB NOT AND PUSH1 0x1 PUSH1 0x1 PUSH1 0xA0 SHL SUB SWAP3 SWAP1 SWAP3 AND SWAP2 SWAP1 SWAP2 OR SWAP1 SSTORE JUMP JUMPDEST PUSH1 0x0 SLOAD PUSH1 0x1 PUSH1 0x1 PUSH1 0xA0 SHL SUB AND CALLER EQ PUSH2 0x1ECA JUMPI PUSH1 0x40 MLOAD PUSH3 0x461BCD PUSH1 0xE5 SHL DUP2 MSTORE PUSH1 0x4 ADD PUSH2 0x883 SWAP1 PUSH2 0x32B2 JUMP JUMPDEST PUSH1 0x1 PUSH1 0x1 PUSH1 0xA0 SHL SUB DUP2 AND PUSH2 0x1F2F JUMPI PUSH1 0x40 MLOAD PUSH3 0x461BCD PUSH1 0xE5 SHL DUP2 MSTORE PUSH1 0x20 PUSH1 0x4 DUP3 ADD MSTORE PUSH1 0x26 PUSH1 0x24 DUP3 ADD MSTORE PUSH32 0x4F776E61626C653A206E6577206F776E657220697320746865207A65726F2061 PUSH1 0x44 DUP3 ADD MSTORE PUSH6 0x646472657373 PUSH1 0xD0 SHL PUSH1 0x64 DUP3 ADD MSTORE PUSH1 0x84 ADD PUSH2 0x883 JUMP JUMPDEST PUSH2 0x1F38 DUP2 PUSH2 0x23D9 JUMP JUMPDEST POP JUMP JUMPDEST PUSH1 0x21 PUSH1 0x20 MSTORE DUP2 PUSH1 0x0 MSTORE PUSH1 0x40 PUSH1 0x0 KECCAK256 DUP2 DUP2 SLOAD DUP2 LT PUSH2 0x1F57 JUMPI PUSH1 0x0 DUP1 REVERT JUMPDEST PUSH1 0x0 SWAP2 DUP3 MSTORE PUSH1 0x20 SWAP1 SWAP2 KECCAK256 ADD SLOAD PUSH1 0x1 PUSH1 0x1 PUSH1 0xA0 SHL SUB AND SWAP2 POP DUP3 SWAP1 POP JUMP JUMPDEST PUSH2 0x1F7B PUSH2 0xEB8 JUMP JUMPDEST PUSH1 0x1A PUSH1 0x0 PUSH1 0x9 DUP5 PUSH1 0x40 MLOAD PUSH2 0x1F8F SWAP2 SWAP1 PUSH2 0x3381 JUMP JUMPDEST SWAP1 DUP2 MSTORE PUSH1 0x20 ADD PUSH1 0x40 MLOAD DUP1 SWAP2 SUB SWAP1 KECCAK256 SLOAD DUP2 MSTORE PUSH1 0x20 ADD SWAP1 DUP2 MSTORE PUSH1 0x20 ADD PUSH1 0x0 KECCAK256 DUP3 PUSH1 0x40 MLOAD PUSH2 0x1FBA SWAP2 SWAP1 PUSH2 0x3381 JUMP JUMPDEST SWAP1 DUP2 MSTORE PUSH1 0x40 MLOAD SWAP1 DUP2 SWAP1 SUB PUSH1 0x20 ADD SWAP1 KECCAK256 SSTORE PUSH2 0x1FD3 DUP2 PUSH2 0x27E7 JUMP JUMPDEST PUSH2 0x1F38 DUP2 PUSH2 0x2AE6 JUMP JUMPDEST PUSH1 0x40 MLOAD PUSH4 0x70A08231 PUSH1 0xE0 SHL DUP2 MSTORE ADDRESS PUSH1 0x4 DUP3 ADD MSTORE PUSH1 0x0 SWAP1 DUP2 SWAP1 PUSH1 0x1 PUSH1 0x1 PUSH1 0xA0 SHL SUB DUP5 AND SWAP1 PUSH4 0x70A08231 SWAP1 PUSH1 0x24 ADD PUSH1 0x20 PUSH1 0x40 MLOAD DUP1 DUP4 SUB DUP2 DUP7 GAS STATICCALL ISZERO DUP1 ISZERO PUSH2 0x2025 JUMPI RETURNDATASIZE PUSH1 0x0 DUP1 RETURNDATACOPY RETURNDATASIZE PUSH1 0x0 REVERT JUMPDEST POP POP POP POP PUSH1 0x40 MLOAD RETURNDATASIZE PUSH1 0x1F NOT PUSH1 0x1F DUP3 ADD AND DUP3 ADD DUP1 PUSH1 0x40 MSTORE POP DUP2 ADD SWAP1 PUSH2 0x2049 SWAP2 SWAP1 PUSH2 0x34CE JUMP JUMPDEST SWAP1 POP PUSH1 0x0 PUSH1 0xC SLOAD PUSH1 0x1B SLOAD PUSH2 0x205D SWAP2 SWAP1 PUSH2 0x34E7 JUMP JUMPDEST PUSH2 0x2067 SWAP1 DUP4 PUSH2 0x34E7 JUMP JUMPDEST PUSH1 0xE SLOAD PUSH1 0x11 SLOAD PUSH1 0x40 MLOAD PUSH4 0x1A4CA37B PUSH1 0xE2 SHL DUP2 MSTORE PUSH1 0x1 PUSH1 0x1 PUSH1 0xA0 SHL SUB SWAP2 DUP3 AND PUSH1 0x4 DUP3 ADD MSTORE PUSH1 0x24 DUP2 ADD DUP5 SWAP1 MSTORE ADDRESS PUSH1 0x44 DUP3 ADD MSTORE SWAP3 SWAP4 POP AND SWAP1 PUSH4 0x69328DEC SWAP1 PUSH1 0x64 ADD PUSH1 0x20 PUSH1 0x40 MLOAD DUP1 DUP4 SUB DUP2 PUSH1 0x0 DUP8 GAS CALL ISZERO DUP1 ISZERO PUSH2 0x20C4 JUMPI RETURNDATASIZE PUSH1 0x0 DUP1 RETURNDATACOPY RETURNDATASIZE PUSH1 0x0 REVERT JUMPDEST POP POP POP POP PUSH1 0x40 MLOAD RETURNDATASIZE PUSH1 0x1F NOT PUSH1 0x1F DUP3 ADD AND DUP3 ADD DUP1 PUSH1 0x40 MSTORE POP DUP2 ADD SWAP1 PUSH2 0x20E8 SWAP2 SWAP1 PUSH2 0x34CE JUMP JUMPDEST POP PUSH1 0x11 SLOAD PUSH1 0x3 SLOAD PUSH1 0x40 MLOAD PUSH4 0x95EA7B3 PUSH1 0xE0 SHL DUP2 MSTORE PUSH1 0x1 PUSH1 0x1 PUSH1 0xA0 SHL SUB SWAP2 DUP3 AND PUSH1 0x4 DUP3 ADD MSTORE PUSH1 0x24 DUP2 ADD DUP5 SWAP1 MSTORE SWAP2 AND SWAP1 PUSH4 0x95EA7B3 SWAP1 PUSH1 0x44 ADD PUSH1 0x20 PUSH1 0x40 MLOAD DUP1 DUP4 SUB DUP2 PUSH1 0x0 DUP8 GAS CALL ISZERO DUP1 ISZERO PUSH2 0x213E JUMPI RETURNDATASIZE PUSH1 0x0 DUP1 RETURNDATACOPY RETURNDATASIZE PUSH1 0x0 REVERT JUMPDEST POP POP POP POP PUSH1 0x40 MLOAD RETURNDATASIZE PUSH1 0x1F NOT PUSH1 0x1F DUP3 ADD AND DUP3 ADD DUP1 PUSH1 0x40 MSTORE POP DUP2 ADD SWAP1 PUSH2 0x2162 SWAP2 SWAP1 PUSH2 0x34FE JUMP JUMPDEST POP PUSH1 0x3 SLOAD PUSH1 0x40 MLOAD PUSH4 0x45977D03 PUSH1 0xE0 SHL DUP2 MSTORE PUSH1 0x4 DUP2 ADD DUP4 SWAP1 MSTORE PUSH1 0x1 PUSH1 0x1 PUSH1 0xA0 SHL SUB SWAP1 SWAP2 AND SWAP1 PUSH4 0x45977D03 SWAP1 PUSH1 0x24 ADD PUSH1 0x0 PUSH1 0x40 MLOAD DUP1 DUP4 SUB DUP2 PUSH1 0x0 DUP8 DUP1 EXTCODESIZE ISZERO DUP1 ISZERO PUSH2 0x21A9 JUMPI PUSH1 0x0 DUP1 REVERT JUMPDEST POP GAS CALL ISZERO DUP1 ISZERO PUSH2 0x21BD JUMPI RETURNDATASIZE PUSH1 0x0 DUP1 RETURNDATACOPY RETURNDATASIZE PUSH1 0x0 REVERT JUMPDEST POP SWAP3 SWAP7 SWAP6 POP POP POP POP POP POP JUMP JUMPDEST PUSH1 0xA SLOAD PUSH1 0x1 PUSH1 0x1 PUSH1 0x80 SHL SUB AND PUSH1 0x0 SWAP1 DUP2 MSTORE PUSH1 0x15 PUSH1 0x20 MSTORE PUSH1 0x40 SWAP1 KECCAK256 SLOAD PUSH1 0x1 SLOAD PUSH1 0x2 SLOAD PUSH1 0x3 SLOAD PUSH1 0xF SLOAD PUSH1 0x1 PUSH1 0x1 PUSH1 0xA0 SHL SUB SWAP4 DUP5 AND SWAP4 PUSH4 0x39255D5B SWAP4 DUP2 AND SWAP3 PUSH4 0x317E182F PUSH1 0xE1 SHL SWAP3 SWAP1 DUP3 AND SWAP2 AND PUSH2 0x2220 PUSH3 0x278D00 DUP9 PUSH2 0x3520 JUMP JUMPDEST PUSH1 0x40 DUP1 MLOAD PUSH1 0x0 DUP2 MSTORE PUSH1 0x20 DUP2 ADD SWAP1 SWAP2 MSTORE PUSH2 0x223F SWAP4 SWAP3 SWAP2 SWAP1 PUSH1 0x44 DUP2 ADD PUSH2 0x3571 JUMP JUMPDEST PUSH1 0x40 DUP1 MLOAD PUSH1 0x1F NOT DUP2 DUP5 SUB ADD DUP2 MSTORE SWAP2 DUP2 MSTORE PUSH1 0x20 DUP3 ADD DUP1 MLOAD PUSH1 0x1 PUSH1 0x1 PUSH1 0xE0 SHL SUB AND PUSH1 0x1 PUSH1 0x1 PUSH1 0xE0 SHL SUB NOT SWAP5 DUP6 AND OR SWAP1 MSTORE MLOAD PUSH1 0xE0 DUP6 SWAP1 SHL SWAP1 SWAP3 AND DUP3 MSTORE PUSH2 0x2285 SWAP3 SWAP2 PUSH1 0x4 ADD PUSH2 0x35B1 JUMP JUMPDEST PUSH1 0x0 PUSH1 0x40 MLOAD DUP1 DUP4 SUB DUP2 PUSH1 0x0 DUP8 GAS CALL ISZERO DUP1 ISZERO PUSH2 0x22A4 JUMPI RETURNDATASIZE PUSH1 0x0 DUP1 RETURNDATACOPY RETURNDATASIZE PUSH1 0x0 REVERT JUMPDEST POP POP POP POP PUSH1 0x40 MLOAD RETURNDATASIZE PUSH1 0x0 DUP3 RETURNDATACOPY PUSH1 0x1F RETURNDATASIZE SWAP1 DUP2 ADD PUSH1 0x1F NOT AND DUP3 ADD PUSH1 0x40 MSTORE PUSH2 0x22CC SWAP2 SWAP1 DUP2 ADD SWAP1 PUSH2 0x35F8 JUMP JUMPDEST POP PUSH1 0xA DUP1 SLOAD PUSH1 0x1 SWAP2 SWAP1 PUSH1 0x0 SWAP1 PUSH2 0x139A SWAP1 DUP5 SWAP1 PUSH1 0x1 PUSH1 0x1 PUSH1 0x80 SHL SUB AND PUSH2 0x34A3 JUMP JUMPDEST PUSH1 0xA SLOAD PUSH1 0x1 PUSH1 0x1 PUSH1 0x80 SHL SUB AND PUSH2 0x2301 JUMPI PUSH1 0x0 DUP1 REVERT JUMPDEST PUSH1 0x3 SLOAD PUSH1 0x10 SLOAD PUSH1 0x40 MLOAD PUSH4 0x70A08231 PUSH1 0xE0 SHL DUP2 MSTORE PUSH1 0x1 PUSH1 0x1 PUSH1 0xA0 SHL SUB SWAP2 DUP3 AND PUSH1 0x4 DUP3 ADD MSTORE PUSH1 0x0 SWAP3 SWAP2 SWAP1 SWAP2 AND SWAP1 PUSH4 0x70A08231 SWAP1 PUSH1 0x24 ADD PUSH1 0x20 PUSH1 0x40 MLOAD DUP1 DUP4 SUB DUP2 DUP7 GAS STATICCALL ISZERO DUP1 ISZERO PUSH2 0x2352 JUMPI RETURNDATASIZE PUSH1 0x0 DUP1 RETURNDATACOPY RETURNDATASIZE PUSH1 0x0 REVERT JUMPDEST POP POP POP POP PUSH1 0x40 MLOAD RETURNDATASIZE PUSH1 0x1F NOT PUSH1 0x1F DUP3 ADD AND DUP3 ADD DUP1 PUSH1 0x40 MSTORE POP DUP2 ADD SWAP1 PUSH2 0x2376 SWAP2 SWAP1 PUSH2 0x34CE JUMP JUMPDEST PUSH1 0x10 SLOAD PUSH1 0x40 MLOAD PUSH4 0x91C05B0B PUSH1 0xE0 SHL DUP2 MSTORE PUSH1 0x4 DUP2 ADD DUP4 SWAP1 MSTORE SWAP2 SWAP3 POP PUSH1 0x1 PUSH1 0x1 PUSH1 0xA0 SHL SUB AND SWAP1 PUSH4 0x91C05B0B SWAP1 PUSH1 0x24 ADD JUMPDEST PUSH1 0x0 PUSH1 0x40 MLOAD DUP1 DUP4 SUB DUP2 PUSH1 0x0 DUP8 DUP1 EXTCODESIZE ISZERO DUP1 ISZERO PUSH2 0x23BE JUMPI PUSH1 0x0 DUP1 REVERT JUMPDEST POP GAS CALL ISZERO DUP1 ISZERO PUSH2 0x23D2 JUMPI RETURNDATASIZE PUSH1 0x0 DUP1 RETURNDATACOPY RETURNDATASIZE PUSH1 0x0 REVERT JUMPDEST POP POP POP POP POP JUMP JUMPDEST PUSH1 0x0 DUP1 SLOAD PUSH1 0x1 PUSH1 0x1 PUSH1 0xA0 SHL SUB DUP4 DUP2 AND PUSH1 0x1 PUSH1 0x1 PUSH1 0xA0 SHL SUB NOT DUP4 AND DUP2 OR DUP5 SSTORE PUSH1 0x40 MLOAD SWAP2 SWAP1 SWAP3 AND SWAP3 DUP4 SWAP2 PUSH32 0x8BE0079C531659141344CD1FD0A4F28419497F9722A3DAAFE3B4186F6B6457E0 SWAP2 SWAP1 LOG3 POP POP JUMP JUMPDEST PUSH1 0x40 DUP1 MLOAD PUSH1 0x1 PUSH1 0x1 PUSH1 0xA0 SHL SUB DUP6 DUP2 AND PUSH1 0x24 DUP4 ADD MSTORE DUP5 DUP2 AND PUSH1 0x44 DUP4 ADD MSTORE PUSH1 0x64 DUP1 DUP4 ADD DUP6 SWAP1 MSTORE DUP4 MLOAD DUP1 DUP5 SUB SWAP1 SWAP2 ADD DUP2 MSTORE PUSH1 0x84 SWAP1 SWAP3 ADD DUP4 MSTORE PUSH1 0x20 DUP3 ADD DUP1 MLOAD PUSH1 0x1 PUSH1 0x1 PUSH1 0xE0 SHL SUB AND PUSH4 0x23B872DD PUSH1 0xE0 SHL OR SWAP1 MSTORE SWAP2 MLOAD PUSH1 0x0 SWAP3 DUP4 SWAP3 SWAP1 DUP9 AND SWAP2 PUSH2 0x248D SWAP2 SWAP1 PUSH2 0x3381 JUMP JUMPDEST PUSH1 0x0 PUSH1 0x40 MLOAD DUP1 DUP4 SUB DUP2 PUSH1 0x0 DUP7 GAS CALL SWAP2 POP POP RETURNDATASIZE DUP1 PUSH1 0x0 DUP2 EQ PUSH2 0x24CA JUMPI PUSH1 0x40 MLOAD SWAP2 POP PUSH1 0x1F NOT PUSH1 0x3F RETURNDATASIZE ADD AND DUP3 ADD PUSH1 0x40 MSTORE RETURNDATASIZE DUP3 MSTORE RETURNDATASIZE PUSH1 0x0 PUSH1 0x20 DUP5 ADD RETURNDATACOPY PUSH2 0x24CF JUMP JUMPDEST PUSH1 0x60 SWAP2 POP JUMPDEST POP SWAP2 POP SWAP2 POP DUP2 DUP1 ISZERO PUSH2 0x24F9 JUMPI POP DUP1 MLOAD ISZERO DUP1 PUSH2 0x24F9 JUMPI POP DUP1 DUP1 PUSH1 0x20 ADD SWAP1 MLOAD DUP2 ADD SWAP1 PUSH2 0x24F9 SWAP2 SWAP1 PUSH2 0x34FE JUMP JUMPDEST PUSH2 0x252B JUMPI PUSH1 0x40 MLOAD PUSH3 0x461BCD PUSH1 0xE5 SHL DUP2 MSTORE PUSH1 0x20 PUSH1 0x4 DUP3 ADD MSTORE PUSH1 0x3 PUSH1 0x24 DUP3 ADD MSTORE PUSH3 0x29AA23 PUSH1 0xE9 SHL PUSH1 0x44 DUP3 ADD MSTORE PUSH1 0x64 ADD PUSH2 0x883 JUMP JUMPDEST POP POP POP POP POP POP JUMP JUMPDEST PUSH1 0x40 DUP1 MLOAD PUSH1 0x1 PUSH1 0x1 PUSH1 0xA0 SHL SUB DUP5 DUP2 AND PUSH1 0x24 DUP4 ADD MSTORE PUSH1 0x44 DUP1 DUP4 ADD DUP6 SWAP1 MSTORE DUP4 MLOAD DUP1 DUP5 SUB SWAP1 SWAP2 ADD DUP2 MSTORE PUSH1 0x64 SWAP1 SWAP3 ADD DUP4 MSTORE PUSH1 0x20 DUP3 ADD DUP1 MLOAD PUSH1 0x1 PUSH1 0x1 PUSH1 0xE0 SHL SUB AND PUSH4 0x95EA7B3 PUSH1 0xE0 SHL OR SWAP1 MSTORE SWAP2 MLOAD PUSH1 0x0 SWAP3 DUP4 SWAP3 SWAP1 DUP8 AND SWAP2 PUSH2 0x258F SWAP2 SWAP1 PUSH2 0x3381 JUMP JUMPDEST PUSH1 0x0 PUSH1 0x40 MLOAD DUP1 DUP4 SUB DUP2 PUSH1 0x0 DUP7 GAS CALL SWAP2 POP POP RETURNDATASIZE DUP1 PUSH1 0x0 DUP2 EQ PUSH2 0x25CC JUMPI PUSH1 0x40 MLOAD SWAP2 POP PUSH1 0x1F NOT PUSH1 0x3F RETURNDATASIZE ADD AND DUP3 ADD PUSH1 0x40 MSTORE RETURNDATASIZE DUP3 MSTORE RETURNDATASIZE PUSH1 0x0 PUSH1 0x20 DUP5 ADD RETURNDATACOPY PUSH2 0x25D1 JUMP JUMPDEST PUSH1 0x60 SWAP2 POP JUMPDEST POP SWAP2 POP SWAP2 POP DUP2 DUP1 ISZERO PUSH2 0x25FB JUMPI POP DUP1 MLOAD ISZERO DUP1 PUSH2 0x25FB JUMPI POP DUP1 DUP1 PUSH1 0x20 ADD SWAP1 MLOAD DUP2 ADD SWAP1 PUSH2 0x25FB SWAP2 SWAP1 PUSH2 0x34FE JUMP JUMPDEST PUSH2 0x23D2 JUMPI PUSH1 0x40 MLOAD PUSH3 0x461BCD PUSH1 0xE5 SHL DUP2 MSTORE PUSH1 0x20 PUSH1 0x4 DUP3 ADD MSTORE PUSH1 0x2 PUSH1 0x24 DUP3 ADD MSTORE PUSH2 0x5341 PUSH1 0xF0 SHL PUSH1 0x44 DUP3 ADD MSTORE PUSH1 0x64 ADD PUSH2 0x883 JUMP JUMPDEST PUSH1 0x40 DUP1 MLOAD PUSH1 0x1 PUSH1 0x1 PUSH1 0xA0 SHL SUB DUP5 DUP2 AND PUSH1 0x24 DUP4 ADD MSTORE PUSH1 0x44 DUP1 DUP4 ADD DUP6 SWAP1 MSTORE DUP4 MLOAD DUP1 DUP5 SUB SWAP1 SWAP2 ADD DUP2 MSTORE PUSH1 0x64 SWAP1 SWAP3 ADD DUP4 MSTORE PUSH1 0x20 DUP3 ADD DUP1 MLOAD PUSH1 0x1 PUSH1 0x1 PUSH1 0xE0 SHL SUB AND PUSH4 0xA9059CBB PUSH1 0xE0 SHL OR SWAP1 MSTORE SWAP2 MLOAD PUSH1 0x0 SWAP3 DUP4 SWAP3 SWAP1 DUP8 AND SWAP2 PUSH2 0x2688 SWAP2 SWAP1 PUSH2 0x3381 JUMP JUMPDEST PUSH1 0x0 PUSH1 0x40 MLOAD DUP1 DUP4 SUB DUP2 PUSH1 0x0 DUP7 GAS CALL SWAP2 POP POP RETURNDATASIZE DUP1 PUSH1 0x0 DUP2 EQ PUSH2 0x26C5 JUMPI PUSH1 0x40 MLOAD SWAP2 POP PUSH1 0x1F NOT PUSH1 0x3F RETURNDATASIZE ADD AND DUP3 ADD PUSH1 0x40 MSTORE RETURNDATASIZE DUP3 MSTORE RETURNDATASIZE PUSH1 0x0 PUSH1 0x20 DUP5 ADD RETURNDATACOPY PUSH2 0x26CA JUMP JUMPDEST PUSH1 0x60 SWAP2 POP JUMPDEST POP SWAP2 POP SWAP2 POP DUP2 DUP1 ISZERO PUSH2 0x26F4 JUMPI POP DUP1 MLOAD ISZERO DUP1 PUSH2 0x26F4 JUMPI POP DUP1 DUP1 PUSH1 0x20 ADD SWAP1 MLOAD DUP2 ADD SWAP1 PUSH2 0x26F4 SWAP2 SWAP1 PUSH2 0x34FE JUMP JUMPDEST PUSH2 0x23D2 JUMPI PUSH1 0x40 MLOAD PUSH3 0x461BCD PUSH1 0xE5 SHL DUP2 MSTORE PUSH1 0x20 PUSH1 0x4 DUP3 ADD MSTORE PUSH1 0x2 PUSH1 0x24 DUP3 ADD MSTORE PUSH2 0x14D5 PUSH1 0xF2 SHL PUSH1 0x44 DUP3 ADD MSTORE PUSH1 0x64 ADD PUSH2 0x883 JUMP JUMPDEST PUSH1 0x11 SLOAD PUSH1 0xE SLOAD PUSH1 0x40 MLOAD PUSH4 0x95EA7B3 PUSH1 0xE0 SHL DUP2 MSTORE PUSH1 0x1 PUSH1 0x1 PUSH1 0xA0 SHL SUB SWAP2 DUP3 AND PUSH1 0x4 DUP3 ADD MSTORE PUSH1 0x24 DUP2 ADD DUP5 SWAP1 MSTORE SWAP2 AND SWAP1 PUSH4 0x95EA7B3 SWAP1 PUSH1 0x44 ADD PUSH1 0x20 PUSH1 0x40 MLOAD DUP1 DUP4 SUB DUP2 PUSH1 0x0 DUP8 GAS CALL ISZERO DUP1 ISZERO PUSH2 0x277A JUMPI RETURNDATASIZE PUSH1 0x0 DUP1 RETURNDATACOPY RETURNDATASIZE PUSH1 0x0 REVERT JUMPDEST POP POP POP POP PUSH1 0x40 MLOAD RETURNDATASIZE PUSH1 0x1F NOT PUSH1 0x1F DUP3 ADD AND DUP3 ADD DUP1 PUSH1 0x40 MSTORE POP DUP2 ADD SWAP1 PUSH2 0x279E SWAP2 SWAP1 PUSH2 0x34FE JUMP JUMPDEST POP PUSH1 0xE SLOAD PUSH1 0x11 SLOAD PUSH1 0x40 MLOAD PUSH4 0xE8EDA9DF PUSH1 0xE0 SHL DUP2 MSTORE PUSH1 0x1 PUSH1 0x1 PUSH1 0xA0 SHL SUB SWAP2 DUP3 AND PUSH1 0x4 DUP3 ADD MSTORE PUSH1 0x24 DUP2 ADD DUP5 SWAP1 MSTORE ADDRESS PUSH1 0x44 DUP3 ADD MSTORE PUSH1 0x0 PUSH1 0x64 DUP3 ADD MSTORE SWAP2 AND SWAP1 PUSH4 0xE8EDA9DF SWAP1 PUSH1 0x84 ADD PUSH2 0x23A4 JUMP JUMPDEST PUSH1 0x23 PUSH1 0x0 PUSH1 0x9 DUP4 PUSH1 0x40 MLOAD PUSH2 0x27FB SWAP2 SWAP1 PUSH2 0x3381 JUMP JUMPDEST SWAP1 DUP2 MSTORE PUSH1 0x20 ADD PUSH1 0x40 MLOAD DUP1 SWAP2 SUB SWAP1 KECCAK256 SLOAD DUP2 MSTORE PUSH1 0x20 ADD SWAP1 DUP2 MSTORE PUSH1 0x20 ADD PUSH1 0x0 KECCAK256 DUP2 PUSH1 0x40 MLOAD PUSH2 0x2826 SWAP2 SWAP1 PUSH2 0x3381 JUMP JUMPDEST SWAP1 DUP2 MSTORE PUSH1 0x20 ADD PUSH1 0x40 MLOAD DUP1 SWAP2 SUB SWAP1 KECCAK256 DUP1 SLOAD SWAP1 POP PUSH1 0x24 PUSH1 0x0 PUSH1 0x9 DUP5 PUSH1 0x40 MLOAD PUSH2 0x284C SWAP2 SWAP1 PUSH2 0x3381 JUMP JUMPDEST SWAP1 DUP2 MSTORE PUSH1 0x20 ADD PUSH1 0x40 MLOAD DUP1 SWAP2 SUB SWAP1 KECCAK256 SLOAD DUP2 MSTORE PUSH1 0x20 ADD SWAP1 DUP2 MSTORE PUSH1 0x20 ADD PUSH1 0x0 KECCAK256 DUP3 PUSH1 0x40 MLOAD PUSH2 0x2877 SWAP2 SWAP1 PUSH2 0x3381 JUMP JUMPDEST SWAP1 DUP2 MSTORE PUSH1 0x40 MLOAD SWAP1 DUP2 SWAP1 SUB PUSH1 0x20 ADD SWAP1 KECCAK256 SLOAD EQ PUSH2 0x2891 JUMPI PUSH1 0x0 DUP1 REVERT JUMPDEST PUSH1 0x0 JUMPDEST PUSH1 0x23 PUSH1 0x0 PUSH1 0x9 DUP5 PUSH1 0x40 MLOAD PUSH2 0x28A8 SWAP2 SWAP1 PUSH2 0x3381 JUMP JUMPDEST SWAP1 DUP2 MSTORE PUSH1 0x20 ADD PUSH1 0x40 MLOAD DUP1 SWAP2 SUB SWAP1 KECCAK256 SLOAD DUP2 MSTORE PUSH1 0x20 ADD SWAP1 DUP2 MSTORE PUSH1 0x20 ADD PUSH1 0x0 KECCAK256 DUP3 PUSH1 0x40 MLOAD PUSH2 0x28D3 SWAP2 SWAP1 PUSH2 0x3381 JUMP JUMPDEST SWAP1 DUP2 MSTORE PUSH1 0x40 MLOAD SWAP1 DUP2 SWAP1 SUB PUSH1 0x20 ADD SWAP1 KECCAK256 SLOAD DUP2 LT ISZERO PUSH2 0x2AE2 JUMPI PUSH1 0x1A PUSH1 0x0 PUSH1 0x9 DUP5 PUSH1 0x40 MLOAD PUSH2 0x28FE SWAP2 SWAP1 PUSH2 0x3381 JUMP JUMPDEST SWAP1 DUP2 MSTORE PUSH1 0x20 ADD PUSH1 0x40 MLOAD DUP1 SWAP2 SUB SWAP1 KECCAK256 SLOAD DUP2 MSTORE PUSH1 0x20 ADD SWAP1 DUP2 MSTORE PUSH1 0x20 ADD PUSH1 0x0 KECCAK256 DUP3 PUSH1 0x40 MLOAD PUSH2 0x2929 SWAP2 SWAP1 PUSH2 0x3381 JUMP JUMPDEST SWAP1 DUP2 MSTORE PUSH1 0x20 ADD PUSH1 0x40 MLOAD DUP1 SWAP2 SUB SWAP1 KECCAK256 SLOAD PUSH1 0x23 PUSH1 0x0 PUSH1 0x9 DUP6 PUSH1 0x40 MLOAD PUSH2 0x294C SWAP2 SWAP1 PUSH2 0x3381 JUMP JUMPDEST SWAP1 DUP2 MSTORE PUSH1 0x20 ADD PUSH1 0x40 MLOAD DUP1 SWAP2 SUB SWAP1 KECCAK256 SLOAD DUP2 MSTORE PUSH1 0x20 ADD SWAP1 DUP2 MSTORE PUSH1 0x20 ADD PUSH1 0x0 KECCAK256 DUP4 PUSH1 0x40 MLOAD PUSH2 0x2977 SWAP2 SWAP1 PUSH2 0x3381 JUMP JUMPDEST SWAP1 DUP2 MSTORE PUSH1 0x20 ADD PUSH1 0x40 MLOAD DUP1 SWAP2 SUB SWAP1 KECCAK256 DUP3 DUP2 SLOAD DUP2 LT PUSH2 0x2996 JUMPI PUSH2 0x2996 PUSH2 0x3322 JUMP JUMPDEST SWAP1 PUSH1 0x0 MSTORE PUSH1 0x20 PUSH1 0x0 KECCAK256 ADD SLOAD LT ISZERO DUP1 ISZERO PUSH2 0x2A64 JUMPI POP PUSH1 0x1A PUSH1 0x0 PUSH1 0x9 DUP5 PUSH1 0x40 MLOAD PUSH2 0x29BE SWAP2 SWAP1 PUSH2 0x3381 JUMP JUMPDEST SWAP1 DUP2 MSTORE PUSH1 0x20 ADD PUSH1 0x40 MLOAD DUP1 SWAP2 SUB SWAP1 KECCAK256 SLOAD DUP2 MSTORE PUSH1 0x20 ADD SWAP1 DUP2 MSTORE PUSH1 0x20 ADD PUSH1 0x0 KECCAK256 DUP3 PUSH1 0x40 MLOAD PUSH2 0x29E9 SWAP2 SWAP1 PUSH2 0x3381 JUMP JUMPDEST SWAP1 DUP2 MSTORE PUSH1 0x20 ADD PUSH1 0x40 MLOAD DUP1 SWAP2 SUB SWAP1 KECCAK256 SLOAD PUSH1 0x24 PUSH1 0x0 PUSH1 0x9 DUP6 PUSH1 0x40 MLOAD PUSH2 0x2A0C SWAP2 SWAP1 PUSH2 0x3381 JUMP JUMPDEST SWAP1 DUP2 MSTORE PUSH1 0x20 ADD PUSH1 0x40 MLOAD DUP1 SWAP2 SUB SWAP1 KECCAK256 SLOAD DUP2 MSTORE PUSH1 0x20 ADD SWAP1 DUP2 MSTORE PUSH1 0x20 ADD PUSH1 0x0 KECCAK256 DUP4 PUSH1 0x40 MLOAD PUSH2 0x2A37 SWAP2 SWAP1 PUSH2 0x3381 JUMP JUMPDEST SWAP1 DUP2 MSTORE PUSH1 0x20 ADD PUSH1 0x40 MLOAD DUP1 SWAP2 SUB SWAP1 KECCAK256 DUP3 DUP2 SLOAD DUP2 LT PUSH2 0x2A56 JUMPI PUSH2 0x2A56 PUSH2 0x3322 JUMP JUMPDEST SWAP1 PUSH1 0x0 MSTORE PUSH1 0x20 PUSH1 0x0 KECCAK256 ADD SLOAD GT ISZERO JUMPDEST PUSH2 0x2A6D JUMPI PUSH1 0x0 DUP1 REVERT JUMPDEST PUSH1 0x25 PUSH1 0x0 PUSH1 0x9 DUP5 PUSH1 0x40 MLOAD PUSH2 0x2A81 SWAP2 SWAP1 PUSH2 0x3381 JUMP JUMPDEST SWAP1 DUP2 MSTORE PUSH1 0x20 ADD PUSH1 0x40 MLOAD DUP1 SWAP2 SUB SWAP1 KECCAK256 SLOAD DUP2 MSTORE PUSH1 0x20 ADD SWAP1 DUP2 MSTORE PUSH1 0x20 ADD PUSH1 0x0 KECCAK256 DUP3 PUSH1 0x40 MLOAD PUSH2 0x2AAC SWAP2 SWAP1 PUSH2 0x3381 JUMP JUMPDEST SWAP1 DUP2 MSTORE PUSH1 0x40 MLOAD PUSH1 0x20 SWAP2 DUP2 SWAP1 SUB DUP3 ADD SWAP1 KECCAK256 DUP1 SLOAD PUSH1 0x1 DUP2 ADD DUP3 SSTORE PUSH1 0x0 SWAP2 DUP3 MSTORE SWAP2 SWAP1 KECCAK256 ADD DUP2 SWAP1 SSTORE DUP1 PUSH2 0x2ADA DUP2 PUSH2 0x334E JUMP JUMPDEST SWAP2 POP POP PUSH2 0x2894 JUMP JUMPDEST POP POP JUMP JUMPDEST PUSH1 0x25 PUSH1 0x0 PUSH1 0x9 DUP4 PUSH1 0x40 MLOAD PUSH2 0x2AFA SWAP2 SWAP1 PUSH2 0x3381 JUMP JUMPDEST SWAP1 DUP2 MSTORE PUSH1 0x20 ADD PUSH1 0x40 MLOAD DUP1 SWAP2 SUB SWAP1 KECCAK256 SLOAD DUP2 MSTORE PUSH1 0x20 ADD SWAP1 DUP2 MSTORE PUSH1 0x20 ADD PUSH1 0x0 KECCAK256 DUP2 PUSH1 0x40 MLOAD PUSH2 0x2B25 SWAP2 SWAP1 PUSH2 0x3381 JUMP JUMPDEST SWAP1 DUP2 MSTORE PUSH1 0x40 MLOAD SWAP1 DUP2 SWAP1 SUB PUSH1 0x20 ADD SWAP1 KECCAK256 SLOAD PUSH2 0x2B3E JUMPI PUSH1 0x0 DUP1 REVERT JUMPDEST PUSH1 0xE SLOAD PUSH1 0x11 SLOAD PUSH1 0x40 MLOAD PUSH1 0x1 PUSH1 0x1 PUSH1 0xA0 SHL SUB SWAP3 DUP4 AND SWAP3 PUSH4 0x69328DEC SWAP3 AND SWAP1 PUSH1 0x16 SWAP1 PUSH1 0x0 SWAP1 PUSH1 0x9 SWAP1 PUSH2 0x2B6F SWAP1 DUP9 SWAP1 PUSH2 0x3381 JUMP JUMPDEST SWAP1 DUP2 MSTORE PUSH1 0x20 ADD PUSH1 0x40 MLOAD DUP1 SWAP2 SUB SWAP1 KECCAK256 SLOAD DUP2 MSTORE PUSH1 0x20 ADD SWAP1 DUP2 MSTORE PUSH1 0x20 ADD PUSH1 0x0 KECCAK256 DUP5 PUSH1 0x40 MLOAD PUSH2 0x2B9A SWAP2 SWAP1 PUSH2 0x3381 JUMP JUMPDEST SWAP1 DUP2 MSTORE PUSH1 0x40 MLOAD SWAP1 DUP2 SWAP1 SUB PUSH1 0x20 ADD DUP2 KECCAK256 SLOAD PUSH1 0x1 PUSH1 0x1 PUSH1 0xE0 SHL SUB NOT PUSH1 0xE0 DUP6 SWAP1 SHL AND DUP3 MSTORE PUSH1 0x1 PUSH1 0x1 PUSH1 0xA0 SHL SUB SWAP3 SWAP1 SWAP3 AND PUSH1 0x4 DUP3 ADD MSTORE PUSH1 0x24 DUP2 ADD SWAP2 SWAP1 SWAP2 MSTORE ADDRESS PUSH1 0x44 DUP3 ADD MSTORE PUSH1 0x64 ADD PUSH1 0x20 PUSH1 0x40 MLOAD DUP1 DUP4 SUB DUP2 PUSH1 0x0 DUP8 GAS CALL ISZERO DUP1 ISZERO PUSH2 0x2BFC JUMPI RETURNDATASIZE PUSH1 0x0 DUP1 RETURNDATACOPY RETURNDATASIZE PUSH1 0x0 REVERT JUMPDEST POP POP POP POP PUSH1 0x40 MLOAD RETURNDATASIZE PUSH1 0x1F NOT PUSH1 0x1F DUP3 ADD AND DUP3 ADD DUP1 PUSH1 0x40 MSTORE POP DUP2 ADD SWAP1 PUSH2 0x2AE2 SWAP2 SWAP1 PUSH2 0x34CE JUMP JUMPDEST DUP3 DUP1 SLOAD PUSH2 0x2C2C SWAP1 PUSH2 0x32E7 JUMP JUMPDEST SWAP1 PUSH1 0x0 MSTORE PUSH1 0x20 PUSH1 0x0 KECCAK256 SWAP1 PUSH1 0x1F ADD PUSH1 0x20 SWAP1 DIV DUP2 ADD SWAP3 DUP3 PUSH2 0x2C4E JUMPI PUSH1 0x0 DUP6 SSTORE PUSH2 0x2C94 JUMP JUMPDEST DUP3 PUSH1 0x1F LT PUSH2 0x2C67 JUMPI DUP1 MLOAD PUSH1 0xFF NOT AND DUP4 DUP1 ADD OR DUP6 SSTORE PUSH2 0x2C94 JUMP JUMPDEST DUP3 DUP1 ADD PUSH1 0x1 ADD DUP6 SSTORE DUP3 ISZERO PUSH2 0x2C94 JUMPI SWAP2 DUP3 ADD JUMPDEST DUP3 DUP2 GT ISZERO PUSH2 0x2C94 JUMPI DUP3 MLOAD DUP3 SSTORE SWAP2 PUSH1 0x20 ADD SWAP2 SWAP1 PUSH1 0x1 ADD SWAP1 PUSH2 0x2C79 JUMP JUMPDEST POP PUSH2 0x2CA0 SWAP3 SWAP2 POP PUSH2 0x2CA4 JUMP JUMPDEST POP SWAP1 JUMP JUMPDEST JUMPDEST DUP1 DUP3 GT ISZERO PUSH2 0x2CA0 JUMPI PUSH1 0x0 DUP2 SSTORE PUSH1 0x1 ADD PUSH2 0x2CA5 JUMP JUMPDEST DUP1 CALLDATALOAD PUSH1 0x1 PUSH1 0x1 PUSH1 0xC0 SHL SUB NOT DUP2 AND DUP2 EQ PUSH2 0x2CD1 JUMPI PUSH1 0x0 DUP1 REVERT JUMPDEST SWAP2 SWAP1 POP JUMP JUMPDEST PUSH1 0x1 PUSH1 0x1 PUSH1 0xA0 SHL SUB DUP2 AND DUP2 EQ PUSH2 0x1F38 JUMPI PUSH1 0x0 DUP1 REVERT JUMPDEST PUSH1 0x0 DUP1 PUSH1 0x0 PUSH1 0x60 DUP5 DUP7 SUB SLT ISZERO PUSH2 0x2D00 JUMPI PUSH1 0x0 DUP1 REVERT JUMPDEST PUSH2 0x2D09 DUP5 PUSH2 0x2CB9 JUMP JUMPDEST SWAP3 POP PUSH1 0x20 DUP5 ADD CALLDATALOAD PUSH2 0x2D19 DUP2 PUSH2 0x2CD6 JUMP JUMPDEST SWAP3 SWAP6 SWAP3 SWAP5 POP POP POP PUSH1 0x40 SWAP2 SWAP1 SWAP2 ADD CALLDATALOAD SWAP1 JUMP JUMPDEST PUSH1 0x0 PUSH1 0x20 DUP3 DUP5 SUB SLT ISZERO PUSH2 0x2D3C JUMPI PUSH1 0x0 DUP1 REVERT JUMPDEST POP CALLDATALOAD SWAP2 SWAP1 POP JUMP JUMPDEST PUSH1 0x0 JUMPDEST DUP4 DUP2 LT ISZERO PUSH2 0x2D5E JUMPI DUP2 DUP2 ADD MLOAD DUP4 DUP3 ADD MSTORE PUSH1 0x20 ADD PUSH2 0x2D46 JUMP JUMPDEST DUP4 DUP2 GT ISZERO PUSH2 0x2D6D JUMPI PUSH1 0x0 DUP5 DUP5 ADD MSTORE JUMPDEST POP POP POP POP JUMP JUMPDEST PUSH1 0x0 DUP2 MLOAD DUP1 DUP5 MSTORE PUSH2 0x2D8B DUP2 PUSH1 0x20 DUP7 ADD PUSH1 0x20 DUP7 ADD PUSH2 0x2D43 JUMP JUMPDEST PUSH1 0x1F ADD PUSH1 0x1F NOT AND SWAP3 SWAP1 SWAP3 ADD PUSH1 0x20 ADD SWAP3 SWAP2 POP POP JUMP JUMPDEST PUSH1 0x20 DUP2 MSTORE PUSH1 0x0 PUSH2 0x2DB2 PUSH1 0x20 DUP4 ADD DUP5 PUSH2 0x2D73 JUMP JUMPDEST SWAP4 SWAP3 POP POP POP JUMP JUMPDEST PUSH4 0x4E487B71 PUSH1 0xE0 SHL PUSH1 0x0 MSTORE PUSH1 0x41 PUSH1 0x4 MSTORE PUSH1 0x24 PUSH1 0x0 REVERT JUMPDEST PUSH1 0x40 MLOAD PUSH1 0x1F DUP3 ADD PUSH1 0x1F NOT AND DUP2 ADD PUSH1 0x1 PUSH1 0x1 PUSH1 0x40 SHL SUB DUP2 GT DUP3 DUP3 LT OR ISZERO PUSH2 0x2DF7 JUMPI PUSH2 0x2DF7 PUSH2 0x2DB9 JUMP JUMPDEST PUSH1 0x40 MSTORE SWAP2 SWAP1 POP JUMP JUMPDEST PUSH1 0x0 PUSH1 0x1 PUSH1 0x1 PUSH1 0x40 SHL SUB DUP3 GT ISZERO PUSH2 0x2E18 JUMPI PUSH2 0x2E18 PUSH2 0x2DB9 JUMP JUMPDEST POP PUSH1 0x1F ADD PUSH1 0x1F NOT AND PUSH1 0x20 ADD SWAP1 JUMP JUMPDEST PUSH1 0x0 DUP3 PUSH1 0x1F DUP4 ADD SLT PUSH2 0x2E37 JUMPI PUSH1 0x0 DUP1 REVERT JUMPDEST DUP2 CALLDATALOAD PUSH2 0x2E4A PUSH2 0x2E45 DUP3 PUSH2 0x2DFF JUMP JUMPDEST PUSH2 0x2DCF JUMP JUMPDEST DUP2 DUP2 MSTORE DUP5 PUSH1 0x20 DUP4 DUP7 ADD ADD GT ISZERO PUSH2 0x2E5F JUMPI PUSH1 0x0 DUP1 REVERT JUMPDEST DUP2 PUSH1 0x20 DUP6 ADD PUSH1 0x20 DUP4 ADD CALLDATACOPY PUSH1 0x0 SWAP2 DUP2 ADD PUSH1 0x20 ADD SWAP2 SWAP1 SWAP2 MSTORE SWAP4 SWAP3 POP POP POP JUMP JUMPDEST PUSH1 0x0 DUP1 PUSH1 0x40 DUP4 DUP6 SUB SLT ISZERO PUSH2 0x2E8F JUMPI PUSH1 0x0 DUP1 REVERT JUMPDEST DUP3 CALLDATALOAD SWAP2 POP PUSH1 0x20 DUP4 ADD CALLDATALOAD PUSH1 0x1 PUSH1 0x1 PUSH1 0x40 SHL SUB DUP2 GT ISZERO PUSH2 0x2EAC JUMPI PUSH1 0x0 DUP1 REVERT JUMPDEST PUSH2 0x2EB8 DUP6 DUP3 DUP7 ADD PUSH2 0x2E26 JUMP JUMPDEST SWAP2 POP POP SWAP3 POP SWAP3 SWAP1 POP JUMP JUMPDEST PUSH1 0x0 PUSH1 0x20 DUP3 DUP5 SUB SLT ISZERO PUSH2 0x2ED4 JUMPI PUSH1 0x0 DUP1 REVERT JUMPDEST DUP2 CALLDATALOAD PUSH2 0x2DB2 DUP2 PUSH2 0x2CD6 JUMP JUMPDEST DUP1 CALLDATALOAD PUSH1 0x1 PUSH1 0x1 PUSH1 0x80 SHL SUB DUP2 AND DUP2 EQ PUSH2 0x2CD1 JUMPI PUSH1 0x0 DUP1 REVERT JUMPDEST PUSH1 0x0 DUP1 PUSH1 0x40 DUP4 DUP6 SUB SLT ISZERO PUSH2 0x2F09 JUMPI PUSH1 0x0 DUP1 REVERT JUMPDEST PUSH2 0x2F12 DUP4 PUSH2 0x2EDF JUMP JUMPDEST SWAP2 POP PUSH2 0x2F20 PUSH1 0x20 DUP5 ADD PUSH2 0x2CB9 JUMP JUMPDEST SWAP1 POP SWAP3 POP SWAP3 SWAP1 POP JUMP JUMPDEST PUSH1 0x0 DUP1 DUP4 PUSH1 0x1F DUP5 ADD SLT PUSH2 0x2F3B JUMPI PUSH1 0x0 DUP1 REVERT JUMPDEST POP DUP2 CALLDATALOAD PUSH1 0x1 PUSH1 0x1 PUSH1 0x40 SHL SUB DUP2 GT ISZERO PUSH2 0x2F52 JUMPI PUSH1 0x0 DUP1 REVERT JUMPDEST PUSH1 0x20 DUP4 ADD SWAP2 POP DUP4 PUSH1 0x20 DUP3 DUP6 ADD ADD GT ISZERO PUSH2 0x122F JUMPI PUSH1 0x0 DUP1 REVERT JUMPDEST PUSH1 0x0 DUP1 PUSH1 0x0 DUP1 PUSH1 0x0 DUP1 PUSH1 0x0 DUP1 PUSH1 0x0 PUSH1 0xC0 DUP11 DUP13 SUB SLT ISZERO PUSH2 0x2F88 JUMPI PUSH1 0x0 DUP1 REVERT JUMPDEST DUP10 CALLDATALOAD PUSH2 0x2F93 DUP2 PUSH2 0x2CD6 JUMP JUMPDEST SWAP9 POP PUSH1 0x20 DUP11 ADD CALLDATALOAD PUSH2 0x2FA3 DUP2 PUSH2 0x2CD6 JUMP JUMPDEST SWAP8 POP PUSH1 0x40 DUP11 ADD CALLDATALOAD SWAP7 POP PUSH1 0x60 DUP11 ADD CALLDATALOAD PUSH1 0x1 PUSH1 0x1 PUSH1 0x40 SHL SUB DUP1 DUP3 GT ISZERO PUSH2 0x2FC6 JUMPI PUSH1 0x0 DUP1 REVERT JUMPDEST PUSH2 0x2FD2 DUP14 DUP4 DUP15 ADD PUSH2 0x2F29 JUMP JUMPDEST SWAP1 SWAP9 POP SWAP7 POP PUSH1 0x80 DUP13 ADD CALLDATALOAD SWAP2 POP DUP1 DUP3 GT ISZERO PUSH2 0x2FEB JUMPI PUSH1 0x0 DUP1 REVERT JUMPDEST PUSH2 0x2FF7 DUP14 DUP4 DUP15 ADD PUSH2 0x2F29 JUMP JUMPDEST SWAP1 SWAP7 POP SWAP5 POP PUSH1 0xA0 DUP13 ADD CALLDATALOAD SWAP2 POP DUP1 DUP3 GT ISZERO PUSH2 0x3010 JUMPI PUSH1 0x0 DUP1 REVERT JUMPDEST POP PUSH2 0x301D DUP13 DUP3 DUP14 ADD PUSH2 0x2F29 JUMP JUMPDEST SWAP2 POP DUP1 SWAP4 POP POP DUP1 SWAP2 POP POP SWAP3 SWAP6 SWAP9 POP SWAP3 SWAP6 SWAP9 POP SWAP3 SWAP6 SWAP9 JUMP JUMPDEST PUSH1 0x0 DUP1 PUSH1 0x0 DUP1 PUSH1 0x0 DUP1 PUSH1 0x0 PUSH1 0xA0 DUP9 DUP11 SUB SLT ISZERO PUSH2 0x304F JUMPI PUSH1 0x0 DUP1 REVERT JUMPDEST DUP8 CALLDATALOAD PUSH2 0x305A DUP2 PUSH2 0x2CD6 JUMP JUMPDEST SWAP7 POP PUSH1 0x20 DUP9 ADD CALLDATALOAD PUSH2 0x306A DUP2 PUSH2 0x2CD6 JUMP JUMPDEST SWAP6 POP PUSH1 0x40 DUP9 ADD CALLDATALOAD SWAP5 POP PUSH1 0x60 DUP9 ADD CALLDATALOAD PUSH1 0x1 PUSH1 0x1 PUSH1 0x40 SHL SUB DUP1 DUP3 GT ISZERO PUSH2 0x308D JUMPI PUSH1 0x0 DUP1 REVERT JUMPDEST PUSH2 0x3099 DUP12 DUP4 DUP13 ADD PUSH2 0x2F29 JUMP JUMPDEST SWAP1 SWAP7 POP SWAP5 POP PUSH1 0x80 DUP11 ADD CALLDATALOAD SWAP2 POP DUP1 DUP3 GT ISZERO PUSH2 0x30B2 JUMPI PUSH1 0x0 DUP1 REVERT JUMPDEST POP PUSH2 0x30BF DUP11 DUP3 DUP12 ADD PUSH2 0x2F29 JUMP JUMPDEST SWAP9 SWAP12 SWAP8 SWAP11 POP SWAP6 SWAP9 POP SWAP4 SWAP7 SWAP3 SWAP6 SWAP3 SWAP4 POP POP POP JUMP JUMPDEST PUSH1 0x0 PUSH1 0x20 DUP3 DUP5 SUB SLT ISZERO PUSH2 0x30E4 JUMPI PUSH1 0x0 DUP1 REVERT JUMPDEST DUP2 CALLDATALOAD PUSH1 0x1 PUSH1 0x1 PUSH1 0x40 SHL SUB DUP2 GT ISZERO PUSH2 0x30FA JUMPI PUSH1 0x0 DUP1 REVERT JUMPDEST PUSH2 0x3106 DUP5 DUP3 DUP6 ADD PUSH2 0x2E26 JUMP JUMPDEST SWAP5 SWAP4 POP POP POP POP JUMP JUMPDEST PUSH1 0x0 DUP1 PUSH1 0x20 DUP4 DUP6 SUB SLT ISZERO PUSH2 0x3121 JUMPI PUSH1 0x0 DUP1 REVERT JUMPDEST DUP3 CALLDATALOAD PUSH1 0x1 PUSH1 0x1 PUSH1 0x40 SHL SUB DUP2 GT ISZERO PUSH2 0x3137 JUMPI PUSH1 0x0 DUP1 REVERT JUMPDEST PUSH2 0x3143 DUP6 DUP3 DUP7 ADD PUSH2 0x2F29 JUMP JUMPDEST SWAP1 SWAP7 SWAP1 SWAP6 POP SWAP4 POP POP POP POP JUMP JUMPDEST PUSH1 0x0 DUP1 PUSH1 0x40 DUP4 DUP6 SUB SLT ISZERO PUSH2 0x3162 JUMPI PUSH1 0x0 DUP1 REVERT JUMPDEST DUP3 CALLDATALOAD PUSH1 0x1 PUSH1 0x1 PUSH1 0x40 SHL SUB DUP2 GT ISZERO PUSH2 0x3178 JUMPI PUSH1 0x0 DUP1 REVERT JUMPDEST PUSH2 0x3184 DUP6 DUP3 DUP7 ADD PUSH2 0x2E26 JUMP JUMPDEST SWAP3 POP POP PUSH1 0x20 DUP4 ADD CALLDATALOAD PUSH2 0x3195 DUP2 PUSH2 0x2CD6 JUMP JUMPDEST DUP1 SWAP2 POP POP SWAP3 POP SWAP3 SWAP1 POP JUMP JUMPDEST PUSH1 0x0 DUP1 PUSH1 0x0 PUSH1 0x60 DUP5 DUP7 SUB SLT ISZERO PUSH2 0x31B5 JUMPI PUSH1 0x0 DUP1 REVERT JUMPDEST DUP4 CALLDATALOAD SWAP3 POP PUSH1 0x20 DUP5 ADD CALLDATALOAD PUSH1 0x1 PUSH1 0x1 PUSH1 0x40 SHL SUB DUP2 GT ISZERO PUSH2 0x31D2 JUMPI PUSH1 0x0 DUP1 REVERT JUMPDEST PUSH2 0x31DE DUP7 DUP3 DUP8 ADD PUSH2 0x2E26 JUMP JUMPDEST SWAP3 POP POP PUSH1 0x40 DUP5 ADD CALLDATALOAD PUSH2 0x31EF DUP2 PUSH2 0x2CD6 JUMP JUMPDEST DUP1 SWAP2 POP POP SWAP3 POP SWAP3 POP SWAP3 JUMP JUMPDEST DUP3 ISZERO ISZERO DUP2 MSTORE PUSH1 0x40 PUSH1 0x20 DUP3 ADD MSTORE PUSH1 0x0 PUSH2 0x3106 PUSH1 0x40 DUP4 ADD DUP5 PUSH2 0x2D73 JUMP JUMPDEST PUSH1 0x0 PUSH1 0x20 DUP3 DUP5 SUB SLT ISZERO PUSH2 0x3227 JUMPI PUSH1 0x0 DUP1 REVERT JUMPDEST PUSH2 0x2DB2 DUP3 PUSH2 0x2CB9 JUMP JUMPDEST PUSH1 0x0 DUP1 PUSH1 0x0 PUSH1 0x60 DUP5 DUP7 SUB SLT ISZERO PUSH2 0x3245 JUMPI PUSH1 0x0 DUP1 REVERT JUMPDEST DUP4 CALLDATALOAD SWAP3 POP PUSH1 0x20 DUP5 ADD CALLDATALOAD PUSH2 0x3257 DUP2 PUSH2 0x2CD6 JUMP JUMPDEST SWAP2 POP PUSH1 0x40 DUP5 ADD CALLDATALOAD PUSH1 0x1 PUSH1 0x1 PUSH1 0x40 SHL SUB DUP2 GT ISZERO PUSH2 0x3272 JUMPI PUSH1 0x0 DUP1 REVERT JUMPDEST PUSH2 0x327E DUP7 DUP3 DUP8 ADD PUSH2 0x2E26 JUMP JUMPDEST SWAP2 POP POP SWAP3 POP SWAP3 POP SWAP3 JUMP JUMPDEST PUSH1 0x0 DUP1 PUSH1 0x40 DUP4 DUP6 SUB SLT ISZERO PUSH2 0x329B JUMPI PUSH1 0x0 DUP1 REVERT JUMPDEST PUSH2 0x32A4 DUP4 PUSH2 0x2EDF JUMP JUMPDEST SWAP5 PUSH1 0x20 SWAP4 SWAP1 SWAP4 ADD CALLDATALOAD SWAP4 POP POP POP JUMP JUMPDEST PUSH1 0x20 DUP1 DUP3 MSTORE DUP2 DUP2 ADD MSTORE PUSH32 0x4F776E61626C653A2063616C6C6572206973206E6F7420746865206F776E6572 PUSH1 0x40 DUP3 ADD MSTORE PUSH1 0x60 ADD SWAP1 JUMP JUMPDEST PUSH1 0x1 DUP2 DUP2 SHR SWAP1 DUP3 AND DUP1 PUSH2 0x32FB JUMPI PUSH1 0x7F DUP3 AND SWAP2 POP JUMPDEST PUSH1 0x20 DUP3 LT DUP2 EQ ISZERO PUSH2 0x331C JUMPI PUSH4 0x4E487B71 PUSH1 0xE0 SHL PUSH1 0x0 MSTORE PUSH1 0x22 PUSH1 0x4 MSTORE PUSH1 0x24 PUSH1 0x0 REVERT JUMPDEST POP SWAP2 SWAP1 POP JUMP JUMPDEST PUSH4 0x4E487B71 PUSH1 0xE0 SHL PUSH1 0x0 MSTORE PUSH1 0x32 PUSH1 0x4 MSTORE PUSH1 0x24 PUSH1 0x0 REVERT JUMPDEST PUSH4 0x4E487B71 PUSH1 0xE0 SHL PUSH1 0x0 MSTORE PUSH1 0x11 PUSH1 0x4 MSTORE PUSH1 0x24 PUSH1 0x0 REVERT JUMPDEST PUSH1 0x0 PUSH1 0x0 NOT DUP3 EQ ISZERO PUSH2 0x3362 JUMPI PUSH2 0x3362 PUSH2 0x3338 JUMP JUMPDEST POP PUSH1 0x1 ADD SWAP1 JUMP JUMPDEST PUSH1 0x0 DUP3 NOT DUP3 GT ISZERO PUSH2 0x337C JUMPI PUSH2 0x337C PUSH2 0x3338 JUMP JUMPDEST POP ADD SWAP1 JUMP JUMPDEST PUSH1 0x0 DUP3 MLOAD PUSH2 0x3393 DUP2 DUP5 PUSH1 0x20 DUP8 ADD PUSH2 0x2D43 JUMP JUMPDEST SWAP2 SWAP1 SWAP2 ADD SWAP3 SWAP2 POP POP JUMP JUMPDEST DUP1 MLOAD PUSH10 0xFFFFFFFFFFFFFFFFFFFF DUP2 AND DUP2 EQ PUSH2 0x2CD1 JUMPI PUSH1 0x0 DUP1 REVERT JUMPDEST PUSH1 0x0 DUP1 PUSH1 0x0 DUP1 PUSH1 0x0 PUSH1 0xA0 DUP7 DUP9 SUB SLT ISZERO PUSH2 0x33CF JUMPI PUSH1 0x0 DUP1 REVERT JUMPDEST PUSH2 0x33D8 DUP7 PUSH2 0x339D JUMP JUMPDEST SWAP5 POP PUSH1 0x20 DUP7 ADD MLOAD SWAP4 POP PUSH1 0x40 DUP7 ADD MLOAD SWAP3 POP PUSH1 0x60 DUP7 ADD MLOAD SWAP2 POP PUSH2 0x33FB PUSH1 0x80 DUP8 ADD PUSH2 0x339D JUMP JUMPDEST SWAP1 POP SWAP3 SWAP6 POP SWAP3 SWAP6 SWAP1 SWAP4 POP JUMP JUMPDEST PUSH1 0x0 DUP1 DUP4 SLOAD DUP2 PUSH1 0x1 DUP3 DUP2 SHR SWAP2 POP DUP1 DUP4 AND DUP1 PUSH2 0x3423 JUMPI PUSH1 0x7F DUP4 AND SWAP3 POP JUMPDEST PUSH1 0x20 DUP1 DUP5 LT DUP3 EQ ISZERO PUSH2 0x3443 JUMPI PUSH4 0x4E487B71 PUSH1 0xE0 SHL DUP7 MSTORE PUSH1 0x22 PUSH1 0x4 MSTORE PUSH1 0x24 DUP7 REVERT JUMPDEST DUP2 DUP1 ISZERO PUSH2 0x3457 JUMPI PUSH1 0x1 DUP2 EQ PUSH2 0x3468 JUMPI PUSH2 0x3495 JUMP JUMPDEST PUSH1 0xFF NOT DUP7 AND DUP10 MSTORE DUP5 DUP10 ADD SWAP7 POP PUSH2 0x3495 JUMP JUMPDEST PUSH1 0x0 DUP11 DUP2 MSTORE PUSH1 0x20 SWAP1 KECCAK256 PUSH1 0x0 JUMPDEST DUP7 DUP2 LT ISZERO PUSH2 0x348D JUMPI DUP2 SLOAD DUP12 DUP3 ADD MSTORE SWAP1 DUP6 ADD SWAP1 DUP4 ADD PUSH2 0x3474 JUMP JUMPDEST POP POP DUP5 DUP10 ADD SWAP7 POP JUMPDEST POP SWAP5 SWAP9 SWAP8 POP POP POP POP POP POP POP POP JUMP JUMPDEST PUSH1 0x0 PUSH1 0x1 PUSH1 0x1 PUSH1 0x80 SHL SUB DUP1 DUP4 AND DUP2 DUP6 AND DUP1 DUP4 SUB DUP3 GT ISZERO PUSH2 0x34C5 JUMPI PUSH2 0x34C5 PUSH2 0x3338 JUMP JUMPDEST ADD SWAP5 SWAP4 POP POP POP POP JUMP JUMPDEST PUSH1 0x0 PUSH1 0x20 DUP3 DUP5 SUB SLT ISZERO PUSH2 0x34E0 JUMPI PUSH1 0x0 DUP1 REVERT JUMPDEST POP MLOAD SWAP2 SWAP1 POP JUMP JUMPDEST PUSH1 0x0 DUP3 DUP3 LT ISZERO PUSH2 0x34F9 JUMPI PUSH2 0x34F9 PUSH2 0x3338 JUMP JUMPDEST POP SUB SWAP1 JUMP JUMPDEST PUSH1 0x0 PUSH1 0x20 DUP3 DUP5 SUB SLT ISZERO PUSH2 0x3510 JUMPI PUSH1 0x0 DUP1 REVERT JUMPDEST DUP2 MLOAD DUP1 ISZERO ISZERO DUP2 EQ PUSH2 0x2DB2 JUMPI PUSH1 0x0 DUP1 REVERT JUMPDEST PUSH1 0x0 DUP2 PUSH1 0xB SIGNEXTEND DUP4 PUSH1 0xB SIGNEXTEND DUP1 PUSH2 0x3545 JUMPI PUSH4 0x4E487B71 PUSH1 0xE0 SHL PUSH1 0x0 MSTORE PUSH1 0x12 PUSH1 0x4 MSTORE PUSH1 0x24 PUSH1 0x0 REVERT JUMPDEST PUSH12 0x7FFFFFFFFFFFFFFFFFFFFFFF NOT DUP3 EQ PUSH1 0x0 NOT DUP3 EQ AND ISZERO PUSH2 0x3568 JUMPI PUSH2 0x3568 PUSH2 0x3338 JUMP JUMPDEST SWAP1 SDIV SWAP4 SWAP3 POP POP POP JUMP JUMPDEST PUSH1 0x1 PUSH1 0x1 PUSH1 0xA0 SHL SUB DUP6 DUP2 AND DUP3 MSTORE DUP5 AND PUSH1 0x20 DUP3 ADD MSTORE PUSH1 0xB DUP4 SWAP1 SIGNEXTEND PUSH1 0x40 DUP3 ADD MSTORE PUSH1 0x80 PUSH1 0x60 DUP3 ADD DUP2 SWAP1 MSTORE PUSH1 0x0 SWAP1 PUSH2 0x35A7 SWAP1 DUP4 ADD DUP5 PUSH2 0x2D73 JUMP JUMPDEST SWAP7 SWAP6 POP POP POP POP POP POP JUMP JUMPDEST PUSH1 0x1 PUSH1 0x1 PUSH1 0xA0 SHL SUB DUP4 AND DUP2 MSTORE PUSH1 0x60 PUSH1 0x20 DUP3 ADD DUP2 SWAP1 MSTORE PUSH1 0x0 SWAP1 PUSH2 0x35D5 SWAP1 DUP4 ADD DUP5 PUSH2 0x2D73 JUMP JUMPDEST DUP3 DUP2 SUB PUSH1 0x40 SWAP4 DUP5 ADD MSTORE PUSH1 0x2 DUP2 MSTORE PUSH2 0x60F PUSH1 0xF3 SHL PUSH1 0x20 DUP3 ADD MSTORE SWAP2 SWAP1 SWAP2 ADD SWAP4 SWAP3 POP POP POP JUMP JUMPDEST PUSH1 0x0 PUSH1 0x20 DUP3 DUP5 SUB SLT ISZERO PUSH2 0x360A JUMPI PUSH1 0x0 DUP1 REVERT JUMPDEST DUP2 MLOAD PUSH1 0x1 PUSH1 0x1 PUSH1 0x40 SHL SUB DUP2 GT ISZERO PUSH2 0x3620 JUMPI PUSH1 0x0 DUP1 REVERT JUMPDEST DUP3 ADD PUSH1 0x1F DUP2 ADD DUP5 SGT PUSH2 0x3631 JUMPI PUSH1 0x0 DUP1 REVERT JUMPDEST DUP1 MLOAD PUSH2 0x363F PUSH2 0x2E45 DUP3 PUSH2 0x2DFF JUMP JUMPDEST DUP2 DUP2 MSTORE DUP6 PUSH1 0x20 DUP4 DUP6 ADD ADD GT ISZERO PUSH2 0x3654 JUMPI PUSH1 0x0 DUP1 REVERT JUMPDEST PUSH2 0x3665 DUP3 PUSH1 0x20 DUP4 ADD PUSH1 0x20 DUP7 ADD PUSH2 0x2D43 JUMP JUMPDEST SWAP6 SWAP5 POP POP POP POP POP JUMP INVALID LOG2 PUSH5 0x6970667358 0x22 SLT KECCAK256 PUSH16 0xFAEB0F1A557A2B312013F0104628574 SWAP11 0x4A SMOD 0xCF 0xAB SWAP1 DUP5 0xC9 SWAP13 DUP13 DUP9 0x2A PUSH31 0x759E64736F6C634300080B0033000000000000000000000000000000000000 ",
  "sha1": "d09ee106afbb0825f50d6d4f47bcabfc91f4af1c",
  "source": "//SPDX-License-Identifier: MIT\npragma solidity ^0.8.0;\npragma abicoder v2;\n\nimport \"../interfaces/TransferHelper.sol\";\nimport \"@chainlink/contracts/src/v0.8/interfaces/AggregatorV3Interface.sol\";\nimport \"@chainlink/contracts/src/v0.8/interfaces/KeeperCompatibleInterface.sol\";\n//import \"@openzeppelin/contracts/token/ERC20/IERC20.sol\";\nimport \"@openzeppelin/contracts/access/Ownable.sol\";\n\nimport {ERC721} from \"@openzeppelin/contracts/token/ERC721/ERC721.sol\";\nimport \"@openzeppelin/contracts/access/Ownable.sol\";\n\nimport \"../interfaces/DataTypes.sol\";\nimport \"../interfaces/ILendingPoolAddressesProvider.sol\";\nimport \"../interfaces/ILendingPool.sol\";\nimport {\n    ISuperfluid,\n    ISuperToken,\n    ISuperApp,\n    ISuperAgreement,\n    SuperAppDefinitions\n} from \"../supercon/interfaces/superfluid/ISuperfluid.sol\";\n\nimport {\n    IConstantFlowAgreementV1\n} from \"../supercon/interfaces/agreements/IConstantFlowAgreementV1.sol\";\n\n\nimport {ERC20} from \"@openzeppelin/contracts/token/ERC20/ERC20.sol\";\n\nimport {\n    SuperAppBase\n} from \"../supercon/apps/SuperAppBase.sol\";\nimport \"../interfaces/ISwapRouter.sol\";\nimport \"../interfaces/IRedirect.sol\";\nimport \"../interfaces/IGovernanceToken.sol\";\n\n\n//make it a super app to allow using superfluid flows and instant distribution\ncontract MoonSquares is SuperAppBase, KeeperCompatibleInterface, Ownable {\n    \n    ISuperfluid private _host; // host\n    IConstantFlowAgreementV1 private _cfa; // the stored constant flow agreement class address \n    \n    //the Super token used to pay for option premium (sent directly to the NFT and redirected to owner of the NFT)\n    ISuperToken public _acceptedToken; // accepted token, could be the aToken \n\n\n    address[] public allowedPayments;//list of all accepted stablecoins for placing a prediction\n\n    string[] public allowedAssets;//All assets that are predicted on the platform\n    \n    address[] assetPriceAggregators;\n\n    address[] public contracts;\n\n    mapping(string => address) public assetToAggregator;\n\n    mapping(string => uint256) coinRound;\n    //uint128 public coinRound;\n\n    uint128 monthCount;\n\n    uint payroundStartTime;\n\n    uint128 constant payDayDuration = 30 days;\n\n    uint totalPaid;\n\n    uint32 public constant PAYMENT_INDEX = 0;\n\n    //IUniswapV2Router02 public sushiRouter = IUniswapV2Router02(0x1b02dA8Cb0d097eB8D57A175b88c7D8b47997506);\n\n    ILendingPoolAddressesProvider public provider = ILendingPoolAddressesProvider(\n        address(0x88757f2f99175387aB4C6a4b3067c77A695b0349)\n    ); \n    ILendingPool public lendingPool = ILendingPool(provider.getLendingPool());\n\n    ISwapRouter public immutable swapRouter;\n    uint24 public constant poolFee = 3000;\n    \n\n    //address constant IBA = 0x9198F13B08E299d85E096929fA9781A1E3d5d827; //should be aave contact address or the IBA to be used\n    //address DAO; //address of the Dao contact\n    IRedirect flowDistrubuter;\n    IGovernanceToken governanceToken;\n    //address constant SWAPADRESS = 0x1b02dA8Cb0d097eB8D57A175b88c7D8b47997506;\n    address Dai = 0xFf795577d9AC8bD7D90Ee22b6C1703490b6512FD;\n    address _aaveToken;\n\n    \n    mapping (uint256 => mapping(string => int256)) public roundCoinStartPrice;\n\n    mapping(uint256 => mapping(IERC20 => uint256)) roundAssetTotalAmount;\n    \n    mapping (uint256 => uint256) roundInterestEarned;\n\n    mapping (uint256 => mapping(string => uint256)) public roundCoinWinnings;//90% player winning per asset\n\n    //The target price (moon price) every round per asset\n    mapping (uint256 => mapping(string => int256)) public roundCoinMoonPrice;\n\n    //when the rallyprice get's set\n    mapping (uint256 => mapping(string => uint256)) public roundCoinStartTime;\n\n    //Total staked on the contract\n    mapping (uint256 => mapping(string => uint256)) public roundCoinTotalStaked;\n\n    //time when the price is first hit \n    mapping (uint256 => mapping(string => uint256)) public roundCoinWinningTime;\n\n    uint public totalStaked;\n\n    \n    //sample bet\n    //structure of the bet\n    struct Bet {\n        uint256 squareStartTime;\n        uint256 squareEndTime;\n    }\n    \n    struct Charity {\n        bytes8 name;\n        bytes32 link; //sends people to the charity's official site\n    }\n\n    mapping (address => Charity) public presentCharities;\n\n    bytes8[] charities;\n    address[] charityAddress;\n    \n    mapping(uint128 => mapping(bytes8 => uint128)) public roundCharityVotes;\n    \n    mapping(uint128 => address) roundVoteResults;\n    \n    mapping (uint128 => address[]) public winers;\n\n    mapping (uint256 => mapping (string => address[])) private roundCoinPlayerArray;\n\n    mapping (uint256 => mapping (string => uint256[])) private roundCoinStartTimeArray;\n\n    mapping (uint256 => mapping (string => uint256[])) private  roundCoinEndTimeArray;\n    \n    mapping(uint256 => mapping(string => uint256[])) private roundCoinWinningIndex;\n\n    mapping (uint256 => mapping( string => mapping (address => Bet))) public roundCoinAddressBetsPlaced;\n\n    mapping(uint256 => mapping(string => bool)) public roundCoinWinningIsWinner;\n\n    mapping (address => uint256) totalAmountPlayed;//shows how much every player has placed\n\n    event Predicted(address indexed _placer, uint256 _start, uint _end);\n    \n\n    constructor(\n        \n        //set superfluid specific params, receiver, and accepted token in the constructor\n        \n        ISuperfluid host,//0xF0d7d1D47109bA426B9D8A3Cde1941327af1eea3\n        IConstantFlowAgreementV1 cfa,//0xECa8056809e7e8db04A8fF6e4E82cD889a46FE2F\n        ISuperToken acceptedToken,//0xe3cb950cb164a31c66e32c320a800d477019dcff\n        ISwapRouter _swapRouter//0xE592427A0AEce92De3Edee1F18E0157C05861564\n        ) {\n        require(address(host) != address(0));\n        require(address(cfa) != address(0));\n        require(address(acceptedToken) != address(0));\n        //require(address(receiver) != address(0));\n        //require(!host.isApp(ISuperApp(receiver)));\n        _host = host;\n        _cfa = cfa;\n        _acceptedToken = acceptedToken;\n        swapRouter = _swapRouter;\n        payroundStartTime = block.timestamp;\n\n\n        uint256 configWord =\n            SuperAppDefinitions.APP_LEVEL_FINAL |\n            SuperAppDefinitions.BEFORE_AGREEMENT_CREATED_NOOP |\n            SuperAppDefinitions.BEFORE_AGREEMENT_UPDATED_NOOP |\n            SuperAppDefinitions.BEFORE_AGREEMENT_TERMINATED_NOOP;\n\n        _host.registerApp(configWord);\n\n    }\n\n    function addpaymentToken(address _add) external onlyOwner {\n        allowedPayments.push(_add);\n    }\n\n    function addAssetsAndAggregators(string memory _asset, address _aggregator) public onlyOwner {\n        require(allowedAssets.length < 100);\n        assetToAggregator[_asset] = _aggregator;\n        allowedAssets.push(_asset);\n        assetPriceAggregators.push(_aggregator);\n    }\n\n    function addCharity(bytes8 _charityName, address _charityAddress, bytes32 _link) external onlyOwner {\n        presentCharities[_charityAddress].name = _charityName;\n        presentCharities[_charityAddress].link = _link;\n        charities.push(_charityName);\n        charityAddress.push(_charityAddress);\n    }\n    \n    modifier isWinner() {\n        for (uint i =0; i< winers[monthCount].length; i++) {\n            require(winers[monthCount][i] == msg.sender);\n        }\n        _;\n    }\n\n    function setMoonPrice(int price, string memory market) external onlyOwner {\n        roundCoinMoonPrice[coinRound[market]][market] = price;\n        roundCoinStartTime[coinRound[market]][market] = getTime();\n        roundCoinStartPrice[coinRound[market]][market] = getPrice(market);\n\n    }\n\n    function voteForCharity(bytes8 charity) public isWinner {\n        roundCharityVotes[monthCount][charity] += 1;\n    }\n\n    function addContract(address _conAddress) public onlyOwner{\n        contracts.push(_conAddress);\n    }\n\n    modifier isAllowedContract() {\n        for (uint i =0; i< contracts.length; i++) {\n            require(contracts[i] == msg.sender);\n        }\n        _;\n    }\n\n    //adds the Dao Token \n    function addGovernanceToken(IGovernanceToken _gtAdress) public isAllowedContract {\n        governanceToken = _gtAdress;\n    }\n    \n    //adds winners to the charity voting pool\n    function addToWinners(address _winner) external isAllowedContract {\n        winers[monthCount].push(_winner);\n    }\n\n    //adds the flow distributor\n    function addFlowDistributor(IRedirect addr) public onlyOwner {\n        flowDistrubuter = addr;\n    }\n\n    //predicts an asset\n   function predictAsset(\n        uint256 _start, \n        address coin,  /*asset to convert to dai */\n        //uint256 _end,\n        string memory market\n        /*address[] calldata swapPairs*/\n    ) public allowedToken(coin) /*returns (bytes memory , uint[] memory )*/\n    {\n        uint amount = 10000000000000000000;\n        uint duration = 1800 seconds;\n        \n        if (coin != Dai) {\n            require(IERC20(coin).allowance(msg.sender, address(this)) >= amount);\n            //IERC20(coin).transferFrom(msg.sender, address(this), uint(amount));\n\n            TransferHelper.safeTransferFrom(coin, msg.sender, address(this), amount);\n\n            // Approve the router to spend the specifed `amountInMaximum` of DAI.\n            // In production, you should choose the maximum amount to spend based on oracles or other data sources to acheive a better swap.\n            TransferHelper.safeApprove(coin, address(swapRouter), amount);\n            uint amountInMaximum = 15000000000000000000;\n            ISwapRouter.ExactOutputSingleParams memory params =\n                ISwapRouter.ExactOutputSingleParams({\n                    tokenIn: coin,\n                    tokenOut: Dai,\n                    fee: poolFee,\n                    recipient: address(this),\n                    deadline: block.timestamp,\n                    amountOut: amount,\n                    amountInMaximum: amountInMaximum,\n                    sqrtPriceLimitX96: 0\n                });\n\n            // Executes the swap returning the amountIn needed to spend to receive the desired amountOut.\n            uint amountIn = swapRouter.exactOutputSingle(params);\n\n            // For exact output swaps, the amountInMaximum may not have all been spent.\n            // If the actual amount spent (amountIn) is less than the specified maximum amount, we must refund the msg.sender and approve the swapRouter to spend 0.\n            if (amountIn < amountInMaximum) {\n                TransferHelper.safeApprove(Dai, address(swapRouter), 0);\n                TransferHelper.safeTransfer(Dai, msg.sender, amountInMaximum - amountIn);\n            }\n\n        } else {\n            require(IERC20(Dai).allowance(msg.sender, address(this)) >= amount);\n            IERC20(Dai).transferFrom(msg.sender, address(this), amount);\n        }\n        //require(IERC20(Dai).allowance(msg.sender, address(this)) >= amount);\n        //IERC20(Dai).transferFrom(msg.sender, address(this), amount);\n\n        roundCoinAddressBetsPlaced[coinRound[market]][market][msg.sender].squareStartTime = _start;\n        \n        roundCoinAddressBetsPlaced[coinRound[market]][market][msg.sender].squareEndTime  = (_start + duration);\n        //update all the relevant arrays\n        roundCoinPlayerArray[coinRound[market]][market].push(msg.sender);\n        roundCoinStartTimeArray[coinRound[market]][market].push(_start);\n        roundCoinEndTimeArray[coinRound[market]][market].push((_start + duration));\n        //update the total value played\n        roundCoinTotalStaked[coinRound[market]][market] += amount;\n        roundCoinWinnings[coinRound[market]][market] += 9000000000000000;\n        aaveDeposit(amount);\n        emit Predicted(msg.sender, _start, (_start + duration));\n    }\n\n\n\n    function aaveDeposit(uint amount) internal {\n        IERC20(Dai).approve(address(lendingPool), amount);\n        lendingPool.deposit(\n            Dai,\n            amount,\n            address(this),\n            0\n        );\n    }\n\n    //gets the price of the asset denoted by market\n    function getPrice(string memory market) public view returns(int256){\n        AggregatorV3Interface priceFeed = AggregatorV3Interface(assetToAggregator[market]); \n        (,int256 answer,,,) = priceFeed.latestRoundData();\n        return int256(answer);\n    }\n\n    //gets the current time\n    function getTime() public view returns(uint256){\n        AggregatorV3Interface priceFeed = AggregatorV3Interface(0x6135b13325bfC4B00278B4abC5e20bbce2D6580e);\n        //Matic network\n        (,,,uint256 answer,) = priceFeed.latestRoundData();\n         return uint256(answer);\n    }\n\n    //it \n    function setwinningIndex(string memory market) internal {\n        /* we iterate over the squareStartTimeArray(of squareStartTime) and the squareEndTimeArray (of squareEndTime) to assertain that the winning time \n           is either equal to them or more than the squareStartTime but less than the squareEndTime\n        */\n        require(\n            roundCoinEndTimeArray[coinRound[market]][market].length\n            ==\n            roundCoinStartTimeArray[coinRound[market]][market].length\n        );\n        for (uint256 p =0; p < roundCoinStartTimeArray[coinRound[market]][market].length; p++) {\n            require(\n                roundCoinStartTimeArray[coinRound[market]][market][p] >= roundCoinWinningTime[coinRound[market]][market]\n                &&\n                roundCoinEndTimeArray[coinRound[market]][market][p] <= roundCoinWinningTime[coinRound[market]][market]    \n            );\n            roundCoinWinningIndex[coinRound[market]][market].push(p);\n            //round coin start time array of p to be greater or equal to the round coin winning time\n        }\n        //since squares will be owned by more than one person, we set the index to allow us to delagate the claiming reward function to the user.\n    }\n\n    function isAwiner(uint256 _round, string memory market, address checkeAddress) public view returns(bool) {\n        require(\n            roundCoinAddressBetsPlaced[_round][market][checkeAddress].squareStartTime\n            <=\n            roundCoinWinningTime[_round][market]\n        );\n        require(\n            roundCoinAddressBetsPlaced[_round][market][checkeAddress].squareEndTime\n            >=\n            roundCoinWinningTime[_round][market]\n        );\n        return true;\n\n    }\n    //should use superflid's flow if its just one user & instant distribution if there are several winners\n\n     function givePrize( string memory market) private {\n        require(roundCoinWinningIndex[coinRound[market]][market].length != 0);\n        if (roundCoinWinningIndex[coinRound[market]][market].length == 1) {\n    \n            IERC20(Dai).transfer(roundCoinPlayerArray[coinRound[market]][market][roundCoinWinningIndex[coinRound[market]][market][0]], roundCoinWinnings[coinRound[market]][market]);\n\n        } else {\n            for (uint8 i = 0; i < roundCoinWinningIndex[coinRound[market]][market].length; i++) {\n                require(roundCoinPlayerArray[coinRound[market]][market][roundCoinWinningIndex[coinRound[market]][market][i]] == msg.sender);\n                IERC20(Dai).transfer(\n                    roundCoinPlayerArray[coinRound[market]][market][roundCoinWinningIndex[coinRound[market]][market][i]], \n                    roundCoinWinnings[coinRound[market]][market]/roundCoinWinningIndex[coinRound[market]][market].length\n                );\n            }\n        }\n        totalPaid += roundCoinWinnings[coinRound[market]][market];\n\n    }\n\n    function setTime(string memory market) private {\n        roundCoinWinningTime[coinRound[market]][market] = getTime();\n        setwinningIndex(market);\n        withdrawRoundFundsFromIba(market);\n    }\n\n    function checkUpkeep(\n        bytes calldata checkData\n    ) external view override returns (\n        bool upkeepNeeded, bytes memory performData\n    ) {\n        for (uint256 p = 0; p < allowedAssets.length; p++) {\n        \n            if (getPrice(allowedAssets[p]) == roundCoinMoonPrice[coinRound[allowedAssets[p]]][allowedAssets[p]]) {\n                upkeepNeeded = true;\n                return (true, /* address(this).call( */ abi.encodePacked(uint256(p)));\n            }\n        }\n        if (block.timestamp >= payroundStartTime + 30 days) {\n            upkeepNeeded = true;\n            return (true, abi.encodePacked(uint256(1000)));\n        }\n        performData = checkData;\n        \n    }\n\n    function performUpkeep(bytes calldata performData) external override {\n        uint256 decodedValue = abi.decode(performData, (uint256));\n        if(decodedValue <= allowedAssets.length){\n            setTime(allowedAssets[decodedValue]);\n        }\n        if (decodedValue ==1000) {\n            payroundStartTime +=30 days;\n            withdrawInterest(_aaveToken);\n            flowToPaymentDistributer();\n            distributeToMembers();\n        }\n    }\n\n    modifier allowedToken(address _token) {\n        for(uint i =0; i < allowedPayments.length; i++) {\n            require(allowedPayments[i] == _token);\n        }\n        _;\n    }\n\n    function setwinningCharity() internal{\n        uint128 winning_votes = 0;\n        for (uint i =0; i < charities.length; i++) {\n            if (roundCharityVotes[monthCount][charities[i]] > winning_votes){\n                winning_votes == roundCharityVotes[monthCount][charities[i]];\n                roundVoteResults[monthCount] = charityAddress[i];\n            }\n        }\n        flowDistrubuter.changeReceiverAdress(roundVoteResults[monthCount]);\n        //return charities[i];\n    }\n\n    //withdraws the total Amount after the moonpice gets hit\n    function withdrawRoundFundsFromIba(string memory market) private {\n        require(roundCoinWinningIndex[coinRound[market]][market].length != 0);\n        lendingPool.withdraw(\n            Dai,\n            roundCoinWinnings[coinRound[market]][market],\n            address(this)\n        );\n        \n        //Withdraws Funds from the predictions\n    }\n\n    function distributeToMembers() private {\n        require(monthCount != 0);\n        uint256 cashAmount = _acceptedToken.balanceOf(address(governanceToken));\n        governanceToken.distribute(\n            cashAmount\n        );\n    }\n\n    function withdrawInterest(address aaveToken) private returns(uint) {\n        uint aaveBalance = IERC20(aaveToken).balanceOf(address(this));\n        uint interest = aaveBalance - (totalStaked - totalPaid);\n        lendingPool.withdraw(\n            Dai,\n            interest,\n            address(this)\n        );\n        IERC20(Dai).approve(address(_acceptedToken), interest);\n        ISuperToken(_acceptedToken).upgrade(interest);\n        return(interest);\n        //remember to upgrade the dai for flow\n\n    }\n    //distributes the Interest Earned on the round to members of the Dao\n    function flowToPaymentDistributer() private {\n        //Flows interest earned from the protocal to the redirectAll contract that handles distribution\n            //Flow Winnings\n        int256 toInt = int256(roundInterestEarned[monthCount]);\n        _host.callAgreement(\n            _cfa,\n            abi.encodeWithSelector(\n                _cfa.createFlow.selector,\n                _acceptedToken,\n                address(flowDistrubuter),//address to the distributer that sends funds to charity and Dao\n                (int96(toInt) / 30 days), //should be the total amount of Interest withdrawnfrom the IBA divided by the number of seconds in the withdrawal interval\n                new bytes(0) // placeholder\n            ),\n            \"0x\"\n        );\n        monthCount += 1;\n    }\n}",
  "sourcePath": "contracts/MoonSquares.sol",
  "type": "contract"
}