{
  "abi": [
    {
      "inputs": [
        {
          "internalType": "contract ISuperfluid",
          "name": "host",
          "type": "address"
        },
        {
          "internalType": "contract IConstantFlowAgreementV1",
          "name": "cfa",
          "type": "address"
        },
        {
          "internalType": "contract ISuperToken",
          "name": "acceptedToken",
          "type": "address"
        }
      ],
      "stateMutability": "nonpayable",
      "type": "constructor"
    },
    {
      "anonymous": false,
      "inputs": [
        {
          "indexed": true,
          "internalType": "address",
          "name": "previousOwner",
          "type": "address"
        },
        {
          "indexed": true,
          "internalType": "address",
          "name": "newOwner",
          "type": "address"
        }
      ],
      "name": "OwnershipTransferred",
      "type": "event"
    },
    {
      "anonymous": false,
      "inputs": [
        {
          "indexed": true,
          "internalType": "address",
          "name": "_placer",
          "type": "address"
        },
        {
          "indexed": false,
          "internalType": "uint256",
          "name": "_start",
          "type": "uint256"
        },
        {
          "indexed": false,
          "internalType": "uint256",
          "name": "_end",
          "type": "uint256"
        }
      ],
      "name": "Predicted",
      "type": "event"
    },
    {
      "inputs": [],
      "name": "_acceptedToken",
      "outputs": [
        {
          "internalType": "contract ISuperToken",
          "name": "",
          "type": "address"
        }
      ],
      "stateMutability": "view",
      "type": "function"
    },
    {
      "inputs": [
        {
          "internalType": "string",
          "name": "_asset",
          "type": "string"
        },
        {
          "internalType": "address",
          "name": "_aggregator",
          "type": "address"
        }
      ],
      "name": "addAssetsAndAggregators",
      "outputs": [],
      "stateMutability": "nonpayable",
      "type": "function"
    },
    {
      "inputs": [
        {
          "internalType": "bytes8",
          "name": "_charityName",
          "type": "bytes8"
        },
        {
          "internalType": "address",
          "name": "_charityAddress",
          "type": "address"
        },
        {
          "internalType": "bytes32",
          "name": "_link",
          "type": "bytes32"
        }
      ],
      "name": "addCharity",
      "outputs": [],
      "stateMutability": "nonpayable",
      "type": "function"
    },
    {
      "inputs": [
        {
          "internalType": "address",
          "name": "_conAddress",
          "type": "address"
        }
      ],
      "name": "addContract",
      "outputs": [],
      "stateMutability": "nonpayable",
      "type": "function"
    },
    {
      "inputs": [
        {
          "internalType": "contract IRedirect",
          "name": "addr",
          "type": "address"
        }
      ],
      "name": "addFlowDistributor",
      "outputs": [],
      "stateMutability": "nonpayable",
      "type": "function"
    },
    {
      "inputs": [
        {
          "internalType": "contract IGovernanceToken",
          "name": "_gtAdress",
          "type": "address"
        }
      ],
      "name": "addGovernanceToken",
      "outputs": [],
      "stateMutability": "nonpayable",
      "type": "function"
    },
    {
      "inputs": [
        {
          "internalType": "address",
          "name": "_winner",
          "type": "address"
        }
      ],
      "name": "addToWinners",
      "outputs": [],
      "stateMutability": "nonpayable",
      "type": "function"
    },
    {
      "inputs": [
        {
          "internalType": "contract ISuperToken",
          "name": "",
          "type": "address"
        },
        {
          "internalType": "address",
          "name": "",
          "type": "address"
        },
        {
          "internalType": "bytes32",
          "name": "",
          "type": "bytes32"
        },
        {
          "internalType": "bytes",
          "name": "",
          "type": "bytes"
        },
        {
          "internalType": "bytes",
          "name": "",
          "type": "bytes"
        },
        {
          "internalType": "bytes",
          "name": "",
          "type": "bytes"
        }
      ],
      "name": "afterAgreementCreated",
      "outputs": [
        {
          "internalType": "bytes",
          "name": "",
          "type": "bytes"
        }
      ],
      "stateMutability": "nonpayable",
      "type": "function"
    },
    {
      "inputs": [
        {
          "internalType": "contract ISuperToken",
          "name": "",
          "type": "address"
        },
        {
          "internalType": "address",
          "name": "",
          "type": "address"
        },
        {
          "internalType": "bytes32",
          "name": "",
          "type": "bytes32"
        },
        {
          "internalType": "bytes",
          "name": "",
          "type": "bytes"
        },
        {
          "internalType": "bytes",
          "name": "",
          "type": "bytes"
        },
        {
          "internalType": "bytes",
          "name": "",
          "type": "bytes"
        }
      ],
      "name": "afterAgreementTerminated",
      "outputs": [
        {
          "internalType": "bytes",
          "name": "",
          "type": "bytes"
        }
      ],
      "stateMutability": "nonpayable",
      "type": "function"
    },
    {
      "inputs": [
        {
          "internalType": "contract ISuperToken",
          "name": "",
          "type": "address"
        },
        {
          "internalType": "address",
          "name": "",
          "type": "address"
        },
        {
          "internalType": "bytes32",
          "name": "",
          "type": "bytes32"
        },
        {
          "internalType": "bytes",
          "name": "",
          "type": "bytes"
        },
        {
          "internalType": "bytes",
          "name": "",
          "type": "bytes"
        },
        {
          "internalType": "bytes",
          "name": "",
          "type": "bytes"
        }
      ],
      "name": "afterAgreementUpdated",
      "outputs": [
        {
          "internalType": "bytes",
          "name": "",
          "type": "bytes"
        }
      ],
      "stateMutability": "nonpayable",
      "type": "function"
    },
    {
      "inputs": [
        {
          "internalType": "uint256",
          "name": "",
          "type": "uint256"
        }
      ],
      "name": "allowedAssets",
      "outputs": [
        {
          "internalType": "string",
          "name": "",
          "type": "string"
        }
      ],
      "stateMutability": "view",
      "type": "function"
    },
    {
      "inputs": [
        {
          "internalType": "uint256",
          "name": "",
          "type": "uint256"
        }
      ],
      "name": "allowedPayments",
      "outputs": [
        {
          "internalType": "address",
          "name": "",
          "type": "address"
        }
      ],
      "stateMutability": "view",
      "type": "function"
    },
    {
      "inputs": [
        {
          "internalType": "string",
          "name": "",
          "type": "string"
        }
      ],
      "name": "assetToAggregator",
      "outputs": [
        {
          "internalType": "address",
          "name": "",
          "type": "address"
        }
      ],
      "stateMutability": "view",
      "type": "function"
    },
    {
      "inputs": [
        {
          "internalType": "contract ISuperToken",
          "name": "",
          "type": "address"
        },
        {
          "internalType": "address",
          "name": "",
          "type": "address"
        },
        {
          "internalType": "bytes32",
          "name": "",
          "type": "bytes32"
        },
        {
          "internalType": "bytes",
          "name": "",
          "type": "bytes"
        },
        {
          "internalType": "bytes",
          "name": "",
          "type": "bytes"
        }
      ],
      "name": "beforeAgreementCreated",
      "outputs": [
        {
          "internalType": "bytes",
          "name": "",
          "type": "bytes"
        }
      ],
      "stateMutability": "view",
      "type": "function"
    },
    {
      "inputs": [
        {
          "internalType": "contract ISuperToken",
          "name": "",
          "type": "address"
        },
        {
          "internalType": "address",
          "name": "",
          "type": "address"
        },
        {
          "internalType": "bytes32",
          "name": "",
          "type": "bytes32"
        },
        {
          "internalType": "bytes",
          "name": "",
          "type": "bytes"
        },
        {
          "internalType": "bytes",
          "name": "",
          "type": "bytes"
        }
      ],
      "name": "beforeAgreementTerminated",
      "outputs": [
        {
          "internalType": "bytes",
          "name": "",
          "type": "bytes"
        }
      ],
      "stateMutability": "view",
      "type": "function"
    },
    {
      "inputs": [
        {
          "internalType": "contract ISuperToken",
          "name": "",
          "type": "address"
        },
        {
          "internalType": "address",
          "name": "",
          "type": "address"
        },
        {
          "internalType": "bytes32",
          "name": "",
          "type": "bytes32"
        },
        {
          "internalType": "bytes",
          "name": "",
          "type": "bytes"
        },
        {
          "internalType": "bytes",
          "name": "",
          "type": "bytes"
        }
      ],
      "name": "beforeAgreementUpdated",
      "outputs": [
        {
          "internalType": "bytes",
          "name": "",
          "type": "bytes"
        }
      ],
      "stateMutability": "view",
      "type": "function"
    },
    {
      "inputs": [
        {
          "internalType": "bytes",
          "name": "checkData",
          "type": "bytes"
        }
      ],
      "name": "checkUpkeep",
      "outputs": [
        {
          "internalType": "bool",
          "name": "upkeepNeeded",
          "type": "bool"
        },
        {
          "internalType": "bytes",
          "name": "performData",
          "type": "bytes"
        }
      ],
      "stateMutability": "view",
      "type": "function"
    },
    {
      "inputs": [
        {
          "internalType": "string",
          "name": "",
          "type": "string"
        }
      ],
      "name": "coinRound",
      "outputs": [
        {
          "internalType": "uint256",
          "name": "",
          "type": "uint256"
        }
      ],
      "stateMutability": "view",
      "type": "function"
    },
    {
      "inputs": [
        {
          "internalType": "uint256",
          "name": "",
          "type": "uint256"
        }
      ],
      "name": "contracts",
      "outputs": [
        {
          "internalType": "address",
          "name": "",
          "type": "address"
        }
      ],
      "stateMutability": "view",
      "type": "function"
    },
    {
      "inputs": [
        {
          "internalType": "string",
          "name": "market",
          "type": "string"
        }
      ],
      "name": "getPrice",
      "outputs": [
        {
          "internalType": "int256",
          "name": "",
          "type": "int256"
        }
      ],
      "stateMutability": "view",
      "type": "function"
    },
    {
      "inputs": [],
      "name": "getTime",
      "outputs": [
        {
          "internalType": "uint256",
          "name": "",
          "type": "uint256"
        }
      ],
      "stateMutability": "view",
      "type": "function"
    },
    {
      "inputs": [
        {
          "internalType": "uint256",
          "name": "_round",
          "type": "uint256"
        },
        {
          "internalType": "string",
          "name": "market",
          "type": "string"
        },
        {
          "internalType": "address",
          "name": "checkeAddress",
          "type": "address"
        }
      ],
      "name": "isAwiner",
      "outputs": [
        {
          "internalType": "bool",
          "name": "",
          "type": "bool"
        }
      ],
      "stateMutability": "view",
      "type": "function"
    },
    {
      "inputs": [],
      "name": "lendingPool",
      "outputs": [
        {
          "internalType": "contract ILendingPool",
          "name": "",
          "type": "address"
        }
      ],
      "stateMutability": "view",
      "type": "function"
    },
    {
      "inputs": [],
      "name": "monthCount",
      "outputs": [
        {
          "internalType": "uint128",
          "name": "",
          "type": "uint128"
        }
      ],
      "stateMutability": "view",
      "type": "function"
    },
    {
      "inputs": [],
      "name": "owner",
      "outputs": [
        {
          "internalType": "address",
          "name": "",
          "type": "address"
        }
      ],
      "stateMutability": "view",
      "type": "function"
    },
    {
      "inputs": [],
      "name": "payroundStartTime",
      "outputs": [
        {
          "internalType": "uint256",
          "name": "",
          "type": "uint256"
        }
      ],
      "stateMutability": "view",
      "type": "function"
    },
    {
      "inputs": [
        {
          "internalType": "bytes",
          "name": "performData",
          "type": "bytes"
        }
      ],
      "name": "performUpkeep",
      "outputs": [],
      "stateMutability": "nonpayable",
      "type": "function"
    },
    {
      "inputs": [
        {
          "internalType": "uint256",
          "name": "_start",
          "type": "uint256"
        },
        {
          "internalType": "string",
          "name": "market",
          "type": "string"
        }
      ],
      "name": "predictAsset",
      "outputs": [],
      "stateMutability": "nonpayable",
      "type": "function"
    },
    {
      "inputs": [
        {
          "internalType": "address",
          "name": "",
          "type": "address"
        }
      ],
      "name": "presentCharities",
      "outputs": [
        {
          "internalType": "bytes8",
          "name": "name",
          "type": "bytes8"
        },
        {
          "internalType": "bytes32",
          "name": "link",
          "type": "bytes32"
        }
      ],
      "stateMutability": "view",
      "type": "function"
    },
    {
      "inputs": [],
      "name": "provider",
      "outputs": [
        {
          "internalType": "contract ILendingPoolAddressesProvider",
          "name": "",
          "type": "address"
        }
      ],
      "stateMutability": "view",
      "type": "function"
    },
    {
      "inputs": [],
      "name": "renounceOwnership",
      "outputs": [],
      "stateMutability": "nonpayable",
      "type": "function"
    },
    {
      "inputs": [
        {
          "internalType": "uint128",
          "name": "",
          "type": "uint128"
        },
        {
          "internalType": "bytes8",
          "name": "",
          "type": "bytes8"
        }
      ],
      "name": "roundCharityVotes",
      "outputs": [
        {
          "internalType": "uint128",
          "name": "",
          "type": "uint128"
        }
      ],
      "stateMutability": "view",
      "type": "function"
    },
    {
      "inputs": [
        {
          "internalType": "uint256",
          "name": "",
          "type": "uint256"
        },
        {
          "internalType": "string",
          "name": "",
          "type": "string"
        },
        {
          "internalType": "address",
          "name": "",
          "type": "address"
        }
      ],
      "name": "roundCoinAddressBetsPlaced",
      "outputs": [
        {
          "internalType": "uint256",
          "name": "squareStartTime",
          "type": "uint256"
        },
        {
          "internalType": "uint256",
          "name": "squareEndTime",
          "type": "uint256"
        }
      ],
      "stateMutability": "view",
      "type": "function"
    },
    {
      "inputs": [
        {
          "internalType": "uint256",
          "name": "",
          "type": "uint256"
        },
        {
          "internalType": "string",
          "name": "",
          "type": "string"
        }
      ],
      "name": "roundCoinInfo",
      "outputs": [
        {
          "internalType": "int256",
          "name": "moonPrice",
          "type": "int256"
        },
        {
          "internalType": "uint256",
          "name": "winnings",
          "type": "uint256"
        },
        {
          "internalType": "int256",
          "name": "startPrice",
          "type": "int256"
        },
        {
          "internalType": "uint256",
          "name": "totalStaked",
          "type": "uint256"
        },
        {
          "internalType": "uint256",
          "name": "startTime",
          "type": "uint256"
        },
        {
          "internalType": "uint256",
          "name": "winningTime",
          "type": "uint256"
        }
      ],
      "stateMutability": "view",
      "type": "function"
    },
    {
      "inputs": [
        {
          "internalType": "uint256",
          "name": "",
          "type": "uint256"
        },
        {
          "internalType": "string",
          "name": "",
          "type": "string"
        },
        {
          "internalType": "uint256",
          "name": "",
          "type": "uint256"
        }
      ],
      "name": "roundCoinPlayerArray",
      "outputs": [
        {
          "internalType": "address",
          "name": "",
          "type": "address"
        }
      ],
      "stateMutability": "view",
      "type": "function"
    },
    {
      "inputs": [
        {
          "internalType": "uint256",
          "name": "",
          "type": "uint256"
        },
        {
          "internalType": "string",
          "name": "",
          "type": "string"
        }
      ],
      "name": "roundCoinWinningIsWinner",
      "outputs": [
        {
          "internalType": "bool",
          "name": "",
          "type": "bool"
        }
      ],
      "stateMutability": "view",
      "type": "function"
    },
    {
      "inputs": [
        {
          "internalType": "uint256",
          "name": "",
          "type": "uint256"
        }
      ],
      "name": "roundInterestEarned",
      "outputs": [
        {
          "internalType": "uint256",
          "name": "",
          "type": "uint256"
        }
      ],
      "stateMutability": "view",
      "type": "function"
    },
    {
      "inputs": [
        {
          "internalType": "uint128",
          "name": "",
          "type": "uint128"
        }
      ],
      "name": "roundVoteResults",
      "outputs": [
        {
          "internalType": "address",
          "name": "",
          "type": "address"
        }
      ],
      "stateMutability": "view",
      "type": "function"
    },
    {
      "inputs": [
        {
          "internalType": "int256",
          "name": "price",
          "type": "int256"
        },
        {
          "internalType": "string",
          "name": "market",
          "type": "string"
        }
      ],
      "name": "setMoonPrice",
      "outputs": [],
      "stateMutability": "nonpayable",
      "type": "function"
    },
    {
      "inputs": [],
      "name": "totalPaid",
      "outputs": [
        {
          "internalType": "uint256",
          "name": "",
          "type": "uint256"
        }
      ],
      "stateMutability": "view",
      "type": "function"
    },
    {
      "inputs": [],
      "name": "totalStaked",
      "outputs": [
        {
          "internalType": "uint256",
          "name": "",
          "type": "uint256"
        }
      ],
      "stateMutability": "view",
      "type": "function"
    },
    {
      "inputs": [
        {
          "internalType": "address",
          "name": "newOwner",
          "type": "address"
        }
      ],
      "name": "transferOwnership",
      "outputs": [],
      "stateMutability": "nonpayable",
      "type": "function"
    },
    {
      "inputs": [
        {
          "internalType": "bytes8",
          "name": "charity",
          "type": "bytes8"
        }
      ],
      "name": "voteForCharity",
      "outputs": [],
      "stateMutability": "nonpayable",
      "type": "function"
    },
    {
      "inputs": [
        {
          "internalType": "uint128",
          "name": "",
          "type": "uint128"
        },
        {
          "internalType": "uint256",
          "name": "",
          "type": "uint256"
        }
      ],
      "name": "winers",
      "outputs": [
        {
          "internalType": "address",
          "name": "",
          "type": "address"
        }
      ],
      "stateMutability": "view",
      "type": "function"
    }
  ],
  "bytecode": "60806040819052600d80546001600160a01b0319167388757f2f99175387ab4c6a4b3067c77a695b0349908117909155630261bf8b60e01b825290630261bf8b90608490602090600481865afa1580156200005e573d6000803e3d6000fd5b505050506040513d601f19601f8201168201806040525081019062000084919062000244565b600e80546001600160a01b03929092166001600160a01b03199283161790556011805490911673ff795577d9ac8bd7d90ee22b6c1703490b6512fd179055348015620000cf57600080fd5b50604051620033c4380380620033c4833981016040819052620000f2916200026b565b620000fd33620001db565b6001600160a01b0383166200011157600080fd5b6001600160a01b0382166200012557600080fd5b6001600160a01b0381166200013957600080fd5b600180546001600160a01b038581166001600160a01b0319928316811790935560028054868316908416179055600380549185169190921617905542600b556040516315a722b960e31b815264150000000160048201819052919063ad3915c890602401600060405180830381600087803b158015620001b857600080fd5b505af1158015620001cd573d6000803e3d6000fd5b5050505050505050620002bf565b600080546001600160a01b038381166001600160a01b0319831681178455604051919092169283917f8be0079c531659141344cd1fd0a4f28419497f9722a3daafe3b4186f6b6457e09190a35050565b6001600160a01b03811681146200024157600080fd5b50565b6000602082840312156200025757600080fd5b815162000264816200022b565b9392505050565b6000806000606084860312156200028157600080fd5b83516200028e816200022b565b6020850151909350620002a1816200022b565b6040850151909250620002b4816200022b565b809150509250925092565b6130f580620002cf6000396000f3fe608060405234801561001057600080fd5b50600436106102745760003560e01c80635a32b63211610151578063a59a9973116100c3578063d86ed3e511610087578063d86ed3e514610728578063e7b0f6661461073b578063eed33b5414610744578063f2fde38b14610764578063f60e208914610777578063fce7147b1461078a57600080fd5b8063a59a9973146106b3578063af3e28f7146106c6578063b0b98f32146106d9578063b3d10eb414610702578063d391b70b1461071557600080fd5b8063817b1cd211610115578063817b1cd214610635578063884d1f401461063e5780638afe702f146106515780638b9dff9b146106645780638da5cb5b1461068f5780638ebfa8ae146106a057600080fd5b80635a32b6321461058a5780635f539d69146105e65780635f9e7d77146105f95780636e04ff0d1461060c578063715018a61461062d57600080fd5b806330d9c915116101ea5780634c70f331116101ae5780634c70f331146104aa5780634e5b3c7c146104bd578063524d70b2146104d0578063524f38891461055c57806353c11f991461056f578063557ed1ba1461058257600080fd5b806330d9c91514610426578063322e0f22146104395780634585e33b1461046d5780634744121014610480578063474da79a1461049757600080fd5b8063126df02b1161023c578063126df02b1461031c57806316f949a11461036a5780631a8ff1f8146103b957806320e43db8146103cc578063230dbd291461040057806325d8efe41461041357600080fd5b806307b785bd14610279578063085d48831461028e5780630ccd3ef9146102be5780630d4e57a4146102de5780630d7ec6e414610309575b600080fd5b61028c610287366004612731565b61079d565b005b600d546102a1906001600160a01b031681565b6040516001600160a01b0390911681526020015b60405180910390f35b6102d16102cc366004612770565b61089f565b6040516102b591906127e5565b600a546102f1906001600160801b031681565b6040516001600160801b0390911681526020016102b5565b61028c6103173660046128bb565b61094b565b61034a61032a366004612901565b6016602052600090815260409020805460019091015460c09190911b9082565b604080516001600160c01b031990931683526020830191909152016102b5565b6103a96103783660046128bb565b6021602090815260009283526040909220815180830184018051928152908401929093019190912091525460ff1681565b60405190151581526020016102b5565b61028c6103c7366004612901565b610ba7565b6102f16103da366004612935565b60196020908152600092835260408084209091529082529020546001600160801b031681565b6102d161040e3660046129a9565b610c25565b6102a1610421366004612770565b610c87565b6102d1610434366004612a73565b610cb1565b6102a1610447366004612b11565b80516020818301810180516008825292820191909301209152546001600160a01b031681565b61028c61047b366004612b4d565b610d14565b610489600b5481565b6040519081526020016102b5565b6102a16104a5366004612770565b610e2b565b61028c6104b8366004612b8e565b610e3b565b6003546102a1906001600160a01b031681565b61052f6104de3660046128bb565b60146020908152600092835260409092208151808301840180519281529084019290930191909120915280546001820154600283015460038401546004850154600590950154939492939192909186565b604080519687526020870195909552938501929092526060840152608083015260a082015260c0016102b5565b61048961056a366004612b11565b610f4b565b6102d161057d3660046129a9565b610ff3565b610489611058565b6105d1610598366004612bdf565b60208080526000938452604080852084518086018401805192815290840195840195909520945292905282529020805460019091015482565b604080519283526020830191909152016102b5565b61028c6105f4366004612901565b6110e1565b6102d1610607366004612a73565b61115d565b61061f61061a366004612b4d565b6111c4565b6040516102b5929190612c39565b61028c6113d9565b61048960155481565b6102d161064c366004612a73565b61140f565b61028c61065f366004612c54565b611472565b610489610672366004612b11565b805160208183018101805160098252928201919093012091525481565b6000546001600160a01b03166102a1565b61028c6106ae366004612901565b611564565b600e546102a1906001600160a01b031681565b61028c6106d43660046128bb565b61160a565b6102a16106e7366004612c6f565b601a602052600090815260409020546001600160a01b031681565b6103a9610710366004612bdf565b6116fc565b61028c610723366004612901565b611884565b6102d16107363660046129a9565b6118d0565b610489600c5481565b610489610752366004612770565b60136020526000908152604090205481565b61028c610772366004612901565b611932565b6102a1610785366004612c8a565b6119cd565b6102a1610798366004612cd9565b611a21565b6000546001600160a01b031633146107d05760405162461bcd60e51b81526004016107c790612d03565b60405180910390fd5b6001600160a01b03919091166000818152601660205260408120805467ffffffffffffffff191660c09590951c9485178155600190810193909355601780548085019091557fc624b66cc0138b8fabc209247f72d758e1cf3343756d543badbf24212bed8c15600482040180546001600160401b0360039093166008026101000a928302191691909502179093556018805492830181559092527fb13d2d76d1f4b7be834882e410b3e3a8afaf69f83600ae24db354391d2378d2e0180546001600160a01b0319169091179055565b600581815481106108af57600080fd5b9060005260206000200160009150905080546108ca90612d38565b80601f01602080910402602001604051908101604052809291908181526020018280546108f690612d38565b80156109435780601f1061091857610100808354040283529160200191610943565b820191906000526020600020905b81548152906001019060200180831161092657829003601f168201915b505050505081565b678ac7230489e8000061012c42841161096357600080fd5b601154604051636eb1769f60e11b815233600482015230602482015283916001600160a01b03169063dd62ed3e90604401602060405180830381865afa1580156109b1573d6000803e3d6000fd5b505050506040513d601f19601f820116820180604052508101906109d59190612d73565b10156109e057600080fd5b6011546040516323b872dd60e01b8152336004820152306024820152604481018490526001600160a01b03909116906323b872dd906064016020604051808303816000875af1158015610a37573d6000803e3d6000fd5b505050506040513d601f19601f82011682018060405250810190610a5b9190612d8c565b508160146000600986604051610a719190612dae565b908152602001604051809103902054815260200190815260200160002084604051610a9c9190612dae565b90815260200160405180910390206003016000828254610abc9190612de0565b92505081905550661ff973cafa800060146000600986604051610adf9190612dae565b908152602001604051809103902054815260200190815260200160002084604051610b0a9190612dae565b90815260200160405180910390206001016000828254610b2a9190612de0565b925050819055508160156000828254610b439190612de0565b90915550610b52905082611a59565b610b5c8484611b4c565b337f8fc5fcafab42750870defc62f202c0d262793eca86ba9b802b7f22b102dd44b885610b898482612de0565b6040805192835260208301919091520160405180910390a250505050565b60005b600754811015610c0257336001600160a01b031660078281548110610bd157610bd1612df8565b6000918252602090912001546001600160a01b031614610bf057600080fd5b80610bfa81612e0e565b915050610baa565b50601080546001600160a01b0319166001600160a01b0392909216919091179055565b60405162461bcd60e51b815260206004820152602e60248201527f556e737570706f727465642063616c6c6261636b202d2041667465722041677260448201526d19595b595b9d08155c19185d195960921b60648201526060906084016107c7565b60048181548110610c9757600080fd5b6000918252602090912001546001600160a01b0316905081565b60405162461bcd60e51b815260206004820152602f60248201527f556e737570706f727465642063616c6c6261636b202d204265666f726520416760448201526e1c99595b595b9d0810dc99585d1959608a1b60648201526060906084016107c7565b6000610d2282840184612770565b6005549091508111610ddc57610ddc60058281548110610d4457610d44612df8565b906000526020600020018054610d5990612d38565b80601f0160208091040260200160405190810160405280929190818152602001828054610d8590612d38565b8015610dd25780601f10610da757610100808354040283529160200191610dd2565b820191906000526020600020905b815481529060010190602001808311610db557829003601f168201915b5050505050611d5a565b806103e81415610e265762278d00600b6000828254610dfb9190612de0565b9091555050601254610e15906001600160a01b0316611dc6565b50610e1e611fd0565b610e266120f3565b505050565b60078181548110610c9757600080fd5b6000546001600160a01b03163314610e655760405162461bcd60e51b81526004016107c790612d03565b600554606411610e7457600080fd5b80600883604051610e859190612dae565b9081526040516020918190038201902080546001600160a01b0319166001600160a01b039390931692909217909155600580546001810182556000919091528351610ef7927f036b6384b5eca791c62761152d0c79bb0604c104a5fb6f4eb0703f3154bb3db090920191850190612666565b50600680546001810182556000919091527ff652222313e28459528d920b65115c16c04f3efc82aaedc97be59f3f377c0d3f0180546001600160a01b0319166001600160a01b039290921691909117905550565b600080600883604051610f5e9190612dae565b908152602001604051809103902060009054906101000a90046001600160a01b031690506000816001600160a01b031663feaf968c6040518163ffffffff1660e01b815260040160a060405180830381865afa158015610fc2573d6000803e3d6000fd5b505050506040513d601f19601f82011682018060405250810190610fe69190612e43565b5091979650505050505050565b60405162461bcd60e51b815260206004820152603160248201527f556e737570706f727465642063616c6c6261636b202d2041667465722041677260448201527019595b595b9d0815195c9b5a5b985d1959607a1b60648201526060906084016107c7565b600080736135b13325bfc4b00278b4abc5e20bbce2d6580e90506000816001600160a01b031663feaf968c6040518163ffffffff1660e01b815260040160a060405180830381865afa1580156110b2573d6000803e3d6000fd5b505050506040513d601f19601f820116820180604052508101906110d69190612e43565b509695505050505050565b6000546001600160a01b0316331461110b5760405162461bcd60e51b81526004016107c790612d03565b600780546001810182556000919091527fa66cc928b5edb82af9bd49922954155ab7b0942694bea4ce44661d9a8736c6880180546001600160a01b0319166001600160a01b0392909216919091179055565b60405162461bcd60e51b815260206004820152603360248201527f556e737570706f727465642063616c6c6261636b202d20204265666f7265204160448201527219dc99595b595b9d0815195c9b5a5b985d1959606a1b60648201526060906084016107c7565b6000606060005b60055481101561135657601460006009600584815481106111ee576111ee612df8565b906000526020600020016040516112059190612e93565b90815260200160405180910390205481526020019081526020016000206005828154811061123557611235612df8565b9060005260206000200160405161124c9190612e93565b90815260200160405180910390206000015461130c6005838154811061127457611274612df8565b90600052602060002001805461128990612d38565b80601f01602080910402602001604051908101604052809291908181526020018280546112b590612d38565b80156113025780601f106112d757610100808354040283529160200191611302565b820191906000526020600020905b8154815290600101906020018083116112e557829003601f168201915b5050505050610f4b565b1415611344576001925060018160405160200161132b91815260200190565b60405160208183030381529060405292509250506113d2565b8061134e81612e0e565b9150506111cb565b50600b546113679062278d00612de0565b421061139857604080516103e8602082015260019350839101604051602081830303815290604052915091506113d2565b83838080601f0160208091040260200160405190810160405280939291908181526020018383808284376000920191909152509293505050505b9250929050565b6000546001600160a01b031633146114035760405162461bcd60e51b81526004016107c790612d03565b61140d60006121af565b565b60405162461bcd60e51b815260206004820152602f60248201527f556e737570706f727465642063616c6c6261636b202d204265666f726520416760448201526e1c99595b595b9d081d5c19185d1959608a1b60648201526060906084016107c7565b60005b600a546001600160801b03166000908152601b60205260409020548110156114f757600a546001600160801b03166000908152601b602052604090208054339190839081106114c6576114c6612df8565b6000918252602090912001546001600160a01b0316146114e557600080fd5b806114ef81612e0e565b915050611475565b50600a546001600160801b0390811660009081526019602090815260408083206001600160c01b0319861684529091528120805460019391929161153d91859116612f2f565b92506101000a8154816001600160801b0302191690836001600160801b0316021790555050565b60005b6007548110156115bf57336001600160a01b03166007828154811061158e5761158e612df8565b6000918252602090912001546001600160a01b0316146115ad57600080fd5b806115b781612e0e565b915050611567565b50600a546001600160801b03166000908152601b602090815260408220805460018101825590835291200180546001600160a01b0319166001600160a01b0392909216919091179055565b6000546001600160a01b031633146116345760405162461bcd60e51b81526004016107c790612d03565b6040518060c001604052808381526020016000815260200161165583610f4b565b815260200160008152602001611669611058565b81526020016000815250601460006009846040516116879190612dae565b9081526020016040518091039020548152602001908152602001600020826040516116b29190612dae565b9081526040805160209281900383019020835181559183015160018301558201516002820155606082015160038201556080820151600482015560a0909101516005909101555050565b6000838152601460205260408082209051611718908590612dae565b9081526020016040518091039020600501546000141561173a5750600061187d565b600084815260146020526040908190209051611757908590612dae565b9081526020016040518091039020600501546000141561177657600080fd5b600084815260146020526040908190209051611793908590612dae565b90815260200160405180910390206005015460206000868152602001908152602001600020846040516117c69190612dae565b90815260408051602092819003830190206001600160a01b0386166000908152925290205411156117f657600080fd5b600084815260146020526040908190209051611813908590612dae565b90815260200160405180910390206005015460206000868152602001908152602001600020846040516118469190612dae565b90815260408051602092819003830190206001600160a01b03861660009081529252902060010154101561187957600080fd5b5060015b9392505050565b6000546001600160a01b031633146118ae5760405162461bcd60e51b81526004016107c790612d03565b600f80546001600160a01b0319166001600160a01b0392909216919091179055565b60405162461bcd60e51b815260206004820152602e60248201527f556e737570706f727465642063616c6c6261636b202d2041667465722041677260448201526d19595b595b9d0810dc99585d195960921b60648201526060906084016107c7565b6000546001600160a01b0316331461195c5760405162461bcd60e51b81526004016107c790612d03565b6001600160a01b0381166119c15760405162461bcd60e51b815260206004820152602660248201527f4f776e61626c653a206e6577206f776e657220697320746865207a65726f206160448201526564647265737360d01b60648201526084016107c7565b6119ca816121af565b50565b601c6020908152600084815260409020835180850183018051928152908301928501929092209152805482908110611a0457600080fd5b6000918252602090912001546001600160a01b0316925083915050565b601b6020528160005260406000208181548110611a3d57600080fd5b6000918252602090912001546001600160a01b03169150829050565b601154600e5460405163095ea7b360e01b81526001600160a01b0391821660048201526024810184905291169063095ea7b3906044016020604051808303816000875af1158015611aae573d6000803e3d6000fd5b505050506040513d601f19601f82011682018060405250810190611ad29190612d8c565b50600e5460115460405163e8eda9df60e01b81526001600160a01b039182166004820152602481018490523060448201526000606482015291169063e8eda9df906084015b600060405180830381600087803b158015611b3157600080fd5b505af1158015611b45573d6000803e3d6000fd5b5050505050565b8160206000600984604051611b619190612dae565b908152602001604051809103902054815260200190815260200160002082604051611b8c9190612dae565b90815260408051602092819003830190203360009081529252902055611bb482610708612de0565b60206000600984604051611bc89190612dae565b908152602001604051809103902054815260200190815260200160002082604051611bf39190612dae565b9081526040805160209281900383018120336000908152935290822060010192909255601c91600990611c27908590612dae565b908152602001604051809103902054815260200190815260200160002081604051611c529190612dae565b90815260405190819003602090810182208054600181018255600091825291812090910180546001600160a01b03191633179055601d91600990611c97908590612dae565b908152602001604051809103902054815260200190815260200160002081604051611cc29190612dae565b908152604051908190036020908101822080546001810182556000918252918120909101849055601e91600990611cfa908590612dae565b908152602001604051809103902054815260200190815260200160002081604051611d259190612dae565b908152604051908190036020019020611d4083610708612de0565b815460018101835560009283526020909220909101555050565b611d62611058565b60146000600984604051611d769190612dae565b908152602001604051809103902054815260200190815260200160002082604051611da19190612dae565b90815260405190819003602001902060050155611dbd816121ff565b6119ca81612390565b6040516370a0823160e01b815230600482015260009081906001600160a01b038416906370a0823190602401602060405180830381865afa158015611e0f573d6000803e3d6000fd5b505050506040513d601f19601f82011682018060405250810190611e339190612d73565b90506000600c54601554611e479190612f5a565b611e519083612f5a565b600e54601154604051631a4ca37b60e21b81526001600160a01b0391821660048201526024810184905230604482015292935016906369328dec906064016020604051808303816000875af1158015611eae573d6000803e3d6000fd5b505050506040513d601f19601f82011682018060405250810190611ed29190612d73565b5060115460035460405163095ea7b360e01b81526001600160a01b0391821660048201526024810184905291169063095ea7b3906044016020604051808303816000875af1158015611f28573d6000803e3d6000fd5b505050506040513d601f19601f82011682018060405250810190611f4c9190612d8c565b506003546040516345977d0360e01b8152600481018390526001600160a01b03909116906345977d0390602401600060405180830381600087803b158015611f9357600080fd5b505af1158015611fa7573d6000803e3d6000fd5b5050600a546001600160801b031660009081526013602052604090208390555090949350505050565b600a546001600160801b0316600090815260136020526040902054600154600254600354600f546001600160a01b03938416936339255d5b9381169263317e182f60e11b92908216911661202762278d0088612f71565b6040805160008152602081019091526120469392919060448101612fc2565b60408051601f198184030181529181526020820180516001600160e01b03166001600160e01b03199485161790525160e085901b909216825261208c9291600401613002565b6000604051808303816000875af11580156120ab573d6000803e3d6000fd5b505050506040513d6000823e601f3d908101601f191682016040526120d39190810190613049565b50600a80546001919060009061153d9084906001600160801b0316612f2f565b600a546001600160801b031661210857600080fd5b6003546010546040516370a0823160e01b81526001600160a01b03918216600482015260009291909116906370a0823190602401602060405180830381865afa158015612159573d6000803e3d6000fd5b505050506040513d601f19601f8201168201806040525081019061217d9190612d73565b6010546040516391c05b0b60e01b8152600481018390529192506001600160a01b0316906391c05b0b90602401611b17565b600080546001600160a01b038381166001600160a01b0319831681178455604051919092169283917f8be0079c531659141344cd1fd0a4f28419497f9722a3daafe3b4186f6b6457e09190a35050565b601d60006009836040516122139190612dae565b90815260200160405180910390205481526020019081526020016000208160405161223e9190612dae565b908152602001604051809103902080549050601e60006009846040516122649190612dae565b90815260200160405180910390205481526020019081526020016000208260405161228f9190612dae565b90815260405190819003602001902054146122a957600080fd5b60005b601d60006009846040516122c09190612dae565b9081526020016040518091039020548152602001908152602001600020826040516122eb9190612dae565b9081526040519081900360200190205481101561238c5761230c82826124cd565b15156001141561237a57601f600060098460405161232a9190612dae565b9081526020016040518091039020548152602001908152602001600020826040516123559190612dae565b9081526040516020918190038201902080546001810182556000918252919020018190555b8061238481612e0e565b9150506122ac565b5050565b601f60006009836040516123a49190612dae565b9081526020016040518091039020548152602001908152602001600020816040516123cf9190612dae565b908152604051908190036020019020546123e857600080fd5b600e546011546040516001600160a01b03928316926369328dec921690601490600090600990612419908890612dae565b9081526020016040518091039020548152602001908152602001600020846040516124449190612dae565b908152604051908190036020018120600101546001600160e01b031960e085901b1682526001600160a01b0392909216600482015260248101919091523060448201526064016020604051808303816000875af11580156124a9573d6000803e3d6000fd5b505050506040513d601f19601f8201168201806040525081019061238c9190612d73565b6000601460006009856040516124e39190612dae565b90815260200160405180910390205481526020019081526020016000208360405161250e9190612dae565b908152602001604051809103902060050154601d60006009866040516125349190612dae565b90815260200160405180910390205481526020019081526020016000208460405161255f9190612dae565b9081526020016040518091039020838154811061257e5761257e612df8565b90600052602060002001541015801561264f5750601460006009856040516125a69190612dae565b9081526020016040518091039020548152602001908152602001600020836040516125d19190612dae565b908152602001604051809103902060050154601e60006009866040516125f79190612dae565b9081526020016040518091039020548152602001908152602001600020846040516126229190612dae565b9081526020016040518091039020838154811061264157612641612df8565b906000526020600020015411155b1561265c57506001612660565b5060005b92915050565b82805461267290612d38565b90600052602060002090601f01602090048101928261269457600085556126da565b82601f106126ad57805160ff19168380011785556126da565b828001600101855582156126da579182015b828111156126da5782518255916020019190600101906126bf565b506126e69291506126ea565b5090565b5b808211156126e657600081556001016126eb565b80356001600160c01b03198116811461271757600080fd5b919050565b6001600160a01b03811681146119ca57600080fd5b60008060006060848603121561274657600080fd5b61274f846126ff565b9250602084013561275f8161271c565b929592945050506040919091013590565b60006020828403121561278257600080fd5b5035919050565b60005b838110156127a457818101518382015260200161278c565b838111156127b3576000848401525b50505050565b600081518084526127d1816020860160208601612789565b601f01601f19169290920160200192915050565b60208152600061187d60208301846127b9565b634e487b7160e01b600052604160045260246000fd5b604051601f8201601f191681016001600160401b0381118282101715612836576128366127f8565b604052919050565b60006001600160401b03821115612857576128576127f8565b50601f01601f191660200190565b600082601f83011261287657600080fd5b81356128896128848261283e565b61280e565b81815284602083860101111561289e57600080fd5b816020850160208301376000918101602001919091529392505050565b600080604083850312156128ce57600080fd5b8235915060208301356001600160401b038111156128eb57600080fd5b6128f785828601612865565b9150509250929050565b60006020828403121561291357600080fd5b813561187d8161271c565b80356001600160801b038116811461271757600080fd5b6000806040838503121561294857600080fd5b6129518361291e565b915061295f602084016126ff565b90509250929050565b60008083601f84011261297a57600080fd5b5081356001600160401b0381111561299157600080fd5b6020830191508360208285010111156113d257600080fd5b600080600080600080600080600060c08a8c0312156129c757600080fd5b89356129d28161271c565b985060208a01356129e28161271c565b975060408a0135965060608a01356001600160401b0380821115612a0557600080fd5b612a118d838e01612968565b909850965060808c0135915080821115612a2a57600080fd5b612a368d838e01612968565b909650945060a08c0135915080821115612a4f57600080fd5b50612a5c8c828d01612968565b915080935050809150509295985092959850929598565b600080600080600080600060a0888a031215612a8e57600080fd5b8735612a998161271c565b96506020880135612aa98161271c565b95506040880135945060608801356001600160401b0380821115612acc57600080fd5b612ad88b838c01612968565b909650945060808a0135915080821115612af157600080fd5b50612afe8a828b01612968565b989b979a50959850939692959293505050565b600060208284031215612b2357600080fd5b81356001600160401b03811115612b3957600080fd5b612b4584828501612865565b949350505050565b60008060208385031215612b6057600080fd5b82356001600160401b03811115612b7657600080fd5b612b8285828601612968565b90969095509350505050565b60008060408385031215612ba157600080fd5b82356001600160401b03811115612bb757600080fd5b612bc385828601612865565b9250506020830135612bd48161271c565b809150509250929050565b600080600060608486031215612bf457600080fd5b8335925060208401356001600160401b03811115612c1157600080fd5b612c1d86828701612865565b9250506040840135612c2e8161271c565b809150509250925092565b8215158152604060208201526000612b4560408301846127b9565b600060208284031215612c6657600080fd5b61187d826126ff565b600060208284031215612c8157600080fd5b61187d8261291e565b600080600060608486031215612c9f57600080fd5b8335925060208401356001600160401b03811115612cbc57600080fd5b612cc886828701612865565b925050604084013590509250925092565b60008060408385031215612cec57600080fd5b612cf58361291e565b946020939093013593505050565b6020808252818101527f4f776e61626c653a2063616c6c6572206973206e6f7420746865206f776e6572604082015260600190565b600181811c90821680612d4c57607f821691505b60208210811415612d6d57634e487b7160e01b600052602260045260246000fd5b50919050565b600060208284031215612d8557600080fd5b5051919050565b600060208284031215612d9e57600080fd5b8151801515811461187d57600080fd5b60008251612dc0818460208701612789565b9190910192915050565b634e487b7160e01b600052601160045260246000fd5b60008219821115612df357612df3612dca565b500190565b634e487b7160e01b600052603260045260246000fd5b6000600019821415612e2257612e22612dca565b5060010190565b805169ffffffffffffffffffff8116811461271757600080fd5b600080600080600060a08688031215612e5b57600080fd5b612e6486612e29565b9450602086015193506040860151925060608601519150612e8760808701612e29565b90509295509295909350565b600080835481600182811c915080831680612eaf57607f831692505b6020808410821415612ecf57634e487b7160e01b86526022600452602486fd5b818015612ee35760018114612ef457612f21565b60ff19861689528489019650612f21565b60008a81526020902060005b86811015612f195781548b820152908501908301612f00565b505084890196505b509498975050505050505050565b60006001600160801b03808316818516808303821115612f5157612f51612dca565b01949350505050565b600082821015612f6c57612f6c612dca565b500390565b600081600b0b83600b0b80612f9657634e487b7160e01b600052601260045260246000fd5b6b7fffffffffffffffffffffff19821460001982141615612fb957612fb9612dca565b90059392505050565b6001600160a01b03858116825284166020820152600b83900b6040820152608060608201819052600090612ff8908301846127b9565b9695505050505050565b6001600160a01b0383168152606060208201819052600090613026908301846127b9565b8281036040938401526002815261060f60f31b6020820152919091019392505050565b60006020828403121561305b57600080fd5b81516001600160401b0381111561307157600080fd5b8201601f8101841361308257600080fd5b80516130906128848261283e565b8181528560208385010111156130a557600080fd5b6130b6826020830160208601612789565b9594505050505056fea26469706673582212200ce3e9735c63b84390f609eab63391a4d8f96ed39091921ae166280078bb8bb764736f6c634300080b0033",
  "bytecodeSha1": "5d364de06376fffc18ab62adfed61e33cceb08ab",
  "compiler": {
    "evm_version": "istanbul",
    "optimizer": {
      "enabled": true,
      "runs": 200
    },
    "version": "0.8.11+commit.d7f03943"
  },
  "contractName": "MoonSquares",
  "language": "Solidity",
  "natspec": {
    "kind": "dev",
    "methods": {
      "checkUpkeep(bytes)": {
        "notice": "checks if the contract requires work to be done.",
        "params": {
          "checkData": "data passed to the contract when checking for upkeep."
        },
        "returns": {
          "performData": "bytes that the keeper should call performUpkeep with, if upkeep is needed.",
          "upkeepNeeded": "boolean to indicate whether the keeper should call performUpkeep or not."
        }
      },
      "owner()": {
        "details": "Returns the address of the current owner."
      },
      "performUpkeep(bytes)": {
        "notice": "Performs work on the contract. Executed by the keepers, via the registry.",
        "params": {
          "performData": "is the data which was passed back from the checkData simulation."
        }
      },
      "renounceOwnership()": {
        "details": "Leaves the contract without owner. It will not be possible to call `onlyOwner` functions anymore. Can only be called by the current owner. NOTE: Renouncing ownership will leave the contract without an owner, thereby removing any functionality that is only available to the owner."
      },
      "transferOwnership(address)": {
        "details": "Transfers ownership of the contract to a new account (`newOwner`). Can only be called by the current owner."
      }
    },
    "version": 1
  },
  "opcodes": "PUSH1 0x80 PUSH1 0x40 MSTORE CALLVALUE DUP1 ISZERO PUSH2 0x10 JUMPI PUSH1 0x0 DUP1 REVERT JUMPDEST POP PUSH1 0x4 CALLDATASIZE LT PUSH2 0x274 JUMPI PUSH1 0x0 CALLDATALOAD PUSH1 0xE0 SHR DUP1 PUSH4 0x5A32B632 GT PUSH2 0x151 JUMPI DUP1 PUSH4 0xA59A9973 GT PUSH2 0xC3 JUMPI DUP1 PUSH4 0xD86ED3E5 GT PUSH2 0x87 JUMPI DUP1 PUSH4 0xD86ED3E5 EQ PUSH2 0x728 JUMPI DUP1 PUSH4 0xE7B0F666 EQ PUSH2 0x73B JUMPI DUP1 PUSH4 0xEED33B54 EQ PUSH2 0x744 JUMPI DUP1 PUSH4 0xF2FDE38B EQ PUSH2 0x764 JUMPI DUP1 PUSH4 0xF60E2089 EQ PUSH2 0x777 JUMPI DUP1 PUSH4 0xFCE7147B EQ PUSH2 0x78A JUMPI PUSH1 0x0 DUP1 REVERT JUMPDEST DUP1 PUSH4 0xA59A9973 EQ PUSH2 0x6B3 JUMPI DUP1 PUSH4 0xAF3E28F7 EQ PUSH2 0x6C6 JUMPI DUP1 PUSH4 0xB0B98F32 EQ PUSH2 0x6D9 JUMPI DUP1 PUSH4 0xB3D10EB4 EQ PUSH2 0x702 JUMPI DUP1 PUSH4 0xD391B70B EQ PUSH2 0x715 JUMPI PUSH1 0x0 DUP1 REVERT JUMPDEST DUP1 PUSH4 0x817B1CD2 GT PUSH2 0x115 JUMPI DUP1 PUSH4 0x817B1CD2 EQ PUSH2 0x635 JUMPI DUP1 PUSH4 0x884D1F40 EQ PUSH2 0x63E JUMPI DUP1 PUSH4 0x8AFE702F EQ PUSH2 0x651 JUMPI DUP1 PUSH4 0x8B9DFF9B EQ PUSH2 0x664 JUMPI DUP1 PUSH4 0x8DA5CB5B EQ PUSH2 0x68F JUMPI DUP1 PUSH4 0x8EBFA8AE EQ PUSH2 0x6A0 JUMPI PUSH1 0x0 DUP1 REVERT JUMPDEST DUP1 PUSH4 0x5A32B632 EQ PUSH2 0x58A JUMPI DUP1 PUSH4 0x5F539D69 EQ PUSH2 0x5E6 JUMPI DUP1 PUSH4 0x5F9E7D77 EQ PUSH2 0x5F9 JUMPI DUP1 PUSH4 0x6E04FF0D EQ PUSH2 0x60C JUMPI DUP1 PUSH4 0x715018A6 EQ PUSH2 0x62D JUMPI PUSH1 0x0 DUP1 REVERT JUMPDEST DUP1 PUSH4 0x30D9C915 GT PUSH2 0x1EA JUMPI DUP1 PUSH4 0x4C70F331 GT PUSH2 0x1AE JUMPI DUP1 PUSH4 0x4C70F331 EQ PUSH2 0x4AA JUMPI DUP1 PUSH4 0x4E5B3C7C EQ PUSH2 0x4BD JUMPI DUP1 PUSH4 0x524D70B2 EQ PUSH2 0x4D0 JUMPI DUP1 PUSH4 0x524F3889 EQ PUSH2 0x55C JUMPI DUP1 PUSH4 0x53C11F99 EQ PUSH2 0x56F JUMPI DUP1 PUSH4 0x557ED1BA EQ PUSH2 0x582 JUMPI PUSH1 0x0 DUP1 REVERT JUMPDEST DUP1 PUSH4 0x30D9C915 EQ PUSH2 0x426 JUMPI DUP1 PUSH4 0x322E0F22 EQ PUSH2 0x439 JUMPI DUP1 PUSH4 0x4585E33B EQ PUSH2 0x46D JUMPI DUP1 PUSH4 0x47441210 EQ PUSH2 0x480 JUMPI DUP1 PUSH4 0x474DA79A EQ PUSH2 0x497 JUMPI PUSH1 0x0 DUP1 REVERT JUMPDEST DUP1 PUSH4 0x126DF02B GT PUSH2 0x23C JUMPI DUP1 PUSH4 0x126DF02B EQ PUSH2 0x31C JUMPI DUP1 PUSH4 0x16F949A1 EQ PUSH2 0x36A JUMPI DUP1 PUSH4 0x1A8FF1F8 EQ PUSH2 0x3B9 JUMPI DUP1 PUSH4 0x20E43DB8 EQ PUSH2 0x3CC JUMPI DUP1 PUSH4 0x230DBD29 EQ PUSH2 0x400 JUMPI DUP1 PUSH4 0x25D8EFE4 EQ PUSH2 0x413 JUMPI PUSH1 0x0 DUP1 REVERT JUMPDEST DUP1 PUSH4 0x7B785BD EQ PUSH2 0x279 JUMPI DUP1 PUSH4 0x85D4883 EQ PUSH2 0x28E JUMPI DUP1 PUSH4 0xCCD3EF9 EQ PUSH2 0x2BE JUMPI DUP1 PUSH4 0xD4E57A4 EQ PUSH2 0x2DE JUMPI DUP1 PUSH4 0xD7EC6E4 EQ PUSH2 0x309 JUMPI JUMPDEST PUSH1 0x0 DUP1 REVERT JUMPDEST PUSH2 0x28C PUSH2 0x287 CALLDATASIZE PUSH1 0x4 PUSH2 0x2731 JUMP JUMPDEST PUSH2 0x79D JUMP JUMPDEST STOP JUMPDEST PUSH1 0xD SLOAD PUSH2 0x2A1 SWAP1 PUSH1 0x1 PUSH1 0x1 PUSH1 0xA0 SHL SUB AND DUP2 JUMP JUMPDEST PUSH1 0x40 MLOAD PUSH1 0x1 PUSH1 0x1 PUSH1 0xA0 SHL SUB SWAP1 SWAP2 AND DUP2 MSTORE PUSH1 0x20 ADD JUMPDEST PUSH1 0x40 MLOAD DUP1 SWAP2 SUB SWAP1 RETURN JUMPDEST PUSH2 0x2D1 PUSH2 0x2CC CALLDATASIZE PUSH1 0x4 PUSH2 0x2770 JUMP JUMPDEST PUSH2 0x89F JUMP JUMPDEST PUSH1 0x40 MLOAD PUSH2 0x2B5 SWAP2 SWAP1 PUSH2 0x27E5 JUMP JUMPDEST PUSH1 0xA SLOAD PUSH2 0x2F1 SWAP1 PUSH1 0x1 PUSH1 0x1 PUSH1 0x80 SHL SUB AND DUP2 JUMP JUMPDEST PUSH1 0x40 MLOAD PUSH1 0x1 PUSH1 0x1 PUSH1 0x80 SHL SUB SWAP1 SWAP2 AND DUP2 MSTORE PUSH1 0x20 ADD PUSH2 0x2B5 JUMP JUMPDEST PUSH2 0x28C PUSH2 0x317 CALLDATASIZE PUSH1 0x4 PUSH2 0x28BB JUMP JUMPDEST PUSH2 0x94B JUMP JUMPDEST PUSH2 0x34A PUSH2 0x32A CALLDATASIZE PUSH1 0x4 PUSH2 0x2901 JUMP JUMPDEST PUSH1 0x16 PUSH1 0x20 MSTORE PUSH1 0x0 SWAP1 DUP2 MSTORE PUSH1 0x40 SWAP1 KECCAK256 DUP1 SLOAD PUSH1 0x1 SWAP1 SWAP2 ADD SLOAD PUSH1 0xC0 SWAP2 SWAP1 SWAP2 SHL SWAP1 DUP3 JUMP JUMPDEST PUSH1 0x40 DUP1 MLOAD PUSH1 0x1 PUSH1 0x1 PUSH1 0xC0 SHL SUB NOT SWAP1 SWAP4 AND DUP4 MSTORE PUSH1 0x20 DUP4 ADD SWAP2 SWAP1 SWAP2 MSTORE ADD PUSH2 0x2B5 JUMP JUMPDEST PUSH2 0x3A9 PUSH2 0x378 CALLDATASIZE PUSH1 0x4 PUSH2 0x28BB JUMP JUMPDEST PUSH1 0x21 PUSH1 0x20 SWAP1 DUP2 MSTORE PUSH1 0x0 SWAP3 DUP4 MSTORE PUSH1 0x40 SWAP1 SWAP3 KECCAK256 DUP2 MLOAD DUP1 DUP4 ADD DUP5 ADD DUP1 MLOAD SWAP3 DUP2 MSTORE SWAP1 DUP5 ADD SWAP3 SWAP1 SWAP4 ADD SWAP2 SWAP1 SWAP2 KECCAK256 SWAP2 MSTORE SLOAD PUSH1 0xFF AND DUP2 JUMP JUMPDEST PUSH1 0x40 MLOAD SWAP1 ISZERO ISZERO DUP2 MSTORE PUSH1 0x20 ADD PUSH2 0x2B5 JUMP JUMPDEST PUSH2 0x28C PUSH2 0x3C7 CALLDATASIZE PUSH1 0x4 PUSH2 0x2901 JUMP JUMPDEST PUSH2 0xBA7 JUMP JUMPDEST PUSH2 0x2F1 PUSH2 0x3DA CALLDATASIZE PUSH1 0x4 PUSH2 0x2935 JUMP JUMPDEST PUSH1 0x19 PUSH1 0x20 SWAP1 DUP2 MSTORE PUSH1 0x0 SWAP3 DUP4 MSTORE PUSH1 0x40 DUP1 DUP5 KECCAK256 SWAP1 SWAP2 MSTORE SWAP1 DUP3 MSTORE SWAP1 KECCAK256 SLOAD PUSH1 0x1 PUSH1 0x1 PUSH1 0x80 SHL SUB AND DUP2 JUMP JUMPDEST PUSH2 0x2D1 PUSH2 0x40E CALLDATASIZE PUSH1 0x4 PUSH2 0x29A9 JUMP JUMPDEST PUSH2 0xC25 JUMP JUMPDEST PUSH2 0x2A1 PUSH2 0x421 CALLDATASIZE PUSH1 0x4 PUSH2 0x2770 JUMP JUMPDEST PUSH2 0xC87 JUMP JUMPDEST PUSH2 0x2D1 PUSH2 0x434 CALLDATASIZE PUSH1 0x4 PUSH2 0x2A73 JUMP JUMPDEST PUSH2 0xCB1 JUMP JUMPDEST PUSH2 0x2A1 PUSH2 0x447 CALLDATASIZE PUSH1 0x4 PUSH2 0x2B11 JUMP JUMPDEST DUP1 MLOAD PUSH1 0x20 DUP2 DUP4 ADD DUP2 ADD DUP1 MLOAD PUSH1 0x8 DUP3 MSTORE SWAP3 DUP3 ADD SWAP2 SWAP1 SWAP4 ADD KECCAK256 SWAP2 MSTORE SLOAD PUSH1 0x1 PUSH1 0x1 PUSH1 0xA0 SHL SUB AND DUP2 JUMP JUMPDEST PUSH2 0x28C PUSH2 0x47B CALLDATASIZE PUSH1 0x4 PUSH2 0x2B4D JUMP JUMPDEST PUSH2 0xD14 JUMP JUMPDEST PUSH2 0x489 PUSH1 0xB SLOAD DUP2 JUMP JUMPDEST PUSH1 0x40 MLOAD SWAP1 DUP2 MSTORE PUSH1 0x20 ADD PUSH2 0x2B5 JUMP JUMPDEST PUSH2 0x2A1 PUSH2 0x4A5 CALLDATASIZE PUSH1 0x4 PUSH2 0x2770 JUMP JUMPDEST PUSH2 0xE2B JUMP JUMPDEST PUSH2 0x28C PUSH2 0x4B8 CALLDATASIZE PUSH1 0x4 PUSH2 0x2B8E JUMP JUMPDEST PUSH2 0xE3B JUMP JUMPDEST PUSH1 0x3 SLOAD PUSH2 0x2A1 SWAP1 PUSH1 0x1 PUSH1 0x1 PUSH1 0xA0 SHL SUB AND DUP2 JUMP JUMPDEST PUSH2 0x52F PUSH2 0x4DE CALLDATASIZE PUSH1 0x4 PUSH2 0x28BB JUMP JUMPDEST PUSH1 0x14 PUSH1 0x20 SWAP1 DUP2 MSTORE PUSH1 0x0 SWAP3 DUP4 MSTORE PUSH1 0x40 SWAP1 SWAP3 KECCAK256 DUP2 MLOAD DUP1 DUP4 ADD DUP5 ADD DUP1 MLOAD SWAP3 DUP2 MSTORE SWAP1 DUP5 ADD SWAP3 SWAP1 SWAP4 ADD SWAP2 SWAP1 SWAP2 KECCAK256 SWAP2 MSTORE DUP1 SLOAD PUSH1 0x1 DUP3 ADD SLOAD PUSH1 0x2 DUP4 ADD SLOAD PUSH1 0x3 DUP5 ADD SLOAD PUSH1 0x4 DUP6 ADD SLOAD PUSH1 0x5 SWAP1 SWAP6 ADD SLOAD SWAP4 SWAP5 SWAP3 SWAP4 SWAP2 SWAP3 SWAP1 SWAP2 DUP7 JUMP JUMPDEST PUSH1 0x40 DUP1 MLOAD SWAP7 DUP8 MSTORE PUSH1 0x20 DUP8 ADD SWAP6 SWAP1 SWAP6 MSTORE SWAP4 DUP6 ADD SWAP3 SWAP1 SWAP3 MSTORE PUSH1 0x60 DUP5 ADD MSTORE PUSH1 0x80 DUP4 ADD MSTORE PUSH1 0xA0 DUP3 ADD MSTORE PUSH1 0xC0 ADD PUSH2 0x2B5 JUMP JUMPDEST PUSH2 0x489 PUSH2 0x56A CALLDATASIZE PUSH1 0x4 PUSH2 0x2B11 JUMP JUMPDEST PUSH2 0xF4B JUMP JUMPDEST PUSH2 0x2D1 PUSH2 0x57D CALLDATASIZE PUSH1 0x4 PUSH2 0x29A9 JUMP JUMPDEST PUSH2 0xFF3 JUMP JUMPDEST PUSH2 0x489 PUSH2 0x1058 JUMP JUMPDEST PUSH2 0x5D1 PUSH2 0x598 CALLDATASIZE PUSH1 0x4 PUSH2 0x2BDF JUMP JUMPDEST PUSH1 0x20 DUP1 DUP1 MSTORE PUSH1 0x0 SWAP4 DUP5 MSTORE PUSH1 0x40 DUP1 DUP6 KECCAK256 DUP5 MLOAD DUP1 DUP7 ADD DUP5 ADD DUP1 MLOAD SWAP3 DUP2 MSTORE SWAP1 DUP5 ADD SWAP6 DUP5 ADD SWAP6 SWAP1 SWAP6 KECCAK256 SWAP5 MSTORE SWAP3 SWAP1 MSTORE DUP3 MSTORE SWAP1 KECCAK256 DUP1 SLOAD PUSH1 0x1 SWAP1 SWAP2 ADD SLOAD DUP3 JUMP JUMPDEST PUSH1 0x40 DUP1 MLOAD SWAP3 DUP4 MSTORE PUSH1 0x20 DUP4 ADD SWAP2 SWAP1 SWAP2 MSTORE ADD PUSH2 0x2B5 JUMP JUMPDEST PUSH2 0x28C PUSH2 0x5F4 CALLDATASIZE PUSH1 0x4 PUSH2 0x2901 JUMP JUMPDEST PUSH2 0x10E1 JUMP JUMPDEST PUSH2 0x2D1 PUSH2 0x607 CALLDATASIZE PUSH1 0x4 PUSH2 0x2A73 JUMP JUMPDEST PUSH2 0x115D JUMP JUMPDEST PUSH2 0x61F PUSH2 0x61A CALLDATASIZE PUSH1 0x4 PUSH2 0x2B4D JUMP JUMPDEST PUSH2 0x11C4 JUMP JUMPDEST PUSH1 0x40 MLOAD PUSH2 0x2B5 SWAP3 SWAP2 SWAP1 PUSH2 0x2C39 JUMP JUMPDEST PUSH2 0x28C PUSH2 0x13D9 JUMP JUMPDEST PUSH2 0x489 PUSH1 0x15 SLOAD DUP2 JUMP JUMPDEST PUSH2 0x2D1 PUSH2 0x64C CALLDATASIZE PUSH1 0x4 PUSH2 0x2A73 JUMP JUMPDEST PUSH2 0x140F JUMP JUMPDEST PUSH2 0x28C PUSH2 0x65F CALLDATASIZE PUSH1 0x4 PUSH2 0x2C54 JUMP JUMPDEST PUSH2 0x1472 JUMP JUMPDEST PUSH2 0x489 PUSH2 0x672 CALLDATASIZE PUSH1 0x4 PUSH2 0x2B11 JUMP JUMPDEST DUP1 MLOAD PUSH1 0x20 DUP2 DUP4 ADD DUP2 ADD DUP1 MLOAD PUSH1 0x9 DUP3 MSTORE SWAP3 DUP3 ADD SWAP2 SWAP1 SWAP4 ADD KECCAK256 SWAP2 MSTORE SLOAD DUP2 JUMP JUMPDEST PUSH1 0x0 SLOAD PUSH1 0x1 PUSH1 0x1 PUSH1 0xA0 SHL SUB AND PUSH2 0x2A1 JUMP JUMPDEST PUSH2 0x28C PUSH2 0x6AE CALLDATASIZE PUSH1 0x4 PUSH2 0x2901 JUMP JUMPDEST PUSH2 0x1564 JUMP JUMPDEST PUSH1 0xE SLOAD PUSH2 0x2A1 SWAP1 PUSH1 0x1 PUSH1 0x1 PUSH1 0xA0 SHL SUB AND DUP2 JUMP JUMPDEST PUSH2 0x28C PUSH2 0x6D4 CALLDATASIZE PUSH1 0x4 PUSH2 0x28BB JUMP JUMPDEST PUSH2 0x160A JUMP JUMPDEST PUSH2 0x2A1 PUSH2 0x6E7 CALLDATASIZE PUSH1 0x4 PUSH2 0x2C6F JUMP JUMPDEST PUSH1 0x1A PUSH1 0x20 MSTORE PUSH1 0x0 SWAP1 DUP2 MSTORE PUSH1 0x40 SWAP1 KECCAK256 SLOAD PUSH1 0x1 PUSH1 0x1 PUSH1 0xA0 SHL SUB AND DUP2 JUMP JUMPDEST PUSH2 0x3A9 PUSH2 0x710 CALLDATASIZE PUSH1 0x4 PUSH2 0x2BDF JUMP JUMPDEST PUSH2 0x16FC JUMP JUMPDEST PUSH2 0x28C PUSH2 0x723 CALLDATASIZE PUSH1 0x4 PUSH2 0x2901 JUMP JUMPDEST PUSH2 0x1884 JUMP JUMPDEST PUSH2 0x2D1 PUSH2 0x736 CALLDATASIZE PUSH1 0x4 PUSH2 0x29A9 JUMP JUMPDEST PUSH2 0x18D0 JUMP JUMPDEST PUSH2 0x489 PUSH1 0xC SLOAD DUP2 JUMP JUMPDEST PUSH2 0x489 PUSH2 0x752 CALLDATASIZE PUSH1 0x4 PUSH2 0x2770 JUMP JUMPDEST PUSH1 0x13 PUSH1 0x20 MSTORE PUSH1 0x0 SWAP1 DUP2 MSTORE PUSH1 0x40 SWAP1 KECCAK256 SLOAD DUP2 JUMP JUMPDEST PUSH2 0x28C PUSH2 0x772 CALLDATASIZE PUSH1 0x4 PUSH2 0x2901 JUMP JUMPDEST PUSH2 0x1932 JUMP JUMPDEST PUSH2 0x2A1 PUSH2 0x785 CALLDATASIZE PUSH1 0x4 PUSH2 0x2C8A JUMP JUMPDEST PUSH2 0x19CD JUMP JUMPDEST PUSH2 0x2A1 PUSH2 0x798 CALLDATASIZE PUSH1 0x4 PUSH2 0x2CD9 JUMP JUMPDEST PUSH2 0x1A21 JUMP JUMPDEST PUSH1 0x0 SLOAD PUSH1 0x1 PUSH1 0x1 PUSH1 0xA0 SHL SUB AND CALLER EQ PUSH2 0x7D0 JUMPI PUSH1 0x40 MLOAD PUSH3 0x461BCD PUSH1 0xE5 SHL DUP2 MSTORE PUSH1 0x4 ADD PUSH2 0x7C7 SWAP1 PUSH2 0x2D03 JUMP JUMPDEST PUSH1 0x40 MLOAD DUP1 SWAP2 SUB SWAP1 REVERT JUMPDEST PUSH1 0x1 PUSH1 0x1 PUSH1 0xA0 SHL SUB SWAP2 SWAP1 SWAP2 AND PUSH1 0x0 DUP2 DUP2 MSTORE PUSH1 0x16 PUSH1 0x20 MSTORE PUSH1 0x40 DUP2 KECCAK256 DUP1 SLOAD PUSH8 0xFFFFFFFFFFFFFFFF NOT AND PUSH1 0xC0 SWAP6 SWAP1 SWAP6 SHR SWAP5 DUP6 OR DUP2 SSTORE PUSH1 0x1 SWAP1 DUP2 ADD SWAP4 SWAP1 SWAP4 SSTORE PUSH1 0x17 DUP1 SLOAD DUP1 DUP6 ADD SWAP1 SWAP2 SSTORE PUSH32 0xC624B66CC0138B8FABC209247F72D758E1CF3343756D543BADBF24212BED8C15 PUSH1 0x4 DUP3 DIV ADD DUP1 SLOAD PUSH1 0x1 PUSH1 0x1 PUSH1 0x40 SHL SUB PUSH1 0x3 SWAP1 SWAP4 AND PUSH1 0x8 MUL PUSH2 0x100 EXP SWAP3 DUP4 MUL NOT AND SWAP2 SWAP1 SWAP6 MUL OR SWAP1 SWAP4 SSTORE PUSH1 0x18 DUP1 SLOAD SWAP3 DUP4 ADD DUP2 SSTORE SWAP1 SWAP3 MSTORE PUSH32 0xB13D2D76D1F4B7BE834882E410B3E3A8AFAF69F83600AE24DB354391D2378D2E ADD DUP1 SLOAD PUSH1 0x1 PUSH1 0x1 PUSH1 0xA0 SHL SUB NOT AND SWAP1 SWAP2 OR SWAP1 SSTORE JUMP JUMPDEST PUSH1 0x5 DUP2 DUP2 SLOAD DUP2 LT PUSH2 0x8AF JUMPI PUSH1 0x0 DUP1 REVERT JUMPDEST SWAP1 PUSH1 0x0 MSTORE PUSH1 0x20 PUSH1 0x0 KECCAK256 ADD PUSH1 0x0 SWAP2 POP SWAP1 POP DUP1 SLOAD PUSH2 0x8CA SWAP1 PUSH2 0x2D38 JUMP JUMPDEST DUP1 PUSH1 0x1F ADD PUSH1 0x20 DUP1 SWAP2 DIV MUL PUSH1 0x20 ADD PUSH1 0x40 MLOAD SWAP1 DUP2 ADD PUSH1 0x40 MSTORE DUP1 SWAP3 SWAP2 SWAP1 DUP2 DUP2 MSTORE PUSH1 0x20 ADD DUP3 DUP1 SLOAD PUSH2 0x8F6 SWAP1 PUSH2 0x2D38 JUMP JUMPDEST DUP1 ISZERO PUSH2 0x943 JUMPI DUP1 PUSH1 0x1F LT PUSH2 0x918 JUMPI PUSH2 0x100 DUP1 DUP4 SLOAD DIV MUL DUP4 MSTORE SWAP2 PUSH1 0x20 ADD SWAP2 PUSH2 0x943 JUMP JUMPDEST DUP3 ADD SWAP2 SWAP1 PUSH1 0x0 MSTORE PUSH1 0x20 PUSH1 0x0 KECCAK256 SWAP1 JUMPDEST DUP2 SLOAD DUP2 MSTORE SWAP1 PUSH1 0x1 ADD SWAP1 PUSH1 0x20 ADD DUP1 DUP4 GT PUSH2 0x926 JUMPI DUP3 SWAP1 SUB PUSH1 0x1F AND DUP3 ADD SWAP2 JUMPDEST POP POP POP POP POP DUP2 JUMP JUMPDEST PUSH8 0x8AC7230489E80000 PUSH2 0x12C TIMESTAMP DUP5 GT PUSH2 0x963 JUMPI PUSH1 0x0 DUP1 REVERT JUMPDEST PUSH1 0x11 SLOAD PUSH1 0x40 MLOAD PUSH4 0x6EB1769F PUSH1 0xE1 SHL DUP2 MSTORE CALLER PUSH1 0x4 DUP3 ADD MSTORE ADDRESS PUSH1 0x24 DUP3 ADD MSTORE DUP4 SWAP2 PUSH1 0x1 PUSH1 0x1 PUSH1 0xA0 SHL SUB AND SWAP1 PUSH4 0xDD62ED3E SWAP1 PUSH1 0x44 ADD PUSH1 0x20 PUSH1 0x40 MLOAD DUP1 DUP4 SUB DUP2 DUP7 GAS STATICCALL ISZERO DUP1 ISZERO PUSH2 0x9B1 JUMPI RETURNDATASIZE PUSH1 0x0 DUP1 RETURNDATACOPY RETURNDATASIZE PUSH1 0x0 REVERT JUMPDEST POP POP POP POP PUSH1 0x40 MLOAD RETURNDATASIZE PUSH1 0x1F NOT PUSH1 0x1F DUP3 ADD AND DUP3 ADD DUP1 PUSH1 0x40 MSTORE POP DUP2 ADD SWAP1 PUSH2 0x9D5 SWAP2 SWAP1 PUSH2 0x2D73 JUMP JUMPDEST LT ISZERO PUSH2 0x9E0 JUMPI PUSH1 0x0 DUP1 REVERT JUMPDEST PUSH1 0x11 SLOAD PUSH1 0x40 MLOAD PUSH4 0x23B872DD PUSH1 0xE0 SHL DUP2 MSTORE CALLER PUSH1 0x4 DUP3 ADD MSTORE ADDRESS PUSH1 0x24 DUP3 ADD MSTORE PUSH1 0x44 DUP2 ADD DUP5 SWAP1 MSTORE PUSH1 0x1 PUSH1 0x1 PUSH1 0xA0 SHL SUB SWAP1 SWAP2 AND SWAP1 PUSH4 0x23B872DD SWAP1 PUSH1 0x64 ADD PUSH1 0x20 PUSH1 0x40 MLOAD DUP1 DUP4 SUB DUP2 PUSH1 0x0 DUP8 GAS CALL ISZERO DUP1 ISZERO PUSH2 0xA37 JUMPI RETURNDATASIZE PUSH1 0x0 DUP1 RETURNDATACOPY RETURNDATASIZE PUSH1 0x0 REVERT JUMPDEST POP POP POP POP PUSH1 0x40 MLOAD RETURNDATASIZE PUSH1 0x1F NOT PUSH1 0x1F DUP3 ADD AND DUP3 ADD DUP1 PUSH1 0x40 MSTORE POP DUP2 ADD SWAP1 PUSH2 0xA5B SWAP2 SWAP1 PUSH2 0x2D8C JUMP JUMPDEST POP DUP2 PUSH1 0x14 PUSH1 0x0 PUSH1 0x9 DUP7 PUSH1 0x40 MLOAD PUSH2 0xA71 SWAP2 SWAP1 PUSH2 0x2DAE JUMP JUMPDEST SWAP1 DUP2 MSTORE PUSH1 0x20 ADD PUSH1 0x40 MLOAD DUP1 SWAP2 SUB SWAP1 KECCAK256 SLOAD DUP2 MSTORE PUSH1 0x20 ADD SWAP1 DUP2 MSTORE PUSH1 0x20 ADD PUSH1 0x0 KECCAK256 DUP5 PUSH1 0x40 MLOAD PUSH2 0xA9C SWAP2 SWAP1 PUSH2 0x2DAE JUMP JUMPDEST SWAP1 DUP2 MSTORE PUSH1 0x20 ADD PUSH1 0x40 MLOAD DUP1 SWAP2 SUB SWAP1 KECCAK256 PUSH1 0x3 ADD PUSH1 0x0 DUP3 DUP3 SLOAD PUSH2 0xABC SWAP2 SWAP1 PUSH2 0x2DE0 JUMP JUMPDEST SWAP3 POP POP DUP2 SWAP1 SSTORE POP PUSH7 0x1FF973CAFA8000 PUSH1 0x14 PUSH1 0x0 PUSH1 0x9 DUP7 PUSH1 0x40 MLOAD PUSH2 0xADF SWAP2 SWAP1 PUSH2 0x2DAE JUMP JUMPDEST SWAP1 DUP2 MSTORE PUSH1 0x20 ADD PUSH1 0x40 MLOAD DUP1 SWAP2 SUB SWAP1 KECCAK256 SLOAD DUP2 MSTORE PUSH1 0x20 ADD SWAP1 DUP2 MSTORE PUSH1 0x20 ADD PUSH1 0x0 KECCAK256 DUP5 PUSH1 0x40 MLOAD PUSH2 0xB0A SWAP2 SWAP1 PUSH2 0x2DAE JUMP JUMPDEST SWAP1 DUP2 MSTORE PUSH1 0x20 ADD PUSH1 0x40 MLOAD DUP1 SWAP2 SUB SWAP1 KECCAK256 PUSH1 0x1 ADD PUSH1 0x0 DUP3 DUP3 SLOAD PUSH2 0xB2A SWAP2 SWAP1 PUSH2 0x2DE0 JUMP JUMPDEST SWAP3 POP POP DUP2 SWAP1 SSTORE POP DUP2 PUSH1 0x15 PUSH1 0x0 DUP3 DUP3 SLOAD PUSH2 0xB43 SWAP2 SWAP1 PUSH2 0x2DE0 JUMP JUMPDEST SWAP1 SWAP2 SSTORE POP PUSH2 0xB52 SWAP1 POP DUP3 PUSH2 0x1A59 JUMP JUMPDEST PUSH2 0xB5C DUP5 DUP5 PUSH2 0x1B4C JUMP JUMPDEST CALLER PUSH32 0x8FC5FCAFAB42750870DEFC62F202C0D262793ECA86BA9B802B7F22B102DD44B8 DUP6 PUSH2 0xB89 DUP5 DUP3 PUSH2 0x2DE0 JUMP JUMPDEST PUSH1 0x40 DUP1 MLOAD SWAP3 DUP4 MSTORE PUSH1 0x20 DUP4 ADD SWAP2 SWAP1 SWAP2 MSTORE ADD PUSH1 0x40 MLOAD DUP1 SWAP2 SUB SWAP1 LOG2 POP POP POP POP JUMP JUMPDEST PUSH1 0x0 JUMPDEST PUSH1 0x7 SLOAD DUP2 LT ISZERO PUSH2 0xC02 JUMPI CALLER PUSH1 0x1 PUSH1 0x1 PUSH1 0xA0 SHL SUB AND PUSH1 0x7 DUP3 DUP2 SLOAD DUP2 LT PUSH2 0xBD1 JUMPI PUSH2 0xBD1 PUSH2 0x2DF8 JUMP JUMPDEST PUSH1 0x0 SWAP2 DUP3 MSTORE PUSH1 0x20 SWAP1 SWAP2 KECCAK256 ADD SLOAD PUSH1 0x1 PUSH1 0x1 PUSH1 0xA0 SHL SUB AND EQ PUSH2 0xBF0 JUMPI PUSH1 0x0 DUP1 REVERT JUMPDEST DUP1 PUSH2 0xBFA DUP2 PUSH2 0x2E0E JUMP JUMPDEST SWAP2 POP POP PUSH2 0xBAA JUMP JUMPDEST POP PUSH1 0x10 DUP1 SLOAD PUSH1 0x1 PUSH1 0x1 PUSH1 0xA0 SHL SUB NOT AND PUSH1 0x1 PUSH1 0x1 PUSH1 0xA0 SHL SUB SWAP3 SWAP1 SWAP3 AND SWAP2 SWAP1 SWAP2 OR SWAP1 SSTORE JUMP JUMPDEST PUSH1 0x40 MLOAD PUSH3 0x461BCD PUSH1 0xE5 SHL DUP2 MSTORE PUSH1 0x20 PUSH1 0x4 DUP3 ADD MSTORE PUSH1 0x2E PUSH1 0x24 DUP3 ADD MSTORE PUSH32 0x556E737570706F727465642063616C6C6261636B202D20416674657220416772 PUSH1 0x44 DUP3 ADD MSTORE PUSH14 0x19595B595B9D08155C19185D1959 PUSH1 0x92 SHL PUSH1 0x64 DUP3 ADD MSTORE PUSH1 0x60 SWAP1 PUSH1 0x84 ADD PUSH2 0x7C7 JUMP JUMPDEST PUSH1 0x4 DUP2 DUP2 SLOAD DUP2 LT PUSH2 0xC97 JUMPI PUSH1 0x0 DUP1 REVERT JUMPDEST PUSH1 0x0 SWAP2 DUP3 MSTORE PUSH1 0x20 SWAP1 SWAP2 KECCAK256 ADD SLOAD PUSH1 0x1 PUSH1 0x1 PUSH1 0xA0 SHL SUB AND SWAP1 POP DUP2 JUMP JUMPDEST PUSH1 0x40 MLOAD PUSH3 0x461BCD PUSH1 0xE5 SHL DUP2 MSTORE PUSH1 0x20 PUSH1 0x4 DUP3 ADD MSTORE PUSH1 0x2F PUSH1 0x24 DUP3 ADD MSTORE PUSH32 0x556E737570706F727465642063616C6C6261636B202D204265666F7265204167 PUSH1 0x44 DUP3 ADD MSTORE PUSH15 0x1C99595B595B9D0810DC99585D1959 PUSH1 0x8A SHL PUSH1 0x64 DUP3 ADD MSTORE PUSH1 0x60 SWAP1 PUSH1 0x84 ADD PUSH2 0x7C7 JUMP JUMPDEST PUSH1 0x0 PUSH2 0xD22 DUP3 DUP5 ADD DUP5 PUSH2 0x2770 JUMP JUMPDEST PUSH1 0x5 SLOAD SWAP1 SWAP2 POP DUP2 GT PUSH2 0xDDC JUMPI PUSH2 0xDDC PUSH1 0x5 DUP3 DUP2 SLOAD DUP2 LT PUSH2 0xD44 JUMPI PUSH2 0xD44 PUSH2 0x2DF8 JUMP JUMPDEST SWAP1 PUSH1 0x0 MSTORE PUSH1 0x20 PUSH1 0x0 KECCAK256 ADD DUP1 SLOAD PUSH2 0xD59 SWAP1 PUSH2 0x2D38 JUMP JUMPDEST DUP1 PUSH1 0x1F ADD PUSH1 0x20 DUP1 SWAP2 DIV MUL PUSH1 0x20 ADD PUSH1 0x40 MLOAD SWAP1 DUP2 ADD PUSH1 0x40 MSTORE DUP1 SWAP3 SWAP2 SWAP1 DUP2 DUP2 MSTORE PUSH1 0x20 ADD DUP3 DUP1 SLOAD PUSH2 0xD85 SWAP1 PUSH2 0x2D38 JUMP JUMPDEST DUP1 ISZERO PUSH2 0xDD2 JUMPI DUP1 PUSH1 0x1F LT PUSH2 0xDA7 JUMPI PUSH2 0x100 DUP1 DUP4 SLOAD DIV MUL DUP4 MSTORE SWAP2 PUSH1 0x20 ADD SWAP2 PUSH2 0xDD2 JUMP JUMPDEST DUP3 ADD SWAP2 SWAP1 PUSH1 0x0 MSTORE PUSH1 0x20 PUSH1 0x0 KECCAK256 SWAP1 JUMPDEST DUP2 SLOAD DUP2 MSTORE SWAP1 PUSH1 0x1 ADD SWAP1 PUSH1 0x20 ADD DUP1 DUP4 GT PUSH2 0xDB5 JUMPI DUP3 SWAP1 SUB PUSH1 0x1F AND DUP3 ADD SWAP2 JUMPDEST POP POP POP POP POP PUSH2 0x1D5A JUMP JUMPDEST DUP1 PUSH2 0x3E8 EQ ISZERO PUSH2 0xE26 JUMPI PUSH3 0x278D00 PUSH1 0xB PUSH1 0x0 DUP3 DUP3 SLOAD PUSH2 0xDFB SWAP2 SWAP1 PUSH2 0x2DE0 JUMP JUMPDEST SWAP1 SWAP2 SSTORE POP POP PUSH1 0x12 SLOAD PUSH2 0xE15 SWAP1 PUSH1 0x1 PUSH1 0x1 PUSH1 0xA0 SHL SUB AND PUSH2 0x1DC6 JUMP JUMPDEST POP PUSH2 0xE1E PUSH2 0x1FD0 JUMP JUMPDEST PUSH2 0xE26 PUSH2 0x20F3 JUMP JUMPDEST POP POP POP JUMP JUMPDEST PUSH1 0x7 DUP2 DUP2 SLOAD DUP2 LT PUSH2 0xC97 JUMPI PUSH1 0x0 DUP1 REVERT JUMPDEST PUSH1 0x0 SLOAD PUSH1 0x1 PUSH1 0x1 PUSH1 0xA0 SHL SUB AND CALLER EQ PUSH2 0xE65 JUMPI PUSH1 0x40 MLOAD PUSH3 0x461BCD PUSH1 0xE5 SHL DUP2 MSTORE PUSH1 0x4 ADD PUSH2 0x7C7 SWAP1 PUSH2 0x2D03 JUMP JUMPDEST PUSH1 0x5 SLOAD PUSH1 0x64 GT PUSH2 0xE74 JUMPI PUSH1 0x0 DUP1 REVERT JUMPDEST DUP1 PUSH1 0x8 DUP4 PUSH1 0x40 MLOAD PUSH2 0xE85 SWAP2 SWAP1 PUSH2 0x2DAE JUMP JUMPDEST SWAP1 DUP2 MSTORE PUSH1 0x40 MLOAD PUSH1 0x20 SWAP2 DUP2 SWAP1 SUB DUP3 ADD SWAP1 KECCAK256 DUP1 SLOAD PUSH1 0x1 PUSH1 0x1 PUSH1 0xA0 SHL SUB NOT AND PUSH1 0x1 PUSH1 0x1 PUSH1 0xA0 SHL SUB SWAP4 SWAP1 SWAP4 AND SWAP3 SWAP1 SWAP3 OR SWAP1 SWAP2 SSTORE PUSH1 0x5 DUP1 SLOAD PUSH1 0x1 DUP2 ADD DUP3 SSTORE PUSH1 0x0 SWAP2 SWAP1 SWAP2 MSTORE DUP4 MLOAD PUSH2 0xEF7 SWAP3 PUSH32 0x36B6384B5ECA791C62761152D0C79BB0604C104A5FB6F4EB0703F3154BB3DB0 SWAP1 SWAP3 ADD SWAP2 DUP6 ADD SWAP1 PUSH2 0x2666 JUMP JUMPDEST POP PUSH1 0x6 DUP1 SLOAD PUSH1 0x1 DUP2 ADD DUP3 SSTORE PUSH1 0x0 SWAP2 SWAP1 SWAP2 MSTORE PUSH32 0xF652222313E28459528D920B65115C16C04F3EFC82AAEDC97BE59F3F377C0D3F ADD DUP1 SLOAD PUSH1 0x1 PUSH1 0x1 PUSH1 0xA0 SHL SUB NOT AND PUSH1 0x1 PUSH1 0x1 PUSH1 0xA0 SHL SUB SWAP3 SWAP1 SWAP3 AND SWAP2 SWAP1 SWAP2 OR SWAP1 SSTORE POP JUMP JUMPDEST PUSH1 0x0 DUP1 PUSH1 0x8 DUP4 PUSH1 0x40 MLOAD PUSH2 0xF5E SWAP2 SWAP1 PUSH2 0x2DAE JUMP JUMPDEST SWAP1 DUP2 MSTORE PUSH1 0x20 ADD PUSH1 0x40 MLOAD DUP1 SWAP2 SUB SWAP1 KECCAK256 PUSH1 0x0 SWAP1 SLOAD SWAP1 PUSH2 0x100 EXP SWAP1 DIV PUSH1 0x1 PUSH1 0x1 PUSH1 0xA0 SHL SUB AND SWAP1 POP PUSH1 0x0 DUP2 PUSH1 0x1 PUSH1 0x1 PUSH1 0xA0 SHL SUB AND PUSH4 0xFEAF968C PUSH1 0x40 MLOAD DUP2 PUSH4 0xFFFFFFFF AND PUSH1 0xE0 SHL DUP2 MSTORE PUSH1 0x4 ADD PUSH1 0xA0 PUSH1 0x40 MLOAD DUP1 DUP4 SUB DUP2 DUP7 GAS STATICCALL ISZERO DUP1 ISZERO PUSH2 0xFC2 JUMPI RETURNDATASIZE PUSH1 0x0 DUP1 RETURNDATACOPY RETURNDATASIZE PUSH1 0x0 REVERT JUMPDEST POP POP POP POP PUSH1 0x40 MLOAD RETURNDATASIZE PUSH1 0x1F NOT PUSH1 0x1F DUP3 ADD AND DUP3 ADD DUP1 PUSH1 0x40 MSTORE POP DUP2 ADD SWAP1 PUSH2 0xFE6 SWAP2 SWAP1 PUSH2 0x2E43 JUMP JUMPDEST POP SWAP2 SWAP8 SWAP7 POP POP POP POP POP POP POP JUMP JUMPDEST PUSH1 0x40 MLOAD PUSH3 0x461BCD PUSH1 0xE5 SHL DUP2 MSTORE PUSH1 0x20 PUSH1 0x4 DUP3 ADD MSTORE PUSH1 0x31 PUSH1 0x24 DUP3 ADD MSTORE PUSH32 0x556E737570706F727465642063616C6C6261636B202D20416674657220416772 PUSH1 0x44 DUP3 ADD MSTORE PUSH17 0x19595B595B9D0815195C9B5A5B985D1959 PUSH1 0x7A SHL PUSH1 0x64 DUP3 ADD MSTORE PUSH1 0x60 SWAP1 PUSH1 0x84 ADD PUSH2 0x7C7 JUMP JUMPDEST PUSH1 0x0 DUP1 PUSH20 0x6135B13325BFC4B00278B4ABC5E20BBCE2D6580E SWAP1 POP PUSH1 0x0 DUP2 PUSH1 0x1 PUSH1 0x1 PUSH1 0xA0 SHL SUB AND PUSH4 0xFEAF968C PUSH1 0x40 MLOAD DUP2 PUSH4 0xFFFFFFFF AND PUSH1 0xE0 SHL DUP2 MSTORE PUSH1 0x4 ADD PUSH1 0xA0 PUSH1 0x40 MLOAD DUP1 DUP4 SUB DUP2 DUP7 GAS STATICCALL ISZERO DUP1 ISZERO PUSH2 0x10B2 JUMPI RETURNDATASIZE PUSH1 0x0 DUP1 RETURNDATACOPY RETURNDATASIZE PUSH1 0x0 REVERT JUMPDEST POP POP POP POP PUSH1 0x40 MLOAD RETURNDATASIZE PUSH1 0x1F NOT PUSH1 0x1F DUP3 ADD AND DUP3 ADD DUP1 PUSH1 0x40 MSTORE POP DUP2 ADD SWAP1 PUSH2 0x10D6 SWAP2 SWAP1 PUSH2 0x2E43 JUMP JUMPDEST POP SWAP7 SWAP6 POP POP POP POP POP POP JUMP JUMPDEST PUSH1 0x0 SLOAD PUSH1 0x1 PUSH1 0x1 PUSH1 0xA0 SHL SUB AND CALLER EQ PUSH2 0x110B JUMPI PUSH1 0x40 MLOAD PUSH3 0x461BCD PUSH1 0xE5 SHL DUP2 MSTORE PUSH1 0x4 ADD PUSH2 0x7C7 SWAP1 PUSH2 0x2D03 JUMP JUMPDEST PUSH1 0x7 DUP1 SLOAD PUSH1 0x1 DUP2 ADD DUP3 SSTORE PUSH1 0x0 SWAP2 SWAP1 SWAP2 MSTORE PUSH32 0xA66CC928B5EDB82AF9BD49922954155AB7B0942694BEA4CE44661D9A8736C688 ADD DUP1 SLOAD PUSH1 0x1 PUSH1 0x1 PUSH1 0xA0 SHL SUB NOT AND PUSH1 0x1 PUSH1 0x1 PUSH1 0xA0 SHL SUB SWAP3 SWAP1 SWAP3 AND SWAP2 SWAP1 SWAP2 OR SWAP1 SSTORE JUMP JUMPDEST PUSH1 0x40 MLOAD PUSH3 0x461BCD PUSH1 0xE5 SHL DUP2 MSTORE PUSH1 0x20 PUSH1 0x4 DUP3 ADD MSTORE PUSH1 0x33 PUSH1 0x24 DUP3 ADD MSTORE PUSH32 0x556E737570706F727465642063616C6C6261636B202D20204265666F72652041 PUSH1 0x44 DUP3 ADD MSTORE PUSH19 0x19DC99595B595B9D0815195C9B5A5B985D1959 PUSH1 0x6A SHL PUSH1 0x64 DUP3 ADD MSTORE PUSH1 0x60 SWAP1 PUSH1 0x84 ADD PUSH2 0x7C7 JUMP JUMPDEST PUSH1 0x0 PUSH1 0x60 PUSH1 0x0 JUMPDEST PUSH1 0x5 SLOAD DUP2 LT ISZERO PUSH2 0x1356 JUMPI PUSH1 0x14 PUSH1 0x0 PUSH1 0x9 PUSH1 0x5 DUP5 DUP2 SLOAD DUP2 LT PUSH2 0x11EE JUMPI PUSH2 0x11EE PUSH2 0x2DF8 JUMP JUMPDEST SWAP1 PUSH1 0x0 MSTORE PUSH1 0x20 PUSH1 0x0 KECCAK256 ADD PUSH1 0x40 MLOAD PUSH2 0x1205 SWAP2 SWAP1 PUSH2 0x2E93 JUMP JUMPDEST SWAP1 DUP2 MSTORE PUSH1 0x20 ADD PUSH1 0x40 MLOAD DUP1 SWAP2 SUB SWAP1 KECCAK256 SLOAD DUP2 MSTORE PUSH1 0x20 ADD SWAP1 DUP2 MSTORE PUSH1 0x20 ADD PUSH1 0x0 KECCAK256 PUSH1 0x5 DUP3 DUP2 SLOAD DUP2 LT PUSH2 0x1235 JUMPI PUSH2 0x1235 PUSH2 0x2DF8 JUMP JUMPDEST SWAP1 PUSH1 0x0 MSTORE PUSH1 0x20 PUSH1 0x0 KECCAK256 ADD PUSH1 0x40 MLOAD PUSH2 0x124C SWAP2 SWAP1 PUSH2 0x2E93 JUMP JUMPDEST SWAP1 DUP2 MSTORE PUSH1 0x20 ADD PUSH1 0x40 MLOAD DUP1 SWAP2 SUB SWAP1 KECCAK256 PUSH1 0x0 ADD SLOAD PUSH2 0x130C PUSH1 0x5 DUP4 DUP2 SLOAD DUP2 LT PUSH2 0x1274 JUMPI PUSH2 0x1274 PUSH2 0x2DF8 JUMP JUMPDEST SWAP1 PUSH1 0x0 MSTORE PUSH1 0x20 PUSH1 0x0 KECCAK256 ADD DUP1 SLOAD PUSH2 0x1289 SWAP1 PUSH2 0x2D38 JUMP JUMPDEST DUP1 PUSH1 0x1F ADD PUSH1 0x20 DUP1 SWAP2 DIV MUL PUSH1 0x20 ADD PUSH1 0x40 MLOAD SWAP1 DUP2 ADD PUSH1 0x40 MSTORE DUP1 SWAP3 SWAP2 SWAP1 DUP2 DUP2 MSTORE PUSH1 0x20 ADD DUP3 DUP1 SLOAD PUSH2 0x12B5 SWAP1 PUSH2 0x2D38 JUMP JUMPDEST DUP1 ISZERO PUSH2 0x1302 JUMPI DUP1 PUSH1 0x1F LT PUSH2 0x12D7 JUMPI PUSH2 0x100 DUP1 DUP4 SLOAD DIV MUL DUP4 MSTORE SWAP2 PUSH1 0x20 ADD SWAP2 PUSH2 0x1302 JUMP JUMPDEST DUP3 ADD SWAP2 SWAP1 PUSH1 0x0 MSTORE PUSH1 0x20 PUSH1 0x0 KECCAK256 SWAP1 JUMPDEST DUP2 SLOAD DUP2 MSTORE SWAP1 PUSH1 0x1 ADD SWAP1 PUSH1 0x20 ADD DUP1 DUP4 GT PUSH2 0x12E5 JUMPI DUP3 SWAP1 SUB PUSH1 0x1F AND DUP3 ADD SWAP2 JUMPDEST POP POP POP POP POP PUSH2 0xF4B JUMP JUMPDEST EQ ISZERO PUSH2 0x1344 JUMPI PUSH1 0x1 SWAP3 POP PUSH1 0x1 DUP2 PUSH1 0x40 MLOAD PUSH1 0x20 ADD PUSH2 0x132B SWAP2 DUP2 MSTORE PUSH1 0x20 ADD SWAP1 JUMP JUMPDEST PUSH1 0x40 MLOAD PUSH1 0x20 DUP2 DUP4 SUB SUB DUP2 MSTORE SWAP1 PUSH1 0x40 MSTORE SWAP3 POP SWAP3 POP POP PUSH2 0x13D2 JUMP JUMPDEST DUP1 PUSH2 0x134E DUP2 PUSH2 0x2E0E JUMP JUMPDEST SWAP2 POP POP PUSH2 0x11CB JUMP JUMPDEST POP PUSH1 0xB SLOAD PUSH2 0x1367 SWAP1 PUSH3 0x278D00 PUSH2 0x2DE0 JUMP JUMPDEST TIMESTAMP LT PUSH2 0x1398 JUMPI PUSH1 0x40 DUP1 MLOAD PUSH2 0x3E8 PUSH1 0x20 DUP3 ADD MSTORE PUSH1 0x1 SWAP4 POP DUP4 SWAP2 ADD PUSH1 0x40 MLOAD PUSH1 0x20 DUP2 DUP4 SUB SUB DUP2 MSTORE SWAP1 PUSH1 0x40 MSTORE SWAP2 POP SWAP2 POP PUSH2 0x13D2 JUMP JUMPDEST DUP4 DUP4 DUP1 DUP1 PUSH1 0x1F ADD PUSH1 0x20 DUP1 SWAP2 DIV MUL PUSH1 0x20 ADD PUSH1 0x40 MLOAD SWAP1 DUP2 ADD PUSH1 0x40 MSTORE DUP1 SWAP4 SWAP3 SWAP2 SWAP1 DUP2 DUP2 MSTORE PUSH1 0x20 ADD DUP4 DUP4 DUP1 DUP3 DUP5 CALLDATACOPY PUSH1 0x0 SWAP3 ADD SWAP2 SWAP1 SWAP2 MSTORE POP SWAP3 SWAP4 POP POP POP POP JUMPDEST SWAP3 POP SWAP3 SWAP1 POP JUMP JUMPDEST PUSH1 0x0 SLOAD PUSH1 0x1 PUSH1 0x1 PUSH1 0xA0 SHL SUB AND CALLER EQ PUSH2 0x1403 JUMPI PUSH1 0x40 MLOAD PUSH3 0x461BCD PUSH1 0xE5 SHL DUP2 MSTORE PUSH1 0x4 ADD PUSH2 0x7C7 SWAP1 PUSH2 0x2D03 JUMP JUMPDEST PUSH2 0x140D PUSH1 0x0 PUSH2 0x21AF JUMP JUMPDEST JUMP JUMPDEST PUSH1 0x40 MLOAD PUSH3 0x461BCD PUSH1 0xE5 SHL DUP2 MSTORE PUSH1 0x20 PUSH1 0x4 DUP3 ADD MSTORE PUSH1 0x2F PUSH1 0x24 DUP3 ADD MSTORE PUSH32 0x556E737570706F727465642063616C6C6261636B202D204265666F7265204167 PUSH1 0x44 DUP3 ADD MSTORE PUSH15 0x1C99595B595B9D081D5C19185D1959 PUSH1 0x8A SHL PUSH1 0x64 DUP3 ADD MSTORE PUSH1 0x60 SWAP1 PUSH1 0x84 ADD PUSH2 0x7C7 JUMP JUMPDEST PUSH1 0x0 JUMPDEST PUSH1 0xA SLOAD PUSH1 0x1 PUSH1 0x1 PUSH1 0x80 SHL SUB AND PUSH1 0x0 SWAP1 DUP2 MSTORE PUSH1 0x1B PUSH1 0x20 MSTORE PUSH1 0x40 SWAP1 KECCAK256 SLOAD DUP2 LT ISZERO PUSH2 0x14F7 JUMPI PUSH1 0xA SLOAD PUSH1 0x1 PUSH1 0x1 PUSH1 0x80 SHL SUB AND PUSH1 0x0 SWAP1 DUP2 MSTORE PUSH1 0x1B PUSH1 0x20 MSTORE PUSH1 0x40 SWAP1 KECCAK256 DUP1 SLOAD CALLER SWAP2 SWAP1 DUP4 SWAP1 DUP2 LT PUSH2 0x14C6 JUMPI PUSH2 0x14C6 PUSH2 0x2DF8 JUMP JUMPDEST PUSH1 0x0 SWAP2 DUP3 MSTORE PUSH1 0x20 SWAP1 SWAP2 KECCAK256 ADD SLOAD PUSH1 0x1 PUSH1 0x1 PUSH1 0xA0 SHL SUB AND EQ PUSH2 0x14E5 JUMPI PUSH1 0x0 DUP1 REVERT JUMPDEST DUP1 PUSH2 0x14EF DUP2 PUSH2 0x2E0E JUMP JUMPDEST SWAP2 POP POP PUSH2 0x1475 JUMP JUMPDEST POP PUSH1 0xA SLOAD PUSH1 0x1 PUSH1 0x1 PUSH1 0x80 SHL SUB SWAP1 DUP2 AND PUSH1 0x0 SWAP1 DUP2 MSTORE PUSH1 0x19 PUSH1 0x20 SWAP1 DUP2 MSTORE PUSH1 0x40 DUP1 DUP4 KECCAK256 PUSH1 0x1 PUSH1 0x1 PUSH1 0xC0 SHL SUB NOT DUP7 AND DUP5 MSTORE SWAP1 SWAP2 MSTORE DUP2 KECCAK256 DUP1 SLOAD PUSH1 0x1 SWAP4 SWAP2 SWAP3 SWAP2 PUSH2 0x153D SWAP2 DUP6 SWAP2 AND PUSH2 0x2F2F JUMP JUMPDEST SWAP3 POP PUSH2 0x100 EXP DUP2 SLOAD DUP2 PUSH1 0x1 PUSH1 0x1 PUSH1 0x80 SHL SUB MUL NOT AND SWAP1 DUP4 PUSH1 0x1 PUSH1 0x1 PUSH1 0x80 SHL SUB AND MUL OR SWAP1 SSTORE POP POP JUMP JUMPDEST PUSH1 0x0 JUMPDEST PUSH1 0x7 SLOAD DUP2 LT ISZERO PUSH2 0x15BF JUMPI CALLER PUSH1 0x1 PUSH1 0x1 PUSH1 0xA0 SHL SUB AND PUSH1 0x7 DUP3 DUP2 SLOAD DUP2 LT PUSH2 0x158E JUMPI PUSH2 0x158E PUSH2 0x2DF8 JUMP JUMPDEST PUSH1 0x0 SWAP2 DUP3 MSTORE PUSH1 0x20 SWAP1 SWAP2 KECCAK256 ADD SLOAD PUSH1 0x1 PUSH1 0x1 PUSH1 0xA0 SHL SUB AND EQ PUSH2 0x15AD JUMPI PUSH1 0x0 DUP1 REVERT JUMPDEST DUP1 PUSH2 0x15B7 DUP2 PUSH2 0x2E0E JUMP JUMPDEST SWAP2 POP POP PUSH2 0x1567 JUMP JUMPDEST POP PUSH1 0xA SLOAD PUSH1 0x1 PUSH1 0x1 PUSH1 0x80 SHL SUB AND PUSH1 0x0 SWAP1 DUP2 MSTORE PUSH1 0x1B PUSH1 0x20 SWAP1 DUP2 MSTORE PUSH1 0x40 DUP3 KECCAK256 DUP1 SLOAD PUSH1 0x1 DUP2 ADD DUP3 SSTORE SWAP1 DUP4 MSTORE SWAP2 KECCAK256 ADD DUP1 SLOAD PUSH1 0x1 PUSH1 0x1 PUSH1 0xA0 SHL SUB NOT AND PUSH1 0x1 PUSH1 0x1 PUSH1 0xA0 SHL SUB SWAP3 SWAP1 SWAP3 AND SWAP2 SWAP1 SWAP2 OR SWAP1 SSTORE JUMP JUMPDEST PUSH1 0x0 SLOAD PUSH1 0x1 PUSH1 0x1 PUSH1 0xA0 SHL SUB AND CALLER EQ PUSH2 0x1634 JUMPI PUSH1 0x40 MLOAD PUSH3 0x461BCD PUSH1 0xE5 SHL DUP2 MSTORE PUSH1 0x4 ADD PUSH2 0x7C7 SWAP1 PUSH2 0x2D03 JUMP JUMPDEST PUSH1 0x40 MLOAD DUP1 PUSH1 0xC0 ADD PUSH1 0x40 MSTORE DUP1 DUP4 DUP2 MSTORE PUSH1 0x20 ADD PUSH1 0x0 DUP2 MSTORE PUSH1 0x20 ADD PUSH2 0x1655 DUP4 PUSH2 0xF4B JUMP JUMPDEST DUP2 MSTORE PUSH1 0x20 ADD PUSH1 0x0 DUP2 MSTORE PUSH1 0x20 ADD PUSH2 0x1669 PUSH2 0x1058 JUMP JUMPDEST DUP2 MSTORE PUSH1 0x20 ADD PUSH1 0x0 DUP2 MSTORE POP PUSH1 0x14 PUSH1 0x0 PUSH1 0x9 DUP5 PUSH1 0x40 MLOAD PUSH2 0x1687 SWAP2 SWAP1 PUSH2 0x2DAE JUMP JUMPDEST SWAP1 DUP2 MSTORE PUSH1 0x20 ADD PUSH1 0x40 MLOAD DUP1 SWAP2 SUB SWAP1 KECCAK256 SLOAD DUP2 MSTORE PUSH1 0x20 ADD SWAP1 DUP2 MSTORE PUSH1 0x20 ADD PUSH1 0x0 KECCAK256 DUP3 PUSH1 0x40 MLOAD PUSH2 0x16B2 SWAP2 SWAP1 PUSH2 0x2DAE JUMP JUMPDEST SWAP1 DUP2 MSTORE PUSH1 0x40 DUP1 MLOAD PUSH1 0x20 SWAP3 DUP2 SWAP1 SUB DUP4 ADD SWAP1 KECCAK256 DUP4 MLOAD DUP2 SSTORE SWAP2 DUP4 ADD MLOAD PUSH1 0x1 DUP4 ADD SSTORE DUP3 ADD MLOAD PUSH1 0x2 DUP3 ADD SSTORE PUSH1 0x60 DUP3 ADD MLOAD PUSH1 0x3 DUP3 ADD SSTORE PUSH1 0x80 DUP3 ADD MLOAD PUSH1 0x4 DUP3 ADD SSTORE PUSH1 0xA0 SWAP1 SWAP2 ADD MLOAD PUSH1 0x5 SWAP1 SWAP2 ADD SSTORE POP POP JUMP JUMPDEST PUSH1 0x0 DUP4 DUP2 MSTORE PUSH1 0x14 PUSH1 0x20 MSTORE PUSH1 0x40 DUP1 DUP3 KECCAK256 SWAP1 MLOAD PUSH2 0x1718 SWAP1 DUP6 SWAP1 PUSH2 0x2DAE JUMP JUMPDEST SWAP1 DUP2 MSTORE PUSH1 0x20 ADD PUSH1 0x40 MLOAD DUP1 SWAP2 SUB SWAP1 KECCAK256 PUSH1 0x5 ADD SLOAD PUSH1 0x0 EQ ISZERO PUSH2 0x173A JUMPI POP PUSH1 0x0 PUSH2 0x187D JUMP JUMPDEST PUSH1 0x0 DUP5 DUP2 MSTORE PUSH1 0x14 PUSH1 0x20 MSTORE PUSH1 0x40 SWAP1 DUP2 SWAP1 KECCAK256 SWAP1 MLOAD PUSH2 0x1757 SWAP1 DUP6 SWAP1 PUSH2 0x2DAE JUMP JUMPDEST SWAP1 DUP2 MSTORE PUSH1 0x20 ADD PUSH1 0x40 MLOAD DUP1 SWAP2 SUB SWAP1 KECCAK256 PUSH1 0x5 ADD SLOAD PUSH1 0x0 EQ ISZERO PUSH2 0x1776 JUMPI PUSH1 0x0 DUP1 REVERT JUMPDEST PUSH1 0x0 DUP5 DUP2 MSTORE PUSH1 0x14 PUSH1 0x20 MSTORE PUSH1 0x40 SWAP1 DUP2 SWAP1 KECCAK256 SWAP1 MLOAD PUSH2 0x1793 SWAP1 DUP6 SWAP1 PUSH2 0x2DAE JUMP JUMPDEST SWAP1 DUP2 MSTORE PUSH1 0x20 ADD PUSH1 0x40 MLOAD DUP1 SWAP2 SUB SWAP1 KECCAK256 PUSH1 0x5 ADD SLOAD PUSH1 0x20 PUSH1 0x0 DUP7 DUP2 MSTORE PUSH1 0x20 ADD SWAP1 DUP2 MSTORE PUSH1 0x20 ADD PUSH1 0x0 KECCAK256 DUP5 PUSH1 0x40 MLOAD PUSH2 0x17C6 SWAP2 SWAP1 PUSH2 0x2DAE JUMP JUMPDEST SWAP1 DUP2 MSTORE PUSH1 0x40 DUP1 MLOAD PUSH1 0x20 SWAP3 DUP2 SWAP1 SUB DUP4 ADD SWAP1 KECCAK256 PUSH1 0x1 PUSH1 0x1 PUSH1 0xA0 SHL SUB DUP7 AND PUSH1 0x0 SWAP1 DUP2 MSTORE SWAP3 MSTORE SWAP1 KECCAK256 SLOAD GT ISZERO PUSH2 0x17F6 JUMPI PUSH1 0x0 DUP1 REVERT JUMPDEST PUSH1 0x0 DUP5 DUP2 MSTORE PUSH1 0x14 PUSH1 0x20 MSTORE PUSH1 0x40 SWAP1 DUP2 SWAP1 KECCAK256 SWAP1 MLOAD PUSH2 0x1813 SWAP1 DUP6 SWAP1 PUSH2 0x2DAE JUMP JUMPDEST SWAP1 DUP2 MSTORE PUSH1 0x20 ADD PUSH1 0x40 MLOAD DUP1 SWAP2 SUB SWAP1 KECCAK256 PUSH1 0x5 ADD SLOAD PUSH1 0x20 PUSH1 0x0 DUP7 DUP2 MSTORE PUSH1 0x20 ADD SWAP1 DUP2 MSTORE PUSH1 0x20 ADD PUSH1 0x0 KECCAK256 DUP5 PUSH1 0x40 MLOAD PUSH2 0x1846 SWAP2 SWAP1 PUSH2 0x2DAE JUMP JUMPDEST SWAP1 DUP2 MSTORE PUSH1 0x40 DUP1 MLOAD PUSH1 0x20 SWAP3 DUP2 SWAP1 SUB DUP4 ADD SWAP1 KECCAK256 PUSH1 0x1 PUSH1 0x1 PUSH1 0xA0 SHL SUB DUP7 AND PUSH1 0x0 SWAP1 DUP2 MSTORE SWAP3 MSTORE SWAP1 KECCAK256 PUSH1 0x1 ADD SLOAD LT ISZERO PUSH2 0x1879 JUMPI PUSH1 0x0 DUP1 REVERT JUMPDEST POP PUSH1 0x1 JUMPDEST SWAP4 SWAP3 POP POP POP JUMP JUMPDEST PUSH1 0x0 SLOAD PUSH1 0x1 PUSH1 0x1 PUSH1 0xA0 SHL SUB AND CALLER EQ PUSH2 0x18AE JUMPI PUSH1 0x40 MLOAD PUSH3 0x461BCD PUSH1 0xE5 SHL DUP2 MSTORE PUSH1 0x4 ADD PUSH2 0x7C7 SWAP1 PUSH2 0x2D03 JUMP JUMPDEST PUSH1 0xF DUP1 SLOAD PUSH1 0x1 PUSH1 0x1 PUSH1 0xA0 SHL SUB NOT AND PUSH1 0x1 PUSH1 0x1 PUSH1 0xA0 SHL SUB SWAP3 SWAP1 SWAP3 AND SWAP2 SWAP1 SWAP2 OR SWAP1 SSTORE JUMP JUMPDEST PUSH1 0x40 MLOAD PUSH3 0x461BCD PUSH1 0xE5 SHL DUP2 MSTORE PUSH1 0x20 PUSH1 0x4 DUP3 ADD MSTORE PUSH1 0x2E PUSH1 0x24 DUP3 ADD MSTORE PUSH32 0x556E737570706F727465642063616C6C6261636B202D20416674657220416772 PUSH1 0x44 DUP3 ADD MSTORE PUSH14 0x19595B595B9D0810DC99585D1959 PUSH1 0x92 SHL PUSH1 0x64 DUP3 ADD MSTORE PUSH1 0x60 SWAP1 PUSH1 0x84 ADD PUSH2 0x7C7 JUMP JUMPDEST PUSH1 0x0 SLOAD PUSH1 0x1 PUSH1 0x1 PUSH1 0xA0 SHL SUB AND CALLER EQ PUSH2 0x195C JUMPI PUSH1 0x40 MLOAD PUSH3 0x461BCD PUSH1 0xE5 SHL DUP2 MSTORE PUSH1 0x4 ADD PUSH2 0x7C7 SWAP1 PUSH2 0x2D03 JUMP JUMPDEST PUSH1 0x1 PUSH1 0x1 PUSH1 0xA0 SHL SUB DUP2 AND PUSH2 0x19C1 JUMPI PUSH1 0x40 MLOAD PUSH3 0x461BCD PUSH1 0xE5 SHL DUP2 MSTORE PUSH1 0x20 PUSH1 0x4 DUP3 ADD MSTORE PUSH1 0x26 PUSH1 0x24 DUP3 ADD MSTORE PUSH32 0x4F776E61626C653A206E6577206F776E657220697320746865207A65726F2061 PUSH1 0x44 DUP3 ADD MSTORE PUSH6 0x646472657373 PUSH1 0xD0 SHL PUSH1 0x64 DUP3 ADD MSTORE PUSH1 0x84 ADD PUSH2 0x7C7 JUMP JUMPDEST PUSH2 0x19CA DUP2 PUSH2 0x21AF JUMP JUMPDEST POP JUMP JUMPDEST PUSH1 0x1C PUSH1 0x20 SWAP1 DUP2 MSTORE PUSH1 0x0 DUP5 DUP2 MSTORE PUSH1 0x40 SWAP1 KECCAK256 DUP4 MLOAD DUP1 DUP6 ADD DUP4 ADD DUP1 MLOAD SWAP3 DUP2 MSTORE SWAP1 DUP4 ADD SWAP3 DUP6 ADD SWAP3 SWAP1 SWAP3 KECCAK256 SWAP2 MSTORE DUP1 SLOAD DUP3 SWAP1 DUP2 LT PUSH2 0x1A04 JUMPI PUSH1 0x0 DUP1 REVERT JUMPDEST PUSH1 0x0 SWAP2 DUP3 MSTORE PUSH1 0x20 SWAP1 SWAP2 KECCAK256 ADD SLOAD PUSH1 0x1 PUSH1 0x1 PUSH1 0xA0 SHL SUB AND SWAP3 POP DUP4 SWAP2 POP POP JUMP JUMPDEST PUSH1 0x1B PUSH1 0x20 MSTORE DUP2 PUSH1 0x0 MSTORE PUSH1 0x40 PUSH1 0x0 KECCAK256 DUP2 DUP2 SLOAD DUP2 LT PUSH2 0x1A3D JUMPI PUSH1 0x0 DUP1 REVERT JUMPDEST PUSH1 0x0 SWAP2 DUP3 MSTORE PUSH1 0x20 SWAP1 SWAP2 KECCAK256 ADD SLOAD PUSH1 0x1 PUSH1 0x1 PUSH1 0xA0 SHL SUB AND SWAP2 POP DUP3 SWAP1 POP JUMP JUMPDEST PUSH1 0x11 SLOAD PUSH1 0xE SLOAD PUSH1 0x40 MLOAD PUSH4 0x95EA7B3 PUSH1 0xE0 SHL DUP2 MSTORE PUSH1 0x1 PUSH1 0x1 PUSH1 0xA0 SHL SUB SWAP2 DUP3 AND PUSH1 0x4 DUP3 ADD MSTORE PUSH1 0x24 DUP2 ADD DUP5 SWAP1 MSTORE SWAP2 AND SWAP1 PUSH4 0x95EA7B3 SWAP1 PUSH1 0x44 ADD PUSH1 0x20 PUSH1 0x40 MLOAD DUP1 DUP4 SUB DUP2 PUSH1 0x0 DUP8 GAS CALL ISZERO DUP1 ISZERO PUSH2 0x1AAE JUMPI RETURNDATASIZE PUSH1 0x0 DUP1 RETURNDATACOPY RETURNDATASIZE PUSH1 0x0 REVERT JUMPDEST POP POP POP POP PUSH1 0x40 MLOAD RETURNDATASIZE PUSH1 0x1F NOT PUSH1 0x1F DUP3 ADD AND DUP3 ADD DUP1 PUSH1 0x40 MSTORE POP DUP2 ADD SWAP1 PUSH2 0x1AD2 SWAP2 SWAP1 PUSH2 0x2D8C JUMP JUMPDEST POP PUSH1 0xE SLOAD PUSH1 0x11 SLOAD PUSH1 0x40 MLOAD PUSH4 0xE8EDA9DF PUSH1 0xE0 SHL DUP2 MSTORE PUSH1 0x1 PUSH1 0x1 PUSH1 0xA0 SHL SUB SWAP2 DUP3 AND PUSH1 0x4 DUP3 ADD MSTORE PUSH1 0x24 DUP2 ADD DUP5 SWAP1 MSTORE ADDRESS PUSH1 0x44 DUP3 ADD MSTORE PUSH1 0x0 PUSH1 0x64 DUP3 ADD MSTORE SWAP2 AND SWAP1 PUSH4 0xE8EDA9DF SWAP1 PUSH1 0x84 ADD JUMPDEST PUSH1 0x0 PUSH1 0x40 MLOAD DUP1 DUP4 SUB DUP2 PUSH1 0x0 DUP8 DUP1 EXTCODESIZE ISZERO DUP1 ISZERO PUSH2 0x1B31 JUMPI PUSH1 0x0 DUP1 REVERT JUMPDEST POP GAS CALL ISZERO DUP1 ISZERO PUSH2 0x1B45 JUMPI RETURNDATASIZE PUSH1 0x0 DUP1 RETURNDATACOPY RETURNDATASIZE PUSH1 0x0 REVERT JUMPDEST POP POP POP POP POP JUMP JUMPDEST DUP2 PUSH1 0x20 PUSH1 0x0 PUSH1 0x9 DUP5 PUSH1 0x40 MLOAD PUSH2 0x1B61 SWAP2 SWAP1 PUSH2 0x2DAE JUMP JUMPDEST SWAP1 DUP2 MSTORE PUSH1 0x20 ADD PUSH1 0x40 MLOAD DUP1 SWAP2 SUB SWAP1 KECCAK256 SLOAD DUP2 MSTORE PUSH1 0x20 ADD SWAP1 DUP2 MSTORE PUSH1 0x20 ADD PUSH1 0x0 KECCAK256 DUP3 PUSH1 0x40 MLOAD PUSH2 0x1B8C SWAP2 SWAP1 PUSH2 0x2DAE JUMP JUMPDEST SWAP1 DUP2 MSTORE PUSH1 0x40 DUP1 MLOAD PUSH1 0x20 SWAP3 DUP2 SWAP1 SUB DUP4 ADD SWAP1 KECCAK256 CALLER PUSH1 0x0 SWAP1 DUP2 MSTORE SWAP3 MSTORE SWAP1 KECCAK256 SSTORE PUSH2 0x1BB4 DUP3 PUSH2 0x708 PUSH2 0x2DE0 JUMP JUMPDEST PUSH1 0x20 PUSH1 0x0 PUSH1 0x9 DUP5 PUSH1 0x40 MLOAD PUSH2 0x1BC8 SWAP2 SWAP1 PUSH2 0x2DAE JUMP JUMPDEST SWAP1 DUP2 MSTORE PUSH1 0x20 ADD PUSH1 0x40 MLOAD DUP1 SWAP2 SUB SWAP1 KECCAK256 SLOAD DUP2 MSTORE PUSH1 0x20 ADD SWAP1 DUP2 MSTORE PUSH1 0x20 ADD PUSH1 0x0 KECCAK256 DUP3 PUSH1 0x40 MLOAD PUSH2 0x1BF3 SWAP2 SWAP1 PUSH2 0x2DAE JUMP JUMPDEST SWAP1 DUP2 MSTORE PUSH1 0x40 DUP1 MLOAD PUSH1 0x20 SWAP3 DUP2 SWAP1 SUB DUP4 ADD DUP2 KECCAK256 CALLER PUSH1 0x0 SWAP1 DUP2 MSTORE SWAP4 MSTORE SWAP1 DUP3 KECCAK256 PUSH1 0x1 ADD SWAP3 SWAP1 SWAP3 SSTORE PUSH1 0x1C SWAP2 PUSH1 0x9 SWAP1 PUSH2 0x1C27 SWAP1 DUP6 SWAP1 PUSH2 0x2DAE JUMP JUMPDEST SWAP1 DUP2 MSTORE PUSH1 0x20 ADD PUSH1 0x40 MLOAD DUP1 SWAP2 SUB SWAP1 KECCAK256 SLOAD DUP2 MSTORE PUSH1 0x20 ADD SWAP1 DUP2 MSTORE PUSH1 0x20 ADD PUSH1 0x0 KECCAK256 DUP2 PUSH1 0x40 MLOAD PUSH2 0x1C52 SWAP2 SWAP1 PUSH2 0x2DAE JUMP JUMPDEST SWAP1 DUP2 MSTORE PUSH1 0x40 MLOAD SWAP1 DUP2 SWAP1 SUB PUSH1 0x20 SWAP1 DUP2 ADD DUP3 KECCAK256 DUP1 SLOAD PUSH1 0x1 DUP2 ADD DUP3 SSTORE PUSH1 0x0 SWAP2 DUP3 MSTORE SWAP2 DUP2 KECCAK256 SWAP1 SWAP2 ADD DUP1 SLOAD PUSH1 0x1 PUSH1 0x1 PUSH1 0xA0 SHL SUB NOT AND CALLER OR SWAP1 SSTORE PUSH1 0x1D SWAP2 PUSH1 0x9 SWAP1 PUSH2 0x1C97 SWAP1 DUP6 SWAP1 PUSH2 0x2DAE JUMP JUMPDEST SWAP1 DUP2 MSTORE PUSH1 0x20 ADD PUSH1 0x40 MLOAD DUP1 SWAP2 SUB SWAP1 KECCAK256 SLOAD DUP2 MSTORE PUSH1 0x20 ADD SWAP1 DUP2 MSTORE PUSH1 0x20 ADD PUSH1 0x0 KECCAK256 DUP2 PUSH1 0x40 MLOAD PUSH2 0x1CC2 SWAP2 SWAP1 PUSH2 0x2DAE JUMP JUMPDEST SWAP1 DUP2 MSTORE PUSH1 0x40 MLOAD SWAP1 DUP2 SWAP1 SUB PUSH1 0x20 SWAP1 DUP2 ADD DUP3 KECCAK256 DUP1 SLOAD PUSH1 0x1 DUP2 ADD DUP3 SSTORE PUSH1 0x0 SWAP2 DUP3 MSTORE SWAP2 DUP2 KECCAK256 SWAP1 SWAP2 ADD DUP5 SWAP1 SSTORE PUSH1 0x1E SWAP2 PUSH1 0x9 SWAP1 PUSH2 0x1CFA SWAP1 DUP6 SWAP1 PUSH2 0x2DAE JUMP JUMPDEST SWAP1 DUP2 MSTORE PUSH1 0x20 ADD PUSH1 0x40 MLOAD DUP1 SWAP2 SUB SWAP1 KECCAK256 SLOAD DUP2 MSTORE PUSH1 0x20 ADD SWAP1 DUP2 MSTORE PUSH1 0x20 ADD PUSH1 0x0 KECCAK256 DUP2 PUSH1 0x40 MLOAD PUSH2 0x1D25 SWAP2 SWAP1 PUSH2 0x2DAE JUMP JUMPDEST SWAP1 DUP2 MSTORE PUSH1 0x40 MLOAD SWAP1 DUP2 SWAP1 SUB PUSH1 0x20 ADD SWAP1 KECCAK256 PUSH2 0x1D40 DUP4 PUSH2 0x708 PUSH2 0x2DE0 JUMP JUMPDEST DUP2 SLOAD PUSH1 0x1 DUP2 ADD DUP4 SSTORE PUSH1 0x0 SWAP3 DUP4 MSTORE PUSH1 0x20 SWAP1 SWAP3 KECCAK256 SWAP1 SWAP2 ADD SSTORE POP POP JUMP JUMPDEST PUSH2 0x1D62 PUSH2 0x1058 JUMP JUMPDEST PUSH1 0x14 PUSH1 0x0 PUSH1 0x9 DUP5 PUSH1 0x40 MLOAD PUSH2 0x1D76 SWAP2 SWAP1 PUSH2 0x2DAE JUMP JUMPDEST SWAP1 DUP2 MSTORE PUSH1 0x20 ADD PUSH1 0x40 MLOAD DUP1 SWAP2 SUB SWAP1 KECCAK256 SLOAD DUP2 MSTORE PUSH1 0x20 ADD SWAP1 DUP2 MSTORE PUSH1 0x20 ADD PUSH1 0x0 KECCAK256 DUP3 PUSH1 0x40 MLOAD PUSH2 0x1DA1 SWAP2 SWAP1 PUSH2 0x2DAE JUMP JUMPDEST SWAP1 DUP2 MSTORE PUSH1 0x40 MLOAD SWAP1 DUP2 SWAP1 SUB PUSH1 0x20 ADD SWAP1 KECCAK256 PUSH1 0x5 ADD SSTORE PUSH2 0x1DBD DUP2 PUSH2 0x21FF JUMP JUMPDEST PUSH2 0x19CA DUP2 PUSH2 0x2390 JUMP JUMPDEST PUSH1 0x40 MLOAD PUSH4 0x70A08231 PUSH1 0xE0 SHL DUP2 MSTORE ADDRESS PUSH1 0x4 DUP3 ADD MSTORE PUSH1 0x0 SWAP1 DUP2 SWAP1 PUSH1 0x1 PUSH1 0x1 PUSH1 0xA0 SHL SUB DUP5 AND SWAP1 PUSH4 0x70A08231 SWAP1 PUSH1 0x24 ADD PUSH1 0x20 PUSH1 0x40 MLOAD DUP1 DUP4 SUB DUP2 DUP7 GAS STATICCALL ISZERO DUP1 ISZERO PUSH2 0x1E0F JUMPI RETURNDATASIZE PUSH1 0x0 DUP1 RETURNDATACOPY RETURNDATASIZE PUSH1 0x0 REVERT JUMPDEST POP POP POP POP PUSH1 0x40 MLOAD RETURNDATASIZE PUSH1 0x1F NOT PUSH1 0x1F DUP3 ADD AND DUP3 ADD DUP1 PUSH1 0x40 MSTORE POP DUP2 ADD SWAP1 PUSH2 0x1E33 SWAP2 SWAP1 PUSH2 0x2D73 JUMP JUMPDEST SWAP1 POP PUSH1 0x0 PUSH1 0xC SLOAD PUSH1 0x15 SLOAD PUSH2 0x1E47 SWAP2 SWAP1 PUSH2 0x2F5A JUMP JUMPDEST PUSH2 0x1E51 SWAP1 DUP4 PUSH2 0x2F5A JUMP JUMPDEST PUSH1 0xE SLOAD PUSH1 0x11 SLOAD PUSH1 0x40 MLOAD PUSH4 0x1A4CA37B PUSH1 0xE2 SHL DUP2 MSTORE PUSH1 0x1 PUSH1 0x1 PUSH1 0xA0 SHL SUB SWAP2 DUP3 AND PUSH1 0x4 DUP3 ADD MSTORE PUSH1 0x24 DUP2 ADD DUP5 SWAP1 MSTORE ADDRESS PUSH1 0x44 DUP3 ADD MSTORE SWAP3 SWAP4 POP AND SWAP1 PUSH4 0x69328DEC SWAP1 PUSH1 0x64 ADD PUSH1 0x20 PUSH1 0x40 MLOAD DUP1 DUP4 SUB DUP2 PUSH1 0x0 DUP8 GAS CALL ISZERO DUP1 ISZERO PUSH2 0x1EAE JUMPI RETURNDATASIZE PUSH1 0x0 DUP1 RETURNDATACOPY RETURNDATASIZE PUSH1 0x0 REVERT JUMPDEST POP POP POP POP PUSH1 0x40 MLOAD RETURNDATASIZE PUSH1 0x1F NOT PUSH1 0x1F DUP3 ADD AND DUP3 ADD DUP1 PUSH1 0x40 MSTORE POP DUP2 ADD SWAP1 PUSH2 0x1ED2 SWAP2 SWAP1 PUSH2 0x2D73 JUMP JUMPDEST POP PUSH1 0x11 SLOAD PUSH1 0x3 SLOAD PUSH1 0x40 MLOAD PUSH4 0x95EA7B3 PUSH1 0xE0 SHL DUP2 MSTORE PUSH1 0x1 PUSH1 0x1 PUSH1 0xA0 SHL SUB SWAP2 DUP3 AND PUSH1 0x4 DUP3 ADD MSTORE PUSH1 0x24 DUP2 ADD DUP5 SWAP1 MSTORE SWAP2 AND SWAP1 PUSH4 0x95EA7B3 SWAP1 PUSH1 0x44 ADD PUSH1 0x20 PUSH1 0x40 MLOAD DUP1 DUP4 SUB DUP2 PUSH1 0x0 DUP8 GAS CALL ISZERO DUP1 ISZERO PUSH2 0x1F28 JUMPI RETURNDATASIZE PUSH1 0x0 DUP1 RETURNDATACOPY RETURNDATASIZE PUSH1 0x0 REVERT JUMPDEST POP POP POP POP PUSH1 0x40 MLOAD RETURNDATASIZE PUSH1 0x1F NOT PUSH1 0x1F DUP3 ADD AND DUP3 ADD DUP1 PUSH1 0x40 MSTORE POP DUP2 ADD SWAP1 PUSH2 0x1F4C SWAP2 SWAP1 PUSH2 0x2D8C JUMP JUMPDEST POP PUSH1 0x3 SLOAD PUSH1 0x40 MLOAD PUSH4 0x45977D03 PUSH1 0xE0 SHL DUP2 MSTORE PUSH1 0x4 DUP2 ADD DUP4 SWAP1 MSTORE PUSH1 0x1 PUSH1 0x1 PUSH1 0xA0 SHL SUB SWAP1 SWAP2 AND SWAP1 PUSH4 0x45977D03 SWAP1 PUSH1 0x24 ADD PUSH1 0x0 PUSH1 0x40 MLOAD DUP1 DUP4 SUB DUP2 PUSH1 0x0 DUP8 DUP1 EXTCODESIZE ISZERO DUP1 ISZERO PUSH2 0x1F93 JUMPI PUSH1 0x0 DUP1 REVERT JUMPDEST POP GAS CALL ISZERO DUP1 ISZERO PUSH2 0x1FA7 JUMPI RETURNDATASIZE PUSH1 0x0 DUP1 RETURNDATACOPY RETURNDATASIZE PUSH1 0x0 REVERT JUMPDEST POP POP PUSH1 0xA SLOAD PUSH1 0x1 PUSH1 0x1 PUSH1 0x80 SHL SUB AND PUSH1 0x0 SWAP1 DUP2 MSTORE PUSH1 0x13 PUSH1 0x20 MSTORE PUSH1 0x40 SWAP1 KECCAK256 DUP4 SWAP1 SSTORE POP SWAP1 SWAP5 SWAP4 POP POP POP POP JUMP JUMPDEST PUSH1 0xA SLOAD PUSH1 0x1 PUSH1 0x1 PUSH1 0x80 SHL SUB AND PUSH1 0x0 SWAP1 DUP2 MSTORE PUSH1 0x13 PUSH1 0x20 MSTORE PUSH1 0x40 SWAP1 KECCAK256 SLOAD PUSH1 0x1 SLOAD PUSH1 0x2 SLOAD PUSH1 0x3 SLOAD PUSH1 0xF SLOAD PUSH1 0x1 PUSH1 0x1 PUSH1 0xA0 SHL SUB SWAP4 DUP5 AND SWAP4 PUSH4 0x39255D5B SWAP4 DUP2 AND SWAP3 PUSH4 0x317E182F PUSH1 0xE1 SHL SWAP3 SWAP1 DUP3 AND SWAP2 AND PUSH2 0x2027 PUSH3 0x278D00 DUP9 PUSH2 0x2F71 JUMP JUMPDEST PUSH1 0x40 DUP1 MLOAD PUSH1 0x0 DUP2 MSTORE PUSH1 0x20 DUP2 ADD SWAP1 SWAP2 MSTORE PUSH2 0x2046 SWAP4 SWAP3 SWAP2 SWAP1 PUSH1 0x44 DUP2 ADD PUSH2 0x2FC2 JUMP JUMPDEST PUSH1 0x40 DUP1 MLOAD PUSH1 0x1F NOT DUP2 DUP5 SUB ADD DUP2 MSTORE SWAP2 DUP2 MSTORE PUSH1 0x20 DUP3 ADD DUP1 MLOAD PUSH1 0x1 PUSH1 0x1 PUSH1 0xE0 SHL SUB AND PUSH1 0x1 PUSH1 0x1 PUSH1 0xE0 SHL SUB NOT SWAP5 DUP6 AND OR SWAP1 MSTORE MLOAD PUSH1 0xE0 DUP6 SWAP1 SHL SWAP1 SWAP3 AND DUP3 MSTORE PUSH2 0x208C SWAP3 SWAP2 PUSH1 0x4 ADD PUSH2 0x3002 JUMP JUMPDEST PUSH1 0x0 PUSH1 0x40 MLOAD DUP1 DUP4 SUB DUP2 PUSH1 0x0 DUP8 GAS CALL ISZERO DUP1 ISZERO PUSH2 0x20AB JUMPI RETURNDATASIZE PUSH1 0x0 DUP1 RETURNDATACOPY RETURNDATASIZE PUSH1 0x0 REVERT JUMPDEST POP POP POP POP PUSH1 0x40 MLOAD RETURNDATASIZE PUSH1 0x0 DUP3 RETURNDATACOPY PUSH1 0x1F RETURNDATASIZE SWAP1 DUP2 ADD PUSH1 0x1F NOT AND DUP3 ADD PUSH1 0x40 MSTORE PUSH2 0x20D3 SWAP2 SWAP1 DUP2 ADD SWAP1 PUSH2 0x3049 JUMP JUMPDEST POP PUSH1 0xA DUP1 SLOAD PUSH1 0x1 SWAP2 SWAP1 PUSH1 0x0 SWAP1 PUSH2 0x153D SWAP1 DUP5 SWAP1 PUSH1 0x1 PUSH1 0x1 PUSH1 0x80 SHL SUB AND PUSH2 0x2F2F JUMP JUMPDEST PUSH1 0xA SLOAD PUSH1 0x1 PUSH1 0x1 PUSH1 0x80 SHL SUB AND PUSH2 0x2108 JUMPI PUSH1 0x0 DUP1 REVERT JUMPDEST PUSH1 0x3 SLOAD PUSH1 0x10 SLOAD PUSH1 0x40 MLOAD PUSH4 0x70A08231 PUSH1 0xE0 SHL DUP2 MSTORE PUSH1 0x1 PUSH1 0x1 PUSH1 0xA0 SHL SUB SWAP2 DUP3 AND PUSH1 0x4 DUP3 ADD MSTORE PUSH1 0x0 SWAP3 SWAP2 SWAP1 SWAP2 AND SWAP1 PUSH4 0x70A08231 SWAP1 PUSH1 0x24 ADD PUSH1 0x20 PUSH1 0x40 MLOAD DUP1 DUP4 SUB DUP2 DUP7 GAS STATICCALL ISZERO DUP1 ISZERO PUSH2 0x2159 JUMPI RETURNDATASIZE PUSH1 0x0 DUP1 RETURNDATACOPY RETURNDATASIZE PUSH1 0x0 REVERT JUMPDEST POP POP POP POP PUSH1 0x40 MLOAD RETURNDATASIZE PUSH1 0x1F NOT PUSH1 0x1F DUP3 ADD AND DUP3 ADD DUP1 PUSH1 0x40 MSTORE POP DUP2 ADD SWAP1 PUSH2 0x217D SWAP2 SWAP1 PUSH2 0x2D73 JUMP JUMPDEST PUSH1 0x10 SLOAD PUSH1 0x40 MLOAD PUSH4 0x91C05B0B PUSH1 0xE0 SHL DUP2 MSTORE PUSH1 0x4 DUP2 ADD DUP4 SWAP1 MSTORE SWAP2 SWAP3 POP PUSH1 0x1 PUSH1 0x1 PUSH1 0xA0 SHL SUB AND SWAP1 PUSH4 0x91C05B0B SWAP1 PUSH1 0x24 ADD PUSH2 0x1B17 JUMP JUMPDEST PUSH1 0x0 DUP1 SLOAD PUSH1 0x1 PUSH1 0x1 PUSH1 0xA0 SHL SUB DUP4 DUP2 AND PUSH1 0x1 PUSH1 0x1 PUSH1 0xA0 SHL SUB NOT DUP4 AND DUP2 OR DUP5 SSTORE PUSH1 0x40 MLOAD SWAP2 SWAP1 SWAP3 AND SWAP3 DUP4 SWAP2 PUSH32 0x8BE0079C531659141344CD1FD0A4F28419497F9722A3DAAFE3B4186F6B6457E0 SWAP2 SWAP1 LOG3 POP POP JUMP JUMPDEST PUSH1 0x1D PUSH1 0x0 PUSH1 0x9 DUP4 PUSH1 0x40 MLOAD PUSH2 0x2213 SWAP2 SWAP1 PUSH2 0x2DAE JUMP JUMPDEST SWAP1 DUP2 MSTORE PUSH1 0x20 ADD PUSH1 0x40 MLOAD DUP1 SWAP2 SUB SWAP1 KECCAK256 SLOAD DUP2 MSTORE PUSH1 0x20 ADD SWAP1 DUP2 MSTORE PUSH1 0x20 ADD PUSH1 0x0 KECCAK256 DUP2 PUSH1 0x40 MLOAD PUSH2 0x223E SWAP2 SWAP1 PUSH2 0x2DAE JUMP JUMPDEST SWAP1 DUP2 MSTORE PUSH1 0x20 ADD PUSH1 0x40 MLOAD DUP1 SWAP2 SUB SWAP1 KECCAK256 DUP1 SLOAD SWAP1 POP PUSH1 0x1E PUSH1 0x0 PUSH1 0x9 DUP5 PUSH1 0x40 MLOAD PUSH2 0x2264 SWAP2 SWAP1 PUSH2 0x2DAE JUMP JUMPDEST SWAP1 DUP2 MSTORE PUSH1 0x20 ADD PUSH1 0x40 MLOAD DUP1 SWAP2 SUB SWAP1 KECCAK256 SLOAD DUP2 MSTORE PUSH1 0x20 ADD SWAP1 DUP2 MSTORE PUSH1 0x20 ADD PUSH1 0x0 KECCAK256 DUP3 PUSH1 0x40 MLOAD PUSH2 0x228F SWAP2 SWAP1 PUSH2 0x2DAE JUMP JUMPDEST SWAP1 DUP2 MSTORE PUSH1 0x40 MLOAD SWAP1 DUP2 SWAP1 SUB PUSH1 0x20 ADD SWAP1 KECCAK256 SLOAD EQ PUSH2 0x22A9 JUMPI PUSH1 0x0 DUP1 REVERT JUMPDEST PUSH1 0x0 JUMPDEST PUSH1 0x1D PUSH1 0x0 PUSH1 0x9 DUP5 PUSH1 0x40 MLOAD PUSH2 0x22C0 SWAP2 SWAP1 PUSH2 0x2DAE JUMP JUMPDEST SWAP1 DUP2 MSTORE PUSH1 0x20 ADD PUSH1 0x40 MLOAD DUP1 SWAP2 SUB SWAP1 KECCAK256 SLOAD DUP2 MSTORE PUSH1 0x20 ADD SWAP1 DUP2 MSTORE PUSH1 0x20 ADD PUSH1 0x0 KECCAK256 DUP3 PUSH1 0x40 MLOAD PUSH2 0x22EB SWAP2 SWAP1 PUSH2 0x2DAE JUMP JUMPDEST SWAP1 DUP2 MSTORE PUSH1 0x40 MLOAD SWAP1 DUP2 SWAP1 SUB PUSH1 0x20 ADD SWAP1 KECCAK256 SLOAD DUP2 LT ISZERO PUSH2 0x238C JUMPI PUSH2 0x230C DUP3 DUP3 PUSH2 0x24CD JUMP JUMPDEST ISZERO ISZERO PUSH1 0x1 EQ ISZERO PUSH2 0x237A JUMPI PUSH1 0x1F PUSH1 0x0 PUSH1 0x9 DUP5 PUSH1 0x40 MLOAD PUSH2 0x232A SWAP2 SWAP1 PUSH2 0x2DAE JUMP JUMPDEST SWAP1 DUP2 MSTORE PUSH1 0x20 ADD PUSH1 0x40 MLOAD DUP1 SWAP2 SUB SWAP1 KECCAK256 SLOAD DUP2 MSTORE PUSH1 0x20 ADD SWAP1 DUP2 MSTORE PUSH1 0x20 ADD PUSH1 0x0 KECCAK256 DUP3 PUSH1 0x40 MLOAD PUSH2 0x2355 SWAP2 SWAP1 PUSH2 0x2DAE JUMP JUMPDEST SWAP1 DUP2 MSTORE PUSH1 0x40 MLOAD PUSH1 0x20 SWAP2 DUP2 SWAP1 SUB DUP3 ADD SWAP1 KECCAK256 DUP1 SLOAD PUSH1 0x1 DUP2 ADD DUP3 SSTORE PUSH1 0x0 SWAP2 DUP3 MSTORE SWAP2 SWAP1 KECCAK256 ADD DUP2 SWAP1 SSTORE JUMPDEST DUP1 PUSH2 0x2384 DUP2 PUSH2 0x2E0E JUMP JUMPDEST SWAP2 POP POP PUSH2 0x22AC JUMP JUMPDEST POP POP JUMP JUMPDEST PUSH1 0x1F PUSH1 0x0 PUSH1 0x9 DUP4 PUSH1 0x40 MLOAD PUSH2 0x23A4 SWAP2 SWAP1 PUSH2 0x2DAE JUMP JUMPDEST SWAP1 DUP2 MSTORE PUSH1 0x20 ADD PUSH1 0x40 MLOAD DUP1 SWAP2 SUB SWAP1 KECCAK256 SLOAD DUP2 MSTORE PUSH1 0x20 ADD SWAP1 DUP2 MSTORE PUSH1 0x20 ADD PUSH1 0x0 KECCAK256 DUP2 PUSH1 0x40 MLOAD PUSH2 0x23CF SWAP2 SWAP1 PUSH2 0x2DAE JUMP JUMPDEST SWAP1 DUP2 MSTORE PUSH1 0x40 MLOAD SWAP1 DUP2 SWAP1 SUB PUSH1 0x20 ADD SWAP1 KECCAK256 SLOAD PUSH2 0x23E8 JUMPI PUSH1 0x0 DUP1 REVERT JUMPDEST PUSH1 0xE SLOAD PUSH1 0x11 SLOAD PUSH1 0x40 MLOAD PUSH1 0x1 PUSH1 0x1 PUSH1 0xA0 SHL SUB SWAP3 DUP4 AND SWAP3 PUSH4 0x69328DEC SWAP3 AND SWAP1 PUSH1 0x14 SWAP1 PUSH1 0x0 SWAP1 PUSH1 0x9 SWAP1 PUSH2 0x2419 SWAP1 DUP9 SWAP1 PUSH2 0x2DAE JUMP JUMPDEST SWAP1 DUP2 MSTORE PUSH1 0x20 ADD PUSH1 0x40 MLOAD DUP1 SWAP2 SUB SWAP1 KECCAK256 SLOAD DUP2 MSTORE PUSH1 0x20 ADD SWAP1 DUP2 MSTORE PUSH1 0x20 ADD PUSH1 0x0 KECCAK256 DUP5 PUSH1 0x40 MLOAD PUSH2 0x2444 SWAP2 SWAP1 PUSH2 0x2DAE JUMP JUMPDEST SWAP1 DUP2 MSTORE PUSH1 0x40 MLOAD SWAP1 DUP2 SWAP1 SUB PUSH1 0x20 ADD DUP2 KECCAK256 PUSH1 0x1 ADD SLOAD PUSH1 0x1 PUSH1 0x1 PUSH1 0xE0 SHL SUB NOT PUSH1 0xE0 DUP6 SWAP1 SHL AND DUP3 MSTORE PUSH1 0x1 PUSH1 0x1 PUSH1 0xA0 SHL SUB SWAP3 SWAP1 SWAP3 AND PUSH1 0x4 DUP3 ADD MSTORE PUSH1 0x24 DUP2 ADD SWAP2 SWAP1 SWAP2 MSTORE ADDRESS PUSH1 0x44 DUP3 ADD MSTORE PUSH1 0x64 ADD PUSH1 0x20 PUSH1 0x40 MLOAD DUP1 DUP4 SUB DUP2 PUSH1 0x0 DUP8 GAS CALL ISZERO DUP1 ISZERO PUSH2 0x24A9 JUMPI RETURNDATASIZE PUSH1 0x0 DUP1 RETURNDATACOPY RETURNDATASIZE PUSH1 0x0 REVERT JUMPDEST POP POP POP POP PUSH1 0x40 MLOAD RETURNDATASIZE PUSH1 0x1F NOT PUSH1 0x1F DUP3 ADD AND DUP3 ADD DUP1 PUSH1 0x40 MSTORE POP DUP2 ADD SWAP1 PUSH2 0x238C SWAP2 SWAP1 PUSH2 0x2D73 JUMP JUMPDEST PUSH1 0x0 PUSH1 0x14 PUSH1 0x0 PUSH1 0x9 DUP6 PUSH1 0x40 MLOAD PUSH2 0x24E3 SWAP2 SWAP1 PUSH2 0x2DAE JUMP JUMPDEST SWAP1 DUP2 MSTORE PUSH1 0x20 ADD PUSH1 0x40 MLOAD DUP1 SWAP2 SUB SWAP1 KECCAK256 SLOAD DUP2 MSTORE PUSH1 0x20 ADD SWAP1 DUP2 MSTORE PUSH1 0x20 ADD PUSH1 0x0 KECCAK256 DUP4 PUSH1 0x40 MLOAD PUSH2 0x250E SWAP2 SWAP1 PUSH2 0x2DAE JUMP JUMPDEST SWAP1 DUP2 MSTORE PUSH1 0x20 ADD PUSH1 0x40 MLOAD DUP1 SWAP2 SUB SWAP1 KECCAK256 PUSH1 0x5 ADD SLOAD PUSH1 0x1D PUSH1 0x0 PUSH1 0x9 DUP7 PUSH1 0x40 MLOAD PUSH2 0x2534 SWAP2 SWAP1 PUSH2 0x2DAE JUMP JUMPDEST SWAP1 DUP2 MSTORE PUSH1 0x20 ADD PUSH1 0x40 MLOAD DUP1 SWAP2 SUB SWAP1 KECCAK256 SLOAD DUP2 MSTORE PUSH1 0x20 ADD SWAP1 DUP2 MSTORE PUSH1 0x20 ADD PUSH1 0x0 KECCAK256 DUP5 PUSH1 0x40 MLOAD PUSH2 0x255F SWAP2 SWAP1 PUSH2 0x2DAE JUMP JUMPDEST SWAP1 DUP2 MSTORE PUSH1 0x20 ADD PUSH1 0x40 MLOAD DUP1 SWAP2 SUB SWAP1 KECCAK256 DUP4 DUP2 SLOAD DUP2 LT PUSH2 0x257E JUMPI PUSH2 0x257E PUSH2 0x2DF8 JUMP JUMPDEST SWAP1 PUSH1 0x0 MSTORE PUSH1 0x20 PUSH1 0x0 KECCAK256 ADD SLOAD LT ISZERO DUP1 ISZERO PUSH2 0x264F JUMPI POP PUSH1 0x14 PUSH1 0x0 PUSH1 0x9 DUP6 PUSH1 0x40 MLOAD PUSH2 0x25A6 SWAP2 SWAP1 PUSH2 0x2DAE JUMP JUMPDEST SWAP1 DUP2 MSTORE PUSH1 0x20 ADD PUSH1 0x40 MLOAD DUP1 SWAP2 SUB SWAP1 KECCAK256 SLOAD DUP2 MSTORE PUSH1 0x20 ADD SWAP1 DUP2 MSTORE PUSH1 0x20 ADD PUSH1 0x0 KECCAK256 DUP4 PUSH1 0x40 MLOAD PUSH2 0x25D1 SWAP2 SWAP1 PUSH2 0x2DAE JUMP JUMPDEST SWAP1 DUP2 MSTORE PUSH1 0x20 ADD PUSH1 0x40 MLOAD DUP1 SWAP2 SUB SWAP1 KECCAK256 PUSH1 0x5 ADD SLOAD PUSH1 0x1E PUSH1 0x0 PUSH1 0x9 DUP7 PUSH1 0x40 MLOAD PUSH2 0x25F7 SWAP2 SWAP1 PUSH2 0x2DAE JUMP JUMPDEST SWAP1 DUP2 MSTORE PUSH1 0x20 ADD PUSH1 0x40 MLOAD DUP1 SWAP2 SUB SWAP1 KECCAK256 SLOAD DUP2 MSTORE PUSH1 0x20 ADD SWAP1 DUP2 MSTORE PUSH1 0x20 ADD PUSH1 0x0 KECCAK256 DUP5 PUSH1 0x40 MLOAD PUSH2 0x2622 SWAP2 SWAP1 PUSH2 0x2DAE JUMP JUMPDEST SWAP1 DUP2 MSTORE PUSH1 0x20 ADD PUSH1 0x40 MLOAD DUP1 SWAP2 SUB SWAP1 KECCAK256 DUP4 DUP2 SLOAD DUP2 LT PUSH2 0x2641 JUMPI PUSH2 0x2641 PUSH2 0x2DF8 JUMP JUMPDEST SWAP1 PUSH1 0x0 MSTORE PUSH1 0x20 PUSH1 0x0 KECCAK256 ADD SLOAD GT ISZERO JUMPDEST ISZERO PUSH2 0x265C JUMPI POP PUSH1 0x1 PUSH2 0x2660 JUMP JUMPDEST POP PUSH1 0x0 JUMPDEST SWAP3 SWAP2 POP POP JUMP JUMPDEST DUP3 DUP1 SLOAD PUSH2 0x2672 SWAP1 PUSH2 0x2D38 JUMP JUMPDEST SWAP1 PUSH1 0x0 MSTORE PUSH1 0x20 PUSH1 0x0 KECCAK256 SWAP1 PUSH1 0x1F ADD PUSH1 0x20 SWAP1 DIV DUP2 ADD SWAP3 DUP3 PUSH2 0x2694 JUMPI PUSH1 0x0 DUP6 SSTORE PUSH2 0x26DA JUMP JUMPDEST DUP3 PUSH1 0x1F LT PUSH2 0x26AD JUMPI DUP1 MLOAD PUSH1 0xFF NOT AND DUP4 DUP1 ADD OR DUP6 SSTORE PUSH2 0x26DA JUMP JUMPDEST DUP3 DUP1 ADD PUSH1 0x1 ADD DUP6 SSTORE DUP3 ISZERO PUSH2 0x26DA JUMPI SWAP2 DUP3 ADD JUMPDEST DUP3 DUP2 GT ISZERO PUSH2 0x26DA JUMPI DUP3 MLOAD DUP3 SSTORE SWAP2 PUSH1 0x20 ADD SWAP2 SWAP1 PUSH1 0x1 ADD SWAP1 PUSH2 0x26BF JUMP JUMPDEST POP PUSH2 0x26E6 SWAP3 SWAP2 POP PUSH2 0x26EA JUMP JUMPDEST POP SWAP1 JUMP JUMPDEST JUMPDEST DUP1 DUP3 GT ISZERO PUSH2 0x26E6 JUMPI PUSH1 0x0 DUP2 SSTORE PUSH1 0x1 ADD PUSH2 0x26EB JUMP JUMPDEST DUP1 CALLDATALOAD PUSH1 0x1 PUSH1 0x1 PUSH1 0xC0 SHL SUB NOT DUP2 AND DUP2 EQ PUSH2 0x2717 JUMPI PUSH1 0x0 DUP1 REVERT JUMPDEST SWAP2 SWAP1 POP JUMP JUMPDEST PUSH1 0x1 PUSH1 0x1 PUSH1 0xA0 SHL SUB DUP2 AND DUP2 EQ PUSH2 0x19CA JUMPI PUSH1 0x0 DUP1 REVERT JUMPDEST PUSH1 0x0 DUP1 PUSH1 0x0 PUSH1 0x60 DUP5 DUP7 SUB SLT ISZERO PUSH2 0x2746 JUMPI PUSH1 0x0 DUP1 REVERT JUMPDEST PUSH2 0x274F DUP5 PUSH2 0x26FF JUMP JUMPDEST SWAP3 POP PUSH1 0x20 DUP5 ADD CALLDATALOAD PUSH2 0x275F DUP2 PUSH2 0x271C JUMP JUMPDEST SWAP3 SWAP6 SWAP3 SWAP5 POP POP POP PUSH1 0x40 SWAP2 SWAP1 SWAP2 ADD CALLDATALOAD SWAP1 JUMP JUMPDEST PUSH1 0x0 PUSH1 0x20 DUP3 DUP5 SUB SLT ISZERO PUSH2 0x2782 JUMPI PUSH1 0x0 DUP1 REVERT JUMPDEST POP CALLDATALOAD SWAP2 SWAP1 POP JUMP JUMPDEST PUSH1 0x0 JUMPDEST DUP4 DUP2 LT ISZERO PUSH2 0x27A4 JUMPI DUP2 DUP2 ADD MLOAD DUP4 DUP3 ADD MSTORE PUSH1 0x20 ADD PUSH2 0x278C JUMP JUMPDEST DUP4 DUP2 GT ISZERO PUSH2 0x27B3 JUMPI PUSH1 0x0 DUP5 DUP5 ADD MSTORE JUMPDEST POP POP POP POP JUMP JUMPDEST PUSH1 0x0 DUP2 MLOAD DUP1 DUP5 MSTORE PUSH2 0x27D1 DUP2 PUSH1 0x20 DUP7 ADD PUSH1 0x20 DUP7 ADD PUSH2 0x2789 JUMP JUMPDEST PUSH1 0x1F ADD PUSH1 0x1F NOT AND SWAP3 SWAP1 SWAP3 ADD PUSH1 0x20 ADD SWAP3 SWAP2 POP POP JUMP JUMPDEST PUSH1 0x20 DUP2 MSTORE PUSH1 0x0 PUSH2 0x187D PUSH1 0x20 DUP4 ADD DUP5 PUSH2 0x27B9 JUMP JUMPDEST PUSH4 0x4E487B71 PUSH1 0xE0 SHL PUSH1 0x0 MSTORE PUSH1 0x41 PUSH1 0x4 MSTORE PUSH1 0x24 PUSH1 0x0 REVERT JUMPDEST PUSH1 0x40 MLOAD PUSH1 0x1F DUP3 ADD PUSH1 0x1F NOT AND DUP2 ADD PUSH1 0x1 PUSH1 0x1 PUSH1 0x40 SHL SUB DUP2 GT DUP3 DUP3 LT OR ISZERO PUSH2 0x2836 JUMPI PUSH2 0x2836 PUSH2 0x27F8 JUMP JUMPDEST PUSH1 0x40 MSTORE SWAP2 SWAP1 POP JUMP JUMPDEST PUSH1 0x0 PUSH1 0x1 PUSH1 0x1 PUSH1 0x40 SHL SUB DUP3 GT ISZERO PUSH2 0x2857 JUMPI PUSH2 0x2857 PUSH2 0x27F8 JUMP JUMPDEST POP PUSH1 0x1F ADD PUSH1 0x1F NOT AND PUSH1 0x20 ADD SWAP1 JUMP JUMPDEST PUSH1 0x0 DUP3 PUSH1 0x1F DUP4 ADD SLT PUSH2 0x2876 JUMPI PUSH1 0x0 DUP1 REVERT JUMPDEST DUP2 CALLDATALOAD PUSH2 0x2889 PUSH2 0x2884 DUP3 PUSH2 0x283E JUMP JUMPDEST PUSH2 0x280E JUMP JUMPDEST DUP2 DUP2 MSTORE DUP5 PUSH1 0x20 DUP4 DUP7 ADD ADD GT ISZERO PUSH2 0x289E JUMPI PUSH1 0x0 DUP1 REVERT JUMPDEST DUP2 PUSH1 0x20 DUP6 ADD PUSH1 0x20 DUP4 ADD CALLDATACOPY PUSH1 0x0 SWAP2 DUP2 ADD PUSH1 0x20 ADD SWAP2 SWAP1 SWAP2 MSTORE SWAP4 SWAP3 POP POP POP JUMP JUMPDEST PUSH1 0x0 DUP1 PUSH1 0x40 DUP4 DUP6 SUB SLT ISZERO PUSH2 0x28CE JUMPI PUSH1 0x0 DUP1 REVERT JUMPDEST DUP3 CALLDATALOAD SWAP2 POP PUSH1 0x20 DUP4 ADD CALLDATALOAD PUSH1 0x1 PUSH1 0x1 PUSH1 0x40 SHL SUB DUP2 GT ISZERO PUSH2 0x28EB JUMPI PUSH1 0x0 DUP1 REVERT JUMPDEST PUSH2 0x28F7 DUP6 DUP3 DUP7 ADD PUSH2 0x2865 JUMP JUMPDEST SWAP2 POP POP SWAP3 POP SWAP3 SWAP1 POP JUMP JUMPDEST PUSH1 0x0 PUSH1 0x20 DUP3 DUP5 SUB SLT ISZERO PUSH2 0x2913 JUMPI PUSH1 0x0 DUP1 REVERT JUMPDEST DUP2 CALLDATALOAD PUSH2 0x187D DUP2 PUSH2 0x271C JUMP JUMPDEST DUP1 CALLDATALOAD PUSH1 0x1 PUSH1 0x1 PUSH1 0x80 SHL SUB DUP2 AND DUP2 EQ PUSH2 0x2717 JUMPI PUSH1 0x0 DUP1 REVERT JUMPDEST PUSH1 0x0 DUP1 PUSH1 0x40 DUP4 DUP6 SUB SLT ISZERO PUSH2 0x2948 JUMPI PUSH1 0x0 DUP1 REVERT JUMPDEST PUSH2 0x2951 DUP4 PUSH2 0x291E JUMP JUMPDEST SWAP2 POP PUSH2 0x295F PUSH1 0x20 DUP5 ADD PUSH2 0x26FF JUMP JUMPDEST SWAP1 POP SWAP3 POP SWAP3 SWAP1 POP JUMP JUMPDEST PUSH1 0x0 DUP1 DUP4 PUSH1 0x1F DUP5 ADD SLT PUSH2 0x297A JUMPI PUSH1 0x0 DUP1 REVERT JUMPDEST POP DUP2 CALLDATALOAD PUSH1 0x1 PUSH1 0x1 PUSH1 0x40 SHL SUB DUP2 GT ISZERO PUSH2 0x2991 JUMPI PUSH1 0x0 DUP1 REVERT JUMPDEST PUSH1 0x20 DUP4 ADD SWAP2 POP DUP4 PUSH1 0x20 DUP3 DUP6 ADD ADD GT ISZERO PUSH2 0x13D2 JUMPI PUSH1 0x0 DUP1 REVERT JUMPDEST PUSH1 0x0 DUP1 PUSH1 0x0 DUP1 PUSH1 0x0 DUP1 PUSH1 0x0 DUP1 PUSH1 0x0 PUSH1 0xC0 DUP11 DUP13 SUB SLT ISZERO PUSH2 0x29C7 JUMPI PUSH1 0x0 DUP1 REVERT JUMPDEST DUP10 CALLDATALOAD PUSH2 0x29D2 DUP2 PUSH2 0x271C JUMP JUMPDEST SWAP9 POP PUSH1 0x20 DUP11 ADD CALLDATALOAD PUSH2 0x29E2 DUP2 PUSH2 0x271C JUMP JUMPDEST SWAP8 POP PUSH1 0x40 DUP11 ADD CALLDATALOAD SWAP7 POP PUSH1 0x60 DUP11 ADD CALLDATALOAD PUSH1 0x1 PUSH1 0x1 PUSH1 0x40 SHL SUB DUP1 DUP3 GT ISZERO PUSH2 0x2A05 JUMPI PUSH1 0x0 DUP1 REVERT JUMPDEST PUSH2 0x2A11 DUP14 DUP4 DUP15 ADD PUSH2 0x2968 JUMP JUMPDEST SWAP1 SWAP9 POP SWAP7 POP PUSH1 0x80 DUP13 ADD CALLDATALOAD SWAP2 POP DUP1 DUP3 GT ISZERO PUSH2 0x2A2A JUMPI PUSH1 0x0 DUP1 REVERT JUMPDEST PUSH2 0x2A36 DUP14 DUP4 DUP15 ADD PUSH2 0x2968 JUMP JUMPDEST SWAP1 SWAP7 POP SWAP5 POP PUSH1 0xA0 DUP13 ADD CALLDATALOAD SWAP2 POP DUP1 DUP3 GT ISZERO PUSH2 0x2A4F JUMPI PUSH1 0x0 DUP1 REVERT JUMPDEST POP PUSH2 0x2A5C DUP13 DUP3 DUP14 ADD PUSH2 0x2968 JUMP JUMPDEST SWAP2 POP DUP1 SWAP4 POP POP DUP1 SWAP2 POP POP SWAP3 SWAP6 SWAP9 POP SWAP3 SWAP6 SWAP9 POP SWAP3 SWAP6 SWAP9 JUMP JUMPDEST PUSH1 0x0 DUP1 PUSH1 0x0 DUP1 PUSH1 0x0 DUP1 PUSH1 0x0 PUSH1 0xA0 DUP9 DUP11 SUB SLT ISZERO PUSH2 0x2A8E JUMPI PUSH1 0x0 DUP1 REVERT JUMPDEST DUP8 CALLDATALOAD PUSH2 0x2A99 DUP2 PUSH2 0x271C JUMP JUMPDEST SWAP7 POP PUSH1 0x20 DUP9 ADD CALLDATALOAD PUSH2 0x2AA9 DUP2 PUSH2 0x271C JUMP JUMPDEST SWAP6 POP PUSH1 0x40 DUP9 ADD CALLDATALOAD SWAP5 POP PUSH1 0x60 DUP9 ADD CALLDATALOAD PUSH1 0x1 PUSH1 0x1 PUSH1 0x40 SHL SUB DUP1 DUP3 GT ISZERO PUSH2 0x2ACC JUMPI PUSH1 0x0 DUP1 REVERT JUMPDEST PUSH2 0x2AD8 DUP12 DUP4 DUP13 ADD PUSH2 0x2968 JUMP JUMPDEST SWAP1 SWAP7 POP SWAP5 POP PUSH1 0x80 DUP11 ADD CALLDATALOAD SWAP2 POP DUP1 DUP3 GT ISZERO PUSH2 0x2AF1 JUMPI PUSH1 0x0 DUP1 REVERT JUMPDEST POP PUSH2 0x2AFE DUP11 DUP3 DUP12 ADD PUSH2 0x2968 JUMP JUMPDEST SWAP9 SWAP12 SWAP8 SWAP11 POP SWAP6 SWAP9 POP SWAP4 SWAP7 SWAP3 SWAP6 SWAP3 SWAP4 POP POP POP JUMP JUMPDEST PUSH1 0x0 PUSH1 0x20 DUP3 DUP5 SUB SLT ISZERO PUSH2 0x2B23 JUMPI PUSH1 0x0 DUP1 REVERT JUMPDEST DUP2 CALLDATALOAD PUSH1 0x1 PUSH1 0x1 PUSH1 0x40 SHL SUB DUP2 GT ISZERO PUSH2 0x2B39 JUMPI PUSH1 0x0 DUP1 REVERT JUMPDEST PUSH2 0x2B45 DUP5 DUP3 DUP6 ADD PUSH2 0x2865 JUMP JUMPDEST SWAP5 SWAP4 POP POP POP POP JUMP JUMPDEST PUSH1 0x0 DUP1 PUSH1 0x20 DUP4 DUP6 SUB SLT ISZERO PUSH2 0x2B60 JUMPI PUSH1 0x0 DUP1 REVERT JUMPDEST DUP3 CALLDATALOAD PUSH1 0x1 PUSH1 0x1 PUSH1 0x40 SHL SUB DUP2 GT ISZERO PUSH2 0x2B76 JUMPI PUSH1 0x0 DUP1 REVERT JUMPDEST PUSH2 0x2B82 DUP6 DUP3 DUP7 ADD PUSH2 0x2968 JUMP JUMPDEST SWAP1 SWAP7 SWAP1 SWAP6 POP SWAP4 POP POP POP POP JUMP JUMPDEST PUSH1 0x0 DUP1 PUSH1 0x40 DUP4 DUP6 SUB SLT ISZERO PUSH2 0x2BA1 JUMPI PUSH1 0x0 DUP1 REVERT JUMPDEST DUP3 CALLDATALOAD PUSH1 0x1 PUSH1 0x1 PUSH1 0x40 SHL SUB DUP2 GT ISZERO PUSH2 0x2BB7 JUMPI PUSH1 0x0 DUP1 REVERT JUMPDEST PUSH2 0x2BC3 DUP6 DUP3 DUP7 ADD PUSH2 0x2865 JUMP JUMPDEST SWAP3 POP POP PUSH1 0x20 DUP4 ADD CALLDATALOAD PUSH2 0x2BD4 DUP2 PUSH2 0x271C JUMP JUMPDEST DUP1 SWAP2 POP POP SWAP3 POP SWAP3 SWAP1 POP JUMP JUMPDEST PUSH1 0x0 DUP1 PUSH1 0x0 PUSH1 0x60 DUP5 DUP7 SUB SLT ISZERO PUSH2 0x2BF4 JUMPI PUSH1 0x0 DUP1 REVERT JUMPDEST DUP4 CALLDATALOAD SWAP3 POP PUSH1 0x20 DUP5 ADD CALLDATALOAD PUSH1 0x1 PUSH1 0x1 PUSH1 0x40 SHL SUB DUP2 GT ISZERO PUSH2 0x2C11 JUMPI PUSH1 0x0 DUP1 REVERT JUMPDEST PUSH2 0x2C1D DUP7 DUP3 DUP8 ADD PUSH2 0x2865 JUMP JUMPDEST SWAP3 POP POP PUSH1 0x40 DUP5 ADD CALLDATALOAD PUSH2 0x2C2E DUP2 PUSH2 0x271C JUMP JUMPDEST DUP1 SWAP2 POP POP SWAP3 POP SWAP3 POP SWAP3 JUMP JUMPDEST DUP3 ISZERO ISZERO DUP2 MSTORE PUSH1 0x40 PUSH1 0x20 DUP3 ADD MSTORE PUSH1 0x0 PUSH2 0x2B45 PUSH1 0x40 DUP4 ADD DUP5 PUSH2 0x27B9 JUMP JUMPDEST PUSH1 0x0 PUSH1 0x20 DUP3 DUP5 SUB SLT ISZERO PUSH2 0x2C66 JUMPI PUSH1 0x0 DUP1 REVERT JUMPDEST PUSH2 0x187D DUP3 PUSH2 0x26FF JUMP JUMPDEST PUSH1 0x0 PUSH1 0x20 DUP3 DUP5 SUB SLT ISZERO PUSH2 0x2C81 JUMPI PUSH1 0x0 DUP1 REVERT JUMPDEST PUSH2 0x187D DUP3 PUSH2 0x291E JUMP JUMPDEST PUSH1 0x0 DUP1 PUSH1 0x0 PUSH1 0x60 DUP5 DUP7 SUB SLT ISZERO PUSH2 0x2C9F JUMPI PUSH1 0x0 DUP1 REVERT JUMPDEST DUP4 CALLDATALOAD SWAP3 POP PUSH1 0x20 DUP5 ADD CALLDATALOAD PUSH1 0x1 PUSH1 0x1 PUSH1 0x40 SHL SUB DUP2 GT ISZERO PUSH2 0x2CBC JUMPI PUSH1 0x0 DUP1 REVERT JUMPDEST PUSH2 0x2CC8 DUP7 DUP3 DUP8 ADD PUSH2 0x2865 JUMP JUMPDEST SWAP3 POP POP PUSH1 0x40 DUP5 ADD CALLDATALOAD SWAP1 POP SWAP3 POP SWAP3 POP SWAP3 JUMP JUMPDEST PUSH1 0x0 DUP1 PUSH1 0x40 DUP4 DUP6 SUB SLT ISZERO PUSH2 0x2CEC JUMPI PUSH1 0x0 DUP1 REVERT JUMPDEST PUSH2 0x2CF5 DUP4 PUSH2 0x291E JUMP JUMPDEST SWAP5 PUSH1 0x20 SWAP4 SWAP1 SWAP4 ADD CALLDATALOAD SWAP4 POP POP POP JUMP JUMPDEST PUSH1 0x20 DUP1 DUP3 MSTORE DUP2 DUP2 ADD MSTORE PUSH32 0x4F776E61626C653A2063616C6C6572206973206E6F7420746865206F776E6572 PUSH1 0x40 DUP3 ADD MSTORE PUSH1 0x60 ADD SWAP1 JUMP JUMPDEST PUSH1 0x1 DUP2 DUP2 SHR SWAP1 DUP3 AND DUP1 PUSH2 0x2D4C JUMPI PUSH1 0x7F DUP3 AND SWAP2 POP JUMPDEST PUSH1 0x20 DUP3 LT DUP2 EQ ISZERO PUSH2 0x2D6D JUMPI PUSH4 0x4E487B71 PUSH1 0xE0 SHL PUSH1 0x0 MSTORE PUSH1 0x22 PUSH1 0x4 MSTORE PUSH1 0x24 PUSH1 0x0 REVERT JUMPDEST POP SWAP2 SWAP1 POP JUMP JUMPDEST PUSH1 0x0 PUSH1 0x20 DUP3 DUP5 SUB SLT ISZERO PUSH2 0x2D85 JUMPI PUSH1 0x0 DUP1 REVERT JUMPDEST POP MLOAD SWAP2 SWAP1 POP JUMP JUMPDEST PUSH1 0x0 PUSH1 0x20 DUP3 DUP5 SUB SLT ISZERO PUSH2 0x2D9E JUMPI PUSH1 0x0 DUP1 REVERT JUMPDEST DUP2 MLOAD DUP1 ISZERO ISZERO DUP2 EQ PUSH2 0x187D JUMPI PUSH1 0x0 DUP1 REVERT JUMPDEST PUSH1 0x0 DUP3 MLOAD PUSH2 0x2DC0 DUP2 DUP5 PUSH1 0x20 DUP8 ADD PUSH2 0x2789 JUMP JUMPDEST SWAP2 SWAP1 SWAP2 ADD SWAP3 SWAP2 POP POP JUMP JUMPDEST PUSH4 0x4E487B71 PUSH1 0xE0 SHL PUSH1 0x0 MSTORE PUSH1 0x11 PUSH1 0x4 MSTORE PUSH1 0x24 PUSH1 0x0 REVERT JUMPDEST PUSH1 0x0 DUP3 NOT DUP3 GT ISZERO PUSH2 0x2DF3 JUMPI PUSH2 0x2DF3 PUSH2 0x2DCA JUMP JUMPDEST POP ADD SWAP1 JUMP JUMPDEST PUSH4 0x4E487B71 PUSH1 0xE0 SHL PUSH1 0x0 MSTORE PUSH1 0x32 PUSH1 0x4 MSTORE PUSH1 0x24 PUSH1 0x0 REVERT JUMPDEST PUSH1 0x0 PUSH1 0x0 NOT DUP3 EQ ISZERO PUSH2 0x2E22 JUMPI PUSH2 0x2E22 PUSH2 0x2DCA JUMP JUMPDEST POP PUSH1 0x1 ADD SWAP1 JUMP JUMPDEST DUP1 MLOAD PUSH10 0xFFFFFFFFFFFFFFFFFFFF DUP2 AND DUP2 EQ PUSH2 0x2717 JUMPI PUSH1 0x0 DUP1 REVERT JUMPDEST PUSH1 0x0 DUP1 PUSH1 0x0 DUP1 PUSH1 0x0 PUSH1 0xA0 DUP7 DUP9 SUB SLT ISZERO PUSH2 0x2E5B JUMPI PUSH1 0x0 DUP1 REVERT JUMPDEST PUSH2 0x2E64 DUP7 PUSH2 0x2E29 JUMP JUMPDEST SWAP5 POP PUSH1 0x20 DUP7 ADD MLOAD SWAP4 POP PUSH1 0x40 DUP7 ADD MLOAD SWAP3 POP PUSH1 0x60 DUP7 ADD MLOAD SWAP2 POP PUSH2 0x2E87 PUSH1 0x80 DUP8 ADD PUSH2 0x2E29 JUMP JUMPDEST SWAP1 POP SWAP3 SWAP6 POP SWAP3 SWAP6 SWAP1 SWAP4 POP JUMP JUMPDEST PUSH1 0x0 DUP1 DUP4 SLOAD DUP2 PUSH1 0x1 DUP3 DUP2 SHR SWAP2 POP DUP1 DUP4 AND DUP1 PUSH2 0x2EAF JUMPI PUSH1 0x7F DUP4 AND SWAP3 POP JUMPDEST PUSH1 0x20 DUP1 DUP5 LT DUP3 EQ ISZERO PUSH2 0x2ECF JUMPI PUSH4 0x4E487B71 PUSH1 0xE0 SHL DUP7 MSTORE PUSH1 0x22 PUSH1 0x4 MSTORE PUSH1 0x24 DUP7 REVERT JUMPDEST DUP2 DUP1 ISZERO PUSH2 0x2EE3 JUMPI PUSH1 0x1 DUP2 EQ PUSH2 0x2EF4 JUMPI PUSH2 0x2F21 JUMP JUMPDEST PUSH1 0xFF NOT DUP7 AND DUP10 MSTORE DUP5 DUP10 ADD SWAP7 POP PUSH2 0x2F21 JUMP JUMPDEST PUSH1 0x0 DUP11 DUP2 MSTORE PUSH1 0x20 SWAP1 KECCAK256 PUSH1 0x0 JUMPDEST DUP7 DUP2 LT ISZERO PUSH2 0x2F19 JUMPI DUP2 SLOAD DUP12 DUP3 ADD MSTORE SWAP1 DUP6 ADD SWAP1 DUP4 ADD PUSH2 0x2F00 JUMP JUMPDEST POP POP DUP5 DUP10 ADD SWAP7 POP JUMPDEST POP SWAP5 SWAP9 SWAP8 POP POP POP POP POP POP POP POP JUMP JUMPDEST PUSH1 0x0 PUSH1 0x1 PUSH1 0x1 PUSH1 0x80 SHL SUB DUP1 DUP4 AND DUP2 DUP6 AND DUP1 DUP4 SUB DUP3 GT ISZERO PUSH2 0x2F51 JUMPI PUSH2 0x2F51 PUSH2 0x2DCA JUMP JUMPDEST ADD SWAP5 SWAP4 POP POP POP POP JUMP JUMPDEST PUSH1 0x0 DUP3 DUP3 LT ISZERO PUSH2 0x2F6C JUMPI PUSH2 0x2F6C PUSH2 0x2DCA JUMP JUMPDEST POP SUB SWAP1 JUMP JUMPDEST PUSH1 0x0 DUP2 PUSH1 0xB SIGNEXTEND DUP4 PUSH1 0xB SIGNEXTEND DUP1 PUSH2 0x2F96 JUMPI PUSH4 0x4E487B71 PUSH1 0xE0 SHL PUSH1 0x0 MSTORE PUSH1 0x12 PUSH1 0x4 MSTORE PUSH1 0x24 PUSH1 0x0 REVERT JUMPDEST PUSH12 0x7FFFFFFFFFFFFFFFFFFFFFFF NOT DUP3 EQ PUSH1 0x0 NOT DUP3 EQ AND ISZERO PUSH2 0x2FB9 JUMPI PUSH2 0x2FB9 PUSH2 0x2DCA JUMP JUMPDEST SWAP1 SDIV SWAP4 SWAP3 POP POP POP JUMP JUMPDEST PUSH1 0x1 PUSH1 0x1 PUSH1 0xA0 SHL SUB DUP6 DUP2 AND DUP3 MSTORE DUP5 AND PUSH1 0x20 DUP3 ADD MSTORE PUSH1 0xB DUP4 SWAP1 SIGNEXTEND PUSH1 0x40 DUP3 ADD MSTORE PUSH1 0x80 PUSH1 0x60 DUP3 ADD DUP2 SWAP1 MSTORE PUSH1 0x0 SWAP1 PUSH2 0x2FF8 SWAP1 DUP4 ADD DUP5 PUSH2 0x27B9 JUMP JUMPDEST SWAP7 SWAP6 POP POP POP POP POP POP JUMP JUMPDEST PUSH1 0x1 PUSH1 0x1 PUSH1 0xA0 SHL SUB DUP4 AND DUP2 MSTORE PUSH1 0x60 PUSH1 0x20 DUP3 ADD DUP2 SWAP1 MSTORE PUSH1 0x0 SWAP1 PUSH2 0x3026 SWAP1 DUP4 ADD DUP5 PUSH2 0x27B9 JUMP JUMPDEST DUP3 DUP2 SUB PUSH1 0x40 SWAP4 DUP5 ADD MSTORE PUSH1 0x2 DUP2 MSTORE PUSH2 0x60F PUSH1 0xF3 SHL PUSH1 0x20 DUP3 ADD MSTORE SWAP2 SWAP1 SWAP2 ADD SWAP4 SWAP3 POP POP POP JUMP JUMPDEST PUSH1 0x0 PUSH1 0x20 DUP3 DUP5 SUB SLT ISZERO PUSH2 0x305B JUMPI PUSH1 0x0 DUP1 REVERT JUMPDEST DUP2 MLOAD PUSH1 0x1 PUSH1 0x1 PUSH1 0x40 SHL SUB DUP2 GT ISZERO PUSH2 0x3071 JUMPI PUSH1 0x0 DUP1 REVERT JUMPDEST DUP3 ADD PUSH1 0x1F DUP2 ADD DUP5 SGT PUSH2 0x3082 JUMPI PUSH1 0x0 DUP1 REVERT JUMPDEST DUP1 MLOAD PUSH2 0x3090 PUSH2 0x2884 DUP3 PUSH2 0x283E JUMP JUMPDEST DUP2 DUP2 MSTORE DUP6 PUSH1 0x20 DUP4 DUP6 ADD ADD GT ISZERO PUSH2 0x30A5 JUMPI PUSH1 0x0 DUP1 REVERT JUMPDEST PUSH2 0x30B6 DUP3 PUSH1 0x20 DUP4 ADD PUSH1 0x20 DUP7 ADD PUSH2 0x2789 JUMP JUMPDEST SWAP6 SWAP5 POP POP POP POP POP JUMP INVALID LOG2 PUSH5 0x6970667358 0x22 SLT KECCAK256 0xC 0xE3 0xE9 PUSH20 0x5C63B84390F609EAB63391A4D8F96ED39091921A 0xE1 PUSH7 0x280078BB8BB764 PUSH20 0x6F6C634300080B00330000000000000000000000 ",
  "sha1": "a4ed0f52074aee8711b869b3a5840b792733a26b",
  "source": "//SPDX-License-Identifier: MIT\npragma solidity ^0.8.0;\npragma abicoder v2;\n\nimport \"../interfaces/TransferHelper.sol\";\nimport \"@chainlink/contracts/src/v0.8/interfaces/AggregatorV3Interface.sol\";\nimport \"@chainlink/contracts/src/v0.8/interfaces/KeeperCompatibleInterface.sol\";\n//import \"@openzeppelin/contracts/token/ERC20/IERC20.sol\";\nimport \"@openzeppelin/contracts/access/Ownable.sol\";\n\nimport {ERC721} from \"@openzeppelin/contracts/token/ERC721/ERC721.sol\";\nimport \"@openzeppelin/contracts/access/Ownable.sol\";\n\nimport \"../interfaces/DataTypes.sol\";\nimport \"../interfaces/ILendingPoolAddressesProvider.sol\";\nimport \"../interfaces/ILendingPool.sol\";\nimport {\n    ISuperfluid,\n    ISuperToken,\n    ISuperApp,\n    ISuperAgreement,\n    SuperAppDefinitions\n} from \"../supercon/interfaces/superfluid/ISuperfluid.sol\";\n\nimport {\n    IConstantFlowAgreementV1\n} from \"../supercon/interfaces/agreements/IConstantFlowAgreementV1.sol\";\n\n\nimport {ERC20} from \"@openzeppelin/contracts/token/ERC20/ERC20.sol\";\n\nimport {\n    SuperAppBase\n} from \"../supercon/apps/SuperAppBase.sol\";\nimport \"../interfaces/IRedirect.sol\";\nimport \"../interfaces/IGovernanceToken.sol\";\n\n\n//make it a super app to allow using superfluid flows and instant distribution\ncontract MoonSquares is SuperAppBase, KeeperCompatibleInterface, Ownable {\n    \n    ISuperfluid private _host; // host\n    IConstantFlowAgreementV1 private _cfa; // the stored constant flow agreement class address \n    \n    //the Super token used to pay for option premium (sent directly to the NFT and redirected to owner of the NFT)\n    ISuperToken public _acceptedToken; // accepted token, could be the aToken \n\n\n    address[] public allowedPayments;//list of all accepted stablecoins for placing a prediction\n\n    string[] public allowedAssets;//All assets that are predicted on the platform\n    \n    address[] assetPriceAggregators;\n\n    address[] public contracts;\n\n    mapping(string => address) public assetToAggregator;\n\n    mapping(string => uint256) public coinRound;\n    //uint128 public coinRound;\n\n    uint128 public monthCount;\n\n    uint public payroundStartTime;\n\n    uint128 constant payDayDuration = 30 days;\n\n    uint public totalPaid;\n\n    //IUniswapV2Router02 public sushiRouter = IUniswapV2Router02(0x1b02dA8Cb0d097eB8D57A175b88c7D8b47997506);\n\n    ILendingPoolAddressesProvider public provider = ILendingPoolAddressesProvider(\n        address(0x88757f2f99175387aB4C6a4b3067c77A695b0349)\n    ); \n    ILendingPool public lendingPool = ILendingPool(provider.getLendingPool());\n\n    //ISwapRouter public immutable swapRouter;\n    //uint24 public constant poolFee = 3000;\n    \n    IRedirect flowDistrubuter;\n    IGovernanceToken governanceToken;\n\n    address Dai = 0xFf795577d9AC8bD7D90Ee22b6C1703490b6512FD;\n    address _aaveToken;\n    \n    mapping (uint256 => uint256) public roundInterestEarned;\n//\n    mapping(uint256 => mapping(string => RoundInfo)) public roundCoinInfo;\n    struct RoundInfo {\n        int256 moonPrice;\n        uint256 winnings;\n        int256 startPrice;\n        uint256 totalStaked;\n        uint256 startTime;\n        uint256 winningTime;\n    }\n\n    uint public totalStaked;\n    //sample bet\n    //structure of the bet\n    struct Bet {\n        uint256 squareStartTime;\n        uint256 squareEndTime;\n    }\n    \n    struct Charity {\n        bytes8 name;\n        bytes32 link; //sends people to the charity's official site\n    }\n\n    mapping (address => Charity) public presentCharities;\n\n    bytes8[] charities;\n    address[] charityAddress;\n    \n    mapping(uint128 => mapping(bytes8 => uint128)) public roundCharityVotes;\n    \n    mapping(uint128 => address) public roundVoteResults;\n    \n    mapping (uint128 => address[]) public winers;\n\n    mapping (uint256 => mapping (string => address[])) public roundCoinPlayerArray;\n\n    mapping (uint256 => mapping (string => uint256[])) private roundCoinStartTimeArray;\n\n    mapping (uint256 => mapping (string => uint256[])) private  roundCoinEndTimeArray;\n    \n    mapping(uint256 => mapping(string => uint256[])) private roundCoinWinningIndex;\n\n    mapping (uint256 => mapping( string => mapping (address => Bet))) public roundCoinAddressBetsPlaced;\n\n    mapping(uint256 => mapping(string => bool)) public roundCoinWinningIsWinner;\n\n    mapping (address => uint256) totalAmountPlayed;//shows how much every player has placed\n\n    event Predicted(address indexed _placer, uint256 _start, uint _end);\n    \n\n    constructor(\n        \n        //set superfluid specific params, receiver, and accepted token in the constructor\n        \n        ISuperfluid host,//0xF0d7d1D47109bA426B9D8A3Cde1941327af1eea3\n        IConstantFlowAgreementV1 cfa,//0xECa8056809e7e8db04A8fF6e4E82cD889a46FE2F\n        ISuperToken acceptedToken//0xe3cb950cb164a31c66e32c320a800d477019dcff\n        ) {\n        require(address(host) != address(0));\n        require(address(cfa) != address(0));\n        require(address(acceptedToken) != address(0));\n        //require(address(receiver) != address(0));\n        //require(!host.isApp(ISuperApp(receiver)));\n        _host = host;\n        _cfa = cfa;\n        _acceptedToken = acceptedToken;\n        payroundStartTime = block.timestamp;\n\n\n        uint256 configWord =\n            SuperAppDefinitions.APP_LEVEL_FINAL |\n            SuperAppDefinitions.BEFORE_AGREEMENT_CREATED_NOOP |\n            SuperAppDefinitions.BEFORE_AGREEMENT_UPDATED_NOOP |\n            SuperAppDefinitions.BEFORE_AGREEMENT_TERMINATED_NOOP;\n\n        _host.registerApp(configWord);\n\n    }\n    \n    modifier isWinner() {\n        for (uint i =0; i< winers[monthCount].length; i++) {\n            require(winers[monthCount][i] == msg.sender);\n        }\n        _;\n    }\n\n    modifier isAllowedContract() {\n        for (uint i =0; i< contracts.length; i++) {\n            require(contracts[i] == msg.sender);\n        }\n        _;\n    }\n\n    function _updateStorage(\n        uint _start,\n        string memory market\n    ) internal {\n        roundCoinAddressBetsPlaced[coinRound[market]][market][msg.sender].squareStartTime = _start;\n        \n        roundCoinAddressBetsPlaced[coinRound[market]][market][msg.sender].squareEndTime  = (_start + 1800 seconds);\n        //update all the relevant arrays\n        roundCoinPlayerArray[coinRound[market]][market].push(msg.sender);\n        roundCoinStartTimeArray[coinRound[market]][market].push(_start);\n        roundCoinEndTimeArray[coinRound[market]][market].push((_start + 1800 seconds));\n\n    } \n    //predicts an asset\n   function predictAsset(\n        uint256 _start, \n        string memory market\n    ) external\n    {   \n        uint amount = 10000000000000000000;\n        uint duration = 300 seconds;\n        require(_start > block.timestamp);\n        require(IERC20(Dai).allowance(msg.sender, address(this)) >= amount);\n        IERC20(Dai).transferFrom(msg.sender, address(this), amount);\n        //update the total value played\n        roundCoinInfo[coinRound[market]][market].totalStaked += amount;\n        roundCoinInfo[coinRound[market]][market].winnings += 9000000000000000;\n        totalStaked += amount;\n        aaveDeposit(amount);\n        _updateStorage(_start, market);\n        emit Predicted(msg.sender, _start, (_start + duration));\n    }\n\n\n\n    function aaveDeposit(uint amount) internal {\n        IERC20(Dai).approve(address(lendingPool), amount);\n        lendingPool.deposit(\n            Dai,\n            amount,\n            address(this),\n            0\n        );\n    }\n\n    //gets the price of the asset denoted by market\n    function getPrice(string memory market) public view returns(int256){\n        AggregatorV3Interface priceFeed = AggregatorV3Interface(assetToAggregator[market]); \n        (,int256 answer,,,) = priceFeed.latestRoundData();\n        return int256(answer);\n    }\n\n    //gets the current time\n    function getTime() public view returns(uint256){\n        AggregatorV3Interface priceFeed = AggregatorV3Interface(0x6135b13325bfC4B00278B4abC5e20bbce2D6580e);\n        //Matic network\n        (,,,uint256 answer,) = priceFeed.latestRoundData();\n         return uint256(answer);\n    }\n\n    //it \n    function _checkIndexes(string memory market, uint p) internal view returns(bool){\n        if (\n            roundCoinStartTimeArray[coinRound[market]][market][p] >= roundCoinInfo[coinRound[market]][market].winningTime\n            &&\n            roundCoinEndTimeArray[coinRound[market]][market][p] <= roundCoinInfo[coinRound[market]][market].winningTime\n        ) {\n            return true;\n        } else {\n            return false;\n        }\n    }\n    function setwinningIndex(string memory market) internal {\n        /* we iterate over the squareStartTimeArray(of squareStartTime) and the squareEndTimeArray (of squareEndTime) to assertain that the winning time \n           is either equal to them or more than the squareStartTime but less than the squareEndTime\n        */\n        require(\n            roundCoinEndTimeArray[coinRound[market]][market].length\n            ==\n            roundCoinStartTimeArray[coinRound[market]][market].length\n        );\n        for (uint256 p =0; p < roundCoinStartTimeArray[coinRound[market]][market].length; p++) {\n            if (_checkIndexes(market, p) == true){\n                roundCoinWinningIndex[coinRound[market]][market].push(p);\n            }\n            //round coin start time array of p to be greater or equal to the round coin winning time\n        }\n        //since squares will be owned by more than one person, we set the index to allow us to delagate the claiming reward function to the user.\n    }\n\n    function isAwiner(uint256 _round, string memory market, address checkeAddress) public view returns(bool) {\n        if (roundCoinInfo[_round][market].winningTime == 0) {\n            return false;\n        } else {\n            require(roundCoinInfo[_round][market].winningTime != 0);\n            require(\n                roundCoinAddressBetsPlaced[_round][market][checkeAddress].squareStartTime\n                <=\n                roundCoinInfo[_round][market].winningTime\n            );\n            require(\n                roundCoinAddressBetsPlaced[_round][market][checkeAddress].squareEndTime\n                >=\n                roundCoinInfo[_round][market].winningTime\n            );\n            return true;\n        }\n\n    }\n    //should use superflid's flow if its just one user & instant distribution if there are several winners\n\n     function givePrize( string memory market) private {\n        require(roundCoinWinningIndex[coinRound[market]][market].length != 0);\n        if (roundCoinWinningIndex[coinRound[market]][market].length == 1) {\n    \n            IERC20(Dai).transfer(\n                roundCoinPlayerArray[coinRound[market]][market][roundCoinWinningIndex[coinRound[market]][market][0]],\n                roundCoinInfo[coinRound[market]][market].winnings\n            );\n        } else {\n            for (uint8 i = 0; i < roundCoinWinningIndex[coinRound[market]][market].length; i++) {\n                require(roundCoinPlayerArray[coinRound[market]][market][roundCoinWinningIndex[coinRound[market]][market][i]] == msg.sender);\n                IERC20(Dai).transfer(\n                    roundCoinPlayerArray[coinRound[market]][market][roundCoinWinningIndex[coinRound[market]][market][i]], \n                    roundCoinInfo[coinRound[market]][market].winnings/roundCoinWinningIndex[coinRound[market]][market].length\n                );\n            }\n        }\n        totalPaid += roundCoinInfo[coinRound[market]][market].winnings;\n\n    }\n\n    function setTime(string memory market) private {\n        roundCoinInfo[coinRound[market]][market].winningTime = getTime();\n        setwinningIndex(market);\n        withdrawRoundFundsFromIba(market);\n    }\n\n    function checkUpkeep(\n        bytes calldata checkData\n    ) external view override returns (\n        bool upkeepNeeded, bytes memory performData\n    ) {\n        for (uint256 p = 0; p < allowedAssets.length; p++) {\n        \n            if (\n                getPrice(allowedAssets[p])\n                ==\n                roundCoinInfo[coinRound[allowedAssets[p]]][allowedAssets[p]].moonPrice\n            ) {\n                upkeepNeeded = true;\n                return (true, /* address(this).call( */ abi.encodePacked(uint256(p)));\n            }\n        }\n        if (block.timestamp >= payroundStartTime + 30 days) {\n            upkeepNeeded = true;\n            return (true, abi.encodePacked(uint256(1000)));\n        }\n        performData = checkData;\n        \n    }\n\n    function performUpkeep(bytes calldata performData) external override {\n        uint256 decodedValue = abi.decode(performData, (uint256));\n        if(decodedValue <= allowedAssets.length){\n            setTime(allowedAssets[decodedValue]);\n        }\n        if (decodedValue ==1000) {\n            payroundStartTime +=30 days;\n            withdrawInterest(_aaveToken);\n            flowToPaymentDistributer();\n            distributeToMembers();\n        }\n    }\n\n    modifier allowedToken(address _token) {\n        for(uint i =0; i < allowedPayments.length; i++) {\n            require(allowedPayments[i] == _token);\n        }\n        _;\n    }\n\n    function setwinningCharity() internal{\n        uint128 winning_votes = 0;\n        for (uint i =0; i < charities.length; i++) {\n            if (roundCharityVotes[monthCount][charities[i]] > winning_votes){\n                winning_votes == roundCharityVotes[monthCount][charities[i]];\n                roundVoteResults[monthCount] = charityAddress[i];\n            }\n        }\n        flowDistrubuter.changeReceiverAdress(roundVoteResults[monthCount]);\n        //return charities[i];\n    }\n\n    //withdraws the total Amount after the moonpice gets hit\n    function withdrawRoundFundsFromIba(string memory market) private {\n        require(roundCoinWinningIndex[coinRound[market]][market].length != 0);\n        lendingPool.withdraw(\n            Dai,\n            roundCoinInfo[coinRound[market]][market].winnings,\n            address(this)\n        );\n        \n        //Withdraws Funds from the predictions\n    }\n\n    function distributeToMembers() private {\n        require(monthCount != 0);\n        uint256 cashAmount = _acceptedToken.balanceOf(address(governanceToken));\n        governanceToken.distribute(\n            cashAmount\n        );\n    }\n\n    function withdrawInterest(address aaveToken) private returns(uint) {\n        uint aaveBalance = IERC20(aaveToken).balanceOf(address(this));\n        uint interest = aaveBalance - (totalStaked - totalPaid);\n        lendingPool.withdraw(\n            Dai,\n            interest,\n            address(this)\n        );\n        IERC20(Dai).approve(address(_acceptedToken), interest);\n        ISuperToken(_acceptedToken).upgrade(interest);\n        roundInterestEarned[monthCount] = interest;\n        return(interest);\n        //remember to upgrade the dai for flow\n\n    }\n    //distributes the Interest Earned on the round to members of the Dao\n    function flowToPaymentDistributer() private {\n        //Flows interest earned from the protocal to the redirectAll contract that handles distribution\n            //Flow Winnings\n        int256 toInt = int256(roundInterestEarned[monthCount]);\n        _host.callAgreement(\n            _cfa,\n            abi.encodeWithSelector(\n                _cfa.createFlow.selector,\n                _acceptedToken,\n                address(flowDistrubuter),//address to the distributer that sends funds to charity and Dao\n                (int96(toInt) / 30 days), //should be the total amount of Interest withdrawnfrom the IBA divided by the number of seconds in the withdrawal interval\n                new bytes(0) // placeholder\n            ),\n            \"0x\"\n        );\n        monthCount += 1;\n    }\n\n    function addAssetsAndAggregators(string memory _asset, address _aggregator) public onlyOwner {\n        require(allowedAssets.length < 100);\n        assetToAggregator[_asset] = _aggregator;\n        allowedAssets.push(_asset);\n        assetPriceAggregators.push(_aggregator);\n    }\n\n    function addCharity(bytes8 _charityName, address _charityAddress, bytes32 _link) external onlyOwner {\n        presentCharities[_charityAddress].name = _charityName;\n        presentCharities[_charityAddress].link = _link;\n        charities.push(_charityName);\n        charityAddress.push(_charityAddress);\n    }\n\n    function setMoonPrice(\n        int price,\n        string memory market\n    ) external onlyOwner {\n        roundCoinInfo[coinRound[market]][market] = RoundInfo(\n            price,\n            0,\n            getPrice(market),\n            0,\n            getTime(),\n            0\n        );\n\n    }\n\n    function voteForCharity(bytes8 charity) external isWinner {\n        roundCharityVotes[monthCount][charity] += 1;\n    }\n\n    //adds contracts that call core funtions\n    function addContract(address _conAddress) external onlyOwner{\n        contracts.push(_conAddress);\n    }\n\n    function addGovernanceToken(IGovernanceToken _gtAdress) public isAllowedContract {\n        governanceToken = _gtAdress;\n    }\n    \n    //adds winners to the charity voting pool\n    function addToWinners(address _winner) external isAllowedContract {\n        winers[monthCount].push(_winner);\n    }\n\n    //adds the flow distributor\n    function addFlowDistributor(IRedirect addr) external onlyOwner {\n        flowDistrubuter = addr;\n    }\n}",
  "sourcePath": "contracts/MoonSquares.sol",
  "type": "contract"
}