{
  "abi": [
    {
      "inputs": [
        {
          "internalType": "contract ISuperfluid",
          "name": "host",
          "type": "address"
        },
        {
          "internalType": "contract IConstantFlowAgreementV1",
          "name": "cfa",
          "type": "address"
        },
        {
          "internalType": "contract ISuperToken",
          "name": "acceptedToken",
          "type": "address"
        }
      ],
      "stateMutability": "nonpayable",
      "type": "constructor"
    },
    {
      "anonymous": false,
      "inputs": [
        {
          "indexed": true,
          "internalType": "address",
          "name": "previousOwner",
          "type": "address"
        },
        {
          "indexed": true,
          "internalType": "address",
          "name": "newOwner",
          "type": "address"
        }
      ],
      "name": "OwnershipTransferred",
      "type": "event"
    },
    {
      "anonymous": false,
      "inputs": [
        {
          "indexed": true,
          "internalType": "address",
          "name": "_placer",
          "type": "address"
        },
        {
          "indexed": false,
          "internalType": "uint256",
          "name": "_start",
          "type": "uint256"
        },
        {
          "indexed": false,
          "internalType": "uint256",
          "name": "_end",
          "type": "uint256"
        }
      ],
      "name": "Predicted",
      "type": "event"
    },
    {
      "inputs": [],
      "name": "_acceptedToken",
      "outputs": [
        {
          "internalType": "contract ISuperToken",
          "name": "",
          "type": "address"
        }
      ],
      "stateMutability": "view",
      "type": "function"
    },
    {
      "inputs": [
        {
          "internalType": "string",
          "name": "_asset",
          "type": "string"
        },
        {
          "internalType": "address",
          "name": "_aggregator",
          "type": "address"
        }
      ],
      "name": "addAssetsAndAggregators",
      "outputs": [],
      "stateMutability": "nonpayable",
      "type": "function"
    },
    {
      "inputs": [
        {
          "internalType": "bytes8",
          "name": "_charityName",
          "type": "bytes8"
        },
        {
          "internalType": "address",
          "name": "_charityAddress",
          "type": "address"
        },
        {
          "internalType": "bytes32",
          "name": "_link",
          "type": "bytes32"
        }
      ],
      "name": "addCharity",
      "outputs": [],
      "stateMutability": "nonpayable",
      "type": "function"
    },
    {
      "inputs": [
        {
          "internalType": "address",
          "name": "_conAddress",
          "type": "address"
        }
      ],
      "name": "addContract",
      "outputs": [],
      "stateMutability": "nonpayable",
      "type": "function"
    },
    {
      "inputs": [
        {
          "internalType": "contract IRedirect",
          "name": "addr",
          "type": "address"
        }
      ],
      "name": "addFlowDistributor",
      "outputs": [],
      "stateMutability": "nonpayable",
      "type": "function"
    },
    {
      "inputs": [
        {
          "internalType": "contract IGovernanceToken",
          "name": "_gtAdress",
          "type": "address"
        }
      ],
      "name": "addGovernanceToken",
      "outputs": [],
      "stateMutability": "nonpayable",
      "type": "function"
    },
    {
      "inputs": [
        {
          "internalType": "address",
          "name": "_winner",
          "type": "address"
        }
      ],
      "name": "addToWinners",
      "outputs": [],
      "stateMutability": "nonpayable",
      "type": "function"
    },
    {
      "inputs": [
        {
          "internalType": "contract ISuperToken",
          "name": "",
          "type": "address"
        },
        {
          "internalType": "address",
          "name": "",
          "type": "address"
        },
        {
          "internalType": "bytes32",
          "name": "",
          "type": "bytes32"
        },
        {
          "internalType": "bytes",
          "name": "",
          "type": "bytes"
        },
        {
          "internalType": "bytes",
          "name": "",
          "type": "bytes"
        },
        {
          "internalType": "bytes",
          "name": "",
          "type": "bytes"
        }
      ],
      "name": "afterAgreementCreated",
      "outputs": [
        {
          "internalType": "bytes",
          "name": "",
          "type": "bytes"
        }
      ],
      "stateMutability": "nonpayable",
      "type": "function"
    },
    {
      "inputs": [
        {
          "internalType": "contract ISuperToken",
          "name": "",
          "type": "address"
        },
        {
          "internalType": "address",
          "name": "",
          "type": "address"
        },
        {
          "internalType": "bytes32",
          "name": "",
          "type": "bytes32"
        },
        {
          "internalType": "bytes",
          "name": "",
          "type": "bytes"
        },
        {
          "internalType": "bytes",
          "name": "",
          "type": "bytes"
        },
        {
          "internalType": "bytes",
          "name": "",
          "type": "bytes"
        }
      ],
      "name": "afterAgreementTerminated",
      "outputs": [
        {
          "internalType": "bytes",
          "name": "",
          "type": "bytes"
        }
      ],
      "stateMutability": "nonpayable",
      "type": "function"
    },
    {
      "inputs": [
        {
          "internalType": "contract ISuperToken",
          "name": "",
          "type": "address"
        },
        {
          "internalType": "address",
          "name": "",
          "type": "address"
        },
        {
          "internalType": "bytes32",
          "name": "",
          "type": "bytes32"
        },
        {
          "internalType": "bytes",
          "name": "",
          "type": "bytes"
        },
        {
          "internalType": "bytes",
          "name": "",
          "type": "bytes"
        },
        {
          "internalType": "bytes",
          "name": "",
          "type": "bytes"
        }
      ],
      "name": "afterAgreementUpdated",
      "outputs": [
        {
          "internalType": "bytes",
          "name": "",
          "type": "bytes"
        }
      ],
      "stateMutability": "nonpayable",
      "type": "function"
    },
    {
      "inputs": [
        {
          "internalType": "uint256",
          "name": "",
          "type": "uint256"
        }
      ],
      "name": "allowedAssets",
      "outputs": [
        {
          "internalType": "string",
          "name": "",
          "type": "string"
        }
      ],
      "stateMutability": "view",
      "type": "function"
    },
    {
      "inputs": [
        {
          "internalType": "uint256",
          "name": "",
          "type": "uint256"
        }
      ],
      "name": "allowedPayments",
      "outputs": [
        {
          "internalType": "address",
          "name": "",
          "type": "address"
        }
      ],
      "stateMutability": "view",
      "type": "function"
    },
    {
      "inputs": [
        {
          "internalType": "string",
          "name": "",
          "type": "string"
        }
      ],
      "name": "assetToAggregator",
      "outputs": [
        {
          "internalType": "address",
          "name": "",
          "type": "address"
        }
      ],
      "stateMutability": "view",
      "type": "function"
    },
    {
      "inputs": [
        {
          "internalType": "contract ISuperToken",
          "name": "",
          "type": "address"
        },
        {
          "internalType": "address",
          "name": "",
          "type": "address"
        },
        {
          "internalType": "bytes32",
          "name": "",
          "type": "bytes32"
        },
        {
          "internalType": "bytes",
          "name": "",
          "type": "bytes"
        },
        {
          "internalType": "bytes",
          "name": "",
          "type": "bytes"
        }
      ],
      "name": "beforeAgreementCreated",
      "outputs": [
        {
          "internalType": "bytes",
          "name": "",
          "type": "bytes"
        }
      ],
      "stateMutability": "view",
      "type": "function"
    },
    {
      "inputs": [
        {
          "internalType": "contract ISuperToken",
          "name": "",
          "type": "address"
        },
        {
          "internalType": "address",
          "name": "",
          "type": "address"
        },
        {
          "internalType": "bytes32",
          "name": "",
          "type": "bytes32"
        },
        {
          "internalType": "bytes",
          "name": "",
          "type": "bytes"
        },
        {
          "internalType": "bytes",
          "name": "",
          "type": "bytes"
        }
      ],
      "name": "beforeAgreementTerminated",
      "outputs": [
        {
          "internalType": "bytes",
          "name": "",
          "type": "bytes"
        }
      ],
      "stateMutability": "view",
      "type": "function"
    },
    {
      "inputs": [
        {
          "internalType": "contract ISuperToken",
          "name": "",
          "type": "address"
        },
        {
          "internalType": "address",
          "name": "",
          "type": "address"
        },
        {
          "internalType": "bytes32",
          "name": "",
          "type": "bytes32"
        },
        {
          "internalType": "bytes",
          "name": "",
          "type": "bytes"
        },
        {
          "internalType": "bytes",
          "name": "",
          "type": "bytes"
        }
      ],
      "name": "beforeAgreementUpdated",
      "outputs": [
        {
          "internalType": "bytes",
          "name": "",
          "type": "bytes"
        }
      ],
      "stateMutability": "view",
      "type": "function"
    },
    {
      "inputs": [
        {
          "internalType": "bytes",
          "name": "checkData",
          "type": "bytes"
        }
      ],
      "name": "checkUpkeep",
      "outputs": [
        {
          "internalType": "bool",
          "name": "upkeepNeeded",
          "type": "bool"
        },
        {
          "internalType": "bytes",
          "name": "performData",
          "type": "bytes"
        }
      ],
      "stateMutability": "view",
      "type": "function"
    },
    {
      "inputs": [
        {
          "internalType": "string",
          "name": "",
          "type": "string"
        }
      ],
      "name": "coinRound",
      "outputs": [
        {
          "internalType": "uint256",
          "name": "",
          "type": "uint256"
        }
      ],
      "stateMutability": "view",
      "type": "function"
    },
    {
      "inputs": [
        {
          "internalType": "uint256",
          "name": "",
          "type": "uint256"
        }
      ],
      "name": "contracts",
      "outputs": [
        {
          "internalType": "address",
          "name": "",
          "type": "address"
        }
      ],
      "stateMutability": "view",
      "type": "function"
    },
    {
      "inputs": [
        {
          "internalType": "string",
          "name": "market",
          "type": "string"
        }
      ],
      "name": "getPrice",
      "outputs": [
        {
          "internalType": "int256",
          "name": "",
          "type": "int256"
        }
      ],
      "stateMutability": "view",
      "type": "function"
    },
    {
      "inputs": [],
      "name": "getTime",
      "outputs": [
        {
          "internalType": "uint256",
          "name": "",
          "type": "uint256"
        }
      ],
      "stateMutability": "view",
      "type": "function"
    },
    {
      "inputs": [
        {
          "internalType": "uint256",
          "name": "_round",
          "type": "uint256"
        },
        {
          "internalType": "string",
          "name": "market",
          "type": "string"
        },
        {
          "internalType": "address",
          "name": "checkeAddress",
          "type": "address"
        }
      ],
      "name": "isAwiner",
      "outputs": [
        {
          "internalType": "bool",
          "name": "",
          "type": "bool"
        }
      ],
      "stateMutability": "view",
      "type": "function"
    },
    {
      "inputs": [],
      "name": "lendingPool",
      "outputs": [
        {
          "internalType": "contract ILendingPool",
          "name": "",
          "type": "address"
        }
      ],
      "stateMutability": "view",
      "type": "function"
    },
    {
      "inputs": [],
      "name": "monthCount",
      "outputs": [
        {
          "internalType": "uint128",
          "name": "",
          "type": "uint128"
        }
      ],
      "stateMutability": "view",
      "type": "function"
    },
    {
      "inputs": [],
      "name": "owner",
      "outputs": [
        {
          "internalType": "address",
          "name": "",
          "type": "address"
        }
      ],
      "stateMutability": "view",
      "type": "function"
    },
    {
      "inputs": [],
      "name": "payroundStartTime",
      "outputs": [
        {
          "internalType": "uint256",
          "name": "",
          "type": "uint256"
        }
      ],
      "stateMutability": "view",
      "type": "function"
    },
    {
      "inputs": [
        {
          "internalType": "bytes",
          "name": "performData",
          "type": "bytes"
        }
      ],
      "name": "performUpkeep",
      "outputs": [],
      "stateMutability": "nonpayable",
      "type": "function"
    },
    {
      "inputs": [
        {
          "internalType": "uint256",
          "name": "_start",
          "type": "uint256"
        },
        {
          "internalType": "string",
          "name": "market",
          "type": "string"
        }
      ],
      "name": "predictAsset",
      "outputs": [],
      "stateMutability": "nonpayable",
      "type": "function"
    },
    {
      "inputs": [
        {
          "internalType": "address",
          "name": "",
          "type": "address"
        }
      ],
      "name": "presentCharities",
      "outputs": [
        {
          "internalType": "bytes8",
          "name": "name",
          "type": "bytes8"
        },
        {
          "internalType": "bytes32",
          "name": "link",
          "type": "bytes32"
        }
      ],
      "stateMutability": "view",
      "type": "function"
    },
    {
      "inputs": [],
      "name": "provider",
      "outputs": [
        {
          "internalType": "contract ILendingPoolAddressesProvider",
          "name": "",
          "type": "address"
        }
      ],
      "stateMutability": "view",
      "type": "function"
    },
    {
      "inputs": [],
      "name": "renounceOwnership",
      "outputs": [],
      "stateMutability": "nonpayable",
      "type": "function"
    },
    {
      "inputs": [
        {
          "internalType": "uint128",
          "name": "",
          "type": "uint128"
        },
        {
          "internalType": "bytes8",
          "name": "",
          "type": "bytes8"
        }
      ],
      "name": "roundCharityVotes",
      "outputs": [
        {
          "internalType": "uint128",
          "name": "",
          "type": "uint128"
        }
      ],
      "stateMutability": "view",
      "type": "function"
    },
    {
      "inputs": [
        {
          "internalType": "uint256",
          "name": "",
          "type": "uint256"
        },
        {
          "internalType": "string",
          "name": "",
          "type": "string"
        },
        {
          "internalType": "address",
          "name": "",
          "type": "address"
        }
      ],
      "name": "roundCoinAddressBetsPlaced",
      "outputs": [
        {
          "internalType": "uint256",
          "name": "squareStartTime",
          "type": "uint256"
        },
        {
          "internalType": "uint256",
          "name": "squareEndTime",
          "type": "uint256"
        }
      ],
      "stateMutability": "view",
      "type": "function"
    },
    {
      "inputs": [
        {
          "internalType": "uint256",
          "name": "",
          "type": "uint256"
        },
        {
          "internalType": "string",
          "name": "",
          "type": "string"
        }
      ],
      "name": "roundCoinInfo",
      "outputs": [
        {
          "internalType": "int256",
          "name": "moonPrice",
          "type": "int256"
        },
        {
          "internalType": "uint256",
          "name": "winnings",
          "type": "uint256"
        },
        {
          "internalType": "int256",
          "name": "startPrice",
          "type": "int256"
        },
        {
          "internalType": "uint256",
          "name": "totalStaked",
          "type": "uint256"
        },
        {
          "internalType": "uint256",
          "name": "startTime",
          "type": "uint256"
        },
        {
          "internalType": "uint256",
          "name": "winningTime",
          "type": "uint256"
        }
      ],
      "stateMutability": "view",
      "type": "function"
    },
    {
      "inputs": [
        {
          "internalType": "uint256",
          "name": "",
          "type": "uint256"
        },
        {
          "internalType": "string",
          "name": "",
          "type": "string"
        },
        {
          "internalType": "uint256",
          "name": "",
          "type": "uint256"
        }
      ],
      "name": "roundCoinPlayerArray",
      "outputs": [
        {
          "internalType": "address",
          "name": "",
          "type": "address"
        }
      ],
      "stateMutability": "view",
      "type": "function"
    },
    {
      "inputs": [
        {
          "internalType": "uint256",
          "name": "",
          "type": "uint256"
        },
        {
          "internalType": "string",
          "name": "",
          "type": "string"
        }
      ],
      "name": "roundCoinWinningIsWinner",
      "outputs": [
        {
          "internalType": "bool",
          "name": "",
          "type": "bool"
        }
      ],
      "stateMutability": "view",
      "type": "function"
    },
    {
      "inputs": [
        {
          "internalType": "uint256",
          "name": "",
          "type": "uint256"
        }
      ],
      "name": "roundInterestEarned",
      "outputs": [
        {
          "internalType": "uint256",
          "name": "",
          "type": "uint256"
        }
      ],
      "stateMutability": "view",
      "type": "function"
    },
    {
      "inputs": [
        {
          "internalType": "int256",
          "name": "price",
          "type": "int256"
        },
        {
          "internalType": "string",
          "name": "market",
          "type": "string"
        }
      ],
      "name": "setMoonPrice",
      "outputs": [],
      "stateMutability": "nonpayable",
      "type": "function"
    },
    {
      "inputs": [],
      "name": "totalPaid",
      "outputs": [
        {
          "internalType": "uint256",
          "name": "",
          "type": "uint256"
        }
      ],
      "stateMutability": "view",
      "type": "function"
    },
    {
      "inputs": [],
      "name": "totalStaked",
      "outputs": [
        {
          "internalType": "uint256",
          "name": "",
          "type": "uint256"
        }
      ],
      "stateMutability": "view",
      "type": "function"
    },
    {
      "inputs": [
        {
          "internalType": "address",
          "name": "newOwner",
          "type": "address"
        }
      ],
      "name": "transferOwnership",
      "outputs": [],
      "stateMutability": "nonpayable",
      "type": "function"
    },
    {
      "inputs": [
        {
          "internalType": "bytes8",
          "name": "charity",
          "type": "bytes8"
        }
      ],
      "name": "voteForCharity",
      "outputs": [],
      "stateMutability": "nonpayable",
      "type": "function"
    },
    {
      "inputs": [
        {
          "internalType": "uint128",
          "name": "",
          "type": "uint128"
        },
        {
          "internalType": "uint256",
          "name": "",
          "type": "uint256"
        }
      ],
      "name": "winers",
      "outputs": [
        {
          "internalType": "address",
          "name": "",
          "type": "address"
        }
      ],
      "stateMutability": "view",
      "type": "function"
    }
  ],
  "bytecode": "60806040819052600d80546001600160a01b0319167388757f2f99175387ab4c6a4b3067c77a695b0349908117909155630261bf8b60e01b825290630261bf8b90608490602090600481865afa1580156200005e573d6000803e3d6000fd5b505050506040513d601f19601f8201168201806040525081019062000084919062000244565b600e80546001600160a01b03929092166001600160a01b03199283161790556011805490911673ff795577d9ac8bd7d90ee22b6c1703490b6512fd179055348015620000cf57600080fd5b506040516200337538038062003375833981016040819052620000f2916200026b565b620000fd33620001db565b6001600160a01b0383166200011157600080fd5b6001600160a01b0382166200012557600080fd5b6001600160a01b0381166200013957600080fd5b600180546001600160a01b038581166001600160a01b0319928316811790935560028054868316908416179055600380549185169190921617905542600b556040516315a722b960e31b815264150000000160048201819052919063ad3915c890602401600060405180830381600087803b158015620001b857600080fd5b505af1158015620001cd573d6000803e3d6000fd5b5050505050505050620002bf565b600080546001600160a01b038381166001600160a01b0319831681178455604051919092169283917f8be0079c531659141344cd1fd0a4f28419497f9722a3daafe3b4186f6b6457e09190a35050565b6001600160a01b03811681146200024157600080fd5b50565b6000602082840312156200025757600080fd5b815162000264816200022b565b9392505050565b6000806000606084860312156200028157600080fd5b83516200028e816200022b565b6020850151909350620002a1816200022b565b6040850151909250620002b4816200022b565b809150509250925092565b6130a680620002cf6000396000f3fe608060405234801561001057600080fd5b50600436106102695760003560e01c8063557ed1ba116101515780638ebfa8ae116100c3578063d86ed3e511610087578063d86ed3e5146106f4578063e7b0f66614610707578063eed33b5414610710578063f2fde38b14610730578063f60e208914610743578063fce7147b1461075657600080fd5b80638ebfa8ae14610695578063a59a9973146106a8578063af3e28f7146106bb578063b3d10eb4146106ce578063d391b70b146106e157600080fd5b8063715018a611610115578063715018a614610622578063817b1cd21461062a578063884d1f40146106335780638afe702f146106465780638b9dff9b146106595780638da5cb5b1461068457600080fd5b8063557ed1ba146105775780635a32b6321461057f5780635f539d69146105db5780635f9e7d77146105ee5780636e04ff0d1461060157600080fd5b806325d8efe4116101ea578063474da79a116101ae578063474da79a1461048c5780634c70f3311461049f5780634e5b3c7c146104b2578063524d70b2146104c5578063524f38891461055157806353c11f991461056457600080fd5b806325d8efe41461040857806330d9c9151461041b578063322e0f221461042e5780634585e33b14610462578063474412101461047557600080fd5b8063126df02b11610231578063126df02b1461031157806316f949a11461035f5780631a8ff1f8146103ae57806320e43db8146103c1578063230dbd29146103f557600080fd5b806307b785bd1461026e578063085d4883146102835780630ccd3ef9146102b35780630d4e57a4146102d35780630d7ec6e4146102fe575b600080fd5b61028161027c3660046126fd565b610769565b005b600d54610296906001600160a01b031681565b6040516001600160a01b0390911681526020015b60405180910390f35b6102c66102c136600461273c565b61086b565b6040516102aa91906127b1565b600a546102e6906001600160801b031681565b6040516001600160801b0390911681526020016102aa565b61028161030c366004612887565b610917565b61033f61031f3660046128cd565b6016602052600090815260409020805460019091015460c09190911b9082565b604080516001600160c01b031990931683526020830191909152016102aa565b61039e61036d366004612887565b6021602090815260009283526040909220815180830184018051928152908401929093019190912091525460ff1681565b60405190151581526020016102aa565b6102816103bc3660046128cd565b610b73565b6102e66103cf366004612901565b60196020908152600092835260408084209091529082529020546001600160801b031681565b6102c6610403366004612975565b610bf1565b61029661041636600461273c565b610c53565b6102c6610429366004612a3f565b610c7d565b61029661043c366004612add565b80516020818301810180516008825292820191909301209152546001600160a01b031681565b610281610470366004612b19565b610ce0565b61047e600b5481565b6040519081526020016102aa565b61029661049a36600461273c565b610df7565b6102816104ad366004612b5a565b610e07565b600354610296906001600160a01b031681565b6105246104d3366004612887565b60146020908152600092835260409092208151808301840180519281529084019290930191909120915280546001820154600283015460038401546004850154600590950154939492939192909186565b604080519687526020870195909552938501929092526060840152608083015260a082015260c0016102aa565b61047e61055f366004612add565b610f17565b6102c6610572366004612975565b610fbf565b61047e611024565b6105c661058d366004612bab565b60208080526000938452604080852084518086018401805192815290840195840195909520945292905282529020805460019091015482565b604080519283526020830191909152016102aa565b6102816105e93660046128cd565b6110ad565b6102c66105fc366004612a3f565b611129565b61061461060f366004612b19565b611190565b6040516102aa929190612c05565b6102816113a5565b61047e60155481565b6102c6610641366004612a3f565b6113db565b610281610654366004612c20565b61143e565b61047e610667366004612add565b805160208183018101805160098252928201919093012091525481565b6000546001600160a01b0316610296565b6102816106a33660046128cd565b611530565b600e54610296906001600160a01b031681565b6102816106c9366004612887565b6115d6565b61039e6106dc366004612bab565b6116c8565b6102816106ef3660046128cd565b611850565b6102c6610702366004612975565b61189c565b61047e600c5481565b61047e61071e36600461273c565b60136020526000908152604090205481565b61028161073e3660046128cd565b6118fe565b610296610751366004612c3b565b611999565b610296610764366004612c8a565b6119ed565b6000546001600160a01b0316331461079c5760405162461bcd60e51b815260040161079390612cb4565b60405180910390fd5b6001600160a01b03919091166000818152601660205260408120805467ffffffffffffffff191660c09590951c9485178155600190810193909355601780548085019091557fc624b66cc0138b8fabc209247f72d758e1cf3343756d543badbf24212bed8c15600482040180546001600160401b0360039093166008026101000a928302191691909502179093556018805492830181559092527fb13d2d76d1f4b7be834882e410b3e3a8afaf69f83600ae24db354391d2378d2e0180546001600160a01b0319169091179055565b6005818154811061087b57600080fd5b90600052602060002001600091509050805461089690612ce9565b80601f01602080910402602001604051908101604052809291908181526020018280546108c290612ce9565b801561090f5780601f106108e45761010080835404028352916020019161090f565b820191906000526020600020905b8154815290600101906020018083116108f257829003601f168201915b505050505081565b678ac7230489e8000061070842841161092f57600080fd5b601154604051636eb1769f60e11b815233600482015230602482015283916001600160a01b03169063dd62ed3e90604401602060405180830381865afa15801561097d573d6000803e3d6000fd5b505050506040513d601f19601f820116820180604052508101906109a19190612d24565b10156109ac57600080fd5b6011546040516323b872dd60e01b8152336004820152306024820152604481018490526001600160a01b03909116906323b872dd906064016020604051808303816000875af1158015610a03573d6000803e3d6000fd5b505050506040513d601f19601f82011682018060405250810190610a279190612d3d565b508160146000600986604051610a3d9190612d5f565b908152602001604051809103902054815260200190815260200160002084604051610a689190612d5f565b90815260200160405180910390206003016000828254610a889190612d91565b92505081905550661ff973cafa800060146000600986604051610aab9190612d5f565b908152602001604051809103902054815260200190815260200160002084604051610ad69190612d5f565b90815260200160405180910390206001016000828254610af69190612d91565b925050819055508160156000828254610b0f9190612d91565b90915550610b1e905082611a25565b610b288484611b18565b337f8fc5fcafab42750870defc62f202c0d262793eca86ba9b802b7f22b102dd44b885610b558482612d91565b6040805192835260208301919091520160405180910390a250505050565b60005b600754811015610bce57336001600160a01b031660078281548110610b9d57610b9d612da9565b6000918252602090912001546001600160a01b031614610bbc57600080fd5b80610bc681612dbf565b915050610b76565b50601080546001600160a01b0319166001600160a01b0392909216919091179055565b60405162461bcd60e51b815260206004820152602e60248201527f556e737570706f727465642063616c6c6261636b202d2041667465722041677260448201526d19595b595b9d08155c19185d195960921b6064820152606090608401610793565b60048181548110610c6357600080fd5b6000918252602090912001546001600160a01b0316905081565b60405162461bcd60e51b815260206004820152602f60248201527f556e737570706f727465642063616c6c6261636b202d204265666f726520416760448201526e1c99595b595b9d0810dc99585d1959608a1b6064820152606090608401610793565b6000610cee8284018461273c565b6005549091508111610da857610da860058281548110610d1057610d10612da9565b906000526020600020018054610d2590612ce9565b80601f0160208091040260200160405190810160405280929190818152602001828054610d5190612ce9565b8015610d9e5780601f10610d7357610100808354040283529160200191610d9e565b820191906000526020600020905b815481529060010190602001808311610d8157829003601f168201915b5050505050611d26565b806103e81415610df25762278d00600b6000828254610dc79190612d91565b9091555050601254610de1906001600160a01b0316611d92565b50610dea611f9c565b610df26120bf565b505050565b60078181548110610c6357600080fd5b6000546001600160a01b03163314610e315760405162461bcd60e51b815260040161079390612cb4565b600554606411610e4057600080fd5b80600883604051610e519190612d5f565b9081526040516020918190038201902080546001600160a01b0319166001600160a01b039390931692909217909155600580546001810182556000919091528351610ec3927f036b6384b5eca791c62761152d0c79bb0604c104a5fb6f4eb0703f3154bb3db090920191850190612632565b50600680546001810182556000919091527ff652222313e28459528d920b65115c16c04f3efc82aaedc97be59f3f377c0d3f0180546001600160a01b0319166001600160a01b039290921691909117905550565b600080600883604051610f2a9190612d5f565b908152602001604051809103902060009054906101000a90046001600160a01b031690506000816001600160a01b031663feaf968c6040518163ffffffff1660e01b815260040160a060405180830381865afa158015610f8e573d6000803e3d6000fd5b505050506040513d601f19601f82011682018060405250810190610fb29190612df4565b5091979650505050505050565b60405162461bcd60e51b815260206004820152603160248201527f556e737570706f727465642063616c6c6261636b202d2041667465722041677260448201527019595b595b9d0815195c9b5a5b985d1959607a1b6064820152606090608401610793565b600080736135b13325bfc4b00278b4abc5e20bbce2d6580e90506000816001600160a01b031663feaf968c6040518163ffffffff1660e01b815260040160a060405180830381865afa15801561107e573d6000803e3d6000fd5b505050506040513d601f19601f820116820180604052508101906110a29190612df4565b509695505050505050565b6000546001600160a01b031633146110d75760405162461bcd60e51b815260040161079390612cb4565b600780546001810182556000919091527fa66cc928b5edb82af9bd49922954155ab7b0942694bea4ce44661d9a8736c6880180546001600160a01b0319166001600160a01b0392909216919091179055565b60405162461bcd60e51b815260206004820152603360248201527f556e737570706f727465642063616c6c6261636b202d20204265666f7265204160448201527219dc99595b595b9d0815195c9b5a5b985d1959606a1b6064820152606090608401610793565b6000606060005b60055481101561132257601460006009600584815481106111ba576111ba612da9565b906000526020600020016040516111d19190612e44565b90815260200160405180910390205481526020019081526020016000206005828154811061120157611201612da9565b906000526020600020016040516112189190612e44565b9081526020016040518091039020600001546112d86005838154811061124057611240612da9565b90600052602060002001805461125590612ce9565b80601f016020809104026020016040519081016040528092919081815260200182805461128190612ce9565b80156112ce5780601f106112a3576101008083540402835291602001916112ce565b820191906000526020600020905b8154815290600101906020018083116112b157829003601f168201915b5050505050610f17565b141561131057600192506001816040516020016112f791815260200190565b604051602081830303815290604052925092505061139e565b8061131a81612dbf565b915050611197565b50600b546113339062278d00612d91565b421061136457604080516103e86020820152600193508391016040516020818303038152906040529150915061139e565b83838080601f0160208091040260200160405190810160405280939291908181526020018383808284376000920191909152509293505050505b9250929050565b6000546001600160a01b031633146113cf5760405162461bcd60e51b815260040161079390612cb4565b6113d9600061217b565b565b60405162461bcd60e51b815260206004820152602f60248201527f556e737570706f727465642063616c6c6261636b202d204265666f726520416760448201526e1c99595b595b9d081d5c19185d1959608a1b6064820152606090608401610793565b60005b600a546001600160801b03166000908152601b60205260409020548110156114c357600a546001600160801b03166000908152601b6020526040902080543391908390811061149257611492612da9565b6000918252602090912001546001600160a01b0316146114b157600080fd5b806114bb81612dbf565b915050611441565b50600a546001600160801b0390811660009081526019602090815260408083206001600160c01b0319861684529091528120805460019391929161150991859116612ee0565b92506101000a8154816001600160801b0302191690836001600160801b0316021790555050565b60005b60075481101561158b57336001600160a01b03166007828154811061155a5761155a612da9565b6000918252602090912001546001600160a01b03161461157957600080fd5b8061158381612dbf565b915050611533565b50600a546001600160801b03166000908152601b602090815260408220805460018101825590835291200180546001600160a01b0319166001600160a01b0392909216919091179055565b6000546001600160a01b031633146116005760405162461bcd60e51b815260040161079390612cb4565b6040518060c001604052808381526020016000815260200161162183610f17565b815260200160008152602001611635611024565b81526020016000815250601460006009846040516116539190612d5f565b90815260200160405180910390205481526020019081526020016000208260405161167e9190612d5f565b9081526040805160209281900383019020835181559183015160018301558201516002820155606082015160038201556080820151600482015560a0909101516005909101555050565b60008381526014602052604080822090516116e4908590612d5f565b9081526020016040518091039020600501546000141561170657506000611849565b600084815260146020526040908190209051611723908590612d5f565b9081526020016040518091039020600501546000141561174257600080fd5b60008481526014602052604090819020905161175f908590612d5f565b90815260200160405180910390206005015460206000868152602001908152602001600020846040516117929190612d5f565b90815260408051602092819003830190206001600160a01b0386166000908152925290205411156117c257600080fd5b6000848152601460205260409081902090516117df908590612d5f565b90815260200160405180910390206005015460206000868152602001908152602001600020846040516118129190612d5f565b90815260408051602092819003830190206001600160a01b03861660009081529252902060010154101561184557600080fd5b5060015b9392505050565b6000546001600160a01b0316331461187a5760405162461bcd60e51b815260040161079390612cb4565b600f80546001600160a01b0319166001600160a01b0392909216919091179055565b60405162461bcd60e51b815260206004820152602e60248201527f556e737570706f727465642063616c6c6261636b202d2041667465722041677260448201526d19595b595b9d0810dc99585d195960921b6064820152606090608401610793565b6000546001600160a01b031633146119285760405162461bcd60e51b815260040161079390612cb4565b6001600160a01b03811661198d5760405162461bcd60e51b815260206004820152602660248201527f4f776e61626c653a206e6577206f776e657220697320746865207a65726f206160448201526564647265737360d01b6064820152608401610793565b6119968161217b565b50565b601c60209081526000848152604090208351808501830180519281529083019285019290922091528054829081106119d057600080fd5b6000918252602090912001546001600160a01b0316925083915050565b601b6020528160005260406000208181548110611a0957600080fd5b6000918252602090912001546001600160a01b03169150829050565b601154600e5460405163095ea7b360e01b81526001600160a01b0391821660048201526024810184905291169063095ea7b3906044016020604051808303816000875af1158015611a7a573d6000803e3d6000fd5b505050506040513d601f19601f82011682018060405250810190611a9e9190612d3d565b50600e5460115460405163e8eda9df60e01b81526001600160a01b039182166004820152602481018490523060448201526000606482015291169063e8eda9df906084015b600060405180830381600087803b158015611afd57600080fd5b505af1158015611b11573d6000803e3d6000fd5b5050505050565b8160206000600984604051611b2d9190612d5f565b908152602001604051809103902054815260200190815260200160002082604051611b589190612d5f565b90815260408051602092819003830190203360009081529252902055611b8082610708612d91565b60206000600984604051611b949190612d5f565b908152602001604051809103902054815260200190815260200160002082604051611bbf9190612d5f565b9081526040805160209281900383018120336000908152935290822060010192909255601c91600990611bf3908590612d5f565b908152602001604051809103902054815260200190815260200160002081604051611c1e9190612d5f565b90815260405190819003602090810182208054600181018255600091825291812090910180546001600160a01b03191633179055601d91600990611c63908590612d5f565b908152602001604051809103902054815260200190815260200160002081604051611c8e9190612d5f565b908152604051908190036020908101822080546001810182556000918252918120909101849055601e91600990611cc6908590612d5f565b908152602001604051809103902054815260200190815260200160002081604051611cf19190612d5f565b908152604051908190036020019020611d0c83610708612d91565b815460018101835560009283526020909220909101555050565b611d2e611024565b60146000600984604051611d429190612d5f565b908152602001604051809103902054815260200190815260200160002082604051611d6d9190612d5f565b90815260405190819003602001902060050155611d89816121cb565b6119968161235c565b6040516370a0823160e01b815230600482015260009081906001600160a01b038416906370a0823190602401602060405180830381865afa158015611ddb573d6000803e3d6000fd5b505050506040513d601f19601f82011682018060405250810190611dff9190612d24565b90506000600c54601554611e139190612f0b565b611e1d9083612f0b565b600e54601154604051631a4ca37b60e21b81526001600160a01b0391821660048201526024810184905230604482015292935016906369328dec906064016020604051808303816000875af1158015611e7a573d6000803e3d6000fd5b505050506040513d601f19601f82011682018060405250810190611e9e9190612d24565b5060115460035460405163095ea7b360e01b81526001600160a01b0391821660048201526024810184905291169063095ea7b3906044016020604051808303816000875af1158015611ef4573d6000803e3d6000fd5b505050506040513d601f19601f82011682018060405250810190611f189190612d3d565b506003546040516345977d0360e01b8152600481018390526001600160a01b03909116906345977d0390602401600060405180830381600087803b158015611f5f57600080fd5b505af1158015611f73573d6000803e3d6000fd5b5050600a546001600160801b031660009081526013602052604090208390555090949350505050565b600a546001600160801b0316600090815260136020526040902054600154600254600354600f546001600160a01b03938416936339255d5b9381169263317e182f60e11b929082169116611ff362278d0088612f22565b6040805160008152602081019091526120129392919060448101612f73565b60408051601f198184030181529181526020820180516001600160e01b03166001600160e01b03199485161790525160e085901b90921682526120589291600401612fb3565b6000604051808303816000875af1158015612077573d6000803e3d6000fd5b505050506040513d6000823e601f3d908101601f1916820160405261209f9190810190612ffa565b50600a8054600191906000906115099084906001600160801b0316612ee0565b600a546001600160801b03166120d457600080fd5b6003546010546040516370a0823160e01b81526001600160a01b03918216600482015260009291909116906370a0823190602401602060405180830381865afa158015612125573d6000803e3d6000fd5b505050506040513d601f19601f820116820180604052508101906121499190612d24565b6010546040516391c05b0b60e01b8152600481018390529192506001600160a01b0316906391c05b0b90602401611ae3565b600080546001600160a01b038381166001600160a01b0319831681178455604051919092169283917f8be0079c531659141344cd1fd0a4f28419497f9722a3daafe3b4186f6b6457e09190a35050565b601d60006009836040516121df9190612d5f565b90815260200160405180910390205481526020019081526020016000208160405161220a9190612d5f565b908152602001604051809103902080549050601e60006009846040516122309190612d5f565b90815260200160405180910390205481526020019081526020016000208260405161225b9190612d5f565b908152604051908190036020019020541461227557600080fd5b60005b601d600060098460405161228c9190612d5f565b9081526020016040518091039020548152602001908152602001600020826040516122b79190612d5f565b90815260405190819003602001902054811015612358576122d88282612499565b15156001141561234657601f60006009846040516122f69190612d5f565b9081526020016040518091039020548152602001908152602001600020826040516123219190612d5f565b9081526040516020918190038201902080546001810182556000918252919020018190555b8061235081612dbf565b915050612278565b5050565b601f60006009836040516123709190612d5f565b90815260200160405180910390205481526020019081526020016000208160405161239b9190612d5f565b908152604051908190036020019020546123b457600080fd5b600e546011546040516001600160a01b03928316926369328dec9216906014906000906009906123e5908890612d5f565b9081526020016040518091039020548152602001908152602001600020846040516124109190612d5f565b908152604051908190036020018120600101546001600160e01b031960e085901b1682526001600160a01b0392909216600482015260248101919091523060448201526064016020604051808303816000875af1158015612475573d6000803e3d6000fd5b505050506040513d601f19601f820116820180604052508101906123589190612d24565b6000601460006009856040516124af9190612d5f565b9081526020016040518091039020548152602001908152602001600020836040516124da9190612d5f565b908152602001604051809103902060050154601d60006009866040516125009190612d5f565b90815260200160405180910390205481526020019081526020016000208460405161252b9190612d5f565b9081526020016040518091039020838154811061254a5761254a612da9565b90600052602060002001541015801561261b5750601460006009856040516125729190612d5f565b90815260200160405180910390205481526020019081526020016000208360405161259d9190612d5f565b908152602001604051809103902060050154601e60006009866040516125c39190612d5f565b9081526020016040518091039020548152602001908152602001600020846040516125ee9190612d5f565b9081526020016040518091039020838154811061260d5761260d612da9565b906000526020600020015411155b156126285750600161262c565b5060005b92915050565b82805461263e90612ce9565b90600052602060002090601f01602090048101928261266057600085556126a6565b82601f1061267957805160ff19168380011785556126a6565b828001600101855582156126a6579182015b828111156126a657825182559160200191906001019061268b565b506126b29291506126b6565b5090565b5b808211156126b257600081556001016126b7565b80356001600160c01b0319811681146126e357600080fd5b919050565b6001600160a01b038116811461199657600080fd5b60008060006060848603121561271257600080fd5b61271b846126cb565b9250602084013561272b816126e8565b929592945050506040919091013590565b60006020828403121561274e57600080fd5b5035919050565b60005b83811015612770578181015183820152602001612758565b8381111561277f576000848401525b50505050565b6000815180845261279d816020860160208601612755565b601f01601f19169290920160200192915050565b6020815260006118496020830184612785565b634e487b7160e01b600052604160045260246000fd5b604051601f8201601f191681016001600160401b0381118282101715612802576128026127c4565b604052919050565b60006001600160401b03821115612823576128236127c4565b50601f01601f191660200190565b600082601f83011261284257600080fd5b81356128556128508261280a565b6127da565b81815284602083860101111561286a57600080fd5b816020850160208301376000918101602001919091529392505050565b6000806040838503121561289a57600080fd5b8235915060208301356001600160401b038111156128b757600080fd5b6128c385828601612831565b9150509250929050565b6000602082840312156128df57600080fd5b8135611849816126e8565b80356001600160801b03811681146126e357600080fd5b6000806040838503121561291457600080fd5b61291d836128ea565b915061292b602084016126cb565b90509250929050565b60008083601f84011261294657600080fd5b5081356001600160401b0381111561295d57600080fd5b60208301915083602082850101111561139e57600080fd5b600080600080600080600080600060c08a8c03121561299357600080fd5b893561299e816126e8565b985060208a01356129ae816126e8565b975060408a0135965060608a01356001600160401b03808211156129d157600080fd5b6129dd8d838e01612934565b909850965060808c01359150808211156129f657600080fd5b612a028d838e01612934565b909650945060a08c0135915080821115612a1b57600080fd5b50612a288c828d01612934565b915080935050809150509295985092959850929598565b600080600080600080600060a0888a031215612a5a57600080fd5b8735612a65816126e8565b96506020880135612a75816126e8565b95506040880135945060608801356001600160401b0380821115612a9857600080fd5b612aa48b838c01612934565b909650945060808a0135915080821115612abd57600080fd5b50612aca8a828b01612934565b989b979a50959850939692959293505050565b600060208284031215612aef57600080fd5b81356001600160401b03811115612b0557600080fd5b612b1184828501612831565b949350505050565b60008060208385031215612b2c57600080fd5b82356001600160401b03811115612b4257600080fd5b612b4e85828601612934565b90969095509350505050565b60008060408385031215612b6d57600080fd5b82356001600160401b03811115612b8357600080fd5b612b8f85828601612831565b9250506020830135612ba0816126e8565b809150509250929050565b600080600060608486031215612bc057600080fd5b8335925060208401356001600160401b03811115612bdd57600080fd5b612be986828701612831565b9250506040840135612bfa816126e8565b809150509250925092565b8215158152604060208201526000612b116040830184612785565b600060208284031215612c3257600080fd5b611849826126cb565b600080600060608486031215612c5057600080fd5b8335925060208401356001600160401b03811115612c6d57600080fd5b612c7986828701612831565b925050604084013590509250925092565b60008060408385031215612c9d57600080fd5b612ca6836128ea565b946020939093013593505050565b6020808252818101527f4f776e61626c653a2063616c6c6572206973206e6f7420746865206f776e6572604082015260600190565b600181811c90821680612cfd57607f821691505b60208210811415612d1e57634e487b7160e01b600052602260045260246000fd5b50919050565b600060208284031215612d3657600080fd5b5051919050565b600060208284031215612d4f57600080fd5b8151801515811461184957600080fd5b60008251612d71818460208701612755565b9190910192915050565b634e487b7160e01b600052601160045260246000fd5b60008219821115612da457612da4612d7b565b500190565b634e487b7160e01b600052603260045260246000fd5b6000600019821415612dd357612dd3612d7b565b5060010190565b805169ffffffffffffffffffff811681146126e357600080fd5b600080600080600060a08688031215612e0c57600080fd5b612e1586612dda565b9450602086015193506040860151925060608601519150612e3860808701612dda565b90509295509295909350565b600080835481600182811c915080831680612e6057607f831692505b6020808410821415612e8057634e487b7160e01b86526022600452602486fd5b818015612e945760018114612ea557612ed2565b60ff19861689528489019650612ed2565b60008a81526020902060005b86811015612eca5781548b820152908501908301612eb1565b505084890196505b509498975050505050505050565b60006001600160801b03808316818516808303821115612f0257612f02612d7b565b01949350505050565b600082821015612f1d57612f1d612d7b565b500390565b600081600b0b83600b0b80612f4757634e487b7160e01b600052601260045260246000fd5b6b7fffffffffffffffffffffff19821460001982141615612f6a57612f6a612d7b565b90059392505050565b6001600160a01b03858116825284166020820152600b83900b6040820152608060608201819052600090612fa990830184612785565b9695505050505050565b6001600160a01b0383168152606060208201819052600090612fd790830184612785565b8281036040938401526002815261060f60f31b6020820152919091019392505050565b60006020828403121561300c57600080fd5b81516001600160401b0381111561302257600080fd5b8201601f8101841361303357600080fd5b80516130416128508261280a565b81815285602083850101111561305657600080fd5b613067826020830160208601612755565b9594505050505056fea2646970667358221220807b36f9af6ced23b9b673f7ebaa313461ff65e0182538999659ec3e80325c1d64736f6c634300080b0033",
  "bytecodeSha1": "272c6223c70e3a7dc0a3a5c9823f330f018c8ef0",
  "compiler": {
    "evm_version": "istanbul",
    "optimizer": {
      "enabled": true,
      "runs": 200
    },
    "version": "0.8.11+commit.d7f03943"
  },
  "contractName": "MoonSquares",
  "language": "Solidity",
  "natspec": {
    "kind": "dev",
    "methods": {
      "checkUpkeep(bytes)": {
        "notice": "checks if the contract requires work to be done.",
        "params": {
          "checkData": "data passed to the contract when checking for upkeep."
        },
        "returns": {
          "performData": "bytes that the keeper should call performUpkeep with, if upkeep is needed.",
          "upkeepNeeded": "boolean to indicate whether the keeper should call performUpkeep or not."
        }
      },
      "owner()": {
        "details": "Returns the address of the current owner."
      },
      "performUpkeep(bytes)": {
        "notice": "Performs work on the contract. Executed by the keepers, via the registry.",
        "params": {
          "performData": "is the data which was passed back from the checkData simulation."
        }
      },
      "renounceOwnership()": {
        "details": "Leaves the contract without owner. It will not be possible to call `onlyOwner` functions anymore. Can only be called by the current owner. NOTE: Renouncing ownership will leave the contract without an owner, thereby removing any functionality that is only available to the owner."
      },
      "transferOwnership(address)": {
        "details": "Transfers ownership of the contract to a new account (`newOwner`). Can only be called by the current owner."
      }
    },
    "version": 1
  },
  "opcodes": "PUSH1 0x80 PUSH1 0x40 MSTORE CALLVALUE DUP1 ISZERO PUSH2 0x10 JUMPI PUSH1 0x0 DUP1 REVERT JUMPDEST POP PUSH1 0x4 CALLDATASIZE LT PUSH2 0x269 JUMPI PUSH1 0x0 CALLDATALOAD PUSH1 0xE0 SHR DUP1 PUSH4 0x557ED1BA GT PUSH2 0x151 JUMPI DUP1 PUSH4 0x8EBFA8AE GT PUSH2 0xC3 JUMPI DUP1 PUSH4 0xD86ED3E5 GT PUSH2 0x87 JUMPI DUP1 PUSH4 0xD86ED3E5 EQ PUSH2 0x6F4 JUMPI DUP1 PUSH4 0xE7B0F666 EQ PUSH2 0x707 JUMPI DUP1 PUSH4 0xEED33B54 EQ PUSH2 0x710 JUMPI DUP1 PUSH4 0xF2FDE38B EQ PUSH2 0x730 JUMPI DUP1 PUSH4 0xF60E2089 EQ PUSH2 0x743 JUMPI DUP1 PUSH4 0xFCE7147B EQ PUSH2 0x756 JUMPI PUSH1 0x0 DUP1 REVERT JUMPDEST DUP1 PUSH4 0x8EBFA8AE EQ PUSH2 0x695 JUMPI DUP1 PUSH4 0xA59A9973 EQ PUSH2 0x6A8 JUMPI DUP1 PUSH4 0xAF3E28F7 EQ PUSH2 0x6BB JUMPI DUP1 PUSH4 0xB3D10EB4 EQ PUSH2 0x6CE JUMPI DUP1 PUSH4 0xD391B70B EQ PUSH2 0x6E1 JUMPI PUSH1 0x0 DUP1 REVERT JUMPDEST DUP1 PUSH4 0x715018A6 GT PUSH2 0x115 JUMPI DUP1 PUSH4 0x715018A6 EQ PUSH2 0x622 JUMPI DUP1 PUSH4 0x817B1CD2 EQ PUSH2 0x62A JUMPI DUP1 PUSH4 0x884D1F40 EQ PUSH2 0x633 JUMPI DUP1 PUSH4 0x8AFE702F EQ PUSH2 0x646 JUMPI DUP1 PUSH4 0x8B9DFF9B EQ PUSH2 0x659 JUMPI DUP1 PUSH4 0x8DA5CB5B EQ PUSH2 0x684 JUMPI PUSH1 0x0 DUP1 REVERT JUMPDEST DUP1 PUSH4 0x557ED1BA EQ PUSH2 0x577 JUMPI DUP1 PUSH4 0x5A32B632 EQ PUSH2 0x57F JUMPI DUP1 PUSH4 0x5F539D69 EQ PUSH2 0x5DB JUMPI DUP1 PUSH4 0x5F9E7D77 EQ PUSH2 0x5EE JUMPI DUP1 PUSH4 0x6E04FF0D EQ PUSH2 0x601 JUMPI PUSH1 0x0 DUP1 REVERT JUMPDEST DUP1 PUSH4 0x25D8EFE4 GT PUSH2 0x1EA JUMPI DUP1 PUSH4 0x474DA79A GT PUSH2 0x1AE JUMPI DUP1 PUSH4 0x474DA79A EQ PUSH2 0x48C JUMPI DUP1 PUSH4 0x4C70F331 EQ PUSH2 0x49F JUMPI DUP1 PUSH4 0x4E5B3C7C EQ PUSH2 0x4B2 JUMPI DUP1 PUSH4 0x524D70B2 EQ PUSH2 0x4C5 JUMPI DUP1 PUSH4 0x524F3889 EQ PUSH2 0x551 JUMPI DUP1 PUSH4 0x53C11F99 EQ PUSH2 0x564 JUMPI PUSH1 0x0 DUP1 REVERT JUMPDEST DUP1 PUSH4 0x25D8EFE4 EQ PUSH2 0x408 JUMPI DUP1 PUSH4 0x30D9C915 EQ PUSH2 0x41B JUMPI DUP1 PUSH4 0x322E0F22 EQ PUSH2 0x42E JUMPI DUP1 PUSH4 0x4585E33B EQ PUSH2 0x462 JUMPI DUP1 PUSH4 0x47441210 EQ PUSH2 0x475 JUMPI PUSH1 0x0 DUP1 REVERT JUMPDEST DUP1 PUSH4 0x126DF02B GT PUSH2 0x231 JUMPI DUP1 PUSH4 0x126DF02B EQ PUSH2 0x311 JUMPI DUP1 PUSH4 0x16F949A1 EQ PUSH2 0x35F JUMPI DUP1 PUSH4 0x1A8FF1F8 EQ PUSH2 0x3AE JUMPI DUP1 PUSH4 0x20E43DB8 EQ PUSH2 0x3C1 JUMPI DUP1 PUSH4 0x230DBD29 EQ PUSH2 0x3F5 JUMPI PUSH1 0x0 DUP1 REVERT JUMPDEST DUP1 PUSH4 0x7B785BD EQ PUSH2 0x26E JUMPI DUP1 PUSH4 0x85D4883 EQ PUSH2 0x283 JUMPI DUP1 PUSH4 0xCCD3EF9 EQ PUSH2 0x2B3 JUMPI DUP1 PUSH4 0xD4E57A4 EQ PUSH2 0x2D3 JUMPI DUP1 PUSH4 0xD7EC6E4 EQ PUSH2 0x2FE JUMPI JUMPDEST PUSH1 0x0 DUP1 REVERT JUMPDEST PUSH2 0x281 PUSH2 0x27C CALLDATASIZE PUSH1 0x4 PUSH2 0x26FD JUMP JUMPDEST PUSH2 0x769 JUMP JUMPDEST STOP JUMPDEST PUSH1 0xD SLOAD PUSH2 0x296 SWAP1 PUSH1 0x1 PUSH1 0x1 PUSH1 0xA0 SHL SUB AND DUP2 JUMP JUMPDEST PUSH1 0x40 MLOAD PUSH1 0x1 PUSH1 0x1 PUSH1 0xA0 SHL SUB SWAP1 SWAP2 AND DUP2 MSTORE PUSH1 0x20 ADD JUMPDEST PUSH1 0x40 MLOAD DUP1 SWAP2 SUB SWAP1 RETURN JUMPDEST PUSH2 0x2C6 PUSH2 0x2C1 CALLDATASIZE PUSH1 0x4 PUSH2 0x273C JUMP JUMPDEST PUSH2 0x86B JUMP JUMPDEST PUSH1 0x40 MLOAD PUSH2 0x2AA SWAP2 SWAP1 PUSH2 0x27B1 JUMP JUMPDEST PUSH1 0xA SLOAD PUSH2 0x2E6 SWAP1 PUSH1 0x1 PUSH1 0x1 PUSH1 0x80 SHL SUB AND DUP2 JUMP JUMPDEST PUSH1 0x40 MLOAD PUSH1 0x1 PUSH1 0x1 PUSH1 0x80 SHL SUB SWAP1 SWAP2 AND DUP2 MSTORE PUSH1 0x20 ADD PUSH2 0x2AA JUMP JUMPDEST PUSH2 0x281 PUSH2 0x30C CALLDATASIZE PUSH1 0x4 PUSH2 0x2887 JUMP JUMPDEST PUSH2 0x917 JUMP JUMPDEST PUSH2 0x33F PUSH2 0x31F CALLDATASIZE PUSH1 0x4 PUSH2 0x28CD JUMP JUMPDEST PUSH1 0x16 PUSH1 0x20 MSTORE PUSH1 0x0 SWAP1 DUP2 MSTORE PUSH1 0x40 SWAP1 KECCAK256 DUP1 SLOAD PUSH1 0x1 SWAP1 SWAP2 ADD SLOAD PUSH1 0xC0 SWAP2 SWAP1 SWAP2 SHL SWAP1 DUP3 JUMP JUMPDEST PUSH1 0x40 DUP1 MLOAD PUSH1 0x1 PUSH1 0x1 PUSH1 0xC0 SHL SUB NOT SWAP1 SWAP4 AND DUP4 MSTORE PUSH1 0x20 DUP4 ADD SWAP2 SWAP1 SWAP2 MSTORE ADD PUSH2 0x2AA JUMP JUMPDEST PUSH2 0x39E PUSH2 0x36D CALLDATASIZE PUSH1 0x4 PUSH2 0x2887 JUMP JUMPDEST PUSH1 0x21 PUSH1 0x20 SWAP1 DUP2 MSTORE PUSH1 0x0 SWAP3 DUP4 MSTORE PUSH1 0x40 SWAP1 SWAP3 KECCAK256 DUP2 MLOAD DUP1 DUP4 ADD DUP5 ADD DUP1 MLOAD SWAP3 DUP2 MSTORE SWAP1 DUP5 ADD SWAP3 SWAP1 SWAP4 ADD SWAP2 SWAP1 SWAP2 KECCAK256 SWAP2 MSTORE SLOAD PUSH1 0xFF AND DUP2 JUMP JUMPDEST PUSH1 0x40 MLOAD SWAP1 ISZERO ISZERO DUP2 MSTORE PUSH1 0x20 ADD PUSH2 0x2AA JUMP JUMPDEST PUSH2 0x281 PUSH2 0x3BC CALLDATASIZE PUSH1 0x4 PUSH2 0x28CD JUMP JUMPDEST PUSH2 0xB73 JUMP JUMPDEST PUSH2 0x2E6 PUSH2 0x3CF CALLDATASIZE PUSH1 0x4 PUSH2 0x2901 JUMP JUMPDEST PUSH1 0x19 PUSH1 0x20 SWAP1 DUP2 MSTORE PUSH1 0x0 SWAP3 DUP4 MSTORE PUSH1 0x40 DUP1 DUP5 KECCAK256 SWAP1 SWAP2 MSTORE SWAP1 DUP3 MSTORE SWAP1 KECCAK256 SLOAD PUSH1 0x1 PUSH1 0x1 PUSH1 0x80 SHL SUB AND DUP2 JUMP JUMPDEST PUSH2 0x2C6 PUSH2 0x403 CALLDATASIZE PUSH1 0x4 PUSH2 0x2975 JUMP JUMPDEST PUSH2 0xBF1 JUMP JUMPDEST PUSH2 0x296 PUSH2 0x416 CALLDATASIZE PUSH1 0x4 PUSH2 0x273C JUMP JUMPDEST PUSH2 0xC53 JUMP JUMPDEST PUSH2 0x2C6 PUSH2 0x429 CALLDATASIZE PUSH1 0x4 PUSH2 0x2A3F JUMP JUMPDEST PUSH2 0xC7D JUMP JUMPDEST PUSH2 0x296 PUSH2 0x43C CALLDATASIZE PUSH1 0x4 PUSH2 0x2ADD JUMP JUMPDEST DUP1 MLOAD PUSH1 0x20 DUP2 DUP4 ADD DUP2 ADD DUP1 MLOAD PUSH1 0x8 DUP3 MSTORE SWAP3 DUP3 ADD SWAP2 SWAP1 SWAP4 ADD KECCAK256 SWAP2 MSTORE SLOAD PUSH1 0x1 PUSH1 0x1 PUSH1 0xA0 SHL SUB AND DUP2 JUMP JUMPDEST PUSH2 0x281 PUSH2 0x470 CALLDATASIZE PUSH1 0x4 PUSH2 0x2B19 JUMP JUMPDEST PUSH2 0xCE0 JUMP JUMPDEST PUSH2 0x47E PUSH1 0xB SLOAD DUP2 JUMP JUMPDEST PUSH1 0x40 MLOAD SWAP1 DUP2 MSTORE PUSH1 0x20 ADD PUSH2 0x2AA JUMP JUMPDEST PUSH2 0x296 PUSH2 0x49A CALLDATASIZE PUSH1 0x4 PUSH2 0x273C JUMP JUMPDEST PUSH2 0xDF7 JUMP JUMPDEST PUSH2 0x281 PUSH2 0x4AD CALLDATASIZE PUSH1 0x4 PUSH2 0x2B5A JUMP JUMPDEST PUSH2 0xE07 JUMP JUMPDEST PUSH1 0x3 SLOAD PUSH2 0x296 SWAP1 PUSH1 0x1 PUSH1 0x1 PUSH1 0xA0 SHL SUB AND DUP2 JUMP JUMPDEST PUSH2 0x524 PUSH2 0x4D3 CALLDATASIZE PUSH1 0x4 PUSH2 0x2887 JUMP JUMPDEST PUSH1 0x14 PUSH1 0x20 SWAP1 DUP2 MSTORE PUSH1 0x0 SWAP3 DUP4 MSTORE PUSH1 0x40 SWAP1 SWAP3 KECCAK256 DUP2 MLOAD DUP1 DUP4 ADD DUP5 ADD DUP1 MLOAD SWAP3 DUP2 MSTORE SWAP1 DUP5 ADD SWAP3 SWAP1 SWAP4 ADD SWAP2 SWAP1 SWAP2 KECCAK256 SWAP2 MSTORE DUP1 SLOAD PUSH1 0x1 DUP3 ADD SLOAD PUSH1 0x2 DUP4 ADD SLOAD PUSH1 0x3 DUP5 ADD SLOAD PUSH1 0x4 DUP6 ADD SLOAD PUSH1 0x5 SWAP1 SWAP6 ADD SLOAD SWAP4 SWAP5 SWAP3 SWAP4 SWAP2 SWAP3 SWAP1 SWAP2 DUP7 JUMP JUMPDEST PUSH1 0x40 DUP1 MLOAD SWAP7 DUP8 MSTORE PUSH1 0x20 DUP8 ADD SWAP6 SWAP1 SWAP6 MSTORE SWAP4 DUP6 ADD SWAP3 SWAP1 SWAP3 MSTORE PUSH1 0x60 DUP5 ADD MSTORE PUSH1 0x80 DUP4 ADD MSTORE PUSH1 0xA0 DUP3 ADD MSTORE PUSH1 0xC0 ADD PUSH2 0x2AA JUMP JUMPDEST PUSH2 0x47E PUSH2 0x55F CALLDATASIZE PUSH1 0x4 PUSH2 0x2ADD JUMP JUMPDEST PUSH2 0xF17 JUMP JUMPDEST PUSH2 0x2C6 PUSH2 0x572 CALLDATASIZE PUSH1 0x4 PUSH2 0x2975 JUMP JUMPDEST PUSH2 0xFBF JUMP JUMPDEST PUSH2 0x47E PUSH2 0x1024 JUMP JUMPDEST PUSH2 0x5C6 PUSH2 0x58D CALLDATASIZE PUSH1 0x4 PUSH2 0x2BAB JUMP JUMPDEST PUSH1 0x20 DUP1 DUP1 MSTORE PUSH1 0x0 SWAP4 DUP5 MSTORE PUSH1 0x40 DUP1 DUP6 KECCAK256 DUP5 MLOAD DUP1 DUP7 ADD DUP5 ADD DUP1 MLOAD SWAP3 DUP2 MSTORE SWAP1 DUP5 ADD SWAP6 DUP5 ADD SWAP6 SWAP1 SWAP6 KECCAK256 SWAP5 MSTORE SWAP3 SWAP1 MSTORE DUP3 MSTORE SWAP1 KECCAK256 DUP1 SLOAD PUSH1 0x1 SWAP1 SWAP2 ADD SLOAD DUP3 JUMP JUMPDEST PUSH1 0x40 DUP1 MLOAD SWAP3 DUP4 MSTORE PUSH1 0x20 DUP4 ADD SWAP2 SWAP1 SWAP2 MSTORE ADD PUSH2 0x2AA JUMP JUMPDEST PUSH2 0x281 PUSH2 0x5E9 CALLDATASIZE PUSH1 0x4 PUSH2 0x28CD JUMP JUMPDEST PUSH2 0x10AD JUMP JUMPDEST PUSH2 0x2C6 PUSH2 0x5FC CALLDATASIZE PUSH1 0x4 PUSH2 0x2A3F JUMP JUMPDEST PUSH2 0x1129 JUMP JUMPDEST PUSH2 0x614 PUSH2 0x60F CALLDATASIZE PUSH1 0x4 PUSH2 0x2B19 JUMP JUMPDEST PUSH2 0x1190 JUMP JUMPDEST PUSH1 0x40 MLOAD PUSH2 0x2AA SWAP3 SWAP2 SWAP1 PUSH2 0x2C05 JUMP JUMPDEST PUSH2 0x281 PUSH2 0x13A5 JUMP JUMPDEST PUSH2 0x47E PUSH1 0x15 SLOAD DUP2 JUMP JUMPDEST PUSH2 0x2C6 PUSH2 0x641 CALLDATASIZE PUSH1 0x4 PUSH2 0x2A3F JUMP JUMPDEST PUSH2 0x13DB JUMP JUMPDEST PUSH2 0x281 PUSH2 0x654 CALLDATASIZE PUSH1 0x4 PUSH2 0x2C20 JUMP JUMPDEST PUSH2 0x143E JUMP JUMPDEST PUSH2 0x47E PUSH2 0x667 CALLDATASIZE PUSH1 0x4 PUSH2 0x2ADD JUMP JUMPDEST DUP1 MLOAD PUSH1 0x20 DUP2 DUP4 ADD DUP2 ADD DUP1 MLOAD PUSH1 0x9 DUP3 MSTORE SWAP3 DUP3 ADD SWAP2 SWAP1 SWAP4 ADD KECCAK256 SWAP2 MSTORE SLOAD DUP2 JUMP JUMPDEST PUSH1 0x0 SLOAD PUSH1 0x1 PUSH1 0x1 PUSH1 0xA0 SHL SUB AND PUSH2 0x296 JUMP JUMPDEST PUSH2 0x281 PUSH2 0x6A3 CALLDATASIZE PUSH1 0x4 PUSH2 0x28CD JUMP JUMPDEST PUSH2 0x1530 JUMP JUMPDEST PUSH1 0xE SLOAD PUSH2 0x296 SWAP1 PUSH1 0x1 PUSH1 0x1 PUSH1 0xA0 SHL SUB AND DUP2 JUMP JUMPDEST PUSH2 0x281 PUSH2 0x6C9 CALLDATASIZE PUSH1 0x4 PUSH2 0x2887 JUMP JUMPDEST PUSH2 0x15D6 JUMP JUMPDEST PUSH2 0x39E PUSH2 0x6DC CALLDATASIZE PUSH1 0x4 PUSH2 0x2BAB JUMP JUMPDEST PUSH2 0x16C8 JUMP JUMPDEST PUSH2 0x281 PUSH2 0x6EF CALLDATASIZE PUSH1 0x4 PUSH2 0x28CD JUMP JUMPDEST PUSH2 0x1850 JUMP JUMPDEST PUSH2 0x2C6 PUSH2 0x702 CALLDATASIZE PUSH1 0x4 PUSH2 0x2975 JUMP JUMPDEST PUSH2 0x189C JUMP JUMPDEST PUSH2 0x47E PUSH1 0xC SLOAD DUP2 JUMP JUMPDEST PUSH2 0x47E PUSH2 0x71E CALLDATASIZE PUSH1 0x4 PUSH2 0x273C JUMP JUMPDEST PUSH1 0x13 PUSH1 0x20 MSTORE PUSH1 0x0 SWAP1 DUP2 MSTORE PUSH1 0x40 SWAP1 KECCAK256 SLOAD DUP2 JUMP JUMPDEST PUSH2 0x281 PUSH2 0x73E CALLDATASIZE PUSH1 0x4 PUSH2 0x28CD JUMP JUMPDEST PUSH2 0x18FE JUMP JUMPDEST PUSH2 0x296 PUSH2 0x751 CALLDATASIZE PUSH1 0x4 PUSH2 0x2C3B JUMP JUMPDEST PUSH2 0x1999 JUMP JUMPDEST PUSH2 0x296 PUSH2 0x764 CALLDATASIZE PUSH1 0x4 PUSH2 0x2C8A JUMP JUMPDEST PUSH2 0x19ED JUMP JUMPDEST PUSH1 0x0 SLOAD PUSH1 0x1 PUSH1 0x1 PUSH1 0xA0 SHL SUB AND CALLER EQ PUSH2 0x79C JUMPI PUSH1 0x40 MLOAD PUSH3 0x461BCD PUSH1 0xE5 SHL DUP2 MSTORE PUSH1 0x4 ADD PUSH2 0x793 SWAP1 PUSH2 0x2CB4 JUMP JUMPDEST PUSH1 0x40 MLOAD DUP1 SWAP2 SUB SWAP1 REVERT JUMPDEST PUSH1 0x1 PUSH1 0x1 PUSH1 0xA0 SHL SUB SWAP2 SWAP1 SWAP2 AND PUSH1 0x0 DUP2 DUP2 MSTORE PUSH1 0x16 PUSH1 0x20 MSTORE PUSH1 0x40 DUP2 KECCAK256 DUP1 SLOAD PUSH8 0xFFFFFFFFFFFFFFFF NOT AND PUSH1 0xC0 SWAP6 SWAP1 SWAP6 SHR SWAP5 DUP6 OR DUP2 SSTORE PUSH1 0x1 SWAP1 DUP2 ADD SWAP4 SWAP1 SWAP4 SSTORE PUSH1 0x17 DUP1 SLOAD DUP1 DUP6 ADD SWAP1 SWAP2 SSTORE PUSH32 0xC624B66CC0138B8FABC209247F72D758E1CF3343756D543BADBF24212BED8C15 PUSH1 0x4 DUP3 DIV ADD DUP1 SLOAD PUSH1 0x1 PUSH1 0x1 PUSH1 0x40 SHL SUB PUSH1 0x3 SWAP1 SWAP4 AND PUSH1 0x8 MUL PUSH2 0x100 EXP SWAP3 DUP4 MUL NOT AND SWAP2 SWAP1 SWAP6 MUL OR SWAP1 SWAP4 SSTORE PUSH1 0x18 DUP1 SLOAD SWAP3 DUP4 ADD DUP2 SSTORE SWAP1 SWAP3 MSTORE PUSH32 0xB13D2D76D1F4B7BE834882E410B3E3A8AFAF69F83600AE24DB354391D2378D2E ADD DUP1 SLOAD PUSH1 0x1 PUSH1 0x1 PUSH1 0xA0 SHL SUB NOT AND SWAP1 SWAP2 OR SWAP1 SSTORE JUMP JUMPDEST PUSH1 0x5 DUP2 DUP2 SLOAD DUP2 LT PUSH2 0x87B JUMPI PUSH1 0x0 DUP1 REVERT JUMPDEST SWAP1 PUSH1 0x0 MSTORE PUSH1 0x20 PUSH1 0x0 KECCAK256 ADD PUSH1 0x0 SWAP2 POP SWAP1 POP DUP1 SLOAD PUSH2 0x896 SWAP1 PUSH2 0x2CE9 JUMP JUMPDEST DUP1 PUSH1 0x1F ADD PUSH1 0x20 DUP1 SWAP2 DIV MUL PUSH1 0x20 ADD PUSH1 0x40 MLOAD SWAP1 DUP2 ADD PUSH1 0x40 MSTORE DUP1 SWAP3 SWAP2 SWAP1 DUP2 DUP2 MSTORE PUSH1 0x20 ADD DUP3 DUP1 SLOAD PUSH2 0x8C2 SWAP1 PUSH2 0x2CE9 JUMP JUMPDEST DUP1 ISZERO PUSH2 0x90F JUMPI DUP1 PUSH1 0x1F LT PUSH2 0x8E4 JUMPI PUSH2 0x100 DUP1 DUP4 SLOAD DIV MUL DUP4 MSTORE SWAP2 PUSH1 0x20 ADD SWAP2 PUSH2 0x90F JUMP JUMPDEST DUP3 ADD SWAP2 SWAP1 PUSH1 0x0 MSTORE PUSH1 0x20 PUSH1 0x0 KECCAK256 SWAP1 JUMPDEST DUP2 SLOAD DUP2 MSTORE SWAP1 PUSH1 0x1 ADD SWAP1 PUSH1 0x20 ADD DUP1 DUP4 GT PUSH2 0x8F2 JUMPI DUP3 SWAP1 SUB PUSH1 0x1F AND DUP3 ADD SWAP2 JUMPDEST POP POP POP POP POP DUP2 JUMP JUMPDEST PUSH8 0x8AC7230489E80000 PUSH2 0x708 TIMESTAMP DUP5 GT PUSH2 0x92F JUMPI PUSH1 0x0 DUP1 REVERT JUMPDEST PUSH1 0x11 SLOAD PUSH1 0x40 MLOAD PUSH4 0x6EB1769F PUSH1 0xE1 SHL DUP2 MSTORE CALLER PUSH1 0x4 DUP3 ADD MSTORE ADDRESS PUSH1 0x24 DUP3 ADD MSTORE DUP4 SWAP2 PUSH1 0x1 PUSH1 0x1 PUSH1 0xA0 SHL SUB AND SWAP1 PUSH4 0xDD62ED3E SWAP1 PUSH1 0x44 ADD PUSH1 0x20 PUSH1 0x40 MLOAD DUP1 DUP4 SUB DUP2 DUP7 GAS STATICCALL ISZERO DUP1 ISZERO PUSH2 0x97D JUMPI RETURNDATASIZE PUSH1 0x0 DUP1 RETURNDATACOPY RETURNDATASIZE PUSH1 0x0 REVERT JUMPDEST POP POP POP POP PUSH1 0x40 MLOAD RETURNDATASIZE PUSH1 0x1F NOT PUSH1 0x1F DUP3 ADD AND DUP3 ADD DUP1 PUSH1 0x40 MSTORE POP DUP2 ADD SWAP1 PUSH2 0x9A1 SWAP2 SWAP1 PUSH2 0x2D24 JUMP JUMPDEST LT ISZERO PUSH2 0x9AC JUMPI PUSH1 0x0 DUP1 REVERT JUMPDEST PUSH1 0x11 SLOAD PUSH1 0x40 MLOAD PUSH4 0x23B872DD PUSH1 0xE0 SHL DUP2 MSTORE CALLER PUSH1 0x4 DUP3 ADD MSTORE ADDRESS PUSH1 0x24 DUP3 ADD MSTORE PUSH1 0x44 DUP2 ADD DUP5 SWAP1 MSTORE PUSH1 0x1 PUSH1 0x1 PUSH1 0xA0 SHL SUB SWAP1 SWAP2 AND SWAP1 PUSH4 0x23B872DD SWAP1 PUSH1 0x64 ADD PUSH1 0x20 PUSH1 0x40 MLOAD DUP1 DUP4 SUB DUP2 PUSH1 0x0 DUP8 GAS CALL ISZERO DUP1 ISZERO PUSH2 0xA03 JUMPI RETURNDATASIZE PUSH1 0x0 DUP1 RETURNDATACOPY RETURNDATASIZE PUSH1 0x0 REVERT JUMPDEST POP POP POP POP PUSH1 0x40 MLOAD RETURNDATASIZE PUSH1 0x1F NOT PUSH1 0x1F DUP3 ADD AND DUP3 ADD DUP1 PUSH1 0x40 MSTORE POP DUP2 ADD SWAP1 PUSH2 0xA27 SWAP2 SWAP1 PUSH2 0x2D3D JUMP JUMPDEST POP DUP2 PUSH1 0x14 PUSH1 0x0 PUSH1 0x9 DUP7 PUSH1 0x40 MLOAD PUSH2 0xA3D SWAP2 SWAP1 PUSH2 0x2D5F JUMP JUMPDEST SWAP1 DUP2 MSTORE PUSH1 0x20 ADD PUSH1 0x40 MLOAD DUP1 SWAP2 SUB SWAP1 KECCAK256 SLOAD DUP2 MSTORE PUSH1 0x20 ADD SWAP1 DUP2 MSTORE PUSH1 0x20 ADD PUSH1 0x0 KECCAK256 DUP5 PUSH1 0x40 MLOAD PUSH2 0xA68 SWAP2 SWAP1 PUSH2 0x2D5F JUMP JUMPDEST SWAP1 DUP2 MSTORE PUSH1 0x20 ADD PUSH1 0x40 MLOAD DUP1 SWAP2 SUB SWAP1 KECCAK256 PUSH1 0x3 ADD PUSH1 0x0 DUP3 DUP3 SLOAD PUSH2 0xA88 SWAP2 SWAP1 PUSH2 0x2D91 JUMP JUMPDEST SWAP3 POP POP DUP2 SWAP1 SSTORE POP PUSH7 0x1FF973CAFA8000 PUSH1 0x14 PUSH1 0x0 PUSH1 0x9 DUP7 PUSH1 0x40 MLOAD PUSH2 0xAAB SWAP2 SWAP1 PUSH2 0x2D5F JUMP JUMPDEST SWAP1 DUP2 MSTORE PUSH1 0x20 ADD PUSH1 0x40 MLOAD DUP1 SWAP2 SUB SWAP1 KECCAK256 SLOAD DUP2 MSTORE PUSH1 0x20 ADD SWAP1 DUP2 MSTORE PUSH1 0x20 ADD PUSH1 0x0 KECCAK256 DUP5 PUSH1 0x40 MLOAD PUSH2 0xAD6 SWAP2 SWAP1 PUSH2 0x2D5F JUMP JUMPDEST SWAP1 DUP2 MSTORE PUSH1 0x20 ADD PUSH1 0x40 MLOAD DUP1 SWAP2 SUB SWAP1 KECCAK256 PUSH1 0x1 ADD PUSH1 0x0 DUP3 DUP3 SLOAD PUSH2 0xAF6 SWAP2 SWAP1 PUSH2 0x2D91 JUMP JUMPDEST SWAP3 POP POP DUP2 SWAP1 SSTORE POP DUP2 PUSH1 0x15 PUSH1 0x0 DUP3 DUP3 SLOAD PUSH2 0xB0F SWAP2 SWAP1 PUSH2 0x2D91 JUMP JUMPDEST SWAP1 SWAP2 SSTORE POP PUSH2 0xB1E SWAP1 POP DUP3 PUSH2 0x1A25 JUMP JUMPDEST PUSH2 0xB28 DUP5 DUP5 PUSH2 0x1B18 JUMP JUMPDEST CALLER PUSH32 0x8FC5FCAFAB42750870DEFC62F202C0D262793ECA86BA9B802B7F22B102DD44B8 DUP6 PUSH2 0xB55 DUP5 DUP3 PUSH2 0x2D91 JUMP JUMPDEST PUSH1 0x40 DUP1 MLOAD SWAP3 DUP4 MSTORE PUSH1 0x20 DUP4 ADD SWAP2 SWAP1 SWAP2 MSTORE ADD PUSH1 0x40 MLOAD DUP1 SWAP2 SUB SWAP1 LOG2 POP POP POP POP JUMP JUMPDEST PUSH1 0x0 JUMPDEST PUSH1 0x7 SLOAD DUP2 LT ISZERO PUSH2 0xBCE JUMPI CALLER PUSH1 0x1 PUSH1 0x1 PUSH1 0xA0 SHL SUB AND PUSH1 0x7 DUP3 DUP2 SLOAD DUP2 LT PUSH2 0xB9D JUMPI PUSH2 0xB9D PUSH2 0x2DA9 JUMP JUMPDEST PUSH1 0x0 SWAP2 DUP3 MSTORE PUSH1 0x20 SWAP1 SWAP2 KECCAK256 ADD SLOAD PUSH1 0x1 PUSH1 0x1 PUSH1 0xA0 SHL SUB AND EQ PUSH2 0xBBC JUMPI PUSH1 0x0 DUP1 REVERT JUMPDEST DUP1 PUSH2 0xBC6 DUP2 PUSH2 0x2DBF JUMP JUMPDEST SWAP2 POP POP PUSH2 0xB76 JUMP JUMPDEST POP PUSH1 0x10 DUP1 SLOAD PUSH1 0x1 PUSH1 0x1 PUSH1 0xA0 SHL SUB NOT AND PUSH1 0x1 PUSH1 0x1 PUSH1 0xA0 SHL SUB SWAP3 SWAP1 SWAP3 AND SWAP2 SWAP1 SWAP2 OR SWAP1 SSTORE JUMP JUMPDEST PUSH1 0x40 MLOAD PUSH3 0x461BCD PUSH1 0xE5 SHL DUP2 MSTORE PUSH1 0x20 PUSH1 0x4 DUP3 ADD MSTORE PUSH1 0x2E PUSH1 0x24 DUP3 ADD MSTORE PUSH32 0x556E737570706F727465642063616C6C6261636B202D20416674657220416772 PUSH1 0x44 DUP3 ADD MSTORE PUSH14 0x19595B595B9D08155C19185D1959 PUSH1 0x92 SHL PUSH1 0x64 DUP3 ADD MSTORE PUSH1 0x60 SWAP1 PUSH1 0x84 ADD PUSH2 0x793 JUMP JUMPDEST PUSH1 0x4 DUP2 DUP2 SLOAD DUP2 LT PUSH2 0xC63 JUMPI PUSH1 0x0 DUP1 REVERT JUMPDEST PUSH1 0x0 SWAP2 DUP3 MSTORE PUSH1 0x20 SWAP1 SWAP2 KECCAK256 ADD SLOAD PUSH1 0x1 PUSH1 0x1 PUSH1 0xA0 SHL SUB AND SWAP1 POP DUP2 JUMP JUMPDEST PUSH1 0x40 MLOAD PUSH3 0x461BCD PUSH1 0xE5 SHL DUP2 MSTORE PUSH1 0x20 PUSH1 0x4 DUP3 ADD MSTORE PUSH1 0x2F PUSH1 0x24 DUP3 ADD MSTORE PUSH32 0x556E737570706F727465642063616C6C6261636B202D204265666F7265204167 PUSH1 0x44 DUP3 ADD MSTORE PUSH15 0x1C99595B595B9D0810DC99585D1959 PUSH1 0x8A SHL PUSH1 0x64 DUP3 ADD MSTORE PUSH1 0x60 SWAP1 PUSH1 0x84 ADD PUSH2 0x793 JUMP JUMPDEST PUSH1 0x0 PUSH2 0xCEE DUP3 DUP5 ADD DUP5 PUSH2 0x273C JUMP JUMPDEST PUSH1 0x5 SLOAD SWAP1 SWAP2 POP DUP2 GT PUSH2 0xDA8 JUMPI PUSH2 0xDA8 PUSH1 0x5 DUP3 DUP2 SLOAD DUP2 LT PUSH2 0xD10 JUMPI PUSH2 0xD10 PUSH2 0x2DA9 JUMP JUMPDEST SWAP1 PUSH1 0x0 MSTORE PUSH1 0x20 PUSH1 0x0 KECCAK256 ADD DUP1 SLOAD PUSH2 0xD25 SWAP1 PUSH2 0x2CE9 JUMP JUMPDEST DUP1 PUSH1 0x1F ADD PUSH1 0x20 DUP1 SWAP2 DIV MUL PUSH1 0x20 ADD PUSH1 0x40 MLOAD SWAP1 DUP2 ADD PUSH1 0x40 MSTORE DUP1 SWAP3 SWAP2 SWAP1 DUP2 DUP2 MSTORE PUSH1 0x20 ADD DUP3 DUP1 SLOAD PUSH2 0xD51 SWAP1 PUSH2 0x2CE9 JUMP JUMPDEST DUP1 ISZERO PUSH2 0xD9E JUMPI DUP1 PUSH1 0x1F LT PUSH2 0xD73 JUMPI PUSH2 0x100 DUP1 DUP4 SLOAD DIV MUL DUP4 MSTORE SWAP2 PUSH1 0x20 ADD SWAP2 PUSH2 0xD9E JUMP JUMPDEST DUP3 ADD SWAP2 SWAP1 PUSH1 0x0 MSTORE PUSH1 0x20 PUSH1 0x0 KECCAK256 SWAP1 JUMPDEST DUP2 SLOAD DUP2 MSTORE SWAP1 PUSH1 0x1 ADD SWAP1 PUSH1 0x20 ADD DUP1 DUP4 GT PUSH2 0xD81 JUMPI DUP3 SWAP1 SUB PUSH1 0x1F AND DUP3 ADD SWAP2 JUMPDEST POP POP POP POP POP PUSH2 0x1D26 JUMP JUMPDEST DUP1 PUSH2 0x3E8 EQ ISZERO PUSH2 0xDF2 JUMPI PUSH3 0x278D00 PUSH1 0xB PUSH1 0x0 DUP3 DUP3 SLOAD PUSH2 0xDC7 SWAP2 SWAP1 PUSH2 0x2D91 JUMP JUMPDEST SWAP1 SWAP2 SSTORE POP POP PUSH1 0x12 SLOAD PUSH2 0xDE1 SWAP1 PUSH1 0x1 PUSH1 0x1 PUSH1 0xA0 SHL SUB AND PUSH2 0x1D92 JUMP JUMPDEST POP PUSH2 0xDEA PUSH2 0x1F9C JUMP JUMPDEST PUSH2 0xDF2 PUSH2 0x20BF JUMP JUMPDEST POP POP POP JUMP JUMPDEST PUSH1 0x7 DUP2 DUP2 SLOAD DUP2 LT PUSH2 0xC63 JUMPI PUSH1 0x0 DUP1 REVERT JUMPDEST PUSH1 0x0 SLOAD PUSH1 0x1 PUSH1 0x1 PUSH1 0xA0 SHL SUB AND CALLER EQ PUSH2 0xE31 JUMPI PUSH1 0x40 MLOAD PUSH3 0x461BCD PUSH1 0xE5 SHL DUP2 MSTORE PUSH1 0x4 ADD PUSH2 0x793 SWAP1 PUSH2 0x2CB4 JUMP JUMPDEST PUSH1 0x5 SLOAD PUSH1 0x64 GT PUSH2 0xE40 JUMPI PUSH1 0x0 DUP1 REVERT JUMPDEST DUP1 PUSH1 0x8 DUP4 PUSH1 0x40 MLOAD PUSH2 0xE51 SWAP2 SWAP1 PUSH2 0x2D5F JUMP JUMPDEST SWAP1 DUP2 MSTORE PUSH1 0x40 MLOAD PUSH1 0x20 SWAP2 DUP2 SWAP1 SUB DUP3 ADD SWAP1 KECCAK256 DUP1 SLOAD PUSH1 0x1 PUSH1 0x1 PUSH1 0xA0 SHL SUB NOT AND PUSH1 0x1 PUSH1 0x1 PUSH1 0xA0 SHL SUB SWAP4 SWAP1 SWAP4 AND SWAP3 SWAP1 SWAP3 OR SWAP1 SWAP2 SSTORE PUSH1 0x5 DUP1 SLOAD PUSH1 0x1 DUP2 ADD DUP3 SSTORE PUSH1 0x0 SWAP2 SWAP1 SWAP2 MSTORE DUP4 MLOAD PUSH2 0xEC3 SWAP3 PUSH32 0x36B6384B5ECA791C62761152D0C79BB0604C104A5FB6F4EB0703F3154BB3DB0 SWAP1 SWAP3 ADD SWAP2 DUP6 ADD SWAP1 PUSH2 0x2632 JUMP JUMPDEST POP PUSH1 0x6 DUP1 SLOAD PUSH1 0x1 DUP2 ADD DUP3 SSTORE PUSH1 0x0 SWAP2 SWAP1 SWAP2 MSTORE PUSH32 0xF652222313E28459528D920B65115C16C04F3EFC82AAEDC97BE59F3F377C0D3F ADD DUP1 SLOAD PUSH1 0x1 PUSH1 0x1 PUSH1 0xA0 SHL SUB NOT AND PUSH1 0x1 PUSH1 0x1 PUSH1 0xA0 SHL SUB SWAP3 SWAP1 SWAP3 AND SWAP2 SWAP1 SWAP2 OR SWAP1 SSTORE POP JUMP JUMPDEST PUSH1 0x0 DUP1 PUSH1 0x8 DUP4 PUSH1 0x40 MLOAD PUSH2 0xF2A SWAP2 SWAP1 PUSH2 0x2D5F JUMP JUMPDEST SWAP1 DUP2 MSTORE PUSH1 0x20 ADD PUSH1 0x40 MLOAD DUP1 SWAP2 SUB SWAP1 KECCAK256 PUSH1 0x0 SWAP1 SLOAD SWAP1 PUSH2 0x100 EXP SWAP1 DIV PUSH1 0x1 PUSH1 0x1 PUSH1 0xA0 SHL SUB AND SWAP1 POP PUSH1 0x0 DUP2 PUSH1 0x1 PUSH1 0x1 PUSH1 0xA0 SHL SUB AND PUSH4 0xFEAF968C PUSH1 0x40 MLOAD DUP2 PUSH4 0xFFFFFFFF AND PUSH1 0xE0 SHL DUP2 MSTORE PUSH1 0x4 ADD PUSH1 0xA0 PUSH1 0x40 MLOAD DUP1 DUP4 SUB DUP2 DUP7 GAS STATICCALL ISZERO DUP1 ISZERO PUSH2 0xF8E JUMPI RETURNDATASIZE PUSH1 0x0 DUP1 RETURNDATACOPY RETURNDATASIZE PUSH1 0x0 REVERT JUMPDEST POP POP POP POP PUSH1 0x40 MLOAD RETURNDATASIZE PUSH1 0x1F NOT PUSH1 0x1F DUP3 ADD AND DUP3 ADD DUP1 PUSH1 0x40 MSTORE POP DUP2 ADD SWAP1 PUSH2 0xFB2 SWAP2 SWAP1 PUSH2 0x2DF4 JUMP JUMPDEST POP SWAP2 SWAP8 SWAP7 POP POP POP POP POP POP POP JUMP JUMPDEST PUSH1 0x40 MLOAD PUSH3 0x461BCD PUSH1 0xE5 SHL DUP2 MSTORE PUSH1 0x20 PUSH1 0x4 DUP3 ADD MSTORE PUSH1 0x31 PUSH1 0x24 DUP3 ADD MSTORE PUSH32 0x556E737570706F727465642063616C6C6261636B202D20416674657220416772 PUSH1 0x44 DUP3 ADD MSTORE PUSH17 0x19595B595B9D0815195C9B5A5B985D1959 PUSH1 0x7A SHL PUSH1 0x64 DUP3 ADD MSTORE PUSH1 0x60 SWAP1 PUSH1 0x84 ADD PUSH2 0x793 JUMP JUMPDEST PUSH1 0x0 DUP1 PUSH20 0x6135B13325BFC4B00278B4ABC5E20BBCE2D6580E SWAP1 POP PUSH1 0x0 DUP2 PUSH1 0x1 PUSH1 0x1 PUSH1 0xA0 SHL SUB AND PUSH4 0xFEAF968C PUSH1 0x40 MLOAD DUP2 PUSH4 0xFFFFFFFF AND PUSH1 0xE0 SHL DUP2 MSTORE PUSH1 0x4 ADD PUSH1 0xA0 PUSH1 0x40 MLOAD DUP1 DUP4 SUB DUP2 DUP7 GAS STATICCALL ISZERO DUP1 ISZERO PUSH2 0x107E JUMPI RETURNDATASIZE PUSH1 0x0 DUP1 RETURNDATACOPY RETURNDATASIZE PUSH1 0x0 REVERT JUMPDEST POP POP POP POP PUSH1 0x40 MLOAD RETURNDATASIZE PUSH1 0x1F NOT PUSH1 0x1F DUP3 ADD AND DUP3 ADD DUP1 PUSH1 0x40 MSTORE POP DUP2 ADD SWAP1 PUSH2 0x10A2 SWAP2 SWAP1 PUSH2 0x2DF4 JUMP JUMPDEST POP SWAP7 SWAP6 POP POP POP POP POP POP JUMP JUMPDEST PUSH1 0x0 SLOAD PUSH1 0x1 PUSH1 0x1 PUSH1 0xA0 SHL SUB AND CALLER EQ PUSH2 0x10D7 JUMPI PUSH1 0x40 MLOAD PUSH3 0x461BCD PUSH1 0xE5 SHL DUP2 MSTORE PUSH1 0x4 ADD PUSH2 0x793 SWAP1 PUSH2 0x2CB4 JUMP JUMPDEST PUSH1 0x7 DUP1 SLOAD PUSH1 0x1 DUP2 ADD DUP3 SSTORE PUSH1 0x0 SWAP2 SWAP1 SWAP2 MSTORE PUSH32 0xA66CC928B5EDB82AF9BD49922954155AB7B0942694BEA4CE44661D9A8736C688 ADD DUP1 SLOAD PUSH1 0x1 PUSH1 0x1 PUSH1 0xA0 SHL SUB NOT AND PUSH1 0x1 PUSH1 0x1 PUSH1 0xA0 SHL SUB SWAP3 SWAP1 SWAP3 AND SWAP2 SWAP1 SWAP2 OR SWAP1 SSTORE JUMP JUMPDEST PUSH1 0x40 MLOAD PUSH3 0x461BCD PUSH1 0xE5 SHL DUP2 MSTORE PUSH1 0x20 PUSH1 0x4 DUP3 ADD MSTORE PUSH1 0x33 PUSH1 0x24 DUP3 ADD MSTORE PUSH32 0x556E737570706F727465642063616C6C6261636B202D20204265666F72652041 PUSH1 0x44 DUP3 ADD MSTORE PUSH19 0x19DC99595B595B9D0815195C9B5A5B985D1959 PUSH1 0x6A SHL PUSH1 0x64 DUP3 ADD MSTORE PUSH1 0x60 SWAP1 PUSH1 0x84 ADD PUSH2 0x793 JUMP JUMPDEST PUSH1 0x0 PUSH1 0x60 PUSH1 0x0 JUMPDEST PUSH1 0x5 SLOAD DUP2 LT ISZERO PUSH2 0x1322 JUMPI PUSH1 0x14 PUSH1 0x0 PUSH1 0x9 PUSH1 0x5 DUP5 DUP2 SLOAD DUP2 LT PUSH2 0x11BA JUMPI PUSH2 0x11BA PUSH2 0x2DA9 JUMP JUMPDEST SWAP1 PUSH1 0x0 MSTORE PUSH1 0x20 PUSH1 0x0 KECCAK256 ADD PUSH1 0x40 MLOAD PUSH2 0x11D1 SWAP2 SWAP1 PUSH2 0x2E44 JUMP JUMPDEST SWAP1 DUP2 MSTORE PUSH1 0x20 ADD PUSH1 0x40 MLOAD DUP1 SWAP2 SUB SWAP1 KECCAK256 SLOAD DUP2 MSTORE PUSH1 0x20 ADD SWAP1 DUP2 MSTORE PUSH1 0x20 ADD PUSH1 0x0 KECCAK256 PUSH1 0x5 DUP3 DUP2 SLOAD DUP2 LT PUSH2 0x1201 JUMPI PUSH2 0x1201 PUSH2 0x2DA9 JUMP JUMPDEST SWAP1 PUSH1 0x0 MSTORE PUSH1 0x20 PUSH1 0x0 KECCAK256 ADD PUSH1 0x40 MLOAD PUSH2 0x1218 SWAP2 SWAP1 PUSH2 0x2E44 JUMP JUMPDEST SWAP1 DUP2 MSTORE PUSH1 0x20 ADD PUSH1 0x40 MLOAD DUP1 SWAP2 SUB SWAP1 KECCAK256 PUSH1 0x0 ADD SLOAD PUSH2 0x12D8 PUSH1 0x5 DUP4 DUP2 SLOAD DUP2 LT PUSH2 0x1240 JUMPI PUSH2 0x1240 PUSH2 0x2DA9 JUMP JUMPDEST SWAP1 PUSH1 0x0 MSTORE PUSH1 0x20 PUSH1 0x0 KECCAK256 ADD DUP1 SLOAD PUSH2 0x1255 SWAP1 PUSH2 0x2CE9 JUMP JUMPDEST DUP1 PUSH1 0x1F ADD PUSH1 0x20 DUP1 SWAP2 DIV MUL PUSH1 0x20 ADD PUSH1 0x40 MLOAD SWAP1 DUP2 ADD PUSH1 0x40 MSTORE DUP1 SWAP3 SWAP2 SWAP1 DUP2 DUP2 MSTORE PUSH1 0x20 ADD DUP3 DUP1 SLOAD PUSH2 0x1281 SWAP1 PUSH2 0x2CE9 JUMP JUMPDEST DUP1 ISZERO PUSH2 0x12CE JUMPI DUP1 PUSH1 0x1F LT PUSH2 0x12A3 JUMPI PUSH2 0x100 DUP1 DUP4 SLOAD DIV MUL DUP4 MSTORE SWAP2 PUSH1 0x20 ADD SWAP2 PUSH2 0x12CE JUMP JUMPDEST DUP3 ADD SWAP2 SWAP1 PUSH1 0x0 MSTORE PUSH1 0x20 PUSH1 0x0 KECCAK256 SWAP1 JUMPDEST DUP2 SLOAD DUP2 MSTORE SWAP1 PUSH1 0x1 ADD SWAP1 PUSH1 0x20 ADD DUP1 DUP4 GT PUSH2 0x12B1 JUMPI DUP3 SWAP1 SUB PUSH1 0x1F AND DUP3 ADD SWAP2 JUMPDEST POP POP POP POP POP PUSH2 0xF17 JUMP JUMPDEST EQ ISZERO PUSH2 0x1310 JUMPI PUSH1 0x1 SWAP3 POP PUSH1 0x1 DUP2 PUSH1 0x40 MLOAD PUSH1 0x20 ADD PUSH2 0x12F7 SWAP2 DUP2 MSTORE PUSH1 0x20 ADD SWAP1 JUMP JUMPDEST PUSH1 0x40 MLOAD PUSH1 0x20 DUP2 DUP4 SUB SUB DUP2 MSTORE SWAP1 PUSH1 0x40 MSTORE SWAP3 POP SWAP3 POP POP PUSH2 0x139E JUMP JUMPDEST DUP1 PUSH2 0x131A DUP2 PUSH2 0x2DBF JUMP JUMPDEST SWAP2 POP POP PUSH2 0x1197 JUMP JUMPDEST POP PUSH1 0xB SLOAD PUSH2 0x1333 SWAP1 PUSH3 0x278D00 PUSH2 0x2D91 JUMP JUMPDEST TIMESTAMP LT PUSH2 0x1364 JUMPI PUSH1 0x40 DUP1 MLOAD PUSH2 0x3E8 PUSH1 0x20 DUP3 ADD MSTORE PUSH1 0x1 SWAP4 POP DUP4 SWAP2 ADD PUSH1 0x40 MLOAD PUSH1 0x20 DUP2 DUP4 SUB SUB DUP2 MSTORE SWAP1 PUSH1 0x40 MSTORE SWAP2 POP SWAP2 POP PUSH2 0x139E JUMP JUMPDEST DUP4 DUP4 DUP1 DUP1 PUSH1 0x1F ADD PUSH1 0x20 DUP1 SWAP2 DIV MUL PUSH1 0x20 ADD PUSH1 0x40 MLOAD SWAP1 DUP2 ADD PUSH1 0x40 MSTORE DUP1 SWAP4 SWAP3 SWAP2 SWAP1 DUP2 DUP2 MSTORE PUSH1 0x20 ADD DUP4 DUP4 DUP1 DUP3 DUP5 CALLDATACOPY PUSH1 0x0 SWAP3 ADD SWAP2 SWAP1 SWAP2 MSTORE POP SWAP3 SWAP4 POP POP POP POP JUMPDEST SWAP3 POP SWAP3 SWAP1 POP JUMP JUMPDEST PUSH1 0x0 SLOAD PUSH1 0x1 PUSH1 0x1 PUSH1 0xA0 SHL SUB AND CALLER EQ PUSH2 0x13CF JUMPI PUSH1 0x40 MLOAD PUSH3 0x461BCD PUSH1 0xE5 SHL DUP2 MSTORE PUSH1 0x4 ADD PUSH2 0x793 SWAP1 PUSH2 0x2CB4 JUMP JUMPDEST PUSH2 0x13D9 PUSH1 0x0 PUSH2 0x217B JUMP JUMPDEST JUMP JUMPDEST PUSH1 0x40 MLOAD PUSH3 0x461BCD PUSH1 0xE5 SHL DUP2 MSTORE PUSH1 0x20 PUSH1 0x4 DUP3 ADD MSTORE PUSH1 0x2F PUSH1 0x24 DUP3 ADD MSTORE PUSH32 0x556E737570706F727465642063616C6C6261636B202D204265666F7265204167 PUSH1 0x44 DUP3 ADD MSTORE PUSH15 0x1C99595B595B9D081D5C19185D1959 PUSH1 0x8A SHL PUSH1 0x64 DUP3 ADD MSTORE PUSH1 0x60 SWAP1 PUSH1 0x84 ADD PUSH2 0x793 JUMP JUMPDEST PUSH1 0x0 JUMPDEST PUSH1 0xA SLOAD PUSH1 0x1 PUSH1 0x1 PUSH1 0x80 SHL SUB AND PUSH1 0x0 SWAP1 DUP2 MSTORE PUSH1 0x1B PUSH1 0x20 MSTORE PUSH1 0x40 SWAP1 KECCAK256 SLOAD DUP2 LT ISZERO PUSH2 0x14C3 JUMPI PUSH1 0xA SLOAD PUSH1 0x1 PUSH1 0x1 PUSH1 0x80 SHL SUB AND PUSH1 0x0 SWAP1 DUP2 MSTORE PUSH1 0x1B PUSH1 0x20 MSTORE PUSH1 0x40 SWAP1 KECCAK256 DUP1 SLOAD CALLER SWAP2 SWAP1 DUP4 SWAP1 DUP2 LT PUSH2 0x1492 JUMPI PUSH2 0x1492 PUSH2 0x2DA9 JUMP JUMPDEST PUSH1 0x0 SWAP2 DUP3 MSTORE PUSH1 0x20 SWAP1 SWAP2 KECCAK256 ADD SLOAD PUSH1 0x1 PUSH1 0x1 PUSH1 0xA0 SHL SUB AND EQ PUSH2 0x14B1 JUMPI PUSH1 0x0 DUP1 REVERT JUMPDEST DUP1 PUSH2 0x14BB DUP2 PUSH2 0x2DBF JUMP JUMPDEST SWAP2 POP POP PUSH2 0x1441 JUMP JUMPDEST POP PUSH1 0xA SLOAD PUSH1 0x1 PUSH1 0x1 PUSH1 0x80 SHL SUB SWAP1 DUP2 AND PUSH1 0x0 SWAP1 DUP2 MSTORE PUSH1 0x19 PUSH1 0x20 SWAP1 DUP2 MSTORE PUSH1 0x40 DUP1 DUP4 KECCAK256 PUSH1 0x1 PUSH1 0x1 PUSH1 0xC0 SHL SUB NOT DUP7 AND DUP5 MSTORE SWAP1 SWAP2 MSTORE DUP2 KECCAK256 DUP1 SLOAD PUSH1 0x1 SWAP4 SWAP2 SWAP3 SWAP2 PUSH2 0x1509 SWAP2 DUP6 SWAP2 AND PUSH2 0x2EE0 JUMP JUMPDEST SWAP3 POP PUSH2 0x100 EXP DUP2 SLOAD DUP2 PUSH1 0x1 PUSH1 0x1 PUSH1 0x80 SHL SUB MUL NOT AND SWAP1 DUP4 PUSH1 0x1 PUSH1 0x1 PUSH1 0x80 SHL SUB AND MUL OR SWAP1 SSTORE POP POP JUMP JUMPDEST PUSH1 0x0 JUMPDEST PUSH1 0x7 SLOAD DUP2 LT ISZERO PUSH2 0x158B JUMPI CALLER PUSH1 0x1 PUSH1 0x1 PUSH1 0xA0 SHL SUB AND PUSH1 0x7 DUP3 DUP2 SLOAD DUP2 LT PUSH2 0x155A JUMPI PUSH2 0x155A PUSH2 0x2DA9 JUMP JUMPDEST PUSH1 0x0 SWAP2 DUP3 MSTORE PUSH1 0x20 SWAP1 SWAP2 KECCAK256 ADD SLOAD PUSH1 0x1 PUSH1 0x1 PUSH1 0xA0 SHL SUB AND EQ PUSH2 0x1579 JUMPI PUSH1 0x0 DUP1 REVERT JUMPDEST DUP1 PUSH2 0x1583 DUP2 PUSH2 0x2DBF JUMP JUMPDEST SWAP2 POP POP PUSH2 0x1533 JUMP JUMPDEST POP PUSH1 0xA SLOAD PUSH1 0x1 PUSH1 0x1 PUSH1 0x80 SHL SUB AND PUSH1 0x0 SWAP1 DUP2 MSTORE PUSH1 0x1B PUSH1 0x20 SWAP1 DUP2 MSTORE PUSH1 0x40 DUP3 KECCAK256 DUP1 SLOAD PUSH1 0x1 DUP2 ADD DUP3 SSTORE SWAP1 DUP4 MSTORE SWAP2 KECCAK256 ADD DUP1 SLOAD PUSH1 0x1 PUSH1 0x1 PUSH1 0xA0 SHL SUB NOT AND PUSH1 0x1 PUSH1 0x1 PUSH1 0xA0 SHL SUB SWAP3 SWAP1 SWAP3 AND SWAP2 SWAP1 SWAP2 OR SWAP1 SSTORE JUMP JUMPDEST PUSH1 0x0 SLOAD PUSH1 0x1 PUSH1 0x1 PUSH1 0xA0 SHL SUB AND CALLER EQ PUSH2 0x1600 JUMPI PUSH1 0x40 MLOAD PUSH3 0x461BCD PUSH1 0xE5 SHL DUP2 MSTORE PUSH1 0x4 ADD PUSH2 0x793 SWAP1 PUSH2 0x2CB4 JUMP JUMPDEST PUSH1 0x40 MLOAD DUP1 PUSH1 0xC0 ADD PUSH1 0x40 MSTORE DUP1 DUP4 DUP2 MSTORE PUSH1 0x20 ADD PUSH1 0x0 DUP2 MSTORE PUSH1 0x20 ADD PUSH2 0x1621 DUP4 PUSH2 0xF17 JUMP JUMPDEST DUP2 MSTORE PUSH1 0x20 ADD PUSH1 0x0 DUP2 MSTORE PUSH1 0x20 ADD PUSH2 0x1635 PUSH2 0x1024 JUMP JUMPDEST DUP2 MSTORE PUSH1 0x20 ADD PUSH1 0x0 DUP2 MSTORE POP PUSH1 0x14 PUSH1 0x0 PUSH1 0x9 DUP5 PUSH1 0x40 MLOAD PUSH2 0x1653 SWAP2 SWAP1 PUSH2 0x2D5F JUMP JUMPDEST SWAP1 DUP2 MSTORE PUSH1 0x20 ADD PUSH1 0x40 MLOAD DUP1 SWAP2 SUB SWAP1 KECCAK256 SLOAD DUP2 MSTORE PUSH1 0x20 ADD SWAP1 DUP2 MSTORE PUSH1 0x20 ADD PUSH1 0x0 KECCAK256 DUP3 PUSH1 0x40 MLOAD PUSH2 0x167E SWAP2 SWAP1 PUSH2 0x2D5F JUMP JUMPDEST SWAP1 DUP2 MSTORE PUSH1 0x40 DUP1 MLOAD PUSH1 0x20 SWAP3 DUP2 SWAP1 SUB DUP4 ADD SWAP1 KECCAK256 DUP4 MLOAD DUP2 SSTORE SWAP2 DUP4 ADD MLOAD PUSH1 0x1 DUP4 ADD SSTORE DUP3 ADD MLOAD PUSH1 0x2 DUP3 ADD SSTORE PUSH1 0x60 DUP3 ADD MLOAD PUSH1 0x3 DUP3 ADD SSTORE PUSH1 0x80 DUP3 ADD MLOAD PUSH1 0x4 DUP3 ADD SSTORE PUSH1 0xA0 SWAP1 SWAP2 ADD MLOAD PUSH1 0x5 SWAP1 SWAP2 ADD SSTORE POP POP JUMP JUMPDEST PUSH1 0x0 DUP4 DUP2 MSTORE PUSH1 0x14 PUSH1 0x20 MSTORE PUSH1 0x40 DUP1 DUP3 KECCAK256 SWAP1 MLOAD PUSH2 0x16E4 SWAP1 DUP6 SWAP1 PUSH2 0x2D5F JUMP JUMPDEST SWAP1 DUP2 MSTORE PUSH1 0x20 ADD PUSH1 0x40 MLOAD DUP1 SWAP2 SUB SWAP1 KECCAK256 PUSH1 0x5 ADD SLOAD PUSH1 0x0 EQ ISZERO PUSH2 0x1706 JUMPI POP PUSH1 0x0 PUSH2 0x1849 JUMP JUMPDEST PUSH1 0x0 DUP5 DUP2 MSTORE PUSH1 0x14 PUSH1 0x20 MSTORE PUSH1 0x40 SWAP1 DUP2 SWAP1 KECCAK256 SWAP1 MLOAD PUSH2 0x1723 SWAP1 DUP6 SWAP1 PUSH2 0x2D5F JUMP JUMPDEST SWAP1 DUP2 MSTORE PUSH1 0x20 ADD PUSH1 0x40 MLOAD DUP1 SWAP2 SUB SWAP1 KECCAK256 PUSH1 0x5 ADD SLOAD PUSH1 0x0 EQ ISZERO PUSH2 0x1742 JUMPI PUSH1 0x0 DUP1 REVERT JUMPDEST PUSH1 0x0 DUP5 DUP2 MSTORE PUSH1 0x14 PUSH1 0x20 MSTORE PUSH1 0x40 SWAP1 DUP2 SWAP1 KECCAK256 SWAP1 MLOAD PUSH2 0x175F SWAP1 DUP6 SWAP1 PUSH2 0x2D5F JUMP JUMPDEST SWAP1 DUP2 MSTORE PUSH1 0x20 ADD PUSH1 0x40 MLOAD DUP1 SWAP2 SUB SWAP1 KECCAK256 PUSH1 0x5 ADD SLOAD PUSH1 0x20 PUSH1 0x0 DUP7 DUP2 MSTORE PUSH1 0x20 ADD SWAP1 DUP2 MSTORE PUSH1 0x20 ADD PUSH1 0x0 KECCAK256 DUP5 PUSH1 0x40 MLOAD PUSH2 0x1792 SWAP2 SWAP1 PUSH2 0x2D5F JUMP JUMPDEST SWAP1 DUP2 MSTORE PUSH1 0x40 DUP1 MLOAD PUSH1 0x20 SWAP3 DUP2 SWAP1 SUB DUP4 ADD SWAP1 KECCAK256 PUSH1 0x1 PUSH1 0x1 PUSH1 0xA0 SHL SUB DUP7 AND PUSH1 0x0 SWAP1 DUP2 MSTORE SWAP3 MSTORE SWAP1 KECCAK256 SLOAD GT ISZERO PUSH2 0x17C2 JUMPI PUSH1 0x0 DUP1 REVERT JUMPDEST PUSH1 0x0 DUP5 DUP2 MSTORE PUSH1 0x14 PUSH1 0x20 MSTORE PUSH1 0x40 SWAP1 DUP2 SWAP1 KECCAK256 SWAP1 MLOAD PUSH2 0x17DF SWAP1 DUP6 SWAP1 PUSH2 0x2D5F JUMP JUMPDEST SWAP1 DUP2 MSTORE PUSH1 0x20 ADD PUSH1 0x40 MLOAD DUP1 SWAP2 SUB SWAP1 KECCAK256 PUSH1 0x5 ADD SLOAD PUSH1 0x20 PUSH1 0x0 DUP7 DUP2 MSTORE PUSH1 0x20 ADD SWAP1 DUP2 MSTORE PUSH1 0x20 ADD PUSH1 0x0 KECCAK256 DUP5 PUSH1 0x40 MLOAD PUSH2 0x1812 SWAP2 SWAP1 PUSH2 0x2D5F JUMP JUMPDEST SWAP1 DUP2 MSTORE PUSH1 0x40 DUP1 MLOAD PUSH1 0x20 SWAP3 DUP2 SWAP1 SUB DUP4 ADD SWAP1 KECCAK256 PUSH1 0x1 PUSH1 0x1 PUSH1 0xA0 SHL SUB DUP7 AND PUSH1 0x0 SWAP1 DUP2 MSTORE SWAP3 MSTORE SWAP1 KECCAK256 PUSH1 0x1 ADD SLOAD LT ISZERO PUSH2 0x1845 JUMPI PUSH1 0x0 DUP1 REVERT JUMPDEST POP PUSH1 0x1 JUMPDEST SWAP4 SWAP3 POP POP POP JUMP JUMPDEST PUSH1 0x0 SLOAD PUSH1 0x1 PUSH1 0x1 PUSH1 0xA0 SHL SUB AND CALLER EQ PUSH2 0x187A JUMPI PUSH1 0x40 MLOAD PUSH3 0x461BCD PUSH1 0xE5 SHL DUP2 MSTORE PUSH1 0x4 ADD PUSH2 0x793 SWAP1 PUSH2 0x2CB4 JUMP JUMPDEST PUSH1 0xF DUP1 SLOAD PUSH1 0x1 PUSH1 0x1 PUSH1 0xA0 SHL SUB NOT AND PUSH1 0x1 PUSH1 0x1 PUSH1 0xA0 SHL SUB SWAP3 SWAP1 SWAP3 AND SWAP2 SWAP1 SWAP2 OR SWAP1 SSTORE JUMP JUMPDEST PUSH1 0x40 MLOAD PUSH3 0x461BCD PUSH1 0xE5 SHL DUP2 MSTORE PUSH1 0x20 PUSH1 0x4 DUP3 ADD MSTORE PUSH1 0x2E PUSH1 0x24 DUP3 ADD MSTORE PUSH32 0x556E737570706F727465642063616C6C6261636B202D20416674657220416772 PUSH1 0x44 DUP3 ADD MSTORE PUSH14 0x19595B595B9D0810DC99585D1959 PUSH1 0x92 SHL PUSH1 0x64 DUP3 ADD MSTORE PUSH1 0x60 SWAP1 PUSH1 0x84 ADD PUSH2 0x793 JUMP JUMPDEST PUSH1 0x0 SLOAD PUSH1 0x1 PUSH1 0x1 PUSH1 0xA0 SHL SUB AND CALLER EQ PUSH2 0x1928 JUMPI PUSH1 0x40 MLOAD PUSH3 0x461BCD PUSH1 0xE5 SHL DUP2 MSTORE PUSH1 0x4 ADD PUSH2 0x793 SWAP1 PUSH2 0x2CB4 JUMP JUMPDEST PUSH1 0x1 PUSH1 0x1 PUSH1 0xA0 SHL SUB DUP2 AND PUSH2 0x198D JUMPI PUSH1 0x40 MLOAD PUSH3 0x461BCD PUSH1 0xE5 SHL DUP2 MSTORE PUSH1 0x20 PUSH1 0x4 DUP3 ADD MSTORE PUSH1 0x26 PUSH1 0x24 DUP3 ADD MSTORE PUSH32 0x4F776E61626C653A206E6577206F776E657220697320746865207A65726F2061 PUSH1 0x44 DUP3 ADD MSTORE PUSH6 0x646472657373 PUSH1 0xD0 SHL PUSH1 0x64 DUP3 ADD MSTORE PUSH1 0x84 ADD PUSH2 0x793 JUMP JUMPDEST PUSH2 0x1996 DUP2 PUSH2 0x217B JUMP JUMPDEST POP JUMP JUMPDEST PUSH1 0x1C PUSH1 0x20 SWAP1 DUP2 MSTORE PUSH1 0x0 DUP5 DUP2 MSTORE PUSH1 0x40 SWAP1 KECCAK256 DUP4 MLOAD DUP1 DUP6 ADD DUP4 ADD DUP1 MLOAD SWAP3 DUP2 MSTORE SWAP1 DUP4 ADD SWAP3 DUP6 ADD SWAP3 SWAP1 SWAP3 KECCAK256 SWAP2 MSTORE DUP1 SLOAD DUP3 SWAP1 DUP2 LT PUSH2 0x19D0 JUMPI PUSH1 0x0 DUP1 REVERT JUMPDEST PUSH1 0x0 SWAP2 DUP3 MSTORE PUSH1 0x20 SWAP1 SWAP2 KECCAK256 ADD SLOAD PUSH1 0x1 PUSH1 0x1 PUSH1 0xA0 SHL SUB AND SWAP3 POP DUP4 SWAP2 POP POP JUMP JUMPDEST PUSH1 0x1B PUSH1 0x20 MSTORE DUP2 PUSH1 0x0 MSTORE PUSH1 0x40 PUSH1 0x0 KECCAK256 DUP2 DUP2 SLOAD DUP2 LT PUSH2 0x1A09 JUMPI PUSH1 0x0 DUP1 REVERT JUMPDEST PUSH1 0x0 SWAP2 DUP3 MSTORE PUSH1 0x20 SWAP1 SWAP2 KECCAK256 ADD SLOAD PUSH1 0x1 PUSH1 0x1 PUSH1 0xA0 SHL SUB AND SWAP2 POP DUP3 SWAP1 POP JUMP JUMPDEST PUSH1 0x11 SLOAD PUSH1 0xE SLOAD PUSH1 0x40 MLOAD PUSH4 0x95EA7B3 PUSH1 0xE0 SHL DUP2 MSTORE PUSH1 0x1 PUSH1 0x1 PUSH1 0xA0 SHL SUB SWAP2 DUP3 AND PUSH1 0x4 DUP3 ADD MSTORE PUSH1 0x24 DUP2 ADD DUP5 SWAP1 MSTORE SWAP2 AND SWAP1 PUSH4 0x95EA7B3 SWAP1 PUSH1 0x44 ADD PUSH1 0x20 PUSH1 0x40 MLOAD DUP1 DUP4 SUB DUP2 PUSH1 0x0 DUP8 GAS CALL ISZERO DUP1 ISZERO PUSH2 0x1A7A JUMPI RETURNDATASIZE PUSH1 0x0 DUP1 RETURNDATACOPY RETURNDATASIZE PUSH1 0x0 REVERT JUMPDEST POP POP POP POP PUSH1 0x40 MLOAD RETURNDATASIZE PUSH1 0x1F NOT PUSH1 0x1F DUP3 ADD AND DUP3 ADD DUP1 PUSH1 0x40 MSTORE POP DUP2 ADD SWAP1 PUSH2 0x1A9E SWAP2 SWAP1 PUSH2 0x2D3D JUMP JUMPDEST POP PUSH1 0xE SLOAD PUSH1 0x11 SLOAD PUSH1 0x40 MLOAD PUSH4 0xE8EDA9DF PUSH1 0xE0 SHL DUP2 MSTORE PUSH1 0x1 PUSH1 0x1 PUSH1 0xA0 SHL SUB SWAP2 DUP3 AND PUSH1 0x4 DUP3 ADD MSTORE PUSH1 0x24 DUP2 ADD DUP5 SWAP1 MSTORE ADDRESS PUSH1 0x44 DUP3 ADD MSTORE PUSH1 0x0 PUSH1 0x64 DUP3 ADD MSTORE SWAP2 AND SWAP1 PUSH4 0xE8EDA9DF SWAP1 PUSH1 0x84 ADD JUMPDEST PUSH1 0x0 PUSH1 0x40 MLOAD DUP1 DUP4 SUB DUP2 PUSH1 0x0 DUP8 DUP1 EXTCODESIZE ISZERO DUP1 ISZERO PUSH2 0x1AFD JUMPI PUSH1 0x0 DUP1 REVERT JUMPDEST POP GAS CALL ISZERO DUP1 ISZERO PUSH2 0x1B11 JUMPI RETURNDATASIZE PUSH1 0x0 DUP1 RETURNDATACOPY RETURNDATASIZE PUSH1 0x0 REVERT JUMPDEST POP POP POP POP POP JUMP JUMPDEST DUP2 PUSH1 0x20 PUSH1 0x0 PUSH1 0x9 DUP5 PUSH1 0x40 MLOAD PUSH2 0x1B2D SWAP2 SWAP1 PUSH2 0x2D5F JUMP JUMPDEST SWAP1 DUP2 MSTORE PUSH1 0x20 ADD PUSH1 0x40 MLOAD DUP1 SWAP2 SUB SWAP1 KECCAK256 SLOAD DUP2 MSTORE PUSH1 0x20 ADD SWAP1 DUP2 MSTORE PUSH1 0x20 ADD PUSH1 0x0 KECCAK256 DUP3 PUSH1 0x40 MLOAD PUSH2 0x1B58 SWAP2 SWAP1 PUSH2 0x2D5F JUMP JUMPDEST SWAP1 DUP2 MSTORE PUSH1 0x40 DUP1 MLOAD PUSH1 0x20 SWAP3 DUP2 SWAP1 SUB DUP4 ADD SWAP1 KECCAK256 CALLER PUSH1 0x0 SWAP1 DUP2 MSTORE SWAP3 MSTORE SWAP1 KECCAK256 SSTORE PUSH2 0x1B80 DUP3 PUSH2 0x708 PUSH2 0x2D91 JUMP JUMPDEST PUSH1 0x20 PUSH1 0x0 PUSH1 0x9 DUP5 PUSH1 0x40 MLOAD PUSH2 0x1B94 SWAP2 SWAP1 PUSH2 0x2D5F JUMP JUMPDEST SWAP1 DUP2 MSTORE PUSH1 0x20 ADD PUSH1 0x40 MLOAD DUP1 SWAP2 SUB SWAP1 KECCAK256 SLOAD DUP2 MSTORE PUSH1 0x20 ADD SWAP1 DUP2 MSTORE PUSH1 0x20 ADD PUSH1 0x0 KECCAK256 DUP3 PUSH1 0x40 MLOAD PUSH2 0x1BBF SWAP2 SWAP1 PUSH2 0x2D5F JUMP JUMPDEST SWAP1 DUP2 MSTORE PUSH1 0x40 DUP1 MLOAD PUSH1 0x20 SWAP3 DUP2 SWAP1 SUB DUP4 ADD DUP2 KECCAK256 CALLER PUSH1 0x0 SWAP1 DUP2 MSTORE SWAP4 MSTORE SWAP1 DUP3 KECCAK256 PUSH1 0x1 ADD SWAP3 SWAP1 SWAP3 SSTORE PUSH1 0x1C SWAP2 PUSH1 0x9 SWAP1 PUSH2 0x1BF3 SWAP1 DUP6 SWAP1 PUSH2 0x2D5F JUMP JUMPDEST SWAP1 DUP2 MSTORE PUSH1 0x20 ADD PUSH1 0x40 MLOAD DUP1 SWAP2 SUB SWAP1 KECCAK256 SLOAD DUP2 MSTORE PUSH1 0x20 ADD SWAP1 DUP2 MSTORE PUSH1 0x20 ADD PUSH1 0x0 KECCAK256 DUP2 PUSH1 0x40 MLOAD PUSH2 0x1C1E SWAP2 SWAP1 PUSH2 0x2D5F JUMP JUMPDEST SWAP1 DUP2 MSTORE PUSH1 0x40 MLOAD SWAP1 DUP2 SWAP1 SUB PUSH1 0x20 SWAP1 DUP2 ADD DUP3 KECCAK256 DUP1 SLOAD PUSH1 0x1 DUP2 ADD DUP3 SSTORE PUSH1 0x0 SWAP2 DUP3 MSTORE SWAP2 DUP2 KECCAK256 SWAP1 SWAP2 ADD DUP1 SLOAD PUSH1 0x1 PUSH1 0x1 PUSH1 0xA0 SHL SUB NOT AND CALLER OR SWAP1 SSTORE PUSH1 0x1D SWAP2 PUSH1 0x9 SWAP1 PUSH2 0x1C63 SWAP1 DUP6 SWAP1 PUSH2 0x2D5F JUMP JUMPDEST SWAP1 DUP2 MSTORE PUSH1 0x20 ADD PUSH1 0x40 MLOAD DUP1 SWAP2 SUB SWAP1 KECCAK256 SLOAD DUP2 MSTORE PUSH1 0x20 ADD SWAP1 DUP2 MSTORE PUSH1 0x20 ADD PUSH1 0x0 KECCAK256 DUP2 PUSH1 0x40 MLOAD PUSH2 0x1C8E SWAP2 SWAP1 PUSH2 0x2D5F JUMP JUMPDEST SWAP1 DUP2 MSTORE PUSH1 0x40 MLOAD SWAP1 DUP2 SWAP1 SUB PUSH1 0x20 SWAP1 DUP2 ADD DUP3 KECCAK256 DUP1 SLOAD PUSH1 0x1 DUP2 ADD DUP3 SSTORE PUSH1 0x0 SWAP2 DUP3 MSTORE SWAP2 DUP2 KECCAK256 SWAP1 SWAP2 ADD DUP5 SWAP1 SSTORE PUSH1 0x1E SWAP2 PUSH1 0x9 SWAP1 PUSH2 0x1CC6 SWAP1 DUP6 SWAP1 PUSH2 0x2D5F JUMP JUMPDEST SWAP1 DUP2 MSTORE PUSH1 0x20 ADD PUSH1 0x40 MLOAD DUP1 SWAP2 SUB SWAP1 KECCAK256 SLOAD DUP2 MSTORE PUSH1 0x20 ADD SWAP1 DUP2 MSTORE PUSH1 0x20 ADD PUSH1 0x0 KECCAK256 DUP2 PUSH1 0x40 MLOAD PUSH2 0x1CF1 SWAP2 SWAP1 PUSH2 0x2D5F JUMP JUMPDEST SWAP1 DUP2 MSTORE PUSH1 0x40 MLOAD SWAP1 DUP2 SWAP1 SUB PUSH1 0x20 ADD SWAP1 KECCAK256 PUSH2 0x1D0C DUP4 PUSH2 0x708 PUSH2 0x2D91 JUMP JUMPDEST DUP2 SLOAD PUSH1 0x1 DUP2 ADD DUP4 SSTORE PUSH1 0x0 SWAP3 DUP4 MSTORE PUSH1 0x20 SWAP1 SWAP3 KECCAK256 SWAP1 SWAP2 ADD SSTORE POP POP JUMP JUMPDEST PUSH2 0x1D2E PUSH2 0x1024 JUMP JUMPDEST PUSH1 0x14 PUSH1 0x0 PUSH1 0x9 DUP5 PUSH1 0x40 MLOAD PUSH2 0x1D42 SWAP2 SWAP1 PUSH2 0x2D5F JUMP JUMPDEST SWAP1 DUP2 MSTORE PUSH1 0x20 ADD PUSH1 0x40 MLOAD DUP1 SWAP2 SUB SWAP1 KECCAK256 SLOAD DUP2 MSTORE PUSH1 0x20 ADD SWAP1 DUP2 MSTORE PUSH1 0x20 ADD PUSH1 0x0 KECCAK256 DUP3 PUSH1 0x40 MLOAD PUSH2 0x1D6D SWAP2 SWAP1 PUSH2 0x2D5F JUMP JUMPDEST SWAP1 DUP2 MSTORE PUSH1 0x40 MLOAD SWAP1 DUP2 SWAP1 SUB PUSH1 0x20 ADD SWAP1 KECCAK256 PUSH1 0x5 ADD SSTORE PUSH2 0x1D89 DUP2 PUSH2 0x21CB JUMP JUMPDEST PUSH2 0x1996 DUP2 PUSH2 0x235C JUMP JUMPDEST PUSH1 0x40 MLOAD PUSH4 0x70A08231 PUSH1 0xE0 SHL DUP2 MSTORE ADDRESS PUSH1 0x4 DUP3 ADD MSTORE PUSH1 0x0 SWAP1 DUP2 SWAP1 PUSH1 0x1 PUSH1 0x1 PUSH1 0xA0 SHL SUB DUP5 AND SWAP1 PUSH4 0x70A08231 SWAP1 PUSH1 0x24 ADD PUSH1 0x20 PUSH1 0x40 MLOAD DUP1 DUP4 SUB DUP2 DUP7 GAS STATICCALL ISZERO DUP1 ISZERO PUSH2 0x1DDB JUMPI RETURNDATASIZE PUSH1 0x0 DUP1 RETURNDATACOPY RETURNDATASIZE PUSH1 0x0 REVERT JUMPDEST POP POP POP POP PUSH1 0x40 MLOAD RETURNDATASIZE PUSH1 0x1F NOT PUSH1 0x1F DUP3 ADD AND DUP3 ADD DUP1 PUSH1 0x40 MSTORE POP DUP2 ADD SWAP1 PUSH2 0x1DFF SWAP2 SWAP1 PUSH2 0x2D24 JUMP JUMPDEST SWAP1 POP PUSH1 0x0 PUSH1 0xC SLOAD PUSH1 0x15 SLOAD PUSH2 0x1E13 SWAP2 SWAP1 PUSH2 0x2F0B JUMP JUMPDEST PUSH2 0x1E1D SWAP1 DUP4 PUSH2 0x2F0B JUMP JUMPDEST PUSH1 0xE SLOAD PUSH1 0x11 SLOAD PUSH1 0x40 MLOAD PUSH4 0x1A4CA37B PUSH1 0xE2 SHL DUP2 MSTORE PUSH1 0x1 PUSH1 0x1 PUSH1 0xA0 SHL SUB SWAP2 DUP3 AND PUSH1 0x4 DUP3 ADD MSTORE PUSH1 0x24 DUP2 ADD DUP5 SWAP1 MSTORE ADDRESS PUSH1 0x44 DUP3 ADD MSTORE SWAP3 SWAP4 POP AND SWAP1 PUSH4 0x69328DEC SWAP1 PUSH1 0x64 ADD PUSH1 0x20 PUSH1 0x40 MLOAD DUP1 DUP4 SUB DUP2 PUSH1 0x0 DUP8 GAS CALL ISZERO DUP1 ISZERO PUSH2 0x1E7A JUMPI RETURNDATASIZE PUSH1 0x0 DUP1 RETURNDATACOPY RETURNDATASIZE PUSH1 0x0 REVERT JUMPDEST POP POP POP POP PUSH1 0x40 MLOAD RETURNDATASIZE PUSH1 0x1F NOT PUSH1 0x1F DUP3 ADD AND DUP3 ADD DUP1 PUSH1 0x40 MSTORE POP DUP2 ADD SWAP1 PUSH2 0x1E9E SWAP2 SWAP1 PUSH2 0x2D24 JUMP JUMPDEST POP PUSH1 0x11 SLOAD PUSH1 0x3 SLOAD PUSH1 0x40 MLOAD PUSH4 0x95EA7B3 PUSH1 0xE0 SHL DUP2 MSTORE PUSH1 0x1 PUSH1 0x1 PUSH1 0xA0 SHL SUB SWAP2 DUP3 AND PUSH1 0x4 DUP3 ADD MSTORE PUSH1 0x24 DUP2 ADD DUP5 SWAP1 MSTORE SWAP2 AND SWAP1 PUSH4 0x95EA7B3 SWAP1 PUSH1 0x44 ADD PUSH1 0x20 PUSH1 0x40 MLOAD DUP1 DUP4 SUB DUP2 PUSH1 0x0 DUP8 GAS CALL ISZERO DUP1 ISZERO PUSH2 0x1EF4 JUMPI RETURNDATASIZE PUSH1 0x0 DUP1 RETURNDATACOPY RETURNDATASIZE PUSH1 0x0 REVERT JUMPDEST POP POP POP POP PUSH1 0x40 MLOAD RETURNDATASIZE PUSH1 0x1F NOT PUSH1 0x1F DUP3 ADD AND DUP3 ADD DUP1 PUSH1 0x40 MSTORE POP DUP2 ADD SWAP1 PUSH2 0x1F18 SWAP2 SWAP1 PUSH2 0x2D3D JUMP JUMPDEST POP PUSH1 0x3 SLOAD PUSH1 0x40 MLOAD PUSH4 0x45977D03 PUSH1 0xE0 SHL DUP2 MSTORE PUSH1 0x4 DUP2 ADD DUP4 SWAP1 MSTORE PUSH1 0x1 PUSH1 0x1 PUSH1 0xA0 SHL SUB SWAP1 SWAP2 AND SWAP1 PUSH4 0x45977D03 SWAP1 PUSH1 0x24 ADD PUSH1 0x0 PUSH1 0x40 MLOAD DUP1 DUP4 SUB DUP2 PUSH1 0x0 DUP8 DUP1 EXTCODESIZE ISZERO DUP1 ISZERO PUSH2 0x1F5F JUMPI PUSH1 0x0 DUP1 REVERT JUMPDEST POP GAS CALL ISZERO DUP1 ISZERO PUSH2 0x1F73 JUMPI RETURNDATASIZE PUSH1 0x0 DUP1 RETURNDATACOPY RETURNDATASIZE PUSH1 0x0 REVERT JUMPDEST POP POP PUSH1 0xA SLOAD PUSH1 0x1 PUSH1 0x1 PUSH1 0x80 SHL SUB AND PUSH1 0x0 SWAP1 DUP2 MSTORE PUSH1 0x13 PUSH1 0x20 MSTORE PUSH1 0x40 SWAP1 KECCAK256 DUP4 SWAP1 SSTORE POP SWAP1 SWAP5 SWAP4 POP POP POP POP JUMP JUMPDEST PUSH1 0xA SLOAD PUSH1 0x1 PUSH1 0x1 PUSH1 0x80 SHL SUB AND PUSH1 0x0 SWAP1 DUP2 MSTORE PUSH1 0x13 PUSH1 0x20 MSTORE PUSH1 0x40 SWAP1 KECCAK256 SLOAD PUSH1 0x1 SLOAD PUSH1 0x2 SLOAD PUSH1 0x3 SLOAD PUSH1 0xF SLOAD PUSH1 0x1 PUSH1 0x1 PUSH1 0xA0 SHL SUB SWAP4 DUP5 AND SWAP4 PUSH4 0x39255D5B SWAP4 DUP2 AND SWAP3 PUSH4 0x317E182F PUSH1 0xE1 SHL SWAP3 SWAP1 DUP3 AND SWAP2 AND PUSH2 0x1FF3 PUSH3 0x278D00 DUP9 PUSH2 0x2F22 JUMP JUMPDEST PUSH1 0x40 DUP1 MLOAD PUSH1 0x0 DUP2 MSTORE PUSH1 0x20 DUP2 ADD SWAP1 SWAP2 MSTORE PUSH2 0x2012 SWAP4 SWAP3 SWAP2 SWAP1 PUSH1 0x44 DUP2 ADD PUSH2 0x2F73 JUMP JUMPDEST PUSH1 0x40 DUP1 MLOAD PUSH1 0x1F NOT DUP2 DUP5 SUB ADD DUP2 MSTORE SWAP2 DUP2 MSTORE PUSH1 0x20 DUP3 ADD DUP1 MLOAD PUSH1 0x1 PUSH1 0x1 PUSH1 0xE0 SHL SUB AND PUSH1 0x1 PUSH1 0x1 PUSH1 0xE0 SHL SUB NOT SWAP5 DUP6 AND OR SWAP1 MSTORE MLOAD PUSH1 0xE0 DUP6 SWAP1 SHL SWAP1 SWAP3 AND DUP3 MSTORE PUSH2 0x2058 SWAP3 SWAP2 PUSH1 0x4 ADD PUSH2 0x2FB3 JUMP JUMPDEST PUSH1 0x0 PUSH1 0x40 MLOAD DUP1 DUP4 SUB DUP2 PUSH1 0x0 DUP8 GAS CALL ISZERO DUP1 ISZERO PUSH2 0x2077 JUMPI RETURNDATASIZE PUSH1 0x0 DUP1 RETURNDATACOPY RETURNDATASIZE PUSH1 0x0 REVERT JUMPDEST POP POP POP POP PUSH1 0x40 MLOAD RETURNDATASIZE PUSH1 0x0 DUP3 RETURNDATACOPY PUSH1 0x1F RETURNDATASIZE SWAP1 DUP2 ADD PUSH1 0x1F NOT AND DUP3 ADD PUSH1 0x40 MSTORE PUSH2 0x209F SWAP2 SWAP1 DUP2 ADD SWAP1 PUSH2 0x2FFA JUMP JUMPDEST POP PUSH1 0xA DUP1 SLOAD PUSH1 0x1 SWAP2 SWAP1 PUSH1 0x0 SWAP1 PUSH2 0x1509 SWAP1 DUP5 SWAP1 PUSH1 0x1 PUSH1 0x1 PUSH1 0x80 SHL SUB AND PUSH2 0x2EE0 JUMP JUMPDEST PUSH1 0xA SLOAD PUSH1 0x1 PUSH1 0x1 PUSH1 0x80 SHL SUB AND PUSH2 0x20D4 JUMPI PUSH1 0x0 DUP1 REVERT JUMPDEST PUSH1 0x3 SLOAD PUSH1 0x10 SLOAD PUSH1 0x40 MLOAD PUSH4 0x70A08231 PUSH1 0xE0 SHL DUP2 MSTORE PUSH1 0x1 PUSH1 0x1 PUSH1 0xA0 SHL SUB SWAP2 DUP3 AND PUSH1 0x4 DUP3 ADD MSTORE PUSH1 0x0 SWAP3 SWAP2 SWAP1 SWAP2 AND SWAP1 PUSH4 0x70A08231 SWAP1 PUSH1 0x24 ADD PUSH1 0x20 PUSH1 0x40 MLOAD DUP1 DUP4 SUB DUP2 DUP7 GAS STATICCALL ISZERO DUP1 ISZERO PUSH2 0x2125 JUMPI RETURNDATASIZE PUSH1 0x0 DUP1 RETURNDATACOPY RETURNDATASIZE PUSH1 0x0 REVERT JUMPDEST POP POP POP POP PUSH1 0x40 MLOAD RETURNDATASIZE PUSH1 0x1F NOT PUSH1 0x1F DUP3 ADD AND DUP3 ADD DUP1 PUSH1 0x40 MSTORE POP DUP2 ADD SWAP1 PUSH2 0x2149 SWAP2 SWAP1 PUSH2 0x2D24 JUMP JUMPDEST PUSH1 0x10 SLOAD PUSH1 0x40 MLOAD PUSH4 0x91C05B0B PUSH1 0xE0 SHL DUP2 MSTORE PUSH1 0x4 DUP2 ADD DUP4 SWAP1 MSTORE SWAP2 SWAP3 POP PUSH1 0x1 PUSH1 0x1 PUSH1 0xA0 SHL SUB AND SWAP1 PUSH4 0x91C05B0B SWAP1 PUSH1 0x24 ADD PUSH2 0x1AE3 JUMP JUMPDEST PUSH1 0x0 DUP1 SLOAD PUSH1 0x1 PUSH1 0x1 PUSH1 0xA0 SHL SUB DUP4 DUP2 AND PUSH1 0x1 PUSH1 0x1 PUSH1 0xA0 SHL SUB NOT DUP4 AND DUP2 OR DUP5 SSTORE PUSH1 0x40 MLOAD SWAP2 SWAP1 SWAP3 AND SWAP3 DUP4 SWAP2 PUSH32 0x8BE0079C531659141344CD1FD0A4F28419497F9722A3DAAFE3B4186F6B6457E0 SWAP2 SWAP1 LOG3 POP POP JUMP JUMPDEST PUSH1 0x1D PUSH1 0x0 PUSH1 0x9 DUP4 PUSH1 0x40 MLOAD PUSH2 0x21DF SWAP2 SWAP1 PUSH2 0x2D5F JUMP JUMPDEST SWAP1 DUP2 MSTORE PUSH1 0x20 ADD PUSH1 0x40 MLOAD DUP1 SWAP2 SUB SWAP1 KECCAK256 SLOAD DUP2 MSTORE PUSH1 0x20 ADD SWAP1 DUP2 MSTORE PUSH1 0x20 ADD PUSH1 0x0 KECCAK256 DUP2 PUSH1 0x40 MLOAD PUSH2 0x220A SWAP2 SWAP1 PUSH2 0x2D5F JUMP JUMPDEST SWAP1 DUP2 MSTORE PUSH1 0x20 ADD PUSH1 0x40 MLOAD DUP1 SWAP2 SUB SWAP1 KECCAK256 DUP1 SLOAD SWAP1 POP PUSH1 0x1E PUSH1 0x0 PUSH1 0x9 DUP5 PUSH1 0x40 MLOAD PUSH2 0x2230 SWAP2 SWAP1 PUSH2 0x2D5F JUMP JUMPDEST SWAP1 DUP2 MSTORE PUSH1 0x20 ADD PUSH1 0x40 MLOAD DUP1 SWAP2 SUB SWAP1 KECCAK256 SLOAD DUP2 MSTORE PUSH1 0x20 ADD SWAP1 DUP2 MSTORE PUSH1 0x20 ADD PUSH1 0x0 KECCAK256 DUP3 PUSH1 0x40 MLOAD PUSH2 0x225B SWAP2 SWAP1 PUSH2 0x2D5F JUMP JUMPDEST SWAP1 DUP2 MSTORE PUSH1 0x40 MLOAD SWAP1 DUP2 SWAP1 SUB PUSH1 0x20 ADD SWAP1 KECCAK256 SLOAD EQ PUSH2 0x2275 JUMPI PUSH1 0x0 DUP1 REVERT JUMPDEST PUSH1 0x0 JUMPDEST PUSH1 0x1D PUSH1 0x0 PUSH1 0x9 DUP5 PUSH1 0x40 MLOAD PUSH2 0x228C SWAP2 SWAP1 PUSH2 0x2D5F JUMP JUMPDEST SWAP1 DUP2 MSTORE PUSH1 0x20 ADD PUSH1 0x40 MLOAD DUP1 SWAP2 SUB SWAP1 KECCAK256 SLOAD DUP2 MSTORE PUSH1 0x20 ADD SWAP1 DUP2 MSTORE PUSH1 0x20 ADD PUSH1 0x0 KECCAK256 DUP3 PUSH1 0x40 MLOAD PUSH2 0x22B7 SWAP2 SWAP1 PUSH2 0x2D5F JUMP JUMPDEST SWAP1 DUP2 MSTORE PUSH1 0x40 MLOAD SWAP1 DUP2 SWAP1 SUB PUSH1 0x20 ADD SWAP1 KECCAK256 SLOAD DUP2 LT ISZERO PUSH2 0x2358 JUMPI PUSH2 0x22D8 DUP3 DUP3 PUSH2 0x2499 JUMP JUMPDEST ISZERO ISZERO PUSH1 0x1 EQ ISZERO PUSH2 0x2346 JUMPI PUSH1 0x1F PUSH1 0x0 PUSH1 0x9 DUP5 PUSH1 0x40 MLOAD PUSH2 0x22F6 SWAP2 SWAP1 PUSH2 0x2D5F JUMP JUMPDEST SWAP1 DUP2 MSTORE PUSH1 0x20 ADD PUSH1 0x40 MLOAD DUP1 SWAP2 SUB SWAP1 KECCAK256 SLOAD DUP2 MSTORE PUSH1 0x20 ADD SWAP1 DUP2 MSTORE PUSH1 0x20 ADD PUSH1 0x0 KECCAK256 DUP3 PUSH1 0x40 MLOAD PUSH2 0x2321 SWAP2 SWAP1 PUSH2 0x2D5F JUMP JUMPDEST SWAP1 DUP2 MSTORE PUSH1 0x40 MLOAD PUSH1 0x20 SWAP2 DUP2 SWAP1 SUB DUP3 ADD SWAP1 KECCAK256 DUP1 SLOAD PUSH1 0x1 DUP2 ADD DUP3 SSTORE PUSH1 0x0 SWAP2 DUP3 MSTORE SWAP2 SWAP1 KECCAK256 ADD DUP2 SWAP1 SSTORE JUMPDEST DUP1 PUSH2 0x2350 DUP2 PUSH2 0x2DBF JUMP JUMPDEST SWAP2 POP POP PUSH2 0x2278 JUMP JUMPDEST POP POP JUMP JUMPDEST PUSH1 0x1F PUSH1 0x0 PUSH1 0x9 DUP4 PUSH1 0x40 MLOAD PUSH2 0x2370 SWAP2 SWAP1 PUSH2 0x2D5F JUMP JUMPDEST SWAP1 DUP2 MSTORE PUSH1 0x20 ADD PUSH1 0x40 MLOAD DUP1 SWAP2 SUB SWAP1 KECCAK256 SLOAD DUP2 MSTORE PUSH1 0x20 ADD SWAP1 DUP2 MSTORE PUSH1 0x20 ADD PUSH1 0x0 KECCAK256 DUP2 PUSH1 0x40 MLOAD PUSH2 0x239B SWAP2 SWAP1 PUSH2 0x2D5F JUMP JUMPDEST SWAP1 DUP2 MSTORE PUSH1 0x40 MLOAD SWAP1 DUP2 SWAP1 SUB PUSH1 0x20 ADD SWAP1 KECCAK256 SLOAD PUSH2 0x23B4 JUMPI PUSH1 0x0 DUP1 REVERT JUMPDEST PUSH1 0xE SLOAD PUSH1 0x11 SLOAD PUSH1 0x40 MLOAD PUSH1 0x1 PUSH1 0x1 PUSH1 0xA0 SHL SUB SWAP3 DUP4 AND SWAP3 PUSH4 0x69328DEC SWAP3 AND SWAP1 PUSH1 0x14 SWAP1 PUSH1 0x0 SWAP1 PUSH1 0x9 SWAP1 PUSH2 0x23E5 SWAP1 DUP9 SWAP1 PUSH2 0x2D5F JUMP JUMPDEST SWAP1 DUP2 MSTORE PUSH1 0x20 ADD PUSH1 0x40 MLOAD DUP1 SWAP2 SUB SWAP1 KECCAK256 SLOAD DUP2 MSTORE PUSH1 0x20 ADD SWAP1 DUP2 MSTORE PUSH1 0x20 ADD PUSH1 0x0 KECCAK256 DUP5 PUSH1 0x40 MLOAD PUSH2 0x2410 SWAP2 SWAP1 PUSH2 0x2D5F JUMP JUMPDEST SWAP1 DUP2 MSTORE PUSH1 0x40 MLOAD SWAP1 DUP2 SWAP1 SUB PUSH1 0x20 ADD DUP2 KECCAK256 PUSH1 0x1 ADD SLOAD PUSH1 0x1 PUSH1 0x1 PUSH1 0xE0 SHL SUB NOT PUSH1 0xE0 DUP6 SWAP1 SHL AND DUP3 MSTORE PUSH1 0x1 PUSH1 0x1 PUSH1 0xA0 SHL SUB SWAP3 SWAP1 SWAP3 AND PUSH1 0x4 DUP3 ADD MSTORE PUSH1 0x24 DUP2 ADD SWAP2 SWAP1 SWAP2 MSTORE ADDRESS PUSH1 0x44 DUP3 ADD MSTORE PUSH1 0x64 ADD PUSH1 0x20 PUSH1 0x40 MLOAD DUP1 DUP4 SUB DUP2 PUSH1 0x0 DUP8 GAS CALL ISZERO DUP1 ISZERO PUSH2 0x2475 JUMPI RETURNDATASIZE PUSH1 0x0 DUP1 RETURNDATACOPY RETURNDATASIZE PUSH1 0x0 REVERT JUMPDEST POP POP POP POP PUSH1 0x40 MLOAD RETURNDATASIZE PUSH1 0x1F NOT PUSH1 0x1F DUP3 ADD AND DUP3 ADD DUP1 PUSH1 0x40 MSTORE POP DUP2 ADD SWAP1 PUSH2 0x2358 SWAP2 SWAP1 PUSH2 0x2D24 JUMP JUMPDEST PUSH1 0x0 PUSH1 0x14 PUSH1 0x0 PUSH1 0x9 DUP6 PUSH1 0x40 MLOAD PUSH2 0x24AF SWAP2 SWAP1 PUSH2 0x2D5F JUMP JUMPDEST SWAP1 DUP2 MSTORE PUSH1 0x20 ADD PUSH1 0x40 MLOAD DUP1 SWAP2 SUB SWAP1 KECCAK256 SLOAD DUP2 MSTORE PUSH1 0x20 ADD SWAP1 DUP2 MSTORE PUSH1 0x20 ADD PUSH1 0x0 KECCAK256 DUP4 PUSH1 0x40 MLOAD PUSH2 0x24DA SWAP2 SWAP1 PUSH2 0x2D5F JUMP JUMPDEST SWAP1 DUP2 MSTORE PUSH1 0x20 ADD PUSH1 0x40 MLOAD DUP1 SWAP2 SUB SWAP1 KECCAK256 PUSH1 0x5 ADD SLOAD PUSH1 0x1D PUSH1 0x0 PUSH1 0x9 DUP7 PUSH1 0x40 MLOAD PUSH2 0x2500 SWAP2 SWAP1 PUSH2 0x2D5F JUMP JUMPDEST SWAP1 DUP2 MSTORE PUSH1 0x20 ADD PUSH1 0x40 MLOAD DUP1 SWAP2 SUB SWAP1 KECCAK256 SLOAD DUP2 MSTORE PUSH1 0x20 ADD SWAP1 DUP2 MSTORE PUSH1 0x20 ADD PUSH1 0x0 KECCAK256 DUP5 PUSH1 0x40 MLOAD PUSH2 0x252B SWAP2 SWAP1 PUSH2 0x2D5F JUMP JUMPDEST SWAP1 DUP2 MSTORE PUSH1 0x20 ADD PUSH1 0x40 MLOAD DUP1 SWAP2 SUB SWAP1 KECCAK256 DUP4 DUP2 SLOAD DUP2 LT PUSH2 0x254A JUMPI PUSH2 0x254A PUSH2 0x2DA9 JUMP JUMPDEST SWAP1 PUSH1 0x0 MSTORE PUSH1 0x20 PUSH1 0x0 KECCAK256 ADD SLOAD LT ISZERO DUP1 ISZERO PUSH2 0x261B JUMPI POP PUSH1 0x14 PUSH1 0x0 PUSH1 0x9 DUP6 PUSH1 0x40 MLOAD PUSH2 0x2572 SWAP2 SWAP1 PUSH2 0x2D5F JUMP JUMPDEST SWAP1 DUP2 MSTORE PUSH1 0x20 ADD PUSH1 0x40 MLOAD DUP1 SWAP2 SUB SWAP1 KECCAK256 SLOAD DUP2 MSTORE PUSH1 0x20 ADD SWAP1 DUP2 MSTORE PUSH1 0x20 ADD PUSH1 0x0 KECCAK256 DUP4 PUSH1 0x40 MLOAD PUSH2 0x259D SWAP2 SWAP1 PUSH2 0x2D5F JUMP JUMPDEST SWAP1 DUP2 MSTORE PUSH1 0x20 ADD PUSH1 0x40 MLOAD DUP1 SWAP2 SUB SWAP1 KECCAK256 PUSH1 0x5 ADD SLOAD PUSH1 0x1E PUSH1 0x0 PUSH1 0x9 DUP7 PUSH1 0x40 MLOAD PUSH2 0x25C3 SWAP2 SWAP1 PUSH2 0x2D5F JUMP JUMPDEST SWAP1 DUP2 MSTORE PUSH1 0x20 ADD PUSH1 0x40 MLOAD DUP1 SWAP2 SUB SWAP1 KECCAK256 SLOAD DUP2 MSTORE PUSH1 0x20 ADD SWAP1 DUP2 MSTORE PUSH1 0x20 ADD PUSH1 0x0 KECCAK256 DUP5 PUSH1 0x40 MLOAD PUSH2 0x25EE SWAP2 SWAP1 PUSH2 0x2D5F JUMP JUMPDEST SWAP1 DUP2 MSTORE PUSH1 0x20 ADD PUSH1 0x40 MLOAD DUP1 SWAP2 SUB SWAP1 KECCAK256 DUP4 DUP2 SLOAD DUP2 LT PUSH2 0x260D JUMPI PUSH2 0x260D PUSH2 0x2DA9 JUMP JUMPDEST SWAP1 PUSH1 0x0 MSTORE PUSH1 0x20 PUSH1 0x0 KECCAK256 ADD SLOAD GT ISZERO JUMPDEST ISZERO PUSH2 0x2628 JUMPI POP PUSH1 0x1 PUSH2 0x262C JUMP JUMPDEST POP PUSH1 0x0 JUMPDEST SWAP3 SWAP2 POP POP JUMP JUMPDEST DUP3 DUP1 SLOAD PUSH2 0x263E SWAP1 PUSH2 0x2CE9 JUMP JUMPDEST SWAP1 PUSH1 0x0 MSTORE PUSH1 0x20 PUSH1 0x0 KECCAK256 SWAP1 PUSH1 0x1F ADD PUSH1 0x20 SWAP1 DIV DUP2 ADD SWAP3 DUP3 PUSH2 0x2660 JUMPI PUSH1 0x0 DUP6 SSTORE PUSH2 0x26A6 JUMP JUMPDEST DUP3 PUSH1 0x1F LT PUSH2 0x2679 JUMPI DUP1 MLOAD PUSH1 0xFF NOT AND DUP4 DUP1 ADD OR DUP6 SSTORE PUSH2 0x26A6 JUMP JUMPDEST DUP3 DUP1 ADD PUSH1 0x1 ADD DUP6 SSTORE DUP3 ISZERO PUSH2 0x26A6 JUMPI SWAP2 DUP3 ADD JUMPDEST DUP3 DUP2 GT ISZERO PUSH2 0x26A6 JUMPI DUP3 MLOAD DUP3 SSTORE SWAP2 PUSH1 0x20 ADD SWAP2 SWAP1 PUSH1 0x1 ADD SWAP1 PUSH2 0x268B JUMP JUMPDEST POP PUSH2 0x26B2 SWAP3 SWAP2 POP PUSH2 0x26B6 JUMP JUMPDEST POP SWAP1 JUMP JUMPDEST JUMPDEST DUP1 DUP3 GT ISZERO PUSH2 0x26B2 JUMPI PUSH1 0x0 DUP2 SSTORE PUSH1 0x1 ADD PUSH2 0x26B7 JUMP JUMPDEST DUP1 CALLDATALOAD PUSH1 0x1 PUSH1 0x1 PUSH1 0xC0 SHL SUB NOT DUP2 AND DUP2 EQ PUSH2 0x26E3 JUMPI PUSH1 0x0 DUP1 REVERT JUMPDEST SWAP2 SWAP1 POP JUMP JUMPDEST PUSH1 0x1 PUSH1 0x1 PUSH1 0xA0 SHL SUB DUP2 AND DUP2 EQ PUSH2 0x1996 JUMPI PUSH1 0x0 DUP1 REVERT JUMPDEST PUSH1 0x0 DUP1 PUSH1 0x0 PUSH1 0x60 DUP5 DUP7 SUB SLT ISZERO PUSH2 0x2712 JUMPI PUSH1 0x0 DUP1 REVERT JUMPDEST PUSH2 0x271B DUP5 PUSH2 0x26CB JUMP JUMPDEST SWAP3 POP PUSH1 0x20 DUP5 ADD CALLDATALOAD PUSH2 0x272B DUP2 PUSH2 0x26E8 JUMP JUMPDEST SWAP3 SWAP6 SWAP3 SWAP5 POP POP POP PUSH1 0x40 SWAP2 SWAP1 SWAP2 ADD CALLDATALOAD SWAP1 JUMP JUMPDEST PUSH1 0x0 PUSH1 0x20 DUP3 DUP5 SUB SLT ISZERO PUSH2 0x274E JUMPI PUSH1 0x0 DUP1 REVERT JUMPDEST POP CALLDATALOAD SWAP2 SWAP1 POP JUMP JUMPDEST PUSH1 0x0 JUMPDEST DUP4 DUP2 LT ISZERO PUSH2 0x2770 JUMPI DUP2 DUP2 ADD MLOAD DUP4 DUP3 ADD MSTORE PUSH1 0x20 ADD PUSH2 0x2758 JUMP JUMPDEST DUP4 DUP2 GT ISZERO PUSH2 0x277F JUMPI PUSH1 0x0 DUP5 DUP5 ADD MSTORE JUMPDEST POP POP POP POP JUMP JUMPDEST PUSH1 0x0 DUP2 MLOAD DUP1 DUP5 MSTORE PUSH2 0x279D DUP2 PUSH1 0x20 DUP7 ADD PUSH1 0x20 DUP7 ADD PUSH2 0x2755 JUMP JUMPDEST PUSH1 0x1F ADD PUSH1 0x1F NOT AND SWAP3 SWAP1 SWAP3 ADD PUSH1 0x20 ADD SWAP3 SWAP2 POP POP JUMP JUMPDEST PUSH1 0x20 DUP2 MSTORE PUSH1 0x0 PUSH2 0x1849 PUSH1 0x20 DUP4 ADD DUP5 PUSH2 0x2785 JUMP JUMPDEST PUSH4 0x4E487B71 PUSH1 0xE0 SHL PUSH1 0x0 MSTORE PUSH1 0x41 PUSH1 0x4 MSTORE PUSH1 0x24 PUSH1 0x0 REVERT JUMPDEST PUSH1 0x40 MLOAD PUSH1 0x1F DUP3 ADD PUSH1 0x1F NOT AND DUP2 ADD PUSH1 0x1 PUSH1 0x1 PUSH1 0x40 SHL SUB DUP2 GT DUP3 DUP3 LT OR ISZERO PUSH2 0x2802 JUMPI PUSH2 0x2802 PUSH2 0x27C4 JUMP JUMPDEST PUSH1 0x40 MSTORE SWAP2 SWAP1 POP JUMP JUMPDEST PUSH1 0x0 PUSH1 0x1 PUSH1 0x1 PUSH1 0x40 SHL SUB DUP3 GT ISZERO PUSH2 0x2823 JUMPI PUSH2 0x2823 PUSH2 0x27C4 JUMP JUMPDEST POP PUSH1 0x1F ADD PUSH1 0x1F NOT AND PUSH1 0x20 ADD SWAP1 JUMP JUMPDEST PUSH1 0x0 DUP3 PUSH1 0x1F DUP4 ADD SLT PUSH2 0x2842 JUMPI PUSH1 0x0 DUP1 REVERT JUMPDEST DUP2 CALLDATALOAD PUSH2 0x2855 PUSH2 0x2850 DUP3 PUSH2 0x280A JUMP JUMPDEST PUSH2 0x27DA JUMP JUMPDEST DUP2 DUP2 MSTORE DUP5 PUSH1 0x20 DUP4 DUP7 ADD ADD GT ISZERO PUSH2 0x286A JUMPI PUSH1 0x0 DUP1 REVERT JUMPDEST DUP2 PUSH1 0x20 DUP6 ADD PUSH1 0x20 DUP4 ADD CALLDATACOPY PUSH1 0x0 SWAP2 DUP2 ADD PUSH1 0x20 ADD SWAP2 SWAP1 SWAP2 MSTORE SWAP4 SWAP3 POP POP POP JUMP JUMPDEST PUSH1 0x0 DUP1 PUSH1 0x40 DUP4 DUP6 SUB SLT ISZERO PUSH2 0x289A JUMPI PUSH1 0x0 DUP1 REVERT JUMPDEST DUP3 CALLDATALOAD SWAP2 POP PUSH1 0x20 DUP4 ADD CALLDATALOAD PUSH1 0x1 PUSH1 0x1 PUSH1 0x40 SHL SUB DUP2 GT ISZERO PUSH2 0x28B7 JUMPI PUSH1 0x0 DUP1 REVERT JUMPDEST PUSH2 0x28C3 DUP6 DUP3 DUP7 ADD PUSH2 0x2831 JUMP JUMPDEST SWAP2 POP POP SWAP3 POP SWAP3 SWAP1 POP JUMP JUMPDEST PUSH1 0x0 PUSH1 0x20 DUP3 DUP5 SUB SLT ISZERO PUSH2 0x28DF JUMPI PUSH1 0x0 DUP1 REVERT JUMPDEST DUP2 CALLDATALOAD PUSH2 0x1849 DUP2 PUSH2 0x26E8 JUMP JUMPDEST DUP1 CALLDATALOAD PUSH1 0x1 PUSH1 0x1 PUSH1 0x80 SHL SUB DUP2 AND DUP2 EQ PUSH2 0x26E3 JUMPI PUSH1 0x0 DUP1 REVERT JUMPDEST PUSH1 0x0 DUP1 PUSH1 0x40 DUP4 DUP6 SUB SLT ISZERO PUSH2 0x2914 JUMPI PUSH1 0x0 DUP1 REVERT JUMPDEST PUSH2 0x291D DUP4 PUSH2 0x28EA JUMP JUMPDEST SWAP2 POP PUSH2 0x292B PUSH1 0x20 DUP5 ADD PUSH2 0x26CB JUMP JUMPDEST SWAP1 POP SWAP3 POP SWAP3 SWAP1 POP JUMP JUMPDEST PUSH1 0x0 DUP1 DUP4 PUSH1 0x1F DUP5 ADD SLT PUSH2 0x2946 JUMPI PUSH1 0x0 DUP1 REVERT JUMPDEST POP DUP2 CALLDATALOAD PUSH1 0x1 PUSH1 0x1 PUSH1 0x40 SHL SUB DUP2 GT ISZERO PUSH2 0x295D JUMPI PUSH1 0x0 DUP1 REVERT JUMPDEST PUSH1 0x20 DUP4 ADD SWAP2 POP DUP4 PUSH1 0x20 DUP3 DUP6 ADD ADD GT ISZERO PUSH2 0x139E JUMPI PUSH1 0x0 DUP1 REVERT JUMPDEST PUSH1 0x0 DUP1 PUSH1 0x0 DUP1 PUSH1 0x0 DUP1 PUSH1 0x0 DUP1 PUSH1 0x0 PUSH1 0xC0 DUP11 DUP13 SUB SLT ISZERO PUSH2 0x2993 JUMPI PUSH1 0x0 DUP1 REVERT JUMPDEST DUP10 CALLDATALOAD PUSH2 0x299E DUP2 PUSH2 0x26E8 JUMP JUMPDEST SWAP9 POP PUSH1 0x20 DUP11 ADD CALLDATALOAD PUSH2 0x29AE DUP2 PUSH2 0x26E8 JUMP JUMPDEST SWAP8 POP PUSH1 0x40 DUP11 ADD CALLDATALOAD SWAP7 POP PUSH1 0x60 DUP11 ADD CALLDATALOAD PUSH1 0x1 PUSH1 0x1 PUSH1 0x40 SHL SUB DUP1 DUP3 GT ISZERO PUSH2 0x29D1 JUMPI PUSH1 0x0 DUP1 REVERT JUMPDEST PUSH2 0x29DD DUP14 DUP4 DUP15 ADD PUSH2 0x2934 JUMP JUMPDEST SWAP1 SWAP9 POP SWAP7 POP PUSH1 0x80 DUP13 ADD CALLDATALOAD SWAP2 POP DUP1 DUP3 GT ISZERO PUSH2 0x29F6 JUMPI PUSH1 0x0 DUP1 REVERT JUMPDEST PUSH2 0x2A02 DUP14 DUP4 DUP15 ADD PUSH2 0x2934 JUMP JUMPDEST SWAP1 SWAP7 POP SWAP5 POP PUSH1 0xA0 DUP13 ADD CALLDATALOAD SWAP2 POP DUP1 DUP3 GT ISZERO PUSH2 0x2A1B JUMPI PUSH1 0x0 DUP1 REVERT JUMPDEST POP PUSH2 0x2A28 DUP13 DUP3 DUP14 ADD PUSH2 0x2934 JUMP JUMPDEST SWAP2 POP DUP1 SWAP4 POP POP DUP1 SWAP2 POP POP SWAP3 SWAP6 SWAP9 POP SWAP3 SWAP6 SWAP9 POP SWAP3 SWAP6 SWAP9 JUMP JUMPDEST PUSH1 0x0 DUP1 PUSH1 0x0 DUP1 PUSH1 0x0 DUP1 PUSH1 0x0 PUSH1 0xA0 DUP9 DUP11 SUB SLT ISZERO PUSH2 0x2A5A JUMPI PUSH1 0x0 DUP1 REVERT JUMPDEST DUP8 CALLDATALOAD PUSH2 0x2A65 DUP2 PUSH2 0x26E8 JUMP JUMPDEST SWAP7 POP PUSH1 0x20 DUP9 ADD CALLDATALOAD PUSH2 0x2A75 DUP2 PUSH2 0x26E8 JUMP JUMPDEST SWAP6 POP PUSH1 0x40 DUP9 ADD CALLDATALOAD SWAP5 POP PUSH1 0x60 DUP9 ADD CALLDATALOAD PUSH1 0x1 PUSH1 0x1 PUSH1 0x40 SHL SUB DUP1 DUP3 GT ISZERO PUSH2 0x2A98 JUMPI PUSH1 0x0 DUP1 REVERT JUMPDEST PUSH2 0x2AA4 DUP12 DUP4 DUP13 ADD PUSH2 0x2934 JUMP JUMPDEST SWAP1 SWAP7 POP SWAP5 POP PUSH1 0x80 DUP11 ADD CALLDATALOAD SWAP2 POP DUP1 DUP3 GT ISZERO PUSH2 0x2ABD JUMPI PUSH1 0x0 DUP1 REVERT JUMPDEST POP PUSH2 0x2ACA DUP11 DUP3 DUP12 ADD PUSH2 0x2934 JUMP JUMPDEST SWAP9 SWAP12 SWAP8 SWAP11 POP SWAP6 SWAP9 POP SWAP4 SWAP7 SWAP3 SWAP6 SWAP3 SWAP4 POP POP POP JUMP JUMPDEST PUSH1 0x0 PUSH1 0x20 DUP3 DUP5 SUB SLT ISZERO PUSH2 0x2AEF JUMPI PUSH1 0x0 DUP1 REVERT JUMPDEST DUP2 CALLDATALOAD PUSH1 0x1 PUSH1 0x1 PUSH1 0x40 SHL SUB DUP2 GT ISZERO PUSH2 0x2B05 JUMPI PUSH1 0x0 DUP1 REVERT JUMPDEST PUSH2 0x2B11 DUP5 DUP3 DUP6 ADD PUSH2 0x2831 JUMP JUMPDEST SWAP5 SWAP4 POP POP POP POP JUMP JUMPDEST PUSH1 0x0 DUP1 PUSH1 0x20 DUP4 DUP6 SUB SLT ISZERO PUSH2 0x2B2C JUMPI PUSH1 0x0 DUP1 REVERT JUMPDEST DUP3 CALLDATALOAD PUSH1 0x1 PUSH1 0x1 PUSH1 0x40 SHL SUB DUP2 GT ISZERO PUSH2 0x2B42 JUMPI PUSH1 0x0 DUP1 REVERT JUMPDEST PUSH2 0x2B4E DUP6 DUP3 DUP7 ADD PUSH2 0x2934 JUMP JUMPDEST SWAP1 SWAP7 SWAP1 SWAP6 POP SWAP4 POP POP POP POP JUMP JUMPDEST PUSH1 0x0 DUP1 PUSH1 0x40 DUP4 DUP6 SUB SLT ISZERO PUSH2 0x2B6D JUMPI PUSH1 0x0 DUP1 REVERT JUMPDEST DUP3 CALLDATALOAD PUSH1 0x1 PUSH1 0x1 PUSH1 0x40 SHL SUB DUP2 GT ISZERO PUSH2 0x2B83 JUMPI PUSH1 0x0 DUP1 REVERT JUMPDEST PUSH2 0x2B8F DUP6 DUP3 DUP7 ADD PUSH2 0x2831 JUMP JUMPDEST SWAP3 POP POP PUSH1 0x20 DUP4 ADD CALLDATALOAD PUSH2 0x2BA0 DUP2 PUSH2 0x26E8 JUMP JUMPDEST DUP1 SWAP2 POP POP SWAP3 POP SWAP3 SWAP1 POP JUMP JUMPDEST PUSH1 0x0 DUP1 PUSH1 0x0 PUSH1 0x60 DUP5 DUP7 SUB SLT ISZERO PUSH2 0x2BC0 JUMPI PUSH1 0x0 DUP1 REVERT JUMPDEST DUP4 CALLDATALOAD SWAP3 POP PUSH1 0x20 DUP5 ADD CALLDATALOAD PUSH1 0x1 PUSH1 0x1 PUSH1 0x40 SHL SUB DUP2 GT ISZERO PUSH2 0x2BDD JUMPI PUSH1 0x0 DUP1 REVERT JUMPDEST PUSH2 0x2BE9 DUP7 DUP3 DUP8 ADD PUSH2 0x2831 JUMP JUMPDEST SWAP3 POP POP PUSH1 0x40 DUP5 ADD CALLDATALOAD PUSH2 0x2BFA DUP2 PUSH2 0x26E8 JUMP JUMPDEST DUP1 SWAP2 POP POP SWAP3 POP SWAP3 POP SWAP3 JUMP JUMPDEST DUP3 ISZERO ISZERO DUP2 MSTORE PUSH1 0x40 PUSH1 0x20 DUP3 ADD MSTORE PUSH1 0x0 PUSH2 0x2B11 PUSH1 0x40 DUP4 ADD DUP5 PUSH2 0x2785 JUMP JUMPDEST PUSH1 0x0 PUSH1 0x20 DUP3 DUP5 SUB SLT ISZERO PUSH2 0x2C32 JUMPI PUSH1 0x0 DUP1 REVERT JUMPDEST PUSH2 0x1849 DUP3 PUSH2 0x26CB JUMP JUMPDEST PUSH1 0x0 DUP1 PUSH1 0x0 PUSH1 0x60 DUP5 DUP7 SUB SLT ISZERO PUSH2 0x2C50 JUMPI PUSH1 0x0 DUP1 REVERT JUMPDEST DUP4 CALLDATALOAD SWAP3 POP PUSH1 0x20 DUP5 ADD CALLDATALOAD PUSH1 0x1 PUSH1 0x1 PUSH1 0x40 SHL SUB DUP2 GT ISZERO PUSH2 0x2C6D JUMPI PUSH1 0x0 DUP1 REVERT JUMPDEST PUSH2 0x2C79 DUP7 DUP3 DUP8 ADD PUSH2 0x2831 JUMP JUMPDEST SWAP3 POP POP PUSH1 0x40 DUP5 ADD CALLDATALOAD SWAP1 POP SWAP3 POP SWAP3 POP SWAP3 JUMP JUMPDEST PUSH1 0x0 DUP1 PUSH1 0x40 DUP4 DUP6 SUB SLT ISZERO PUSH2 0x2C9D JUMPI PUSH1 0x0 DUP1 REVERT JUMPDEST PUSH2 0x2CA6 DUP4 PUSH2 0x28EA JUMP JUMPDEST SWAP5 PUSH1 0x20 SWAP4 SWAP1 SWAP4 ADD CALLDATALOAD SWAP4 POP POP POP JUMP JUMPDEST PUSH1 0x20 DUP1 DUP3 MSTORE DUP2 DUP2 ADD MSTORE PUSH32 0x4F776E61626C653A2063616C6C6572206973206E6F7420746865206F776E6572 PUSH1 0x40 DUP3 ADD MSTORE PUSH1 0x60 ADD SWAP1 JUMP JUMPDEST PUSH1 0x1 DUP2 DUP2 SHR SWAP1 DUP3 AND DUP1 PUSH2 0x2CFD JUMPI PUSH1 0x7F DUP3 AND SWAP2 POP JUMPDEST PUSH1 0x20 DUP3 LT DUP2 EQ ISZERO PUSH2 0x2D1E JUMPI PUSH4 0x4E487B71 PUSH1 0xE0 SHL PUSH1 0x0 MSTORE PUSH1 0x22 PUSH1 0x4 MSTORE PUSH1 0x24 PUSH1 0x0 REVERT JUMPDEST POP SWAP2 SWAP1 POP JUMP JUMPDEST PUSH1 0x0 PUSH1 0x20 DUP3 DUP5 SUB SLT ISZERO PUSH2 0x2D36 JUMPI PUSH1 0x0 DUP1 REVERT JUMPDEST POP MLOAD SWAP2 SWAP1 POP JUMP JUMPDEST PUSH1 0x0 PUSH1 0x20 DUP3 DUP5 SUB SLT ISZERO PUSH2 0x2D4F JUMPI PUSH1 0x0 DUP1 REVERT JUMPDEST DUP2 MLOAD DUP1 ISZERO ISZERO DUP2 EQ PUSH2 0x1849 JUMPI PUSH1 0x0 DUP1 REVERT JUMPDEST PUSH1 0x0 DUP3 MLOAD PUSH2 0x2D71 DUP2 DUP5 PUSH1 0x20 DUP8 ADD PUSH2 0x2755 JUMP JUMPDEST SWAP2 SWAP1 SWAP2 ADD SWAP3 SWAP2 POP POP JUMP JUMPDEST PUSH4 0x4E487B71 PUSH1 0xE0 SHL PUSH1 0x0 MSTORE PUSH1 0x11 PUSH1 0x4 MSTORE PUSH1 0x24 PUSH1 0x0 REVERT JUMPDEST PUSH1 0x0 DUP3 NOT DUP3 GT ISZERO PUSH2 0x2DA4 JUMPI PUSH2 0x2DA4 PUSH2 0x2D7B JUMP JUMPDEST POP ADD SWAP1 JUMP JUMPDEST PUSH4 0x4E487B71 PUSH1 0xE0 SHL PUSH1 0x0 MSTORE PUSH1 0x32 PUSH1 0x4 MSTORE PUSH1 0x24 PUSH1 0x0 REVERT JUMPDEST PUSH1 0x0 PUSH1 0x0 NOT DUP3 EQ ISZERO PUSH2 0x2DD3 JUMPI PUSH2 0x2DD3 PUSH2 0x2D7B JUMP JUMPDEST POP PUSH1 0x1 ADD SWAP1 JUMP JUMPDEST DUP1 MLOAD PUSH10 0xFFFFFFFFFFFFFFFFFFFF DUP2 AND DUP2 EQ PUSH2 0x26E3 JUMPI PUSH1 0x0 DUP1 REVERT JUMPDEST PUSH1 0x0 DUP1 PUSH1 0x0 DUP1 PUSH1 0x0 PUSH1 0xA0 DUP7 DUP9 SUB SLT ISZERO PUSH2 0x2E0C JUMPI PUSH1 0x0 DUP1 REVERT JUMPDEST PUSH2 0x2E15 DUP7 PUSH2 0x2DDA JUMP JUMPDEST SWAP5 POP PUSH1 0x20 DUP7 ADD MLOAD SWAP4 POP PUSH1 0x40 DUP7 ADD MLOAD SWAP3 POP PUSH1 0x60 DUP7 ADD MLOAD SWAP2 POP PUSH2 0x2E38 PUSH1 0x80 DUP8 ADD PUSH2 0x2DDA JUMP JUMPDEST SWAP1 POP SWAP3 SWAP6 POP SWAP3 SWAP6 SWAP1 SWAP4 POP JUMP JUMPDEST PUSH1 0x0 DUP1 DUP4 SLOAD DUP2 PUSH1 0x1 DUP3 DUP2 SHR SWAP2 POP DUP1 DUP4 AND DUP1 PUSH2 0x2E60 JUMPI PUSH1 0x7F DUP4 AND SWAP3 POP JUMPDEST PUSH1 0x20 DUP1 DUP5 LT DUP3 EQ ISZERO PUSH2 0x2E80 JUMPI PUSH4 0x4E487B71 PUSH1 0xE0 SHL DUP7 MSTORE PUSH1 0x22 PUSH1 0x4 MSTORE PUSH1 0x24 DUP7 REVERT JUMPDEST DUP2 DUP1 ISZERO PUSH2 0x2E94 JUMPI PUSH1 0x1 DUP2 EQ PUSH2 0x2EA5 JUMPI PUSH2 0x2ED2 JUMP JUMPDEST PUSH1 0xFF NOT DUP7 AND DUP10 MSTORE DUP5 DUP10 ADD SWAP7 POP PUSH2 0x2ED2 JUMP JUMPDEST PUSH1 0x0 DUP11 DUP2 MSTORE PUSH1 0x20 SWAP1 KECCAK256 PUSH1 0x0 JUMPDEST DUP7 DUP2 LT ISZERO PUSH2 0x2ECA JUMPI DUP2 SLOAD DUP12 DUP3 ADD MSTORE SWAP1 DUP6 ADD SWAP1 DUP4 ADD PUSH2 0x2EB1 JUMP JUMPDEST POP POP DUP5 DUP10 ADD SWAP7 POP JUMPDEST POP SWAP5 SWAP9 SWAP8 POP POP POP POP POP POP POP POP JUMP JUMPDEST PUSH1 0x0 PUSH1 0x1 PUSH1 0x1 PUSH1 0x80 SHL SUB DUP1 DUP4 AND DUP2 DUP6 AND DUP1 DUP4 SUB DUP3 GT ISZERO PUSH2 0x2F02 JUMPI PUSH2 0x2F02 PUSH2 0x2D7B JUMP JUMPDEST ADD SWAP5 SWAP4 POP POP POP POP JUMP JUMPDEST PUSH1 0x0 DUP3 DUP3 LT ISZERO PUSH2 0x2F1D JUMPI PUSH2 0x2F1D PUSH2 0x2D7B JUMP JUMPDEST POP SUB SWAP1 JUMP JUMPDEST PUSH1 0x0 DUP2 PUSH1 0xB SIGNEXTEND DUP4 PUSH1 0xB SIGNEXTEND DUP1 PUSH2 0x2F47 JUMPI PUSH4 0x4E487B71 PUSH1 0xE0 SHL PUSH1 0x0 MSTORE PUSH1 0x12 PUSH1 0x4 MSTORE PUSH1 0x24 PUSH1 0x0 REVERT JUMPDEST PUSH12 0x7FFFFFFFFFFFFFFFFFFFFFFF NOT DUP3 EQ PUSH1 0x0 NOT DUP3 EQ AND ISZERO PUSH2 0x2F6A JUMPI PUSH2 0x2F6A PUSH2 0x2D7B JUMP JUMPDEST SWAP1 SDIV SWAP4 SWAP3 POP POP POP JUMP JUMPDEST PUSH1 0x1 PUSH1 0x1 PUSH1 0xA0 SHL SUB DUP6 DUP2 AND DUP3 MSTORE DUP5 AND PUSH1 0x20 DUP3 ADD MSTORE PUSH1 0xB DUP4 SWAP1 SIGNEXTEND PUSH1 0x40 DUP3 ADD MSTORE PUSH1 0x80 PUSH1 0x60 DUP3 ADD DUP2 SWAP1 MSTORE PUSH1 0x0 SWAP1 PUSH2 0x2FA9 SWAP1 DUP4 ADD DUP5 PUSH2 0x2785 JUMP JUMPDEST SWAP7 SWAP6 POP POP POP POP POP POP JUMP JUMPDEST PUSH1 0x1 PUSH1 0x1 PUSH1 0xA0 SHL SUB DUP4 AND DUP2 MSTORE PUSH1 0x60 PUSH1 0x20 DUP3 ADD DUP2 SWAP1 MSTORE PUSH1 0x0 SWAP1 PUSH2 0x2FD7 SWAP1 DUP4 ADD DUP5 PUSH2 0x2785 JUMP JUMPDEST DUP3 DUP2 SUB PUSH1 0x40 SWAP4 DUP5 ADD MSTORE PUSH1 0x2 DUP2 MSTORE PUSH2 0x60F PUSH1 0xF3 SHL PUSH1 0x20 DUP3 ADD MSTORE SWAP2 SWAP1 SWAP2 ADD SWAP4 SWAP3 POP POP POP JUMP JUMPDEST PUSH1 0x0 PUSH1 0x20 DUP3 DUP5 SUB SLT ISZERO PUSH2 0x300C JUMPI PUSH1 0x0 DUP1 REVERT JUMPDEST DUP2 MLOAD PUSH1 0x1 PUSH1 0x1 PUSH1 0x40 SHL SUB DUP2 GT ISZERO PUSH2 0x3022 JUMPI PUSH1 0x0 DUP1 REVERT JUMPDEST DUP3 ADD PUSH1 0x1F DUP2 ADD DUP5 SGT PUSH2 0x3033 JUMPI PUSH1 0x0 DUP1 REVERT JUMPDEST DUP1 MLOAD PUSH2 0x3041 PUSH2 0x2850 DUP3 PUSH2 0x280A JUMP JUMPDEST DUP2 DUP2 MSTORE DUP6 PUSH1 0x20 DUP4 DUP6 ADD ADD GT ISZERO PUSH2 0x3056 JUMPI PUSH1 0x0 DUP1 REVERT JUMPDEST PUSH2 0x3067 DUP3 PUSH1 0x20 DUP4 ADD PUSH1 0x20 DUP7 ADD PUSH2 0x2755 JUMP JUMPDEST SWAP6 SWAP5 POP POP POP POP POP JUMP INVALID LOG2 PUSH5 0x6970667358 0x22 SLT KECCAK256 DUP1 PUSH28 0x36F9AF6CED23B9B673F7EBAA313461FF65E0182538999659EC3E8032 0x5C SAR PUSH5 0x736F6C6343 STOP ADDMOD SIGNEXTEND STOP CALLER ",
  "sha1": "878f2db3f1a197e3c04526697a8a63148b60d466",
  "source": "//SPDX-License-Identifier: MIT\npragma solidity ^0.8.0;\npragma abicoder v2;\n\nimport \"../interfaces/TransferHelper.sol\";\nimport \"@chainlink/contracts/src/v0.8/interfaces/AggregatorV3Interface.sol\";\nimport \"@chainlink/contracts/src/v0.8/interfaces/KeeperCompatibleInterface.sol\";\n//import \"@openzeppelin/contracts/token/ERC20/IERC20.sol\";\nimport \"@openzeppelin/contracts/access/Ownable.sol\";\n\nimport {ERC721} from \"@openzeppelin/contracts/token/ERC721/ERC721.sol\";\nimport \"@openzeppelin/contracts/access/Ownable.sol\";\n\nimport \"../interfaces/DataTypes.sol\";\nimport \"../interfaces/ILendingPoolAddressesProvider.sol\";\nimport \"../interfaces/ILendingPool.sol\";\nimport {\n    ISuperfluid,\n    ISuperToken,\n    ISuperApp,\n    ISuperAgreement,\n    SuperAppDefinitions\n} from \"../supercon/interfaces/superfluid/ISuperfluid.sol\";\n\nimport {\n    IConstantFlowAgreementV1\n} from \"../supercon/interfaces/agreements/IConstantFlowAgreementV1.sol\";\n\n\nimport {ERC20} from \"@openzeppelin/contracts/token/ERC20/ERC20.sol\";\n\nimport {\n    SuperAppBase\n} from \"../supercon/apps/SuperAppBase.sol\";\nimport \"../interfaces/IRedirect.sol\";\nimport \"../interfaces/IGovernanceToken.sol\";\n\n\n//make it a super app to allow using superfluid flows and instant distribution\ncontract MoonSquares is SuperAppBase, KeeperCompatibleInterface, Ownable {\n    \n    ISuperfluid private _host; // host\n    IConstantFlowAgreementV1 private _cfa; // the stored constant flow agreement class address \n    \n    //the Super token used to pay for option premium (sent directly to the NFT and redirected to owner of the NFT)\n    ISuperToken public _acceptedToken; // accepted token, could be the aToken \n\n\n    address[] public allowedPayments;//list of all accepted stablecoins for placing a prediction\n\n    string[] public allowedAssets;//All assets that are predicted on the platform\n    \n    address[] assetPriceAggregators;\n\n    address[] public contracts;\n\n    mapping(string => address) public assetToAggregator;\n\n    mapping(string => uint256) public coinRound;\n    //uint128 public coinRound;\n\n    uint128 public monthCount;\n\n    uint public payroundStartTime;\n\n    uint128 constant payDayDuration = 30 days;\n\n    uint public totalPaid;\n\n    //IUniswapV2Router02 public sushiRouter = IUniswapV2Router02(0x1b02dA8Cb0d097eB8D57A175b88c7D8b47997506);\n\n    ILendingPoolAddressesProvider public provider = ILendingPoolAddressesProvider(\n        address(0x88757f2f99175387aB4C6a4b3067c77A695b0349)\n    ); \n    ILendingPool public lendingPool = ILendingPool(provider.getLendingPool());\n\n    //ISwapRouter public immutable swapRouter;\n    //uint24 public constant poolFee = 3000;\n    \n    IRedirect flowDistrubuter;\n    IGovernanceToken governanceToken;\n\n    address Dai = 0xFf795577d9AC8bD7D90Ee22b6C1703490b6512FD;\n    address _aaveToken;\n    \n    mapping (uint256 => uint256) public roundInterestEarned;\n//\n    mapping(uint256 => mapping(string => RoundInfo)) public roundCoinInfo;\n    struct RoundInfo {\n        int256 moonPrice;\n        uint256 winnings;\n        int256 startPrice;\n        uint256 totalStaked;\n        uint256 startTime;\n        uint256 winningTime;\n    }\n\n    uint public totalStaked;\n    //sample bet\n    //structure of the bet\n    struct Bet {\n        uint256 squareStartTime;\n        uint256 squareEndTime;\n    }\n    \n    struct Charity {\n        bytes8 name;\n        bytes32 link; //sends people to the charity's official site\n    }\n\n    mapping (address => Charity) public presentCharities;\n\n    bytes8[] charities;\n    address[] charityAddress;\n    \n    mapping(uint128 => mapping(bytes8 => uint128)) public roundCharityVotes;\n    \n    mapping(uint128 => address) roundVoteResults;\n    \n    mapping (uint128 => address[]) public winers;\n\n    mapping (uint256 => mapping (string => address[])) public roundCoinPlayerArray;\n\n    mapping (uint256 => mapping (string => uint256[])) private roundCoinStartTimeArray;\n\n    mapping (uint256 => mapping (string => uint256[])) private  roundCoinEndTimeArray;\n    \n    mapping(uint256 => mapping(string => uint256[])) private roundCoinWinningIndex;\n\n    mapping (uint256 => mapping( string => mapping (address => Bet))) public roundCoinAddressBetsPlaced;\n\n    mapping(uint256 => mapping(string => bool)) public roundCoinWinningIsWinner;\n\n    mapping (address => uint256) totalAmountPlayed;//shows how much every player has placed\n\n    event Predicted(address indexed _placer, uint256 _start, uint _end);\n    \n\n    constructor(\n        \n        //set superfluid specific params, receiver, and accepted token in the constructor\n        \n        ISuperfluid host,//0xF0d7d1D47109bA426B9D8A3Cde1941327af1eea3\n        IConstantFlowAgreementV1 cfa,//0xECa8056809e7e8db04A8fF6e4E82cD889a46FE2F\n        ISuperToken acceptedToken//0xe3cb950cb164a31c66e32c320a800d477019dcff\n        ) {\n        require(address(host) != address(0));\n        require(address(cfa) != address(0));\n        require(address(acceptedToken) != address(0));\n        //require(address(receiver) != address(0));\n        //require(!host.isApp(ISuperApp(receiver)));\n        _host = host;\n        _cfa = cfa;\n        _acceptedToken = acceptedToken;\n        payroundStartTime = block.timestamp;\n\n\n        uint256 configWord =\n            SuperAppDefinitions.APP_LEVEL_FINAL |\n            SuperAppDefinitions.BEFORE_AGREEMENT_CREATED_NOOP |\n            SuperAppDefinitions.BEFORE_AGREEMENT_UPDATED_NOOP |\n            SuperAppDefinitions.BEFORE_AGREEMENT_TERMINATED_NOOP;\n\n        _host.registerApp(configWord);\n\n    }\n    \n    modifier isWinner() {\n        for (uint i =0; i< winers[monthCount].length; i++) {\n            require(winers[monthCount][i] == msg.sender);\n        }\n        _;\n    }\n\n    modifier isAllowedContract() {\n        for (uint i =0; i< contracts.length; i++) {\n            require(contracts[i] == msg.sender);\n        }\n        _;\n    }\n\n    function _updateStorage(\n        uint _start,\n        string memory market\n    ) internal {\n        roundCoinAddressBetsPlaced[coinRound[market]][market][msg.sender].squareStartTime = _start;\n        \n        roundCoinAddressBetsPlaced[coinRound[market]][market][msg.sender].squareEndTime  = (_start + 1800 seconds);\n        //update all the relevant arrays\n        roundCoinPlayerArray[coinRound[market]][market].push(msg.sender);\n        roundCoinStartTimeArray[coinRound[market]][market].push(_start);\n        roundCoinEndTimeArray[coinRound[market]][market].push((_start + 1800 seconds));\n\n    } \n    //predicts an asset\n   function predictAsset(\n        uint256 _start, \n        string memory market\n    ) external\n    {   \n        uint amount = 10000000000000000000;\n        uint duration = 1800 seconds;\n        require(_start > block.timestamp);\n        require(IERC20(Dai).allowance(msg.sender, address(this)) >= amount);\n        IERC20(Dai).transferFrom(msg.sender, address(this), amount);\n        //update the total value played\n        roundCoinInfo[coinRound[market]][market].totalStaked += amount;\n        roundCoinInfo[coinRound[market]][market].winnings += 9000000000000000;\n        totalStaked += amount;\n        aaveDeposit(amount);\n        _updateStorage(_start, market);\n        emit Predicted(msg.sender, _start, (_start + duration));\n    }\n\n\n\n    function aaveDeposit(uint amount) internal {\n        IERC20(Dai).approve(address(lendingPool), amount);\n        lendingPool.deposit(\n            Dai,\n            amount,\n            address(this),\n            0\n        );\n    }\n\n    //gets the price of the asset denoted by market\n    function getPrice(string memory market) public view returns(int256){\n        AggregatorV3Interface priceFeed = AggregatorV3Interface(assetToAggregator[market]); \n        (,int256 answer,,,) = priceFeed.latestRoundData();\n        return int256(answer);\n    }\n\n    //gets the current time\n    function getTime() public view returns(uint256){\n        AggregatorV3Interface priceFeed = AggregatorV3Interface(0x6135b13325bfC4B00278B4abC5e20bbce2D6580e);\n        //Matic network\n        (,,,uint256 answer,) = priceFeed.latestRoundData();\n         return uint256(answer);\n    }\n\n    //it \n    function _checkIndexes(string memory market, uint p) internal view returns(bool){\n        if (\n            roundCoinStartTimeArray[coinRound[market]][market][p] >= roundCoinInfo[coinRound[market]][market].winningTime\n            &&\n            roundCoinEndTimeArray[coinRound[market]][market][p] <= roundCoinInfo[coinRound[market]][market].winningTime\n        ) {\n            return true;\n        } else {\n            return false;\n        }\n    }\n    function setwinningIndex(string memory market) internal {\n        /* we iterate over the squareStartTimeArray(of squareStartTime) and the squareEndTimeArray (of squareEndTime) to assertain that the winning time \n           is either equal to them or more than the squareStartTime but less than the squareEndTime\n        */\n        require(\n            roundCoinEndTimeArray[coinRound[market]][market].length\n            ==\n            roundCoinStartTimeArray[coinRound[market]][market].length\n        );\n        for (uint256 p =0; p < roundCoinStartTimeArray[coinRound[market]][market].length; p++) {\n            if (_checkIndexes(market, p) == true){\n                roundCoinWinningIndex[coinRound[market]][market].push(p);\n            }\n            //round coin start time array of p to be greater or equal to the round coin winning time\n        }\n        //since squares will be owned by more than one person, we set the index to allow us to delagate the claiming reward function to the user.\n    }\n\n    function isAwiner(uint256 _round, string memory market, address checkeAddress) public view returns(bool) {\n        if (roundCoinInfo[_round][market].winningTime == 0) {\n            return false;\n        } else {\n            require(roundCoinInfo[_round][market].winningTime != 0);\n            require(\n                roundCoinAddressBetsPlaced[_round][market][checkeAddress].squareStartTime\n                <=\n                roundCoinInfo[_round][market].winningTime\n            );\n            require(\n                roundCoinAddressBetsPlaced[_round][market][checkeAddress].squareEndTime\n                >=\n                roundCoinInfo[_round][market].winningTime\n            );\n            return true;\n        }\n\n    }\n    //should use superflid's flow if its just one user & instant distribution if there are several winners\n\n     function givePrize( string memory market) private {\n        require(roundCoinWinningIndex[coinRound[market]][market].length != 0);\n        if (roundCoinWinningIndex[coinRound[market]][market].length == 1) {\n    \n            IERC20(Dai).transfer(\n                roundCoinPlayerArray[coinRound[market]][market][roundCoinWinningIndex[coinRound[market]][market][0]],\n                roundCoinInfo[coinRound[market]][market].winnings\n            );\n        } else {\n            for (uint8 i = 0; i < roundCoinWinningIndex[coinRound[market]][market].length; i++) {\n                require(roundCoinPlayerArray[coinRound[market]][market][roundCoinWinningIndex[coinRound[market]][market][i]] == msg.sender);\n                IERC20(Dai).transfer(\n                    roundCoinPlayerArray[coinRound[market]][market][roundCoinWinningIndex[coinRound[market]][market][i]], \n                    roundCoinInfo[coinRound[market]][market].winnings/roundCoinWinningIndex[coinRound[market]][market].length\n                );\n            }\n        }\n        totalPaid += roundCoinInfo[coinRound[market]][market].winnings;\n\n    }\n\n    function setTime(string memory market) private {\n        roundCoinInfo[coinRound[market]][market].winningTime = getTime();\n        setwinningIndex(market);\n        withdrawRoundFundsFromIba(market);\n    }\n\n    function checkUpkeep(\n        bytes calldata checkData\n    ) external view override returns (\n        bool upkeepNeeded, bytes memory performData\n    ) {\n        for (uint256 p = 0; p < allowedAssets.length; p++) {\n        \n            if (\n                getPrice(allowedAssets[p])\n                ==\n                roundCoinInfo[coinRound[allowedAssets[p]]][allowedAssets[p]].moonPrice\n            ) {\n                upkeepNeeded = true;\n                return (true, /* address(this).call( */ abi.encodePacked(uint256(p)));\n            }\n        }\n        if (block.timestamp >= payroundStartTime + 30 days) {\n            upkeepNeeded = true;\n            return (true, abi.encodePacked(uint256(1000)));\n        }\n        performData = checkData;\n        \n    }\n\n    function performUpkeep(bytes calldata performData) external override {\n        uint256 decodedValue = abi.decode(performData, (uint256));\n        if(decodedValue <= allowedAssets.length){\n            setTime(allowedAssets[decodedValue]);\n        }\n        if (decodedValue ==1000) {\n            payroundStartTime +=30 days;\n            withdrawInterest(_aaveToken);\n            flowToPaymentDistributer();\n            distributeToMembers();\n        }\n    }\n\n    modifier allowedToken(address _token) {\n        for(uint i =0; i < allowedPayments.length; i++) {\n            require(allowedPayments[i] == _token);\n        }\n        _;\n    }\n\n    function setwinningCharity() internal{\n        uint128 winning_votes = 0;\n        for (uint i =0; i < charities.length; i++) {\n            if (roundCharityVotes[monthCount][charities[i]] > winning_votes){\n                winning_votes == roundCharityVotes[monthCount][charities[i]];\n                roundVoteResults[monthCount] = charityAddress[i];\n            }\n        }\n        flowDistrubuter.changeReceiverAdress(roundVoteResults[monthCount]);\n        //return charities[i];\n    }\n\n    //withdraws the total Amount after the moonpice gets hit\n    function withdrawRoundFundsFromIba(string memory market) private {\n        require(roundCoinWinningIndex[coinRound[market]][market].length != 0);\n        lendingPool.withdraw(\n            Dai,\n            roundCoinInfo[coinRound[market]][market].winnings,\n            address(this)\n        );\n        \n        //Withdraws Funds from the predictions\n    }\n\n    function distributeToMembers() private {\n        require(monthCount != 0);\n        uint256 cashAmount = _acceptedToken.balanceOf(address(governanceToken));\n        governanceToken.distribute(\n            cashAmount\n        );\n    }\n\n    function withdrawInterest(address aaveToken) private returns(uint) {\n        uint aaveBalance = IERC20(aaveToken).balanceOf(address(this));\n        uint interest = aaveBalance - (totalStaked - totalPaid);\n        lendingPool.withdraw(\n            Dai,\n            interest,\n            address(this)\n        );\n        IERC20(Dai).approve(address(_acceptedToken), interest);\n        ISuperToken(_acceptedToken).upgrade(interest);\n        roundInterestEarned[monthCount] = interest;\n        return(interest);\n        //remember to upgrade the dai for flow\n\n    }\n    //distributes the Interest Earned on the round to members of the Dao\n    function flowToPaymentDistributer() private {\n        //Flows interest earned from the protocal to the redirectAll contract that handles distribution\n            //Flow Winnings\n        int256 toInt = int256(roundInterestEarned[monthCount]);\n        _host.callAgreement(\n            _cfa,\n            abi.encodeWithSelector(\n                _cfa.createFlow.selector,\n                _acceptedToken,\n                address(flowDistrubuter),//address to the distributer that sends funds to charity and Dao\n                (int96(toInt) / 30 days), //should be the total amount of Interest withdrawnfrom the IBA divided by the number of seconds in the withdrawal interval\n                new bytes(0) // placeholder\n            ),\n            \"0x\"\n        );\n        monthCount += 1;\n    }\n\n    function addAssetsAndAggregators(string memory _asset, address _aggregator) public onlyOwner {\n        require(allowedAssets.length < 100);\n        assetToAggregator[_asset] = _aggregator;\n        allowedAssets.push(_asset);\n        assetPriceAggregators.push(_aggregator);\n    }\n\n    function addCharity(bytes8 _charityName, address _charityAddress, bytes32 _link) external onlyOwner {\n        presentCharities[_charityAddress].name = _charityName;\n        presentCharities[_charityAddress].link = _link;\n        charities.push(_charityName);\n        charityAddress.push(_charityAddress);\n    }\n\n    function setMoonPrice(\n        int price,\n        string memory market\n    ) external onlyOwner {\n        roundCoinInfo[coinRound[market]][market] = RoundInfo(\n            price,\n            0,\n            getPrice(market),\n            0,\n            getTime(),\n            0\n        );\n\n    }\n\n    function voteForCharity(bytes8 charity) external isWinner {\n        roundCharityVotes[monthCount][charity] += 1;\n    }\n\n    //adds contracts that call core funtions\n    function addContract(address _conAddress) external onlyOwner{\n        contracts.push(_conAddress);\n    }\n\n    function addGovernanceToken(IGovernanceToken _gtAdress) public isAllowedContract {\n        governanceToken = _gtAdress;\n    }\n    \n    //adds winners to the charity voting pool\n    function addToWinners(address _winner) external isAllowedContract {\n        winers[monthCount].push(_winner);\n    }\n\n    //adds the flow distributor\n    function addFlowDistributor(IRedirect addr) external onlyOwner {\n        flowDistrubuter = addr;\n    }\n}",
  "sourcePath": "contracts/MoonSquares.sol",
  "type": "contract"
}