{
  "abi": [
    {
      "inputs": [
        {
          "internalType": "contract ISuperfluid",
          "name": "host",
          "type": "address"
        },
        {
          "internalType": "contract IConstantFlowAgreementV1",
          "name": "cfa",
          "type": "address"
        },
        {
          "internalType": "contract ISuperToken",
          "name": "acceptedToken",
          "type": "address"
        },
        {
          "internalType": "address",
          "name": "dao",
          "type": "address"
        },
        {
          "internalType": "address",
          "name": "moon",
          "type": "address"
        }
      ],
      "stateMutability": "nonpayable",
      "type": "constructor"
    },
    {
      "anonymous": false,
      "inputs": [
        {
          "indexed": true,
          "internalType": "address",
          "name": "previousOwner",
          "type": "address"
        },
        {
          "indexed": true,
          "internalType": "address",
          "name": "newOwner",
          "type": "address"
        }
      ],
      "name": "OwnershipTransferred",
      "type": "event"
    },
    {
      "anonymous": false,
      "inputs": [
        {
          "indexed": false,
          "internalType": "address",
          "name": "receiver",
          "type": "address"
        }
      ],
      "name": "ReceiverChanged",
      "type": "event"
    },
    {
      "inputs": [
        {
          "internalType": "uint256",
          "name": "",
          "type": "uint256"
        }
      ],
      "name": "_receiver",
      "outputs": [
        {
          "internalType": "address",
          "name": "",
          "type": "address"
        }
      ],
      "stateMutability": "view",
      "type": "function"
    },
    {
      "inputs": [
        {
          "internalType": "contract ISuperToken",
          "name": "_superToken",
          "type": "address"
        },
        {
          "internalType": "address",
          "name": "_agreementClass",
          "type": "address"
        },
        {
          "internalType": "bytes32",
          "name": "",
          "type": "bytes32"
        },
        {
          "internalType": "bytes",
          "name": "",
          "type": "bytes"
        },
        {
          "internalType": "bytes",
          "name": "",
          "type": "bytes"
        },
        {
          "internalType": "bytes",
          "name": "_ctx",
          "type": "bytes"
        }
      ],
      "name": "afterAgreementCreated",
      "outputs": [
        {
          "internalType": "bytes",
          "name": "newCtx",
          "type": "bytes"
        }
      ],
      "stateMutability": "nonpayable",
      "type": "function"
    },
    {
      "inputs": [
        {
          "internalType": "contract ISuperToken",
          "name": "_superToken",
          "type": "address"
        },
        {
          "internalType": "address",
          "name": "_agreementClass",
          "type": "address"
        },
        {
          "internalType": "bytes32",
          "name": "",
          "type": "bytes32"
        },
        {
          "internalType": "bytes",
          "name": "",
          "type": "bytes"
        },
        {
          "internalType": "bytes",
          "name": "",
          "type": "bytes"
        },
        {
          "internalType": "bytes",
          "name": "_ctx",
          "type": "bytes"
        }
      ],
      "name": "afterAgreementTerminated",
      "outputs": [
        {
          "internalType": "bytes",
          "name": "newCtx",
          "type": "bytes"
        }
      ],
      "stateMutability": "nonpayable",
      "type": "function"
    },
    {
      "inputs": [
        {
          "internalType": "contract ISuperToken",
          "name": "_superToken",
          "type": "address"
        },
        {
          "internalType": "address",
          "name": "_agreementClass",
          "type": "address"
        },
        {
          "internalType": "bytes32",
          "name": "",
          "type": "bytes32"
        },
        {
          "internalType": "bytes",
          "name": "",
          "type": "bytes"
        },
        {
          "internalType": "bytes",
          "name": "",
          "type": "bytes"
        },
        {
          "internalType": "bytes",
          "name": "_ctx",
          "type": "bytes"
        }
      ],
      "name": "afterAgreementUpdated",
      "outputs": [
        {
          "internalType": "bytes",
          "name": "newCtx",
          "type": "bytes"
        }
      ],
      "stateMutability": "nonpayable",
      "type": "function"
    },
    {
      "inputs": [
        {
          "internalType": "contract ISuperToken",
          "name": "",
          "type": "address"
        },
        {
          "internalType": "address",
          "name": "",
          "type": "address"
        },
        {
          "internalType": "bytes32",
          "name": "",
          "type": "bytes32"
        },
        {
          "internalType": "bytes",
          "name": "",
          "type": "bytes"
        },
        {
          "internalType": "bytes",
          "name": "",
          "type": "bytes"
        }
      ],
      "name": "beforeAgreementCreated",
      "outputs": [
        {
          "internalType": "bytes",
          "name": "",
          "type": "bytes"
        }
      ],
      "stateMutability": "view",
      "type": "function"
    },
    {
      "inputs": [
        {
          "internalType": "contract ISuperToken",
          "name": "",
          "type": "address"
        },
        {
          "internalType": "address",
          "name": "",
          "type": "address"
        },
        {
          "internalType": "bytes32",
          "name": "",
          "type": "bytes32"
        },
        {
          "internalType": "bytes",
          "name": "",
          "type": "bytes"
        },
        {
          "internalType": "bytes",
          "name": "",
          "type": "bytes"
        }
      ],
      "name": "beforeAgreementTerminated",
      "outputs": [
        {
          "internalType": "bytes",
          "name": "",
          "type": "bytes"
        }
      ],
      "stateMutability": "view",
      "type": "function"
    },
    {
      "inputs": [
        {
          "internalType": "contract ISuperToken",
          "name": "",
          "type": "address"
        },
        {
          "internalType": "address",
          "name": "",
          "type": "address"
        },
        {
          "internalType": "bytes32",
          "name": "",
          "type": "bytes32"
        },
        {
          "internalType": "bytes",
          "name": "",
          "type": "bytes"
        },
        {
          "internalType": "bytes",
          "name": "",
          "type": "bytes"
        }
      ],
      "name": "beforeAgreementUpdated",
      "outputs": [
        {
          "internalType": "bytes",
          "name": "",
          "type": "bytes"
        }
      ],
      "stateMutability": "view",
      "type": "function"
    },
    {
      "inputs": [
        {
          "internalType": "address",
          "name": "_newReceiver",
          "type": "address"
        }
      ],
      "name": "changeReceiverAdress",
      "outputs": [],
      "stateMutability": "nonpayable",
      "type": "function"
    },
    {
      "inputs": [],
      "name": "currentReceiver",
      "outputs": [
        {
          "internalType": "uint256",
          "name": "startTime",
          "type": "uint256"
        },
        {
          "internalType": "address",
          "name": "firstReceiver",
          "type": "address"
        },
        {
          "internalType": "address",
          "name": "secondReceiver",
          "type": "address"
        },
        {
          "internalType": "int96",
          "name": "flowRate",
          "type": "int96"
        }
      ],
      "stateMutability": "view",
      "type": "function"
    },
    {
      "inputs": [],
      "name": "owner",
      "outputs": [
        {
          "internalType": "address",
          "name": "",
          "type": "address"
        }
      ],
      "stateMutability": "view",
      "type": "function"
    },
    {
      "inputs": [],
      "name": "renounceOwnership",
      "outputs": [],
      "stateMutability": "nonpayable",
      "type": "function"
    },
    {
      "inputs": [
        {
          "internalType": "address",
          "name": "newOwner",
          "type": "address"
        }
      ],
      "name": "transferOwnership",
      "outputs": [],
      "stateMutability": "nonpayable",
      "type": "function"
    }
  ],
  "bytecode": "60806040523480156200001157600080fd5b5060405162001b8738038062001b87833981016040819052620000349162000256565b6200003f3362000206565b6001600160a01b0385166200009b5760405162461bcd60e51b815260206004820152601460248201527f686f7374206973207a65726f206164647265737300000000000000000000000060448201526064015b60405180910390fd5b6001600160a01b038416620000f35760405162461bcd60e51b815260206004820152601360248201527f636661206973207a65726f206164647265737300000000000000000000000000604482015260640162000092565b6001600160a01b0383166200014b5760405162461bcd60e51b815260206004820152601d60248201527f6163636570746564546f6b656e206973207a65726f2061646472657373000000604482015260640162000092565b600180546001600160a01b03199081166001600160a01b0388811691821790935560028054831688851617905560038054831687851617905560068054831685851617905560048054938616939092169290921781556040516315a722b960e31b815264150000000191810182905290919063ad3915c890602401600060405180830381600087803b158015620001e157600080fd5b505af1158015620001f6573d6000803e3d6000fd5b50505050505050505050620002ef565b600080546001600160a01b038381166001600160a01b0319831681178455604051919092169283917f8be0079c531659141344cd1fd0a4f28419497f9722a3daafe3b4186f6b6457e09190a35050565b600080600080600060a086880312156200026f57600080fd5b85516200027c81620002d6565b60208701519095506200028f81620002d6565b6040870151909450620002a281620002d6565b6060870151909350620002b581620002d6565b6080870151909250620002c881620002d6565b809150509295509295909350565b6001600160a01b0381168114620002ec57600080fd5b50565b61188880620002ff6000396000f3fe608060405234801561001057600080fd5b50600436106100b45760003560e01c8063715018a611610071578063715018a61461016b578063884d1f40146101735780638da5cb5b14610186578063be68e43c146101ab578063d86ed3e5146100ce578063f2fde38b146101be57600080fd5b806308cf4b28146100b9578063230dbd29146100ce57806328d2bf94146100f757806330d9c9151461013257806353c11f99146101455780635f9e7d7714610158575b600080fd5b6100cc6100c73660046111fe565b6101d1565b005b6100e16100dc36600461139d565b6101f4565b6040516100ee9190611504565b60405180910390f35b6100ff610304565b6040516100ee94939291909384526001600160a01b03928316602085015291166040830152600b0b606082015260800190565b6100e16101403660046112fe565b6103c0565b6100e161015336600461139d565b610423565b6100e16101663660046112fe565b6104d1565b6100cc610538565b6100e16101813660046112fe565b61059e565b6000546001600160a01b03165b6040516001600160a01b0390911681526020016100ee565b6101936101b9366004611483565b610601565b6100cc6101cc3660046111fe565b610621565b6006546001600160a01b031633146101e857600080fd5b6101f1816106e9565b50565b60608989610210826003546001600160a01b0391821691161490565b6102615760405162461bcd60e51b815260206004820152601f60248201527f5265646972656374416c6c3a206e6f7420616363657074656420746f6b656e0060448201526064015b60405180910390fd5b61026a81610bb3565b6102c05760405162461bcd60e51b815260206004820152602160248201527f5265646972656374416c6c3a206f6e6c7920434641763120737570706f7274656044820152601960fa1b6064820152608401610258565b6001546001600160a01b031633146102ea5760405162461bcd60e51b815260040161025890611628565b6102f48585610c4e565b9c9b505050505050505050505050565b600254600354600554604051631cd43d1160e31b81526001600160a01b0392831660048201523060248201529082166044820152600092839283928392919091169063e6a1e8889060640160806040518083038186803b15801561036757600080fd5b505afa15801561037b573d6000803e3d6000fd5b505050506040513d601f19601f8201168201806040525081019061039f919061149c565b505060045460055492976001600160a01b0391821697509216945092509050565b60405162461bcd60e51b815260206004820152602f60248201527f556e737570706f727465642063616c6c6261636b202d204265666f726520416760448201526e1c99595b595b9d0810dc99585d1959608a1b6064820152606090608401610258565b6001546060906001600160a01b031633146104505760405162461bcd60e51b815260040161025890611628565b6003546001600160a01b038b81169116141580610473575061047189610bb3565b155b156104b75782828080601f0160208091040260200160405190810160405280939291908181526020018383808284376000920191909152509293506104c492505050565b6104c18383610c4e565b90505b9998505050505050505050565b60405162461bcd60e51b815260206004820152603360248201527f556e737570706f727465642063616c6c6261636b202d20204265666f7265204160448201527219dc99595b595b9d0815195c9b5a5b985d1959606a1b6064820152606090608401610258565b6000546001600160a01b031633146105925760405162461bcd60e51b815260206004820181905260248201527f4f776e61626c653a2063616c6c6572206973206e6f7420746865206f776e65726044820152606401610258565b61059c60006110c6565b565b60405162461bcd60e51b815260206004820152602f60248201527f556e737570706f727465642063616c6c6261636b202d204265666f726520416760448201526e1c99595b595b9d081d5c19185d1959608a1b6064820152606090608401610258565b6004816002811061061157600080fd5b01546001600160a01b0316905081565b6000546001600160a01b0316331461067b5760405162461bcd60e51b815260206004820181905260248201527f4f776e61626c653a2063616c6c6572206973206e6f7420746865206f776e65726044820152606401610258565b6001600160a01b0381166106e05760405162461bcd60e51b815260206004820152602660248201527f4f776e61626c653a206e6577206f776e657220697320746865207a65726f206160448201526564647265737360d01b6064820152608401610258565b6101f1816110c6565b6001600160a01b03811661073f5760405162461bcd60e51b815260206004820152601c60248201527f4e6577207265636569766572206973207a65726f2061646472657373000000006044820152606401610258565b600154604051631e51d6a760e11b81526001600160a01b03838116600483015290911690633ca3ad4e9060240160206040518083038186803b15801561078457600080fd5b505afa158015610798573d6000803e3d6000fd5b505050506040513d601f19601f820116820180604052508101906107bc9190611222565b156108145760405162461bcd60e51b815260206004820152602260248201527f4e65772072656365697665722063616e206e6f74206265206120737570657241604482015261070760f41b6064820152608401610258565b6004546001600160a01b03828116911614158061083f57506005546001600160a01b03828116911614155b61084857600080fd5b60025460035460048054604051631cd43d1160e31b81526001600160a01b039384169281019290925230602483015282166044820152600092919091169063e6a1e8889060640160806040518083038186803b1580156108a757600080fd5b505afa1580156108bb573d6000803e3d6000fd5b505050506040513d601f19601f820116820180604052508101906108df919061149c565b5050915050600081600b0b1315610b5f576001546002546003546005546040805160008152602081019091526001600160a01b03948516946339255d5b94811693635a5999e360e11b9361093f93918316923092911690604481016115be565b60408051601f198184030181529181526020820180516001600160e01b03166001600160e01b03199485161790525160e085901b90921682526109859291600401611517565b600060405180830381600087803b15801561099f57600080fd5b505af11580156109b3573d6000803e3d6000fd5b505050506040513d6000823e601f3d908101601f191682016040526109db919081019061125d565b50600580546001600160a01b038085166001600160a01b031990921682179092556001546002546003805460405163e8e7e2d160e01b815290861660048201819052306024830152938616956339255d5b9593169363317e182f60e11b9390929091859063e8e7e2d19060440160206040518083038186803b158015610a6057600080fd5b505afa158015610a74573d6000803e3d6000fd5b505050506040513d601f19601f82011682018060405250810190610a989190611468565b610aa291906116b9565b604080516000815260208101909152610ac193929190604481016115f2565b60408051601f198184030181529181526020820180516001600160e01b03166001600160e01b03199485161790525160e085901b9092168252610b079291600401611517565b600060405180830381600087803b158015610b2157600080fd5b505af1158015610b35573d6000803e3d6000fd5b505050506040513d6000823e601f3d908101601f19168201604052610b5d919081019061125d565b505b600580546001600160a01b0319166001600160a01b03841690811790915560408051918252517f7dfb1d59db37a3fd2e15e796c189dcab714cdbb18650d68a1de58f8fa60718c99181900360200190a15050565b60007fa9214cc96615e0085d3bb077758db69497dc2dce3b2b1e97bc93c3d18d83efd3826001600160a01b0316637730599e6040518163ffffffff1660e01b815260040160206040518083038186803b158015610c0f57600080fd5b505afa158015610c23573d6000803e3d6000fd5b505050506040513d601f19601f82011682018060405250810190610c479190611244565b1492915050565b606082828080601f01602080910402602001604051908101604052809392919081815260200183838082843760009201829052509394505050505b6002816001600160601b031610156110bf5760025460035460405163e8e7e2d160e01b81526001600160a01b039182166004820152306024820152600092919091169063e8e7e2d19060440160206040518083038186803b158015610ced57600080fd5b505afa158015610d01573d6000803e3d6000fd5b505050506040513d601f19601f82011682018060405250810190610d259190611468565b60025460035460048054604051631cd43d1160e31b81526001600160a01b03938416928101929092523060248301528216604482015292935060009291169063e6a1e8889060640160806040518083038186803b158015610d8557600080fd5b505afa158015610d99573d6000803e3d6000fd5b505050506040513d601f19601f82011682018060405250810190610dbd919061149c565b50509150506000816003610dd1919061170a565b610ddb908461166a565b9050600b81900b610f0157600154600280546003546001600160a01b0393841693634329d2939392811692635a5999e360e11b929091169030906004906001600160601b038c16908110610e3157610e31611811565b0154604080516000815260208101909152610e5b9392916001600160a01b031690604481016115be565b60408051601f198184030181529181526020820180516001600160e01b03166001600160e01b03199485161790525160e085901b9092168252610ea392918a90600401611565565b600060405180830381600087803b158015610ebd57600080fd5b505af1158015610ed1573d6000803e3d6000fd5b505050506040513d6000823e601f3d908101601f19168201604052610ef9919081019061129a565b5094506110a9565b600b82900b15610f8957600154600280546003546001600160a01b0393841693634329d29393928116926328104d3160e11b92909116906004906001600160601b038b16908110610f5457610f54611811565b01546001600160a01b0316610f6a6002886116b9565b604080516000815260208101909152610e5b93929190604481016115f2565b600154600280546003546001600160a01b0393841693634329d293939281169263317e182f60e11b92909116906004906001600160601b038b16908110610fd257610fd2611811565b01546001600160a01b0316610fe86002886116b9565b60408051600081526020810190915261100793929190604481016115f2565b60408051601f198184030181529181526020820180516001600160e01b03166001600160e01b03199485161790525160e085901b909216825261104f92918a90600401611565565b600060405180830381600087803b15801561106957600080fd5b505af115801561107d573d6000803e3d6000fd5b505050506040513d6000823e601f3d908101601f191682016040526110a5919081019061129a565b5094505b50505080806110b7906117d4565b915050610c89565b5092915050565b600080546001600160a01b038381166001600160a01b0319831681178455604051919092169283917f8be0079c531659141344cd1fd0a4f28419497f9722a3daafe3b4186f6b6457e09190a35050565b60008083601f84011261112857600080fd5b50813567ffffffffffffffff81111561114057600080fd5b60208301915083602082850101111561115857600080fd5b9250929050565b600082601f83011261117057600080fd5b815167ffffffffffffffff8082111561118b5761118b611827565b604051601f8301601f19908116603f011681019082821181831017156111b3576111b3611827565b816040528381528660208588010111156111cc57600080fd5b6111dd8460208301602089016117a4565b9695505050505050565b8051600b81900b81146111f957600080fd5b919050565b60006020828403121561121057600080fd5b813561121b8161183d565b9392505050565b60006020828403121561123457600080fd5b8151801515811461121b57600080fd5b60006020828403121561125657600080fd5b5051919050565b60006020828403121561126f57600080fd5b815167ffffffffffffffff81111561128657600080fd5b6112928482850161115f565b949350505050565b600080604083850312156112ad57600080fd5b825167ffffffffffffffff808211156112c557600080fd5b6112d18683870161115f565b935060208501519150808211156112e757600080fd5b506112f48582860161115f565b9150509250929050565b600080600080600080600060a0888a03121561131957600080fd5b87356113248161183d565b965060208801356113348161183d565b955060408801359450606088013567ffffffffffffffff8082111561135857600080fd5b6113648b838c01611116565b909650945060808a013591508082111561137d57600080fd5b5061138a8a828b01611116565b989b979a50959850939692959293505050565b600080600080600080600080600060c08a8c0312156113bb57600080fd5b89356113c68161183d565b985060208a01356113d68161183d565b975060408a0135965060608a013567ffffffffffffffff808211156113fa57600080fd5b6114068d838e01611116565b909850965060808c013591508082111561141f57600080fd5b61142b8d838e01611116565b909650945060a08c013591508082111561144457600080fd5b506114518c828d01611116565b915080935050809150509295985092959850929598565b60006020828403121561147a57600080fd5b61121b826111e7565b60006020828403121561149557600080fd5b5035919050565b600080600080608085870312156114b257600080fd5b845193506114c2602086016111e7565b6040860151606090960151949790965092505050565b600081518084526114f08160208601602086016117a4565b601f01601f19169290920160200192915050565b60208152600061121b60208301846114d8565b6001600160a01b038316815260606020820181905260009061153b908301846114d8565b828103604084015261155c816002815261060f60f31b602082015260400190565b95945050505050565b6001600160a01b0384168152608060208201819052600090611589908301856114d8565b82810360408401526115aa816002815261060f60f31b602082015260400190565b905082810360608401526111dd81856114d8565b6001600160a01b0385811682528481166020830152831660408201526080606082018190526000906111dd908301846114d8565b6001600160a01b03858116825284166020820152600b83900b60408201526080606082018190526000906111dd908301846114d8565b60208082526022908201527f5265646972656374416c6c3a20737570706f7274206f6e6c79206f6e6520686f6040820152611cdd60f21b606082015260800190565b600081600b0b83600b0b600082128260016001605f1b0303821381151615611694576116946117fb565b8260016001605f1b03190382128116156116b0576116b06117fb565b50019392505050565b600081600b0b83600b0b806116de57634e487b7160e01b600052601260045260246000fd5b6b7fffffffffffffffffffffff19821460001982141615611701576117016117fb565b90059392505050565b600081600b0b83600b0b60016001605f1b0360008213600084138383048511828216161561173a5761173a6117fb565b6b7fffffffffffffffffffffff196000851282811687830587121615611762576117626117fb565b6000871292508582058712848416161561177e5761177e6117fb565b85850587128184161615611794576117946117fb565b5050509290910295945050505050565b60005b838110156117bf5781810151838201526020016117a7565b838111156117ce576000848401525b50505050565b60006001600160601b03808316818114156117f1576117f16117fb565b6001019392505050565b634e487b7160e01b600052601160045260246000fd5b634e487b7160e01b600052603260045260246000fd5b634e487b7160e01b600052604160045260246000fd5b6001600160a01b03811681146101f157600080fdfea264697066735822122059cba798f401bbeb114863b4b6b957bb9a945f2d534a10cf35245297a69d1ccc64736f6c63430008070033",
  "bytecodeSha1": "a89958f3bc861baf05e061273f69ada7705ece90",
  "compiler": {
    "evm_version": "istanbul",
    "optimizer": {
      "enabled": true,
      "runs": 200
    },
    "version": "0.8.7+commit.e28d00a7"
  },
  "contractName": "RedirectAll",
  "language": "Solidity",
  "natspec": {
    "kind": "dev",
    "methods": {
      "owner()": {
        "details": "Returns the address of the current owner."
      },
      "renounceOwnership()": {
        "details": "Leaves the contract without owner. It will not be possible to call `onlyOwner` functions anymore. Can only be called by the current owner. NOTE: Renouncing ownership will leave the contract without an owner, thereby removing any functionality that is only available to the owner."
      },
      "transferOwnership(address)": {
        "details": "Transfers ownership of the contract to a new account (`newOwner`). Can only be called by the current owner."
      }
    },
    "version": 1
  },
  "opcodes": "PUSH1 0x80 PUSH1 0x40 MSTORE CALLVALUE DUP1 ISZERO PUSH2 0x10 JUMPI PUSH1 0x0 DUP1 REVERT JUMPDEST POP PUSH1 0x4 CALLDATASIZE LT PUSH2 0xB4 JUMPI PUSH1 0x0 CALLDATALOAD PUSH1 0xE0 SHR DUP1 PUSH4 0x715018A6 GT PUSH2 0x71 JUMPI DUP1 PUSH4 0x715018A6 EQ PUSH2 0x16B JUMPI DUP1 PUSH4 0x884D1F40 EQ PUSH2 0x173 JUMPI DUP1 PUSH4 0x8DA5CB5B EQ PUSH2 0x186 JUMPI DUP1 PUSH4 0xBE68E43C EQ PUSH2 0x1AB JUMPI DUP1 PUSH4 0xD86ED3E5 EQ PUSH2 0xCE JUMPI DUP1 PUSH4 0xF2FDE38B EQ PUSH2 0x1BE JUMPI PUSH1 0x0 DUP1 REVERT JUMPDEST DUP1 PUSH4 0x8CF4B28 EQ PUSH2 0xB9 JUMPI DUP1 PUSH4 0x230DBD29 EQ PUSH2 0xCE JUMPI DUP1 PUSH4 0x28D2BF94 EQ PUSH2 0xF7 JUMPI DUP1 PUSH4 0x30D9C915 EQ PUSH2 0x132 JUMPI DUP1 PUSH4 0x53C11F99 EQ PUSH2 0x145 JUMPI DUP1 PUSH4 0x5F9E7D77 EQ PUSH2 0x158 JUMPI JUMPDEST PUSH1 0x0 DUP1 REVERT JUMPDEST PUSH2 0xCC PUSH2 0xC7 CALLDATASIZE PUSH1 0x4 PUSH2 0x11FE JUMP JUMPDEST PUSH2 0x1D1 JUMP JUMPDEST STOP JUMPDEST PUSH2 0xE1 PUSH2 0xDC CALLDATASIZE PUSH1 0x4 PUSH2 0x139D JUMP JUMPDEST PUSH2 0x1F4 JUMP JUMPDEST PUSH1 0x40 MLOAD PUSH2 0xEE SWAP2 SWAP1 PUSH2 0x1504 JUMP JUMPDEST PUSH1 0x40 MLOAD DUP1 SWAP2 SUB SWAP1 RETURN JUMPDEST PUSH2 0xFF PUSH2 0x304 JUMP JUMPDEST PUSH1 0x40 MLOAD PUSH2 0xEE SWAP5 SWAP4 SWAP3 SWAP2 SWAP1 SWAP4 DUP5 MSTORE PUSH1 0x1 PUSH1 0x1 PUSH1 0xA0 SHL SUB SWAP3 DUP4 AND PUSH1 0x20 DUP6 ADD MSTORE SWAP2 AND PUSH1 0x40 DUP4 ADD MSTORE PUSH1 0xB SIGNEXTEND PUSH1 0x60 DUP3 ADD MSTORE PUSH1 0x80 ADD SWAP1 JUMP JUMPDEST PUSH2 0xE1 PUSH2 0x140 CALLDATASIZE PUSH1 0x4 PUSH2 0x12FE JUMP JUMPDEST PUSH2 0x3C0 JUMP JUMPDEST PUSH2 0xE1 PUSH2 0x153 CALLDATASIZE PUSH1 0x4 PUSH2 0x139D JUMP JUMPDEST PUSH2 0x423 JUMP JUMPDEST PUSH2 0xE1 PUSH2 0x166 CALLDATASIZE PUSH1 0x4 PUSH2 0x12FE JUMP JUMPDEST PUSH2 0x4D1 JUMP JUMPDEST PUSH2 0xCC PUSH2 0x538 JUMP JUMPDEST PUSH2 0xE1 PUSH2 0x181 CALLDATASIZE PUSH1 0x4 PUSH2 0x12FE JUMP JUMPDEST PUSH2 0x59E JUMP JUMPDEST PUSH1 0x0 SLOAD PUSH1 0x1 PUSH1 0x1 PUSH1 0xA0 SHL SUB AND JUMPDEST PUSH1 0x40 MLOAD PUSH1 0x1 PUSH1 0x1 PUSH1 0xA0 SHL SUB SWAP1 SWAP2 AND DUP2 MSTORE PUSH1 0x20 ADD PUSH2 0xEE JUMP JUMPDEST PUSH2 0x193 PUSH2 0x1B9 CALLDATASIZE PUSH1 0x4 PUSH2 0x1483 JUMP JUMPDEST PUSH2 0x601 JUMP JUMPDEST PUSH2 0xCC PUSH2 0x1CC CALLDATASIZE PUSH1 0x4 PUSH2 0x11FE JUMP JUMPDEST PUSH2 0x621 JUMP JUMPDEST PUSH1 0x6 SLOAD PUSH1 0x1 PUSH1 0x1 PUSH1 0xA0 SHL SUB AND CALLER EQ PUSH2 0x1E8 JUMPI PUSH1 0x0 DUP1 REVERT JUMPDEST PUSH2 0x1F1 DUP2 PUSH2 0x6E9 JUMP JUMPDEST POP JUMP JUMPDEST PUSH1 0x60 DUP10 DUP10 PUSH2 0x210 DUP3 PUSH1 0x3 SLOAD PUSH1 0x1 PUSH1 0x1 PUSH1 0xA0 SHL SUB SWAP2 DUP3 AND SWAP2 AND EQ SWAP1 JUMP JUMPDEST PUSH2 0x261 JUMPI PUSH1 0x40 MLOAD PUSH3 0x461BCD PUSH1 0xE5 SHL DUP2 MSTORE PUSH1 0x20 PUSH1 0x4 DUP3 ADD MSTORE PUSH1 0x1F PUSH1 0x24 DUP3 ADD MSTORE PUSH32 0x5265646972656374416C6C3A206E6F7420616363657074656420746F6B656E00 PUSH1 0x44 DUP3 ADD MSTORE PUSH1 0x64 ADD JUMPDEST PUSH1 0x40 MLOAD DUP1 SWAP2 SUB SWAP1 REVERT JUMPDEST PUSH2 0x26A DUP2 PUSH2 0xBB3 JUMP JUMPDEST PUSH2 0x2C0 JUMPI PUSH1 0x40 MLOAD PUSH3 0x461BCD PUSH1 0xE5 SHL DUP2 MSTORE PUSH1 0x20 PUSH1 0x4 DUP3 ADD MSTORE PUSH1 0x21 PUSH1 0x24 DUP3 ADD MSTORE PUSH32 0x5265646972656374416C6C3A206F6E6C7920434641763120737570706F727465 PUSH1 0x44 DUP3 ADD MSTORE PUSH1 0x19 PUSH1 0xFA SHL PUSH1 0x64 DUP3 ADD MSTORE PUSH1 0x84 ADD PUSH2 0x258 JUMP JUMPDEST PUSH1 0x1 SLOAD PUSH1 0x1 PUSH1 0x1 PUSH1 0xA0 SHL SUB AND CALLER EQ PUSH2 0x2EA JUMPI PUSH1 0x40 MLOAD PUSH3 0x461BCD PUSH1 0xE5 SHL DUP2 MSTORE PUSH1 0x4 ADD PUSH2 0x258 SWAP1 PUSH2 0x1628 JUMP JUMPDEST PUSH2 0x2F4 DUP6 DUP6 PUSH2 0xC4E JUMP JUMPDEST SWAP13 SWAP12 POP POP POP POP POP POP POP POP POP POP POP POP JUMP JUMPDEST PUSH1 0x2 SLOAD PUSH1 0x3 SLOAD PUSH1 0x5 SLOAD PUSH1 0x40 MLOAD PUSH4 0x1CD43D11 PUSH1 0xE3 SHL DUP2 MSTORE PUSH1 0x1 PUSH1 0x1 PUSH1 0xA0 SHL SUB SWAP3 DUP4 AND PUSH1 0x4 DUP3 ADD MSTORE ADDRESS PUSH1 0x24 DUP3 ADD MSTORE SWAP1 DUP3 AND PUSH1 0x44 DUP3 ADD MSTORE PUSH1 0x0 SWAP3 DUP4 SWAP3 DUP4 SWAP3 DUP4 SWAP3 SWAP2 SWAP1 SWAP2 AND SWAP1 PUSH4 0xE6A1E888 SWAP1 PUSH1 0x64 ADD PUSH1 0x80 PUSH1 0x40 MLOAD DUP1 DUP4 SUB DUP2 DUP7 DUP1 EXTCODESIZE ISZERO DUP1 ISZERO PUSH2 0x367 JUMPI PUSH1 0x0 DUP1 REVERT JUMPDEST POP GAS STATICCALL ISZERO DUP1 ISZERO PUSH2 0x37B JUMPI RETURNDATASIZE PUSH1 0x0 DUP1 RETURNDATACOPY RETURNDATASIZE PUSH1 0x0 REVERT JUMPDEST POP POP POP POP PUSH1 0x40 MLOAD RETURNDATASIZE PUSH1 0x1F NOT PUSH1 0x1F DUP3 ADD AND DUP3 ADD DUP1 PUSH1 0x40 MSTORE POP DUP2 ADD SWAP1 PUSH2 0x39F SWAP2 SWAP1 PUSH2 0x149C JUMP JUMPDEST POP POP PUSH1 0x4 SLOAD PUSH1 0x5 SLOAD SWAP3 SWAP8 PUSH1 0x1 PUSH1 0x1 PUSH1 0xA0 SHL SUB SWAP2 DUP3 AND SWAP8 POP SWAP3 AND SWAP5 POP SWAP3 POP SWAP1 POP JUMP JUMPDEST PUSH1 0x40 MLOAD PUSH3 0x461BCD PUSH1 0xE5 SHL DUP2 MSTORE PUSH1 0x20 PUSH1 0x4 DUP3 ADD MSTORE PUSH1 0x2F PUSH1 0x24 DUP3 ADD MSTORE PUSH32 0x556E737570706F727465642063616C6C6261636B202D204265666F7265204167 PUSH1 0x44 DUP3 ADD MSTORE PUSH15 0x1C99595B595B9D0810DC99585D1959 PUSH1 0x8A SHL PUSH1 0x64 DUP3 ADD MSTORE PUSH1 0x60 SWAP1 PUSH1 0x84 ADD PUSH2 0x258 JUMP JUMPDEST PUSH1 0x1 SLOAD PUSH1 0x60 SWAP1 PUSH1 0x1 PUSH1 0x1 PUSH1 0xA0 SHL SUB AND CALLER EQ PUSH2 0x450 JUMPI PUSH1 0x40 MLOAD PUSH3 0x461BCD PUSH1 0xE5 SHL DUP2 MSTORE PUSH1 0x4 ADD PUSH2 0x258 SWAP1 PUSH2 0x1628 JUMP JUMPDEST PUSH1 0x3 SLOAD PUSH1 0x1 PUSH1 0x1 PUSH1 0xA0 SHL SUB DUP12 DUP2 AND SWAP2 AND EQ ISZERO DUP1 PUSH2 0x473 JUMPI POP PUSH2 0x471 DUP10 PUSH2 0xBB3 JUMP JUMPDEST ISZERO JUMPDEST ISZERO PUSH2 0x4B7 JUMPI DUP3 DUP3 DUP1 DUP1 PUSH1 0x1F ADD PUSH1 0x20 DUP1 SWAP2 DIV MUL PUSH1 0x20 ADD PUSH1 0x40 MLOAD SWAP1 DUP2 ADD PUSH1 0x40 MSTORE DUP1 SWAP4 SWAP3 SWAP2 SWAP1 DUP2 DUP2 MSTORE PUSH1 0x20 ADD DUP4 DUP4 DUP1 DUP3 DUP5 CALLDATACOPY PUSH1 0x0 SWAP3 ADD SWAP2 SWAP1 SWAP2 MSTORE POP SWAP3 SWAP4 POP PUSH2 0x4C4 SWAP3 POP POP POP JUMP JUMPDEST PUSH2 0x4C1 DUP4 DUP4 PUSH2 0xC4E JUMP JUMPDEST SWAP1 POP JUMPDEST SWAP10 SWAP9 POP POP POP POP POP POP POP POP POP JUMP JUMPDEST PUSH1 0x40 MLOAD PUSH3 0x461BCD PUSH1 0xE5 SHL DUP2 MSTORE PUSH1 0x20 PUSH1 0x4 DUP3 ADD MSTORE PUSH1 0x33 PUSH1 0x24 DUP3 ADD MSTORE PUSH32 0x556E737570706F727465642063616C6C6261636B202D20204265666F72652041 PUSH1 0x44 DUP3 ADD MSTORE PUSH19 0x19DC99595B595B9D0815195C9B5A5B985D1959 PUSH1 0x6A SHL PUSH1 0x64 DUP3 ADD MSTORE PUSH1 0x60 SWAP1 PUSH1 0x84 ADD PUSH2 0x258 JUMP JUMPDEST PUSH1 0x0 SLOAD PUSH1 0x1 PUSH1 0x1 PUSH1 0xA0 SHL SUB AND CALLER EQ PUSH2 0x592 JUMPI PUSH1 0x40 MLOAD PUSH3 0x461BCD PUSH1 0xE5 SHL DUP2 MSTORE PUSH1 0x20 PUSH1 0x4 DUP3 ADD DUP2 SWAP1 MSTORE PUSH1 0x24 DUP3 ADD MSTORE PUSH32 0x4F776E61626C653A2063616C6C6572206973206E6F7420746865206F776E6572 PUSH1 0x44 DUP3 ADD MSTORE PUSH1 0x64 ADD PUSH2 0x258 JUMP JUMPDEST PUSH2 0x59C PUSH1 0x0 PUSH2 0x10C6 JUMP JUMPDEST JUMP JUMPDEST PUSH1 0x40 MLOAD PUSH3 0x461BCD PUSH1 0xE5 SHL DUP2 MSTORE PUSH1 0x20 PUSH1 0x4 DUP3 ADD MSTORE PUSH1 0x2F PUSH1 0x24 DUP3 ADD MSTORE PUSH32 0x556E737570706F727465642063616C6C6261636B202D204265666F7265204167 PUSH1 0x44 DUP3 ADD MSTORE PUSH15 0x1C99595B595B9D081D5C19185D1959 PUSH1 0x8A SHL PUSH1 0x64 DUP3 ADD MSTORE PUSH1 0x60 SWAP1 PUSH1 0x84 ADD PUSH2 0x258 JUMP JUMPDEST PUSH1 0x4 DUP2 PUSH1 0x2 DUP2 LT PUSH2 0x611 JUMPI PUSH1 0x0 DUP1 REVERT JUMPDEST ADD SLOAD PUSH1 0x1 PUSH1 0x1 PUSH1 0xA0 SHL SUB AND SWAP1 POP DUP2 JUMP JUMPDEST PUSH1 0x0 SLOAD PUSH1 0x1 PUSH1 0x1 PUSH1 0xA0 SHL SUB AND CALLER EQ PUSH2 0x67B JUMPI PUSH1 0x40 MLOAD PUSH3 0x461BCD PUSH1 0xE5 SHL DUP2 MSTORE PUSH1 0x20 PUSH1 0x4 DUP3 ADD DUP2 SWAP1 MSTORE PUSH1 0x24 DUP3 ADD MSTORE PUSH32 0x4F776E61626C653A2063616C6C6572206973206E6F7420746865206F776E6572 PUSH1 0x44 DUP3 ADD MSTORE PUSH1 0x64 ADD PUSH2 0x258 JUMP JUMPDEST PUSH1 0x1 PUSH1 0x1 PUSH1 0xA0 SHL SUB DUP2 AND PUSH2 0x6E0 JUMPI PUSH1 0x40 MLOAD PUSH3 0x461BCD PUSH1 0xE5 SHL DUP2 MSTORE PUSH1 0x20 PUSH1 0x4 DUP3 ADD MSTORE PUSH1 0x26 PUSH1 0x24 DUP3 ADD MSTORE PUSH32 0x4F776E61626C653A206E6577206F776E657220697320746865207A65726F2061 PUSH1 0x44 DUP3 ADD MSTORE PUSH6 0x646472657373 PUSH1 0xD0 SHL PUSH1 0x64 DUP3 ADD MSTORE PUSH1 0x84 ADD PUSH2 0x258 JUMP JUMPDEST PUSH2 0x1F1 DUP2 PUSH2 0x10C6 JUMP JUMPDEST PUSH1 0x1 PUSH1 0x1 PUSH1 0xA0 SHL SUB DUP2 AND PUSH2 0x73F JUMPI PUSH1 0x40 MLOAD PUSH3 0x461BCD PUSH1 0xE5 SHL DUP2 MSTORE PUSH1 0x20 PUSH1 0x4 DUP3 ADD MSTORE PUSH1 0x1C PUSH1 0x24 DUP3 ADD MSTORE PUSH32 0x4E6577207265636569766572206973207A65726F206164647265737300000000 PUSH1 0x44 DUP3 ADD MSTORE PUSH1 0x64 ADD PUSH2 0x258 JUMP JUMPDEST PUSH1 0x1 SLOAD PUSH1 0x40 MLOAD PUSH4 0x1E51D6A7 PUSH1 0xE1 SHL DUP2 MSTORE PUSH1 0x1 PUSH1 0x1 PUSH1 0xA0 SHL SUB DUP4 DUP2 AND PUSH1 0x4 DUP4 ADD MSTORE SWAP1 SWAP2 AND SWAP1 PUSH4 0x3CA3AD4E SWAP1 PUSH1 0x24 ADD PUSH1 0x20 PUSH1 0x40 MLOAD DUP1 DUP4 SUB DUP2 DUP7 DUP1 EXTCODESIZE ISZERO DUP1 ISZERO PUSH2 0x784 JUMPI PUSH1 0x0 DUP1 REVERT JUMPDEST POP GAS STATICCALL ISZERO DUP1 ISZERO PUSH2 0x798 JUMPI RETURNDATASIZE PUSH1 0x0 DUP1 RETURNDATACOPY RETURNDATASIZE PUSH1 0x0 REVERT JUMPDEST POP POP POP POP PUSH1 0x40 MLOAD RETURNDATASIZE PUSH1 0x1F NOT PUSH1 0x1F DUP3 ADD AND DUP3 ADD DUP1 PUSH1 0x40 MSTORE POP DUP2 ADD SWAP1 PUSH2 0x7BC SWAP2 SWAP1 PUSH2 0x1222 JUMP JUMPDEST ISZERO PUSH2 0x814 JUMPI PUSH1 0x40 MLOAD PUSH3 0x461BCD PUSH1 0xE5 SHL DUP2 MSTORE PUSH1 0x20 PUSH1 0x4 DUP3 ADD MSTORE PUSH1 0x22 PUSH1 0x24 DUP3 ADD MSTORE PUSH32 0x4E65772072656365697665722063616E206E6F74206265206120737570657241 PUSH1 0x44 DUP3 ADD MSTORE PUSH2 0x707 PUSH1 0xF4 SHL PUSH1 0x64 DUP3 ADD MSTORE PUSH1 0x84 ADD PUSH2 0x258 JUMP JUMPDEST PUSH1 0x4 SLOAD PUSH1 0x1 PUSH1 0x1 PUSH1 0xA0 SHL SUB DUP3 DUP2 AND SWAP2 AND EQ ISZERO DUP1 PUSH2 0x83F JUMPI POP PUSH1 0x5 SLOAD PUSH1 0x1 PUSH1 0x1 PUSH1 0xA0 SHL SUB DUP3 DUP2 AND SWAP2 AND EQ ISZERO JUMPDEST PUSH2 0x848 JUMPI PUSH1 0x0 DUP1 REVERT JUMPDEST PUSH1 0x2 SLOAD PUSH1 0x3 SLOAD PUSH1 0x4 DUP1 SLOAD PUSH1 0x40 MLOAD PUSH4 0x1CD43D11 PUSH1 0xE3 SHL DUP2 MSTORE PUSH1 0x1 PUSH1 0x1 PUSH1 0xA0 SHL SUB SWAP4 DUP5 AND SWAP3 DUP2 ADD SWAP3 SWAP1 SWAP3 MSTORE ADDRESS PUSH1 0x24 DUP4 ADD MSTORE DUP3 AND PUSH1 0x44 DUP3 ADD MSTORE PUSH1 0x0 SWAP3 SWAP2 SWAP1 SWAP2 AND SWAP1 PUSH4 0xE6A1E888 SWAP1 PUSH1 0x64 ADD PUSH1 0x80 PUSH1 0x40 MLOAD DUP1 DUP4 SUB DUP2 DUP7 DUP1 EXTCODESIZE ISZERO DUP1 ISZERO PUSH2 0x8A7 JUMPI PUSH1 0x0 DUP1 REVERT JUMPDEST POP GAS STATICCALL ISZERO DUP1 ISZERO PUSH2 0x8BB JUMPI RETURNDATASIZE PUSH1 0x0 DUP1 RETURNDATACOPY RETURNDATASIZE PUSH1 0x0 REVERT JUMPDEST POP POP POP POP PUSH1 0x40 MLOAD RETURNDATASIZE PUSH1 0x1F NOT PUSH1 0x1F DUP3 ADD AND DUP3 ADD DUP1 PUSH1 0x40 MSTORE POP DUP2 ADD SWAP1 PUSH2 0x8DF SWAP2 SWAP1 PUSH2 0x149C JUMP JUMPDEST POP POP SWAP2 POP POP PUSH1 0x0 DUP2 PUSH1 0xB SIGNEXTEND SGT ISZERO PUSH2 0xB5F JUMPI PUSH1 0x1 SLOAD PUSH1 0x2 SLOAD PUSH1 0x3 SLOAD PUSH1 0x5 SLOAD PUSH1 0x40 DUP1 MLOAD PUSH1 0x0 DUP2 MSTORE PUSH1 0x20 DUP2 ADD SWAP1 SWAP2 MSTORE PUSH1 0x1 PUSH1 0x1 PUSH1 0xA0 SHL SUB SWAP5 DUP6 AND SWAP5 PUSH4 0x39255D5B SWAP5 DUP2 AND SWAP4 PUSH4 0x5A5999E3 PUSH1 0xE1 SHL SWAP4 PUSH2 0x93F SWAP4 SWAP2 DUP4 AND SWAP3 ADDRESS SWAP3 SWAP2 AND SWAP1 PUSH1 0x44 DUP2 ADD PUSH2 0x15BE JUMP JUMPDEST PUSH1 0x40 DUP1 MLOAD PUSH1 0x1F NOT DUP2 DUP5 SUB ADD DUP2 MSTORE SWAP2 DUP2 MSTORE PUSH1 0x20 DUP3 ADD DUP1 MLOAD PUSH1 0x1 PUSH1 0x1 PUSH1 0xE0 SHL SUB AND PUSH1 0x1 PUSH1 0x1 PUSH1 0xE0 SHL SUB NOT SWAP5 DUP6 AND OR SWAP1 MSTORE MLOAD PUSH1 0xE0 DUP6 SWAP1 SHL SWAP1 SWAP3 AND DUP3 MSTORE PUSH2 0x985 SWAP3 SWAP2 PUSH1 0x4 ADD PUSH2 0x1517 JUMP JUMPDEST PUSH1 0x0 PUSH1 0x40 MLOAD DUP1 DUP4 SUB DUP2 PUSH1 0x0 DUP8 DUP1 EXTCODESIZE ISZERO DUP1 ISZERO PUSH2 0x99F JUMPI PUSH1 0x0 DUP1 REVERT JUMPDEST POP GAS CALL ISZERO DUP1 ISZERO PUSH2 0x9B3 JUMPI RETURNDATASIZE PUSH1 0x0 DUP1 RETURNDATACOPY RETURNDATASIZE PUSH1 0x0 REVERT JUMPDEST POP POP POP POP PUSH1 0x40 MLOAD RETURNDATASIZE PUSH1 0x0 DUP3 RETURNDATACOPY PUSH1 0x1F RETURNDATASIZE SWAP1 DUP2 ADD PUSH1 0x1F NOT AND DUP3 ADD PUSH1 0x40 MSTORE PUSH2 0x9DB SWAP2 SWAP1 DUP2 ADD SWAP1 PUSH2 0x125D JUMP JUMPDEST POP PUSH1 0x5 DUP1 SLOAD PUSH1 0x1 PUSH1 0x1 PUSH1 0xA0 SHL SUB DUP1 DUP6 AND PUSH1 0x1 PUSH1 0x1 PUSH1 0xA0 SHL SUB NOT SWAP1 SWAP3 AND DUP3 OR SWAP1 SWAP3 SSTORE PUSH1 0x1 SLOAD PUSH1 0x2 SLOAD PUSH1 0x3 DUP1 SLOAD PUSH1 0x40 MLOAD PUSH4 0xE8E7E2D1 PUSH1 0xE0 SHL DUP2 MSTORE SWAP1 DUP7 AND PUSH1 0x4 DUP3 ADD DUP2 SWAP1 MSTORE ADDRESS PUSH1 0x24 DUP4 ADD MSTORE SWAP4 DUP7 AND SWAP6 PUSH4 0x39255D5B SWAP6 SWAP4 AND SWAP4 PUSH4 0x317E182F PUSH1 0xE1 SHL SWAP4 SWAP1 SWAP3 SWAP1 SWAP2 DUP6 SWAP1 PUSH4 0xE8E7E2D1 SWAP1 PUSH1 0x44 ADD PUSH1 0x20 PUSH1 0x40 MLOAD DUP1 DUP4 SUB DUP2 DUP7 DUP1 EXTCODESIZE ISZERO DUP1 ISZERO PUSH2 0xA60 JUMPI PUSH1 0x0 DUP1 REVERT JUMPDEST POP GAS STATICCALL ISZERO DUP1 ISZERO PUSH2 0xA74 JUMPI RETURNDATASIZE PUSH1 0x0 DUP1 RETURNDATACOPY RETURNDATASIZE PUSH1 0x0 REVERT JUMPDEST POP POP POP POP PUSH1 0x40 MLOAD RETURNDATASIZE PUSH1 0x1F NOT PUSH1 0x1F DUP3 ADD AND DUP3 ADD DUP1 PUSH1 0x40 MSTORE POP DUP2 ADD SWAP1 PUSH2 0xA98 SWAP2 SWAP1 PUSH2 0x1468 JUMP JUMPDEST PUSH2 0xAA2 SWAP2 SWAP1 PUSH2 0x16B9 JUMP JUMPDEST PUSH1 0x40 DUP1 MLOAD PUSH1 0x0 DUP2 MSTORE PUSH1 0x20 DUP2 ADD SWAP1 SWAP2 MSTORE PUSH2 0xAC1 SWAP4 SWAP3 SWAP2 SWAP1 PUSH1 0x44 DUP2 ADD PUSH2 0x15F2 JUMP JUMPDEST PUSH1 0x40 DUP1 MLOAD PUSH1 0x1F NOT DUP2 DUP5 SUB ADD DUP2 MSTORE SWAP2 DUP2 MSTORE PUSH1 0x20 DUP3 ADD DUP1 MLOAD PUSH1 0x1 PUSH1 0x1 PUSH1 0xE0 SHL SUB AND PUSH1 0x1 PUSH1 0x1 PUSH1 0xE0 SHL SUB NOT SWAP5 DUP6 AND OR SWAP1 MSTORE MLOAD PUSH1 0xE0 DUP6 SWAP1 SHL SWAP1 SWAP3 AND DUP3 MSTORE PUSH2 0xB07 SWAP3 SWAP2 PUSH1 0x4 ADD PUSH2 0x1517 JUMP JUMPDEST PUSH1 0x0 PUSH1 0x40 MLOAD DUP1 DUP4 SUB DUP2 PUSH1 0x0 DUP8 DUP1 EXTCODESIZE ISZERO DUP1 ISZERO PUSH2 0xB21 JUMPI PUSH1 0x0 DUP1 REVERT JUMPDEST POP GAS CALL ISZERO DUP1 ISZERO PUSH2 0xB35 JUMPI RETURNDATASIZE PUSH1 0x0 DUP1 RETURNDATACOPY RETURNDATASIZE PUSH1 0x0 REVERT JUMPDEST POP POP POP POP PUSH1 0x40 MLOAD RETURNDATASIZE PUSH1 0x0 DUP3 RETURNDATACOPY PUSH1 0x1F RETURNDATASIZE SWAP1 DUP2 ADD PUSH1 0x1F NOT AND DUP3 ADD PUSH1 0x40 MSTORE PUSH2 0xB5D SWAP2 SWAP1 DUP2 ADD SWAP1 PUSH2 0x125D JUMP JUMPDEST POP JUMPDEST PUSH1 0x5 DUP1 SLOAD PUSH1 0x1 PUSH1 0x1 PUSH1 0xA0 SHL SUB NOT AND PUSH1 0x1 PUSH1 0x1 PUSH1 0xA0 SHL SUB DUP5 AND SWAP1 DUP2 OR SWAP1 SWAP2 SSTORE PUSH1 0x40 DUP1 MLOAD SWAP2 DUP3 MSTORE MLOAD PUSH32 0x7DFB1D59DB37A3FD2E15E796C189DCAB714CDBB18650D68A1DE58F8FA60718C9 SWAP2 DUP2 SWAP1 SUB PUSH1 0x20 ADD SWAP1 LOG1 POP POP JUMP JUMPDEST PUSH1 0x0 PUSH32 0xA9214CC96615E0085D3BB077758DB69497DC2DCE3B2B1E97BC93C3D18D83EFD3 DUP3 PUSH1 0x1 PUSH1 0x1 PUSH1 0xA0 SHL SUB AND PUSH4 0x7730599E PUSH1 0x40 MLOAD DUP2 PUSH4 0xFFFFFFFF AND PUSH1 0xE0 SHL DUP2 MSTORE PUSH1 0x4 ADD PUSH1 0x20 PUSH1 0x40 MLOAD DUP1 DUP4 SUB DUP2 DUP7 DUP1 EXTCODESIZE ISZERO DUP1 ISZERO PUSH2 0xC0F JUMPI PUSH1 0x0 DUP1 REVERT JUMPDEST POP GAS STATICCALL ISZERO DUP1 ISZERO PUSH2 0xC23 JUMPI RETURNDATASIZE PUSH1 0x0 DUP1 RETURNDATACOPY RETURNDATASIZE PUSH1 0x0 REVERT JUMPDEST POP POP POP POP PUSH1 0x40 MLOAD RETURNDATASIZE PUSH1 0x1F NOT PUSH1 0x1F DUP3 ADD AND DUP3 ADD DUP1 PUSH1 0x40 MSTORE POP DUP2 ADD SWAP1 PUSH2 0xC47 SWAP2 SWAP1 PUSH2 0x1244 JUMP JUMPDEST EQ SWAP3 SWAP2 POP POP JUMP JUMPDEST PUSH1 0x60 DUP3 DUP3 DUP1 DUP1 PUSH1 0x1F ADD PUSH1 0x20 DUP1 SWAP2 DIV MUL PUSH1 0x20 ADD PUSH1 0x40 MLOAD SWAP1 DUP2 ADD PUSH1 0x40 MSTORE DUP1 SWAP4 SWAP3 SWAP2 SWAP1 DUP2 DUP2 MSTORE PUSH1 0x20 ADD DUP4 DUP4 DUP1 DUP3 DUP5 CALLDATACOPY PUSH1 0x0 SWAP3 ADD DUP3 SWAP1 MSTORE POP SWAP4 SWAP5 POP POP POP POP JUMPDEST PUSH1 0x2 DUP2 PUSH1 0x1 PUSH1 0x1 PUSH1 0x60 SHL SUB AND LT ISZERO PUSH2 0x10BF JUMPI PUSH1 0x2 SLOAD PUSH1 0x3 SLOAD PUSH1 0x40 MLOAD PUSH4 0xE8E7E2D1 PUSH1 0xE0 SHL DUP2 MSTORE PUSH1 0x1 PUSH1 0x1 PUSH1 0xA0 SHL SUB SWAP2 DUP3 AND PUSH1 0x4 DUP3 ADD MSTORE ADDRESS PUSH1 0x24 DUP3 ADD MSTORE PUSH1 0x0 SWAP3 SWAP2 SWAP1 SWAP2 AND SWAP1 PUSH4 0xE8E7E2D1 SWAP1 PUSH1 0x44 ADD PUSH1 0x20 PUSH1 0x40 MLOAD DUP1 DUP4 SUB DUP2 DUP7 DUP1 EXTCODESIZE ISZERO DUP1 ISZERO PUSH2 0xCED JUMPI PUSH1 0x0 DUP1 REVERT JUMPDEST POP GAS STATICCALL ISZERO DUP1 ISZERO PUSH2 0xD01 JUMPI RETURNDATASIZE PUSH1 0x0 DUP1 RETURNDATACOPY RETURNDATASIZE PUSH1 0x0 REVERT JUMPDEST POP POP POP POP PUSH1 0x40 MLOAD RETURNDATASIZE PUSH1 0x1F NOT PUSH1 0x1F DUP3 ADD AND DUP3 ADD DUP1 PUSH1 0x40 MSTORE POP DUP2 ADD SWAP1 PUSH2 0xD25 SWAP2 SWAP1 PUSH2 0x1468 JUMP JUMPDEST PUSH1 0x2 SLOAD PUSH1 0x3 SLOAD PUSH1 0x4 DUP1 SLOAD PUSH1 0x40 MLOAD PUSH4 0x1CD43D11 PUSH1 0xE3 SHL DUP2 MSTORE PUSH1 0x1 PUSH1 0x1 PUSH1 0xA0 SHL SUB SWAP4 DUP5 AND SWAP3 DUP2 ADD SWAP3 SWAP1 SWAP3 MSTORE ADDRESS PUSH1 0x24 DUP4 ADD MSTORE DUP3 AND PUSH1 0x44 DUP3 ADD MSTORE SWAP3 SWAP4 POP PUSH1 0x0 SWAP3 SWAP2 AND SWAP1 PUSH4 0xE6A1E888 SWAP1 PUSH1 0x64 ADD PUSH1 0x80 PUSH1 0x40 MLOAD DUP1 DUP4 SUB DUP2 DUP7 DUP1 EXTCODESIZE ISZERO DUP1 ISZERO PUSH2 0xD85 JUMPI PUSH1 0x0 DUP1 REVERT JUMPDEST POP GAS STATICCALL ISZERO DUP1 ISZERO PUSH2 0xD99 JUMPI RETURNDATASIZE PUSH1 0x0 DUP1 RETURNDATACOPY RETURNDATASIZE PUSH1 0x0 REVERT JUMPDEST POP POP POP POP PUSH1 0x40 MLOAD RETURNDATASIZE PUSH1 0x1F NOT PUSH1 0x1F DUP3 ADD AND DUP3 ADD DUP1 PUSH1 0x40 MSTORE POP DUP2 ADD SWAP1 PUSH2 0xDBD SWAP2 SWAP1 PUSH2 0x149C JUMP JUMPDEST POP POP SWAP2 POP POP PUSH1 0x0 DUP2 PUSH1 0x3 PUSH2 0xDD1 SWAP2 SWAP1 PUSH2 0x170A JUMP JUMPDEST PUSH2 0xDDB SWAP1 DUP5 PUSH2 0x166A JUMP JUMPDEST SWAP1 POP PUSH1 0xB DUP2 SWAP1 SIGNEXTEND PUSH2 0xF01 JUMPI PUSH1 0x1 SLOAD PUSH1 0x2 DUP1 SLOAD PUSH1 0x3 SLOAD PUSH1 0x1 PUSH1 0x1 PUSH1 0xA0 SHL SUB SWAP4 DUP5 AND SWAP4 PUSH4 0x4329D293 SWAP4 SWAP3 DUP2 AND SWAP3 PUSH4 0x5A5999E3 PUSH1 0xE1 SHL SWAP3 SWAP1 SWAP2 AND SWAP1 ADDRESS SWAP1 PUSH1 0x4 SWAP1 PUSH1 0x1 PUSH1 0x1 PUSH1 0x60 SHL SUB DUP13 AND SWAP1 DUP2 LT PUSH2 0xE31 JUMPI PUSH2 0xE31 PUSH2 0x1811 JUMP JUMPDEST ADD SLOAD PUSH1 0x40 DUP1 MLOAD PUSH1 0x0 DUP2 MSTORE PUSH1 0x20 DUP2 ADD SWAP1 SWAP2 MSTORE PUSH2 0xE5B SWAP4 SWAP3 SWAP2 PUSH1 0x1 PUSH1 0x1 PUSH1 0xA0 SHL SUB AND SWAP1 PUSH1 0x44 DUP2 ADD PUSH2 0x15BE JUMP JUMPDEST PUSH1 0x40 DUP1 MLOAD PUSH1 0x1F NOT DUP2 DUP5 SUB ADD DUP2 MSTORE SWAP2 DUP2 MSTORE PUSH1 0x20 DUP3 ADD DUP1 MLOAD PUSH1 0x1 PUSH1 0x1 PUSH1 0xE0 SHL SUB AND PUSH1 0x1 PUSH1 0x1 PUSH1 0xE0 SHL SUB NOT SWAP5 DUP6 AND OR SWAP1 MSTORE MLOAD PUSH1 0xE0 DUP6 SWAP1 SHL SWAP1 SWAP3 AND DUP3 MSTORE PUSH2 0xEA3 SWAP3 SWAP2 DUP11 SWAP1 PUSH1 0x4 ADD PUSH2 0x1565 JUMP JUMPDEST PUSH1 0x0 PUSH1 0x40 MLOAD DUP1 DUP4 SUB DUP2 PUSH1 0x0 DUP8 DUP1 EXTCODESIZE ISZERO DUP1 ISZERO PUSH2 0xEBD JUMPI PUSH1 0x0 DUP1 REVERT JUMPDEST POP GAS CALL ISZERO DUP1 ISZERO PUSH2 0xED1 JUMPI RETURNDATASIZE PUSH1 0x0 DUP1 RETURNDATACOPY RETURNDATASIZE PUSH1 0x0 REVERT JUMPDEST POP POP POP POP PUSH1 0x40 MLOAD RETURNDATASIZE PUSH1 0x0 DUP3 RETURNDATACOPY PUSH1 0x1F RETURNDATASIZE SWAP1 DUP2 ADD PUSH1 0x1F NOT AND DUP3 ADD PUSH1 0x40 MSTORE PUSH2 0xEF9 SWAP2 SWAP1 DUP2 ADD SWAP1 PUSH2 0x129A JUMP JUMPDEST POP SWAP5 POP PUSH2 0x10A9 JUMP JUMPDEST PUSH1 0xB DUP3 SWAP1 SIGNEXTEND ISZERO PUSH2 0xF89 JUMPI PUSH1 0x1 SLOAD PUSH1 0x2 DUP1 SLOAD PUSH1 0x3 SLOAD PUSH1 0x1 PUSH1 0x1 PUSH1 0xA0 SHL SUB SWAP4 DUP5 AND SWAP4 PUSH4 0x4329D293 SWAP4 SWAP3 DUP2 AND SWAP3 PUSH4 0x28104D31 PUSH1 0xE1 SHL SWAP3 SWAP1 SWAP2 AND SWAP1 PUSH1 0x4 SWAP1 PUSH1 0x1 PUSH1 0x1 PUSH1 0x60 SHL SUB DUP12 AND SWAP1 DUP2 LT PUSH2 0xF54 JUMPI PUSH2 0xF54 PUSH2 0x1811 JUMP JUMPDEST ADD SLOAD PUSH1 0x1 PUSH1 0x1 PUSH1 0xA0 SHL SUB AND PUSH2 0xF6A PUSH1 0x2 DUP9 PUSH2 0x16B9 JUMP JUMPDEST PUSH1 0x40 DUP1 MLOAD PUSH1 0x0 DUP2 MSTORE PUSH1 0x20 DUP2 ADD SWAP1 SWAP2 MSTORE PUSH2 0xE5B SWAP4 SWAP3 SWAP2 SWAP1 PUSH1 0x44 DUP2 ADD PUSH2 0x15F2 JUMP JUMPDEST PUSH1 0x1 SLOAD PUSH1 0x2 DUP1 SLOAD PUSH1 0x3 SLOAD PUSH1 0x1 PUSH1 0x1 PUSH1 0xA0 SHL SUB SWAP4 DUP5 AND SWAP4 PUSH4 0x4329D293 SWAP4 SWAP3 DUP2 AND SWAP3 PUSH4 0x317E182F PUSH1 0xE1 SHL SWAP3 SWAP1 SWAP2 AND SWAP1 PUSH1 0x4 SWAP1 PUSH1 0x1 PUSH1 0x1 PUSH1 0x60 SHL SUB DUP12 AND SWAP1 DUP2 LT PUSH2 0xFD2 JUMPI PUSH2 0xFD2 PUSH2 0x1811 JUMP JUMPDEST ADD SLOAD PUSH1 0x1 PUSH1 0x1 PUSH1 0xA0 SHL SUB AND PUSH2 0xFE8 PUSH1 0x2 DUP9 PUSH2 0x16B9 JUMP JUMPDEST PUSH1 0x40 DUP1 MLOAD PUSH1 0x0 DUP2 MSTORE PUSH1 0x20 DUP2 ADD SWAP1 SWAP2 MSTORE PUSH2 0x1007 SWAP4 SWAP3 SWAP2 SWAP1 PUSH1 0x44 DUP2 ADD PUSH2 0x15F2 JUMP JUMPDEST PUSH1 0x40 DUP1 MLOAD PUSH1 0x1F NOT DUP2 DUP5 SUB ADD DUP2 MSTORE SWAP2 DUP2 MSTORE PUSH1 0x20 DUP3 ADD DUP1 MLOAD PUSH1 0x1 PUSH1 0x1 PUSH1 0xE0 SHL SUB AND PUSH1 0x1 PUSH1 0x1 PUSH1 0xE0 SHL SUB NOT SWAP5 DUP6 AND OR SWAP1 MSTORE MLOAD PUSH1 0xE0 DUP6 SWAP1 SHL SWAP1 SWAP3 AND DUP3 MSTORE PUSH2 0x104F SWAP3 SWAP2 DUP11 SWAP1 PUSH1 0x4 ADD PUSH2 0x1565 JUMP JUMPDEST PUSH1 0x0 PUSH1 0x40 MLOAD DUP1 DUP4 SUB DUP2 PUSH1 0x0 DUP8 DUP1 EXTCODESIZE ISZERO DUP1 ISZERO PUSH2 0x1069 JUMPI PUSH1 0x0 DUP1 REVERT JUMPDEST POP GAS CALL ISZERO DUP1 ISZERO PUSH2 0x107D JUMPI RETURNDATASIZE PUSH1 0x0 DUP1 RETURNDATACOPY RETURNDATASIZE PUSH1 0x0 REVERT JUMPDEST POP POP POP POP PUSH1 0x40 MLOAD RETURNDATASIZE PUSH1 0x0 DUP3 RETURNDATACOPY PUSH1 0x1F RETURNDATASIZE SWAP1 DUP2 ADD PUSH1 0x1F NOT AND DUP3 ADD PUSH1 0x40 MSTORE PUSH2 0x10A5 SWAP2 SWAP1 DUP2 ADD SWAP1 PUSH2 0x129A JUMP JUMPDEST POP SWAP5 POP JUMPDEST POP POP POP DUP1 DUP1 PUSH2 0x10B7 SWAP1 PUSH2 0x17D4 JUMP JUMPDEST SWAP2 POP POP PUSH2 0xC89 JUMP JUMPDEST POP SWAP3 SWAP2 POP POP JUMP JUMPDEST PUSH1 0x0 DUP1 SLOAD PUSH1 0x1 PUSH1 0x1 PUSH1 0xA0 SHL SUB DUP4 DUP2 AND PUSH1 0x1 PUSH1 0x1 PUSH1 0xA0 SHL SUB NOT DUP4 AND DUP2 OR DUP5 SSTORE PUSH1 0x40 MLOAD SWAP2 SWAP1 SWAP3 AND SWAP3 DUP4 SWAP2 PUSH32 0x8BE0079C531659141344CD1FD0A4F28419497F9722A3DAAFE3B4186F6B6457E0 SWAP2 SWAP1 LOG3 POP POP JUMP JUMPDEST PUSH1 0x0 DUP1 DUP4 PUSH1 0x1F DUP5 ADD SLT PUSH2 0x1128 JUMPI PUSH1 0x0 DUP1 REVERT JUMPDEST POP DUP2 CALLDATALOAD PUSH8 0xFFFFFFFFFFFFFFFF DUP2 GT ISZERO PUSH2 0x1140 JUMPI PUSH1 0x0 DUP1 REVERT JUMPDEST PUSH1 0x20 DUP4 ADD SWAP2 POP DUP4 PUSH1 0x20 DUP3 DUP6 ADD ADD GT ISZERO PUSH2 0x1158 JUMPI PUSH1 0x0 DUP1 REVERT JUMPDEST SWAP3 POP SWAP3 SWAP1 POP JUMP JUMPDEST PUSH1 0x0 DUP3 PUSH1 0x1F DUP4 ADD SLT PUSH2 0x1170 JUMPI PUSH1 0x0 DUP1 REVERT JUMPDEST DUP2 MLOAD PUSH8 0xFFFFFFFFFFFFFFFF DUP1 DUP3 GT ISZERO PUSH2 0x118B JUMPI PUSH2 0x118B PUSH2 0x1827 JUMP JUMPDEST PUSH1 0x40 MLOAD PUSH1 0x1F DUP4 ADD PUSH1 0x1F NOT SWAP1 DUP2 AND PUSH1 0x3F ADD AND DUP2 ADD SWAP1 DUP3 DUP3 GT DUP2 DUP4 LT OR ISZERO PUSH2 0x11B3 JUMPI PUSH2 0x11B3 PUSH2 0x1827 JUMP JUMPDEST DUP2 PUSH1 0x40 MSTORE DUP4 DUP2 MSTORE DUP7 PUSH1 0x20 DUP6 DUP9 ADD ADD GT ISZERO PUSH2 0x11CC JUMPI PUSH1 0x0 DUP1 REVERT JUMPDEST PUSH2 0x11DD DUP5 PUSH1 0x20 DUP4 ADD PUSH1 0x20 DUP10 ADD PUSH2 0x17A4 JUMP JUMPDEST SWAP7 SWAP6 POP POP POP POP POP POP JUMP JUMPDEST DUP1 MLOAD PUSH1 0xB DUP2 SWAP1 SIGNEXTEND DUP2 EQ PUSH2 0x11F9 JUMPI PUSH1 0x0 DUP1 REVERT JUMPDEST SWAP2 SWAP1 POP JUMP JUMPDEST PUSH1 0x0 PUSH1 0x20 DUP3 DUP5 SUB SLT ISZERO PUSH2 0x1210 JUMPI PUSH1 0x0 DUP1 REVERT JUMPDEST DUP2 CALLDATALOAD PUSH2 0x121B DUP2 PUSH2 0x183D JUMP JUMPDEST SWAP4 SWAP3 POP POP POP JUMP JUMPDEST PUSH1 0x0 PUSH1 0x20 DUP3 DUP5 SUB SLT ISZERO PUSH2 0x1234 JUMPI PUSH1 0x0 DUP1 REVERT JUMPDEST DUP2 MLOAD DUP1 ISZERO ISZERO DUP2 EQ PUSH2 0x121B JUMPI PUSH1 0x0 DUP1 REVERT JUMPDEST PUSH1 0x0 PUSH1 0x20 DUP3 DUP5 SUB SLT ISZERO PUSH2 0x1256 JUMPI PUSH1 0x0 DUP1 REVERT JUMPDEST POP MLOAD SWAP2 SWAP1 POP JUMP JUMPDEST PUSH1 0x0 PUSH1 0x20 DUP3 DUP5 SUB SLT ISZERO PUSH2 0x126F JUMPI PUSH1 0x0 DUP1 REVERT JUMPDEST DUP2 MLOAD PUSH8 0xFFFFFFFFFFFFFFFF DUP2 GT ISZERO PUSH2 0x1286 JUMPI PUSH1 0x0 DUP1 REVERT JUMPDEST PUSH2 0x1292 DUP5 DUP3 DUP6 ADD PUSH2 0x115F JUMP JUMPDEST SWAP5 SWAP4 POP POP POP POP JUMP JUMPDEST PUSH1 0x0 DUP1 PUSH1 0x40 DUP4 DUP6 SUB SLT ISZERO PUSH2 0x12AD JUMPI PUSH1 0x0 DUP1 REVERT JUMPDEST DUP3 MLOAD PUSH8 0xFFFFFFFFFFFFFFFF DUP1 DUP3 GT ISZERO PUSH2 0x12C5 JUMPI PUSH1 0x0 DUP1 REVERT JUMPDEST PUSH2 0x12D1 DUP7 DUP4 DUP8 ADD PUSH2 0x115F JUMP JUMPDEST SWAP4 POP PUSH1 0x20 DUP6 ADD MLOAD SWAP2 POP DUP1 DUP3 GT ISZERO PUSH2 0x12E7 JUMPI PUSH1 0x0 DUP1 REVERT JUMPDEST POP PUSH2 0x12F4 DUP6 DUP3 DUP7 ADD PUSH2 0x115F JUMP JUMPDEST SWAP2 POP POP SWAP3 POP SWAP3 SWAP1 POP JUMP JUMPDEST PUSH1 0x0 DUP1 PUSH1 0x0 DUP1 PUSH1 0x0 DUP1 PUSH1 0x0 PUSH1 0xA0 DUP9 DUP11 SUB SLT ISZERO PUSH2 0x1319 JUMPI PUSH1 0x0 DUP1 REVERT JUMPDEST DUP8 CALLDATALOAD PUSH2 0x1324 DUP2 PUSH2 0x183D JUMP JUMPDEST SWAP7 POP PUSH1 0x20 DUP9 ADD CALLDATALOAD PUSH2 0x1334 DUP2 PUSH2 0x183D JUMP JUMPDEST SWAP6 POP PUSH1 0x40 DUP9 ADD CALLDATALOAD SWAP5 POP PUSH1 0x60 DUP9 ADD CALLDATALOAD PUSH8 0xFFFFFFFFFFFFFFFF DUP1 DUP3 GT ISZERO PUSH2 0x1358 JUMPI PUSH1 0x0 DUP1 REVERT JUMPDEST PUSH2 0x1364 DUP12 DUP4 DUP13 ADD PUSH2 0x1116 JUMP JUMPDEST SWAP1 SWAP7 POP SWAP5 POP PUSH1 0x80 DUP11 ADD CALLDATALOAD SWAP2 POP DUP1 DUP3 GT ISZERO PUSH2 0x137D JUMPI PUSH1 0x0 DUP1 REVERT JUMPDEST POP PUSH2 0x138A DUP11 DUP3 DUP12 ADD PUSH2 0x1116 JUMP JUMPDEST SWAP9 SWAP12 SWAP8 SWAP11 POP SWAP6 SWAP9 POP SWAP4 SWAP7 SWAP3 SWAP6 SWAP3 SWAP4 POP POP POP JUMP JUMPDEST PUSH1 0x0 DUP1 PUSH1 0x0 DUP1 PUSH1 0x0 DUP1 PUSH1 0x0 DUP1 PUSH1 0x0 PUSH1 0xC0 DUP11 DUP13 SUB SLT ISZERO PUSH2 0x13BB JUMPI PUSH1 0x0 DUP1 REVERT JUMPDEST DUP10 CALLDATALOAD PUSH2 0x13C6 DUP2 PUSH2 0x183D JUMP JUMPDEST SWAP9 POP PUSH1 0x20 DUP11 ADD CALLDATALOAD PUSH2 0x13D6 DUP2 PUSH2 0x183D JUMP JUMPDEST SWAP8 POP PUSH1 0x40 DUP11 ADD CALLDATALOAD SWAP7 POP PUSH1 0x60 DUP11 ADD CALLDATALOAD PUSH8 0xFFFFFFFFFFFFFFFF DUP1 DUP3 GT ISZERO PUSH2 0x13FA JUMPI PUSH1 0x0 DUP1 REVERT JUMPDEST PUSH2 0x1406 DUP14 DUP4 DUP15 ADD PUSH2 0x1116 JUMP JUMPDEST SWAP1 SWAP9 POP SWAP7 POP PUSH1 0x80 DUP13 ADD CALLDATALOAD SWAP2 POP DUP1 DUP3 GT ISZERO PUSH2 0x141F JUMPI PUSH1 0x0 DUP1 REVERT JUMPDEST PUSH2 0x142B DUP14 DUP4 DUP15 ADD PUSH2 0x1116 JUMP JUMPDEST SWAP1 SWAP7 POP SWAP5 POP PUSH1 0xA0 DUP13 ADD CALLDATALOAD SWAP2 POP DUP1 DUP3 GT ISZERO PUSH2 0x1444 JUMPI PUSH1 0x0 DUP1 REVERT JUMPDEST POP PUSH2 0x1451 DUP13 DUP3 DUP14 ADD PUSH2 0x1116 JUMP JUMPDEST SWAP2 POP DUP1 SWAP4 POP POP DUP1 SWAP2 POP POP SWAP3 SWAP6 SWAP9 POP SWAP3 SWAP6 SWAP9 POP SWAP3 SWAP6 SWAP9 JUMP JUMPDEST PUSH1 0x0 PUSH1 0x20 DUP3 DUP5 SUB SLT ISZERO PUSH2 0x147A JUMPI PUSH1 0x0 DUP1 REVERT JUMPDEST PUSH2 0x121B DUP3 PUSH2 0x11E7 JUMP JUMPDEST PUSH1 0x0 PUSH1 0x20 DUP3 DUP5 SUB SLT ISZERO PUSH2 0x1495 JUMPI PUSH1 0x0 DUP1 REVERT JUMPDEST POP CALLDATALOAD SWAP2 SWAP1 POP JUMP JUMPDEST PUSH1 0x0 DUP1 PUSH1 0x0 DUP1 PUSH1 0x80 DUP6 DUP8 SUB SLT ISZERO PUSH2 0x14B2 JUMPI PUSH1 0x0 DUP1 REVERT JUMPDEST DUP5 MLOAD SWAP4 POP PUSH2 0x14C2 PUSH1 0x20 DUP7 ADD PUSH2 0x11E7 JUMP JUMPDEST PUSH1 0x40 DUP7 ADD MLOAD PUSH1 0x60 SWAP1 SWAP7 ADD MLOAD SWAP5 SWAP8 SWAP1 SWAP7 POP SWAP3 POP POP POP JUMP JUMPDEST PUSH1 0x0 DUP2 MLOAD DUP1 DUP5 MSTORE PUSH2 0x14F0 DUP2 PUSH1 0x20 DUP7 ADD PUSH1 0x20 DUP7 ADD PUSH2 0x17A4 JUMP JUMPDEST PUSH1 0x1F ADD PUSH1 0x1F NOT AND SWAP3 SWAP1 SWAP3 ADD PUSH1 0x20 ADD SWAP3 SWAP2 POP POP JUMP JUMPDEST PUSH1 0x20 DUP2 MSTORE PUSH1 0x0 PUSH2 0x121B PUSH1 0x20 DUP4 ADD DUP5 PUSH2 0x14D8 JUMP JUMPDEST PUSH1 0x1 PUSH1 0x1 PUSH1 0xA0 SHL SUB DUP4 AND DUP2 MSTORE PUSH1 0x60 PUSH1 0x20 DUP3 ADD DUP2 SWAP1 MSTORE PUSH1 0x0 SWAP1 PUSH2 0x153B SWAP1 DUP4 ADD DUP5 PUSH2 0x14D8 JUMP JUMPDEST DUP3 DUP2 SUB PUSH1 0x40 DUP5 ADD MSTORE PUSH2 0x155C DUP2 PUSH1 0x2 DUP2 MSTORE PUSH2 0x60F PUSH1 0xF3 SHL PUSH1 0x20 DUP3 ADD MSTORE PUSH1 0x40 ADD SWAP1 JUMP JUMPDEST SWAP6 SWAP5 POP POP POP POP POP JUMP JUMPDEST PUSH1 0x1 PUSH1 0x1 PUSH1 0xA0 SHL SUB DUP5 AND DUP2 MSTORE PUSH1 0x80 PUSH1 0x20 DUP3 ADD DUP2 SWAP1 MSTORE PUSH1 0x0 SWAP1 PUSH2 0x1589 SWAP1 DUP4 ADD DUP6 PUSH2 0x14D8 JUMP JUMPDEST DUP3 DUP2 SUB PUSH1 0x40 DUP5 ADD MSTORE PUSH2 0x15AA DUP2 PUSH1 0x2 DUP2 MSTORE PUSH2 0x60F PUSH1 0xF3 SHL PUSH1 0x20 DUP3 ADD MSTORE PUSH1 0x40 ADD SWAP1 JUMP JUMPDEST SWAP1 POP DUP3 DUP2 SUB PUSH1 0x60 DUP5 ADD MSTORE PUSH2 0x11DD DUP2 DUP6 PUSH2 0x14D8 JUMP JUMPDEST PUSH1 0x1 PUSH1 0x1 PUSH1 0xA0 SHL SUB DUP6 DUP2 AND DUP3 MSTORE DUP5 DUP2 AND PUSH1 0x20 DUP4 ADD MSTORE DUP4 AND PUSH1 0x40 DUP3 ADD MSTORE PUSH1 0x80 PUSH1 0x60 DUP3 ADD DUP2 SWAP1 MSTORE PUSH1 0x0 SWAP1 PUSH2 0x11DD SWAP1 DUP4 ADD DUP5 PUSH2 0x14D8 JUMP JUMPDEST PUSH1 0x1 PUSH1 0x1 PUSH1 0xA0 SHL SUB DUP6 DUP2 AND DUP3 MSTORE DUP5 AND PUSH1 0x20 DUP3 ADD MSTORE PUSH1 0xB DUP4 SWAP1 SIGNEXTEND PUSH1 0x40 DUP3 ADD MSTORE PUSH1 0x80 PUSH1 0x60 DUP3 ADD DUP2 SWAP1 MSTORE PUSH1 0x0 SWAP1 PUSH2 0x11DD SWAP1 DUP4 ADD DUP5 PUSH2 0x14D8 JUMP JUMPDEST PUSH1 0x20 DUP1 DUP3 MSTORE PUSH1 0x22 SWAP1 DUP3 ADD MSTORE PUSH32 0x5265646972656374416C6C3A20737570706F7274206F6E6C79206F6E6520686F PUSH1 0x40 DUP3 ADD MSTORE PUSH2 0x1CDD PUSH1 0xF2 SHL PUSH1 0x60 DUP3 ADD MSTORE PUSH1 0x80 ADD SWAP1 JUMP JUMPDEST PUSH1 0x0 DUP2 PUSH1 0xB SIGNEXTEND DUP4 PUSH1 0xB SIGNEXTEND PUSH1 0x0 DUP3 SLT DUP3 PUSH1 0x1 PUSH1 0x1 PUSH1 0x5F SHL SUB SUB DUP3 SGT DUP2 ISZERO AND ISZERO PUSH2 0x1694 JUMPI PUSH2 0x1694 PUSH2 0x17FB JUMP JUMPDEST DUP3 PUSH1 0x1 PUSH1 0x1 PUSH1 0x5F SHL SUB NOT SUB DUP3 SLT DUP2 AND ISZERO PUSH2 0x16B0 JUMPI PUSH2 0x16B0 PUSH2 0x17FB JUMP JUMPDEST POP ADD SWAP4 SWAP3 POP POP POP JUMP JUMPDEST PUSH1 0x0 DUP2 PUSH1 0xB SIGNEXTEND DUP4 PUSH1 0xB SIGNEXTEND DUP1 PUSH2 0x16DE JUMPI PUSH4 0x4E487B71 PUSH1 0xE0 SHL PUSH1 0x0 MSTORE PUSH1 0x12 PUSH1 0x4 MSTORE PUSH1 0x24 PUSH1 0x0 REVERT JUMPDEST PUSH12 0x7FFFFFFFFFFFFFFFFFFFFFFF NOT DUP3 EQ PUSH1 0x0 NOT DUP3 EQ AND ISZERO PUSH2 0x1701 JUMPI PUSH2 0x1701 PUSH2 0x17FB JUMP JUMPDEST SWAP1 SDIV SWAP4 SWAP3 POP POP POP JUMP JUMPDEST PUSH1 0x0 DUP2 PUSH1 0xB SIGNEXTEND DUP4 PUSH1 0xB SIGNEXTEND PUSH1 0x1 PUSH1 0x1 PUSH1 0x5F SHL SUB PUSH1 0x0 DUP3 SGT PUSH1 0x0 DUP5 SGT DUP4 DUP4 DIV DUP6 GT DUP3 DUP3 AND AND ISZERO PUSH2 0x173A JUMPI PUSH2 0x173A PUSH2 0x17FB JUMP JUMPDEST PUSH12 0x7FFFFFFFFFFFFFFFFFFFFFFF NOT PUSH1 0x0 DUP6 SLT DUP3 DUP2 AND DUP8 DUP4 SDIV DUP8 SLT AND ISZERO PUSH2 0x1762 JUMPI PUSH2 0x1762 PUSH2 0x17FB JUMP JUMPDEST PUSH1 0x0 DUP8 SLT SWAP3 POP DUP6 DUP3 SDIV DUP8 SLT DUP5 DUP5 AND AND ISZERO PUSH2 0x177E JUMPI PUSH2 0x177E PUSH2 0x17FB JUMP JUMPDEST DUP6 DUP6 SDIV DUP8 SLT DUP2 DUP5 AND AND ISZERO PUSH2 0x1794 JUMPI PUSH2 0x1794 PUSH2 0x17FB JUMP JUMPDEST POP POP POP SWAP3 SWAP1 SWAP2 MUL SWAP6 SWAP5 POP POP POP POP POP JUMP JUMPDEST PUSH1 0x0 JUMPDEST DUP4 DUP2 LT ISZERO PUSH2 0x17BF JUMPI DUP2 DUP2 ADD MLOAD DUP4 DUP3 ADD MSTORE PUSH1 0x20 ADD PUSH2 0x17A7 JUMP JUMPDEST DUP4 DUP2 GT ISZERO PUSH2 0x17CE JUMPI PUSH1 0x0 DUP5 DUP5 ADD MSTORE JUMPDEST POP POP POP POP JUMP JUMPDEST PUSH1 0x0 PUSH1 0x1 PUSH1 0x1 PUSH1 0x60 SHL SUB DUP1 DUP4 AND DUP2 DUP2 EQ ISZERO PUSH2 0x17F1 JUMPI PUSH2 0x17F1 PUSH2 0x17FB JUMP JUMPDEST PUSH1 0x1 ADD SWAP4 SWAP3 POP POP POP JUMP JUMPDEST PUSH4 0x4E487B71 PUSH1 0xE0 SHL PUSH1 0x0 MSTORE PUSH1 0x11 PUSH1 0x4 MSTORE PUSH1 0x24 PUSH1 0x0 REVERT JUMPDEST PUSH4 0x4E487B71 PUSH1 0xE0 SHL PUSH1 0x0 MSTORE PUSH1 0x32 PUSH1 0x4 MSTORE PUSH1 0x24 PUSH1 0x0 REVERT JUMPDEST PUSH4 0x4E487B71 PUSH1 0xE0 SHL PUSH1 0x0 MSTORE PUSH1 0x41 PUSH1 0x4 MSTORE PUSH1 0x24 PUSH1 0x0 REVERT JUMPDEST PUSH1 0x1 PUSH1 0x1 PUSH1 0xA0 SHL SUB DUP2 AND DUP2 EQ PUSH2 0x1F1 JUMPI PUSH1 0x0 DUP1 REVERT INVALID LOG2 PUSH5 0x6970667358 0x22 SLT KECCAK256 MSIZE 0xCB 0xA7 SWAP9 DELEGATECALL ADD 0xBB 0xEB GT BASEFEE PUSH4 0xB4B6B957 0xBB SWAP11 SWAP5 0x5F 0x2D MSTORE8 0x4A LT 0xCF CALLDATALOAD 0x24 MSTORE SWAP8 0xA6 SWAP14 SHR 0xCC PUSH5 0x736F6C6343 STOP ADDMOD SMOD STOP CALLER ",
  "sha1": "1629eb4a66ebfdedeeb2d2bcb343d425f33b9c09",
  "source": "// SPDX-License-Identifier: MIT\npragma solidity ^0.8.0;\n\nimport {ERC721} from \"@openzeppelin/contracts/token/ERC721/ERC721.sol\";\nimport \"@openzeppelin/contracts/access/Ownable.sol\";\n\nimport {ISuperfluid, ISuperToken, ISuperApp, ISuperAgreement, SuperAppDefinitions} from \"../supercon/interfaces/superfluid/ISuperfluid.sol\";\n\nimport \"@openzeppelin/contracts/access/Ownable.sol\";\n\nimport \"../supercon/interfaces/agreements/IConstantFlowAgreementV1.sol\";\n\nimport \"@chainlink/contracts/src/v0.8/interfaces/AggregatorV3Interface.sol\";\n\nimport {ERC20} from \"@openzeppelin/contracts/token/ERC20/ERC20.sol\";\n\nimport {SuperAppBase} from \"../supercon/apps/SuperAppBase.sol\";\n\ncontract RedirectAll is SuperAppBase, Ownable {\n\n    ISuperfluid private _host; // host\n    IConstantFlowAgreementV1 private _cfa; // the stored constant flow agreement class address\n    ISuperToken private _acceptedToken; // accepted token\n    address[2] public _receiver;\n    address MoonSquareAddress;\n\n    constructor(\n        ISuperfluid host,\n        IConstantFlowAgreementV1 cfa,\n        ISuperToken acceptedToken,\n        //address dev,\n        address dao,\n        address moon) {\n        require(address(host) != address(0), \"host is zero address\");\n        require(address(cfa) != address(0), \"cfa is zero address\");\n        require(address(acceptedToken) != address(0), \"acceptedToken is zero address\");\n        //require(address(dev) != address(0), \"receiver is zero address\");\n        //require(!host.isApp(ISuperApp(dev)), \"receiver is an app\");\n\n        _host = host;\n        _cfa = cfa;\n        _acceptedToken = acceptedToken;\n        MoonSquareAddress = moon;\n        //_receiver.push(dev);\n        _receiver[0] = dao;\n\n        uint256 configWord =\n            SuperAppDefinitions.APP_LEVEL_FINAL |\n            SuperAppDefinitions.BEFORE_AGREEMENT_CREATED_NOOP |\n            SuperAppDefinitions.BEFORE_AGREEMENT_UPDATED_NOOP |\n            SuperAppDefinitions.BEFORE_AGREEMENT_TERMINATED_NOOP;\n\n        _host.registerApp(configWord);\n    }\n\n    /**************************************************************************\n     * Redirect Logic\n     *************************************************************************/\n\n    function currentReceiver()\n        external view\n        returns (\n            uint256 startTime,\n            address firstReceiver,\n            address secondReceiver,\n            int96 flowRate\n        )\n    {\n        (startTime, flowRate,,) = _cfa.getFlow(_acceptedToken, address(this), _receiver[1]);\n        firstReceiver = _receiver[0];\n        secondReceiver = _receiver[1];\n\n    }\n\n    event ReceiverChanged(address receiver); //what is this?\n\n    /// @dev If a new stream is opened, or an existing one is opened\n    function _updateOutflow(bytes calldata ctx)\n        private\n        returns (bytes memory newCtx)\n    {\n      newCtx = ctx;\n      // @dev This will give me the new flowRate, as it is called in after callbacks\n      for (uint96 i = 0; i < _receiver.length; i++){\n        int96 netFlowRate = _cfa.getNetFlow(_acceptedToken, address(this));\n        (,int96 outFlowRate,,) = _cfa.getFlow(_acceptedToken, address(this), _receiver[0]); // CHECK: unclear what happens if flow doesn't exist.\n        int96 inFlowRate = netFlowRate + (outFlowRate * 3);\n    \n          // @dev If inFlowRate === 0, then delete existing flow.\n          if (inFlowRate == int96(0)) {\n            // @dev if inFlowRate is zero, delete outflow.\n              (newCtx, ) = _host.callAgreementWithContext(\n                  _cfa,\n                  abi.encodeWithSelector(\n                      _cfa.deleteFlow.selector,\n                      _acceptedToken,\n                      address(this),\n                      _receiver[i],\n                      new bytes(0) // placeholder\n                  ),\n                  \"0x\",\n                  newCtx\n              );\n            } else if (outFlowRate != int96(0)){\n            (newCtx, ) = _host.callAgreementWithContext(\n                _cfa,\n                abi.encodeWithSelector(\n                    _cfa.updateFlow.selector,\n                    _acceptedToken,\n                    _receiver[i],\n                    (inFlowRate/2),\n                    new bytes(0) // placeholder\n                ),\n                \"0x\",\n                newCtx\n            );\n          } else {\n          // @dev If there is no existing outflow, then create new flow to equal inflow\n              (newCtx, ) = _host.callAgreementWithContext(\n                  _cfa,\n                  abi.encodeWithSelector(\n                      _cfa.createFlow.selector,\n                      _acceptedToken,\n                      _receiver[i],\n                      (inFlowRate/2),\n                      new bytes(0) // placeholder\n                  ),\n                  \"0x\",\n                  newCtx\n              );\n          }   \n      }\n    }\n\n    modifier onlyMoonSquares() {\n        require(msg.sender == MoonSquareAddress);\n        _;\n    }\n\n    function changeReceiverAdress(address _newReceiver) external onlyMoonSquares {\n       _changeReceiver(_newReceiver);\n    }\n\n    // @dev Change the Receiver of the total flow\n    function _changeReceiver( address newReceiver ) internal {\n        require(newReceiver != address(0), \"New receiver is zero address\");\n        // @dev because our app is registered as final, we can't take downstream apps\n        require(!_host.isApp(ISuperApp(newReceiver)), \"New receiver can not be a superApp\");\n        require(newReceiver != _receiver[0] || newReceiver != _receiver[1]);        \n        // @dev delete flow to old receiver\n    \n        (,int96 outFlowRate,,) = _cfa.getFlow(_acceptedToken, address(this), _receiver[0]); //CHECK: unclear what happens if flow doesn't exist.\n        if(outFlowRate > 0){\n          _host.callAgreement(\n              _cfa,\n              abi.encodeWithSelector(\n                  _cfa.deleteFlow.selector,\n                  _acceptedToken,\n                  address(this),\n                  _receiver[1],\n                  new bytes(0)\n              ),\n              \"0x\"\n          );\n          _receiver[1] = newReceiver;\n          // @dev create flow to new receiver\n          _host.callAgreement(\n              _cfa,\n              abi.encodeWithSelector(\n                  _cfa.createFlow.selector,\n                  _acceptedToken,\n                  _receiver[1],\n                  (_cfa.getNetFlow(_acceptedToken, address(this))/3),\n                  new bytes(0)\n              ),\n              \"0x\"\n          );\n        }\n        // @dev set global receiver to new receiver\n        _receiver[1] = newReceiver;\n\n        emit ReceiverChanged(_receiver[1]);\n    }\n\n    /**************************************************************************\n     * SuperApp callbacks\n     *************************************************************************/\n\n    function afterAgreementCreated(\n        ISuperToken _superToken,\n        address _agreementClass,\n        bytes32, // _agreementId,\n        bytes calldata /*_agreementData*/,\n        bytes calldata ,// _cbdata,\n        bytes calldata _ctx\n    )\n        external override\n        onlyExpected(_superToken, _agreementClass)\n        onlyHost\n        returns (bytes memory newCtx)\n    {\n        return _updateOutflow(_ctx);\n    }\n\n    function afterAgreementUpdated(\n        ISuperToken _superToken,\n        address _agreementClass,\n        bytes32 ,//_agreementId,\n        bytes calldata /*agreementData */,\n        bytes calldata ,//_cbdata,\n        bytes calldata _ctx\n    )\n        external override\n        onlyExpected(_superToken, _agreementClass)\n        onlyHost\n        returns (bytes memory newCtx)\n    {\n        return _updateOutflow(_ctx);\n    }\n\n    function afterAgreementTerminated(\n        ISuperToken _superToken,\n        address _agreementClass,\n        bytes32 ,//_agreementId,\n        bytes calldata /*_agreementData*/,\n        bytes calldata ,//_cbdata,\n        bytes calldata _ctx\n    )\n        external override\n        onlyHost\n        returns (bytes memory newCtx)\n    {\n        // According to the app basic law, we should never revert in a termination callback\n        if (!_isSameToken(_superToken) || !_isCFAv1(_agreementClass)) return _ctx;\n        return _updateOutflow(_ctx);\n    }\n\n    function _isSameToken(ISuperToken superToken) private view returns (bool) {\n        return address(superToken) == address(_acceptedToken);\n    }\n\n    function _isCFAv1(address agreementClass) private view returns (bool) {\n        return ISuperAgreement(agreementClass).agreementType()\n            == keccak256(\"org.superfluid-finance.agreements.ConstantFlowAgreement.v1\");\n    }\n\n    modifier onlyHost() {\n        require(msg.sender == address(_host), \"RedirectAll: support only one host\");\n        _;\n    }\n\n    modifier onlyExpected(ISuperToken superToken, address agreementClass) {\n        require(_isSameToken(superToken), \"RedirectAll: not accepted token\");\n        require(_isCFAv1(agreementClass), \"RedirectAll: only CFAv1 supported\");\n        _;\n    }\n\n}",
  "sourcePath": "contracts/Redirect.sol",
  "type": "contract"
}